S01200002E2E2F756E7469746C65642E733139EE
S32D0000C0000000002069C90000C5CC0000C5CC0000C5CC0000C5CC0000C5CC0000000000000000000000000000EB
S32D0000C02800000000C5CC0000C5CC000000000000C5CC0000C5CC0000C5CC0000C5CC0000C5CC0000C5CC000062
S32D0000C050C5CC0000C5CC0000C5CC0000C5CC0000C5CC0000C5CC0000C5CC0000C5CC0000C5CC0000C5CC000018
S32D0000C078C5CC0000C5CC0000C5CC0000C5CC0000C5CC0000C5CC0000C5CC0000C5CC0000C5CC0000C5CC0000F0
S32D0000C0A0C5CC0000C5CC0000C5CC0000C5CC0000C5CC0000C5CC0000C5CC0000C5CC0000C5CC0000C5CC0000C8
S32D0000C0C8C5CC0000C5CC0000C5CC0000C5CC0000C5CC0000C5CC0000C5CC0000C5CC0000C5CC0000C5CC0000A0
S32D0000C0F0C5CC0000D1FB0000C5CC0000C5CC0000C5CC0000C5CC0000C5CC0000C5CC0000C5CC0000C5CC00003D
S32D0000C118C5CC0000C5CC0000C5CC0000C5CC0000C5CC0000C5CC0000C5CC0000C5CC0000C5CC0000C5CC00004F
S32D0000C140C5CC0000C5CC0000C5CC0000C5CC0000EDD70000C5CC0000C5CC0000C5CC0000C5CC0000C5CC0000F4
S32D0000C168C5CC0000C5CC0000C5CC0000C5CC0000C5CC0000C5CC0000C5CC0000C5CC0000C5CC0000C5CC0000FF
S32D0000C190C5CC0000C5CC0000C5CC0000C5CC0000C5CC0000C5CC000015CD0000C5CC0000C5CC0000C5CC000086
S32D0000C1B8C5CC0000C5CC0000C5CC0000C5CC0000C5CC0000C5CC0000C5CC0000C5CC0000C5CC0000C5CC0000AF
S32D0000C41080F0004002E000BF81F0004142001FBF5FEA410392EA030F7FEA226C7FEA236C6AD04FEA1262D2EB2D
S32D0000C4381363C1BFD218414048404140B8BF5B42192B88BF704710F0004F40F4000020F07F4018BF404211F06A
S32D0000C460004F41F4000121F07F4118BF494292EA030F3FD0A2F1010241FA03FC10EB0C00C3F1200301FA03F1BC
S32D0000C48800F0004302D5494260EB4000B0F5000F13D3B0F1807F06D340084FEA310102F10102FE2A51D2B1F1BD
S32D0000C4B0004F40EBC25008BF20F0010040EA03007047490040EB000010F4000FA2F10102EDD1B0FA80FCACF178
S32D0000C4D8080CB2EB0C0200FA0CF0AABF00EBC25052421843BCBFD0401843704792F0000F81F4000106BF80F44F
S32D0000C50000000132013BB5E74FEA41037FEA226C18BF7FEA236C21D092EA030F04D092F0000F08BF084670470F
S32D0000C52890EA010F1CBF0020704712F07F4F04D1400028BF40F00040704712F100723CBF00F50000704700F0AA
S32D0000C550004343F0FE4040F4000070477FEA226216BF08467FEA23630146420206BF5FEA412390EA010F40F464
S32D0000C578800070474FF0000304E000BF10F0004348BF40425FEA000C08BF704743F0964301464FF000001CE04C
S32D0000C5A050EA010208BF70474FF000030AE000BF50EA010208BF704711F0004302D5404261EB41015FEA010C8B
S32D0000C5C802BF84460146002043F0B64308BFA3F18053A3F50003BCFA8CF2083AA3EBC25310DB01FA02FC6344BA
S32D0000C5F000FA02FCC2F12002BCF1004F20FA02F243EB020008BF20F00100704702F1200201FA02FCC2F12002A4
S32D0000C61850EA4C0021FA02F243EB020008BF20EADC7070474FF0FF0C1CEAD0521EBF1CEAD15392EA0C0F93EACE
S32D0000C6400C0F6FD01A4480EA010C400218BF5FEA41211ED04FF0006343EA501043EA5111A0FB01310CF0004024
S32D0000C668B1F5000F3EBF490041EAD3715B0040EA010062F17F02FD2A1DD8B3F1004F40EBC25008BF20F00100BC
S32D0000C690704790F0000F0CF0004C08BF49024CEA502040EA51207F3AC2BFD2F1FF0340EAC250704740F4000075
S32D0000C6B84FF00003013A5DDC12F1190FDCBF00F000407047C2F10002410021FA02F1C2F1200200FA02FC5FEAD7
S32D0000C6E0310040F1000053EA4C0308BF20EADC70704792F0000F00F0004C02BF400010F4000F013AF9D040EA5B
S32D0000C7080C0093F0000F01F0004C02BF490011F4000F013BF9D041EA0C018FE70CEAD15392EA0C0F18BF93EA52
S32D0000C7300C0F0AD030F0004C18BF31F0004CD8D180EA010000F00040704790F0000F17BF90F0004F084691F038
S32D0000C758000F91F0004F14D092EA0C0F01D142020FD193EA0C0F03D14B0218BF084608D180EA010000F0004011
S32D0000C78040F0FE4040F40000704740F0FE4040F4400070474FF0FF0C1CEAD0521EBF1CEAD15392EA0C0F93EA0C
S32D0000C7A80C0F69D0A2EB030280EA010C49024FEA402037D04FF0805343EA111143EA10130CF000408B4238BF6A
S32D0000C7D05B0042F17D024FF4000C8B4224BF5B1A40EA0C00B3EB510F24BFA3EB510340EA5C00B3EB910F24BF1A
S32D0000C7F8A3EB910340EA9C00B3EBD10F24BFA3EBD10340EADC001B0118BF5FEA1C1CE0D1FD2A3FF650AF8B4215
S32D0000C82040EBC25008BF20F0010070470CF0004C4CEA50207F32C2BFD2F1FF0340EAC250704740F400004FF0D3
S32D0000C8480003013A37E792F0000F00F0004C02BF400010F4000F013AF9D040EA0C0093F0000F01F0004C02BFBB
S32D0000C870490011F4000F013BF9D041EA0C0195E70CEAD15392EA0C0F08D142027FF47DAF93EA0C0F7FF470AFED
S32D0000C898084676E793EA0C0F04D14B023FF44CAF08466EE730F0004C18BF31F0004CCAD130F000427FF45CAF11
S32D0000C8C031F000437FF43CAF5FE700BF80B582B000AF07F1040318464FF0030101F062F843F25C60C1F6FF706B
S32D0000C8E84FF0000101F046FE43F25C60C1F6FF704FF0010101F090FE00E000BF07F10403184601F0D1F80346D7
S32D0000C910002BF6D043F25C60C1F6FF7041F28001C0F2010101F0FEFE4FF0640000F070FCE7E700BF80B500AF2C
S32D0000C93843F2F862C1F6FF7243F21C63C1F6FF73D31A194643F21C63C1F6FF731A460B4610464FF000011A466D
S32D0000C96003F00EFB80BD00BF04F078FB00F0B0F9FFF7E0FF04F04AFB04F0E6FA04F07EFB00F00CF84FF000002F
S32D0000C98843F21C61C1F6FF71FFF79CFF0346184603F0D6FA80B500AF4FF4E043C4F204034FF4E042C4F2040285
S32D0000C9B002F5805202F13802126842F4785203F5805303F138031A6000F02EF900F094F843F22863C1F6FF73F9
S32D0000C9D84FF058021A6043F22863C1F6FF731B684FF47A7202FB03F243F22463C1F6FF731A6043F22463C1F6BF
S32D0000CA00FF731B681A464FF4E043C4F2040303F5825303F104031B6803F070634FEA136303F10103B2FBF3F345
S32D0000CA281A4643F22C63C1F6FF731A604FF4E043C4F204034FF4E042C4F2040202F5805202F13C02126842F02F
S32D0000CA50225203F5805303F13C031A604FF4E043C4F204034FF4E042C4F2040202F5805202F13002126842F0EE
S32D0000CA78006203F5805303F130031A604FF45043C4F203034FF480721A614FF0640000F08BFA4FF45043C4F2DC
S32D0000CAA003034FF45042C4F20302526922F010025A614FF45043C4F203034FF000021A604FF45043C4F2030359
S32D0000CAC84FF010025A6100F0FDFD00F0A5FE43F22060C1F6FF7000F0EBFA43F25C60C1F6FF7001F02FFC41F2A1
S32D0000CAF0883000F08DFB80BD80B400AF4FF48043C4F206034FF000025A704FF48043C4F206034FF098021A70D0
S32D0000CB184FF48043C4F206039B79DBB203F01003002B0CBF00230123DBB2002BF0D14FF48043C4F206039B79F4
S32D0000CB40DBB203F00C034FEA9303022B0CBF00230123DBB2002BEED14FF48043C4F206034FF018021A714FF4C7
S32D0000CB688043C4F206034FF000025A714FF4E043C4F2040303F5825303F104034FF00002C0F213121A604FF451
S32D0000CB908043C4F206034FF054025A7100BF4FF48043C4F206039B79DBB203F02003002B14BF00230123DBB288
S32D0000CBB8002BF0D100BF4FF48043C4F206039B79DBB203F04003002B14BF00230123DBB2002BF0D14FF4804344
S32D0000CBE0C4F206034FF48042C4F206021278D2B202F03F02D2B21A704FF48043C4F206039B79DBB203F00C03EE
S32D0000CC084FEA9303032B0CBF00230123DBB2002BEED14FF000031846BD4680BC704700BF80B400AF4FF440437A
S32D0000CC30C4F204034FF480725A634FF2C003C4F20F034FF2C002C4F20F02526942F400525A614FF2C003C4F2D9
S32D0000CC580F034FF2C002C4F20F02126842F400521A604FF44043C4F2040340F20312C0F20A021A634FF461436A
S32D0000CC80CEF200034FF46142CEF20002D2F8882142F08062C3F888214FF46143CEF200034FF46142CEF20002DE
S32D0000CCA8926842F080629A60BD4680BC704700BF80B483B000AF7860FEE700BF80B400AF00BEBD4680BC704778
S32D0000CCD080B400AF4FF0E0224CF20003C0F20003C2F8083D4FF40053C4F205034CF22052DA814FF40053C4F272
S32D0000CCF805034DF62812DA814FF40053C4F205034FF0D2021A80BD4680BC704780B400AF4FF44043C4F20403D1
S32D0000CD20D3F8A03003F48053002B0CBF00230123DBB2002B19D04FF44043C4F204034FF44042C4F20402D2F8D4
S32D0000CD48A02022F48052C3F8A0204FF2C003C4F20F034FF2C002C4F20F02126822F400521A60BD4680BC7047B2
S32D0000CD7090B486B000AFF860B9607A60FA684FF42043C4F206039A4214D14FF4E043C4F204034FF4E042C4F25B
S32D0000CD98040202F5805202F13402126842F4806203F5805303F134031A6083E0FA684FF43043C4F206039A425D
S32D0000CDC014D14FF4E043C4F204034FF4E042C4F2040202F5805202F13402126842F4006203F5805303F1340322
S32D0000CDE81A6067E0FA684FF44043C4F206039A4214D14FF4E043C4F204034FF4E042C4F2040202F5805202F1B4
S32D0000CE103402126842F4805203F5805303F134031A604BE0FA684FF45043C4F206039A4214D14FF4E043C4F2CD
S32D0000CE3804034FF4E042C4F2040202F5805202F13402126842F4005203F5805303F134031A602FE0FA684FF48C
S32D0000CE602043C4F20E039A4214D14FF4E043C4F204034FF4E042C4F2040202F5805202F12802126842F48062FD
S32D0000CE8803F5805303F128031A6013E04FF4E043C4F204034FF4E042C4F2040202F5805202F12802126842F44B
S32D0000CEB0006203F5805303F128031A60FB68DB78DBB223F00C03DAB2FB68DA70FB684FF000029A70BB684FF4DC
S32D0000CED87A7202FB03F27B684FEA031392FBF3F39CB2FB681B78DBB223F01F03FB75234603F4F8534FEA232309
S32D0000CF00DBB203F01F03DAB2FB7D1343DAB2FB681A70E2B2FB685A70BB684FF4FA4202FB03F27B684FEA031307
S32D0000CF2892FBF3F39AB2234619464FEAC121CB1A4FEA43139BB2D3189CB2FB689B7ADBB223F01F03FB75E3B200
S32D0000CF5003F01F03DAB2FB7D1343DAB2FB689A72FB68DB78DBB243F00C03DAB2FB68DA7007F11807BD4690BC25
S32D0000CF78704700BF80B483B000AF786000BF7B681B79DBB203F02003002B14BF00230123DBB2002BF3D17B68AA
S32D0000CFA0DB79DBB2184607F10C07BD4680BC704780B483B000AF78604FF4E043C4F204034FF4E042C4F20402F1
S32D0000CFC802F5805202F13802126842F0010203F5805303F138031A604FF00003C4F204037A689A604FF0000305
S32D0000CFF0C4F204034FF005025A604FF00003C4F204034FF00002C4F20402126842F001021A6000BF4FF0000330
S32D0000D018C4F204031B6803F08003002B14BF00230123DBB2002BF1D14FF00003C4F204034FF00002C4F2040279
S32D0000D040126822F001021A6007F10C07BD4680BC704700BF80B582B000AF786039607B68012B0AD13A684FF6A1
S32D0000D068FF739A4205D143F22060C1F6FF7000F00FF807F10807BD4680BD00BF80B500AF4FF001004FF6FF71C5
S32D0000D090FFF7E0FF80BD00BF80B483B000AF78607B684FF000021A707B68184607F10C07BD4680BC704700BF04
S32D0000D0B880B582B000AF78607B681B7883F00103DBB2002B36D04FF4E043C4F2040303F5805303F128034FF461
S32D0000D0E000621A604FF45043C4F204034FF440721A624FF45043C4F204034FF440725A6243F22463C1F6FF7319
S32D0000D1081B684FEAD372D3184FEA63034FF43040C4F20E0019464FF46142FFF725FE4FF0640000F071F87B68BA
S32D0000D1304FF001021A704FF0010301E04FF00003184607F10807BD4680BD00BF80B487B000AFF860B9607A60D6
S32D0000D158FA6844F6D353C1F26203A3FB02134FEA9312BB68D3187B61FA6844F6D353C1F26203A3FB02134FEA8E
S32D0000D18093134FF47A7101FB03F3D31AFB60FB684FEAC33244F6D353C1F26203A3FB02134FEA93127B68D3180B
S32D0000D1A83B613B694FEAD3337A69D3187B613B694FEA43434FEA53433B614FF45043C4F203031B681A467B6909
S32D0000D1D09A4211D34FF45043C4F203031B681A467B699A420BD14FF45043C4F203035B681A463B699A4202D257
S32D0000D1F84FF0010301E04FF00003002BDDD107F11C07BD4680BC704780B584B000AF78604FF45043C4F2030337
S32D0000D2201B68FB604FF45043C4F203035B68BB607B681846F968BA68FFF788FF07F11007BD4680BD80B483B09B
S32D0000D24800AF78607B68184607F10C07BD4680BC704700BF80B483B000AF78600B46FB707B68FA781A707B68C4
S32D0000D2701B781A4641F2C403C0F201039B5C042B00F2F98001A252F823F000BFA1D20000FFD200005DD3000029
S32D0000D298BBD3000019D400004FF41043C4F204037A681278114641F20812C0F2010252F8212040F2031143F8C9
S32D0000D2C022104FF47043C4F20F034FF47042C4F20F02526911467A681278104641F20812C0F2010252F8202034
S32D0000D2E802F01F024FF0010000FA02F26FEA02020A405A61BBE04FF42043C4F204037A681278114641F2081267
S32D0000D310C0F2010252F8212040F2031143F822104FF24003C4F20F034FF24002C4F20F02526911467A681278E8
S32D0000D338104641F20812C0F2010252F8202002F01F024FF0010000FA02F26FEA02020A405A618CE04FF4304320
S32D0000D360C4F204037A681278114641F20812C0F2010252F8212040F2031143F822104FF28003C4F20F034FF212
S32D0000D3888002C4F20F02526911467A681278104641F20812C0F2010252F8202002F01F024FF0010000FA02F28D
S32D0000D3B06FEA02020A405A615DE04FF44043C4F204037A681278114641F20812C0F2010252F8212040F2031197
S32D0000D3D843F822104FF2C003C4F20F034FF2C002C4F20F02526911467A681278104641F20812C0F2010252F804
S32D0000D400202002F01F024FF0010000FA02F26FEA02020A405A612EE04FF45043C4F204037A681278114641F284
S32D0000D4280812C0F2010252F8212040F2031143F822104FF47143C4F20F034FF47142C4F20F02526911467A6859
S32D0000D4501278104641F20812C0F2010252F8202002F01F024FF0010000FA02F26FEA02020A405A6100BF07F1E8
S32D0000D4780C07BD4680BC704780B485B000AF78604FF00003FB607B681B781A4641F2C403C0F201039B5C042B44
S32D0000D4A000F2868001A252F823F000BFC1D40000F1D4000021D5000051D5000081D500004FF47043C4F20F031D
S32D0000D4C81B691A467B681B78194641F20813C0F2010353F8213003F01F034FF0010101FA03F31340FB605FE0A9
S32D0000D4F04FF24003C4F20F031B691A467B681B78194641F20813C0F2010353F8213003F01F034FF0010101FA18
S32D0000D51803F31340FB6047E04FF28003C4F20F031B691A467B681B78194641F20813C0F2010353F8213003F042
S32D0000D5401F034FF0010101FA03F31340FB602FE04FF2C003C4F20F031B691A467B681B78194641F20813C0F227
S32D0000D568010353F8213003F01F034FF0010101FA03F31340FB6017E04FF47143C4F20F031B691A467B681B78F0
S32D0000D590194641F20813C0F2010353F8213003F01F034FF0010101FA03F31340FB6000BFFB68002B0CBF00233E
S32D0000D5B80123DBB2184607F11407BD4680BC704780B483B000AF78600B46FB707B68FA781A707B68184607F16B
S32D0000D5E00C07BD4680BC704780B586B000AF78607B681B781A4641F28813C0F2010353F822303B617B681B7819
S32D0000D6081A4641F2E403C0F201039B5CFB733B69DBB203F01F03DAB243F24063C1F6FF731A723B69DBB203F0DC
S32D0000D6301F03DAB243F24063C1F6FF735A72FB7B002B1ED14FF43040C4F2030043F24061C1F6FF7100F0E6FA88
S32D0000D6584FF43043C4F203031B6803F08003002B14BF00230123DBB2002BF1D14FF43043C4F203031B697B61A8
S32D0000D6801DE04FF43040C4F20B0043F24061C1F6FF7100F0C7FA4FF43043C4F20B031B6803F08003002B14BFEC
S32D0000D6A800230123DBB2002BF1D14FF43043C4F20B031B697B617B69184607F11807BD4680BD00BF98B500AF65
S32D0000D6D043F23063C1F6FF734FF05C021A7043F23063C1F6FF734FF010025A7043F23063C1F6FF7341F234228E
S32D0000D6F85A8043F23063C1F6FF7345F278629A8043F23063C1F6FF734FF010029A7143F23063C1F6FF734FF091
S32D0000D7200702DA7143F23063C1F6FF734FF4C022DA6043F23063C1F6FF734FF01F021A7243F23063C1F6FF7369
S32D0000D7484FF01F025A724FF43040C4F2030043F23061C1F6FF7100F061FA4FF43040C4F20B0043F23061C1F6F2
S32D0000D770FF7100F057FA4FF43040C4F20B0000F0ABF94FF43040C4F2030000F0A5F94FF43040C4F20B0043F22F
S32D0000D7983061C1F6FF7100F041FA4FF43040C4F2030043F23061C1F6FF7100F037FA43F24062C1F6FF7243F2D2
S32D0000D7C03063C1F6FF7314460FCB84E80F0043F24063C1F6FF734FF05C021A7043F24063C1F6FF734FF0040262
S32D0000D7E8DA7198BD80B500AF43F25463C1F6FF731B6803F1010243F25463C1F6FF731A6000F04CF84FF4E043D7
S32D0000D810C4F203034FF00102C3F80C2180BD00BF80B500AF4FF4E043C4F203034FF001021A6048F2A060C0F25A
S32D0000D838010000F023F84FF4E043C4F203034FF00302C3F808214FF46143CEF200034FF46142CEF20002D2F850
S32D0000D860882142F01002C3F888214FF46143CEF200034FF46142CEF20002926842F010029A6080BD80B483B01B
S32D0000D88800AF78604FF4E043C4F203037A68C3F8002107F10C07BD4680BC704780B584B000AF43F25063C1F653
S32D0000D8B0FF731B68FB6029E0FB685B78FB71FB689B68184600F02EF80346BB71BB79002B19D0FB685B68012B66
S32D0000D8D815DDFB689B681B69BB6008E0BB685B6803F10102BB685A60BB681B69BB60BB68002B0CBF0023012367
S32D0000D900DBB2002BEED1FB68DB68FB60FB68002B0CBF00230123DBB2002BCDD107F11007BD4680BD80B584B0D3
S32D0000D92800AF78607868FFF75BFE0346FB607B689B695B78FB72FB7A002B12D17B68DA68FB689A420DDA7B689F
S32D0000D9509B694FF001025A707B685B6803F101027B685A604FF0010317E0FB7A012B12D17B689A68FB689A427D
S32D0000D9780DDD7B689B694FF000025A707B685B6803F101027B685A604FF0010301E04FF00003184607F1100798
S32D0000D9A0BD4680BD80B582B000AF78600B46FB707B681846FFF746FC7B6803F101031846FFF740FC7B6803F1B4
S32D0000D9C802031846FFF73AFCFB78032B66D801A252F823F0EDD900001BDA000049DA000077DA00007B68184653
S32D0000D9F04FF00001FFF732FC7B6803F1010318464FF00101FFF72AFC7B6803F1020318464FF00201FFF722FC7F
S32D0000DA1844E07B6818464FF00801FFF71BFC7B6803F1010318464FF00901FFF713FC7B6803F1020318464FF026
S32D0000DA400A01FFF70BFC2DE07B6818464FF01001FFF704FC7B6803F1010318464FF01101FFF7FCFB7B6803F1CE
S32D0000DA68020318464FF01201FFF7F4FB16E07B6818464FF01801FFF7EDFB7B6803F1010318464FF01901FFF701
S32D0000DA90E5FB7B6803F1020318464FF01A01FFF7DDFB00BF7B68184607F10807BD4680BD80B582B000AF7860F1
S32D0000DAB87B6803F101031846FFF7DEFC034683F00103DBB2184607F10807BD4680BD00BF80B485B000AF786096
S32D0000DAE07B681B6A23F040027B681A627B685B6A23F00B027B685A627B685B6A43F007027B685A627B685B6A6A
S32D0000DB0843F080027B685A627B681B6803F08003002B14BF00230123DBB2002BF4D17B685B6A03F04003002BF4
S32D0000DB300CBF00230123DBB2002B02D04FF0010369E04FF00003FB817B68DB6CFB817B689B6C9AB2FB89D31896
S32D0000DB58FB817B685B6C9AB2FB89D318FB817B681B6C9AB2FB89D318FB817B68DB6B9AB2FB89D318FB817B685E
S32D0000DB809B6B9AB2FB89D318FB81FB894FEA5303FB81FB896FEA43436FEA5343FB81FA897B68DA624FF00003F9
S32D0000DBA8FB817B68DB6EFB817B689B6E9AB2FB89D318FB817B685B6E9AB2FB89D318FB817B681B6E9AB2FB89E9
S32D0000DBD0D318FB817B68DB6D9AB2FB89D318FB817B689B6D9AB2FB89D318FB81FB894FEA5303FB81FB896FEAD0
S32D0000DBF843436FEA5343FB81FA897B681A637B685B6A23F080027B685A624FF00003184607F11407BD4680BC5D
S32D0000DC20704700BF80B483B000AF786039603B681B781A467B689A603B685B781A467B68DA603B685B881A468D
S32D0000DC487B689A613B689B881A467B68DA613B689B791A467B681A623B68DB791A467B685A623B68DA687B6858
S32D0000DC701A653B681B7A1A467B681A603B685B7A1A467B685A6007F10C07BD4680BC704780B483B000AF7860AE
S32D0000DC987B68184607F10C07BD4680BC704700BF80B582B000AF786039607B68012B0AD13A684FF6FF739A42B7
S32D0000DCC005D143F25860C1F6FF70FFF7E1FF07F10807BD4680BD00BF80B500AF4FF001004FF6FF71FFF7E0FFC3
S32D0000DCE880BD00BF80B483B000AF78600B46FB707B68FA781A707B684FF4FA725A807B6840F6C4129A807B6831
S32D0000DD10044A9A607B68184607F10C07BD4680BC704700BF000080BF80B582B000AF78604FF43043C4F20403FC
S32D0000DD384FF48072DA604FF42043C4F204034FF480729A644FF42043C4F204034FF480721A644FF42043C4F246
S32D0000DD6004034FF480725A644FF42043C4F204034FF48072DA604FF28003C4F20F034FF28002C4F20F025269F8
S32D0000DD8842F008025A614FF24003C4F20F034FF24002C4F20F02526942F480225A614FF24003C4F20F034FF205
S32D0000DDB04002C4F20F02526942F480325A614FF24003C4F20F034FF24002C4F20F02526942F400325A614FF229
S32D0000DDD84003C4F20F034FF24002C4F20F02126842F008021A604FF24003C4F20F034FF24002C4F20F02526947
S32D0000DE0042F008025A614FF28003C4F20F034FF28002C4F20F02126842F008021A604FF42043C4F204034FF411
S32D0000DE2880725A624FF42043C4F204034FF480721A624FF43043C4F204034FF480721A614FF43043C4F2040374
S32D0000DE504FF480725A614FF43043C4F204034FF480729A614FF43043C4F204034FF48072DA614FF43043C4F2C2
S32D0000DE7804034FF480721A634FF43043C4F204034FF480725A634FF43043C4F204034FF480729A634FF4304303
S32D0000DEA0C4F204034FF48072DA634FF43043C4F204034FF480721A644FF43043C4F204034FF480725A644FF456
S32D0000DEC83043C4F204034FF480729A644FF43043C4F204034FF48072DA644FF44043C4F204034FF480721A60B1
S32D0000DEF04FF44043C4F204034FF480729A604FF44043C4F204034FF48072DA604FF44043C4F204034FF48072A8
S32D0000DF181A614FF24003C4F20F034FF24002C4F20F02526942F440725A614FF28002C4F20F024FF28003C4F268
S32D0000DF400F035B6919464FF2F003C0F20F030B4353614FF2C003C4F20F034FF2C002C4F20F02526942F01D02E2
S32D0000DF685A6178684FF0E20100F0ECFB78684FF01D0100F02BFD78684FF0020100F026FD78684FF0040100F059
S32D0000DF9021FD78684FF0E00100F0D8FB78684FF0010100F017FD4FF06400FFF731F978684FF0E00100F0CAFBE5
S32D0000DFB878684FF0030100F009FD78684FF0010100F0C0FB4FF00100FFF71EF978684FF0E60100F0B7FB786881
S32D0000DFE04FF0010100F0F6FC78684FF0A00100F0F1FC78684FF0FF0100F0ECFC78684FF0B00100F0A3FB78681E
S32D0000E0084FF01C0100F0E2FC78684FF00F0100F0DDFC78684FF0010100F0D8FC78684FF03F0100F0D3FC7868E5
S32D0000E0304FF0000100F0CEFC78684FF0EF0100F0C9FC78684FF0000100F0C4FC78684FF0B40100F07BFB78681A
S32D0000E0584FF0010100F0BAFC78684FF0990100F0B5FC78684FF0000100F0B0FC78684FF0450100F0ABFC7868C1
S32D0000E0804FF0020100F0A6FC78684FF0000100F0A1FC78684FF0000100F09CFC78684FF0000100F097FC7868C6
S32D0000E0A84FF0B60100F04EFB78684FF0010100F08DFC78684FF0090100F088FC78684FF0000100F083FC786875
S32D0000E0D04FF00E0100F07EFC78684FF0020100F079FC78684FF0000100F074FC78684FF0000100F06FFC786808
S32D0000E0F84FF0BA0100F026FB78684FF00F0100F065FC4FF06400FFF77FF878684FF03A0100F018FB78684FF0E3
S32D0000E120600100F057FC78684FF02A0100F00EFB78684FF0000100F04DFC78684FF0000100F048FC78684FF01E
S32D0000E148010100F043FC78684FF03F0100F03EFC78684FF02B0100F0F5FA78684FF0000100F034FC78684FF066
S32D0000E170000100F02FFC78684FF0000100F02AFC78684FF0EF0100F025FC78684FF0360100F0DCFA78684FF0D4
S32D0000E198000100F01BFC78684FF0F00100F0D2FA78684FF0040100F011FC78684FF0B80100F0C8FA78684FF0BB
S32D0000E1C00F0100F007FC78684FF0010100F002FC4FF24003C4F20F034FF24002C4F20F02126842F008021A6059
S32D0000E1E84FF06400FFF710F878684FF0360100F0A9FA78684FF0000100F0E8FB78684FF0F00100F09FFA786813
S32D0000E2104FF0040100F0DEFB43F25C60C1F6FF704FF0010100F0AAF943F25C60C1F6FF704FF06F014FF01E02C3
S32D0000E23800F0A4F843F25C60C1F6FF704FF0000100F0EAF943F25C60C1F6FF7041F29001C0F201014FF05A02D8
S32D0000E2604FF0AF0300F004FA78684FF0290100F06DFA4FF06400FEF7CBFF78684FF0BE0100F064FA78684FF064
S32D0000E2880E0100F0A3FB78684FF0F00100F09EFB78684FF0010100F099FB78684FF0000100F094FB78684FF0CF
S32D0000E2B0000100F08FFB78684FF00F0100F08AFB43F25C60C1F6FF704FF0010100F0A8F943F25C60C1F6FF7021
S32D0000E2D84FF0000100F078F907F10807BD4680BD80B582B000AF78607B684FF00002DA617B684FF001021A6242
S32D0000E3007B684FF00E025A607B684FF01A029A607B684FF000025A617B684FF000029A617B684FF4A072DA605B
S32D0000E3287B684FF0F0021A617B684FF000021A70786801F071F97B68184607F10807BD4680BD00BF80B582B0A1
S32D0000E35000AF786043F29863C1F6FF731B7883F00103DBB2002B09D043F29863C1F6FF734FF001021A7078681F
S32D0000E378FFF7D6FC07F10807BD4680BD80B58AB002AFF860B9607A604FF07E030093F868B9687A684FF06203A3
S32D0000E3A000F09EFD4FF00003FB614FF00003BB6155E04FF000037B6145E040F20043C1F6FF73FA699B181B7809
S32D0000E3C8002B09D14FF0FF03FB744FF0FF03BB744FF0FF037B741BE040F20043C1F6FF73FA699B181B78012B64
S32D0000E3F009D14FF0D403FB744FF00003BB744FF026037B7408E04FF0B503FB744FF0BA03BB744FF0B0037B747E
S32D0000E418F97CBA7C7B7CF86800F08AF80246FB68DA61F86801F0F8F8F86800F095FFFB6903F10103FB617B69BB
S32D0000E44003F101037B617B69612BCCBF00230123DBB2002BB1D1BB6903F10103BB61BB697D2BCCBF0023012388
S32D0000E468DBB2002BA1D107F12007BD4680BD00BF80B485B000AF78600B46FB70FB78062B2ED801A252F823F0E8
S32D0000E490B5E40000ADE40000BDE40000C5E40000CDE40000D5E40000DDE400006FF07F43FB6019E04FF0000308
S32D0000E4B8FB6015E04FF47F03FB6011E04FF47F43FB600DE04FF0FF03FB6009E04FF41903FB6005E049F6991379
S32D0000E4E0C0F29903FB6000BFFB68184607F11407BD4680BC704700BF80B584B000AF786039603B6803F47F0378
S32D0000E5084FEA1343FB733B6803F47F434FEA1323BB733B687B73F97BBA7B7B7B786800F007F80346184607F151
S32D0000E5301007BD4680BD00BF80B487B000AF7860F970BA707B70FB784FEAA3037B61BB784FEAA3033B617B7868
S32D0000E5584FEAA303FB607B694FEA03323B694FEA83131A43FB681343184607F11C07BD4680BC704780B582B0AA
S32D0000E58000AF78600B46FB70FB7878681946FFF773FF03467868194600F004F807F10807BD4680BD80B582B0EE
S32D0000E5A800AF7860396078683968FFF7A1FF02467B681A62786801F02FF8786800F030FB07F10807BD4680BD2D
S32D0000E5D080B582B000AF78600B46FB70FB7878681946FFF749FF03467868194600F004F807F10807BD4680BDC8
S32D0000E5F880B582B000AF7860396078683968FFF777FF02467B681A62786801F005F807F10807BD4680BD00BF06
S32D0000E62080B582B000AF78600B46FB70FB7878681946FFF721FF03467868194600F004F807F10807BD4680BD9F
S32D0000E64880B582B000AF7860396078683968FFF74FFF02467B68DA61786800F0DDFF07F10807BD4680BD00BF40
S32D0000E67080B586B000AFF860B9607A603B604FF000037B6110E07B69BA68D3181B78F86879683A6800F0CAFC51
S32D0000E6987B6803F10C037B607B6903F101037B617B69BA68D3181B78002B0CBF00230123DBB2002BE3D107F1B6
S32D0000E6C01807BD4680BD00BF80B584B000AF786039604FF00003FB60786800F0D1FB11E07B6859697B689A69D0
S32D0000E6E8FB683868C3181B78786800F07BFC786800F0D8FBFB6803F10103FB60FB683A68D3181B78002B0CBF7A
S32D0000E71000230123DBB2002BE2D107F11007BD4680BD00BF80B582B000AF78603960786800F0A6FB78683968A2
S32D0000E738FFF7C6FF786800F087FB07F10807BD4680BD00BF80B483B000AF78600B46FB704FF28003C4F20F036A
S32D0000E7604FF28002C4F20F02126822F008021A604FF24003C4F20F034FF24002C4F20F02126822F480221A60AF
S32D0000E7884FF24003C4F20F034FF24002C4F20F02126842F480321A604FF24003C4F20F034FF24002C4F20F025B
S32D0000E7B0126822F440721A604FF28003C4F20F034FF28002C4F20F02126822F4425222F070021A604FF24003C3
S32D0000E7D8C4F20F034FF24002C4F20F0212681146FA7802F00102D2B2002A02D04FF4007201E04FF000020A4325
S32D0000E8001A604FF24003C4F20F034FF24002C4F20F0212681146FA7802F00202002A02D04FF4807201E04FF050
S32D0000E82800020A431A604FF28003C4F20F034FF28002C4F20F0212681146FA7802F00402002A02D04FF010025B
S32D0000E85001E04FF000020A431A604FF28003C4F20F034FF28002C4F20F0212681146FA7802F00802002A02D060
S32D0000E8784FF0200201E04FF000020A431A604FF28003C4F20F034FF28002C4F20F0212681146FA7802F01002CB
S32D0000E8A0002A02D04FF0400201E04FF000020A431A604FF28003C4F20F034FF28002C4F20F0212681146FA788B
S32D0000E8C802F02002002A02D04FF0800201E04FF000020A431A604FF28003C4F20F034FF28002C4F20F021268D8
S32D0000E8F01146FA7802F04002002A02D04FF4805201E04FF000020A431A604FF28003C4F20F034FF28002C4F2FE
S32D0000E9180F0212681146FA7852B2002A02DA4FF4005201E04FF000020A431A604FF24003C4F20F034FF2400226
S32D0000E940C4F20F02126822F400321A604FF24003C4F20F034FF24002C4F20F02126842F400321A604FF28003F0
S32D0000E968C4F20F034FF28002C4F20F02126842F008021A604FF24003C4F20F034FF24002C4F20F02126842F4B9
S32D0000E99040721A604FF28003C4F20F034FF28002C4F20F02126842F4425242F070021A604FF24003C4F20F0369
S32D0000E9B84FF24002C4F20F02126842F480221A6007F10C07BD4680BC704700BF80B483B000AF78600B46FB70B1
S32D0000E9E04FF28003C4F20F034FF28002C4F20F02126822F008021A604FF24003C4F20F034FF24002C4F20F024D
S32D0000EA08126842F480321A604FF24003C4F20F034FF24002C4F20F02126842F480221A604FF24003C4F20F0356
S32D0000EA304FF24002C4F20F02126822F440721A604FF28003C4F20F034FF28002C4F20F02126822F4425222F066
S32D0000EA5870021A604FF24003C4F20F034FF24002C4F20F0212681146FA7802F00102D2B2002A02D04FF40072A1
S32D0000EA8001E04FF000020A431A604FF24003C4F20F034FF24002C4F20F0212681146FA7802F00202002A02D0B4
S32D0000EAA84FF4807201E04FF000020A431A604FF28003C4F20F034FF28002C4F20F0212681146FA7802F00402D1
S32D0000EAD0002A02D04FF0100201E04FF000020A431A604FF28003C4F20F034FF28002C4F20F0212681146FA7889
S32D0000EAF802F00802002A02D04FF0200201E04FF000020A431A604FF28003C4F20F034FF28002C4F20F0212681E
S32D0000EB201146FA7802F01002002A02D04FF0400201E04FF000020A431A604FF28003C4F20F034FF28002C4F28F
S32D0000EB480F0212681146FA7802F02002002A02D04FF0800201E04FF000020A431A604FF28003C4F20F034FF2C4
S32D0000EB708002C4F20F0212681146FA7802F04002002A02D04FF4805201E04FF000020A431A604FF28003C4F243
S32D0000EB980F034FF28002C4F20F0212681146FA7852B2002A02DA4FF4005201E04FF000020A431A604FF2400364
S32D0000EBC0C4F20F034FF24002C4F20F02126822F400321A604FF24003C4F20F034FF24002C4F20F02126842F493
S32D0000EBE800321A604FF28003C4F20F034FF28002C4F20F02126842F008021A604FF24003C4F20F034FF240023E
S32D0000EC10C4F20F02126822F480221A6007F10C07BD4680BC704700BF80B586B000AF78607B684FF000025A61D2
S32D0000EC387B684FF000029A617B681B6AFB60FB68FB72FB684FEA1323BB72FB684FEA1343DBB203F003037B7298
S32D0000EC6078684FF02A01FFF771FD78684FF00001FFF7B0FE78684FF00001FFF7ABFE78684FF00101FFF7A6FE9A
S32D0000EC8878684FF03F01FFF7A1FE78684FF02B01FFF758FD78684FF00001FFF797FE78684FF00001FFF792FE83
S32D0000ECB078684FF00001FFF78DFE78684FF0EF01FFF788FE78684FF02C01FFF73FFD4FF24003C4F20F034FF2FF
S32D0000ECD84002C4F20F02126822F440721A604FF28002C4F20F024FF28003C4F20F031B68194640F60F73CFF6D4
S32D0000ED00F0730B4013604FF2C003C4F20F034FF2C002C4F20F02126822F01D021A604FF24003C4F20F034FF27C
S32D0000ED284002C4F20F02126811467A68126B0A431A604FF28003C4F20F034FF28002C4F20F02126811467A68F4
S32D0000ED50526B0A431A604FF2C003C4F20F034FF2C002C4F20F02126811467A68926B0A431A604FF28003C4F28A
S32D0000ED780F034FF28002C4F20F02126822F008021A604FF24003C4F20F034FF24002C4F20F02126842F48022D9
S32D0000EDA01A604FF000037B612DE04FF000033B611BE04FF24003C4F20F034FF24002C4F20F02126822F400326F
S32D0000EDC81A604FF24003C4F20F034FF24002C4F20F02126842F400321A603B6903F101033B613A6940F23F1352
S32D0000EDF09A428CBF00230123DBB2002BD9D17B6903F101037B617B69EF2B8CBF00230123DBB2002BC9D14FF24A
S32D0000EE188003C4F20F034FF28002C4F20F02126842F008021A604FF24003C4F20F034FF24002C4F20F021268B7
S32D0000EE4022F480221A6007F11807BD4680BD00BF80B483B000AF78607B689B69002B09DD7B685B6903F10102D8
S32D0000EE687B685A617B684FF000029A6107F10C07BD4680BC704700BF80B582B000AF78607B685A697B685B68C5
S32D0000EE909A4206DB7B684FF000025A617868FFF7C3FE07F10807BD4680BD00BF80B582B000AF78607B689B6946
S32D0000EEB803F101027B689A617B689A697B689B689A4205D17868FFF7BFFF7868FFF7D4FF07F10807BD4680BD55
S32D0000EEE080B588B000AFF860B9607A603B60FB681B78022B03D0FB681B78032B13D17B68FB61BA6AFB69D31852
S32D0000EF0803F1FF33BB61FB68DA68BB68D31A3B613B683A69D31A03F101037B610FE0BB68FB613A68FB69D318E2
S32D0000EF3003F1FF33BB617B687B61BA6A7B69D31803F1FF333B61F8684FF02A01FFF7FEFBFB6903F470634FEADD
S32D0000EF581323DBB2F8681946FFF738FDFB69DBB2F8681946FFF732FDBB6903F470634FEA1323DBB2F868194660
S32D0000EF80FFF728FDBB69DBB2F8681946FFF722FDF8684FF02B01FFF7D9FB7B6903F470634FEA1323DBB2F86824
S32D0000EFA81946FFF713FD7B69DBB2F8681946FFF70DFD3B6903F470634FEA1323DBB2F8681946FFF703FD3B69E3
S32D0000EFD0DBB2F8681946FFF7FDFCF8684FF02C01FFF7B4FB07F12007BD4680BD80B584B000AFF860B9607A60A5
S32D0000EFF8FB707A6813464FEA43039B184FEA830303F10201BA6813464FEA03139B1803F10302FB78F86800F024
S32D0000F02005F807F11007BD4680BD00BF80B58EB002AFF860B9607A60FB70FB780A2B06D1F868FFF71DFFF8688C
S32D0000F048FFF702FF25E1FB787D2B02D8FB781F2B02D84FF02003FB70FB78A3F12003FB704FF011030093F86869
S32D0000F070B9687A684FF00C03FFF732FFFA7813464FEA83039A1843F23C43C1F6FF739B5C3B75FA7813464FEA36
S32D0000F09883039B1803F1010243F23C43C1F6FF739B5C7B75FA7813464FEA83039B1803F1020243F23C43C1F6B6
S32D0000F0C0FF739B5CBB75FA7813464FEA83039B1803F1030243F23C43C1F6FF739B5CFB75FA7813464FEA830385
S32D0000F0E89B1803F1040243F23C43C1F6FF739B5C3B764FF00003BB62A8E0F86800F0DCF9F86800F0CBF84FF06A
S32D0000F110000387F82F304FF000037B6231E007F114027B6AD3181B7803F00103FB76FB7E002B11D097F82F3074
S32D0000F13883F00103DBB2002B03D0F86800F00CF902E0F86800F0AAF8F86800F0A7F80DE097F82F30002B03D0B6
S32D0000F160F86800F0ADF902E0F86800F09BF8F86800F098F8FB7E87F82F307B6A03F101037B627B6A042BCCBF36
S32D0000F18800230123DBB2002BC5D197F82F30002B03D0F86800F090F902E0F86800F07EF8F86800F07BF84FF055
S32D0000F1B0000387F82F304FF000033B623EE007F114023B6AD3181B7803F00103BB76BB7E002B11D097F82F30C7
S32D0000F1D883F00103DBB2002B03D0F86800F0BCF802E0F86800F05AF8F86800F057F80DE097F82F30002B03D007
S32D0000F200F86800F05DF902E0F86800F04BF8F86800F048F8BB7E87F82F3007F114023B6AD3181B784FEA63034E
S32D0000F228DAB207F114013B6ACB181A703B6A03F101033B623B6A042BCCBF00230123DBB2002BB8D1BB6A03F1D3
S32D0000F2500103BB62BB6A062BCCBF00230123DBB2002B7FF44EAFF86800F02AF94FF0000387F82F304FF0010349
S32D0000F278FB6106E0F86800F011F8FB6903F10103FB61FB69232BCCBF00230123DBB2002BF0D107F13007BD46E6
S32D0000F2A080BD00BF80B483B000AF78604FF24003C4F20F034FF24002C4F20F02126842F480321A604FF2800320
S32D0000F2C8C4F20F034FF28002C4F20F02126822F008021A604FF24003C4F20F034FF24002C4F20F02126842F470
S32D0000F2F080221A604FF24003C4F20F034FF24002C4F20F02126822F400321A604FF24003C4F20F034FF2400233
S32D0000F318C4F20F02126842F400321A604FF28003C4F20F034FF28002C4F20F02126842F008021A604FF24003DA
S32D0000F340C4F20F034FF24002C4F20F02126822F480221A6007F10C07BD4680BC704700BF80B483B000AF786033
S32D0000F3684FF24003C4F20F034FF24002C4F20F02126842F480321A604FF28003C4F20F034FF28002C4F20F02EF
S32D0000F390126822F008021A604FF24003C4F20F034FF24002C4F20F02126842F480221A604FF24003C4F20F0391
S32D0000F3B84FF24002C4F20F02126822F440721A604FF28002C4F20F024FF28003C4F20F031B68194640F60F7371
S32D0000F3E0CFF6F0730B4013604FF2C003C4F20F034FF2C002C4F20F02126822F01D021A604FF24003C4F20F0312
S32D0000F4084FF24002C4F20F02126811467A68526A0A431A604FF28003C4F20F034FF28002C4F20F02126811466F
S32D0000F4307A68926A0A431A604FF2C003C4F20F034FF2C002C4F20F02126811467A68D26A0A431A604FF2400339
S32D0000F458C4F20F034FF24002C4F20F02126822F400321A604FF24003C4F20F034FF24002C4F20F02126842F4F2
S32D0000F48000321A604FF28003C4F20F034FF28002C4F20F02126842F008021A604FF24003C4F20F034FF240029D
S32D0000F4A8C4F20F02126822F480221A6007F10C07BD4680BC704700BF80B483B000AF78604FF24003C4F20F03C9
S32D0000F4D04FF24002C4F20F02126842F480321A604FF28003C4F20F034FF28002C4F20F02126822F008021A60C2
S32D0000F4F84FF24003C4F20F034FF24002C4F20F02126842F480221A604FF24003C4F20F034FF24002C4F20F02EE
S32D0000F520126822F440721A604FF28002C4F20F024FF28003C4F20F031B68194640F60F73CFF6F0730B4013606B
S32D0000F5484FF2C003C4F20F034FF2C002C4F20F02126822F01D021A604FF24003C4F20F034FF24002C4F20F0244
S32D0000F570126811467A68126B0A431A604FF28003C4F20F034FF28002C4F20F02126811467A68526B0A431A6029
S32D0000F5984FF2C003C4F20F034FF2C002C4F20F02126811467A68926B0A431A604FF24003C4F20F034FF2400269
S32D0000F5C0C4F20F02126822F400321A604FF24003C4F20F034FF24002C4F20F02126842F400321A604FF2800364
S32D0000F5E8C4F20F034FF28002C4F20F02126842F008021A604FF24003C4F20F034FF24002C4F20F02126822F44D
S32D0000F61080221A6007F10C07BD4680BC704700BF80B485B000AF78607B681B6AFB60FB68FB72FB684FEA13239B
S32D0000F638BB72FB684FEA1343DBB203F003037B727B684FF000025A627B684FF000029A627B684FF00002DA62B2
S32D0000F6607B684FF000021A637B684FF000025A637B684FF000029A637B681A6BFB7A03F00103DBB2002B02D07B
S32D0000F6884FF4007301E04FF000031A437B681A637B681A6BFB7A03F00203002B02D04FF4807301E04FF0000393
S32D0000F6B01A437B681A637B685A6BFB7A03F00403002B02D04FF0100301E04FF000031A437B685A637B685A6B41
S32D0000F6D8FB7A03F00803002B02D04FF0200301E04FF000031A437B685A637B685A6BFB7A03F01003002B02D0F2
S32D0000F7004FF0400301E04FF000031A437B685A637B685A6BFB7A03F02003002B02D04FF0800301E04FF0000324
S32D0000F7281A437B685A637B685A6BFB7A03F04003002B02D04FF4805301E04FF000031A437B685A637B685A6B88
S32D0000F750FB7A5BB2002B02DA4FF4005301E04FF000031A437B685A637B685A6BBB7A03F00103DBB2002B02D0EE
S32D0000F7784FF4804301E04FF000031A437B685A637B685A6BBB7A03F00203002B02D04FF4004301E04FF00003C2
S32D0000F7A01A437B685A637B685A6BBB7A03F00403002B02D04FF4803301E04FF000031A437B685A637B685A6BAC
S32D0000F7C8BB7A03F00803002B02D04FF4003301E04FF000031A437B685A637B685A6BBB7A03F01003002B02D06D
S32D0000F7F04FF4802301E04FF000031A437B685A637B685A6BBB7A03F02003002B02D04FF4002301E04FF000036C
S32D0000F8181A437B685A637B689A6BBB7A03F04003002B02D04FF0010301E04FF000031A437B689A637B689A6BEA
S32D0000F840BB7A5BB2002B02DA4FF0040301E04FF000031A437B689A637B689A6B7B7A03F00103DBB2002B02D04D
S32D0000F8684FF0080301E04FF000031A437B689A637B689A6B7B7A03F00203002B02D04FF0100301E04FF0000381
S32D0000F8901A437B689A637B68DB69FB60FB68FB72FB684FEA1323BB72FB684FEA1343DBB203F003037B727B6874
S32D0000F8B85A6AFB7A03F00103DBB2002B02D04FF4007301E04FF000031A437B685A627B685A6AFB7A03F002037F
S32D0000F8E0002B02D04FF4807301E04FF000031A437B685A627B689A6AFB7A03F00403002B02D04FF0100301E022
S32D0000F9084FF000031A437B689A627B689A6AFB7A03F00803002B02D04FF0200301E04FF000031A437B689A623B
S32D0000F9307B689A6AFB7A03F01003002B02D04FF0400301E04FF000031A437B689A627B689A6AFB7A03F02003F7
S32D0000F958002B02D04FF0800301E04FF000031A437B689A627B689A6AFB7A03F04003002B02D04FF4805301E0DD
S32D0000F9804FF000031A437B689A627B689A6AFB7A5BB2002B02DA4FF4005301E04FF000031A437B689A627B6893
S32D0000F9A89A6ABB7A03F00103DBB2002B02D04FF4804301E04FF000031A437B689A627B689A6ABB7A03F00203FE
S32D0000F9D0002B02D04FF4004301E04FF000031A437B689A627B689A6ABB7A03F00403002B02D04FF4803301E03D
S32D0000F9F84FF000031A437B689A627B689A6ABB7A03F00803002B02D04FF4003301E04FF000031A437B689A6277
S32D0000FA207B689A6ABB7A03F01003002B02D04FF4802301E04FF000031A437B689A627B689A6ABB7A03F0200322
S32D0000FA48002B02D04FF4002301E04FF000031A437B689A627B68DA6ABB7A03F04003002B02D04FF0010301E01B
S32D0000FA704FF000031A437B68DA627B68DA6ABB7A5BB2002B02DA4FF0040301E04FF000031A437B68DA627B6872
S32D0000FA98DA6A7B7A03F00103DBB2002B02D04FF0080301E04FF000031A437B68DA627B68DA6A7B7A03F0020389
S32D0000FAC0002B02D04FF0100301E04FF000031A437B68DA6207F11407BD4680BC704700BF80B582B000AF786074
S32D0000FAE839607B68012B0AD13A684FF6FF739A4205D143F25C60C1F6FF70FEF7F1FB07F10807BD4680BD00BF64
S32D0000FB1080B500AF4FF001004FF6FF71FFF7E0FF80BD00BF80B582B000AF78600B46FB707A68FB781046194669
S32D0000FB38FDF746FD7B68184607F10807BD4680BD80B582B000AF786039607B68012B0CD13A684FF6FF739A4238
S32D0000FB6007D143F29C60C1F6FF704FF02001FFF7D9FF07F10807BD4680BD00BF80B500AF4FF001004FF6FF713B
S32D0000FB88FFF7DEFF80BD00BF80B483B000AF78607B684FF000021A707B68184607F10C07BD4680BC704700BFE3
S32D0000FBB080B483B000AF7860396043F2A063C1F6FF733A681A6007F10C07BD4680BC704780B582B000AF4FF4C9
S32D0000FBD82040C4F20600FDF7CDF90346FB7143F2B763C1F6FF73FA791A7043F2B663C1F6FF734FF001021A70BC
S32D0000FC0043F2B563C1F6FF731B78012B2BD0022B5CD0002B40F09280FB79FF2B40F08B8043F2B563C1F6FF7391
S32D0000FC284FF001021A7043F2B463C1F6FF734FF000021A7043F2B463C1F6FF731A78114643F2A463C1F6FF73DF
S32D0000FC50F879585402F10103DAB243F2B463C1F6FF731A7067E043F2B463C1F6FF731A78114643F2A463C1F64F
S32D0000FC78FF73F879585402F10103DAB243F2B463C1F6FF731A7043F2B463C1F6FF731B78092B4ED143F2A063BA
S32D0000FCA0C1F6FF731A6843F2B463C1F6FF731B7843F2A460C1F6FF701946904743F2B563C1F6FF734FF0020235
S32D0000FCC81A7036E0FB79FF2B22D143F2B563C1F6FF734FF001021A7043F2B463C1F6FF734FF000021A7043F226
S32D0000FCF0B463C1F6FF731A78114643F2A463C1F6FF73F879585402F10103DAB243F2B463C1F6FF731A7011E0C8
S32D0000FD1843F2B463C1F6FF734FF000021A7043F2B563C1F6FF734FF000021A7002E000BF00E000BF07F10807F5
S32D0000FD40BD4680BD80B582B000AF78607B681846FFF71EFF7B6818464FF6CD51C0F20001FFF726FF7B684FF07F
S32D0000FD68FF325A6043F2C463C1F6FF73144A1A6043F2C863C1F6FF73114A1A6043F2CC63C1F6FF730E4A1A6068
S32D0000FD9043F2D063C1F6FF734FF000021A7043F2D163C1F6FF734FF000021A7043F2D263C1F6FF734FF00002B8
S32D0000FDB81A707B68184607F10807BD4680BD00BF0000000080B582B000AF78600B46FB7043F2C063C1F6FF7321
S32D0000FDE01B78002B7ED0FB78092B7BD17B6803F101031B784FEA03227B6803F102031B78D3181846FCF7BEFBC6
S32D0000FE08034618463749FCF7C1FC034618463649FCF7FEFA03461A4643F2C463C1F6FF731A607B6803F103035F
S32D0000FE301B784FEA03227B6803F104031B78D3181846FCF79FFB034618462849FCF7A2FC034618462649FCF7BA
S32D0000FE58DFFA03461A4643F2C863C1F6FF731A607B6803F105031B784FEA03227B6803F106031B78D31818466B
S32D0000FE80FCF780FB034618461849FCF783FC03461A4643F2CC63C1F6FF731A607B68DA7943F2D063C1F6FF73F5
S32D0000FEA81A707B681A7A43F2D163C1F6FF731A7043F2D163C1F6FF731B78AA2B14BF00230123DAB243F2D26305
S32D0000FED0C1F6FF731A7043F2D363C1F6FF734FF001021A7007F10807BD4680BD000020410000C84480B582B0D6
S32D0000FEF800AF786039607B68012B12D13A684FF6FF739A420DD143F2B860C1F6FF70FFF715FF43F2D460C1F61A
S32D0000FF20FF704FF00701FDF7E1FE07F10807BD4680BD00BF80B500AF4FF001004FF6FF71FFF7D8FF80BD00BF82
S32D0000FF480B4C08B5054601F077F801F01FF8236813B1984700232360064C236813B19847002323602846BDE8B7
S32D0000FF700840FCF7A1BE00BFE036FF1FE436FF1F10B5044600F082FF204610BD2DE9F04F87B0002404929DF810
S32D0000FF9840209DF844500292DDF8488001F8014C81464A1EB8B9139CACB9029F0FB16F2D2FD0642D02D0692D92
S32D0000FFC040F0AB80022B02D18A1E202304E0012B40F0A3808A1E2B2301F8023C9DE0692D0FD004D8582D14D006
S32D0000FFE8642D1CD109E0752D04D0782D0DD06F2D15D110E000231E4614E000280FDAB0F1004F0ED04042814677
S32D000100100BE000231E46102409E0139B00E000231E46082403E0002600E001260A244FF0000C0596CDF80CC03C
S32D000100381E460191139F02E0CDF80CC05A46B9FBF4F304FB139ABAF1090F994602D80AF1300A05E0782D0CBF91
S32D000100600AF1570A0AF1370A03995FFA8AFA02F1FF3B02F801AC01F1010C002BE0D1082C33460199059E13971D
S32D000100880DD1029F5FB1BAF1300F08D04FF0300C02F802CCA2F1020B039A02F1020C049F022F0BD106B90BB14C
S32D000100B008F1FF38102C03D1029A0AB1A8F10208CDF84C80139ACBEB01018918B1F5FF7F22DA3021174603E09F
S32D000100D80BF8011D0CF1010CBC455A46F8DB102C08D1029C34B128B130210BF8015C023A0BF8021C0EB12D23CC
S32D0001010006E0012B01D12B2302E0022B05D1202302F8013C013A00E00022104607B0BDE8F08F00002DE9F04F7C
S32D00010128ADF50D7D1F4608918AA920230025033107908DF82E3293460591AA46CDE15846252100F0E7FE8146A6
S32D0001015088B9584600F0F0FE02460AEB0005002800F0C8810898079B59469847002808BF4FF0FF35BEE1B0EBC4
S32D000101780B03069307D01A460898079B59469847002800F0B18199F80140252C21460BD14FF0000809F1020BBC
S32D000101A04646C44643464246CDF824800125A5E0002309F101020993012518462B2900F0A08104DC202908D0CF
S32D000101C8232912D10AE02D2900F0958130290CD106E001280CBF012002208FE101238DE1002D14BF02250025F2
S32D000101F088E12A29099002D000260A240EE03E68381D002E01DA7642002502F1010B5178074608E012F8011F6F
S32D0001021804FB0606A1F1300009289346F6D9B6F5FF7F07DB4FF000080BF1010BFF24C44642465FE02E291FD17C
S32D000102409BF801102A2905D00BF101024FF000080A240EE0D7F800809BF802106FEA0802D20F04370BF1020BE5
S32D000102680DE012F8011F04FB0808A1F1300009289346F6D9012202E04FF000084246682900F03F816C2902D129
S32D000102904FF0030C3BE14FF0000C6E29CCB22BD008DC632917D001DC58290EE064290DD069290AE073290FD076
S32D000102B804DC6F2906D0702919D10EE0752901D0782914D182B1022D08BF012510E072B9BCF1000F18BFFF2443
S32D000102E00AE078244FF008084FF0030C012303E04FF0010800E0FF240BF1010B06996E2C8A4464D00BD8632CC5
S32D0001030874D003D8252C77D0582C0CE0642C0CD0692C78D109E0732C36D001D86F2C02E0752C13D0782C6ED10A
S32D0001033010E007F104020692BCF1030F386819D0BCF1020F01D100B214E0BCF1010F11D140B20FE007F104021C
S32D000103580692BCF1030F386808D0BCF1020F01D180B203E0BCF1010F08BFC0B28DE858018BA92A46099BFFF700
S32D0001038005FE0746002842D0059BC0EB03094EE0391D06913F686049002F08BF0F463BB117F8019B002A42D0E4
S32D000103A8C145A8BFC1463EE0384642B11946424600F0A3FD002835D0C7EB000933E000F0B7FD81462FE03A1DE0
S32D000103D0BCF1020F06923B6806D0BCF1030F06D0BCF1000F7CD102E0A3F800A078E0C3F800A075E03B1D06937B
S32D000103F83B688DF82C3002E08DF82C4006970BAF4FF001090FE0484600F092FD5546044630B10898079B49464C
S32D0001042022469847002863D02D1963E0C146002D3BD0022D0CBF302220228DF82E223B782B2B03D02D2B01D0DB
S32D00010448202B0CD1302A0AD10898079B394601229847002848D0013709F1FF3800E0C846022D10D1612C01D060
S32D00010470412C0CD1B8F1010F3ADD0898079B394602229847002833D0A8F1020802374C4607E08AA90898079B8A
S32D0001049806310122984738B30134B442F5DBC14600E04C46B9F1000F05D00898079B39464A469847C0B175B940
S32D000104C00AE08AA98DF82F520898079B07310122984768B1013400E02025B442F1DBA244069F9BF80030002BC0
S32D000104E87FF42DAE554601E04FF0FF3528460DF50D7DBDE8F08F002500E0012012F8011F58E64FF0020C9BF81C
S32D0001051001100BF1010BC0E60C1201002DE9F04FA7B000240DF18C0C81460F460C9392460B940A940794089471
S32D0001053809942646CDF834C05AE3284600F0A0FBE8B11AF8010F00F09BFB0028F9D1002C40F04D8300E0013626
S32D00010560002138460A46C847054600F08DFB0028F5D16A1C04D13099002900F0478301243846294614E3252D5B
S32D0001058815D0A4B9214638462246C847C1B2A94209D001223846C847309A002A00F032830AF1010A23E30136E3
S32D000105B00AF1010A20E30021282219A8FFF7E0FC9AF801806FF0004BB8F1250FCDF868B0434613D18DF86780C5
S32D000105D80DF1640EBEE80F000FAD0FC5BEE80F000FC59EE80300002385E803000AF1020A9C461BE1B8F12A0FD3
S32D0001060002D00AF1010506E001238DF864309AF802300AF10205A3F13002092A31D84FF0000B0A2100E015465D
S32D00010628303B01FB0B3B6B78A3F130006A1C0928F5D9CDF868B0BBF1000F1AD14FF0FF088DF867800DF1640C27
S32D00010650BCE80F000DF13C0EAEE80F00BCE80F00AEE80F009CE803009DF864208EE8030005F1020ADC465B46A5
S32D00010678CAE001218DF865101546682B02D06C2B10D10BE002238DF866306B78682B40F0E08201238DF86630E3
S32D000106A0ED18DAE203238DF86630D6E28DF86730583B202B00F28D80DFE803F08E8B8B308B8B8B8B8B8B8B1607
S32D000106C88E8B8B8B8B8E8B8B8B8B8E8E118B8B1B8B8E8B8B8E0003238DF86630782375E09DF86630002B73D0AA
S32D000106F06FE09DF8663013B1FF238DF867301BABFF2203F8012BDDF834C06345F9D1C1238DF86D30FE238DF86A
S32D0001071870305DE09DF8663013B1FF238DF867306B785E2B02D00135002102E0AB78012102355D2B3BD19DF88C
S32D00010740773043F020038DF877306B78013532E05FFA83FC0DF1980E0EEBDC020CF0070C12F82CEC00FA0CFCB0
S32D000107684CEA0E0E02F82CEC95F801E0BEF12D0F1AD1AA78C2B15D2A10D115E05FFA83F80DF1980C0CEBD80E75
S32D0001079008F007081EF82CCC00FA08F848EA0C0C0EF82CCC01339342ECDDEB78033503E00135734600E00120A3
S32D000107B85BB15D2BC8D14FE21A78DDF834C0D24303F8012B6345F7D102E0FF238DF867300DF1640CBCE80F006C
S32D000107E00DF13C0EAEE80F00BCE80F00AEE80F009CE803008EE803009DF864209DF865309DF866C09DF867802B
S32D00010808DDF868B005F1010A5AB9B8F1250F0DD0DDF830E0DEF800500EF1040ECDF830E000E00025B8F16E0FEA
S32D0001083001D1CFE1002574B93846214602220693CDF814C0C847069BDDF814C020B13099002900F0DB810124FD
S32D00010858B8F1690F2FD014D8B8F15B0F00F0248106D8B8F1250F00F0E980B8F1580F1BE0B8F1630F00F08D8086
S32D00010880B8F1640F40F0C28117E0B8F1730F00F0F88008D8B8F16E0F00F09C81B8F16F0F40F0B48107E0B8F101
S32D000108A8750F37D0B8F1780F40F0AC8130E0082031E00A2000E00020FCB924AB23AA019325AB0092029359461B
S32D000108D03B464A46CDF814C000F0EAF9239BDDF814C033B93099002900F08C810124184609E0F618249B33B11D
S32D000108F8B0F1004F03D0404201E001240020002D40D0BCF1030F36D8DFE80CF034303234102000E00A20FCB9E0
S32D0001092024AB23A9019325AB0091029359463B464A46CDF814C000F0BBF9239BDDF814C033B9309A002A00F05F
S32D000109485D810124184609E0F618249B33B1B0F1004F03D0404201E00124002095B1BCF1030F08D8DFE80CF072
S32D0001097006020406287002E0288000E028602CB9DDF824C00CF1010CCDF824C0DDF820C00CF1010CCDF820C007
S32D000109986EE0002B08BF4FF0010B002D39D000232393002C40F02381079804E005F8010B239B01332393BBF1B6
S32D000109C0000F17D0309931B1239B002B0CDA4FF0010CCDF82CC0002138460A46C847431C0BF1FF3BE6D105E06C
S32D000109E84FF0000C0790CDF82CC000E00790239B002B00F0A480309919B10B9A002A00F0F680DDF824C00CF15B
S32D00010A10010CF618CDF824C0D5E0239507985D4602E0239B0133239335B100210A463846C847013D411CF4D176
S32D00010A38239B0790002B40F0C280E3E0002C40F0D38000E00136002138460A46C847054600F016F90028F5D1DE
S32D00010A60252D08D0294638460122C8473099002900F0C880BCE001364FF0010CCDF828C0BAE08CB93846214664
S32D00010A88224603E00021013638460A46C847804600F0F6F80028F5D1384641460122C8474FF0010CCDF828C0FD
S32D00010AB0002D56D000232393002C40F09C800BF1FF3B0123079814E0C2B20DF1980C0CEBD20102F0070E11F896
S32D00010AD8541C03FA0EFE1EEA010F0BF1FF3B20D005F8012B239A01322392BBF1FF3FD84617D0309931B1239A13
S32D00010B00002A0CDC4FF0010CCDF82CC000210A4638460693C847421C069BD5D105E04FF0000C0790CDF82CC003
S32D00010B2800E00790DDF81CC0239B5FFA8CF11BB1309A42B10B9A32B938460122C847309B002B5FD053E0DDF8EC
S32D00010B5024C0F6180CF1010C00232B70CDF824C02BE023950BF1FF3B0125079811E0C3B20DF1980E03F007024F
S32D00010B780EEBD30305FA02F213F8543C1A420BF1FF3B0CD0239B01332393BBF1FF3FD84605D0002138460A460F
S32D00010BA0C847431CE3D1239B079023B9079938460122C84720E00799F618B8F1000F02DB38460122C847DDF8BB
S32D00010BC820C00CF1010CCDF820C011E085B1BCF1030F0DD8DFE80CF0040602042E8007E02E6005E02E7003E048
S32D00010BF001240A9400E001249AF80050002D7FF4A0AC03E04FF0010CCDF828C0384600210222C84738B1DDF8D4
S32D00010C1824C00899002908BF4FF0FF3C13E0089A9AB90A9B8BB111463846C8470899044602223846C84720B99C
S32D00010C40384621460122C84703E04FF0FF3CCDF824C0099827B0BDE8F08F6B78013525E500293FF4B9AD1BAB21
S32D00010C68AAE50000B0F5807F05D8044B1818407800F0010070470020704700BF0D120100B0F5807F05D8044BE8
S32D00010C901818407800F0100070470020704700BF0D120100A0F16103192B98BF203870472DE9F74F15460191F8
S32D00010CB898460D990E9A002398420B600446136012DB012810D024280EDC0199994207DD19461A464046A84703
S32D00010CE0012703463E4601E01F4640263CB101E01F4640264FF0FF3ABAFBF4FA00E0A2464FF00009CB46A5E0EA
S32D00010D080F2AFDD801A151F822F000BF550D01009B0D0100090D0100B50D0100090D0100090D0100090D0100C7
S32D00010D30D70D0100090D0100090D0100090D0100090D0100090D0100090D0100090D0100D70D01001846009338
S32D00010D58FFF796FF009B014638B1002140460A46A8470BF1010B034670E02B2B05D140460A46A847013703461D
S32D00010D8009E02D2B07D10A464046A8470D990122013703460A6002265CE00CB1102C56D1302B54D10021404607
S32D00010DA80A46A8470137034604264FE0582B01D0782B08D1002140460A46A847013703460826102442E0102612
S32D00010DD0002C3ED03EE0002C08BF0A24BAF1000F03D14FF0FF32B2FBF4FAA3F13000092801D8A0420BE01846E9
S32D00010DF80093FFF737FF009B30B11846FFF74EFF009B3738A04204DB102E14BF402620261CE0D14598BF0E9958
S32D00010E2009FB04F998BF0B686FEA090288BF0123C1B2914288BF01230E9A0021136081440A464046A84701375A
S32D00010E480346102602E0082600E0082401998F4206DC5A1C04D0721E16F0600F3FF450AF16F0340603D10C9A58
S32D00010E70B146166003E0013F0C995F440F60404619460122A8474846BDE8FE8F1F2A30B5C9B230D9434213F01B
S32D00010E98030307D0D21A1C460546013C05F8011BFBD1C01829B10B0443EA01630B4343EA012155090ED02C46F6
S32D00010EC00346196059609960D960196159619961D9612033013CF4D100EB4510C2F382033BB11C460546013C49
S32D00010EE845F8041BFBD100EB830002F003021AB1013A00F8011BFBD130BD10B5C9B2821804E00478431C8C4214
S32D00010F1003D018469042F8D1002010BDC9B202E08A4208D01846034613F8012B002AF7D1002918BF0020704751
S32D00010F3803461A4613F8011B0029FAD1101A704738B50C4C0C4D02E054F8043B9847AC42FAD10A4C0A4D02E0B3
S32D00010F6054F8043B9847AC42FAD1084C084D02E054F8043B9847AC42FAD138BD10130100101301001013010030
S32D00010F8810130100101301002413010038B5084C084D02E054F8043B9847AC42FAD1064C064D02E054F8043D0B
S32D00010FB09847AC42FAD138BD1013010010130100241301002413010088421ED0EAB18B0709D1830707D1032A7F
S32D00010FD805D951F8043B043A40F8043BF2E7CB0709D4C30707D4012A05D931F8023B023A20F8023BE6E711F8CC
S32D00011000013B013A00F8013BE0E7704710B50B4C94B1083405E054F8040C54F80C2BFFF7D3FF54F8081C0029D6
S32D00011028F5D154F8043C002BF1D12368002BEED110BD00BF40450100054B10B51C6803E06368A0689847246819
S32D00011050002CF9D110BD00BFF436FF1F064B1846002807D0854681B04FF000006FEA0000009001B0F746704730
S32D0001107800000020F746704748656C6C6F20576F726C6421000000004645482050726F7465757300256400008A
S32D000110A02D25642E253033640000000025642E2530336400747275650000000066616C736500000001010101DF
S32D000110C801010101020202020202000000000000000000000004040404040303010101010101010100000101C5
S32D000110F00101010000010100000101000000000001000000000000000B0000000A0000000700000006000000A7
S32D0001111805000000040000000100000000000000000000000100000008000000090000000A0000000B00000077
S32D0001114011000000100000000F0000000E0000000D0000000C0000000B0000000A000000090000000800000003
S32D000111680700000019000000180000001A0000001B0000001C00000001000000060000000F0000000E000000AB
S32D000111900D0000000C0000000B0000000A00000009000000080000000E0000000F0000000400000005000000CB
S32D000111B806000000070000001100000001000000140000000100000014000000000000001300000000000000AD
S32D000111E0130000000B0000000A0000001200000011000000100000001000000004000000050000000700000065
S32D000112080600000000008080808080808080809090909090808080808080808080808080808080808080180445
S32D0001123004040404040404040404040404040202020202020202020204040404040404434343434343414141D2
S32D0001125841414141414141414141414141414141410404040404042323232323232121212121212121212121C1
S32D000112802121212121212121210404040480000000000000000000000000000000000000000000000000000086
S32D000112A80000000000000000000000000000000000000000000000000000000000000000000000000000000017
S32D000112D000000000000000000000000000000000000000000000000000000000000000000000000000000000EF
S31D000112F8000000000000000000000000000000000000000000000000D7
S3190001131085D00000D9DC000011FB00007DFB000035FF000000
S32D000113240000000000000000000000000000000000000000000000020202020202020202020202020202020278
S32D0001134C020202020202020202020202020202020202020202020202020202020202020202020200000000002C
S32D00011374000000000000000000000000000000000000000000000000000000000000000000000000000000004A
S32D0001139C02020202020202020202020202020202020202020202020202020202020202020202020202020202D2
S32D000113C402020202020202020202020202020000000000000000000000000000000000000000000000000000DE
S32D000113EC00000000000000000000000000000000000202020202020202020202020202020202020202020202A4
S32D000114140202020202020202020202020202020202020202020202020202020202020202020000000000000067
S32D0001143C0000000000000000000000000000000000000000000000000000000000000000000002020202020275
S32D000114640202020202020202020202020202020202020202020202020202020202020202020202020202020209
S32D0001148C0202020202020202020202020000000000000000000000000000000000000000000000000000000019
S32D000114B400000000000000000000000202020202020000000000000000000000000000000000000000000000FD
S32D000114DC00000000000000000000000000000000000000000000000000020202020202000000000000000000D5
S32D0001150400000000000000000000000000000000000000000000000000000000020202020202000000000000AC
S32D0001152C0000000000000000000000000000000000000000000000000000000000000000000000000000000090
S32D00011554000000000202020202020000000000000000000000000000000000000000000000000000000000005C
S32D0001157C0000000000020202020202000000000000000000000000000000000000000000000000000000000034
S32D000115A4000000000000000000000000000000000000000000000002020202020200000000000000000000000C
S32D000115CC00000000000000000000000000000000000000000000020202020202000000000101010101010101DC
S32D000115F401010101010101010101010101010101010101010101010101010101010101010101010101010000A2
S32D0001161C0000020202020202000000000000000000000000000000000000000000000000000000000000000291
S32D00011644020202020200000000010101010101010101010101010101010101010101010101010101010101014E
S32D0001166C0101010101010101010101010101010101000000000202020202020000000000000000000000000032
S32D00011694000000000000000000000000000000000202020202020000000001010101010101010101010101010D
S32D000116BC01010101010101010101010101010101010101010101010101010101010101010101010100000000DB
S32D000116E402020202020200000000000000000000000000000000000000000000000000000002020202020200BF
S32D0001170C0000000101010101010101010101010101010101010101010101010101010101010101010101010189
S32D00011734010101010101010101010101010101000000000202020202020000000000000000000000000000006B
S32D0001175C000000000000000000000202020202020000000001010101010101010101010101010101010101013E
S32D000117840101010101010101010101010101010101010101010101010101010101010101010100000000020210
S32D000117AC02020202000000000000000000000000000000000000000000000002020202020200000000010101F7
S32D000117D401010101010101010101010101010101010101010101010101010101010101010101010101010101BE
S32D000117FC01010101010101010101010101000000000202020202020000000000000000000000000000000000A5
S32D00011824000000000202020202020000000001010101010101010101010101010101010101010101010101016F
S32D0001184C0101010101010101010101010101010101010101010101010101010101010101000000000202020245
S32D00011874020200000000000000000000000000000000000000020202020202000000000101010101010101012C
S32D0001189C01010101010101010101010101010101010101010101010101010101010101010101010101010101F5
S32D000118C401010101010101010101010000000002020202020200000000000000000000000000000000000202DA
S32D000118EC02020202000000000101010101010101010101010101010101010101010101010101010101010101A5
S32D00011914010101010101010101010101010101010101010101010101010101010101000000000202020202027A
S32D0001193C0000000000000000000000000000000202020202020000000001010101010101010101010101010161
S32D00011964010101010101010101010101010101010101010101010101010101010101010101010101010101012C
S32D0001198C010101010101010101000000000202020202020000000000000000000000000002020202020200000B
S32D000119B400000101010101010101010101010101010101010101010101010101010101010101010101010101DE
S32D000119DC01010101010101010101010101010101010101010101010101010101000000000202020202020000B4
S32D00011A040000000000000000000202020202020000000001010101010101010101010101010101010101010192
S32D00011A2C0101010101010101010101010101010101010101010101010101010101010101010101010101010163
S32D00011A540101010101010100000000020202020202000000000000000000020202020202000000000101010140
S32D00011A7C0101010101010101010101010101010101010101010101010101010101010101010101010101010113
S32D00011AA401010101010101010101010101010101010101010101010101010000000002020202020200000000ED
S32D00011ACC00000002020202020200000000010101010101010101010101010101010101010101010101010101C4
S32D00011AF4010101010101010101010101010101010101010101010101010101010101010101010101010101019B
S32D00011B1C0101010101000000000202020202020000000000020202020202000000000101010101010101010173
S32D00011B44010101010101010101010101010101010101010101010101010101010101010101010101010101014A
S32D00011B6C0101010101010101010101010101010101010101010101010000000002020202020200000002020220
S32D00011B9402020200000000010101010101010101010101010101010101010101010101010101010101010101FB
S32D00011BBC01010101010101010101010101010101010101010101010101010101010101010101010101010101D2
S32D00011BE401010100000000020202020202000202020202020000000001010101010101010101010101010101A7
S32D00011C0C0101010101010101010101010101010101010101010101010101010101010101010101010101010181
S32D00011C340101010101010101010101010101010101010101010100000000020202020202020202020200000055
S32D00011C5C0001010101010101010101010101010101010101010101010101010101010101010101010101010132
S32D00011C840101010101010101010101010101010101010101010101010101010101010101010101010101010109
S32D00011CAC01000000000202020202020202020000000001010101010101010101010101010101010101010101E0
S32D00011CD401010101010101010101010101010101010101010101010101010101010101010101010101010101B9
S32D00011CFC0101010101010101010101010101010101010101000000000202020202020202000000010101010190
S32D00011D240101010101010101010101010101010101010101010101010101010101010101010101010101010168
S32D00011D4C0101010101010101010101010101010101010101010101010101010101010101010101010101010041
S32D00011D740000020202020202020200000001010101010101010101010101010101010101010101010101010115
S32D00011D9C01010101010101010101010101010101010101010101010101010101010101010101010101010101F0
S32D00011DC401010101010101010101010101010101010000000202020202020202000000010101010101010101C6
S32D00011DEC01010101010101010101010101010101010101010000000000000000000000000000000000000000B4
S32D00011E14000000000000010101010101010101010101010101010101010101010101010101010100000002027E
S32D00011E3C020202020202000000010101010101010101010101010101010101010101010101010101010000004F
S32D00011E640000000000000000000000000000000000000000000000000001010101010101010101010101010140
S32D00011E8C01010101010101010101010101000000020202020202020200000001010101010101010101010101FD
S32D00011EB401010101010101010101010101010000000000000000000000000000000000000000000000000000F1
S32D00011EDC00000000010101010101010101010101010101010101010101010101010101000000020202020202B0
S32D00011F040202000000010101010101010101010101010101010101010101010101010100000000020202020286
S32D00011F2C020202020202020202020202020202020202020000000001010101010101010101010101010101014F
S32D00011F540101010101010101010000000202020202020202000000010101010101010101010101010101010134
S32D00011F7C01010101010101010000000002020202020202020202020202020202020202020202020202020000FA
S32D00011FA400000101010101010101010101010101010101010101010101010100000002020202020202020000E5
S32D00011FCC00010101010101010101010101010101010101010101010101000000000202020202020202020202B8
S32D00011FF40202020202020202020202020202020202000000000101010101010101010101010101010101010189
S32D0001201C010101010100000002020202020202020000000101010101010101010101010101010101010101016B
S32D00012044010100000000020202020202020202020202020202020202020202020202020202020202000000002F
S32D0001206C010101010101010101010101010101010101010101010100000002020202020202020000000101011B
S32D0001209401010101010101010101010101010101010101000000000202020202020000000000000000000000FE
S32D000120BC00000000000000000000020202020200000000010101010101010101010101010101010101010101D6
S32D000120E401000000020202020202020200000001010101010101010101010101010101010101010100000000A7
S32D0001210C020202020202000000000000000000000000000000000000000000000002020202020000000001018C
S32D000121340101010101010101010101010101010101010100000002020202020202020000000101010101010152
S32D0001215C010101010101010101010101010100000002020202020200000000000000000000000000000000003A
S32D00012184000000000000000002020202020000000101010101010101010101010101010101010101010000000D
S32D000121AC02020202020202020000000101010101010101010101010101010101010101010000000202020202D5
S32D000121D400000000000000000000000000000000000000000000000000000002020202000000010101010101CE
S32D000121FC010101010101010101010101010101000000020202020202020200000001010101010101010101018A
S32D000122240101010101010101010100000002020202000000000000000000000000000000000000000000000079
S32D0001224C000000000002020202000000010101010101010101010101010101010101010101000000020202023E
S32D000122740202020200000001010101010101010101010101010101010101010100000002020202000000000016
S32D0001229C0000000000000000000000000000000000000000000000020202020000000101010101010101010101
S32D000122C401010101010101010101010000000202020202020202000000010101010101010101010101010101C1
S32D000122EC01010101010100000002020202000000000000000000000000000000000000000000000000000000B5
S32D00012314000202020200000001010101010101010101010101010101010101010100000002020202020202026D
S32D0001233C0000000101010101010101010101010101010101010101010000000202020200000000000000000055
S32D000123640000000000000000000000000000000000000002020202000000010101010101010101010101010134
S32D0001238C01010101010101000000020202020202020200000001010101010101010101010101010101010101F8
S32D000123B401010000000202020200000000000000000000000000000000000000000000000000000000020202EA
S32D000123DC02000000010101010101010101010101010101010101010101000000020202020202020200000001AA
S32D00012404010101010101010101010101010101010101010100000002020202000000000000000000000000008D
S32D0001242C0000000000000000000000000000000202020200000001010101010101010101010101010101010167
S32D000124540101010000000202020202020202000000010101010101010101010101010101010101010101000031
S32D0001247C0002020202000000000000000000000000000000000000000000000000000000000202020200000021
S32D000124A401010101010101010101010101010101010101010100000002020202020202020000000101010101DF
S32D000124CC01010101010101010101010101010101000000020202020000000000000000000000000000000000C9
S32D000124F4000000000000000000000002020202000000010101010101010101010101010101010101010101009C
S32D0001251C0000020202020202020200000001010101010101010101010101010101010101010100000002020265
S32D00012544020000000000000000000000000000000000000000000000000000000002020202000000010101015A
S32D0001256C0101010101010101010101010101010101000000020202020202020200000001010101010101010116
S32D000125940101010101010101010101010000000202020200000000000000000000000000000000000000000004
S32D000125BC00000000000000020202020000000101010101010101010101010101010101010101010000000202CF
S32D000125E4020202020202000000010101010101010101010101010101010101010101000000020202020000009F
S32D0001260C000000000000000000000000000000000000000000000000000202020200000001010101010101018F
S32D00012634010101010101010101010101010000000202020202020202000000010101010101010101010101014D
S32D0001265C010101010101010100000002020202000000000000000000000000000000000000000000000000003F
S32D0001268400000002020202000000010101010101010101010101010101010101010101000000020202020202FE
S32D000126AC02020000000101010101010101010101010101010101010101010000000202020200000000000000DE
S32D000126D400000000000000000000000000000000000000000002020202000000010101010101010101010101C3
S32D000126FC0101010101010101010000000202020202020202000000010101010101010101010101010101010185
S32D000127240101010100000002020202000000000000000000000000000000000000000000000000000000000278
S32D0001274C0202020000000101010101010101010101010101010101010101010000000202020202020202000033
S32D000127740001010101010101010101010101010101010101010100000002020202000000000000000000000019
S32D0001279C00000000000000000000000000000000000202020200000001010101010101010101010101010101F6
S32D000127C401010101010000000202020202020202000000010101010101010101010101010101010101010101BC
S32D000127EC00000002020202000000000000000000000000000000000000000000000000000000000202020200AE
S32D00012814000001010101010101010101010101010101010101010100000002020202020202020000000101016D
S32D0001283C0101010101010101010101010101010101010000000202020200000000000000000000000000000053
S32D000128640000000000000000000000000002020202000000010101010101010101010101010101010101010129
S32D0001288C01000000020202020202020200000001010101010101010101010101010101010101010100000002F5
S32D000128B402020200000000000000000000000000000000000000000000000000000000020202020000000101E5
S32D000128DC01010101010101010101010101010101010101000000020202020202020200000001010101010101A3
S32D00012904010101010101010101010101010100000002020202000000000000000000000000000000000000008E
S32D0001292C000000000000000000020202020000000101010101010101010101010101010101010101010000005F
S32D000129540202020202020202000000010101010101010101010101010101010101010101000000020202020027
S32D0001297C000000000000000000000000000000000000000000000000000000020202020000000101010101011E
S32D000129A401010101010101010101010101010100000002020202020202020000000101010101010101010101DA
S32D000129CC01010101010101010101000000020202020000000000000000000000000000000000000000000000CA
S32D000129F4000000000002020202000000010101010101010101010101010101010101010101000000020202028F
S32D00012A1C0202020200000001010101010101010101010101010101010101010100000002020202000000000066
S32D00012A440000000000000000000000000000000000000000000000020202020000000101010101010101010151
S32D00012A6C0101010101010101010101000000020202020202020200000001010101010101010101010101010111
S32D00012A940101010101010000000202020200000000000000000000000000000000000000000000000000000005
S32D00012ABC00020202020000000101010101010101010101010101010101010101010000000202020202020202BE
S32D00012AE400000001010101010101010101010101010101010101010100000002020202000000000000000000A6
S32D00012B0C0000000000000000000000000000000000000002020202000000010101010101010101010101010184
S32D00012B340101010101010100000002020202020202020000000101010101010101010101010101010101010148
