S01400002E2E2F53696D706C65436F64652E73313970
S32D0000C0000000002075100100D1130100D1130100D1130100D1130100D1130100000000000000000000000000F3
S32D0000C02800000000D1130100D113010000000000D1130100D1130100D1130100D1130100D1130100D1130100C2
S32D0000C050D1130100D1130100D1130100D1130100D1130100D1130100D1130100D1130100D1130100D1130100D0
S32D0000C078D1130100D1130100D1130100D1130100D1130100D1130100D1130100D1130100D1130100D1130100A8
S32D0000C0A0D1130100D1130100D1130100D1130100D1130100D1130100D1130100D1130100D1130100D113010080
S32D0000C0C8D1130100D1130100D1130100D1130100D1130100D1130100D1130100D1130100D1130100D113010058
S32D0000C0F0D1130100A9500100D1130100D1130100D1130100D1130100D1130100D1130100D1130100D11301001B
S32D0000C118D1130100D1130100D1130100D1130100D1130100D1130100D1130100D1130100D1130100D113010007
S32D0000C140D1130100D1130100D1130100D1130100ED230100D1130100D1130100D1130100D1130100D1130100B3
S32D0000C168D1130100D1130100D1130100D1130100D1130100D1130100D1130100D1130100D1130100D1130100B7
S32D0000C190D1130100D1130100D1130100D1130100D1130100D113010021140100D1130100D1130100D11301003E
S32D0000C1B8D1130100D1130100D1130100D1130100D1130100D1130100D1130100D1130100D1130100D113010067
S32D0000C41081F0004102E000BF83F0004330B54FEA41044FEA430594EA050F08BF90EA020F1FBF54EA000C55EAC6
S32D0000C438020C7FEA645C7FEA655C00F0E2804FEA5454D4EB5555B8BF6D420CDD2C4480EA020281EA030382EA0F
S32D0000C460000083EA010180EA020281EA0303362D88BF30BD11F0004F4FEA01314FF4801C4CEA113102D0404263
S32D0000C48861EB410113F0004F4FEA03334CEA133302D0524263EB430394EA050F00F0A780A4F10104D5F1200E8A
S32D0000C4B00DDB02FA0EFC22FA05F2801841F1000103FA0EF2801843FA05F359410EE0A5F120050EF1200E012A2D
S32D0000C4D803FA0EFC28BF4CF0020C43FA05F3C01851EBE37101F0004507D54FF0000EDCF1000C7EEB00006EEB67
S32D0000C5000101B1F5801F1BD3B1F5001F0CD349085FEA30004FEA3C0C04F101044FEA445212F5800F80F09A8000
S32D0000C528BCF1004F08BF5FEA500C50F1000041EB045141EA050130BD5FEA4C0C404141EB010111F4801FA4F114
S32D0000C5500104E9D191F0000F04BF01460020B1FA81F308BF2033A3F10B03B3F120020CDA0C3208DD02F1140C87
S32D0000C578C2F10C0201FA0CF021FA02F10CE002F11402D8BFC2F1200C01FA02F120FA0CFCDCBF41EA0C019040B1
S32D0000C5A0E41AA2BF01EB0451294330BD6FEA04041F3C1CDA0C340EDC04F11404C4F1200220FA04F001FA02F3B6
S32D0000C5C840EA030021FA04F345EA030130BDC4F10C04C4F1200220FA02F001FA04F340EA0300294630BD21FAA8
S32D0000C5F004F0294630BD94F0000F83F4801306BF81F480110134013D4EE77FEA645C18BF7FEA655C29D094EA1C
S32D0000C618050F08BF90EA020F05D054EA000C04BF1946104630BD91EA030F1EBF0021002030BD5FEA545C05D1A3
S32D0000C6404000494128BF41F0004130BD14F580043CBF01F5801130BD01F0004545F0FE4141F470014FF0000031
S32D0000C66830BD7FEA645C1ABF194610467FEA655C1CBF0B46024650EA013406BF52EA033591EA030F41F40021D7
S32D0000C69030BD00BF90F0000F04BF0021704730B54FF4806404F132044FF000054FF0000150E700BF90F0000F66
S32D0000C6B804BF0021704730B54FF4806404F1320410F0004548BF40424FF000013EE700BF42004FEAE2014FEAF9
S32D0000C6E031014FEA02701FBF12F07F4393F07F4F81F06051704792F0000F14BF93F07F4F704730B54FF460741B
S32D0000C70801F0004521F0004120E700BF50EA010208BF704730B54FF000050AE050EA010208BF704730B511F046
S32D0000C730004502D5404261EB41014FF4806404F132045FEA915C3FF4DCAE4FF003025FEADC0C18BF03325FEAA0
S32D0000C758DC0C18BF033202EBDC02C2F1200300FA03FC20FA02F001FA03FE40EA0E0021FA02F11444C1E600BF19
S32D0000C78070B54FF0FF0C4CF4E06C1CEA11541DBF1CEA135594EA0C0F95EA0C0F00F0DEF82C4481EA030621EAF3
S32D0000C7A84C5123EA4C5350EA013518BF52EA033541F4801143F4801338D0A0FB02CE4FF00005E1FB02E506F05F
S32D0000C7D00042E0FB03E54FF00006E1FB03569CF0000F18BF4EF0010EA4F1FF04B6F5007F64F5407404D25FEA0F
S32D0000C7F84E0E6D4146EB060642EAC62141EA55514FEAC52040EA5E504FEACE2EB4F1FD0C88BFBCF5E06F1ED8D2
S32D0000C820BEF1004F08BF5FEA500E50F1000041EB045170BD06F0004646EA010140EA020081EA0301B4EB5C0487
S32D0000C848C2BFD4EB0C0541EA045170BD41F480114FF0000E013C00F3AB8014F1360FDEBF002001F0004170BDF0
S32D0000C870C4F10004203C35DA0C341BDC04F11404C4F1200500FA05F320FA04F001FA05F240EA020001F0004207
S32D0000C89821F0004110EBD37021FA04F642EB06015EEA430E08BF20EAD37070BDC4F10C04C4F1200500FA04F32F
S32D0000C8C020FA05F001FA04F240EA020001F0004110EBD37041F100015EEA430E08BF20EAD37070BDC4F12005C7
S32D0000C8E800FA05F24EEA020E20FA04F301FA05F243EA020321FA04F001F0004121FA04F220EA020000EBD37028
S32D0000C9105EEA430E08BF20EAD37070BD94F0000F0FD101F00046400041EB010111F4801F08BF013CF7D041EA6D
S32D0000C938060195F0000F18BF704703F00046520043EB030313F4801F08BF013DF7D043EA0603704794EA0C0FF1
S32D0000C9600CEA135518BF95EA0C0F0CD050EA410618BF52EA4306D1D181EA030101F000414FF0000070BD50EA38
S32D0000C988410606BF1046194652EA430619D094EA0C0F02D150EA013613D195EA0C0F05D152EA03361CBF10467B
S32D0000C9B019460AD181EA030101F0004141F0FE4141F470014FF0000070BD41F0FE4141F4780170BD70B54FF04D
S32D0000C9D8FF0C4CF4E06C1CEA11541DBF1CEA135594EA0C0F95EA0C0F00F0A7F8A4EB050481EA030E52EA03359B
S32D0000CA004FEA013100F088804FEA03334FF0805545EA131343EA12634FEA022245EA111545EA10654FEA002676
S32D0000CA280EF000419D4208BF964244F1FD0404F5407402D25B084FEA3202B61A65EB03055B084FEA32024FF461
S32D0000CA5080104FF4002CB6EB020E75EB030E22BFB61A754640EA0C005B084FEA3202B6EB020E75EB030E22BF22
S32D0000CA78B61A754640EA5C005B084FEA3202B6EB020E75EB030E22BFB61A754640EA9C005B084FEA3202B6EBEA
S32D0000CAA0020E75EB030E22BFB61A754640EADC0055EA060E18D04FEA051545EA16754FEA06164FEAC30343EAAC
S32D0000CAC852734FEAC2025FEA1C1CC0D111F4801F0BD141EA00014FF000004FF0004CB6E711F4801F04BF0143AE
S32D0000CAF00020B4F1FD0C88BFBCF5E06F3FF6AFAEB5EB030C04BFB6EB020C5FEA500C50F1000041EB045170BDBC
S32D0000CB180EF0004E4EEA113114EB5C04C2BFD4EB0C0541EA045170BD41F480114FF0000E013C90E645EA060EC3
S32D0000CB408DE60CEA135594EA0C0F08BF95EA0C0F3FF43BAF94EA0C0F0AD150EA01347FF434AF95EA0C0F7FF499
S32D0000CB6825AF104619462CE795EA0C0F06D152EA03353FF4FDAE1046194622E750EA410618BF52EA43067FF432
S32D0000CB90C5AE50EA41047FF40DAF52EA43057FF4EBAE12E74FF0FF3C06E000BF4FF0010C02E000BF4FF0010C75
S32D0000CBB84DF804CD4FEA410C7FEA6C5C4FEA430C18BF7FEA6C5C1BD001B050EA410C0CBF52EA430C91EA030FEC
S32D0000CBE002BF90EA020F0020704710F1000F91EA030F58BF994208BF90422CBFD8176FEAE37040F0010070476E
S32D0000CC084FEA410C7FEA6C5C02D150EA013C07D14FEA430C7FEA6C5CD6D152EA033CD3D05DF8040B704700BFCD
S32D0000CC308446104662468C461946634600E000BF01B5FFF7B7FF002848BF10F1000F01BD4DF808EDFFF7F4FF13
S32D0000CC580CBF012000205DF808FB00BF4DF808EDFFF7EAFF34BF012000205DF808FB00BF4DF808EDFFF7E0FF18
S32D0000CC8094BF012000205DF808FB00BF4DF808EDFFF7CEFF94BF012000205DF808FB00BF4DF808EDFFF7C4FF40
S32D0000CCA834BF012000205DF808FB00BF4FEA410212F5001215D211D56FF47873B3EB625212D94FEAC12343F0D6
S32D0000CCD0004343EA505311F0004F23FA02F018BF404270474FF00000704750EA013005D111F0004008BF6FF016
S32D0000CCF8004070474FF00000704700BF4A0011D212F5001211D20DD56FF47873B3EB62520ED44FEAC12343F085
S32D0000CD20004343EA505323FA02F070474FF00000704750EA013002D14FF0FF3070474FF0000070474FEA410241
S32D0000CD48B2F1E04324BFB3F5001CDCF1FE5C0DD901F0004C4FEAC0024CEA5070B2F1004F40EB830008BF20F09E
S32D0000CD700100704711F0804F21D113F13872BCBF01F00040704741F480114FEA5252C2F11802C2F1200C10FAB1
S32D0000CD980CF320FA02F018BF40F001004FEAC1234FEAD32303FA0CFC40EA0C0023FA02F34FEA4303CCE77FEA26
S32D0000CDC0625307D150EA01331EBF4FF0FE4040F44000704701F0004040F0FE4040F40000704700BF80F00040CC
S32D0000CDE802E000BF81F0004142001FBF5FEA410392EA030F7FEA226C7FEA236C6AD04FEA1262D2EB1363C1BF06
S32D0000CE10D218414048404140B8BF5B42192B88BF704710F0004F40F4000020F07F4018BF404211F0004F41F4FA
S32D0000CE38000121F07F4118BF494292EA030F3FD0A2F1010241FA03FC10EB0C00C3F1200301FA03F100F000432B
S32D0000CE6002D5494260EB4000B0F5000F13D3B0F1807F06D340084FEA310102F10102FE2A51D2B1F1004F40EB94
S32D0000CE88C25008BF20F0010040EA03007047490040EB000010F4000FA2F10102EDD1B0FA80FCACF1080CB2EB5F
S32D0000CEB00C0200FA0CF0AABF00EBC25052421843BCBFD0401843704792F0000F81F4000106BF80F400000132EB
S32D0000CED8013BB5E74FEA41037FEA226C18BF7FEA236C21D092EA030F04D092F0000F08BF0846704790EA010FD7
S32D0000CF001CBF0020704712F07F4F04D1400028BF40F00040704712F100723CBF00F50000704700F0004343F0DC
S32D0000CF28FE4040F4000070477FEA226216BF08467FEA23630146420206BF5FEA412390EA010F40F480007047C1
S32D0000CF504FF0000304E000BF10F0004348BF40425FEA000C08BF704743F0964301464FF000001CE050EA010264
S32D0000CF7808BF70474FF000030AE000BF50EA010208BF704711F0004302D5404261EB41015FEA010C02BF84465B
S32D0000CFA00146002043F0B64308BFA3F18053A3F50003BCFA8CF2083AA3EBC25310DB01FA02FC634400FA02FC6B
S32D0000CFC8C2F12002BCF1004F20FA02F243EB020008BF20F00100704702F1200201FA02FCC2F1200250EA4C0034
S32D0000CFF021FA02F243EB020008BF20EADC7070474FF0FF0C1CEAD0521EBF1CEAD15392EA0C0F93EA0C0F6FD019
S32D0000D0181A4480EA010C400218BF5FEA41211ED04FF0006343EA501043EA5111A0FB01310CF00040B1F5000FE7
S32D0000D0403EBF490041EAD3715B0040EA010062F17F02FD2A1DD8B3F1004F40EBC25008BF20F00100704790F058
S32D0000D068000F0CF0004C08BF49024CEA502040EA51207F3AC2BFD2F1FF0340EAC250704740F400004FF0000388
S32D0000D090013A5DDC12F1190FDCBF00F000407047C2F10002410021FA02F1C2F1200200FA02FC5FEA310040F1D5
S32D0000D0B8000053EA4C0308BF20EADC70704792F0000F00F0004C02BF400010F4000F013AF9D040EA0C0093F04C
S32D0000D0E0000F01F0004C02BF490011F4000F013BF9D041EA0C018FE70CEAD15392EA0C0F18BF93EA0C0F0AD00B
S32D0000D10830F0004C18BF31F0004CD8D180EA010000F00040704790F0000F17BF90F0004F084691F0000F91F0BB
S32D0000D130004F14D092EA0C0F01D142020FD193EA0C0F03D14B0218BF084608D180EA010000F0004040F0FE4051
S32D0000D15840F40000704740F0FE4040F4400070474FF0FF0C1CEAD0521EBF1CEAD15392EA0C0F93EA0C0F69D044
S32D0000D180A2EB030280EA010C49024FEA402037D04FF0805343EA111143EA10130CF000408B4238BF5B0042F14E
S32D0000D1A87D024FF4000C8B4224BF5B1A40EA0C00B3EB510F24BFA3EB510340EA5C00B3EB910F24BFA3EB9103A4
S32D0000D1D040EA9C00B3EBD10F24BFA3EBD10340EADC001B0118BF5FEA1C1CE0D1FD2A3FF650AF8B4240EBC25018
S32D0000D1F808BF20F0010070470CF0004C4CEA50207F32C2BFD2F1FF0340EAC250704740F400004FF00003013AF1
S32D0000D22037E792F0000F00F0004C02BF400010F4000F013AF9D040EA0C0093F0000F01F0004C02BF490011F4C9
S32D0000D248000F013BF9D041EA0C0195E70CEAD15392EA0C0F08D142027FF47DAF93EA0C0F7FF470AF084676E7AE
S32D0000D27093EA0C0F04D14B023FF44CAF08466EE730F0004C18BF31F0004CCAD130F000427FF45CAF31F0004376
S32D0000D2987FF43CAF5FE700BF4FF0FF3C06E000BF4FF0010C02E000BF4FF0010C4DF804CD4FEA40024FEA41039F
S32D0000D2C07FEA226C18BF7FEA236C11D001B052EA530C18BF90EA010F58BFB2EB030088BFC81738BF6FEAE1706E
S32D0000D2E818BF40F0010070477FEA226C02D15FEA402C05D17FEA236CE4D15FEA412CE1D05DF8040B704700BF16
S32D0000D310844608466146FFE70FB5FFF7C9FF002848BF10F1000F0FBD4DF808EDFFF7F4FF0CBF012000205DF839
S32D0000D33808FB00BF4DF808EDFFF7EAFF34BF012000205DF808FB00BF4DF808EDFFF7E0FF94BF012000205DF8A9
S32D0000D36008FB00BF4DF808EDFFF7D2FF94BF012000205DF808FB00BF4DF808EDFFF7C8FF34BF012000205DF8B1
S32D0000D38808FB00BF4FEA4002B2F1FE4F0FD34FF09E03B3EB12620DD94FEA002343F0004310F0004F23FA02F060
S32D0000D3B018BF404270474FF00000704712F1610F01D1420205D110F0004008BF6FF0004070474FF00000704797
S32D0000D3D842000ED2B2F1FE4F0BD34FF09E03B3EB126209D44FEA002343F0004323FA02F070474FF000007047DA
S32D0000D40012F1610F01D1420202D14FF0FF3070474FF00000704700BF036803B11B181846704700BF03685A00DD
S32D0000D4284CBF43F0004323F00043C018704700BF2DE9F84F0446914641B301F1FF3BDA46002707EB0A0101EBE3
S32D0000D450D1756D1004EBC5063046FFF7E3FF8046681CAB4504EBC0000DD0FFF7DBFF0138C84504D9BD4209D052
S32D0000D47805F1FF3AE5E7484505D26F1CE1E74FF0FF30F1E700263046BDE8F88F0E463046BDE8F88F30B52B4B75
S32D0000D4A083B004468D1E002B49D0284601A9AFF300800346002822D02A4618460199FFF7BBFF054600281DD0DD
S32D0000D4C8FFF7ACFF6B68A064012B10D0281D002B22DBFFF7A3FF0021E06421650368002B0FDBFFF79BFF206131
S32D0000D4F0002003B030BD002323610520F9E720610920F6E720610920F3E7C3F3036058B101280CD002280ED068
S32D0000D518002020610920E8E70122E0642265DDE7094B2361E1E7094A00202261DDE7084900202161D9E7074B3B
S32D0000D5400749C81AC2100192B6E700BF0000000069DA000065DA000061DA0000488E010040900100036810B535
S32D0000D5680446D80706D4990704F1480009D500F00DFD23685A0709D518070ED5D90613D510BD00F0FBFC23680B
S32D0000D5905A07F5D404F1D00000F004FD23681807F0D404F5D87000F005FD2368D906EBD404F50C70BDE8104059
S32D0000D5B800F040BD2DE9F0470F1D054691460FCFADF5916D02AC261D0FC60FCF0FC60FCF0FC697E80F00D5F8B8
S32D0000D5E00C80D5F818A0002786E80F00216C27602846FFF753FF0646B94514BF4FF00A094FF00909FEB1A16B23
S32D0000D60849F01009616401208DE8100449462A462B46C04700282BD1002E2AD1204692A94FF4107208F0C8FC4D
S32D0000D630082F28D1216C2846FFF730FF06464FF00909002EDFD1206C21464FF41072686192A808F0B5FC2F6905
S32D0000D658294692AA4846B847A09B0746636401208DE8100449462A462B46C0470028D3D00926304622B00DF5B8
S32D0000D680806DBDE8F087072FF6D1201D00F06EFC38B504460D46296C2046FFF7FFFE50B92A6C23696261012058
S32D0000D6A821462A4698470828F1D0072801D00AF0BBFD281D00F056FC11B933B10220704704298CBF0220012032
S32D0000D6D070470F2A01D90220704700EB820118464A68009B1A60704710B50A4684B000210B4603AC0094FFF74B
S32D0000D6F8E3FF039804B010BD11B933B10220704704298CBF0220012070470F2A01D902207047009900EB820219
S32D0000D720096818465160704710B584B004AB0C4643F8042D0021009322460B46FFF7E0FF04B010BD2DE9F04F26
S32D0000D748CD6C8BB00C4655F8041B174600F008021E46039200F003080795002B40F0CF8009020691216D8DF83B
S32D0000D77021300323B8F1020F8DF8203008BFA56B11F0010340F0D380019304F158030293D5F80090B9F1000F97
S32D0000D79800F0CB80022E00F0AE80B5F80090B5F802A00435A26C0F212AF0010B38469344FFF796FF834518D819
S32D0000D7C029F0010CE3440AF0010A09F00103584543EA4A092CBF00200120B9F1010F12D032D2B8F1000F02D079
S32D0000D7E8002840F01D810435CEE70AF0010A09F0010343EA4A090020B9F1010FECD1B8F1000F40F0B680C8B17F
S32D0000D8106B68D5F800909A1C19D0029A013309920DD0281DFFF7F8FD4FEAD972014609AB204609F067FD002839
S32D0000D83800F0F280099A002A40F0BA800835A3E7B9F1020F03D009200BB0BDE8F08F2B6823F000420092B8F1A9
S32D0000D860000F71D1002843D00398002840F0A1800098002800F0A080009BDDF80C90DB0705F1040A40F1B480D3
S32D0000D888CDF810800596A846029E12E000998D4200F0D9800996FFF7BBFD5A46014609AB204609F02BFDA946F3
S32D0000D8B0B0B90AF1040A05F1010950460996FFF7ABFD09AB01460022204609F01BFD0AF1040A834609F101059F
S32D0000D8D85046BBF1000FD9D04546059EDDF81080009A4A4564D02B68002B7BDB0099481C05EB800548E7D5F8B6
S32D0000D90004A0083552E70B04C1F30740216D06930222B8F1020F05EB800508BFA56B8DF8210011F001038DF854
S32D0000D92820203FF42DAF00200190384606A900F019FC002887D1019A002A43D1082083E70D213846D4F820908C
S32D0000D950FFF7CAFE8145CAD1A26A9542C7D10098291D00220423A062E26223636163286800286EDB01220192A1
S32D0000D978BCE70D213846D4F82090FFF7B1FE81457FF45CAFA16A8D427FF458AF2846FFF745FD0F2102463846DD
S32D0000D9A0FFF7C2FE384600212246FFF7BDFE07204EE7009900299BD138460D21FFF794FE099B20626362A5623B
S32D0000D9C8062041E70F213846FFF78AFE0E2102463846FFF7A5FE38460F211E4AFFF7A0FE072031E7043581E79F
S32D0000D9F0029950460991FFF70FFD039A014609AB204609F07FFC00287FF46EAFCDF8108005960AF1040A4FF0DA
S32D0000DA180109A846029E4CE7CDF824800835B3E62846FFF7FBFC04350646A563204609F0DBFC00283FF407AFA7
S32D0000DA4038460F213246FFF76FFE072000E74546B2E7009B591C05EB81009CE75975010002236FE601236DE639
S32D0000DA6800236BE62DE9F0470446E8B004290CD8DFE801F0380391930F00150C012B96B200F07881052B00F018
S32D0000DA90C780022068B0BDE8F087002BF9D1102AF7D82368D90600F1738164A8019200F0CFFA019AA36BD007A6
S32D0000DAB844BF53F8040B6490910744BF53F8041B6591500744BF53F8041B6691110748BF53F8042B64A8A3638E
S32D0000DAE048BF679200F0AAFA0020D3E7002BD0D1A36BD00791B244BF53F8042B62608A0744BF53F8042BA26067
S32D0000DB08480744BF53F8042BE2600A0744BF53F8042B2261C80644BF53F8042B62618A0644BF53F8042BA261B2
S32D0000DB30480644BF53F8042BE2610A0644BF53F8042B2262C80544BF53F8042B62628A0544BF53F8042BA2628A
S32D0000DB58480544BF53F8042BE2620A0544BF53F8042B2263C80444BF53F8042B626311F400501CBF53F8042BC8
S32D0000DB80A2634A0444BF53F8042BE2630A0444BF53F8042B2264002840D1A3637AE7012078E7032B7FF475AF6C
S32D0000DBA8160C95B2AA19102A3FF66FAF2368180700F10B8144A800F01BFAA76B4FEA450E3B460DB344A90EF1B3
S32D0000DBD0FF3C01EBC60653F8040B62460CF0010146F8040B92B129B153F8041B013A46F8041B0BD01846314618
S32D0000DBF850F8045B41F8045B5D68031D75600E1D023AF3D107EB8E0344A8A36300F0CEF900203BE7002039E72D
S32D0000DC2077192022BA42FFF434AF012B00F0A9800F2D40F2A9803746F6B1052B7FF429AF0F2D11D82268D00731
S32D0000DC480ED522F00101052B2160204600F0DA8022F0030240F8482B019300F093F9019B1FB12268510700F145
S32D0000DC70B880012B00F0BF800F2D75D9002F40F0A080D4F83890002EC8462EDD49460DF1080A4FEA46080AEBF4
S32D0000DC98C50251F8046B08F1FF3000F0010A42F8046BA8F1020CD0B1BAF1000F08D051F8040B0CF1FF3CBCF11C
S32D0000DCC0FF3F42F8040B0ED00E46104656F804AB40F804AB4968ACF1020C5160311D021DBCF1FF3FF0D109EB29
S32D0000DCE88808A7B3102D2CBF2E4610260DF5D079414609EBC60CACF5C8724FEA470951F8046B09F1FF3000F085
S32D0000DD10010A42F8046BA9F1020CD0B1BAF1000F08D051F8040B0CF1FF3CBCF1FF3F42F8040B0ED00E4610462A
S32D0000DD3856F804AB40F804AB4968ACF1020C5160311D021DBCF1FF3FF0D108EB8908012B2BD00F2DC4F8388058
S32D0000DD6008D9FFB9384695E602A8019300F016F9019B83E702A800F00DF9F2E77719102250E70F2D3FF685AEAA
S32D0000DD88102F10D9103F54E723F01003236004F50C70019200F058F9019A82E624A800F0FDF8002072E6002776
S32D0000DDB046E708F1040302A8A36300F0E3F8002068E624A80193C5F1100600F0EFF8019B57E723F0080704F537
S32D0000DDD8D870276000F00CF9ECE6204622F0040140F8D01B019300F0DDF8019B3DE702A8019300F0C7F8019B45
S32D0000DE00002F3FF43EAFC5F110063AE741F0020140F8481B019300F0C1F8019B24E700BF406C7047F0B50D46EB
S32D0000DE280F1DC96B296404460FCFADF5117D01AE0FC60FCF0FC60FCF0FC697E80F0086E80F004FF0FF3300938E
S32D0000DE5010992046FFF722FB58B9266921466A46B04708280646F3D06846FFF77BFB062E03D009200DF5117DBB
S32D0000DE78F0BD20462946FFF707FC00BF10B4DC6BC1608261194600221C6410BCFFF792BB38B54269C3680A64F2
S32D0000DEA004460D4623B10122FFF788FB0AF0C0F90369214602202A469847072803D0082804D00AF0B5F9281D5D
S32D0000DEC800F050F820462946FFF7DEFBC36823B1CA6B0A640022FFF76DBB9FE7704700BF08B5836801460BB1C7
S32D0000DEF00120984708BD00BFF0B5D46B171D146405460C460FCFADF5277D01AE0FC60FCF0FC60FCF0FC697E8C6
S32D0000DF180F0086E80F004FF0FF330093109990A8FFF7B8FA034690AA68460C21BBB9FFF7F7FB21466846A84704
S32D0000DF40064690A908206A466EB9949B98470528064601D00928E5D16846FFF703FB30460DF5277DF0BD092656
S32D0000DF68F6E700BF00F1340191E838009C46A6464CF8045D90E8FF0FE54600BD90EC210B704700BF80EC210B81
S32D0000DF90704700BF90EC200B704700BF80EC200B704700BFD0EC200B704700BFC0EC200B704700BFF0EC02013A
S32D0000DFB8F0EC0211F0EC0221F0EC0231F0EC0241F0EC0251F0EC0261F0EC0271F0EC0281F0EC0291F0EC02A115
S32D0000DFE0F0EC02B1F0EC02C1F0EC02D1F0EC02E1F0EC02F1704700BFE0EC0201E0EC0211E0EC0221E0EC023196
S32D0000E008E0EC0241E0EC0251E0EC0261E0EC0271E0EC0281E0EC0291E0EC02A1E0EC02B1E0EC02C1E0EC02D184
S32D0000E030E0EC02E1E0EC02F1704700BFB0FC0181B0FC0191B0FC01A1B0FC01B1704700BFA0FC0181A0FC019104
S32D0000E058A0FC01A1A0FC01B1704700BFEC4600B52DE900502DE9FF1F4FF000032DE90C0001A9FFF7D3FEDDF86D
S32D0000E08040E012B0704700BFEC4600B52DE900502DE9FF1F4FF000032DE90C0001A9FFF7FBFEDDF840E012B0E5
S32D0000E0A8704700BFEC4600B52DE900502DE9FF1F4FF000032DE90C0001A9FFF707FFDDF840E012B0704700BF1C
S32D0000E0D0EC4600B52DE900502DE9FF1F4FF000032DE90C0001ABFFF7CDFEDDF840E012B0704700BFEC4600B5BC
S32D0000E0F82DE900502DE9FF1F4FF000032DE90C0001AAFFF7F5FEDDF840E012B0704700BF027A03461AB9427AE7
S32D0000E12042B9B02070470068013A01021A72000E196070474168501E587251F8040B0322596001021A72000E2B
S32D0000E1481960704710B5002184B00C220DEB02040B460094FFF7B0FA039804B010BD00BFF0E700BF2DE9F043F4
S32D0000E170064685B00D464FF000094FF47F672846FFF7CAFFB028044600F0B08010F0800120D000F0F003802BCE
S32D0000E19874D0902B37D0A02B45D0B02B56D0C02B00F0858000F0F800D0280BD104F00702511C41F4002230469F
S32D0000E1C001210523FFF752FC0028D8D0092005B0BDE8F0834FEA800203A85FFA82F800900D220B463046FFF728
S32D0000E1E86BFA039B600608F104084CBFC8EB0303434403AC03930094002130460D220B46FFF77AFAB7E700F068
S32D0000E2100F020D2ADAD00F2AD8D0002103AC009430460B4603ACFFF74BFA0094E8E7C24302F0070C47FA0CF04E
S32D0000E238210700F47F6248BF42F48042002130460B46FFF70FFC0028BCD194E7B1285DD0B2286ED0B32800F0BA
S32D0000E260958000F0FC02B42A46D000F00702531C43F40022012130460B46FFF7F7FB0028A4D17CE72846FFF7A3
S32D0000E28847FF210240EA0104B4F5004F9AD0230500211A0C30460B462401FFF7E3FB002890D114F4004F18BF88
S32D0000E2B04FF0010963E7C62873D0C72800F0848000F0F802C02A00F09280C82800F0A680C9287FF47BAF2846C1
S32D0000E2D8FFF71EFF00F00F0300F0F0015A1C42EA013268E7B9F1000F00F0838000206AE700F00301481C022166
S32D0000E30040F480220B463046FFF7B0FB00287FF45DAF34E72846FFF7FFFE024600283FF455AF10F0F0017FF483
S32D0000E32851AF30460B46FFF79DFB00287FF44AAF21E700210D220B4603AC30460094FFF7BBF92846FFF7E4FE8C
S32D0000E350022402060DD5039B00F07F0000FA04FE03EB0E0128460391FFF7D6FE07340306F1D4039B00F07F01A6
S32D0000E37803AA03F5017C01FA04F400920CEB0402039239E72846FFF7C3FE00F00F03591C00F0F00041EA003245
S32D0000E3A068E72846FFF7B8FE00F00F03591C00F0F00041EA0032032130460B46FFF756FB00287FF403AFDAE6F3
S32D0000E3C82846FFF7A5FE024600283FF4FBAE10F0F0037FF4F7AE30460421FFF743FB00287FF4F0AEC7E600F024
S32D0000E3F00F01481C40F42022DDE703AC49460E224B4630460094FFF75BF9304649460F224B460094FFF774F940
S32D0000E4184846D8E62846FFF77BFE00F0F00200F00F001032431C43EA0232C4E610B5C26C84B0032054688DF895
S32D0000E4400C00D37924020832084601A9019402928DF80D30FFF78AFE04B010BD08B5FFF783FE806C08BD00BF70
S32D0000E46808B5FFF77DFEC16CC87901EB800303F1080008BD08B509F0D7FE00BF08B509F0D3FE00BF2DE9F04FD5
S32D0000E4908DB00AAF4FF0030008F024FE044620464FF0030104F062F943F22863C1F6FF731C604FF0010008F02D
S32D0000E4B815FE044620464FF0000103F09FFD43F22C63C1F6FF731C604FF0010008F006FE044620464FF001010E
S32D0000E4E003F0BCFB43F23863C1F6FF731C604FF0010008F0F7FD044620464FF0020103F0ADFB43F23463C1F6B3
S32D0000E508FF731C604FF0010008F0E8FD044620464FF0030103F09EFB43F24463C1F6FF731C604FF0010008F0A2
S32D0000E530D9FD044620464FF0040103F063FD43F23063C1F6FF731C604FF01C0008F0CAFD044620464FF0080121
S32D0000E55803F0A4FF43F25863C1F6FF731C604FF01C0008F0BBFD044620464FF0090103F095FF43F25C63C1F634
S32D0000E580FF731C604FF0010008F0ACFD044620464FF0100103F062FB43F24063C1F6FF731C604FF0010008F099
S32D0000E5A89DFD044620464FF0110103F053FB43F23C63C1F6FF731C604FF0020008F08EFD044620464FF000013C
S32D0000E5D002F054FF43F24863C1F6FF731C604FF0020008F07FFD044620464FF0010102F045FF43F24C63C1F6DC
S32D0000E5F8FF731C604FF00C0008F070FD044620464FF0000104F078FA43F25063C1F6FF731C604FF00C0008F031
S32D0000E62061FD044620464FF0010104F069FA43F25463C1F6FF731C6043F25063C1F6FF731B6818464FF4FA71F5
S32D0000E64804F078FA43F25063C1F6FF731B68184640F67F1104F08CFA43F25463C1F6FF731B6818464FF4FA7168
S32D0000E67004F064FA43F25463C1F6FF731B68184640F6C41104F078FA43F26863C1F6FF7343F2CC62C1F6FF720F
S32D0000E6981A6043F26863C1F6FF731B6818464FF0000104F085FF43F26863C1F6FF731B6818464FF0010104F0D9
S32D0000E6C0D9FF43F27463C1F6FF7343F26C62C1F6FF721A604FF0080008F004FD04462046FF4901F0B5FC43F26B
S32D0000E6E87863C1F6FF731C604FF0600008F0F6FC044643F27863C1F6FF73196843F22863C1F6FF731A6843F257
S32D0000E7106863C1F6FF731D6843F27463C1F6FF731B687B6043F25863C1F6FF73D3F800B043F25C63C1F6FF731E
S32D0000E738D3F800A043F23463C1F6FF73D3F8009043F23863C1F6FF73D3F8008043F23C63C1F6FF73D3F800C02C
S32D0000E76043F24063C1F6FF73D3F800E043F24463C1F6FF731E6843F23063C1F6FF73186843F22C63C1F6FF73F6
S32D0000E7881B683B607B680093CDF804B0CDF808A0CDF80C90CDF81080CDF814C0CDF818E0079608903B68099369
S32D0000E7B020462B4601F0BEF943F26063C1F6FF731C604FF0140008F08DFC044643F24863C1F6FF73196843F242
S32D0000E7D84C63C1F6FF731A6843F26063C1F6FF731B68204601F0B0FC43F26463C1F6FF731C6043F28063C1F6A2
S32D0000E800FF734FF006021A6043F28063C1F6FF731B684FEA8303184608F098FC024643F28863C1F6FF731A603F
S32D0000E82843F28863C1F6FF731A6848F2F033C0F20103136043F28863C1F6FF731B6803F1040248F2F833C0F294
S32D0000E8500103136043F28863C1F6FF731B6803F1080248F20443C0F20103136043F28863C1F6FF731B6803F1EF
S32D0000E8780C0248F20843C0F20103136043F28863C1F6FF731B6803F1100248F21043C0F20103136043F288630E
S32D0000E8A0C1F6FF731B6803F1140248F22043C0F20103136043F27C63C1F6FF734FF000021A6043F28463C1F603
S32D0000E8C8FF734FF001021A7043F26063C1F6FF731B68184601F09CF943F26063C1F6FF731B6818464FF0010119
S32D0000E8F001F0D4F90346002B12D043F28863C1F6FF731A6843F27C63C1F6FF731B684FEA8303D3181B681846D0
S32D0000E91800F0E6F800BFD7E743F26063C1F6FF731B6818464FF0000101F0B4F90346002B22D043F27C63C1F675
S32D0000E940FF731B6803F1FF3243F27C63C1F6FF731A6043F27C63C1F6FF731B68002B0FDA43F27C63C1F6FF73C7
S32D0000E9681A6843F28063C1F6FF731B68D21843F27C63C1F6FF731A6043F26063C1F6FF731B6818464FF0020156
S32D0000E99001F084F90346002B29D043F27C63C1F6FF731B6803F1010243F27C63C1F6FF731A6043F28063C1F641
S32D0000E9B8FF731B6803F1FF3243F27C63C1F6FF731B689A420FDA43F27C63C1F6FF731A6843F28063C1F6FF7392
S32D0000E9E01B68D21A43F27C63C1F6FF731A6043F27863C1F6FF731B68184601F085FB0346002B69D043F26863AB
S32D0000EA08C1F6FF731B6818464FF0000104F0D0FD43F26863C1F6FF731B68184648F22C41C0F2010104F076FE08
S32D0000EA3043F26863C1F6FF731A6843F28863C1F6FF73196843F27C63C1F6FF731B684FEA8303CB181B68104608
S32D0000EA58194604F049FF43F26863C1F6FF731B68184648F23841C0F2010104F03DFF43F26863C1F6FF731B68A8
S32D0000EA80184648F25041C0F2010104F031FF43F26863C1F6FF731B68184648F26841C0F2010104F03BFE43F264
S32D0000EAA86863C1F6FF731A6843F28463C1F6FF731B78002B04D048F27443C0F2010303E048F27C43C0F20103BA
S32D0000EAD01046194604F00CFF024803F013F8F7E6000000000AD7233C80B582B000AF786043F28463C1F6FF73CC
S32D0000EAF81B78002B1ED07A6848F22043C0F201039A4217D04FF000004FF07E5101F5E00103F01AF843F2746317
S32D0000EB20C1F6FF731B68184606F0BCFB43F27463C1F6FF731B68184607F06EF87A6848F20443C0F201039A42A8
S32D0000EB4801D100F03DF87A6848F2F833C0F201039A4201D100F022FA7A6848F20843C0F201039A4201D100F036
S32D0000EB7067FA7A6848F2F033C0F201039A4201D100F002FC7A6848F21043C0F201039A4201D100F059FF7A6888
S32D0000EB9848F22043C0F201039A420CD143F28463C1F6FF731B7883F00103DAB243F28463C1F6FF731A7007F1A1
S32D0000EBC00807BD4680BD00BF80B500AF43F26863C1F6FF731B68184648F28841C0F2010104F086FE43F2546310
S32D0000EBE8C1F6FF731B681846E24903F0E1FF43F26463C1F6FF731B68184601F00DFE4FF000004FF07E5101F5B2
S32D0000EC10E00102F09DFF43F26463C1F6FF731B68D74A1A6043F26063C1F6FF731B68184601F008F94FF00000F1
S32D0000EC384FF07E5101F5E00102F086FF43F26463C1F6FF731B6818464FF06401CB4A01F0A3FE4FF000004FF083
S32D0000EC607E5101F5E00102F073FF43F26063C1F6FF731B68184601F0F5F84FF000004FF07E5101F5E00102F086
S32D0000EC8863FF43F26063C1F6FF731B6893F82030002B5FD143F26463C1F6FF731B6818464FF000014FF000029B
S32D0000ECB04FF0010301F0CAFC4FF000004FF07E5101F5E00102F044FF43F26463C1F6FF731B6818464FF0640139
S32D0000ECD8AB4A01F061FE4FF000004FF07E5101F5E00102F031FF43F26463C1F6FF731B6818464FF05A014FF0A4
S32D0000ED0001024FF0000301F0A1FC4FF000004FF07E5101F5E00102F01BFF43F26463C1F6FF731B68184601F0EB
S32D0000ED287BFD43F25463C1F6FF731B681846954903F03EFF4FF000004FF0804102F004FF43F25463C1F6FF73F8
S32D0000ED501B681846894903F02FFF5EE043F26463C1F6FF731B6818464FF000014FF001024FF0000301F06AFC62
S32D0000ED784FF000004FF07E5101F5E00102F0E4FE43F26463C1F6FF731B6818466FF063017D4A01F001FE4FF0B6
S32D0000EDA000004FF07E5101F5E00102F0D1FE43F26463C1F6FF731B6818464FF05A014FF000024FF0010301F08A
S32D0000EDC841FC4FF000004FF07E5101F5E00102F0BBFE43F26463C1F6FF731B68184601F01BFD43F25463C1F65F
S32D0000EDF0FF731B681846654903F0DEFE4FF000004FF0804102F0A4FE43F25463C1F6FF731B681846594903F0C7
S32D0000EE18CFFE43F26463C1F6FF731B6818464FF064015A4A01F0B8FD4FF000004FF07E5101F5E00102F088FE6F
S32D0000EE4043F26463C1F6FF731B6818464FF000014FF000024FF0010301F0F8FB4FF000004FF07E5101F5E001D2
S32D0000EE6802F072FE43F26463C1F6FF731B68184601F0D2FC4FF000004FF07E5101F5E00102F062FE43F26463E3
S32D0000EE90C1F6FF731B6818464FF064013E4A01F07FFD4FF000004FF07E5101F5E00102F04FFE43F26463C1F69B
S32D0000EEB8FF731B6818464FF05A014FF001024FF0000301F0BFFB4FF000004FF07E5101F5E00102F039FE43F28E
S32D0000EEE06463C1F6FF731B68184601F099FC4FF000004FF07E5101F5E00102F029FE43F26463C1F6FF731B68C8
S32D0000EF0818464FF06401234A01F046FD4FF000004FF07E5101F5E00102F016FE43F26463C1F6FF731B68184608
S32D0000EF304FF005014FF000024FF0000301F086FB4FF000004FF07E5101F5E00102F000FE43F26463C1F6FF7340
S32D0000EF581B68184601F0E4FB43F26463C1F6FF731B6818464FF064014FF000020A4B01F079F980BD0000F041C9
S32D0000EF8000007042000010410000204000001643000040400000E04000009441000008420000803E80B500AF46
S32D0000EFA843F25063C1F6FF731B681846214903F0FFFD4FF000004FF07E5101F5E00102F0C3FD43F26463C1F667
S32D0000EFD0FF731B6818464FF078014FF000024FF0010301F033FB4FF000004FF07E5101F5E00102F0ADFD43F270
S32D0000EFF86463C1F6FF731B6818464FF05A014FF001024FF0010301F01DFB4FF000004FF07E5101F5E00102F0DC
S32D0000F02097FD43F25063C1F6FF731B681846034903F0C2FDFFF7C8FD80BD00BF0000344298B500AF43F2686315
S32D0000F048C1F6FF731B68184604F0DCFA43F26863C1F6FF731B68184648F28C41C0F2010104F058FB43F26863BA
S32D0000F070C1F6FF731C6843F26063C1F6FF731B689B6B184602F01AFF03462046194604F0FBFB43F26863C1F603
S32D0000F098FF731B68184648F29441C0F2010104F039FB43F26863C1F6FF731C6843F26063C1F6FF731B68DB6B75
S32D0000F0C0184602F0FBFE03462046194604F04CFC43F26863C1F6FF731B68184648F2A041C0F2010104F01AFBAD
S32D0000F0E843F26863C1F6FF731C6843F26063C1F6FF731B681B6C184602F0DCFE03462046194604F0BDFB43F209
S32D0000F1106863C1F6FF731B68184648F2A841C0F2010104F0FBFA43F26863C1F6FF731C6843F26063C1F6FF736E
S32D0000F1381B685B6C184602F0BDFE03462046194604F00EFC43F26863C1F6FF731B68184648F2B441C0F201015B
S32D0000F16004F0DCFA43F26863C1F6FF731C6843F26063C1F6FF731B689B6C184602F09EFE03462046194604F071
S32D0000F188EFFB43F26863C1F6FF731B68184648F2C041C0F2010104F0BDFA43F26863C1F6FF731C6843F2606326
S32D0000F1B0C1F6FF731B68184600F006FF03462046194604F0D1FB43F26863C1F6FF731B68184648F2C841C0F265
S32D0000F1D8010104F09FFA43F26863C1F6FF731C6843F26063C1F6FF731B685B6A184606F09FFD03462046194666
S32D0000F20004F0D4FA43F26863C1F6FF731B68184648F2CC41C0F2010104F080FA43F26863C1F6FF731C6843F2C9
S32D0000F2286063C1F6FF731B685B6A184606F090FD03462046194604F0B5FA43F26863C1F6FF731B68184648F2AE
S32D0000F250D441C0F2010104F061FA43F26863C1F6FF731C6843F26063C1F6FF731B685B6A184606F081FD034647
S32D0000F2782046194604F060FB43F26863C1F6FF731B68184648F2E041C0F2010104F042FA43F26863C1F6FF73E2
S32D0000F2A01C6843F26063C1F6FF731B681B6B184603F042FA03462046194604F02DFB43F26863C1F6FF731B682F
S32D0000F2C8184648F2F041C0F2010104F023FA43F26863C1F6FF731C6843F26063C1F6FF731B685B6B184603F022
S32D0000F2F023FA03462046194604F00EFB43F26863C1F6FF731B68184648F20051C0F2010104F004FA43F268638D
S32D0000F318C1F6FF731C6843F26063C1F6FF731B681B6D184602F07CFE03462046194604F039FA43F26863C1F638
S32D0000F340FF731B68184648F20851C0F2010104F0E5F943F26863C1F6FF731C6843F26063C1F6FF731B68DB6C9B
S32D0000F368184602F05DFE03462046194604F01AFA014802F0C3FB61E6CDCCCC3D0000000090B583B000AF43F278
S32D0000F3905063C1F6FF731B681846DFF8741603F00BFC43F25463C1F6FF731B681846DFF8641603F001FC43F2CB
S32D0000F3B86063C1F6FF731B68184600F0D9FC43F26063C1F6FF731C6843F27463C1F6FF731B68184606F05EFC8A
S32D0000F3E00346236143F26863C1F6FF731B68184648F21051C0F2010104F090F943F26863C1F6FF731A6843F27C
S32D0000F4086063C1F6FF731B681B691046194604F0AFF943F26463C1F6FF731B6818464FF05A014FF000024FF072
S32D0000F430010301F00BF94FF000004FF07E5101F5E00102F085FB43F26463C1F6FF731B68184601F069F94FF087
S32D0000F45800004FF07E5101F5E00102F075FB43F26463C1F6FF731B6818466FF06301DFF8A02501F091FA4FF01F
S32D0000F48000004FF07E5101F5E00102F061FB43F26463C1F6FF731B6818464FF000014FF001024FF0000301F070
S32D0000F4A8D1F84FF000004FF07E5101F5E00102F04BFB43F26463C1F6FF731B68184600F0EBFE4FF001037B6014
S32D0000F4D04FF001033B600FE043F26463C1F6FF731B68184600F0DCFE7B6803F101037B603B6803F101033B6085
S32D0000F4F843F26063C1F6FF731B681A693B689A42D4BF00230123DBB2002BE1D14FF000004FF07E5101F5E001D8
S32D0000F52002F016FB43F26463C1F6FF731B6818466FF06301DFF8E42401F032FA4FF000004FF07E5101F5E001D1
S32D0000F54802F002FB43F26463C1F6FF731B6818464FF05A014FF001024FF0000301F072F84FF000004FF07E51DA
S32D0000F57001F5E00102F0ECFA43F26463C1F6FF731B68184601F0D0F84FF000004FF07E5101F5E00102F0DCFA13
S32D0000F59843F26463C1F6FF731B6818464FF078014FF000024FF0010301F04CF84FF000004FF07E5101F5E001AA
S32D0000F5C002F0C6FA43F26463C1F6FF731B6818464FF05A014FF001024FF0000301F036F84FF000004FF07E51DB
S32D0000F5E801F5E00102F0B0FA43F26463C1F6FF731B68184601F094F84FF000004FF07E5101F5E00102F0A0FA4F
S32D0000F61043F26063C1F6FF731B68184600F09AFC43F26463C1F6FF731B6818466FF06301FB4A01F0B5F94FF058
S32D0000F63800004FF07E5101F5E00102F085FA43F26463C1F6FF731B6818464FF000014FF001024FF0000300F094
S32D0000F660F5FF4FF000004FF07E5101F5E00102F06FFA43F26463C1F6FF731B6818464FF06401E74A01F08CF9B8
S32D0000F6884FF000004FF07E5101F5E00102F05CFA43F25063C1F6FF731B681846DF4903F087FA43F26463C1F6A7
S32D0000F6B0FF731B68184601F0F7F94FF000004FF07E5101F5E00102F043FA43F25063C1F6FF731B681846CE499C
S32D0000F6D803F06EFA43F26463C1F6FF731B6818466FF06301CE4A01F057F943F25063C1F6FF731B681846CB4981
S32D0000F70003F05AFA4FF000004FF07E5101F5E00102F01EFA43F25063C1F6FF731B681846C04903F049FA43F200
S32D0000F7286463C1F6FF731B6818464FF000014FF03202BD4B00F096FD43F26463C1F6FF731B68184601F0ACF908
S32D0000F75043F25063C1F6FF731B681846AC4903F02BFA4FF000004FF07E5101F5E00102F0EFF943F26463C1F6DB
S32D0000F778FF731B6818464FF06401A54A01F00CF94FF000004FF07E5101F5E00102F0DCF943F26463C1F6FF7377
S32D0000F7A01B6818464FF05A014FF000024FF0000300F04CFF43F25063C1F6FF731B6818469A4903F0F9F94FF009
S32D0000F7C800004FF07E5101F5E00102F0BDF943F26463C1F6FF731B6818464FF046014FF00002924B00F03EFDB1
S32D0000F7F043F25063C1F6FF731B681846844903F0DBF981A1D1E9000102F0A2F943F26463C1F6FF731B681846F5
S32D0000F8186FF06301864A01F0BFF84FF000004FF07E5101F5F00102F08FF943F26463C1F6FF731B6818464FF094
S32D0000F84064014FF00002744B00F010FD4FF000004FF07E5101F5E00102F07AF943F26463C1F6FF731B681846A9
S32D0000F8686FF06301724A01F097F843F26463C1F6FF731B6818464FF000014FF001024FF0000300F0DFFE4FF09D
S32D0000F89000004FF07E5101F5E00102F059F943F26463C1F6FF731B6818464FF05A014FF000024FF0010300F00D
S32D0000F8B8C9FE4FF000004FF07E5101F5E00102F043F943F26463C1F6FF731B68184600F0A3FF43F26463C1F6BE
S32D0000F8E0FF731B6818464FF064014F4A01F058F84FF000004FF07E5101F5E00102F028F943F26463C1F6FF73CD
S32D0000F9081B6818464FF000014FF001024FF0000300F098FE4FF000004FF07E5101F5E00102F012F943F2646389
S32D0000F930C1F6FF731B68184600F072FF43F26463C1F6FF731B6818464FF064013B4A01F027F84FF000004FF081
S32D0000F9587E5101F5E00102F0F7F843F26463C1F6FF731B6818464FF05A014FF000024FF0010300F067FE4FF042
S32D0000F98000004FF07E5101F5E00102F0E1F843F26463C1F6FF731B68184600F041FF43F25063C1F6FF731B68DF
S32D0000F9A81846204903F004F943F26463C1F6FF731B6818464FF064014FF000021E4B00F051FC4FF000004FF06B
S32D0000F9D07E5101F5E00102F0BBF843F26463C1F6FF731B68184600F01BFF43F25063C1F6FF731B68184606496D
S32D0000F9F803F0DEF807F10C07BD4690BDAFF30080333333333333D33F000034420000F0410000003F00006041D0
S32D0000FA20000040400000F0420000C04000002C439A99993E0000803F00000040000010410000C03FAFF300801C
S32D0000FA4880B500AF43F26463C1F6FF731B68184623494FF0000201F05BF84FF000004FF0804101F5A01102F0DD
S32D0000FA706FF843F26463C1F6FF731B6818461B494FF0000201F048F84FF000004FF07E5101F5E00102F05CF8BB
S32D0000FA9843F26463C1F6FF731B68184610494FF0010201F035F84FF000004FF0804101F5A01102F049F843F233
S32D0000FAC06463C1F6FF731B68184608494FF0010201F022F84FF000004FF07E5101F5E00102F036F880BD00BF69
S32D0000FAE80000B4420000B4C280B582B000AF786039607B68012B0AD13A684FF6FF739A4205D143F26C60C1F650
S32D0000FB10FF7005F083FB07F10807BD4680BD00BF80B500AF4FF001004FF6FF71FFF7E0FF80BD00BF80B586B0CA
S32D0000FB3800AFF860B9607A603B604FF0030007F001FB0246FB689A654FF0030007F0FAFA0246FB685A65FB6831
S32D0000FB604FF001021A61FB68294ADA604FF000037B6111E0FB689A6D7B69D3184FF000021A70FB685A6D7B6989
S32D0000FB88D3184FF000021A707B6903F101037B617B69022BCCBF00230123DBB2002BE5D1FB687A68DA62FB68AC
S32D0000FBB03A6A5A62FB683A689A62FB687A6A1A63FB68BA6A5A63FB68FA6A9A63FB683A6BDA63FB687A6B1A64EF
S32D0000FBD8FB68BA6B5A64FB68FA6B9A64FB683A6CDA64FB687A6C1A65FB68BA68DA65FB68DB6D1846054900F0D9
S32D0000FC0075FAFB68184607F11807BD4680BD00BF00000000CDCCCC3D90B585B000AF78604FF00003FB600DE063
S32D0000FC287B685A6DFB68D3187A68916DFA688A1812781A70FB6803F10103FB60FB68022BCCBF00230123DBB219
S32D0000FC50002BE9D17B689C6D7B68DB6A184602F00BFE034623707B689B6D03F101047B68DB6A184602F012FEEC
S32D0000FC78034623707B689B6D03F102047B68DB6A184602F01BFE0346237007F11407BD4690BD00BF80B483B0A7
S32D0000FCA000AF78600B46FB707B689A6DFB78D3181B78002B0CD07B685A6DFB78D3181B7883F00103DBB2002B47
S32D0000FCC802D04FF0010301E04FF00003184607F10C07BD4680BC704780B582B000AF78607B681B6B184602F0D0
S32D0000FCF02FFD7B685B6B184602F02AFD07F10807BD4680BD0000000090B583B000AF78607B681B6B184602F09B
S32D0000FD180FFD04467B685B6B184602F009FD0346E3181846FCF7C2FC02460B46104619464FF000024FF0804384
S32D0000FD40FCF748FE02460B461046194608A3D3E90023FCF73FFE02460B4610461946FCF7F1FF0346184607F184
S32D0000FD680C07BD4690BD00BF000000E02E3C164090B585B000AF78607B681B6D184602F04FF90346FB60FB68A0
S32D0000FD90BB607B681B6D184602F046F90346FB607B68DB6D184600F0AFF90346002B13D07B689B6A184603F0DB
S32D0000FDB829FC7B689B6A184648F21C51C0F2010103F0A8FC7B689B6A1846F96803F0B4FDF868B968FDF706F802
S32D0000FDE003464FF00102144618461449FDF7A6FA0346002B02D14FF000031C46E3B2002B05D07B689B6A1846FB
S32D0000FE0803F000FC12E07B68DB6A184602F056FD0346002B06D07B689B6A184603F0F2FB00BF03E0044801F0D1
S32D0000FE3069FEAEE707F11407BD4690BD0000C0BE0AD7233C80B582B000AF78607B681B6D184602F0E9F80246B5
S32D0000FE587B681A6007F10807BD4680BD90B583B000AF78607B681B6D184602F0D9F802467B685A607B681B6802
S32D0000FE8018463349FCF7B2FF03461A467B685B684FF001010C4610461946FDF76DFA0346002B02D14FF000035B
S32D0000FEA81C46E3B2002B25D07B684FF0010283F820207B689B6A18464FF0020103F078FB7B689B6A184648F2C7
S32D0000FED02851C0F2010103F00BFD7B689A6A7B681B681046194603F02BFD7B689A6A7B685B681046194603F08A
S32D0000FEF823FD24E07B684FF0000283F820207B689B6A18464FF0040103F052FB7B689B6A184648F23851C0F254
S32D0000FF20010103F0E5FC7B689A6A7B681B681046194603F005FD7B689A6A7B685B681046194603F0FDFC07F1C0
S32D0000FF480C07BD4690BD00BF0000803F80B582B000AF78607B68DB6C184602F061F802467B689A6007F10807BD
S32D0000FF70BD4680BDB0B582B000AF78607B68DB6C184602F051F802467B68DA607B68DD687B689B6818460B491D
S32D0000FF98FCF728FF03464FF00102144628461946FDF7C8F90346002B02D14FF000031C46E3B2184607F10807D5
S32D0000FFC0BD46B0BD9A99993E80B586B000AF78607B685B6A184605F0AFFE03467B617B685B6A184605F0B8FE29
S32D0000FFE803463B617B685B6A184605F0C1FE0346FB6078691349FDF793F90346002B10D038691049FDF78CF924
S32D000100100346002B09D0F8680C49FDF785F90346002B02D04FF000030AE07B687A695A617B683A699A617B68F6
S32D00010038FA68DA614FF00103184607F11807BD4680BD00BF0000000080B582B000AF7860396001F0A5FD0246E3
S32D000100600B4610461946FCF76DFE02467B681A607B683A685A607B68184607F10807BD4680BD00BFB0B582B04B
S32D0001008800AF786001F08CFD04460D467B681B681846FCF71DFB02460B4620462946FCF7B7F902460B461046DC
S32D000100B01946FCF747FE0346184607F10807BD46B0BD00BF80B582B000AF786001F06CFD02460B461046194617
S32D000100D8FCF734FE02467B681A6007F10807BD4680BD00BF80B483B000AF786039607B683A685A6007F10C0758
S32D00010100BD4680BC704700BF90B585B000AF78607868FFF7B7FF02467B685B684FF001010C4610461946FDF764
S32D0001012827F90346002B02D14FF000031C46FC73FB7B002B02D07868FFF7C0FFFB7B184607F11407BD4690BDEF
S32D0001015090B585B000AFF860B9607A603B60FB68BA685A60FB687A689A60FB683A68DA60FB68094A1A604FF045
S32D00010178080006F0B3FF044620460649FFF764FFFB681C61FB68184607F11407BD4690BD00007042000000009A
S32D000101A090B587B000AFF860B9607A60BA687B68D3187B61BA687B68D31A3B617B69642B02DD4FF064037B618C
S32D000101C87B6913F1640F02DA6FF063037B613B69642B02DD4FF064033B613B6913F1640F02DA6FF063033B6184
S32D000101F0FB685C687B69C3F100031846FCF7ACFE03462046194601F04FF9FB689C683869FCF7A2FE0346204692
S32D00010218194601F045F907F11C07BD4690BD00BF90B585B000AFF860B9607A60FB685C68BB68C3F1000318462C
S32D00010240FCF78AFE03462046194601F02DF9FB689C687868FCF780FE03462046194601F023F907F11407BD4606
S32D0001026890BD00BF80B584B000AFF860B9607A603B60F868B9687A68FFF78EFF386801F03DFCF8684FF000010D
S32D000102904FF00002FFF784FF07F11007BD4680BD80B582B000AF786078684FF032014FF00002FFF775FF02E069
S32D000102B8134801F023FC7B68DB68DB6B184601F0F9FD0346002BF3D178684FF000014FF00002FFF761FF08A163
S32D000102E0D1E9000101F034FC78686FF063014FF00002064BFFF7BAFF07F10807BD4680BD333333333333D33FA4
S32D000103080AD7233C9A99193E90B58DB000AFF860B9601346FB71FB68DB681846FFF750FE034683F00103DBB200
S32D00010330002B2AD0F8684FF000014FF00002FFF72FFFFB68DB689B6A18464FF0030103F033F9FB68DB689B6A5E
S32D00010358184648F24851C0F2010103F0C5FAFB68DB689B6A1846B96803F0D2FAB868FCF7EFFD0246FB79F868DB
S32D0001038011461A4600F0C8FB55E1FB681B691846FFF798FEFB681B691846A949FFF7A6FEFB68DB68DB691846C4
S32D000103A8FCF7F0FF0346FB61FB69BB61BA69BB68D3187B617B69FB62BB68BB624FF0000387F827304FF0000337
S32D000103D087F82630BB68002BD4BF00230123FB74BB684FEAD373BB747B69B32B07DDFB6AA3F1B403FB624FF0CF
S32D000103F8010387F826307B69002B07DAFB6A03F1B403FB624FF0010387F82730FB681B691846FFF775FE034690
S32D00010420002B07D0F8684FF000014FF00002FFF7B7FE00E1FB68DB681846FFF7C5FD034683F00103DBB2002B0A
S32D000104482AD0F8684FF000014FF00002FFF7A4FEFB68DB689B6A18464FF0030103F0A8F8FB68DB689B6A18462A
S32D0001047048F25051C0F2010103F03AFAFB68DB689B6A1846B96A03F047FAB86AFCF764FD0246FB79F86811465E
S32D000104981A4600F03DFBCAE0FB68DB68DB691846FCF770FF0346FB61FB693B6297F82630002B06D0FB69592BE5
S32D000104C003DC3B6A03F1B4033B6297F82730002B06D0FB695A2B03DD3B6AA3F1B4033B623A6A7B69D31ABB6272
S32D000104E8FB7C002B3AD0FB79002B19D1FB681C68B86AFCF72DFD034618465049FCF77CFD034620461946FCF7DD
S32D000105106DFC03461846FCF739FF0346F8684FF000011A46FFF780FEFB79012B1AD1B86AFCF712FD034618466E
S32D000105384249FCF761FD03461A46FB681B6810461946FCF74FFC03461846FCF71BFF0346F86819464FF0000239
S32D00010560FFF762FEBB7C002B3BD0FB79002B1BD1FB681B6883F00044B86AFCF7EDFC034618463049FCF73CFD37
S32D00010588034620461946FCF72DFC03461846FCF7F9FE0346F8684FF000011A46FFF740FEFB79012B19D1FB681F
S32D000105B01C68B86AFCF7D0FC034618462149FCF71FFD034620461946FCF712FC03461846FCF7DCFE0346F8686B
S32D000105D819464FF00002FFF723FEBB6A052B0ADDFB7C002B1FD0F8684FF000014FF00002FFF716FE1BE0BB6A65
S32D0001060013F1050F0ADABB7C002B10D0F8684FF000014FF00002FFF707FE0CE0F8684FF000014FF00002FFF7EE
S32D00010628FFFD00BF03E0064801F068FAEEE607F13407BD4690BD00BF0000A040398EE33E0AD7233C80B586B0DB
S32D0001065000AFF860B960FA71BB71FB68DB685B6A184605F089FB03461846FCF78FFE03463B614FF000037B6158
S32D00010678FB79002B12D1BA683B699A4204DDBA683B69D31A7B6109E0BA683B699A4205DABB6803F1B4023B69E4
S32D000106A0D31A7B61FB79012B12D1BA683B699A4206DDBB68A3F1B4023B69D31A7B6107E0BA683B699A4203DA1A
S32D000106C8BA683B69D31A7B617B695A2B0ADC7B6913F15A0F06DBBB79F86879691A46FFF713FE19E07B694FEA00
S32D000106F0D372D3184FEA63031A46BB79F86811461A46FFF705FE7B694FEAD372D3184FEA63031A46BB79F86888
S32D0001071811461A46FFF7F8FD07F11807BD4680BD90B583B000AF786000E000BF7B68DB689B6B184601F0BEFBE7
S32D000107400346002B02D04FF0640401E04FF000047B68DB68DB6B184601F0B0FB0346002B02D04FF0640301E046
S32D000107684FF00003786821461A46FFF759FD294801F0C4F97B68DB689B6B184601F09AFB034683F00103DBB2B1
S32D00010790002B0ED07B68DB68DB6B184601F08EFB034683F00103DBB2002B02D04FF0010301E04FF00003002B12
S32D000107B8BBD000BF78684FF000014FF00002FFF7EBFC4FF000004FF07E5101F5C00101F0BBF97B68DB689B6BB5
S32D000107E0184601F06BFB0346002B08D17B68DB68DB6B184601F062FB0346002B02D04FF0010301E04FF0000324
S32D00010808002B02D07868FFF78BFF07F10C07BD4690BD00BF0AD7233C90B583B000AF78607B68DB681B6C184600
S32D0001083001F044FB0346002B02D06FF0630401E04FF000047B68DB685B6C184601F036FB0346002B02D06FF027
S32D00010858630301E04FF00003786821461A46FFF7DFFC7B68DB681B6C184601F023FB034683F00103DBB2002BDE
S32D000108800ED07B68DB685B6C184601F017FB034683F00103DBB2002B02D04FF0010301E04FF00003002B48D129
S32D000108A87B68DB68DB6D1846FFF72AFC0346002B3BD07B68DB689B6A184602F0A3FE7B68DB689B6A184648F2DB
S32D000108D05C51C0F2010102F021FF7B68DB689C6A7B68DB681B6C184601F0E8FA034683F00103DBB2204619466A
S32D000108F802F0C6FF7B68DB689B6A184648F26451C0F2010102F006FF7B68DB689C6A7B68DB685B6C184601F08F
S32D00010920CDFA034683F00103DBB22046194602F0ABFF1A4801F0E6F876E700BF78684FF000014FF00002FFF78F
S32D000109482BFC4FF000004FF07E5101F5C00101F0FBF87B68DB681B6C184601F0ABFA0346002B08D17B68DB685D
S32D000109705B6C184601F0A2FA0346002B02D04FF0010301E04FF00003002B02D07868FFF747FF07F10C07BD46D3
S32D0001099890BD00BF0AD7233C90B589B000AFF860B9607A604FF00103FB61BB68002B06DA4FF0FF33FB61BB68AF
S32D000109C0C3F10003BB60B868FCF7C6FA034618463249FCF70BFA034618463149FCF7C4FB0346BB61F868B96890
S32D000109E84FF00002FFF7D8FBFB68DB681B6B184601F0AAFEFB68DB685B6B184601F0A4FE7B687B6100E000BFF8
S32D00010A10FB68DB681846FFF777F9034678681946FCF7E4F903467B61F869FCF795FA0446B8697969FCF7E4FACF
S32D00010A38034618461749FCF7D7F9034620461946FCF7DAFA03461846FCF79CFC0346F86819464FF00002FFF77F
S32D00010A609FFB4FF001031C4678690E49FCF766FC0346002B02D14FF000031C46E3B2002BC5D000BFF8684FF0FD
S32D00010A8800014FF00002FFF787FB07F12407BD4690BD00BF000070420000C0400000000080B582B000AF7860B3
S32D00010AB07B68DB681846FFF75DFA0346002B07D078684FF041014FF01E02FFF7ADFB06E078684FF01E014FF03A
S32D00010AD83702FFF7A5FB7B68DB689B6C184601F0E9F9034683F00103DBB2002B0AD078684FF000014FF000020F
S32D00010B00FFF74EFB07F10807BD4680BD014800F0F9FFCDE70AD7233CF0B589B000AFF860B9601346FB71B44B59
S32D00010B28FB61B44BBB61FB68DB681846FFF7D4F8FB79002B40F02C814FF001031C46B868AD49FCF7F7FB0346FC
S32D00010B50002B02D14FF000031C46E3B2002B00F09B80BB6883F00043BB60FB68DB689B6A184648F26C51C0F263
S32D00010B78010102F0CFFDFB68DB689C6AF869B968FCF73AFA03462046194602F0D5FE4FE0FB68DB685B6B18466D
S32D00010BA001F0CAFD03461846FBF784FD04460D46F869B968FCF724FA03461846FBF78CFD02460B4610461946B4
S32D00010BC889A3D3E90023FBF7D7FD02460B4620462946FBF7FBFE02460B46104619464FF000024FF0804303F54B
S32D00010BF08803FBF7C5FD02460B46104619464FF000024FF0804303F5B203FBF705FC02460B4610461946FCF725
S32D00010C1895F803467B617B6983F000431846FCF7B1FB0346F8684FF000011A46FFF7F8FAFB68DB685B6B184669
S32D00010C4001F07AFD03461846FBF734FD04460D46F869B968FCF7D4F903461846FBF73CFD02460B461046194654
S32D00010C6861A3D3E90023FBF787FD02460B464FF001010E4620462946FBF7F0FF0346002B02D14FF000031E4633
S32D00010C90F3B2002B80D1B8E1FB68DB689B6A184648F27851C0F2010102F038FDFB68DB689C6AF869B968FCF773
S32D00010CB8A3F903462046194602F03EFE47E0FB68DB689B6A184602F09DFCFB68DB689B6A184648F28451C0F2B0
S32D00010CE0010102F005FEFB68DB689C6AFB68DB685B6B184601F020FD03462046194602F00BFEFB68DB685B6BF5
S32D00010D08184601F015FD03461846FCF721F90446F869B968FCF770F9034620461946FCF71FFA03461846354940
S32D00010D30FCF766F9034618463349FCF757F803467B617869FCF722FB0346F8684FF000011A46FFF769FAFB68C2
S32D00010D58DB685B6B184601F0EBFC03461846FCF7F7F80546F869B968FCF746F903464FF00102144628461946F3
S32D00010D80FCF7DCFA0346002B02D14FF000031C46E3B2002B97D138E14FF001031C46B8681749FCF7CBFA034629
S32D00010DA8002B02D14FF000031C46E3B2002B00F0A680BB6883F00043BB60FB68DB689B6A184648F26C51C0F2FE
S32D00010DD0010102F0A3FCFB68DB689C6AF869B968FCF70EF903462046194602F0A9FD5AE0CDCCCCCCCCCCEC3F65
S32D00010DF8721C473FCDCCCC3D00000000000020420000C842FB68DB681B6B184601F090FC03461846FBF74AFCC4
S32D00010E2004460D46F869B968FCF7EAF803461846FBF752FC02460B46104619467CA3D3E90023FBF79DFC0246A9
S32D00010E480B4620462946FBF7C1FD02460B46104619464FF000024FF0804303F58803FBF78BFC02460B46104629
S32D00010E7019464FF000024FF0804303F5B203FBF7CBFA02460B4610461946FBF75BFF03467B617869FCF77AFA46
S32D00010E980346F86819464FF00002FFF7C1F9FB68DB681B6B184601F043FC03461846FBF7FDFB04460D46F869E9
S32D00010EC0B968FCF79DF803461846FBF705FC02460B461046194656A3D3E90023FBF750FC02460B464FF0010182
S32D00010EE80E4620462946FBF7B9FE0346002B02D14FF000031E46F3B2002B83D181E0FB68DB689B6A184648F254
S32D00010F107851C0F2010102F001FCFB68DB689C6AF869B968FCF76CF803462046194602F007FD4AE0FB68DB68ED
S32D00010F389B6A184602F066FBFB68DB689B6A184648F28451C0F2010102F0CEFCFB68DB689C6AFB68DB681B6B74
S32D00010F60184601F0E9FB03462046194602F0D4FCFB68DB681B6B184601F0DEFB03461846FBF7EAFF0446F869DE
S32D00010F88B968FCF739F8034620461946FCF7E8F8034618462649FCF72FF8034618462549FBF720FF03467B6199
S32D00010FB07B6983F000431846FCF7E8F90346F86819464FF00002FFF72FF9FB68DB681B6B184601F0B1FB03466F
S32D00010FD81846FBF7BDFF0546F869B968FCF70CF803464FF00102144628461946FCF7A2F90346002B02D14FF054
S32D0001100000031C46E3B2002B94D1FB68DB689B6A18464FF0000102F0CFFAF8684FF000014FF00002FFF7BCF8A8
S32D0001102807F12407BD46F0BDCDCCCCCCCCCCEC3F000020420000C84280B500AF43F6A072C1F6FF7243F228634F
S32D00011050C1F6FF73D31A194643F22863C1F6FF731A460B4610464FF000011A4604F0B1FF80BD00BF06F01AF8C4
S32D0001107800F0B0F9FFF7E0FF05F0ECFF05F088FF06F020F800F00CF84FF0000043F28C61C1F6FF71FDF7F6F912
S32D000110A00346184604F070FF80B500AF4FF4E043C4F204034FF4E042C4F2040202F5805202F13802126842F449
S32D000110C8785203F5805303F138031A6000F02EF900F094F843F29863C1F6FF734FF058021A6043F29863C1F6D5
S32D000110F0FF731B684FF47A7202FB03F243F29463C1F6FF731A6043F29463C1F6FF731B681A464FF4E043C4F298
S32D00011118040303F5825303F104031B6803F070634FEA136303F10103B2FBF3F31A4643F29C63C1F6FF731A601F
S32D000111404FF4E043C4F204034FF4E042C4F2040202F5805202F13C02126842F0225203F5805303F13C031A60AA
S32D000111684FF4E043C4F204034FF4E042C4F2040202F5805202F13002126842F0006203F5805303F130031A60AC
S32D000111904FF45043C4F203034FF480721A614FF0640000F029FB4FF45043C4F203034FF45042C4F2030252695A
S32D000111B822F010025A614FF45043C4F203034FF000021A604FF45043C4F203034FF010025A6101F077F801F0ED
S32D000111E01FF943F29060C1F6FF7000F089FB43F2CC60C1F6FF7002F0C7F841F2883000F067FC80BD80B400AF73
S32D000112084FF48043C4F206034FF000025A704FF48043C4F206034FF098021A704FF48043C4F206039B79DBB259
S32D0001123003F01003002B0CBF00230123DBB2002BF0D14FF48043C4F206039B79DBB203F00C034FEA9303022B6F
S32D000112580CBF00230123DBB2002BEED14FF48043C4F206034FF018021A714FF48043C4F206034FF000025A7164
S32D000112804FF4E043C4F2040303F5825303F104034FF00002C0F213121A604FF48043C4F206034FF054025A719D
S32D000112A800BF4FF48043C4F206039B79DBB203F02003002B14BF00230123DBB2002BF0D100BF4FF48043C4F2A3
S32D000112D006039B79DBB203F04003002B14BF00230123DBB2002BF0D14FF48043C4F206034FF48042C4F20602C9
S32D000112F81278D2B202F03F02D2B21A704FF48043C4F206039B79DBB203F00C034FEA9303032B0CBF0023012301
S32D00011320DBB2002BEED14FF000031846BD4680BC704700BF80B400AF4FF44043C4F204034FF480725A634FF239
S32D00011348C003C4F20F034FF2C002C4F20F02526942F400525A614FF2C003C4F20F034FF2C002C4F20F02126813
S32D0001137042F400521A604FF44043C4F2040340F20312C0F20A021A634FF46143CEF200034FF46142CEF20002F5
S32D00011398D2F8882142F08062C3F888214FF46143CEF200034FF46142CEF20002926842F080629A60BD4680BCA2
S32D000113C0704700BF80B483B000AF7860FEE700BF80B400AF00BEBD4680BC704780B400AF4FF0E0224CF20003FA
S32D000113E8C0F20003C2F8083D4FF40053C4F205034CF22052DA814FF40053C4F205034DF62812DA814FF4005301
S32D00011410C4F205034FF0D2021A80BD4680BC704780B400AF4FF44043C4F20403D3F8A03003F48053002B0CBF8B
S32D0001143800230123DBB2002B19D04FF44043C4F204034FF44042C4F20402D2F8A02022F48052C3F8A0204FF26B
S32D00011460C003C4F20F034FF2C002C4F20F02126822F400521A60BD4680BC704780B483B000AF78600B46FB700C
S32D000114887B68FA781A707B684FF000025A707B68184607F10C07BD4680BC70470000000090B585B000AF786025
S32D000114B039604FF001031C4638682F49FBF73EFF0346002B02D14FF000031C46E3B2002B02D0294B3B6011E00B
S32D000114D84FF001031C4638682649FBF749FF0346002B02D14FF000031C46E3B2002B01D0204B3B603868FBF7E3
S32D00011500EBF802460B46104619464FF000024FF0804303F5B203FBF75DFA02460B461046194613A3D3E900236F
S32D00011528FBF72AF902460B4610461946FBF7BEFB0346FB737B685B78FA7B9A420FD07B68FA7B5A707B681A7852
S32D00011550FB7B43F29060C1F6FF7011461A464FF01E0300F017FA07F11407BD4690BD00BF0000000000C05F4012
S32D000115780000C8C20000C84290B486B000AFF860B9607A60FA684FF42043C4F206039A4214D14FF4E043C4F298
S32D000115A004034FF4E042C4F2040202F5805202F13402126842F4806203F5805303F134031A6083E0FA684FF4F8
S32D000115C83043C4F206039A4214D14FF4E043C4F204034FF4E042C4F2040202F5805202F13402126842F40062B9
S32D000115F003F5805303F134031A6067E0FA684FF44043C4F206039A4214D14FF4E043C4F204034FF4E042C4F22F
S32D00011618040202F5805202F13402126842F4805203F5805303F134031A604BE0FA684FF45043C4F206039A42BB
S32D0001164014D14FF4E043C4F204034FF4E042C4F2040202F5805202F13402126842F4005203F5805303F1340368
S32D000116681A602FE0FA684FF42043C4F20E039A4214D14FF4E043C4F204034FF4E042C4F2040202F5805202F13A
S32D000116902802126842F4806203F5805303F128031A6013E04FF4E043C4F204034FF4E042C4F2040202F580520B
S32D000116B802F12802126842F4006203F5805303F128031A60FB68DB78DBB223F00C03DAB2FB68DA70FB684FF030
S32D000116E000029A70BB684FF47A7202FB03F27B684FEA031392FBF3F39CB2FB681B78DBB223F01F03FB75234607
S32D0001170803F4F8534FEA2323DBB203F01F03DAB2FB7D1343DAB2FB681A70E2B2FB685A70BB684FF4FA4202FB1C
S32D0001173003F27B684FEA031392FBF3F39AB2234619464FEAC121CB1A4FEA43139BB2D3189CB2FB689B7ADBB2C2
S32D0001175823F01F03FB75E3B203F01F03DAB2FB7D1343DAB2FB689A72FB68DB78DBB243F00C03DAB2FB68DA7000
S32D0001178007F11807BD4690BC704700BF80B483B000AF786000BF7B681B79DBB203F02003002B14BF0023012352
S32D000117A8DBB2002BF3D17B68DB79DBB2184607F10C07BD4680BC704780B483B000AF78600B46FB7000BF7B6827
S32D000117D01B79DBB2DBB26FEA0303DBB24FEAD313DBB2002BF3D17B68FA78DA7107F10C07BD4680BC704700BF55
S32D000117F880B483B000AF78604FF4E043C4F204034FF4E042C4F2040202F5805202F13802126842F0010203F5F3
S32D00011820805303F138031A604FF00003C4F204037A689A604FF00003C4F204034FF005025A604FF00003C4F24B
S32D0001184804034FF00002C4F20402126842F001021A6000BF4FF00003C4F204031B6803F08003002B14BF00236C
S32D000118700123DBB2002BF1D14FF00003C4F204034FF00002C4F20402126822F001021A6007F10C07BD4680BC5C
S32D00011898704700BF80B582B000AF786039607B68012B0AD13A684FF6FF739A4205D143F29060C1F6FF7000F0F4
S32D000118C00FF807F10807BD4680BD00BF80B500AF4FF001004FF6FF71FFF7E0FF80BD00BF80B483B000AF786054
S32D000118E87B684FF000021A707B68184607F10C07BD4680BC704700BF80B582B000AF78607B681B7883F0010347
S32D00011910DBB2002B36D04FF4E043C4F2040303F5805303F128034FF400621A604FF45043C4F204034FF4407236
S32D000119381A624FF45043C4F204034FF440725A6243F29463C1F6FF731B684FEAD372D3184FEA63034FF430402D
S32D00011960C4F20E0019464FF46142FFF709FE4FF0640000F0ADF87B684FF001021A704FF0010301E04FF0000305
S32D00011988184607F10807BD4680BD00BF80B582B000AF7860F970BA707B704FF43040C4F20E004FF07F01FFF734
S32D000119B007FF4FF43040C4F20E004FF00801FFF7FFFEFB784FF43040C4F20E001946FFF7F7FEBB784FF4304036
S32D000119D8C4F20E001946FFF7EFFE7B784FF43040C4F20E001946FFF7E7FE4FF43040C4F20E004FF0FF01FFF78A
S32D00011A00DFFE07F10807BD4680BD00BF80B487B000AFF860B9607A60FA6844F6D353C1F26203A3FB02134FEAA9
S32D00011A289312BB68D3187B61FA6844F6D353C1F26203A3FB02134FEA93134FF47A7101FB03F3D31AFB60FB68C9
S32D00011A504FEAC33244F6D353C1F26203A3FB02134FEA93127B68D3183B613B694FEAD3337A69D3187B613B6995
S32D00011A784FEA43434FEA53433B614FF45043C4F203031B681A467B699A4211D34FF45043C4F203031B681A4687
S32D00011AA07B699A420BD14FF45043C4F203035B681A463B699A4202D24FF0010301E04FF00003002BDDD107F13B
S32D00011AC81C07BD4680BC704780B584B000AF78604FF45043C4F203031B68FB604FF45043C4F203035B68BB6006
S32D00011AF07B681846F968BA68FFF788FF07F11007BD4680BD80B584B000AF78604FF45043C4F203031B68FB60D7
S32D00011B184FF45043C4F203035B68BB6078680849FBF76AFA03461846FBF752FC03461846F968BA68FFF766FF3B
S32D00011B4007F11007BD4680BD00007A440000000080B584B000AFC7E900014FF45043C4F203031B68FB604FF4ED
S32D00011B685043C4F203035B68BB60D7E900010AA3D3E90023FAF700FE02460B4610461946FBF7BCF8034618464A
S32D00011B90F968BA68FFF73AFF07F11007BD4680BD0000000000408F4080B584B000AF4FF45043C4F203031B68E9
S32D00011BB8FB604FF45043C4F203035B68BB60F868FAF764FD02460B46C7E90023B868FAF75DFD02460B461046BB
S32D00011BE019464FF000024FF0804303F56003FAF7F1FE02460B46D7E90001FAF70FFC02460B46C7E90023D7E977
S32D00011C0800231046194607F11007BD4680BD00BF80B483B000AF4FF45043C4F203031B684FF47A7202FB03F37A
S32D00011C307B604FF45043C4F203035B684FF47A7202FB03F34FEAD3337A68D3187B607B68184607F10C07BD46FD
S32D00011C5880BC704780B582B000AF78600B46FB70FB787868194600F013F87B68184607F10807BD4680BD00BFCC
S32D00011C8080B483B000AF78607B68184607F10C07BD4680BC704700BF80B483B000AF78600B46FB707B68FA7847
S32D00011CA81A707B681B781A4648F22C73C0F201039B5C042B00F2F98001A252F823F000BFDD1C01003B1D01007B
S32D00011CD0991D0100F71D0100551E01004FF41043C4F204037A681278114648F27072C0F2010252F8212040F201
S32D00011CF8031143F822104FF47043C4F20F034FF47042C4F20F02526911467A681278104648F27072C0F201021D
S32D00011D2052F8202002F01F024FF0010000FA02F26FEA02020A405A61BBE04FF42043C4F204037A6812781146A6
S32D00011D4848F27072C0F2010252F8212040F2031143F822104FF24003C4F20F034FF24002C4F20F0252691146B5
S32D00011D707A681278104648F27072C0F2010252F8202002F01F024FF0010000FA02F26FEA02020A405A618CE018
S32D00011D984FF43043C4F204037A681278114648F27072C0F2010252F8212040F2031143F822104FF28003C4F25D
S32D00011DC00F034FF28002C4F20F02526911467A681278104648F27072C0F2010252F8202002F01F024FF00100D6
S32D00011DE800FA02F26FEA02020A405A615DE04FF44043C4F204037A681278114648F27072C0F2010252F821209D
S32D00011E1040F2031143F822104FF2C003C4F20F034FF2C002C4F20F02526911467A681278104648F27072C0F2B8
S32D00011E38010252F8202002F01F024FF0010000FA02F26FEA02020A405A612EE04FF45043C4F204037A6812783E
S32D00011E60114648F27072C0F2010252F8212040F2031143F822104FF47143C4F20F034FF47142C4F20F025269B6
S32D00011E8811467A681278104648F27072C0F2010252F8202002F01F024FF0010000FA02F26FEA02020A405A6114
S32D00011EB000BF07F10C07BD4680BC704780B485B000AF78604FF00003FB607B681B781A4648F22C73C0F2010351
S32D00011ED89B5C042B00F2868001A252F823F000BFFD1E01002D1F01005D1F01008D1F0100BD1F01004FF4704398
S32D00011F00C4F20F031B691A467B681B78194648F27073C0F2010353F8213003F01F034FF0010101FA03F3134028
S32D00011F28FB605FE04FF24003C4F20F031B691A467B681B78194648F27073C0F2010353F8213003F01F034FF028
S32D00011F50010101FA03F31340FB6047E04FF28003C4F20F031B691A467B681B78194648F27073C0F2010353F837
S32D00011F78213003F01F034FF0010101FA03F31340FB602FE04FF2C003C4F20F031B691A467B681B78194648F226
S32D00011FA07073C0F2010353F8213003F01F034FF0010101FA03F31340FB6017E04FF47143C4F20F031B691A464E
S32D00011FC87B681B78194648F27073C0F2010353F8213003F01F034FF0010101FA03F31340FB6000BFFB68002B64
S32D00011FF00CBF00230123DBB2184607F11407BD4680BC704780B483B000AF78600B46FB707B68FA781A707B6850
S32D00012018184607F10C07BD4680BC70470000000080B586B000AF78607B681B781A4648F2F073C0F2010353F8D4
S32D0001204022303B617B681B781A4648F24C73C0F201039B5CFB733B69DBB203F01F03DAB243F2A063C1F6FF7366
S32D000120681A723B69DBB203F01F03DAB243F2A063C1F6FF735A724FF46143CEF200034FF46142CEF20002D2F8A2
S32D00012090882042F01002C3F88820FB7B002B1ED14FF43040C4F2030043F2A061C1F6FF7100F0C2FC4FF4304315
S32D000120B8C4F203031B6803F08003002B14BF00230123DBB2002BF1D14FF43043C4F203031B697B611DE04FF473
S32D000120E03040C4F20B0043F2A061C1F6FF7100F0A3FC4FF43043C4F20B031B6803F08003002B14BF00230123FC
S32D00012108DBB2002BF1D14FF43043C4F20B031B697B614FF46143CEF200034FF46142CEF20002D2F8882142F05D
S32D000121301002C3F888214FF46143CEF200034FF46142CEF20002926842F010029A604FF46143CEF200034FF493
S32D000121586142CEF20002D2F8882142F08062C3F888214FF46143CEF200034FF46142CEF20002926842F08062A8
S32D000121809A607B694FEA03434FEA13431846FAF781FA02460B46104619460FA3D3E90023FAF7EEFA02460B4629
S32D000121A8104619460CA3D3E90023FAF70FFC02460B4610461946FAF7C1FD0346BB60BB68184607F11807BD46CD
S32D000121D080BD00BFAFF30080A4703D0AD7A30A4000000000E0FFEF4080B586B000AF78607B681B781A4648F293
S32D000121F8F073C0F2010353F822303B617B681B781A4648F24C73C0F201039B5CFB733B69DBB203F01F03DAB2AA
S32D0001222043F2B063C1F6FF731A723B69DBB203F01F03DAB243F2B063C1F6FF735A72FB7B002B1ED14FF4304040
S32D00012248C4F2030043F2B061C1F6FF7100F0F0FB4FF43043C4F203031B6803F08003002B14BF00230123DBB229
S32D00012270002BF1D14FF43043C4F203031B697B611DE04FF43040C4F20B0043F2B061C1F6FF7100F0D1FB4FF4A3
S32D000122983043C4F20B031B6803F08003002B14BF00230123DBB2002BF1D14FF43043C4F20B031B697B617B696A
S32D000122C0184607F11807BD4680BD00BF98B500AF43F2A063C1F6FF734FF05C021A7043F2A063C1F6FF734FF057
S32D000122E810025A7043F2A063C1F6FF7341F234225A8043F2A063C1F6FF7345F278629A8043F2A063C1F6FF733A
S32D000123104FF010029A7143F2A063C1F6FF734FF00702DA7143F2A063C1F6FF734FF4C022DA6043F2A063C1F69F
S32D00012338FF734FF01F021A7243F2A063C1F6FF734FF01F025A724FF43040C4F2030043F2A061C1F6FF7100F0D2
S32D000123606BFB4FF43040C4F20B0043F2A061C1F6FF7100F061FB4FF43040C4F20B0000F0B5FA4FF43040C4F24F
S32D00012388030000F0AFFA4FF43040C4F20B0043F2A061C1F6FF7100F04BFB4FF43040C4F2030043F2A061C1F62A
S32D000123B0FF7100F041FB43F2B062C1F6FF7243F2A063C1F6FF7314460FCB84E80F0043F2B063C1F6FF734FF033
S32D000123D85C021A7043F2B063C1F6FF734FF00402DA7198BD80B500AF43F2C463C1F6FF731B6803F1010243F280
S32D00012400C463C1F6FF731A6000F016F94FF4E043C4F203034FF00102C3F80C2180BD00BF80B500AF4FF4E04352
S32D00012428C4F203034FF001021A6048F2A060C0F2010000F023F84FF4E043C4F203034FF00302C3F808214FF488
S32D000124506143CEF200034FF46142CEF20002D2F8882142F01002C3F888214FF46143CEF200034FF46142CEF2E3
S32D000124780002926842F010029A6080BD80B483B000AF78604FF4E043C4F203037A68C3F8002107F10C07BD46E2
S32D000124A080BC704780B584B000AF78600B46FB707A68FB7810461946FFF7A4FD43F2C063C1F6FF731B68002B9E
S32D000124C832D17B684FF000021A617B684FF000025A614FF0140004F001FE02467B689A617B689B697A689A6035
S32D000124F07B689B694FF001025A607B689B69FA781A707B689B694FF00002DA607B689B694FF000021A617B680F
S32D000125189B694FF000025A707B689A6943F2C063C1F6FF731A6071E043F2C063C1F6FF731B68FB6002E0FB68AF
S32D00012540DB68FB60FB681B78FA789A4206D0FB68DB68002B02D04FF0010301E04FF00003002BECD1FB681B78CD
S32D00012568FA789A4224D17B68FA689A617B689B699B68BB6002E0BB681B69BB60BB681B69002B0CBF0023012334
S32D00012590DBB2002BF3D1BB687A681A617B68BA685A617B684FF000021A617B689B695A6802F101025A602DE05B
S32D000125B87B684FF000021A617B684FF000025A614FF0140004F08AFD02467B689A617B689B697A689A607B68DC
S32D000125E09B694FF001025A607B689B69FA781A707B689B694FF00002DA607B689B694FF000025A707B689B69AE
S32D00012608FA681A617B689A69FB68DA60786800F09BF87B684FF48C429A607B684FF45242DA607B68184607F1C5
S32D000126301007BD4680BD00BF80B584B000AF43F2C063C1F6FF731B68FB6029E0FB685B78FB71FB689B6818467F
S32D0001265800F02EF80346BB71BB79002B19D0FB685B68012B15DDFB689B681B69BB6008E0BB685B6803F1010272
S32D00012680BB685A60BB681B69BB60BB68002B0CBF00230123DBB2002BEED1FB68DB68FB60FB68002B0CBF002338
S32D000126A80123DBB2002BCDD107F11007BD4680BD80B584B000AF78607868FFF791FD0346FB607B689B695B7888
S32D000126D0FB72FB7A002B12D17B68DA68FB689A420DDA7B689B694FF001025A707B685B6803F101027B685A6073
S32D000126F84FF0010317E0FB7A012B12D17B689A68FB689A420DDD7B689B694FF000025A707B685B6803F1010258
S32D000127207B685A604FF0010301E04FF00003184607F11007BD4680BD80B483B000AF78607B685B68184607F1F0
S32D000127480C07BD4680BC704780B483B000AF78607B684FF000025A6007F10C07BD4680BC704700BF80B582B066
S32D0001277000AF78600B46FB707B681846FFF780FA7B6803F101031846FFF77AFA7B6803F102031846FFF774FA05
S32D00012798FB78032B66D801A252F823F0B5270100E3270100112801003F2801007B6818464FF00001FFF76CFACC
S32D000127C07B6803F1010318464FF00101FFF764FA7B6803F1020318464FF00201FFF75CFA44E07B6818464FF0B0
S32D000127E80801FFF755FA7B6803F1010318464FF00901FFF74DFA7B6803F1020318464FF00A01FFF745FA2DE0EF
S32D000128107B6818464FF01001FFF73EFA7B6803F1010318464FF01101FFF736FA7B6803F1020318464FF012019E
S32D00012838FFF72EFA16E07B6818464FF01801FFF727FA7B6803F1010318464FF01901FFF71FFA7B6803F1020330
S32D0001286018464FF01A01FFF717FA00BF7B68184607F10807BD4680BD80B582B000AF78607B681846FFF71AFB09
S32D00012888034683F00103DBB2184607F10807BD4680BD00BF80B582B000AF78607B6803F101031846FFF706FB52
S32D000128B0034683F00103DBB2184607F10807BD4680BD00BF80B582B000AF78607B6803F102031846FFF7F2FA3E
S32D000128D8034683F00103DBB2184607F10807BD4680BD00BF80B485B000AF78607B681B6A23F040027B681A6214
S32D000129007B685B6A23F00B027B685A627B685B6A43F007027B685A627B685B6A43F080027B685A627B681B685C
S32D0001292803F08003002B14BF00230123DBB2002BF4D17B685B6A03F04003002B0CBF00230123DBB2002B02D0A3
S32D000129504FF0010369E04FF00003FB817B68DB6CFB817B689B6C9AB2FB89D318FB817B685B6C9AB2FB89D318E2
S32D00012978FB817B681B6C9AB2FB89D318FB817B68DB6B9AB2FB89D318FB817B689B6B9AB2FB89D318FB81FB890F
S32D000129A04FEA5303FB81FB896FEA43436FEA5343FB81FA897B68DA624FF00003FB817B68DB6EFB817B689B6E3B
S32D000129C89AB2FB89D318FB817B685B6E9AB2FB89D318FB817B681B6E9AB2FB89D318FB817B68DB6D9AB2FB8928
S32D000129F0D318FB817B689B6D9AB2FB89D318FB81FB894FEA5303FB81FB896FEA43436FEA5343FB81FA897B686C
S32D00012A181A637B685B6A23F080027B685A624FF00003184607F11407BD4680BC704700BF80B483B000AF7860E0
S32D00012A4039603B681B781A467B689A603B685B781A467B68DA603B685B881A467B689A613B689B881A467B689B
S32D00012A68DA613B689B791A467B681A623B68DB791A467B685A623B68DA687B681A653B681B7A1A467B681A605C
S32D00012A903B685B7A1A467B685A6007F10C07BD4680BC704780B483B000AF78607B68184607F10C07BD4680BC28
S32D00012AB8704700BF80B582B000AF786039607B68012B0AD13A684FF6FF739A4205D143F2C860C1F6FF70FFF784
S32D00012AE0E1FF07F10807BD4680BD00BF80B500AF4FF001004FF6FF71FFF7E0FF80BD00BF80B483B000AF786049
S32D00012B080B46FB707B68FA781A707B684FF4FA725A807B6840F6C4129A807B68044A9A607B68184607F10C0717
S32D00012B30BD4680BC704700BF000080BF80B483B000AF786039603A6840F2F3139A4204DD3A6840F6C4139A42D9
