S01400002E2E2F53696D706C65436F64652E73313970
S32D0000C0000000002071210100CD240100CD240100CD240100CD240100CD240100000000000000000000000000A5
S32D0000C02800000000CD240100CD24010000000000CD240100CD240100CD240100CD240100CD240100CD2401005A
S32D0000C050CD240100CD240100CD240100CD240100CD240100CD240100CD240100CD240100CD240100CD2401004E
S32D0000C078CD240100CD240100CD240100CD240100CD240100CD240100CD240100CD240100CD240100CD24010026
S32D0000C0A0CD240100CD240100CD240100CD240100CD240100CD240100CD240100CD240100CD240100CD240100FE
S32D0000C0C8CD240100CD240100CD240100CD240100CD240100CD240100CD240100CD240100CD240100CD240100D6
S32D0000C0F0CD240100A1610100CD240100CD240100CD240100CD240100CD240100CD240100CD240100CD2401009D
S32D0000C118CD240100CD240100CD240100CD240100CD240100CD240100CD240100CD240100CD240100CD24010085
S32D0000C140CD240100CD240100CD240100CD240100E5340100CD240100CD240100CD240100CD240100CD24010035
S32D0000C168CD240100CD240100CD240100CD240100CD240100CD240100CD240100CD240100CD240100CD24010035
S32D0000C190CD240100CD240100CD240100CD240100CD240100CD2401001D250100CD240100CD240100CD240100BC
S32D0000C1B8CD240100CD240100CD240100CD240100CD240100CD240100CD240100CD240100CD240100CD240100E5
S32D0000C41081F0004102E000BF83F0004330B54FEA41044FEA430594EA050F08BF90EA020F1FBF54EA000C55EAC6
S32D0000C438020C7FEA645C7FEA655C00F0E2804FEA5454D4EB5555B8BF6D420CDD2C4480EA020281EA030382EA0F
S32D0000C460000083EA010180EA020281EA0303362D88BF30BD11F0004F4FEA01314FF4801C4CEA113102D0404263
S32D0000C48861EB410113F0004F4FEA03334CEA133302D0524263EB430394EA050F00F0A780A4F10104D5F1200E8A
S32D0000C4B00DDB02FA0EFC22FA05F2801841F1000103FA0EF2801843FA05F359410EE0A5F120050EF1200E012A2D
S32D0000C4D803FA0EFC28BF4CF0020C43FA05F3C01851EBE37101F0004507D54FF0000EDCF1000C7EEB00006EEB67
S32D0000C5000101B1F5801F1BD3B1F5001F0CD349085FEA30004FEA3C0C04F101044FEA445212F5800F80F09A8000
S32D0000C528BCF1004F08BF5FEA500C50F1000041EB045141EA050130BD5FEA4C0C404141EB010111F4801FA4F114
S32D0000C5500104E9D191F0000F04BF01460020B1FA81F308BF2033A3F10B03B3F120020CDA0C3208DD02F1140C87
S32D0000C578C2F10C0201FA0CF021FA02F10CE002F11402D8BFC2F1200C01FA02F120FA0CFCDCBF41EA0C019040B1
S32D0000C5A0E41AA2BF01EB0451294330BD6FEA04041F3C1CDA0C340EDC04F11404C4F1200220FA04F001FA02F3B6
S32D0000C5C840EA030021FA04F345EA030130BDC4F10C04C4F1200220FA02F001FA04F340EA0300294630BD21FAA8
S32D0000C5F004F0294630BD94F0000F83F4801306BF81F480110134013D4EE77FEA645C18BF7FEA655C29D094EA1C
S32D0000C618050F08BF90EA020F05D054EA000C04BF1946104630BD91EA030F1EBF0021002030BD5FEA545C05D1A3
S32D0000C6404000494128BF41F0004130BD14F580043CBF01F5801130BD01F0004545F0FE4141F470014FF0000031
S32D0000C66830BD7FEA645C1ABF194610467FEA655C1CBF0B46024650EA013406BF52EA033591EA030F41F40021D7
S32D0000C69030BD00BF90F0000F04BF0021704730B54FF4806404F132044FF000054FF0000150E700BF90F0000F66
S32D0000C6B804BF0021704730B54FF4806404F1320410F0004548BF40424FF000013EE700BF42004FEAE2014FEAF9
S32D0000C6E031014FEA02701FBF12F07F4393F07F4F81F06051704792F0000F14BF93F07F4F704730B54FF460741B
S32D0000C70801F0004521F0004120E700BF50EA010208BF704730B54FF000050AE050EA010208BF704730B511F046
S32D0000C730004502D5404261EB41014FF4806404F132045FEA915C3FF4DCAE4FF003025FEADC0C18BF03325FEAA0
S32D0000C758DC0C18BF033202EBDC02C2F1200300FA03FC20FA02F001FA03FE40EA0E0021FA02F11444C1E600BF19
S32D0000C78070B54FF0FF0C4CF4E06C1CEA11541DBF1CEA135594EA0C0F95EA0C0F00F0DEF82C4481EA030621EAF3
S32D0000C7A84C5123EA4C5350EA013518BF52EA033541F4801143F4801338D0A0FB02CE4FF00005E1FB02E506F05F
S32D0000C7D00042E0FB03E54FF00006E1FB03569CF0000F18BF4EF0010EA4F1FF04B6F5007F64F5407404D25FEA0F
S32D0000C7F84E0E6D4146EB060642EAC62141EA55514FEAC52040EA5E504FEACE2EB4F1FD0C88BFBCF5E06F1ED8D2
S32D0000C820BEF1004F08BF5FEA500E50F1000041EB045170BD06F0004646EA010140EA020081EA0301B4EB5C0487
S32D0000C848C2BFD4EB0C0541EA045170BD41F480114FF0000E013C00F3AB8014F1360FDEBF002001F0004170BDF0
S32D0000C870C4F10004203C35DA0C341BDC04F11404C4F1200500FA05F320FA04F001FA05F240EA020001F0004207
S32D0000C89821F0004110EBD37021FA04F642EB06015EEA430E08BF20EAD37070BDC4F10C04C4F1200500FA04F32F
S32D0000C8C020FA05F001FA04F240EA020001F0004110EBD37041F100015EEA430E08BF20EAD37070BDC4F12005C7
S32D0000C8E800FA05F24EEA020E20FA04F301FA05F243EA020321FA04F001F0004121FA04F220EA020000EBD37028
S32D0000C9105EEA430E08BF20EAD37070BD94F0000F0FD101F00046400041EB010111F4801F08BF013CF7D041EA6D
S32D0000C938060195F0000F18BF704703F00046520043EB030313F4801F08BF013DF7D043EA0603704794EA0C0FF1
S32D0000C9600CEA135518BF95EA0C0F0CD050EA410618BF52EA4306D1D181EA030101F000414FF0000070BD50EA38
S32D0000C988410606BF1046194652EA430619D094EA0C0F02D150EA013613D195EA0C0F05D152EA03361CBF10467B
S32D0000C9B019460AD181EA030101F0004141F0FE4141F470014FF0000070BD41F0FE4141F4780170BD70B54FF04D
S32D0000C9D8FF0C4CF4E06C1CEA11541DBF1CEA135594EA0C0F95EA0C0F00F0A7F8A4EB050481EA030E52EA03359B
S32D0000CA004FEA013100F088804FEA03334FF0805545EA131343EA12634FEA022245EA111545EA10654FEA002676
S32D0000CA280EF000419D4208BF964244F1FD0404F5407402D25B084FEA3202B61A65EB03055B084FEA32024FF461
S32D0000CA5080104FF4002CB6EB020E75EB030E22BFB61A754640EA0C005B084FEA3202B6EB020E75EB030E22BF22
S32D0000CA78B61A754640EA5C005B084FEA3202B6EB020E75EB030E22BFB61A754640EA9C005B084FEA3202B6EBEA
S32D0000CAA0020E75EB030E22BFB61A754640EADC0055EA060E18D04FEA051545EA16754FEA06164FEAC30343EAAC
S32D0000CAC852734FEAC2025FEA1C1CC0D111F4801F0BD141EA00014FF000004FF0004CB6E711F4801F04BF0143AE
S32D0000CAF00020B4F1FD0C88BFBCF5E06F3FF6AFAEB5EB030C04BFB6EB020C5FEA500C50F1000041EB045170BDBC
S32D0000CB180EF0004E4EEA113114EB5C04C2BFD4EB0C0541EA045170BD41F480114FF0000E013C90E645EA060EC3
S32D0000CB408DE60CEA135594EA0C0F08BF95EA0C0F3FF43BAF94EA0C0F0AD150EA01347FF434AF95EA0C0F7FF499
S32D0000CB6825AF104619462CE795EA0C0F06D152EA03353FF4FDAE1046194622E750EA410618BF52EA43067FF432
S32D0000CB90C5AE50EA41047FF40DAF52EA43057FF4EBAE12E74FF0FF3C06E000BF4FF0010C02E000BF4FF0010C75
S32D0000CBB84DF804CD4FEA410C7FEA6C5C4FEA430C18BF7FEA6C5C1BD001B050EA410C0CBF52EA430C91EA030FEC
S32D0000CBE002BF90EA020F0020704710F1000F91EA030F58BF994208BF90422CBFD8176FEAE37040F0010070476E
S32D0000CC084FEA410C7FEA6C5C02D150EA013C07D14FEA430C7FEA6C5CD6D152EA033CD3D05DF8040B704700BFCD
S32D0000CC308446104662468C461946634600E000BF01B5FFF7B7FF002848BF10F1000F01BD4DF808EDFFF7F4FF13
S32D0000CC580CBF012000205DF808FB00BF4DF808EDFFF7EAFF34BF012000205DF808FB00BF4DF808EDFFF7E0FF18
S32D0000CC8094BF012000205DF808FB00BF4DF808EDFFF7CEFF94BF012000205DF808FB00BF4DF808EDFFF7C4FF40
S32D0000CCA834BF012000205DF808FB00BF4FEA410212F5001215D211D56FF47873B3EB625212D94FEAC12343F0D6
S32D0000CCD0004343EA505311F0004F23FA02F018BF404270474FF00000704750EA013005D111F0004008BF6FF016
S32D0000CCF8004070474FF00000704700BF4A0011D212F5001211D20DD56FF47873B3EB62520ED44FEAC12343F085
S32D0000CD20004343EA505323FA02F070474FF00000704750EA013002D14FF0FF3070474FF0000070474FEA410241
S32D0000CD48B2F1E04324BFB3F5001CDCF1FE5C0DD901F0004C4FEAC0024CEA5070B2F1004F40EB830008BF20F09E
S32D0000CD700100704711F0804F21D113F13872BCBF01F00040704741F480114FEA5252C2F11802C2F1200C10FAB1
S32D0000CD980CF320FA02F018BF40F001004FEAC1234FEAD32303FA0CFC40EA0C0023FA02F34FEA4303CCE77FEA26
S32D0000CDC0625307D150EA01331EBF4FF0FE4040F44000704701F0004040F0FE4040F40000704700BF80F00040CC
S32D0000CDE802E000BF81F0004142001FBF5FEA410392EA030F7FEA226C7FEA236C6AD04FEA1262D2EB1363C1BF06
S32D0000CE10D218414048404140B8BF5B42192B88BF704710F0004F40F4000020F07F4018BF404211F0004F41F4FA
S32D0000CE38000121F07F4118BF494292EA030F3FD0A2F1010241FA03FC10EB0C00C3F1200301FA03F100F000432B
S32D0000CE6002D5494260EB4000B0F5000F13D3B0F1807F06D340084FEA310102F10102FE2A51D2B1F1004F40EB94
S32D0000CE88C25008BF20F0010040EA03007047490040EB000010F4000FA2F10102EDD1B0FA80FCACF1080CB2EB5F
S32D0000CEB00C0200FA0CF0AABF00EBC25052421843BCBFD0401843704792F0000F81F4000106BF80F400000132EB
S32D0000CED8013BB5E74FEA41037FEA226C18BF7FEA236C21D092EA030F04D092F0000F08BF0846704790EA010FD7
S32D0000CF001CBF0020704712F07F4F04D1400028BF40F00040704712F100723CBF00F50000704700F0004343F0DC
S32D0000CF28FE4040F4000070477FEA226216BF08467FEA23630146420206BF5FEA412390EA010F40F480007047C1
S32D0000CF504FF0000304E000BF10F0004348BF40425FEA000C08BF704743F0964301464FF000001CE050EA010264
S32D0000CF7808BF70474FF000030AE000BF50EA010208BF704711F0004302D5404261EB41015FEA010C02BF84465B
S32D0000CFA00146002043F0B64308BFA3F18053A3F50003BCFA8CF2083AA3EBC25310DB01FA02FC634400FA02FC6B
S32D0000CFC8C2F12002BCF1004F20FA02F243EB020008BF20F00100704702F1200201FA02FCC2F1200250EA4C0034
S32D0000CFF021FA02F243EB020008BF20EADC7070474FF0FF0C1CEAD0521EBF1CEAD15392EA0C0F93EA0C0F6FD019
S32D0000D0181A4480EA010C400218BF5FEA41211ED04FF0006343EA501043EA5111A0FB01310CF00040B1F5000FE7
S32D0000D0403EBF490041EAD3715B0040EA010062F17F02FD2A1DD8B3F1004F40EBC25008BF20F00100704790F058
S32D0000D068000F0CF0004C08BF49024CEA502040EA51207F3AC2BFD2F1FF0340EAC250704740F400004FF0000388
S32D0000D090013A5DDC12F1190FDCBF00F000407047C2F10002410021FA02F1C2F1200200FA02FC5FEA310040F1D5
S32D0000D0B8000053EA4C0308BF20EADC70704792F0000F00F0004C02BF400010F4000F013AF9D040EA0C0093F04C
S32D0000D0E0000F01F0004C02BF490011F4000F013BF9D041EA0C018FE70CEAD15392EA0C0F18BF93EA0C0F0AD00B
S32D0000D10830F0004C18BF31F0004CD8D180EA010000F00040704790F0000F17BF90F0004F084691F0000F91F0BB
S32D0000D130004F14D092EA0C0F01D142020FD193EA0C0F03D14B0218BF084608D180EA010000F0004040F0FE4051
S32D0000D15840F40000704740F0FE4040F4400070474FF0FF0C1CEAD0521EBF1CEAD15392EA0C0F93EA0C0F69D044
S32D0000D180A2EB030280EA010C49024FEA402037D04FF0805343EA111143EA10130CF000408B4238BF5B0042F14E
S32D0000D1A87D024FF4000C8B4224BF5B1A40EA0C00B3EB510F24BFA3EB510340EA5C00B3EB910F24BFA3EB9103A4
S32D0000D1D040EA9C00B3EBD10F24BFA3EBD10340EADC001B0118BF5FEA1C1CE0D1FD2A3FF650AF8B4240EBC25018
S32D0000D1F808BF20F0010070470CF0004C4CEA50207F32C2BFD2F1FF0340EAC250704740F400004FF00003013AF1
S32D0000D22037E792F0000F00F0004C02BF400010F4000F013AF9D040EA0C0093F0000F01F0004C02BF490011F4C9
S32D0000D248000F013BF9D041EA0C0195E70CEAD15392EA0C0F08D142027FF47DAF93EA0C0F7FF470AF084676E7AE
S32D0000D27093EA0C0F04D14B023FF44CAF08466EE730F0004C18BF31F0004CCAD130F000427FF45CAF31F0004376
S32D0000D2987FF43CAF5FE700BF4FF0FF3C06E000BF4FF0010C02E000BF4FF0010C4DF804CD4FEA40024FEA41039F
S32D0000D2C07FEA226C18BF7FEA236C11D001B052EA530C18BF90EA010F58BFB2EB030088BFC81738BF6FEAE1706E
S32D0000D2E818BF40F0010070477FEA226C02D15FEA402C05D17FEA236CE4D15FEA412CE1D05DF8040B704700BF16
S32D0000D310844608466146FFE70FB5FFF7C9FF002848BF10F1000F0FBD4DF808EDFFF7F4FF0CBF012000205DF839
S32D0000D33808FB00BF4DF808EDFFF7EAFF34BF012000205DF808FB00BF4DF808EDFFF7E0FF94BF012000205DF8A9
S32D0000D36008FB00BF4DF808EDFFF7D2FF94BF012000205DF808FB00BF4DF808EDFFF7C8FF34BF012000205DF8B1
S32D0000D38808FB00BF4FEA4002B2F1FE4F0FD34FF09E03B3EB12620DD94FEA002343F0004310F0004F23FA02F060
S32D0000D3B018BF404270474FF00000704712F1610F01D1420205D110F0004008BF6FF0004070474FF00000704797
S32D0000D3D842000ED2B2F1FE4F0BD34FF09E03B3EB126209D44FEA002343F0004323FA02F070474FF000007047DA
S32D0000D40012F1610F01D1420202D14FF0FF3070474FF00000704700BF036803B11B181846704700BF03685A00DD
S32D0000D4284CBF43F0004323F00043C018704700BF2DE9F84F0446914641B301F1FF3BDA46002707EB0A0101EBE3
S32D0000D450D1756D1004EBC5063046FFF7E3FF8046681CAB4504EBC0000DD0FFF7DBFF0138C84504D9BD4209D052
S32D0000D47805F1FF3AE5E7484505D26F1CE1E74FF0FF30F1E700263046BDE8F88F0E463046BDE8F88F30B52B4B75
S32D0000D4A083B004468D1E002B49D0284601A9AFF300800346002822D02A4618460199FFF7BBFF054600281DD0DD
S32D0000D4C8FFF7ACFF6B68A064012B10D0281D002B22DBFFF7A3FF0021E06421650368002B0FDBFFF79BFF206131
S32D0000D4F0002003B030BD002323610520F9E720610920F6E720610920F3E7C3F3036058B101280CD002280ED068
S32D0000D518002020610920E8E70122E0642265DDE7094B2361E1E7094A00202261DDE7084900202161D9E7074B3B
S32D0000D5400749C81AC2100192B6E700BF0000000069DA000065DA000061DA0000989F010090A10100036810B573
S32D0000D5680446D80706D4990704F1480009D500F00DFD23685A0709D518070ED5D90613D510BD00F0FBFC23680B
S32D0000D5905A07F5D404F1D00000F004FD23681807F0D404F5D87000F005FD2368D906EBD404F50C70BDE8104059
S32D0000D5B800F040BD2DE9F0470F1D054691460FCFADF5916D02AC261D0FC60FCF0FC60FCF0FC697E80F00D5F8B8
S32D0000D5E00C80D5F818A0002786E80F00216C27602846FFF753FF0646B94514BF4FF00A094FF00909FEB1A16B23
S32D0000D60849F01009616401208DE8100449462A462B46C04700282BD1002E2AD1204692A94FF4107209F058FDBB
S32D0000D630082F28D1216C2846FFF730FF06464FF00909002EDFD1206C21464FF41072686192A809F045FD2F6973
S32D0000D658294692AA4846B847A09B0746636401208DE8100449462A462B46C0470028D3D00926304622B00DF5B8
S32D0000D680806DBDE8F087072FF6D1201D00F06EFC38B504460D46296C2046FFF7FFFE50B92A6C23696261012058
S32D0000D6A821462A4698470828F1D0072801D00BF04BFE281D00F056FC11B933B10220704704298CBF02200120A0
S32D0000D6D070470F2A01D90220704700EB820118464A68009B1A60704710B50A4684B000210B4603AC0094FFF74B
S32D0000D6F8E3FF039804B010BD11B933B10220704704298CBF0220012070470F2A01D902207047009900EB820219
S32D0000D720096818465160704710B584B004AB0C4643F8042D0021009322460B46FFF7E0FF04B010BD2DE9F04F26
S32D0000D748CD6C8BB00C4655F8041B174600F008021E46039200F003080795002B40F0CF8009020691216D8DF83B
S32D0000D77021300323B8F1020F8DF8203008BFA56B11F0010340F0D380019304F158030293D5F80090B9F1000F97
S32D0000D79800F0CB80022E00F0AE80B5F80090B5F802A00435A26C0F212AF0010B38469344FFF796FF834518D819
S32D0000D7C029F0010CE3440AF0010A09F00103584543EA4A092CBF00200120B9F1010F12D032D2B8F1000F02D079
S32D0000D7E8002840F01D810435CEE70AF0010A09F0010343EA4A090020B9F1010FECD1B8F1000F40F0B680C8B17F
S32D0000D8106B68D5F800909A1C19D0029A013309920DD0281DFFF7F8FD4FEAD972014609AB20460AF0F7FD0028A8
S32D0000D83800F0F280099A002A40F0BA800835A3E7B9F1020F03D009200BB0BDE8F08F2B6823F000420092B8F1A9
S32D0000D860000F71D1002843D00398002840F0A1800098002800F0A080009BDDF80C90DB0705F1040A40F1B480D3
S32D0000D888CDF810800596A846029E12E000998D4200F0D9800996FFF7BBFD5A46014609AB20460AF0BBFDA94662
S32D0000D8B0B0B90AF1040A05F1010950460996FFF7ABFD09AB0146002220460AF0ABFD0AF1040A834609F101050E
S32D0000D8D85046BBF1000FD9D04546059EDDF81080009A4A4564D02B68002B7BDB0099481C05EB800548E7D5F8B6
S32D0000D90004A0083552E70B04C1F30740216D06930222B8F1020F05EB800508BFA56B8DF8210011F001038DF854
S32D0000D92820203FF42DAF00200190384606A900F019FC002887D1019A002A43D1082083E70D213846D4F820908C
S32D0000D950FFF7CAFE8145CAD1A26A9542C7D10098291D00220423A062E26223636163286800286EDB01220192A1
S32D0000D978BCE70D213846D4F82090FFF7B1FE81457FF45CAFA16A8D427FF458AF2846FFF745FD0F2102463846DD
S32D0000D9A0FFF7C2FE384600212246FFF7BDFE07204EE7009900299BD138460D21FFF794FE099B20626362A5623B
S32D0000D9C8062041E70F213846FFF78AFE0E2102463846FFF7A5FE38460F211E4AFFF7A0FE072031E7043581E79F
S32D0000D9F0029950460991FFF70FFD039A014609AB20460AF00FFD00287FF46EAFCDF8108005960AF1040A4FF048
S32D0000DA180109A846029E4CE7CDF824800835B3E62846FFF7FBFC04350646A56320460AF06BFD00283FF407AF15
S32D0000DA4038460F213246FFF76FFE072000E74546B2E7009B591C05EB81009CE77986010002236FE601236DE608
S32D0000DA6800236BE62DE9F0470446E8B004290CD8DFE801F0380391930F00150C012B96B200F07881052B00F018
S32D0000DA90C780022068B0BDE8F087002BF9D1102AF7D82368D90600F1738164A8019200F0CFFA019AA36BD007A6
S32D0000DAB844BF53F8040B6490910744BF53F8041B6591500744BF53F8041B6691110748BF53F8042B64A8A3638E
S32D0000DAE048BF679200F0AAFA0020D3E7002BD0D1A36BD00791B244BF53F8042B62608A0744BF53F8042BA26067
S32D0000DB08480744BF53F8042BE2600A0744BF53F8042B2261C80644BF53F8042B62618A0644BF53F8042BA261B2
S32D0000DB30480644BF53F8042BE2610A0644BF53F8042B2262C80544BF53F8042B62628A0544BF53F8042BA2628A
S32D0000DB58480544BF53F8042BE2620A0544BF53F8042B2263C80444BF53F8042B626311F400501CBF53F8042BC8
S32D0000DB80A2634A0444BF53F8042BE2630A0444BF53F8042B2264002840D1A3637AE7012078E7032B7FF475AF6C
S32D0000DBA8160C95B2AA19102A3FF66FAF2368180700F10B8144A800F01BFAA76B4FEA450E3B460DB344A90EF1B3
S32D0000DBD0FF3C01EBC60653F8040B62460CF0010146F8040B92B129B153F8041B013A46F8041B0BD01846314618
S32D0000DBF850F8045B41F8045B5D68031D75600E1D023AF3D107EB8E0344A8A36300F0CEF900203BE7002039E72D
S32D0000DC2077192022BA42FFF434AF012B00F0A9800F2D40F2A9803746F6B1052B7FF429AF0F2D11D82268D00731
S32D0000DC480ED522F00101052B2160204600F0DA8022F0030240F8482B019300F093F9019B1FB12268510700F145
S32D0000DC70B880012B00F0BF800F2D75D9002F40F0A080D4F83890002EC8462EDD49460DF1080A4FEA46080AEBF4
S32D0000DC98C50251F8046B08F1FF3000F0010A42F8046BA8F1020CD0B1BAF1000F08D051F8040B0CF1FF3CBCF11C
S32D0000DCC0FF3F42F8040B0ED00E46104656F804AB40F804AB4968ACF1020C5160311D021DBCF1FF3FF0D109EB29
S32D0000DCE88808A7B3102D2CBF2E4610260DF5D079414609EBC60CACF5C8724FEA470951F8046B09F1FF3000F085
S32D0000DD10010A42F8046BA9F1020CD0B1BAF1000F08D051F8040B0CF1FF3CBCF1FF3F42F8040B0ED00E4610462A
S32D0000DD3856F804AB40F804AB4968ACF1020C5160311D021DBCF1FF3FF0D108EB8908012B2BD00F2DC4F8388058
S32D0000DD6008D9FFB9384695E602A8019300F016F9019B83E702A800F00DF9F2E77719102250E70F2D3FF685AEAA
S32D0000DD88102F10D9103F54E723F01003236004F50C70019200F058F9019A82E624A800F0FDF8002072E6002776
S32D0000DDB046E708F1040302A8A36300F0E3F8002068E624A80193C5F1100600F0EFF8019B57E723F0080704F537
S32D0000DDD8D870276000F00CF9ECE6204622F0040140F8D01B019300F0DDF8019B3DE702A8019300F0C7F8019B45
S32D0000DE00002F3FF43EAFC5F110063AE741F0020140F8481B019300F0C1F8019B24E700BF406C7047F0B50D46EB
S32D0000DE280F1DC96B296404460FCFADF5117D01AE0FC60FCF0FC60FCF0FC697E80F0086E80F004FF0FF3300938E
S32D0000DE5010992046FFF722FB58B9266921466A46B04708280646F3D06846FFF77BFB062E03D009200DF5117DBB
S32D0000DE78F0BD20462946FFF707FC00BF10B4DC6BC1608261194600221C6410BCFFF792BB38B54269C3680A64F2
S32D0000DEA004460D4623B10122FFF788FB0BF050FA0369214602202A469847072803D0082804D00BF045FA281D39
S32D0000DEC800F050F820462946FFF7DEFBC36823B1CA6B0A640022FFF76DBB9FE7704700BF08B5836801460BB1C7
S32D0000DEF00120984708BD00BFF0B5D46B171D146405460C460FCFADF5277D01AE0FC60FCF0FC60FCF0FC697E8C6
S32D0000DF180F0086E80F004FF0FF330093109990A8FFF7B8FA034690AA68460C21BBB9FFF7F7FB21466846A84704
S32D0000DF40064690A908206A466EB9949B98470528064601D00928E5D16846FFF703FB30460DF5277DF0BD092656
S32D0000DF68F6E700BF00F1340191E838009C46A6464CF8045D90E8FF0FE54600BD90EC210B704700BF80EC210B81
S32D0000DF90704700BF90EC200B704700BF80EC200B704700BFD0EC200B704700BFC0EC200B704700BFF0EC02013A
S32D0000DFB8F0EC0211F0EC0221F0EC0231F0EC0241F0EC0251F0EC0261F0EC0271F0EC0281F0EC0291F0EC02A115
S32D0000DFE0F0EC02B1F0EC02C1F0EC02D1F0EC02E1F0EC02F1704700BFE0EC0201E0EC0211E0EC0221E0EC023196
S32D0000E008E0EC0241E0EC0251E0EC0261E0EC0271E0EC0281E0EC0291E0EC02A1E0EC02B1E0EC02C1E0EC02D184
S32D0000E030E0EC02E1E0EC02F1704700BFB0FC0181B0FC0191B0FC01A1B0FC01B1704700BFA0FC0181A0FC019104
S32D0000E058A0FC01A1A0FC01B1704700BFEC4600B52DE900502DE9FF1F4FF000032DE90C0001A9FFF7D3FEDDF86D
S32D0000E08040E012B0704700BFEC4600B52DE900502DE9FF1F4FF000032DE90C0001A9FFF7FBFEDDF840E012B0E5
S32D0000E0A8704700BFEC4600B52DE900502DE9FF1F4FF000032DE90C0001A9FFF707FFDDF840E012B0704700BF1C
S32D0000E0D0EC4600B52DE900502DE9FF1F4FF000032DE90C0001ABFFF7CDFEDDF840E012B0704700BFEC4600B5BC
S32D0000E0F82DE900502DE9FF1F4FF000032DE90C0001AAFFF7F5FEDDF840E012B0704700BF027A03461AB9427AE7
S32D0000E12042B9B02070470068013A01021A72000E196070474168501E587251F8040B0322596001021A72000E2B
S32D0000E1481960704710B5002184B00C220DEB02040B460094FFF7B0FA039804B010BD00BFF0E700BF2DE9F043F4
S32D0000E170064685B00D464FF000094FF47F672846FFF7CAFFB028044600F0B08010F0800120D000F0F003802BCE
S32D0000E19874D0902B37D0A02B45D0B02B56D0C02B00F0858000F0F800D0280BD104F00702511C41F4002230469F
S32D0000E1C001210523FFF752FC0028D8D0092005B0BDE8F0834FEA800203A85FFA82F800900D220B463046FFF728
S32D0000E1E86BFA039B600608F104084CBFC8EB0303434403AC03930094002130460D220B46FFF77AFAB7E700F068
S32D0000E2100F020D2ADAD00F2AD8D0002103AC009430460B4603ACFFF74BFA0094E8E7C24302F0070C47FA0CF04E
S32D0000E238210700F47F6248BF42F48042002130460B46FFF70FFC0028BCD194E7B1285DD0B2286ED0B32800F0BA
S32D0000E260958000F0FC02B42A46D000F00702531C43F40022012130460B46FFF7F7FB0028A4D17CE72846FFF7A3
S32D0000E28847FF210240EA0104B4F5004F9AD0230500211A0C30460B462401FFF7E3FB002890D114F4004F18BF88
S32D0000E2B04FF0010963E7C62873D0C72800F0848000F0F802C02A00F09280C82800F0A680C9287FF47BAF2846C1
S32D0000E2D8FFF71EFF00F00F0300F0F0015A1C42EA013268E7B9F1000F00F0838000206AE700F00301481C022166
S32D0000E30040F480220B463046FFF7B0FB00287FF45DAF34E72846FFF7FFFE024600283FF455AF10F0F0017FF483
S32D0000E32851AF30460B46FFF79DFB00287FF44AAF21E700210D220B4603AC30460094FFF7BBF92846FFF7E4FE8C
S32D0000E350022402060DD5039B00F07F0000FA04FE03EB0E0128460391FFF7D6FE07340306F1D4039B00F07F01A6
S32D0000E37803AA03F5017C01FA04F400920CEB0402039239E72846FFF7C3FE00F00F03591C00F0F00041EA003245
S32D0000E3A068E72846FFF7B8FE00F00F03591C00F0F00041EA0032032130460B46FFF756FB00287FF403AFDAE6F3
S32D0000E3C82846FFF7A5FE024600283FF4FBAE10F0F0037FF4F7AE30460421FFF743FB00287FF4F0AEC7E600F024
S32D0000E3F00F01481C40F42022DDE703AC49460E224B4630460094FFF75BF9304649460F224B460094FFF774F940
S32D0000E4184846D8E62846FFF77BFE00F0F00200F00F001032431C43EA0232C4E610B5C26C84B0032054688DF895
S32D0000E4400C00D37924020832084601A9019402928DF80D30FFF78AFE04B010BD08B5FFF783FE806C08BD00BF70
S32D0000E46808B5FFF77DFEC16CC87901EB800303F1080008BD08B50AF067FF00BF08B50AF063FF00BF2DE9F04FB1
S32D0000E4908DB00AAF4FF0030009F0B4FE044620464FF0030105F0DEF943F22863C1F6FF731C604FF0010009F01E
S32D0000E4B8A5FE044620464FF0000104F01BFE43F22C63C1F6FF731C604FF0010009F096FE044620464FF001016F
S32D0000E4E004F038FC43F23863C1F6FF731C604FF0010009F087FE044620464FF0020104F029FC43F23463C1F625
S32D0000E508FF731C604FF0010009F078FE044620464FF0030104F01AFC43F24463C1F6FF731C604FF0010009F091
S32D0000E53069FE044620464FF0040104F0DFFD43F23063C1F6FF731C604FF01C0009F05AFE044620464FF0080181
S32D0000E55805F020F843F25863C1F6FF731C604FF01C0009F04BFE044620464FF0090105F011F843F25C63C1F6B4
S32D0000E580FF731C604FF0010009F03CFE044620464FF0100104F0DEFB43F24063C1F6FF731C604FF0010009F089
S32D0000E5A82DFE044620464FF0110104F0CFFB43F23C63C1F6FF731C604FF0020009F01EFE044620464FF000019C
S32D0000E5D003F0D2FF43F24863C1F6FF731C604FF0020009F00FFE044620464FF0010103F0C3FF43F24C63C1F64C
S32D0000E5F8FF731C604FF00C0009F000FE044620464FF0000105F0F4FA43F25063C1F6FF731C604FF00C0009F021
S32D0000E620F1FD044620464FF0010105F0E5FA43F25463C1F6FF731C6043F25063C1F6FF731B6818464FF4FA71E8
S32D0000E64805F0F4FA43F25063C1F6FF731B68184640F67F1105F008FB43F25463C1F6FF731B6818464FF4FA716D
S32D0000E67005F0E0FA43F25463C1F6FF731B68184640F6C41105F0F4FA43F26863C1F6FF7343F2D062C1F6FF7211
S32D0000E6981A6043F26863C1F6FF731B6818464FF0000106F001F843F26863C1F6FF731B6818464FF0010106F060
S32D0000E6C055F843F27463C1F6FF7343F26C62C1F6FF721A604FF0080009F094FD04462046DFF87C1402F046FBEA
S32D0000E6E843F27863C1F6FF731C604FF0080009F085FD04462046DFF8601402F037FB43F27C63C1F6FF731C60B5
S32D0000E7104FF0640009F076FD044643F27863C1F6FF73196843F22863C1F6FF731A6843F26863C1F6FF731D68AF
S32D0000E73843F27463C1F6FF731B687B6043F25863C1F6FF73D3F800B043F25C63C1F6FF73D3F800A043F2346338
S32D0000E760C1F6FF73D3F8009043F23863C1F6FF73D3F8008043F23C63C1F6FF73D3F800C043F24063C1F6FF733A
S32D0000E788D3F800E043F24463C1F6FF731E6843F23063C1F6FF73186843F22C63C1F6FF731B683B607B6800933B
S32D0000E7B0CDF804B0CDF808A0CDF80C90CDF81080CDF814C0CDF818E0079608903B68099320462B4601F0EAFF24
S32D0000E7D843F26063C1F6FF731C604FF0180009F00DFD044643F24863C1F6FF73196843F24C63C1F6FF731A68B9
S32D0000E80043F26063C1F6FF731B68204602F032FB43F26463C1F6FF731C6043F28463C1F6FF734FF00A021A6016
S32D0000E82843F28463C1F6FF731B684FEA8303184609F018FD024643F28C63C1F6FF731A6043F28C63C1F6FF7373
S32D0000E8501B6803F1040249F21053C0F20103136043F28C63C1F6FF731A6849F21853C0F20103136043F28C6394
S32D0000E878C1F6FF731B6803F1080249F22053C0F20103136043F28C63C1F6FF731B6803F10C0249F22C53C0F2B3
S32D0000E8A00103136043F28C63C1F6FF731B6803F1100249F23053C0F20103136043F28C63C1F6FF731B6803F152
S32D0000E8C8140249F23853C0F20103136043F28C63C1F6FF731B6803F1180249F24853C0F20103136043F28C631C
S32D0000E8F0C1F6FF731B6803F11C0249F25853C0F20103136043F28C63C1F6FF731B6803F1200249F26053C0F2A7
S32D0000E9180103136043F28C63C1F6FF731B6803F1240249F27053C0F20103136043F28063C1F6FF734FF00002C7
S32D0000E9401A6043F28863C1F6FF734FF001021A7043F26063C1F6FF731B68184601F09CFF43F26063C1F6FF736B
S32D0000E9681B6818464FF0010101F0E6FF0346002B12D043F28C63C1F6FF731A6843F28063C1F6FF731B684FEA67
S32D0000E9908303D3181B68184600F0E6F800BFD7E743F26063C1F6FF731B6818464FF0000101F0C6FF0346002B50
S32D0000E9B822D043F28063C1F6FF731B6803F1FF3243F28063C1F6FF731A6043F28063C1F6FF731B68002B0FDAC3
S32D0000E9E043F28063C1F6FF731A6843F28463C1F6FF731B68D21843F28063C1F6FF731A6043F26063C1F6FF73B8
S32D0000EA081B6818464FF0020101F096FF0346002B29D043F28063C1F6FF731B6803F1010243F28063C1F6FF73CE
S32D0000EA301A6043F28463C1F6FF731B6803F1FF3243F28063C1F6FF731B689A420FDA43F28063C1F6FF731A6805
S32D0000EA5843F28463C1F6FF731B68D21A43F28063C1F6FF731A6043F27863C1F6FF731B68184602F0D7F90346FC
S32D0000EA80002B69D043F26863C1F6FF731B6818464FF0000105F00CFE43F26863C1F6FF731B68184649F27C51A9
S32D0000EAA8C0F2010105F0B2FE43F26863C1F6FF731A6843F28C63C1F6FF73196843F28063C1F6FF731B684FEA71
S32D0000EAD08303CB181B681046194605F085FF43F26863C1F6FF731B68184649F28851C0F2010105F079FF43F28A
S32D0000EAF86863C1F6FF731B68184649F2A051C0F2010105F06DFF43F26863C1F6FF731B68184649F2B851C0F2DA
S32D0000EB20010105F077FE43F26863C1F6FF731A6843F28863C1F6FF731B78002B04D049F2C453C0F2010303E0EA
S32D0000EB4849F2CC53C0F201031046194605F048FF024804F04FF8F7E6000000000AD7233C80B582B000AF78600E
S32D0000EB7043F28863C1F6FF731B78002B1ED07A6849F27053C0F201039A4217D04FF000004FF07E5101F5E00105
S32D0000EB9804F056F843F27463C1F6FF731B68184607F0F8FB43F27463C1F6FF731B68184608F0AAF87A6849F240
S32D0000EBC02C53C0F201039A4202D101F0F7F882E07A6849F22053C0F201039A4202D101F0DBFA78E07A6849F2D1
S32D0000EBE83053C0F201039A4202D101F01FFB6EE07A6849F21853C0F201039A4202D100F06BF864E07A6849F21D
S32D0000EC101053C0F201039A4202D101F01DFD5AE07A6849F25853C0F201039A4202D101F047F850E07A6849F21F
S32D0000EC383853C0F201039A4202D101F0B3FC46E07A6849F24853C0F201039A4202D100F0D7FE3CE07A6849F2DD
S32D0000EC606053C0F201039A4202D100F091FF32E07A6849F27053C0F201039A420DD143F28863C1F6FF731B78B0
S32D0000EC8883F00103DAB243F28863C1F6FF731A701DE043F26863C1F6FF731B6818464FF0060105F001FD43F213
S32D0000ECB06863C1F6FF731B68184649F2D851C0F2010105F091FE4FF000004FF0804101F5101103F0B9FF07F1CC
S32D0000ECD80807BD4680BD00BFF0B583B000AF43F26063C1F6FF731B68184601F091FE43F25063C1F6FF731B6863
S32D0000ED001846594904F0D4FF43F25463C1F6FF731B681846554904F0CBFF43F26063C1F6FF731C6843F274631B
S32D0000ED28C1F6FF731B68184608F030F80346636143F26863C1F6FF731B68184649F2E851C0F2010105F062FD00
S32D0000ED5043F26863C1F6FF731A6843F26063C1F6FF731B685B691046194605F081FD43F26463C1F6FF731B68B2
S32D0000ED7818463D494FF0010202F012FF36A1D1E9000103F05DFF43F26463C1F6FF731B68184602F0FDFB43F23E
S32D0000EDA06463C1F6FF731B6818466FF06301314A02F036FD4FF000004FF07E5101F5C00103F042FF43F26463DD
S32D0000EDC8C1F6FF731B6818464FF000014FF001024FF0000302F0ECFA1FA1D1E9000103F02FFF43F26463C1F628
S32D0000EDF0FF731B6818464FF064011F4A02F010FD43F26463C1F6FF731B68184602F0ECF84FF001037B600BE0B1
S32D0000EE1843F26463C1F6FF731B68184602F0E0F87B6803F101037B6043F27463C1F6FF731B68184607F0BCFF7E
S32D0000EE40024643F26063C1F6FF731B685B699A4214DA7B68052B11DC4FF0010310E000BF333333333333D33FF4
S32D0000EE68000070420000F0410000B4C20000003F000040404FF00003002BC9D143F26463C1F6FF731B68184657
S32D0000EE906FF06301D64A02F0C3FCD1A1D1E9000103F0D2FE43F26463C1F6FF731B6818464FF05A014FF00102EE
S32D0000EEB84FF0000302F07CFAC7A1D1E9000103F0BFFE43F26463C1F6FF731B68184602F05FFB43F26063C1F6AE
S32D0000EEE0FF731B68184601F0C1FE43F26463C1F6FF731B6818466FF06301BE4A02F090FCB7A1D1E9000103F0AC
S32D0000EF089FFE43F26463C1F6FF731B6818464FF000014FF001024FF0000302F049FA43F25063C1F6FF731B68AB
S32D0000EF301846B14904F0BCFEA9A1D1E9000103F083FE43F26463C1F6FF731B6818464FF06401AA4A02F064FC44
S32D0000EF5843F26463C1F6FF731B68184602F0C8FD43F26463C1F6FF731B68184602F0D8FC4FF000004FF07E51B5
S32D0000EF8001F5C00103F060FE43F25063C1F6FF731B6818469A4904F08BFE43F26463C1F6FF731B6818466FF0A4
S32D0000EFA86301964A02F038FC43F25063C1F6FF731B681846924904F077FE4FF000004FF07E5101F5E00103F084
S32D0000EFD03BFE43F25063C1F6FF731B681846864904F066FE43F26463C1F6FF731B6818464FF000014FF0320208
S32D0000EFF8844B01F0D9FF43F26463C1F6FF731B68184602F08DFC43F25063C1F6FF731B681846794904F048FEE4
S32D0000F0204FF000004FF07E5101F5C00103F00CFE43F26463C1F6FF731B6818464FF064016FF06302724B01F0A5
S32D0000F048B3FF43F26463C1F6FF731B68184602F04FFD43F25063C1F6FF731B681846684904F022FE4FF00000AE
S32D0000F0704FF07E5101F5E00103F0E6FD43F26463C1F6FF731B68184602F0E6FC43F25063C1F6FF731B681846EB
S32D0000F0985E4904F009FE50A1D1E9000103F0D0FD43F26463C1F6FF731B6818466FF06301574A02F0B1FB4FF0F5
S32D0000F0C000004FF07E5101F5F00103F0BDFD43F26463C1F6FF731B6818464FF064014FF000024B4B01F064FFAB
S32D0000F0E84FF000004FF07E5101F5C00103F0A8FD43F26463C1F6FF731B6818466FF06301434A02F089FB4FF053
S32D0000F11000004FF07E5101F5C00103F095FD43F26463C1F6FF731B68184602F0D9FA43F26463C1F6FF731B6814
S32D0000F13818464FF06401374A02F06EFB26A1D1E9000103F07DFD43F26463C1F6FF731B6818464FF000014FF057
S32D0000F16000024FF0010302F027F91DA1D1E9000103F06AFD43F26463C1F6FF731B6818466FF03B016FF027022E
S32D0000F18801F0F0FE16A1D1E9000103F059FD43F26463C1F6FF731B6818464FF064011E4A02F03AFB0CA1D1E91F
S32D0000F1B0000103F049FD43F26463C1F6FF731B68184618494FF0000202F0EEFC04A1D1E9000103F039FD43F2B5
S32D0000F1D86463C1F6FF7323E0333333333333D33F333333333333F33F00008041000020400000F2420000C03F1A
S32D0000F200000070420000C04000002C439A99993E0000003F00003442000000400000D840000000410000C8415E
S32D0000F2281B6818464FF06401D74A02F0F5FAD4A1D1E9000103F004FD43F26463C1F6FF731B6818464FF05A016D
S32D0000F2504FF001024FF0000302F0AEF8CAA1D1E9000103F0F1FC43F26463C1F6FF731B68184602F035FA43F212
S32D0000F2786063C1F6FF731B68184601F02FFC43F26463C1F6FF731B6818464FF06401BF4A02F0C2FA4FF00000DF
S32D0000F2A04FF07E5101F5E00103F0CEFC43F26063C1F6FF731B68184601F024FC43F26463C1F6FF731B68184685
S32D0000F2C84FF000014FF001024FF0000302F070F84FF000004FF07E5101F5C00103F0B0FC43F26463C1F6FF7332
S32D0000F2F01B68184602F0F4F943F26463C1F6FF731B6818464FF06401A34A02F089FA4FF000004FF07E5101F5E1
S32D0000F318C00103F095FC43F26463C1F6FF731B6818464FF05A014FF000024FF0010302F03FF84FF000004FF0B7
S32D0000F3407E5101F5C00103F07FFC43F26463C1F6FF731B68184602F0C3F943F26063C1F6FF731B6893F8243074
S32D0000F368012B19D143F25463C1F6FF731B681846884904F099FC4FF000004FF07E5101F5E00103F05DFC43F26C
S32D0000F3905463C1F6FF731B681846814904F088FC43F25063C1F6FF731B6818467D4904F07FFC43F26463C1F672
S32D0000F3B8FF731B6818464FF06401794A02F02CFA43F26463C1F6FF731B6818464FF000016FF04502734B01F0BA
S32D0000F3E0E7FD43F26463C1F6FF731B6818464FF064016D4A02F014FA43F26463C1F6FF731B6818466FF06301F1
S32D0000F4084FF06402684B01F0CFFD43F26463C1F6FF731B68184602F05FF943F25063C1F6FF731B6818466149D5
S32D0000F43004F03EFC43F26463C1F6FF731B6818464FF064014FF000025B4B01F0B1FD43F26463C1F6FF731B68A8
S32D0000F458184658494FF0010202F0A2FB43F26463C1F6FF731B68184602F036F943F26463C1F6FF731B68184689
S32D0000F4804FF06401424A02F0CBF94FF000004FF07E5101F5C00103F0D7FB43F26463C1F6FF731B6818464FF06A
S32D0000F4A800014FF000024FF0010301F081FF4FF000004FF07E5101F5C00103F0C1FB43F26463C1F6FF731B68E5
S32D0000F4D0184602F061F843F26463C1F6FF731B68184602F0FDF843F26063C1F6FF731B6893F82430002B40F09A
S32D0000F4F89C8043F26463C1F6FF731B6818464FF064012D4A02F088F94FF000004FF07E5101F5C00103F094FBB0
S32D0000F52043F26463C1F6FF731B6818464FF05A014FF001024FF0000301F03EFF4FF000004FF07E5101F5C00167
S32D0000F54803F07EFB43F26463C1F6FF731B68184602F0C2F843F25463C1F6FF731B6818460C4904F0A1FB4FF05D
S32D0000F57000004FF07E5101F5E00103F065FB43F25463C1F6FF731DE0333333333333D33F00000041000010414D
S32D0000F59800002041000016430000F04100002C430000A040CDCC4C3E0000003F000070420000A03F000070C1E7
S32D0000F5C0000050411B681846DFF80C1404F070FB43F26463C1F6FF731B6818464FF06401FE4A02F01DF94FF01C
S32D0000F5E800004FF07E5101F5C00103F029FB43F26463C1F6FF731B6818464FF000014FF000024FF0010301F05E
S32D0000F610D3FE4FF000004FF07E5101F5C00103F013FB43F26463C1F6FF731B68184602F057F843F26463C1F6FC
S32D0000F638FF731B6818464FF06401E74A02F0ECF84FF000004FF07E5101F5C00103F0F8FA43F26463C1F6FF7398
S32D0000F6601B6818464FF05A014FF001024FF0000301F0A2FE4FF000004FF07E5101F5C00103F0E2FA43F264631D
S32D0000F688C1F6FF731B68184602F026F843F26463C1F6FF731B6818464FF06401CF4A02F0BBF843F27C63C1F607
S32D0000F6B0FF731B68184601F097FB43F27C63C1F6FF731B681846C84901F0A2FB43F26063C1F6FF731B68DB6BAF
S32D0000F6D8184603F06BFC034683F00103DBB2002B0ED143F26063C1F6FF731B681B6C184603F05CFC034683F065
S32D0000F7000103DBB2002B02D04FF0010301E04FF00003002B08D043F26463C1F6FF731B68184601F039FFA0E035
S32D0000F72843F26063C1F6FF731B68184601F0D4FA0346002B65D043F26063C1F6FF731B68DB6A18464FF00001C2
S32D0000F75004F0AEFF43F26463C1F6FF731E6843F26063C1F6FF731B689B69A0481946FDF73DFB03461846FCF78A
S32D0000F778AFFF02460B46104619464FF000024FF0804303F5B203FCF7F7FF02460B46104619464FF000024FF0C0
S32D0000F7A0804303F51013FDF715F902460B4614461D4643F26063C1F6FF731B681B6A18468B49FDF713FB03465F
S32D0000F7C818468A49FDF718FC034618468849FDF7C7FC03461846FCF77BFF02460B4620462946FCF717FE0246D9
S32D0000F7F00B4610461946FDF75DFA034630464FF03C011A4601F06EFB0BE043F26463C1F6FF731B6818464FF075
S32D0000F81832014FF0000201F061FB43F27C63C1F6FF731B68184601F0FDFA0346002B14D043F26463C1F6FF737E
S32D0000F8401B6818464FF000014FF0000201F04AFB43F26463C1F6FF731B68184601F09CFE03E0664803F0CAF92A
S32D0000F86830E743F26463C1F6FF731B6818466FF063016FF06302604B01F096FB52A1D1E9000103F0DDF943F2F5
S32D0000F8906463C1F6FF731B6818464FF064016FF06302574B01F084FB49A1D1E9000103F0CBF943F26463C1F6F0
S32D0000F8B8FF731B6818466FF063016FF063024E4B01F072FB40A1D1E9000103F0B9F943F26463C1F6FF731B6868
S32D0000F8E018464FF064016FF06302454B01F060FB37A1D1E9000103F0A7F943F26463C1F6FF731B6818464FF0ED
S32D0000F9085A014FF001024FF0000301F051FD2EA1D1E9000103F094F943F26463C1F6FF731B6818466FF06301E0
S32D0000F930344A01F075FF43F26463C1F6FF731B6818464FF000014FF000024FF0000301F033FD1FA1D1E9000161
S32D0000F95803F076F943F26463C1F6FF731B6818464FF064011B4A01F057FF43F26463C1F6FF731B6818464FF084
S32D0000F9800A014FF000024FF0000301F015FD10A1D1E9000103F058F943F26463C1F6FF731B68184601F0F8FD2C
S32D0000F9A843F26463C1F6FF731B6818464FF064014FF00002104B01F0F7FA07F10C07BD46F0BD00BFAFF300806D
S32D0000F9D0333333333333D33F0000F0410000004100009841000008420000A040000080BF0000B4420000C84211
S32D0000F9F80000DC420AD7233C0000803E0000E040F8B500AF43F26063C1F6FF731B685B6C184603F0CBFA03467F
S32D0000FA2083F00103DBB2002B0ED143F26063C1F6FF731B689B6C184603F0BCFA034683F00103DBB2002B02D0AE
S32D0000FA484FF0010301E04FF00003002B09D043F26463C1F6FF731B68184601F03DFE00BFF8BD43F26063C1F6D1
S32D0000FA70FF731B68184601F033F90346002B6DD043F26063C1F6FF731B68DB6A18464FF0000104F00DFE43F28C
S32D0000FA986463C1F6FF731E6843F26063C1F6FF731B681A6843F26063C1F6FF731B689B6910461946FDF796F9C4
S32D0000FAC0034683F000431846FCF706FE02460B46104619464FF000024FF0804303F5B203FCF74EFE02460B46AE
S32D0000FAE8104619464FF000024FF0804303F50023FCF76CFF02460B4614461D4643F26063C1F6FF731B681B6A00
S32D0000FB1018461A49FDF76AF9034618461849FDF76FFA034618461749FDF71EFB03461846FCF7D2FD02460B4634
S32D0000FB3820462946FCF76EFC02460B4610461946FDF7B4F8034630466FF03B011A4601F0C5F90BE043F264632F
S32D0000FB60C1F6FF731B6818466FF031014FF0000201F0B8F9044803F041F847E70000B4420000C84200008C4285
S32D0000FB880AD7233C0000000080B500AF43F26463C1F6FF731B68184601F09EFD43F26463C1F6FF731B68184693
S32D0000FBB04FF064013C4A01F033FE37A1D1E9000103F042F843F26463C1F6FF731B68184636494FF0010201F063
S32D0000FBD8E7FF2FA1D1E9000103F032F843F26463C1F6FF731B6818466FF03B016FF0270201F0B8F928A1D1E923
S32D0000FC00000103F021F843F26463C1F6FF731B6818464FF06401264A01F002FE1EA1D1E9000103F011F843F213
S32D0000FC286463C1F6FF731B68184620494FF0000201F0B6FF16A1D1E9000103F001F843F26463C1F6FF731B6887
S32D0000FC5018464FF06401164A01F0E2FD0EA1D1E9000102F0F1FF43F26463C1F6FF731B68184611494FF0000267
S32D0000FC7801F096FF06A1D1E9000102F0E1FF43F26463C1F6FF731B68184601F025FD80BD333333333333D33F0A
S32D0000FCA0333333333333F33F0000D0400000B4C2000000410000C8410000B442AFF3008080B500AF43F250631E
S32D0000FCC8C1F6FF731B681846344903F0EDFF43F26463C1F6FF731B6818464FF06401304A01F09AFD43F2646300
S32D0000FCF0C1F6FF731B6818464FF000016FF045022A4B01F055F943F26463C1F6FF731B6818464FF06401244A2A
S32D0000FD1801F082FD43F26463C1F6FF731B6818466FF063014FF064021F4B01F03DF943F26463C1F6FF731B68A6
S32D0000FD40184601F0CDFC4FF000004FF07E5101F5E00102F079FF43F25063C1F6FF731B681846144903F0A4FF0A
S32D0000FD684FF000004FF07E5101F5E00102F068FF43F26463C1F6FF731B6818464FF064014FF000020A4B01F0BF
S32D0000FD900FF943F26463C1F6FF731B68184601F09FFC80BD00002C430000A040CDCC4C3E0000003F000070420B
S32D0000FDB80000E03F80B500AF43F26863C1F6FF731B68184649F2F451C0F2010104F008FE43F25463C1F6FF73CD
S32D0000FDE01B681846E24903F063FF43F26463C1F6FF731B68184601F073FC4FF000004FF07E5101F5E00102F018
S32D0000FE081FFF43F26463C1F6FF731B68D74A1A6043F26063C1F6FF731B68184600F05EFE4FF000004FF07E51D0
S32D0000FE3001F5E00102F008FF43F26463C1F6FF731B6818464FF06401CB4A01F0E9FC4FF000004FF07E5101F5FC
S32D0000FE58E00102F0F5FE43F26063C1F6FF731B68184600F04BFE4FF000004FF07E5101F5E00102F0E5FE43F24D
S32D0000FE806063C1F6FF731B6893F82430002B5FD143F26463C1F6FF731B6818464FF000014FF000024FF00103E1
S32D0000FEA801F086FA4FF000004FF07E5101F5E00102F0C6FE43F26463C1F6FF731B6818464FF06401AB4A01F051
S32D0000FED0A7FC4FF000004FF07E5101F5E00102F0B3FE43F26463C1F6FF731B6818464FF05A014FF001024FF079
S32D0000FEF8000301F05DFA4FF000004FF07E5101F5E00102F09DFE43F26463C1F6FF731B68184601F0E1FB43F2D8
S32D0000FF205463C1F6FF731B681846954903F0C0FE4FF000004FF0804102F086FE43F25463C1F6FF731B681846B8
S32D0000FF48894903F0B1FE5EE043F26463C1F6FF731B6818464FF000014FF001024FF0000301F026FA4FF00000BF
S32D0000FF704FF07E5101F5E00102F066FE43F26463C1F6FF731B6818466FF063017D4A01F047FC4FF000004FF0E6
S32D0000FF987E5101F5E00102F053FE43F26463C1F6FF731B6818464FF05A014FF000024FF0010301F0FDF94FF008
S32D0000FFC000004FF07E5101F5E00102F03DFE43F26463C1F6FF731B68184601F081FB43F25463C1F6FF731B68F6
S32D0000FFE81846654903F060FE4FF000004FF0804102F026FE43F25463C1F6FF731B681846594903F051FE43F22A
S32D000100106463C1F6FF731B6818464FF064015A4A01F0FEFB4FF000004FF07E5101F5E00102F00AFE43F26463A4
S32D00010038C1F6FF731B6818464FF000014FF000024FF0010301F0B4F94FF000004FF07E5101F5E00102F0F4FD26
S32D0001006043F26463C1F6FF731B68184601F038FB4FF000004FF07E5101F5E00102F0E4FD43F26463C1F6FF732B
S32D000100881B6818464FF064013E4A01F0C5FB4FF000004FF07E5101F5E00102F0D1FD43F26463C1F6FF731B68FF
S32D000100B018464FF05A014FF001024FF0000301F07BF94FF000004FF07E5101F5E00102F0BBFD43F26463C1F6BF
S32D000100D8FF731B68184601F0FFFA4FF000004FF07E5101F5E00102F0ABFD43F26463C1F6FF731B6818464FF0B9
S32D000101006401234A01F08CFB4FF000004FF07E5101F5E00102F098FD43F26463C1F6FF731B6818464FF0050190
S32D000101284FF000024FF0000301F042F94FF000004FF07E5101F5E00102F082FD43F26463C1F6FF731B6818465E
S32D0001015001F022FA43F26463C1F6FF731B6818464FF064014FF000020A4B00F021FF80BD0000F0410000704203
S32D00010178000010410000204000001643000040400000E04000009441000008420000803E80B500AF43F2506305
S32D000101A0C1F6FF731B681846214903F081FD4FF000004FF07E5101F5E00102F045FD43F26463C1F6FF731B684B
S32D000101C818464FF078014FF000024FF0010301F0EFF84FF000004FF07E5101F5E00102F02FFD43F26463C1F6A1
S32D000101F0FF731B6818464FF05A014FF001024FF0010301F0D9F84FF000004FF07E5101F5E00102F019FD43F24B
S32D000102185063C1F6FF731B681846034903F044FDFFF7C8FD80BD00BF0000704298B500AF00E000BF43F2686376
S32D00010240C1F6FF731B68184604F05CFA43F26863C1F6FF731B68184649F2F851C0F2010104F0D8FA43F2686333
S32D00010268C1F6FF731C6843F26063C1F6FF731B68DB6B184602F09AFE03462046194604F07BFB43F26863C1F6B9
S32D00010290FF731B68184649F20061C0F2010104F0B9FA43F26863C1F6FF731C6843F26063C1F6FF731B681B6C1D
S32D000102B8184602F07BFE03462046194604F0CCFB43F26863C1F6FF731B68184649F20C61C0F2010104F09AFA97
S32D000102E043F26863C1F6FF731C6843F26063C1F6FF731B685B6C184602F05CFE03462046194604F03DFB43F2BE
S32D000103086863C1F6FF731B68184649F21461C0F2010104F07BFA43F26863C1F6FF731C6843F26063C1F6FF7356
S32D000103301B689B6C184602F03DFE03462046194604F08EFB43F26863C1F6FF731B68184649F22061C0F2010184
S32D0001035804F05CFA43F26863C1F6FF731C6843F26063C1F6FF731B68DB6C184602F01EFE03462046194604F026
S32D000103806FFB43F26863C1F6FF731B68184649F22C61C0F2010104F03DFA43F26863C1F6FF731C6843F260638E
S32D000103A8C1F6FF731B68184600F096FC03462046194604F051FB43F26863C1F6FF731B68184649F23461C0F2C0
S32D000103D0010104F01FFA43F26863C1F6FF731C6843F26063C1F6FF731B689B6A184606F033FD03462046194607
S32D000103F804F054FA43F26863C1F6FF731B68184649F23861C0F2010104F000FA43F26863C1F6FF731C6843F232
S32D000104206063C1F6FF731B689B6A184606F024FD03462046194604F035FA43F26863C1F6FF731B68184649F24E
S32D000104484061C0F2010104F0E1F943F26863C1F6FF731C6843F26063C1F6FF731B689B6A184606F015FD03465D
S32D000104702046194604F0E0FA43F26863C1F6FF731B68184649F24C61C0F2010104F0C2F943F26863C1F6FF734C
S32D000104981C6843F26063C1F6FF731B685B6B184603F0C2F903462046194604F0ADFA43F26863C1F6FF731B68E6
S32D000104C0184649F25C61C0F2010104F0A3F943F26863C1F6FF731C6843F26063C1F6FF731B689B6B184603F0CB
S32D000104E8A3F903462046194604F08EFA43F26863C1F6FF731B68184649F26C61C0F2010104F084F943F2686388
S32D00010510C1F6FF731C6843F26063C1F6FF731B685B6D184602F0FCFD03462046194604F0B9F943F26863C1F6EF
S32D00010538FF731B68184649F27461C0F2010104F065F943F26863C1F6FF731C6843F26063C1F6FF731B681B6D52
S32D00010560184602F0DDFD03462046194604F09AF90D4802F043FB43F26063C1F6FF731B68184600F089F943F27F
S32D000105886063C1F6FF731B6818464FF0020100F0C1F90346002B3FF44CAE00BF98BD00BFCDCCCC3D80B500AF91
S32D000105B043F26463C1F6FF731B6818464FF000014FF001024FF0000300F0F6FE4FF000004FF07E5101F5E0014A
S32D000105D802F036FB43F26463C1F6FF731B6818464FF05A014FF000024FF0000300F0E0FE4FF000004FF08041A1
S32D0001060001F5A01102F020FB43F26463C1F6FF731B6818464FF000014FF000024FF0010300F0CAFE4FF0000056
S32D000106284FF07E5101F5E00102F00AFB43F26463C1F6FF731B6818464FF05A014FF001024FF0010300F0B4FE00
S32D0001065080BD00BF0000000080B500AF43F25063C1F6FF731B681846394903F021FB43F26063C1F6FF731B6874
S32D00010678184600F0F7FA43F26463C1F6FF731B68184601F04DF943F25063C1F6FF731B6818462E4903F008FB78
S32D000106A04FF000004FF07E5101F5C00102F0CCFA43F26463C1F6FF731B6818464FF064016FF06302244B00F0A2
S32D000106C873FC43F26463C1F6FF731B68184601F00FFA43F25063C1F6FF731B6818461D4903F0E2FA4FF000002E
S32D000106F04FF07E5101F5E00102F0A6FA43F26463C1F6FF731B68184601F0A6F943F25063C1F6FF731B681846DC
S32D00010718114903F0C9FA0AA1D1E9000102F090FA43F26463C1F6FF731B6818466FF063014FF00002064B00F075
S32D0001074037FC80BDAFF30080333333333333D33F0000F242000070420000003F00002C4300003442AFF3008088
S32D0001076880B582B000AF786039607B68012B0AD13A684FF6FF739A4205D143F26C60C1F6FF7005F0C3FD07F112
S32D000107900807BD4680BD00BF80B500AF4FF001004FF6FF71FFF7E0FF80BD00BF80B586B000AFF860B9607A601D
S32D000107B83B604FF0030007F055FD0246FB68DA654FF0030007F04EFD0246FB689A65FB684FF001025A61FB6811
S32D000107E02A4A1A60FB682A4A1A614FF000037B6111E0FB68DA6D7B69D3184FF000021A70FB689A6D7B69D3181E
S32D000108084FF000021A707B6903F101037B617B69022BCCBF00230123DBB2002BE5D1FB687A681A63FB683A6A24
S32D000108309A62FB683A68DA62FB687A6A5A63FB68BA6A9A63FB68FA6ADA63FB683A6B1A64FB687A6B5A64FB68E1
S32D00010858BA6B9A64FB68FA6BDA64FB683A6C1A65FB687A6C5A65FB68BA681A66FB681B6E1846064900F0C8FA68
S32D00010880FB68184607F11807BD4680BD0000804000000000CDCCCC3D90B585B000AF78604FF00003FB600DE044
S32D000108A87B689A6DFB68D3187A68D16DFA688A1812781A70FB6803F10103FB60FB68022BCCBF00230123DBB20C
S32D000108D0002BE9D17B68DC6D7B681B6B184603F047F8034623707B68DB6D03F101047B681B6B184603F04EF8EF
S32D000108F8034623707B68DB6D03F102047B681B6B184603F057F80346237007F11407BD4690BD00BF80B483B062
S32D0001092000AF78600B46FB707B68DA6DFB78D3181B78184607F10C07BD4680BC704700BF80B483B000AF78603E
S32D000109480B46FB707B68DA6DFB78D3181B78002B0CD07B689A6DFB78D3181B7883F00103DBB2002B02D04FF087
S32D00010970010301E04FF00003184607F10C07BD4680BC704780B582B000AF78607B685B6B184602F059FF7B68B0
S32D000109989B6B184602F054FF07F10807BD4680BD90B583B000AF78607B685B6B184602F03BFF04467B689B6BDB
S32D000109C0184602F035FF0346E3181846FBF772FE02460B46104619464FF000024FF08043FBF7F8FF02460B466D
S32D000109E81046194608A3D3E90023FBF7EFFF02460B4610461946FCF7A1F90346184607F10C07BD4690BD00BF25
S32D00010A10000000E02E3C164090B585B000AF78607B685B6D184602F07BFB0346FB60FB68BB607B685B6D18467A
S32D00010A3802F072FB0346FB607B681B6E184600F0F1F90346002B13D07B68DB6A184603F055FE7B68DB6A18463F
S32D00010A6049F27C61C0F2010103F0D4FE7B68DB6A1846F96803F0E0FFF868B968FCF7B6F903464FF00102144615
S32D00010A8818461449FCF756FC0346002B02D14FF000031C46E3B2002B05D07B68DB6A184603F02CFE12E07B6847
S32D00010AB01B6B184602F082FF0346002B06D07B68DB6A184603F01EFE00BF03E0044802F095F8AEE707F11407CC
S32D00010AD8BD4690BD0000C0BE0AD7233C80B582B000AF78607B685B6D184602F015FB02467B685A6007F10807FC
S32D00010B00BD4680BD90B583B000AF78607B685B6D184602F005FB02467B689A607B685B6818465049FCF762F97C
S32D00010B2803461A467B689B684FF001010C4610461946FCF71DFC0346002B02D14FF000031C46E3B2002B19D126
S32D00010B507B685B6818464449FCF748F903461A467B689B684FF001010C4610461946FCF7E5FB0346002B02D1C0
S32D00010B784FF000031C46E3B2002B46D07B684FF0010283F824207B68DB6A18464FF0020103F08AFD7B685B6808
S32D00010BA018463149FCF722F903461A467B689B684FF001010C4610461946FCF7BFFB0346002B02D14FF0000333
S32D00010BC81C46E3B2002B06D07B68DB6A18464FF0010103F069FD7B68DB6A184649F28861C0F2010103F0FCFE9B
S32D00010BF07B68DA6A7B685B681046194603F01CFF7B68DA6A7B689B681046194603F014FF24E07B684FF0000256
S32D00010C1883F824207B68DB6A18464FF0040103F043FD7B68DB6A184649F29861C0F2010103F0D6FE7B68DA6A95
S32D00010C407B685B681046194603F0F6FE7B68DA6A7B689B681046194603F0EEFE07F10C07BD4690BD0000803F88
S32D00010C689A99993E80B582B000AF78607B681B6D184602F051FA02467B68DA6007F10807BD4680BDB0B582B01C
S32D00010C9000AF78607B681B6D184602F041FA02467B681A617B681D697B68DB6818460B49FCF79CF803464FF0C2
S32D00010CB80102144628461946FCF73CFB0346002B02D14FF000031C46E3B2184607F10807BD46B0BD9A99993E5A
S32D00010CE080B586B000AF78607B689B6A184606F0B3F803467B617B689B6A184606F0BCF803463B617B689B6A2A
S32D00010D08184606F0C5F80346FB6078691649FCF707FB0346002B17D038691349FCF700FB0346002B10D0F868D8
S32D00010D300F49FCF7F9FA0346002B09D07B68DB6A18464FF0030103F0B3FC4FF000030AE07B687A699A617B68CE
S32D00010D583A69DA617B68FA681A624FF00103184607F11807BD4680BD0000000080B582B000AF7860396001F05D
S32D00010D808FFF02460B4610461946FBF7DBFF02467B681A607B683A685A607B68184607F10807BD4680BD00BF71
S32D00010DA8B0B582B000AF786001F076FF04460D467B681B681846FBF78BFC02460B4620462946FBF725FB0246F6
S32D00010DD00B4610461946FBF7B5FF0346184607F10807BD46B0BD00BF80B582B000AF786001F056FF02460B469E
S32D00010DF810461946FBF7A2FF02467B681A6007F10807BD4680BD00BF80B483B000AF786039607B683A685A6013
S32D00010E2007F10C07BD4680BC704700BF90B585B000AF78607868FFF7B7FF02467B685B684FF001010C4610467F
S32D00010E481946FCF795FA0346002B02D14FF000031C46FC73FB7B002B02D07868FFF7C0FFFB7B184607F1140751
S32D00010E70BD4690BD90B585B000AFF860B9607A603B60FB68BA685A60FB687A689A60FB683A68DA60FB68104A7A
S32D00010E981A604FF0080007F0B1F9044620460D49FFF764FFFB681C614FF0280007F0A6F9044620460849074A3B
S32D00010EC0064B01F005F9FB685C61FB68184607F11407BD4690BD00BF00007042000000000000A04190B587B0B1
S32D00010EE800AFF860B9607A60BA687B68D3187B61BA687B68D31A3B617B69642B02DD4FF064037B617B6913F1CB
S32D00010F10640F02DA6FF063037B613B69642B02DD4FF064033B613B6913F1640F02DA6FF063033B61FB685C68EF
S32D00010F387B69C3F100031846FCF70AF803462046194601F029FBFB689C683869FCF700F803462046194601F087
S32D00010F601FFB07F11C07BD4690BD00BF90B585B000AFF860B9607A60FB685C68BB68C3F100031846FBF7E8FF72
S32D00010F8803462046194601F007FBFB689C687868FBF7DEFF03462046194601F0FDFA07F11407BD4690BD00BF0B
S32D00010FB080B584B000AFF860B9607A603B60F868B9687A68FFF78EFF386801F017FEF8684FF000014FF00002A7
S32D00010FD8FFF784FF07F11007BD4680BD0000000080B582B000AF78607B681B691846FFF7F7FE7B681B691846BF
S32D000110001F49FFF705FF78684FF032014FF00002FFF768FF0AE07B681B691846FFF706FF0346002B0CD1174815
S32D0001102801F0E8FD7B68DB681B6C184601F0BEFF0346002BEBD100E000BF78684FF000014FF00002FFF74AFF9B
S32D0001105009A1D1E9000101F0F7FD78686FF063014FF00002084BFFF7A3FF07F10807BD4680BD00BFAFF3008030
S32D00011078333333333333D33F000040400AD7233C9A99193EAFF3008090B58FB000AFF860B9601346FB71FB68CD
S32D000110A0DB681846FFF71CFE034683F00103DBB2002B25D0F8684FF000014FF00002FFF711FFFB68DB68DB6A31
S32D000110C8184649F2A861C0F2010103F089FCFB68DB68DB6A1846B96803F096FCBB68C3F100031846FBF734FFDF
S32D000110F00246FB79F86811461A4600F055FD51E1FB681B691846FFF76FFEFB681B691846A649FFF77DFEFB68DA
S32D00011118DB681B6A1846FCF735F903467B627B6A3B627B6AFB61FA69BB68D318BB61BB697B63BB683B634FF0E9
S32D00011140000387F82F304FF0000387F82E30BB68002BD4BF00230123FB75BB684FEAD373BB75BB69B32B07DD30
S32D000111687B6BA3F1B4037B634FF0010387F82E30BB69002B07DA7B6B03F1B4037B634FF0010387F82F30FB6806
S32D000111901B691846FFF74AFE0346002B07D0F8684FF000014FF00002FFF79CFEFAE0FB68DB681846FFF794FDEF
S32D000111B8034683F00103DBB2002B22D0F8684FF000014FF00002FFF789FEFB68DB68DB6A184649F2B061C0F2F9
S32D000111E0010103F001FCFB68DB68DB6A1846396B03F00EFC386BFBF7AFFE0246FB79F86811461A4600F0D0FC33
S32D00011208CCE0FB68DB681B6A1846FCF7BBF803467B627B6A3B627B6ABB6297F82E30002B06D07B6A592B03DCFC
S32D00011230BB6A03F1B403BB6297F82F30002B06D07B6A5A2B03DDBB6AA3F1B403BB62BA6ABB69D31A3B63FB7D91
S32D00011258002B3AD0FB79002B19D1FB681C68386BFBF776FE034618464F49FBF7C5FE034620461946FBF7B6FD12
S32D0001128003461846FCF782F80346F8684FF000011A46FFF76BFEFB79012B1AD1386BFBF75BFE034618464249D8
S32D000112A8FBF7AAFE03461A46FB681B6810461946FBF798FD03461846FCF764F80346F86819464FF00002FFF77D
S32D000112D04DFEBB7D002B3BD0FB79002B1BD1FB681B6883F00044386BFBF736FE034618462F49FBF785FE034668
S32D000112F820461946FBF776FD03461846FCF742F80346F8684FF000011A46FFF72BFEFB79012B19D1FB681C68F0
S32D00011320386BFBF719FE034618462149FBF768FE034620461946FBF75BFD03461846FCF725F80346F868194672
S32D000113484FF00002FFF70EFE3B6B052B0ADDFB7D002B1FD0F8684FF000014FF00002FFF701FE1BE03B6B13F169
S32D00011370050F0ADABB7D002B10D0F8684FF000014FF00002FFF7F2FD0CE0F8684FF000014FF00002FFF7EAFDA3
S32D0001139800BF03E0054801F02DFCF4E607F13C07BD4690BD0000A040398EE33E0AD7233C90B589B000AFF8602B
S32D000113C0B960FA71BB71FB681B691846FFF70CFDFB681B6918466C49FFF71AFD0CE068A1D1E9000101F030FC36
S32D000113E8FB681B691846FFF71DFD0346002B0BD1FB68DB681846FFF76FFC034683F00103DBB2002BE7D100E0BC
S32D0001141000BFFB68DB681B6A1846FBF7B7FF03467B614FF00003FB61FB79002B12D1BA687B699A4204DDBA6893
S32D000114387B69D31AFB6109E0BA687B699A4205DABB6803F1B4027B69D31AFB61FB79012B12D1BA687B699A424F
S32D0001146006DDBB68A3F1B4027B69D31AFB6107E0BA687B699A4203DABA687B69D31AFB614FF0080006F0BEFEF2
S32D00011488044620463F49FFF771FC3C613869FFF7A7FC4FF00003BB61FB695A2B50DCFB6913F15A0F4CDB0FE069
S32D000114B03869FFF799FCBB79F868F9691A46FFF7E7FDBB6903F10103BB61BB69022B14DC3869FFF769FC0346F3
S32D000114D84FF00102144618462B49FBF72BFF0346002B02D14FF000031C46E3B2002BDBD13DE000BF3BE038696C
S32D00011500FFF772FCFB694FEAD372D3184FEA63031A46BB79F86811461A46FFF7B9FDFB694FEAD372D3184FEA8F
S32D0001152863031A46BB79F86811461A46FFF7ACFDBB6903F10103BB61BB69022B16DC00E000BF3869FFF72CFC0B
S32D0001155003464FF00102144618460D49FBF7EEFE0346002B02D14FF000031C46E3B2002BC5D100E000BF07F11D
S32D000115782407BD4690BD00BF9A9999999999B93F0000A041000000000000803EAFF3008090B583B000AF7860BB
S32D000115A07B681B691846FFF71FFC7B681B6918464949FFF72DFC00E000BF7B68DB68DB6B184601F0F7FC03463A
S32D000115C8002B02D04FF0640401E04FF000047B68DB681B6C184601F0E9FC0346002B02D04FF0640301E04FF03F
S32D000115F00003786821461A46FFF7B8FC374801F0FDFA7B68DB68DB6B184601F0D3FC034683F00103DBB2002B0F
S32D000116180ED07B68DB681B6C184601F0C7FC034683F00103DBB2002B02D04FF0010301E04FF00003002B14D146
S32D000116407B681B691846FFF7F1FB0346002BB3D078684FF000014FF00002FFF743FC1CA1D1E9000101F0F0FAF4
S32D000116682BE000BF78684FF000014FF00002FFF735FC4FF000004FF07E5101F5C00101F0DFFA7B68DB68DB6BC7
S32D00011690184601F08FFC0346002B08D17B68DB681B6C184601F086FC0346002B02D04FF0010301E04FF00003DA
S32D000116B8002B02D07868FFF76BFF07F10C07BD4690BD00BFAFF30080333333333333D33F0000A0400AD7233C26
S32D000116E090B583B000AF78607B681B691846FFF77BFB7B681B6918464749FFF789FB7B68DB685B6C184601F0A0
S32D0001170855FC0346002B02D06FF0630401E04FF000047B68DB689B6C184601F047FC0346002B02D06FF0630367
S32D0001173001E04FF00003786821461A46FFF716FC7B68DB685B6C184601F034FC034683F00103DBB2002B0ED0F6
S32D000117587B68DB689B6C184601F028FC034683F00103DBB2002B02D04FF0010301E04FF00003002B18D17B681B
S32D000117801B691846FFF752FB0346002B0CD078684FF000014FF00002FFF7A4FB1CA1D1E9000101F051FA2FE00C
S32D000117A81C4801F027FAA6E700BF78684FF000014FF00002FFF792FB4FF000004FF07E5101F5C00101F03CFA41
S32D000117D07B68DB685B6C184601F0ECFB0346002B08D17B68DB689B6C184601F0E3FB0346002B02D04FF0010397
S32D000117F801E04FF00003002B02D07868FFF76CFF07F10C07BD4690BD333333333333D33F0000A0400AD7233CA2
S32D0001182090B589B000AFF860B9607A604FF00103FB61BB68002B06DA4FF0FF33FB61BB68C3F10003BB60B86872
S32D00011848FBF786FB034618463249FBF7CBFA034618463149FBF784FC0346BB61F868B9684FF00002FFF73AFB40
S32D00011870FB68DB685B6B184601F0E6FFFB68DB689B6B184601F0E0FF7B687B6100E000BFFB68DB681846FFF777
S32D0001189887F8034678681946FBF7A4FA03467B61F869FBF755FB0446B8697969FBF7A4FB034618461749FBF7EB
S32D000118C097FA034620461946FBF79AFB03461846FBF75CFD0346F86819464FF00002FFF701FB4FF001031C4601
S32D000118E878690E49FBF726FD0346002B02D14FF000031C46E3B2002BC5D000BFF8684FF000014FF00002FFF7AE
S32D00011910E9FA07F12407BD4690BD00BF000070420000C0400000000090B585B000AF78607B681B691846FFF725
S32D0001193857FA7B681B6918463E49FFF765FA4FF0080006F05BFC044620463B49FFF70EFAFC60F8683949FFF794
S32D0001196057FA7B68DB681846FFF790F90346002B0AD078684FF041014FF01E02FFF7F6FAF868FFF731FA06E0A9
S32D0001198878684FF01E014FF03702FFF7EBFA7B68DB68DB6C184601F009FB034683F00103DBB2002B0AD07868AD
S32D000119B04FF000014FF00002FFF794FA07F11407BD4690BD7B681B691846FFF72FFA0346002B12D078686FF027
S32D000119D863014FF000021A4BFFF7E6FA786819494FF0000200F0DCF8786800F081F800BFB3E7F868FFF716FAB1
S32D00011A000346002B15D078686FF040016FF01D02FFF7ACFA4FF000004FF0804101F014F978680B494FF0000212
S32D00011A2800F0BEF8786800F063F8084801F0E2F893E700BF0000204100000000000000409A99193F0000F0410D
S32D00011A50000020420AD7233C80B582B000AF78607B681B691846FFF7BFF97B681B6918461F49FFF7CDF97B6898
S32D00011A78DB681846FFF706F9034683F00103DBB2002B07D078684FF041014FF01E02FFF769FA06E078684FF03C
S32D00011AA01E014FF04102FFF761FA7B681B691846FFF7BCF90346002B0FD078684FF000014FF00002FFF70EFA03
S32D00011AC807A1D1E9000101F0BBF807F10807BD4680BD064801F08EF8C9E700BFAFF30080333333333333D33F07
S32D00011AF0000080400AD7233C80B582B000AF78607B681B691846FFF76FF97B681B6918462349FFF77DF97B6836
S32D00011B18DB681846FFF7B6F8034683F00103DBB2002B0FD078684FF000014FF04602FFF719FA7B681B6918468D
S32D00011B40FFF774F90346002B0DD11AE078684FF000014FF00002FFF7C5F90FA1D1E9000101F072F811E078681B
S32D00011B684FF000014FF00002FFF7B8F908A1D1E9000101F065F800BF03E0084801F03AF8C5E707F10807BD46A9
S32D00011B9080BD00BFAFF30080333333333333D33F0000A0400AD7233CF0B589B000AFF860B9601346FB71B44BE2
S32D00011BB8FB61B44BBB61FB68DB681846FEF7DEFEFB79002B40F02C814FF001031C46B868AD49FBF7AFFB034696
S32D00011BE0002B02D14FF000031C46E3B2002B00F09B80BB6883F00043BB60FB68DB68DB6A184649F2BC61C0F222
S32D00011C08010102F003FEFB68DB68DC6AF869B968FBF7F2F903462046194602F009FF4FE0FB68DB689B6B18462C
S32D00011C3001F0FEFD03461846FAF73CFD04460D46F869B968FBF7DCF903461846FAF744FD02460B4610461946BB
S32D00011C5889A3D3E90023FAF78FFD02460B4620462946FAF7B3FE02460B46104619464FF000024FF0804303F53C
S32D00011C808803FAF77DFD02460B46104619464FF000024FF0804303F5B203FAF7BDFB02460B4610461946FBF718
S32D00011CA84DF803467B617B6983F000431846FBF769FB0346F8684FF000011A46FFF752F9FB68DB689B6B1846C1
S32D00011CD001F0AEFD03461846FAF7ECFC04460D46F869B968FBF78CF903461846FAF7F4FC02460B46104619465D
S32D00011CF861A3D3E90023FAF73FFD02460B464FF001010E4620462946FAF7A8FF0346002B02D14FF000031E4625
S32D00011D20F3B2002B80D1B8E1FB68DB68DB6A184649F2C861C0F2010102F06CFDFB68DB68DC6AF869B968FBF7BE
S32D00011D485BF903462046194602F072FE47E0FB68DB68DB6A184602F0D1FCFB68DB68DB6A184649F2D461C0F20E
S32D00011D70010102F039FEFB68DB68DC6AFB68DB689B6B184601F054FD03462046194602F03FFEFB68DB689B6BF8
S32D00011D98184601F049FD03461846FBF7D9F80446F869B968FBF728F9034620461946FBF7D7F903461846354949
S32D00011DC0FBF71EF9034618463349FBF70FF803467B617869FBF7DAFA0346F8684FF000011A46FFF7C3F8FB68A6
S32D00011DE8DB689B6B184601F01FFD03461846FBF7AFF80546F869B968FBF7FEF803464FF0010214462846194671
S32D00011E10FBF794FA0346002B02D14FF000031C46E3B2002B97D138E14FF001031C46B8681749FBF783FA03461A
S32D00011E38002B02D14FF000031C46E3B2002B00F0A680BB6883F00043BB60FB68DB68DB6A184649F2BC61C0F2BC
S32D00011E60010102F0D7FCFB68DB68DC6AF869B968FBF7C6F803462046194602F0DDFD5AE0CDCCCCCCCCCCEC3F66
S32D00011E88721C473FCDCCCC3D00000000000020420000C842FB68DB685B6B184601F0C4FC03461846FAF702FCF8
S32D00011EB004460D46F869B968FBF7A2F803461846FAF70AFC02460B46104619467CA3D3E90023FAF755FC0246E4
S32D00011ED80B4620462946FAF779FD02460B46104619464FF000024FF0804303F58803FAF743FC02460B4610461B
S32D00011F0019464FF000024FF0804303F5B203FAF783FA02460B4610461946FAF713FF03467B617869FBF732FA80
S32D00011F280346F86819464FF00002FFF71BF8FB68DB685B6B184601F077FC03461846FAF7B5FB04460D46F869C4
S32D00011F50B968FBF755F803461846FAF7BDFB02460B461046194656A3D3E90023FAF708FC02460B464FF00101BD
S32D00011F780E4620462946FAF771FE0346002B02D14FF000031E46F3B2002B83D181E0FB68DB68DB6A184649F2BB
S32D00011FA0C861C0F2010102F035FCFB68DB68DC6AF869B968FBF724F803462046194602F03BFD4AE0FB68DB688E
S32D00011FC8DB6A184602F09AFBFB68DB68DB6A184649F2D461C0F2010102F002FDFB68DB68DC6AFB68DB685B6B0A
S32D00011FF0184601F01DFC03462046194602F008FDFB68DB685B6B184601F012FC03461846FAF7A2FF0446F869A8
S32D00012018B968FAF7F1FF034620461946FBF7A0F8034618462649FAF7E7FF034618462549FAF7D8FE03467B6111
S32D000120407B6983F000431846FBF7A0F90346F86819464FF00002FEF789FFFB68DB685B6B184601F0E5FB034644
S32D000120681846FAF775FF0546F869B968FAF7C4FF03464FF00102144628461946FBF75AF90346002B02D14FF088
S32D0001209000031C46E3B2002B94D1FB68DB68DB6A18464FF0000102F003FBF8684FF000014FF00002FEF716FF33
S32D000120B807F12407BD46F0BDCDCCCCCCCCCCEC3F000020420000C84290B585B000AFF860B9607A603B60FB6854
S32D000120E0154A1A60FB68144A5A60FB68124A9A60FB68114A5A61FB680F4A1A61FB680E4ADA60FB68BA689A619F
S32D00012108FB687A68DA61FB683A681A624FF0080006F074F8044620460549FEF727FEFB685C62FB68184607F10C
S32D000121301407BD4690BD00BF0000000080B500AF43F6A872C1F6FF7243F22863C1F6FF73D31A194643F2286302
S32D00012158C1F6FF731A460B4610464FF000011A4604F0C3FF80BD00BF06F02CF800F0B0F9FFF7E0FF05F0FEFF5C
S32D0001218005F09AFF06F032F800F00CF84FF0000043F29061C1F6FF71FCF778F90346184604F082FF80B500AF9E
S32D000121A84FF4E043C4F204034FF4E042C4F2040202F5805202F13802126842F4785203F5805303F138031A60E0
S32D000121D000F02EF900F094F843F29C63C1F6FF734FF058021A6043F29C63C1F6FF731B684FF47A7202FB03F2DC
S32D000121F843F29863C1F6FF731A6043F29863C1F6FF731B681A464FF4E043C4F2040303F5825303F104031B683B
S32D0001222003F070634FEA136303F10103B2FBF3F31A4643F2A063C1F6FF731A604FF4E043C4F204034FF4E042CC
S32D00012248C4F2040202F5805202F13C02126842F0225203F5805303F13C031A604FF4E043C4F204034FF4E04291
S32D00012270C4F2040202F5805202F13002126842F0006203F5805303F130031A604FF45043C4F203034FF4807254
S32D000122981A614FF0640000F027FB4FF45043C4F203034FF45042C4F20302526922F010025A614FF45043C4F29F
S32D000122C003034FF000021A604FF45043C4F203034FF010025A6101F075F801F01DF943F29460C1F6FF7000F0EC
S32D000122E887FB43F2D060C1F6FF7002F0C5F841F2883000F065FC80BD80B400AF4FF48043C4F206034FF00002A9
S32D000123105A704FF48043C4F206034FF098021A704FF48043C4F206039B79DBB203F01003002B0CBF0023012303
S32D00012338DBB2002BF0D14FF48043C4F206039B79DBB203F00C034FEA9303022B0CBF00230123DBB2002BEED110
S32D000123604FF48043C4F206034FF018021A714FF48043C4F206034FF000025A714FF4E043C4F2040303F58253E4
S32D0001238803F104034FF00002C0F213121A604FF48043C4F206034FF054025A7100BF4FF48043C4F206039B79DC
S32D000123B0DBB203F02003002B14BF00230123DBB2002BF0D100BF4FF48043C4F206039B79DBB203F04003002B17
S32D000123D814BF00230123DBB2002BF0D14FF48043C4F206034FF48042C4F206021278D2B202F03F02D2B21A706C
S32D000124004FF48043C4F206039B79DBB203F00C034FEA9303032B0CBF00230123DBB2002BEED14FF0000318461F
S32D00012428BD4680BC704700BF80B400AF4FF44043C4F204034FF480725A634FF2C003C4F20F034FF2C002C4F2F3
S32D000124500F02526942F400525A614FF2C003C4F20F034FF2C002C4F20F02126842F400521A604FF44043C4F2C0
S32D00012478040340F20312C0F20A021A634FF46143CEF200034FF46142CEF20002D2F8882142F08062C3F888216F
S32D000124A04FF46143CEF200034FF46142CEF20002926842F080629A60BD4680BC704700BF80B483B000AF786010
S32D000124C8FEE700BF80B400AF00BEBD4680BC704780B400AF4FF0E0224CF20003C0F20003C2F8083D4FF40053FB
S32D000124F0C4F205034CF22052DA814FF40053C4F205034DF62812DA814FF40053C4F205034FF0D2021A80BD46C4
S32D0001251880BC704780B400AF4FF44043C4F20403D3F8A03003F48053002B0CBF00230123DBB2002B19D04FF4B5
S32D000125404043C4F204034FF44042C4F20402D2F8A02022F48052C3F8A0204FF2C003C4F20F034FF2C002C4F239
S32D000125680F02126822F400521A60BD4680BC704780B483B000AF78600B46FB707B68FA781A707B684FF0000234
S32D000125905A707B68184607F10C07BD4680BC704790B585B000AF786039604FF001031C4638682F49FAF7C2FE08
S32D000125B80346002B02D14FF000031C46E3B2002B02D0294B3B6011E04FF001031C4638682649FAF7CDFE0346BE
S32D000125E0002B02D14FF000031C46E3B2002B01D0204B3B603868FAF76FF802460B46104619464FF000024FF0CD
S32D00012608804303F5B203FAF7E1F902460B461046194613A3D3E90023FAF7AEF802460B4610461946FAF742FB72
S32D000126300346FB737B685B78FA7B9A420FD07B68FA7B5A707B681A78FB7B43F29460C1F6FF7011461A464FF08C
S32D000126581E0300F017FA07F11407BD4690BD00BF0000000000C05F400000C8C20000C84290B486B000AFF8609B
S32D00012680B9607A60FA684FF42043C4F206039A4214D14FF4E043C4F204034FF4E042C4F2040202F5805202F1B0
S32D000126A83402126842F4806203F5805303F134031A6083E0FA684FF43043C4F206039A4214D14FF4E043C4F2B4
S32D000126D004034FF4E042C4F2040202F5805202F13402126842F4006203F5805303F134031A6067E0FA684FF453
S32D000126F84043C4F206039A4214D14FF4E043C4F204034FF4E042C4F2040202F5805202F13402126842F48052F8
S32D0001272003F5805303F134031A604BE0FA684FF45043C4F206039A4214D14FF4E043C4F204034FF4E042C4F2F9
S32D00012748040202F5805202F13402126842F4005203F5805303F134031A602FE0FA684FF42043C4F20E039A423E
S32D0001277014D14FF4E043C4F204034FF4E042C4F2040202F5805202F12802126842F4806203F5805303F12803AF
S32D000127981A6013E04FF4E043C4F204034FF4E042C4F2040202F5805202F12802126842F4006203F5805303F1AA
S32D000127C028031A60FB68DB78DBB223F00C03DAB2FB68DA70FB684FF000029A70BB684FF47A7202FB03F27B68D2
S32D000127E84FEA031392FBF3F39CB2FB681B78DBB223F01F03FB75234603F4F8534FEA2323DBB203F01F03DAB232
S32D00012810FB7D1343DAB2FB681A70E2B2FB685A70BB684FF4FA4202FB03F27B684FEA031392FBF3F39AB22346A3
S32D0001283819464FEAC121CB1A4FEA43139BB2D3189CB2FB689B7ADBB223F01F03FB75E3B203F01F03DAB2FB7DA5
S32D000128601343DAB2FB689A72FB68DB78DBB243F00C03DAB2FB68DA7007F11807BD4690BC704700BF80B483B0F7
S32D0001288800AF786000BF7B681B79DBB203F02003002B14BF00230123DBB2002BF3D17B68DB79DBB2184607F1E6
S32D000128B00C07BD4680BC704780B483B000AF78600B46FB7000BF7B681B79DBB2DBB26FEA0303DBB24FEAD313EB
S32D000128D8DBB2002BF3D17B68FA78DA7107F10C07BD4680BC704700BF80B483B000AF78604FF4E043C4F20403E4
S32D000129004FF4E042C4F2040202F5805202F13802126842F0010203F5805303F138031A604FF00003C4F204036F
S32D000129287A689A604FF00003C4F204034FF005025A604FF00003C4F204034FF00002C4F20402126842F00102FA
S32D000129501A6000BF4FF00003C4F204031B6803F08003002B14BF00230123DBB2002BF1D14FF00003C4F2040369
S32D000129784FF00002C4F20402126822F001021A6007F10C07BD4680BC704700BF80B582B000AF786039607B6800
S32D000129A0012B0AD13A684FF6FF739A4205D143F29460C1F6FF7000F00FF807F10807BD4680BD00BF80B500AFC6
S32D000129C84FF001004FF6FF71FFF7E0FF80BD00BF80B483B000AF78607B684FF000021A707B68184607F10C0732
S32D000129F0BD4680BC704700BF80B582B000AF78607B681B7883F00103DBB2002B36D04FF4E043C4F2040303F54F
S32D00012A18805303F128034FF400621A604FF45043C4F204034FF440721A624FF45043C4F204034FF440725A6236
S32D00012A4043F29863C1F6FF731B684FEAD372D3184FEA63034FF43040C4F20E0019464FF46142FFF709FE4FF08B
S32D00012A68640000F0ADF87B684FF001021A704FF0010301E04FF00003184607F10807BD4680BD00BF80B582B066
S32D00012A9000AF7860F970BA707B704FF43040C4F20E004FF07F01FFF707FF4FF43040C4F20E004FF00801FFF72B
S32D00012AB8FFFEFB784FF43040C4F20E001946FFF7F7FEBB784FF43040C4F20E001946FFF7EFFE7B784FF430402C
S32D00012AE0C4F20E001946FFF7E7FE4FF43040C4F20E004FF0FF01FFF7DFFE07F10807BD4680BD00BF80B487B0CF
S32D00012B0800AFF860B9607A60FA6844F6D353C1F26203A3FB02134FEA9312BB68D3187B61FA6844F6D353C1F2DA
S32D00012B306203A3FB02134FEA93134FF47A7101FB03F3D31AFB60FB684FEAC33244F6D353C1F26203A3FB02135B
