S01400002E2E2F53696D706C65436F64652E73313970
S32D0000C00000000020BD380100193C0100193C0100193C0100193C0100193C01000000000000000000000000004E
S32D0000C02800000000193C0100193C010000000000193C0100193C0100193C0100193C0100193C0100193C01003A
S32D0000C050193C0100193C0100193C0100193C0100193C0100193C0100193C0100193C0100193C0100193C010066
S32D0000C078193C0100193C0100193C0100193C0100193C0100193C0100193C0100193C0100193C0100193C01003E
S32D0000C0A0193C0100193C0100193C0100193C0100193C0100193C0100193C0100193C0100193C0100193C010016
S32D0000C0C8193C0100193C0100193C0100193C0100193C0100193C0100193C0100193C0100193C0100193C0100EE
S32D0000C0F0193C0100F1780100193C0100193C0100193C0100193C0100193C0100193C0100193C0100193C0100B2
S32D0000C118193C0100193C0100193C0100193C0100193C0100193C0100193C0100193C0100193C0100193C01009D
S32D0000C140193C0100193C0100193C0100193C0100354C0100193C0100193C0100193C0100193C0100193C010049
S32D0000C168193C0100193C0100193C0100193C0100193C0100193C0100193C0100193C0100193C0100193C01004D
S32D0000C190193C0100193C0100193C0100193C0100193C0100193C0100693C0100193C0100193C0100193C0100D5
S32D0000C1B8193C0100193C0100193C0100193C0100193C0100193C0100193C0100193C0100193C0100193C0100FD
S32D0000C41081F0004102E000BF83F0004330B54FEA41044FEA430594EA050F08BF90EA020F1FBF54EA000C55EAC6
S32D0000C438020C7FEA645C7FEA655C00F0E2804FEA5454D4EB5555B8BF6D420CDD2C4480EA020281EA030382EA0F
S32D0000C460000083EA010180EA020281EA0303362D88BF30BD11F0004F4FEA01314FF4801C4CEA113102D0404263
S32D0000C48861EB410113F0004F4FEA03334CEA133302D0524263EB430394EA050F00F0A780A4F10104D5F1200E8A
S32D0000C4B00DDB02FA0EFC22FA05F2801841F1000103FA0EF2801843FA05F359410EE0A5F120050EF1200E012A2D
S32D0000C4D803FA0EFC28BF4CF0020C43FA05F3C01851EBE37101F0004507D54FF0000EDCF1000C7EEB00006EEB67
S32D0000C5000101B1F5801F1BD3B1F5001F0CD349085FEA30004FEA3C0C04F101044FEA445212F5800F80F09A8000
S32D0000C528BCF1004F08BF5FEA500C50F1000041EB045141EA050130BD5FEA4C0C404141EB010111F4801FA4F114
S32D0000C5500104E9D191F0000F04BF01460020B1FA81F308BF2033A3F10B03B3F120020CDA0C3208DD02F1140C87
S32D0000C578C2F10C0201FA0CF021FA02F10CE002F11402D8BFC2F1200C01FA02F120FA0CFCDCBF41EA0C019040B1
S32D0000C5A0E41AA2BF01EB0451294330BD6FEA04041F3C1CDA0C340EDC04F11404C4F1200220FA04F001FA02F3B6
S32D0000C5C840EA030021FA04F345EA030130BDC4F10C04C4F1200220FA02F001FA04F340EA0300294630BD21FAA8
S32D0000C5F004F0294630BD94F0000F83F4801306BF81F480110134013D4EE77FEA645C18BF7FEA655C29D094EA1C
S32D0000C618050F08BF90EA020F05D054EA000C04BF1946104630BD91EA030F1EBF0021002030BD5FEA545C05D1A3
S32D0000C6404000494128BF41F0004130BD14F580043CBF01F5801130BD01F0004545F0FE4141F470014FF0000031
S32D0000C66830BD7FEA645C1ABF194610467FEA655C1CBF0B46024650EA013406BF52EA033591EA030F41F40021D7
S32D0000C69030BD00BF90F0000F04BF0021704730B54FF4806404F132044FF000054FF0000150E700BF90F0000F66
S32D0000C6B804BF0021704730B54FF4806404F1320410F0004548BF40424FF000013EE700BF42004FEAE2014FEAF9
S32D0000C6E031014FEA02701FBF12F07F4393F07F4F81F06051704792F0000F14BF93F07F4F704730B54FF460741B
S32D0000C70801F0004521F0004120E700BF50EA010208BF704730B54FF000050AE050EA010208BF704730B511F046
S32D0000C730004502D5404261EB41014FF4806404F132045FEA915C3FF4DCAE4FF003025FEADC0C18BF03325FEAA0
S32D0000C758DC0C18BF033202EBDC02C2F1200300FA03FC20FA02F001FA03FE40EA0E0021FA02F11444C1E600BF19
S32D0000C78070B54FF0FF0C4CF4E06C1CEA11541DBF1CEA135594EA0C0F95EA0C0F00F0DEF82C4481EA030621EAF3
S32D0000C7A84C5123EA4C5350EA013518BF52EA033541F4801143F4801338D0A0FB02CE4FF00005E1FB02E506F05F
S32D0000C7D00042E0FB03E54FF00006E1FB03569CF0000F18BF4EF0010EA4F1FF04B6F5007F64F5407404D25FEA0F
S32D0000C7F84E0E6D4146EB060642EAC62141EA55514FEAC52040EA5E504FEACE2EB4F1FD0C88BFBCF5E06F1ED8D2
S32D0000C820BEF1004F08BF5FEA500E50F1000041EB045170BD06F0004646EA010140EA020081EA0301B4EB5C0487
S32D0000C848C2BFD4EB0C0541EA045170BD41F480114FF0000E013C00F3AB8014F1360FDEBF002001F0004170BDF0
S32D0000C870C4F10004203C35DA0C341BDC04F11404C4F1200500FA05F320FA04F001FA05F240EA020001F0004207
S32D0000C89821F0004110EBD37021FA04F642EB06015EEA430E08BF20EAD37070BDC4F10C04C4F1200500FA04F32F
S32D0000C8C020FA05F001FA04F240EA020001F0004110EBD37041F100015EEA430E08BF20EAD37070BDC4F12005C7
S32D0000C8E800FA05F24EEA020E20FA04F301FA05F243EA020321FA04F001F0004121FA04F220EA020000EBD37028
S32D0000C9105EEA430E08BF20EAD37070BD94F0000F0FD101F00046400041EB010111F4801F08BF013CF7D041EA6D
S32D0000C938060195F0000F18BF704703F00046520043EB030313F4801F08BF013DF7D043EA0603704794EA0C0FF1
S32D0000C9600CEA135518BF95EA0C0F0CD050EA410618BF52EA4306D1D181EA030101F000414FF0000070BD50EA38
S32D0000C988410606BF1046194652EA430619D094EA0C0F02D150EA013613D195EA0C0F05D152EA03361CBF10467B
S32D0000C9B019460AD181EA030101F0004141F0FE4141F470014FF0000070BD41F0FE4141F4780170BD70B54FF04D
S32D0000C9D8FF0C4CF4E06C1CEA11541DBF1CEA135594EA0C0F95EA0C0F00F0A7F8A4EB050481EA030E52EA03359B
S32D0000CA004FEA013100F088804FEA03334FF0805545EA131343EA12634FEA022245EA111545EA10654FEA002676
S32D0000CA280EF000419D4208BF964244F1FD0404F5407402D25B084FEA3202B61A65EB03055B084FEA32024FF461
S32D0000CA5080104FF4002CB6EB020E75EB030E22BFB61A754640EA0C005B084FEA3202B6EB020E75EB030E22BF22
S32D0000CA78B61A754640EA5C005B084FEA3202B6EB020E75EB030E22BFB61A754640EA9C005B084FEA3202B6EBEA
S32D0000CAA0020E75EB030E22BFB61A754640EADC0055EA060E18D04FEA051545EA16754FEA06164FEAC30343EAAC
S32D0000CAC852734FEAC2025FEA1C1CC0D111F4801F0BD141EA00014FF000004FF0004CB6E711F4801F04BF0143AE
S32D0000CAF00020B4F1FD0C88BFBCF5E06F3FF6AFAEB5EB030C04BFB6EB020C5FEA500C50F1000041EB045170BDBC
S32D0000CB180EF0004E4EEA113114EB5C04C2BFD4EB0C0541EA045170BD41F480114FF0000E013C90E645EA060EC3
S32D0000CB408DE60CEA135594EA0C0F08BF95EA0C0F3FF43BAF94EA0C0F0AD150EA01347FF434AF95EA0C0F7FF499
S32D0000CB6825AF104619462CE795EA0C0F06D152EA03353FF4FDAE1046194622E750EA410618BF52EA43067FF432
S32D0000CB90C5AE50EA41047FF40DAF52EA43057FF4EBAE12E74FEA410212F5001215D211D56FF47873B3EB6252CB
S32D0000CBB812D94FEAC12343F0004343EA505311F0004F23FA02F018BF404270474FF00000704750EA013005D15B
S32D0000CBE011F0004008BF6FF0004070474FF00000704700BF4A0011D212F5001211D20DD56FF47873B3EB625269
S32D0000CC080ED44FEAC12343F0004343EA505323FA02F070474FF00000704750EA013002D14FF0FF3070474FF05B
S32D0000CC30000070474FEA4102B2F1E04324BFB3F5001CDCF1FE5C0DD901F0004C4FEAC0024CEA5070B2F1004F09
S32D0000CC5840EB830008BF20F00100704711F0804F21D113F13872BCBF01F00040704741F480114FEA5252C2F148
S32D0000CC801802C2F1200C10FA0CF320FA02F018BF40F001004FEAC1234FEAD32303FA0CFC40EA0C0023FA02F3D7
S32D0000CCA84FEA4303CCE77FEA625307D150EA01331EBF4FF0FE4040F44000704701F0004040F0FE4040F4000070
S32D0000CCD0704700BF80F0004002E000BF81F0004142001FBF5FEA410392EA030F7FEA226C7FEA236C6AD04FEA20
S32D0000CCF81262D2EB1363C1BFD218414048404140B8BF5B42192B88BF704710F0004F40F4000020F07F4018BFF4
S32D0000CD20404211F0004F41F4000121F07F4118BF494292EA030F3FD0A2F1010241FA03FC10EB0C00C3F120035F
S32D0000CD4801FA03F100F0004302D5494260EB4000B0F5000F13D3B0F1807F06D340084FEA310102F10102FE2ACA
S32D0000CD7051D2B1F1004F40EBC25008BF20F0010040EA03007047490040EB000010F4000FA2F10102EDD1B0FA03
S32D0000CD9880FCACF1080CB2EB0C0200FA0CF0AABF00EBC25052421843BCBFD0401843704792F0000F81F40001A6
S32D0000CDC006BF80F400000132013BB5E74FEA41037FEA226C18BF7FEA236C21D092EA030F04D092F0000F08BF13
S32D0000CDE80846704790EA010F1CBF0020704712F07F4F04D1400028BF40F00040704712F100723CBF00F5000084
S32D0000CE10704700F0004343F0FE4040F4000070477FEA226216BF08467FEA23630146420206BF5FEA412390EA38
S32D0000CE38010F40F4800070474FF0000304E000BF10F0004348BF40425FEA000C08BF704743F0964301464FF03B
S32D0000CE6000001CE050EA010208BF70474FF000030AE000BF50EA010208BF704711F0004302D5404261EB41011C
S32D0000CE885FEA010C02BF84460146002043F0B64308BFA3F18053A3F50003BCFA8CF2083AA3EBC25310DB01FA40
S32D0000CEB002FC634400FA02FCC2F12002BCF1004F20FA02F243EB020008BF20F00100704702F1200201FA02FC0B
S32D0000CED8C2F1200250EA4C0021FA02F243EB020008BF20EADC7070474FF0FF0C1CEAD0521EBF1CEAD15392EAC9
S32D0000CF000C0F93EA0C0F6FD01A4480EA010C400218BF5FEA41211ED04FF0006343EA501043EA5111A0FB0131FF
S32D0000CF280CF00040B1F5000F3EBF490041EAD3715B0040EA010062F17F02FD2A1DD8B3F1004F40EBC25008BFC8
S32D0000CF5020F00100704790F0000F0CF0004C08BF49024CEA502040EA51207F3AC2BFD2F1FF0340EAC2507047CF
S32D0000CF7840F400004FF00003013A5DDC12F1190FDCBF00F000407047C2F10002410021FA02F1C2F1200200FA21
S32D0000CFA002FC5FEA310040F1000053EA4C0308BF20EADC70704792F0000F00F0004C02BF400010F4000F013A3E
S32D0000CFC8F9D040EA0C0093F0000F01F0004C02BF490011F4000F013BF9D041EA0C018FE70CEAD15392EA0C0FEB
S32D0000CFF018BF93EA0C0F0AD030F0004C18BF31F0004CD8D180EA010000F00040704790F0000F17BF90F0004FEB
S32D0000D018084691F0000F91F0004F14D092EA0C0F01D142020FD193EA0C0F03D14B0218BF084608D180EA0100A9
S32D0000D04000F0004040F0FE4040F40000704740F0FE4040F4400070474FF0FF0C1CEAD0521EBF1CEAD15392EAAB
S32D0000D0680C0F93EA0C0F69D0A2EB030280EA010C49024FEA402037D04FF0805343EA111143EA10130CF00040CD
S32D0000D0908B4238BF5B0042F17D024FF4000C8B4224BF5B1A40EA0C00B3EB510F24BFA3EB510340EA5C00B3EB10
S32D0000D0B8910F24BFA3EB910340EA9C00B3EBD10F24BFA3EBD10340EADC001B0118BF5FEA1C1CE0D1FD2A3FF695
S32D0000D0E050AF8B4240EBC25008BF20F0010070470CF0004C4CEA50207F32C2BFD2F1FF0340EAC250704740F47E
S32D0000D10800004FF00003013A37E792F0000F00F0004C02BF400010F4000F013AF9D040EA0C0093F0000F01F0C0
S32D0000D130004C02BF490011F4000F013BF9D041EA0C0195E70CEAD15392EA0C0F08D142027FF47DAF93EA0C0FA9
S32D0000D1587FF470AF084676E793EA0C0F04D14B023FF44CAF08466EE730F0004C18BF31F0004CCAD130F0004234
S32D0000D1807FF45CAF31F000437FF43CAF5FE700BF4FF0FF3C06E000BF4FF0010C02E000BF4FF0010C4DF804CDCE
S32D0000D1A84FEA40024FEA41037FEA226C18BF7FEA236C11D001B052EA530C18BF90EA010F58BFB2EB030088BF0F
S32D0000D1D0C81738BF6FEAE17018BF40F0010070477FEA226C02D15FEA402C05D17FEA236CE4D15FEA412CE1D089
S32D0000D1F85DF8040B704700BF844608466146FFE70FB5FFF7C9FF002848BF10F1000F0FBD4DF808EDFFF7F4FFDA
S32D0000D2200CBF012000205DF808FB00BF4DF808EDFFF7EAFF34BF012000205DF808FB00BF4DF808EDFFF7E0FF4A
S32D0000D24894BF012000205DF808FB00BF4DF808EDFFF7D2FF94BF012000205DF808FB00BF4DF808EDFFF7C8FF6A
S32D0000D27034BF012000205DF808FB00BF4FEA4002B2F1FE4F0FD34FF09E03B3EB12620DD94FEA002343F000434E
S32D0000D29810F0004F23FA02F018BF404270474FF00000704712F1610F01D1420205D110F0004008BF6FF00040FF
S32D0000D2C070474FF00000704742000ED2B2F1FE4F0BD34FF09E03B3EB126209D44FEA002343F0004323FA02F0F3
S32D0000D2E870474FF00000704712F1610F01D1420202D14FF0FF3070474FF00000704700BF036803B11B18184685
S32D0000D310704700BF03685A004CBF43F0004323F00043C018704700BF2DE9F84F0446914641B301F1FF3BDA46D1
S32D0000D338002707EB0A0101EBD1756D1004EBC5063046FFF7E3FF8046681CAB4504EBC0000DD0FFF7DBFF01381D
S32D0000D360C84504D9BD4209D005F1FF3AE5E7484505D26F1CE1E74FF0FF30F1E700263046BDE8F88F0E46304653
S32D0000D388BDE8F88F30B52B4B83B004468D1E002B49D0284601A9AFF300800346002822D02A4618460199FFF789
S32D0000D3B0BBFF054600281DD0FFF7ACFF6B68A064012B10D0281D002B22DBFFF7A3FF0021E06421650368002B2B
S32D0000D3D80FDBFFF79BFF2061002003B030BD002323610520F9E720610920F6E720610920F3E7C3F3036058B193
S32D0000D40001280CD002280ED0002020610920E8E70122E0642265DDE7094B2361E1E7094A00202261DDE70849FB
S32D0000D42800202161D9E7074B0749C81AC2100192B6E700BF0000000059D9000055D9000051D90000E0B601000E
S32D0000D450D8B80100036810B50446D80706D4990704F1480009D500F00DFD23685A0709D518070ED5D90613D5A2
S32D0000D47810BD00F0FBFC23685A07F5D404F1D00000F004FD23681807F0D404F5D87000F005FD2368D906EBD49D
S32D0000D4A004F50C70BDE8104000F040BD2DE9F0470F1D054691460FCFADF5916D02AC261D0FC60FCF0FC60FCF97
S32D0000D4C80FC697E80F00D5F80C80D5F818A0002786E80F00216C27602846FFF753FF0646B94514BF4FF00A0918
S32D0000D4F04FF00909FEB1A16B49F01009616401208DE8100449462A462B46C04700282BD1002E2AD1204692A9DC
S32D0000D5184FF410720BF088F9082F28D1216C2846FFF730FF06464FF00909002EDFD1206C21464FF41072686158
S32D0000D54092A80BF075F92F69294692AA4846B847A09B0746636401208DE8100449462A462B46C0470028D3D00F
S32D0000D5680926304622B00DF5806DBDE8F087072FF6D1201D00F06EFC38B504460D46296C2046FFF7FFFE50B9FE
S32D0000D5902A6C23696261012021462A4698470828F1D0072801D00DF07BFA281D00F056FC11B933B10220704740
S32D0000D5B804298CBF0220012070470F2A01D90220704700EB820118464A68009B1A60704710B50A4684B0002133
S32D0000D5E00B4603AC0094FFF7E3FF039804B010BD11B933B10220704704298CBF0220012070470F2A01D9022067
S32D0000D6087047009900EB8202096818465160704710B584B004AB0C4643F8042D0021009322460B46FFF7E0FF56
S32D0000D63004B010BD2DE9F04FCD6C8BB00C4655F8041B174600F008021E46039200F003080795002B40F0CF8033
S32D0000D65809020691216D8DF821300323B8F1020F8DF8203008BFA56B11F0010340F0D380019304F15803029311
S32D0000D680D5F80090B9F1000F00F0CB80022E00F0AE80B5F80090B5F802A00435A26C0F212AF0010B384693445F
S32D0000D6A8FFF796FF834518D829F0010CE3440AF0010A09F00103584543EA4A092CBF00200120B9F1010F12D0DD
S32D0000D6D032D2B8F1000F02D0002840F01D810435CEE70AF0010A09F0010343EA4A090020B9F1010FECD1B8F1F8
S32D0000D6F8000F40F0B680C8B16B68D5F800909A1C19D0029A013309920DD0281DFFF7F8FD4FEAD972014609AB50
S32D0000D72020460CF027FA002800F0F280099A002A40F0BA800835A3E7B9F1020F03D009200BB0BDE8F08F2B68A7
S32D0000D74823F000420092B8F1000F71D1002843D00398002840F0A1800098002800F0A080009BDDF80C90DB07C5
S32D0000D77005F1040A40F1B480CDF810800596A846029E12E000998D4200F0D9800996FFF7BBFD5A46014609AB19
S32D0000D79820460CF0EBF9A946B0B90AF1040A05F1010950460996FFF7ABFD09AB0146002220460CF0DBF90AF19B
S32D0000D7C0040A834609F101055046BBF1000FD9D04546059EDDF81080009A4A4564D02B68002B7BDB0099481C69
S32D0000D7E805EB800548E7D5F804A0083552E70B04C1F30740216D06930222B8F1020F05EB800508BFA56B8DF8A8
S32D0000D810210011F001038DF820203FF42DAF00200190384606A900F019FC002887D1019A002A43D1082083E722
S32D0000D8380D213846D4F82090FFF7CAFE8145CAD1A26A9542C7D10098291D00220423A062E262236361632868B9
S32D0000D86000286EDB01220192BCE70D213846D4F82090FFF7B1FE81457FF45CAFA16A8D427FF458AF2846FFF707
S32D0000D88845FD0F2102463846FFF7C2FE384600212246FFF7BDFE07204EE7009900299BD138460D21FFF794FE0E
S32D0000D8B0099B20626362A562062041E70F213846FFF78AFE0E2102463846FFF7A5FE38460F211E4AFFF7A0FEA6
S32D0000D8D8072031E7043581E7029950460991FFF70FFD039A014609AB20460CF03FF900287FF46EAFCDF8108036
S32D0000D90005960AF1040A4FF00109A846029E4CE7CDF824800835B3E62846FFF7FBFC04350646A56320460CF0C2
S32D0000D9289BF900283FF407AF38460F213246FFF76FFE072000E74546B2E7009B591C05EB81009CE7C99D010006
S32D0000D95002236FE601236DE600236BE62DE9F0470446E8B004290CD8DFE801F0380391930F00150C012B96B249
S32D0000D97800F07881052B00F0C780022068B0BDE8F087002BF9D1102AF7D82368D90600F1738164A8019200F0FF
S32D0000D9A0CFFA019AA36BD00744BF53F8040B6490910744BF53F8041B6591500744BF53F8041B6691110748BFEA
S32D0000D9C853F8042B64A8A36348BF679200F0AAFA0020D3E7002BD0D1A36BD00791B244BF53F8042B62608A0773
S32D0000D9F044BF53F8042BA260480744BF53F8042BE2600A0744BF53F8042B2261C80644BF53F8042B62618A06CD
S32D0000DA1844BF53F8042BA261480644BF53F8042BE2610A0644BF53F8042B2262C80544BF53F8042B62628A05A4
S32D0000DA4044BF53F8042BA262480544BF53F8042BE2620A0544BF53F8042B2263C80444BF53F8042B626311F405
S32D0000DA6800501CBF53F8042BA2634A0444BF53F8042BE2630A0444BF53F8042B2264002840D1A3637AE7012004
S32D0000DA9078E7032B7FF475AF160C95B2AA19102A3FF66FAF2368180700F10B8144A800F01BFAA76B4FEA450ED5
S32D0000DAB83B460DB344A90EF1FF3C01EBC60653F8040B62460CF0010146F8040B92B129B153F8041B013A46F8D3
S32D0000DAE0041B0BD01846314650F8045B41F8045B5D68031D75600E1D023AF3D107EB8E0344A8A36300F0CEF9F9
S32D0000DB0800203BE7002039E777192022BA42FFF434AF012B00F0A9800F2D40F2A9803746F6B1052B7FF429AF4E
S32D0000DB300F2D11D82268D0070ED522F00101052B2160204600F0DA8022F0030240F8482B019300F093F9019B7B
S32D0000DB581FB12268510700F1B880012B00F0BF800F2D75D9002F40F0A080D4F83890002EC8462EDD49460DF1F8
S32D0000DB80080A4FEA46080AEBC50251F8046B08F1FF3000F0010A42F8046BA8F1020CD0B1BAF1000F08D051F89B
S32D0000DBA8040B0CF1FF3CBCF1FF3F42F8040B0ED00E46104656F804AB40F804AB4968ACF1020C5160311D021DEE
S32D0000DBD0BCF1FF3FF0D109EB8808A7B3102D2CBF2E4610260DF5D079414609EBC60CACF5C8724FEA470951F886
S32D0000DBF8046B09F1FF3000F0010A42F8046BA9F1020CD0B1BAF1000F08D051F8040B0CF1FF3CBCF1FF3F42F853
S32D0000DC20040B0ED00E46104656F804AB40F804AB4968ACF1020C5160311D021DBCF1FF3FF0D108EB8908012B85
S32D0000DC482BD00F2DC4F8388008D9FFB9384695E602A8019300F016F9019B83E702A800F00DF9F2E777191022F3
S32D0000DC7050E70F2D3FF685AE102F10D9103F54E723F01003236004F50C70019200F058F9019A82E624A800F048
S32D0000DC98FDF8002072E6002746E708F1040302A8A36300F0E3F8002068E624A80193C5F1100600F0EFF8019B15
S32D0000DCC057E723F0080704F5D870276000F00CF9ECE6204622F0040140F8D01B019300F0DDF8019B3DE702A8E4
S32D0000DCE8019300F0C7F8019B002F3FF43EAFC5F110063AE741F0020140F8481B019300F0C1F8019B24E700BF81
S32D0000DD10406C7047F0B50D460F1DC96B296404460FCFADF5117D01AE0FC60FCF0FC60FCF0FC697E80F0086E85F
S32D0000DD380F004FF0FF33009310992046FFF722FB58B9266921466A46B04708280646F3D06846FFF77BFB062E4D
S32D0000DD6003D009200DF5117DF0BD20462946FFF707FC00BF10B4DC6BC1608261194600221C6410BCFFF792BBB0
S32D0000DD8838B54269C3680A6404460D4623B10122FFF788FB0CF080FE0369214602202A469847072803D008283F
S32D0000DDB004D00CF075FE281D00F050F820462946FFF7DEFBC36823B1CA6B0A640022FFF76DBB9FE7704700BF03
S32D0000DDD808B5836801460BB10120984708BD00BFF0B5D46B171D146405460C460FCFADF5277D01AE0FC60FCF3B
S32D0000DE000FC60FCF0FC697E80F0086E80F004FF0FF330093109990A8FFF7B8FA034690AA68460C21BBB9FFF70C
S32D0000DE28F7FB21466846A847064690A908206A466EB9949B98470528064601D00928E5D16846FFF703FB3046FB
S32D0000DE500DF5277DF0BD0926F6E700BF00F1340191E838009C46A6464CF8045D90E8FF0FE54600BD90EC210B26
S32D0000DE78704700BF80EC210B704700BF90EC200B704700BF80EC200B704700BFD0EC200B704700BFC0EC200B9A
S32D0000DEA0704700BFF0EC0201F0EC0211F0EC0221F0EC0231F0EC0241F0EC0251F0EC0261F0EC0271F0EC0281C7
S32D0000DEC8F0EC0291F0EC02A1F0EC02B1F0EC02C1F0EC02D1F0EC02E1F0EC02F1704700BFE0EC0201E0EC0211AF
S32D0000DEF0E0EC0221E0EC0231E0EC0241E0EC0251E0EC0261E0EC0271E0EC0281E0EC0291E0EC02A1E0EC02B1DE
S32D0000DF18E0EC02C1E0EC02D1E0EC02E1E0EC02F1704700BFB0FC0181B0FC0191B0FC01A1B0FC01B1704700BF3B
S32D0000DF40A0FC0181A0FC0191A0FC01A1A0FC01B1704700BFEC4600B52DE900502DE9FF1F4FF000032DE90C0080
S32D0000DF6801A9FFF7D3FEDDF840E012B0704700BFEC4600B52DE900502DE9FF1F4FF000032DE90C0001A9FFF768
S32D0000DF90FBFEDDF840E012B0704700BFEC4600B52DE900502DE9FF1F4FF000032DE90C0001A9FFF707FFDDF8DD
S32D0000DFB840E012B0704700BFEC4600B52DE900502DE9FF1F4FF000032DE90C0001ABFFF7CDFEDDF840E012B0DA
S32D0000DFE0704700BFEC4600B52DE900502DE9FF1F4FF000032DE90C0001AAFFF7F5FEDDF840E012B0704700BFF7
S32D0000E008027A03461AB9427A42B9B02070470068013A01021A72000E196070474168501E587251F8040B032246
S32D0000E030596001021A72000E1960704710B5002184B00C220DEB02040B460094FFF7B0FA039804B010BD00BF96
S32D0000E058F0E700BF2DE9F043064685B00D464FF000094FF47F672846FFF7CAFFB028044600F0B08010F0800186
S32D0000E08020D000F0F003802B74D0902B37D0A02B45D0B02B56D0C02B00F0858000F0F800D0280BD104F0070274
S32D0000E0A8511C41F40022304601210523FFF752FC0028D8D0092005B0BDE8F0834FEA800203A85FFA82F80090F3
S32D0000E0D00D220B463046FFF76BFA039B600608F104084CBFC8EB0303434403AC03930094002130460D220B468D
S32D0000E0F8FFF77AFAB7E700F00F020D2ADAD00F2AD8D0002103AC009430460B4603ACFFF74BFA0094E8E7C243B2
S32D0000E12002F0070C47FA0CF0210700F47F6248BF42F48042002130460B46FFF70FFC0028BCD194E7B1285DD074
S32D0000E148B2286ED0B32800F0958000F0FC02B42A46D000F00702531C43F40022012130460B46FFF7F7FB002815
S32D0000E170A4D17CE72846FFF747FF210240EA0104B4F5004F9AD0230500211A0C30460B462401FFF7E3FB0028F4
S32D0000E19890D114F4004F18BF4FF0010963E7C62873D0C72800F0848000F0F802C02A00F09280C82800F0A68047
S32D0000E1C0C9287FF47BAF2846FFF71EFF00F00F0300F0F0015A1C42EA013268E7B9F1000F00F0838000206AE7FE
S32D0000E1E800F00301481C022140F480220B463046FFF7B0FB00287FF45DAF34E72846FFF7FFFE024600283FF48A
S32D0000E21055AF10F0F0017FF451AF30460B46FFF79DFB00287FF44AAF21E700210D220B4603AC30460094FFF737
S32D0000E238BBF92846FFF7E4FE022402060DD5039B00F07F0000FA04FE03EB0E0128460391FFF7D6FE0734030698
S32D0000E260F1D4039B00F07F0103AA03F5017C01FA04F400920CEB0402039239E72846FFF7C3FE00F00F03591CC8
S32D0000E28800F0F00041EA003268E72846FFF7B8FE00F00F03591C00F0F00041EA0032032130460B46FFF756FBDC
S32D0000E2B000287FF403AFDAE62846FFF7A5FE024600283FF4FBAE10F0F0037FF4F7AE30460421FFF743FB0028DE
S32D0000E2D87FF4F0AEC7E600F00F01481C40F42022DDE703AC49460E224B4630460094FFF75BF9304649460F2233
S32D0000E3004B460094FFF774F94846D8E62846FFF77BFE00F0F00200F00F001032431C43EA0232C4E610B5C26CBE
S32D0000E32884B0032054688DF80C00D37924020832084601A9019402928DF80D30FFF78AFE04B010BD08B5FFF7E2
S32D0000E35083FE806C08BD00BF08B5FFF77DFEC16CC87901EB800303F1080008BD08B50CF097FB00BF08B50CF01F
S32D0000E37893FB00BF2DE9F04F8DB00AAF4FF003000BF0E4FA044620464FF0030106F00EFE43F22863C1F6FF73E6
S32D0000E3A01C604FF001000BF0D5FA044620464FF0000106F04BFA43F22C63C1F6FF731C604FF001000BF0C6FA3A
S32D0000E3C8044620464FF0010106F068F843F23863C1F6FF731C604FF001000BF0B7FA044620464FF0020106F097
S32D0000E3F059F843F23463C1F6FF731C604FF001000BF0A8FA044620464FF0030106F04AF843F24463C1F6FF7330
S32D0000E4181C604FF001000BF099FA044620464FF0040106F00FFA43F23063C1F6FF731C604FF01C000BF08AFA52
S32D0000E440044620464FF0080106F050FC43F25863C1F6FF731C604FF01C000BF07BFA044620464FF0090106F025
S32D0000E46841FC43F25C63C1F6FF731C604FF001000BF06CFA044620464FF0100106F00EF843F24063C1F6FF7312
S32D0000E4901C604FF001000BF05DFA044620464FF0110105F0FFFF43F23C63C1F6FF731C604FF002000BF04EFA5F
S32D0000E4B8044620464FF0000105F000FC43F24863C1F6FF731C604FF002000BF03FFA044620464FF0010105F075
S32D0000E4E0F1FB43F24C63C1F6FF731C604FF00C000BF030FA044620464FF0000106F024FF43F25063C1F6FF730F
S32D0000E5081C604FF00C000BF021FA044620464FF0010106F015FF43F25463C1F6FF731C6043F25063C1F6FF736B
S32D0000E5301B6818464FF4FA7106F024FF43F25063C1F6FF731B68184640F67F1106F038FF43F25463C1F6FF731B
S32D0000E5581B6818464FF4FA7106F010FF43F25463C1F6FF731B68184640F6C41106F024FF43F26863C1F6FF73BE
S32D0000E58043F2CC62C1F6FF721A6043F26863C1F6FF731B6818464FF0000107F031FC43F26863C1F6FF731B684E
S32D0000E5A818464FF0010107F085FC43F27463C1F6FF7343F26C62C1F6FF721A604FF008000BF0C4F904462046A5
S32D0000E5D0DFF8B41404F0A2F843F27863C1F6FF731C604FF008000BF0B5F904462046DFF8981404F093F843F264
S32D0000E5F87C63C1F6FF731C604FF064000BF0A6F9044643F27863C1F6FF73196843F22863C1F6FF731A6843F290
S32D0000E6206863C1F6FF731D6843F27463C1F6FF731B687B6043F25863C1F6FF73D3F800B043F25C63C1F6FF730F
S32D0000E648D3F800A043F23463C1F6FF73D3F8009043F23863C1F6FF73D3F8008043F23C63C1F6FF73D3F800C01D
S32D0000E67043F24063C1F6FF73D3F800E043F24463C1F6FF731E6843F23063C1F6FF73186843F22C63C1F6FF73E7
S32D0000E6981B683B607B680093CDF804B0CDF808A0CDF80C90CDF81080CDF814C0CDF818E0079608903B6809935A
S32D0000E6C020462B4603F016FD43F26063C1F6FF731C604FF018000BF03DF9044643F24863C1F6FF73196843F221
S32D0000E6E84C63C1F6FF731A6843F26063C1F6FF731B68204604F08EF843F26463C1F6FF731C6043F28463C1F6B2
S32D0000E710FF734FF00C021A6043F28463C1F6FF731B684FEA830318460BF048F9024643F28863C1F6FF731A6076
S32D0000E73843F28863C1F6FF731B6803F104024AF66043C0F20103136043F28863C1F6FF731A684AF66843C0F279
S32D0000E7600103136043F28863C1F6FF731B6803F120024AF67443C0F20103136043F28863C1F6FF731B6803F152
S32D0000E78808024AF67C43C0F20103136043F28863C1F6FF731B6803F10C024AF68C43C0F20103136043F288630B
S32D0000E7B0C1F6FF731B6803F110024AF69843C0F20103136043F28863C1F6FF731B6803F114024AF69C43C0F29E
S32D0000E7D80103136043F28863C1F6FF731B6803F118024AF6A443C0F20103136043F28863C1F6FF731B6803F1B2
S32D0000E8001C024AF6B443C0F20103136043F28863C1F6FF731B6803F124024AF6C443C0F20103136043F28863F6
S32D0000E828C1F6FF731B6803F128024AF6CC43C0F20103136043F28863C1F6FF731B6803F12C024AF6DC43C0F281
S32D0000E8500103136043F28063C1F6FF734FF000021A6043F26063C1F6FF731B684FF0010283F8242043F260638A
S32D0000E878C1F6FF731B68184603F0B4FC43F26063C1F6FF731B6818464FF0010103F0FEFC0346002B12D043F20A
S32D0000E8A08863C1F6FF731A6843F28063C1F6FF731B684FEA8303D3181B68184600F0E8F800BFD7E743F2606320
S32D0000E8C8C1F6FF731B6818464FF0000103F0DEFC0346002B22D043F28063C1F6FF731B6803F1FF3243F28063A4
S32D0000E8F0C1F6FF731A6043F28063C1F6FF731B68002B0FDA43F28063C1F6FF731A6843F28463C1F6FF731B68F4
S32D0000E918D21843F28063C1F6FF731A6043F26063C1F6FF731B6818464FF0020103F0AEFC0346002B29D043F2A9
S32D0000E9408063C1F6FF731B6803F1010243F28063C1F6FF731A6043F28463C1F6FF731B6803F1FF3243F2806363
S32D0000E968C1F6FF731B689A420FDA43F28063C1F6FF731A6843F28463C1F6FF731B68D21A43F28063C1F6FF7358
S32D0000E9901A6043F27863C1F6FF731B68184603F019FF0346002B6BD043F26863C1F6FF731B6818464FF00001C1
S32D0000E9B807F022FA43F26863C1F6FF731B6818464AF6E841C0F2010107F0C8FA43F26863C1F6FF731A6843F25E
S32D0000E9E08863C1F6FF73196843F28063C1F6FF731B684FEA8303CB181B681046194607F09BFB43F26863C1F692
S32D0000EA08FF731B6818464AF6F441C0F2010107F08FFB43F26863C1F6FF731B6818464AF60C51C0F2010107F091
S32D0000EA3083FB43F26863C1F6FF731B6818464AF62451C0F2010107F08DFA43F26863C1F6FF731A6843F26063A6
S32D0000EA58C1F6FF731B6893F82430002B04D04AF63053C0F2010303E04AF63853C0F201031046194607F05CFB26
S32D0000EA80024805F063FCF5E6000000000AD7233C80B582B000AF786043F26063C1F6FF731B6893F82430002B13
S32D0000EAA81ED07A684AF6DC43C0F201039A4217D04FF000004FF07E5101F5E00105F068FC43F27463C1F6FF73E6
S32D0000EAD01B68184609F00AF843F27463C1F6FF731B68184609F0BCFC7A684AF69843C0F201039A4202D102F021
S32D0000EAF835FE9AE07A684AF68C43C0F201039A4202D103F019F890E07A684AF69C43C0F201039A4202D103F020
S32D0000EB205DF886E07A684AF67C43C0F201039A4202D101F0A9FD7CE07A684AF66043C0F201039A4202D100F0B9
S32D0000EB482FFF72E07A684AF66843C0F201039A4202D100F071F868E07A684AF67443C0F201039A4202D103F01B
S32D0000EB7017FA5EE07A684AF6C443C0F201039A4202D102F071FD54E07A684AF6A443C0F201039A4202D103F0A5
S32D0000EB98DDF94AE07A684AF6B443C0F201039A4202D102F001FC40E07A684AF6CC43C0F201039A4202D102F03A
S32D0000EBC0BBFC36E07A684AF6DC43C0F201039A4211D143F26063C1F6FF731A6843F26063C1F6FF731B6893F8D3
S32D0000EBE8243083F00103DBB282F824301DE043F26863C1F6FF731B6818464FF0060107F0FBF843F26863C1F6EB
S32D0000EC10FF731B6818464AF64451C0F2010107F08BFA4FF000004FF0804101F5101105F0B3FB07F10807BD467B
S32D0000EC3880BD00BF00000000F0B583B000AF43F26063C1F6FF731B68184603F08DFB43F25063C1F6FF731B681A
S32D0000EC601846574906F0CCFB43F25463C1F6FF731B681846534906F0C3FB43F26063C1F6FF731C6843F27463D4
S32D0000EC88C1F6FF731B68184609F028FC0346636143F26863C1F6FF731B6818464AF65451C0F2010107F05AF93D
S32D0000ECB043F26863C1F6FF731A6843F26063C1F6FF731B685B691046194607F079F943F26463C1F6FF731B685D
S32D0000ECD818463B494FF0010204F07AFC34A1D1E9000105F055FB43F26463C1F6FF731B68184604F065F943F21E
S32D0000ED006463C1F6FF731B6818466FF063012F4A04F09EFA28A1D1E9000105F03DFB43F26463C1F6FF731B68F3
S32D0000ED28184629494FF0000204F052FC20A1D1E9000105F02DFB43F26463C1F6FF731B6818464FF06401214ABC
S32D0000ED5004F07EFA43F26463C1F6FF731B68184603F00AFE4FF001037B600BE043F26463C1F6FF731B68184619
S32D0000ED7803F0FEFD7B6803F101037B6043F27463C1F6FF731B68184609F0BAFB024643F26063C1F6FF731B6819
S32D0000EDA05B699A4218DA7B68052B15DC4FF0010314E000BFAFF30080333333333333D33F000070420000F04170
S32D0000EDC80000B4C20000003F0000B442000040404FF00003002BC5D143F26463C1F6FF731B6818466FF0630126
S32D0000EDF0D34A04F02DFACEA1D1E9000105F0CCFA43F26463C1F6FF731B681846CD494FF0000204F0E1FBC6A144
S32D0000EE18D1E9000105F0BCFA43F26463C1F6FF731B68184604F0CCF843F26063C1F6FF731B68184603F0EAFBCE
S32D0000EE4043F26463C1F6FF731B6818466FF06301BD4A04F0FDF9B6A1D1E9000105F09CFA43F26463C1F6FF7328
S32D0000EE681B681846B5494FF0000204F0B1FB43F25063C1F6FF731B681846B24906F0BCFAA9A1D1E9000105F029
S32D0000EE9083FA43F26463C1F6FF731B6818464FF06401AB4A04F0D4F943F26463C1F6FF731B681846A7494FF042
S32D0000EEB8000204F08DFB43F26463C1F6FF731B68184604F02DFB43F26463C1F6FF731B68184604F03DFA94A126
S32D0000EEE0D1E9000105F058FA43F25063C1F6FF731B681846984906F083FA43F26463C1F6FF731B6818466FF057
S32D0000EF086301944A04F0A0F943F25063C1F6FF731B681846904906F06FFA4FF000004FF07E5101F5E00105F0C9
S32D0000EF3033FA43F25063C1F6FF731B681846834906F05EFA43F26463C1F6FF731B6818464FF000014FF03202C1
S32D0000EF58824B03F0F1FC43F26463C1F6FF731B68184604F0F5F943F25063C1F6FF731B681846774906F040FA14
S32D0000EF804FF000004FF07E5101F5C00105F004FA43F26463C1F6FF731B6818464FF064016FF06302704B03F050
S32D0000EFA8CBFC43F26463C1F6FF731B68184604F0B7FA43F25063C1F6FF731B681846664906F01AFA4FF00000DF
S32D0000EFD04FF07E5101F5E00105F0DEF943F26463C1F6FF731B68184604F04EFA43F25063C1F6FF731B6818462E
S32D0000EFF85C4906F001FA4CA1D1E9000105F0C8F943F26463C1F6FF731B6818466FF06301554A04F019F94FF04A
S32D0000F02000004FF07E5101F5F00105F0B5F943F26463C1F6FF731B6818464FF064014FF000024C4B03F07CFC3D
S32D0000F0484FF000004FF07E5101F5C00105F0A0F943F26463C1F6FF731B6818466FF06301414A04F0F1F843F2A2
S32D0000F0706463C1F6FF731B68324A5A604FF000004FF07E5101F5C00105F086F943F26463C1F6FF731B6818464B
S32D0000F09804F03AF843F26463C1F6FF731B6818464FF06401324A04F0CFF81FA1D1E9000105F06EF943F2646370
S32D0000F0C0C1F6FF731B6818462C494FF0010204F083FA17A1D1E9000105F05EF943F26463C1F6FF731B6818462B
S32D0000F0E86FF03B016FF0270203F004FC10A1D1E9000105F04DF943F26463C1F6FF731B6818464FF064011C4A2D
S32D0000F11004F09EF806A1D1E9000105F03DF943F26463C1F6FF731B6818462BE0AFF30080333333333333D33F43
S32D0000F138333333333333F33F000080410000B442000020400000F242000060400000F041000070420000C04077
S32D0000F16000002C439A99993E0000003F00003442000000400000403F0000D8400000B4C200000041CE494FF06F
S32D0000F188000204F025FACAA1D1E9000105F000F943F26463C1F6FF731B6818464FF06401C64A04F051F8C2A1D6
S32D0000F1B0D1E9000105F0F0F843F26463C1F6FF731B6818464FF05A014FF001024FF0000303F0EEFDB8A1D1E984
S32D0000F1D8000105F0DDF843F26463C1F6FF731B68184603F091FF43F26063C1F6FF731B68184603F03DF943F255
S32D0000F2006463C1F6FF731B6818464FF06401AE4A04F01EF8A8A1D1E9000105F0BDF843F26063C1F6FF731B6817
S32D0000F228184603F035F943F26063C1F6FF731B6893F8253083F00103DBB2002B4DD043F26463C1F6FF731B68C1
S32D0000F25018469E494FF0010204F0BEF943F26463C1F6FF731B68184603F052FF43F26463C1F6FF731B6818460E
S32D0000F2784FF06401944A03F0E7FF8DA1D1E9000105F086F843F26463C1F6FF731B6818468E494FF0000204F09F
S32D0000F2A09BF943F26463C1F6FF731B68184603F02FFF43F26463C1F6FF731B6818464FF06401814A03F0C4FF5A
S32D0000F2C87BA1D1E9000105F063F843F26063C1F6FF731B68184603F0DBF843F26463C1F6FF731B681846794961
S32D0000F2F04FF0000204F070F96FA1D1E9000105F04BF843F26463C1F6FF731B68184603F0FFFE43F26463C1F6A6
S32D0000F318FF731B6818464FF064016D4A03F094FF43F26463C1F6FF731B68184665494FF0010204F04DF95EA164
S32D0000F340D1E9000105F028F843F26463C1F6FF731B68184603F0DCFE43F26063C1F6FF731B6893F82630012B4B
S32D0000F36819D143F25463C1F6FF731B681846594906F042F84FF000004FF07E5101F5D00105F006F843F25463D2
S32D0000F390C1F6FF731B681846514906F031F843F25063C1F6FF731B6818464E4906F028F843F26463C1F6FF73C8
S32D0000F3B81B6818464FF06401494A03F045FF43F26463C1F6FF731B6818464FF000016FF04502444B03F0B0FAC0
S32D0000F3E043F26463C1F6FF731B6818464FF064013D4A03F02DFF43F26463C1F6FF731B6818466FF063014FF0A7
S32D0000F4086402394B03F098FA43F26463C1F6FF731B68184603F078FE43F25063C1F6FF731B681846314905F097
S32D0000F430E7FF43F26463C1F6FF731B6818464FF064014FF000022C4B03F07AFA43F26463C1F6FF731B681846F9
S32D0000F45828494FF0010204F0BBF843F26463C1F6FF731B68184603F04FFE43F26463C1F6FF731B6818464FF0A1
S32D0000F4806401104A03F0E4FE43F26463C1F6FF731B6818461A494FF0010204F09DF843F26463C1F6FF731B68EE
S32D0000F4A8184603F08DFD43F26463C1F6FF7325E0333333333333D33F0000C84100000041000010410000B4C2DC
S32D0000F4D0000098410000B44200002041000016430000F04100002C430000A040CDCC4C3E0000003F00007042F1
S32D0000F4F80000A03F000070C10000C8C21B68184603F002FE43F26063C1F6FF731B6893F82630002B55D143F26D
S32D0000F5206463C1F6FF731B6818464FF06401BC4A03F08EFE43F26463C1F6FF731B681846B8494FF0000204F087
S32D0000F54847F843F26463C1F6FF731B68184603F0DBFD43F25463C1F6FF731B681846B04905F04AFF4FF0000019
S32D0000F5704FF07E5101F5D00104F00EFF43F25463C1F6FF731B681846A84905F039FF43F26463C1F6FF731B68DB
S32D0000F59818464FF06401A44A03F056FE43F26463C1F6FF731B681846A0494FF0010204F00FF843F26463C1F62F
S32D0000F5C0FF731B68184603F0A3FD43F26463C1F6FF731B6818464FF06401974A03F038FE8DA1D1E9000104F0A6
S32D0000F5E8D7FE43F26463C1F6FF731B6818468B494FF0000203F0ECFF85A1D1E9000104F0C7FE43F26463C1F6DA
S32D0000F610FF731B68184603F07BFD43F25463C1F6FF731B681846804905F0EAFE43F26463C1F6FF731B6818466C
S32D0000F6384FF064017F4A03F007FE43F25463C1F6FF731B681846774905F0D6FE43F27C63C1F6FF731B681846A2
S32D0000F66003F096F843F27C63C1F6FF731B681846734903F0A1F843F26063C1F6FF731B68DB6B184605F03EF822
S32D0000F688034683F00103DBB2002B0ED143F26063C1F6FF731B681B6C184605F02FF8034683F00103DBB2002BE0
S32D0000F6B002D04FF0010301E04FF00003002B08D043F26463C1F6FF731B68184603F07CFCC0E043F26063C1F631
S32D0000F6D8FF731B68184602F0D3FF0346002B65D043F26063C1F6FF731B68DB6A18464FF0000106F081FB43F216
S32D0000F7006463C1F6FF731E6843F26063C1F6FF731B689B694B481946FDF7E0FA03461846FCF7DAFF02460B46F1
S32D0000F728104619464FF000024FF0804303F5B203FDF722F802460B46104619464FF000024FF0804303F5101354
S32D0000F750FDF740F902460B4614461D4643F26063C1F6FF731B681B6A18462E49FDF7B6FA034618463449FDF74E
S32D0000F778BBFB034618463349FDF76AFC03461846FCF7A6FF02460B4620462946FCF742FE02460B461046194602
S32D0000F7A0FDF700FA034630464FF03C011A4603F061F80BE043F26463C1F6FF731B6818464FF032014FF00002C2
S32D0000F7C803F054F843F27C63C1F6FF731B68184602F0FCFF0346002B14D043F26463C1F6FF731B6818464FF02C
S32D0000F7F000014FF0000203F03DF843F26463C1F6FF731B68184603F0DFFB23E0104804F09DFD30E7AFF300808C
S32D0000F818333333333333D33F000060410000B442000016430000F041000000410000B4C2000098410000084283
S32D0000F8400000A040000080BF0000C8420000DC420AD7233C43F26463C1F6FF731B6818466FF063016FF0630286
S32D0000F868494B03F069F846A1D1E9000104F090FD43F26463C1F6FF731B6818464FF064016FF06302404B03F07B
S32D0000F89057F83DA1D1E9000104F07EFD43F26463C1F6FF731B6818466FF063016FF06302374B03F045F834A1DF
S32D0000F8B8D1E9000104F06CFD43F26463C1F6FF731B6818464FF064016FF063022E4B03F033F82BA1D1E900017E
S32D0000F8E004F05AFD43F26463C1F6FF731B68184628494FF0000203F06FFE23A1D1E9000104F04AFD43F26463E1
S32D0000F908C1F6FF731B68184621494FF0000203F05FFE43F26463C1F6FF731B6818461D494FF0010203F054FED9
S32D0000F93043F26463C1F6FF731B68184603F0E8FB43F26463C1F6FF731B68184614494FF0000203F041FE43F2C2
S32D0000F9586463C1F6FF731B68184603F031FB43F26463C1F6FF731B6818464FF064014FF00002054B02F0E0FF85
S32D0000F98007F10C07BD46F0BD333333333333D33F0000803E000070420000B4420000B4C20000F0C2AFF30080AA
S32D0000F9A8F0B583B000AF43F26063C1F6FF731B68184602F0D9FC43F25063C1F6FF731B681846574905F018FD45
S32D0000F9D043F25463C1F6FF731B681846534905F00FFD43F26063C1F6FF731C6843F27463C1F6FF731B681846BB
S32D0000F9F808F074FD0346636143F26863C1F6FF731B6818464AF65451C0F2010106F0A6FA43F26863C1F6FF7309
S32D0000FA201A6843F26063C1F6FF731B685B691046194606F0C5FA43F26463C1F6FF731B6818463B494FF0010298
S32D0000FA4803F0C6FD34A1D1E9000104F0A1FC43F26463C1F6FF731B68184603F0B1FA43F26463C1F6FF731B686D
S32D0000FA7018466FF063012F4A03F0EAFB28A1D1E9000104F089FC43F26463C1F6FF731B6818464FF000014FF074
S32D0000FA9801024FF0000303F087F91FA1D1E9000104F076FC43F26463C1F6FF731B6818464FF064011E4A03F0A2
S32D0000FAC0C7FB43F26463C1F6FF731B68184602F053FF4FF001037B600BE043F26463C1F6FF731B68184602F00B
S32D0000FAE847FF7B6803F101037B6043F27463C1F6FF731B68184608F003FD024643F26063C1F6FF731B685B6936
S32D0000FB109A4213DA7B68052B10DC4FF001030FE0333333333333D33F000070420000F0410000B4C20000003FF1
S32D0000FB38000040404FF00003002BCAD143F26463C1F6FF731B6818466FF06301D64A03F07BFBD1A1D1E9000198
S32D0000FB6004F01AFC43F26463C1F6FF731B6818464FF05A014FF001024FF0000303F018F9C7A1D1E9000104F02E
S32D0000FB8807FC43F26463C1F6FF731B68184603F017FA43F26063C1F6FF731B68184602F035FD43F26463C1F669
S32D0000FBB0FF731B6818466FF06301BE4A03F048FBB7A1D1E9000104F0E7FB43F26463C1F6FF731B6818464FF0A5
S32D0000FBD800014FF001024FF0000303F0E5F843F25063C1F6FF731B681846B14905F004FCA9A1D1E9000104F0D0
S32D0000FC00CBFB43F26463C1F6FF731B6818464FF06401AA4A03F01CFB43F26463C1F6FF731B68184603F080FCF3
S32D0000FC2843F26463C1F6FF731B68184603F090FB4FF000004FF07E5101F5C00104F0A8FB43F25063C1F6FF737E
S32D0000FC501B6818469A4905F0D3FB43F26463C1F6FF731B6818466FF06301964A03F0F0FA43F25063C1F6FF7368
S32D0000FC781B681846924905F0BFFB4FF000004FF07E5101F5E00104F083FB43F25063C1F6FF731B68184686499C
S32D0000FCA005F0AEFB43F26463C1F6FF731B6818464FF000014FF03202844B02F041FE43F26463C1F6FF731B6837
S32D0000FCC8184603F045FB43F25063C1F6FF731B681846794905F090FB4FF000004FF07E5101F5C00104F054FB02
S32D0000FCF043F26463C1F6FF731B6818464FF064016FF06302724B02F01BFE43F26463C1F6FF731B68184603F0B7
S32D0000FD1807FC43F25063C1F6FF731B681846684905F06AFB4FF000004FF07E5101F5E00104F02EFB43F2646380
S32D0000FD40C1F6FF731B68184603F09EFB43F25063C1F6FF731B6818465E4905F051FB50A1D1E9000104F018FB72
S32D0000FD6843F26463C1F6FF731B6818466FF06301574A03F069FA4FF000004FF07E5101F5F00104F005FB43F250
S32D0000FD906463C1F6FF731B6818464FF064014FF000024B4B02F0CCFD4FF000004FF07E5101F5C00104F0F0FA5C
S32D0000FDB843F26463C1F6FF731B6818466FF06301434A03F041FA43F26463C1F6FF731B68404A5A604FF000006E
S32D0000FDE04FF07E5101F5C00104F0D6FA43F26463C1F6FF731B68184603F08AF943F26463C1F6FF731B681846EA
S32D0000FE084FF06401344A03F01FFA23A1D1E9000104F0BEFA43F26463C1F6FF731B6818464FF000014FF00002EC
S32D0000FE304FF0010302F0BCFF19A1D1E9000104F0ABFA43F26463C1F6FF731B6818466FF03B016FF0270202F08B
S32D0000FE5851FD13A1D1E9000104F09AFA43F26463C1F6FF731B6818464FF064011B4A03F0EBF909A1D1E90001EC
S32D0000FE8004F08AFA43F26463C1F6FF731B68184615494FF0000203F09FFB27E0AFF30080333333333333D33F3D
S32D0000FEA8333333333333F33F00008041000020400000F2420000C03F000070420000C04000002C439A99993E49
S32D0000FED00000003F00003442000000400000B4420000D840000000410000C841CAA1D1E9000104F051FA43F21D
S32D0000FEF86463C1F6FF731B6818464FF06401C64A03F0A2F9C2A1D1E9000104F041FA43F26463C1F6FF731B68D4
S32D0000FF2018464FF05A014FF001024FF0000302F03FFFB9A1D1E9000104F02EFA43F26463C1F6FF731B681846D0
S32D0000FF4803F0E2F843F26063C1F6FF731B68184602F08EFA43F26463C1F6FF731B681846AE494FF0010203F010
S32D0000FF7033FB43F26463C1F6FF731B68184603F023F843F26463C1F6FF731B6818466FF06301A54A03F05CF921
S32D0000FF989FA1D1E9000104F0FBF943F26463C1F6FF731B6818469F494FF0010203F010FB43F26463C1F6FF7305
S32D0000FFC01B68184603F0A4F843F26463C1F6FF731B6818464FF06401954A03F039F98EA1D1E9000104F0D8F946
S32D0000FFE843F26063C1F6FF731B68184602F050FA43F26463C1F6FF731B6818464FF000014FF001024FF00003E3
S32D0001001002F0CEFE80A1D1E9000104F0BDF943F26463C1F6FF731B68184603F071F843F26463C1F6FF731B6873
S32D0001003818464FF064017A4A03F006F943F26463C1F6FF731B6818464FF05A014FF000024FF0010302F0A8FE25
S32D000100606DA1D1E9000104F097F943F26463C1F6FF731B68184603F04BF843F26063C1F6FF731B6893F8263063
S32D00010088012B19D143F25463C1F6FF731B681846664905F0B1F94FF000004FF07E5101F5D00104F075F943F244
S32D000100B05463C1F6FF731B6818465F4905F0A0F943F25063C1F6FF731B6818465B4905F097F943F26463C1F65C
S32D000100D8FF731B6818464FF06401574A03F0B4F843F26463C1F6FF731B6818464FF000016FF04502514B02F048
S32D000101001FFC43F26463C1F6FF731B6818464FF064014B4A03F09CF843F26463C1F6FF731B6818466FF0630126
S32D000101284FF06402464B02F007FC43F26463C1F6FF731B68184602F0E7FF43F25063C1F6FF731B6818463F4925
S32D0001015005F056F943F26463C1F6FF731B6818464FF064014FF00002394B02F0E9FB43F26463C1F6FF731B684F
S32D00010178184636494FF0010203F02AFA43F26463C1F6FF731B68184602F0BEFF43F26463C1F6FF731B68184667
S32D000101A020494FF0010203F017FA43F26463C1F6FF731B68184602F007FF43F26063C1F6FF731B6893F82630FE
S32D000101C8002B6ED143F26463C1F6FF731B6818466FF063011E4A03F037F843F26463C1F6FF731B6818460F49ED
S32D000101F04FF0010203F0F0F943F26463C1F6FF731B68184602F084FF43F25463C1F6FF731B68184622E000BF90
S32D00010218333333333333D33F000000410000B442000020410000B4C200001041000016430000F04100002C431B
S32D000102400000A040CDCC4C3E0000003F000070420000A03F000070C100004040AA4905F0CFF84FF000004FF0DE
S32D000102687E5101F5D00104F093F843F25463C1F6FF731B681846A34905F0BEF843F26463C1F6FF731B681846BF
S32D000102909F494FF0010203F09FF943F26463C1F6FF731B68184602F08FFE43F26463C1F6FF731B6818466FF0A0
S32D000102B86301964A02F0C8FF8FA1D1E9000104F067F843F26463C1F6FF731B6818464FF05A014FF001024FF0BB
S32D000102E0000302F065FD86A1D1E9000104F054F843F26463C1F6FF731B68184602F008FF43F25463C1F6FF7362
S32D000103081B6818467E4905F077F843F26463C1F6FF731B6818464FF064017D4A02F094FF43F25463C1F6FF73AF
S32D000103301B681846754905F063F843F27C63C1F6FF731B68184602F023FA43F27C63C1F6FF731B6818467149AA
S32D0001035802F02EFA43F26063C1F6FF731B68DB6B184604F0CBF9034683F00103DBB2002B0ED143F26063C1F656
S32D00010380FF731B681B6C184604F0BCF9034683F00103DBB2002B02D04FF0010301E04FF00003002B08D043F2E3
S32D000103A86463C1F6FF731B68184602F009FEBBE043F26063C1F6FF731B68184602F060F90346002B65D043F296
S32D000103D06063C1F6FF731B68DB6A18464FF0000105F00EFD43F26463C1F6FF731E6843F26063C1F6FF731B685D
S32D000103F89B6949481946FCF76DFC03461846FCF767F902460B46104619464FF000024FF0804303F5B203FCF75B
S32D00010420AFF902460B46104619464FF000024FF0804303F51013FCF7CDFA02460B4614461D4643F26063C1F69A
S32D00010448FF731B681B6A18462F49FCF743FC034618463249FCF748FD034618463049FCF7F7FD03461846FCF708
S32D0001047033F902460B4620462946FBF7CFFF02460B4610461946FCF78DFB034630464FF03C011A4602F0EEF9C6
S32D000104980BE043F26463C1F6FF731B6818464FF032014FF0000202F0E1F943F27C63C1F6FF731B68184602F0B5
S32D000104C089F90346002B14D043F26463C1F6FF731B6818464FF000014FF0000202F0CAF943F26463C1F6FF73D2
S32D000104E81B68184602F06CFD1EE00E4803F02AFF30E700BFAFF30080333333333333D33F000016430000F04173
S32D000105100000B44200002041000008420000A040000080BF0000C8420000DC420AD7233C43F26463C1F6FF736F
S32D000105381B6818466FF063016FF063024C4B02F0FBF949A1D1E9000103F022FF43F26463C1F6FF731B681846F0
S32D000105604FF064016FF06302434B02F0E9F940A1D1E9000103F010FF43F26463C1F6FF731B6818466FF063013B
S32D000105886FF063023A4B02F0D7F937A1D1E9000103F0FEFE43F26463C1F6FF731B6818464FF064016FF0630249
S32D000105B0314B02F0C5F92EA1D1E9000103F0ECFE43F26463C1F6FF731B6818464FF05A014FF001024FF0000365
S32D000105D802F0EAFB24A1D1E9000103F0D9FE43F26463C1F6FF731B68184622494FF0000202F0EEFF43F2646346
S32D00010600C1F6FF731B6818461D494FF0010202F0E3FF43F26463C1F6FF731B68184602F077FD43F26463C1F626
S32D00010628FF731B68184614494FF0000202F0D0FF43F26463C1F6FF731B68184602F0C0FC43F26463C1F6FF7318
S32D000106501B6818464FF064014FF00002064B02F06FF907F10C07BD46F0BD00BFAFF30080333333333333D33F2A
S32D000106780000803E0000B4420000B4C2AFF30080F0B583B000AF43F26063C1F6FF731B68184601F069FE43F2F1
S32D000106A05063C1F6FF731B681846594904F0A8FE43F25463C1F6FF731B681846554904F09FFE43F26063C1F65E
S32D000106C8FF731C6843F27463C1F6FF731B68184607F004FF0346636143F26863C1F6FF731B6818464AF6545101
S32D000106F0C0F2010105F036FC43F26863C1F6FF731A6843F26063C1F6FF731B685B691046194605F055FC43F2BD
S32D000107186463C1F6FF731B6818463D494FF0010202F056FF36A1D1E9000103F031FE43F26463C1F6FF731B6876
S32D00010740184602F041FC43F26463C1F6FF731B6818466FF06301314A02F07AFD4FF000004FF07E5101F5C0014C
S32D0001076803F016FE43F26463C1F6FF731B6818464FF000014FF001024FF0000302F014FB1FA1D1E9000103F022
S32D0001079003FE43F26463C1F6FF731B6818464FF064011F4A02F054FD43F26463C1F6FF731B68184602F0E0F813
S32D000107B84FF001037B600BE043F26463C1F6FF731B68184602F0D4F87B6803F101037B6043F27463C1F6FF735A
S32D000107E01B68184607F090FE024643F26063C1F6FF731B685B699A4214DA7B68052B11DC4FF0010310E000BF18
S32D00010808333333333333D33F000070420000F0410000B4C20000003F000040404FF00003002BC9D143F2646362
S32D00010830C1F6FF731B6818466FF06301D64A02F007FDD1A1D1E9000103F0A6FD43F26463C1F6FF731B681846ED
S32D000108584FF05A014FF001024FF0000302F0A4FAC7A1D1E9000103F093FD43F26463C1F6FF731B68184602F025
S32D00010880A3FB43F26063C1F6FF731B68184601F0C1FE43F26463C1F6FF731B6818466FF06301BE4A02F0D4FC66
S32D000108A8B7A1D1E9000103F073FD43F26463C1F6FF731B6818464FF000014FF001024FF0000302F071FA43F24F
S32D000108D05063C1F6FF731B681846B14904F090FDA9A1D1E9000103F057FD43F26463C1F6FF731B6818464FF030
S32D000108F86401AA4A02F0A8FC43F26463C1F6FF731B68184602F00CFE43F26463C1F6FF731B68184602F01CFDCF
S32D000109204FF000004FF07E5101F5C00103F034FD43F25063C1F6FF731B6818469A4904F05FFD43F26463C1F6A8
S32D00010948FF731B6818466FF06301964A02F07CFC43F25063C1F6FF731B681846924904F04BFD4FF000004FF099
S32D000109707E5101F5E00103F00FFD43F25063C1F6FF731B681846864904F03AFD43F26463C1F6FF731B681846C1
S32D000109984FF000014FF03202844B01F0CDFF43F26463C1F6FF731B68184602F0D1FC43F25063C1F6FF731B6898
S32D000109C01846794904F01CFD4FF000004FF07E5101F5C00103F0E0FC43F26463C1F6FF731B6818464FF064015E
S32D000109E86FF06302724B01F0A7FF43F26463C1F6FF731B68184602F093FD43F25063C1F6FF731B68184668499D
S32D00010A1004F0F6FC4FF000004FF07E5101F5E00103F0BAFC43F26463C1F6FF731B68184602F02AFD43F25063FD
S32D00010A38C1F6FF731B6818465E4904F0DDFC50A1D1E9000103F0A4FC43F26463C1F6FF731B6818466FF0630109
S32D00010A60574A02F0F5FB4FF000004FF07E5101F5F00103F091FC43F26463C1F6FF731B6818464FF064014FF047
S32D00010A8800024B4B01F058FF4FF000004FF07E5101F5C00103F07CFC43F26463C1F6FF731B6818466FF0630127
S32D00010AB0434A02F0CDFB4FF000004FF07E5101F5C00103F069FC43F26463C1F6FF731B68184602F01DFB43F22F
S32D00010AD86463C1F6FF731B6818464FF06401374A02F0B2FB26A1D1E9000103F051FC43F26463C1F6FF731B68F0
S32D00010B0018464FF000014FF000024FF0010302F04FF91DA1D1E9000103F03EFC43F26463C1F6FF731B681846BE
S32D00010B286FF03B016FF0270201F0E4FE16A1D1E9000103F02DFC43F26463C1F6FF731B6818464FF064011E4A08
S32D00010B5002F07EFB0CA1D1E9000103F01DFC43F26463C1F6FF731B68184618494FF0000202F032FD04A1D1E96F
S32D00010B78000103F00DFC43F26463C1F6FF7323E0333333333333D33F333333333333F33F000080410000204060
S32D00010BA00000F2420000C03F000070420000C04000002C439A99993E0000003F00003442000000400000D840BB
S32D00010BC8000000410000C8411B6818464FF06401D74A02F039FBD4A1D1E9000103F0D8FB43F26463C1F6FF73CD
S32D00010BF01B6818464FF05A014FF001024FF0000302F0D6F8CAA1D1E9000103F0C5FB43F26463C1F6FF731B6896
S32D00010C18184602F079FA43F26063C1F6FF731B68184601F025FC43F26463C1F6FF731B6818464FF06401BF4A23
S32D00010C4002F006FB4FF000004FF07E5101F5E00103F0A2FB43F26063C1F6FF731B68184601F01AFC43F26463D9
S32D00010C68C1F6FF731B6818464FF000014FF001024FF0000302F098F84FF000004FF07E5101F5C00103F084FB97
S32D00010C9043F26463C1F6FF731B68184602F038FA43F26463C1F6FF731B6818464FF06401A34A02F0CDFA4FF07C
S32D00010CB800004FF07E5101F5C00103F069FB43F26463C1F6FF731B6818464FF05A014FF000024FF0010302F0DB
S32D00010CE067F84FF000004FF07E5101F5C00103F053FB43F26463C1F6FF731B68184602F007FA43F26063C1F699
S32D00010D08FF731B6893F82630012B19D143F25463C1F6FF731B681846884904F06DFB4FF000004FF07E5101F56A
S32D00010D30E00103F031FB43F25463C1F6FF731B681846814904F05CFB43F25063C1F6FF731B6818467D4904F0DD
S32D00010D5853FB43F26463C1F6FF731B6818464FF06401794A02F070FA43F26463C1F6FF731B6818464FF000010F
S32D00010D806FF04502734B01F0DBFD43F26463C1F6FF731B6818464FF064016D4A02F058FA43F26463C1F6FF734D
S32D00010DA81B6818466FF063014FF06402684B01F0C3FD43F26463C1F6FF731B68184602F0A3F943F25063C1F63C
S32D00010DD0FF731B681846614904F012FB43F26463C1F6FF731B6818464FF064014FF000025B4B01F0A5FD43F29D
S32D00010DF86463C1F6FF731B68184658494FF0010202F0E6FB43F26463C1F6FF731B68184602F07AF943F26463DE
S32D00010E20C1F6FF731B6818464FF06401424A02F00FFA4FF000004FF07E5101F5C00103F0ABFA43F26463C1F61F
S32D00010E48FF731B6818464FF000014FF000024FF0010301F0A9FF4FF000004FF07E5101F5C00103F095FA43F210
S32D00010E706463C1F6FF731B68184602F0A5F843F26463C1F6FF731B68184602F041F943F26063C1F6FF731B681D
S32D00010E9893F82630002B40F09C8043F26463C1F6FF731B6818464FF064012D4A02F0CCF94FF000004FF07E51AE
S32D00010EC001F5C00103F068FA43F26463C1F6FF731B6818464FF05A014FF001024FF0000301F066FF4FF000003E
S32D00010EE84FF07E5101F5C00103F052FA43F26463C1F6FF731B68184602F006F943F25463C1F6FF731B681846EA
S32D00010F100C4904F075FA4FF000004FF07E5101F5E00103F039FA43F25463C1F6FF731DE0333333333333D33F5A
S32D00010F38000000410000104100002041000016430000F04100002C430000A040CDCC4C3E0000003F00007042AA
S32D00010F600000A03F000070C1000050411B681846DFF80C1404F044FA43F26463C1F6FF731B6818464FF064010D
S32D00010F88FE4A02F061F94FF000004FF07E5101F5C00103F0FDF943F26463C1F6FF731B6818464FF000014FF034
S32D00010FB000024FF0010301F0FBFE4FF000004FF07E5101F5C00103F0E7F943F26463C1F6FF731B68184602F014
S32D00010FD89BF843F26463C1F6FF731B6818464FF06401E74A02F030F94FF000004FF07E5101F5C00103F0CCF9A5
S32D0001100043F26463C1F6FF731B6818464FF05A014FF001024FF0000301F0CAFE4FF000004FF07E5101F5C001E0
S32D0001102803F0B6F943F26463C1F6FF731B68184602F06AF843F26463C1F6FF731B6818464FF06401CF4A02F0E8
S32D00011050FFF843F27C63C1F6FF731B68184601F097FB43F27C63C1F6FF731B681846C84901F0A2FB43F2606324
S32D00011078C1F6FF731B68DB6B184603F03FFB034683F00103DBB2002B0ED143F26063C1F6FF731B681B6C1846EC
S32D000110A003F030FB034683F00103DBB2002B02D04FF0010301E04FF00003002B08D043F26463C1F6FF731B68A8
S32D000110C8184601F07DFFA0E043F26063C1F6FF731B68184601F0D4FA0346002B65D043F26063C1F6FF731B68A0
S32D000110F0DB6A18464FF0000104F082FE43F26463C1F6FF731E6843F26063C1F6FF731B689B69A0481946FBF7EE
S32D00011118E1FD03461846FBF7DBFA02460B46104619464FF000024FF0804303F5B203FBF723FB02460B4610461F
S32D0001114019464FF000024FF0804303F51013FBF741FC02460B4614461D4643F26063C1F6FF731B681B6A1846B7
S32D000111688B49FBF7B7FD034618468A49FBF7BCFE034618468849FBF76BFF03461846FBF7A7FA02460B462046AB
S32D000111902946FBF743F902460B4610461946FBF701FD034630464FF03C011A4601F062FB0BE043F26463C1F6CE
S32D000111B8FF731B6818464FF032014FF0000201F055FB43F27C63C1F6FF731B68184601F0FDFA0346002B14D063
S32D000111E043F26463C1F6FF731B6818464FF000014FF0000201F03EFB43F26463C1F6FF731B68184601F0E0FE5A
S32D0001120803E0664803F09EF830E743F26463C1F6FF731B6818466FF063016FF06302604B01F08AFB52A1D1E92B
S32D00011230000103F0B1F843F26463C1F6FF731B6818464FF064016FF06302574B01F078FB49A1D1E9000103F0E6
S32D000112589FF843F26463C1F6FF731B6818466FF063016FF063024E4B01F066FB40A1D1E9000103F08DF843F20F
S32D000112806463C1F6FF731B6818464FF064016FF06302454B01F054FB37A1D1E9000103F07BF843F26463C1F68A
S32D000112A8FF731B6818464FF05A014FF001024FF0000301F079FD2EA1D1E9000103F068F843F26463C1F6FF733D
S32D000112D01B6818466FF06301344A01F0B9FF43F26463C1F6FF731B6818464FF000014FF000024FF0000301F06A
S32D000112F85BFD1FA1D1E9000103F04AF843F26463C1F6FF731B6818464FF064011B4A01F09BFF43F26463C1F672
S32D00011320FF731B6818464FF00A014FF000024FF0000301F03DFD10A1D1E9000103F02CF843F26463C1F6FF73AB
S32D000113481B68184601F03CFE43F26463C1F6FF731B6818464FF064014FF00002104B01F0EBFA07F10C07BD4640
S32D00011370F0BD00BFAFF30080333333333333D33F0000F0410000004100009841000008420000A040000080BFC8
S32D000113980000B4420000C8420000DC420AD7233C0000803E0000E040F8B500AF43F26063C1F6FF731B685B6C23
S32D000113C0184603F09FF9034683F00103DBB2002B0ED143F26063C1F6FF731B689B6C184603F090F9034683F07D
S32D000113E80103DBB2002B02D04FF0010301E04FF00003002B09D043F26463C1F6FF731B68184601F081FE00BFA9
S32D00011410F8BD43F26063C1F6FF731B68184601F033F90346002B6DD043F26063C1F6FF731B68DB6A18464FF0A2
S32D00011438000104F0E1FC43F26463C1F6FF731E6843F26063C1F6FF731B681A6843F26063C1F6FF731B689B693A
S32D0001146010461946FBF73AFC034683F000431846FBF732F902460B46104619464FF000024FF0804303F5B203C8
S32D00011488FBF77AF902460B46104619464FF000024FF0804303F50023FBF798FA02460B4614461D4643F2606352
S32D000114B0C1F6FF731B681B6A18461A49FBF70EFC034618461849FBF713FD034618461749FBF7C2FD03461846B6
S32D000114D8FBF7FEF802460B4620462946FAF79AFF02460B4610461946FBF758FB034630466FF03B011A4601F0C7
S32D00011500B9F90BE043F26463C1F6FF731B6818466FF031014FF0000201F0ACF9044802F015FF47E70000B4423B
S32D000115280000C84200008C420AD7233C0000000080B500AF43F26463C1F6FF731B68184601F0E2FD43F26463C6
S32D00011550C1F6FF731B6818464FF064013C4A01F077FE37A1D1E9000102F016FF43F26463C1F6FF731B68184632
S32D0001157836494FF0010202F02BF82FA1D1E9000102F006FF43F26463C1F6FF731B6818466FF03B016FF02702C3
S32D000115A001F0ACF928A1D1E9000102F0F5FE43F26463C1F6FF731B6818464FF06401264A01F046FE1EA1D1E955
S32D000115C8000102F0E5FE43F26463C1F6FF731B68184620494FF0000201F0FAFF16A1D1E9000102F0D5FE43F218
S32D000115F06463C1F6FF731B6818464FF06401164A01F026FE0EA1D1E9000102F0C5FE43F26463C1F6FF731B681B
S32D00011618184611494FF0000201F0DAFF06A1D1E9000102F0B5FE43F26463C1F6FF731B68184601F069FD80BD3F
S32D00011640333333333333D33F333333333333F33F0000D0400000B4C2000000410000C8410000B442AFF30080EB
S32D0001166880B500AF43F25063C1F6FF731B681846344903F0C1FE43F26463C1F6FF731B6818464FF06401304A2A
S32D0001169001F0DEFD43F26463C1F6FF731B6818464FF000016FF045022A4B01F049F943F26463C1F6FF731B6823
S32D000116B818464FF06401244A01F0C6FD43F26463C1F6FF731B6818466FF063014FF064021F4B01F031F943F2B7
S32D000116E06463C1F6FF731B68184601F011FD4FF000004FF07E5101F5E00102F04DFE43F25063C1F6FF731B6816
S32D000117081846144903F078FE4FF000004FF07E5101F5E00102F03CFE43F26463C1F6FF731B6818464FF0640194
S32D000117304FF000020A4B01F003F943F26463C1F6FF731B68184601F0E3FC80BD00002C430000A040CDCC4C3E82
S32D000117580000003F000070420000E03F80B500AF43F26863C1F6FF731B6818464AF66051C0F2010104F0DCFCF3
S32D0001178043F25463C1F6FF731B681846E24903F037FE43F26463C1F6FF731B68184601F0B7FC4FF000004FF0C9
S32D000117A87E5101F5E00102F0F3FD43F26463C1F6FF731B68D74A1A6043F26063C1F6FF731B68184600F054FE03
S32D000117D04FF000004FF07E5101F5E00102F0DCFD43F26463C1F6FF731B6818464FF06401CB4A01F02DFD4FF0E2
S32D000117F800004FF07E5101F5E00102F0C9FD43F26063C1F6FF731B68184600F041FE4FF000004FF07E5101F5B1
S32D00011820E00102F0B9FD43F26063C1F6FF731B6893F82630002B5FD143F26463C1F6FF731B6818464FF00001EA
S32D000118484FF000024FF0010301F0AEFA4FF000004FF07E5101F5E00102F09AFD43F26463C1F6FF731B681846A1
S32D000118704FF06401AB4A01F0EBFC4FF000004FF07E5101F5E00102F087FD43F26463C1F6FF731B6818464FF0F9
S32D000118985A014FF001024FF0000301F085FA4FF000004FF07E5101F5E00102F071FD43F26463C1F6FF731B68A6
S32D000118C0184601F025FC43F25463C1F6FF731B681846954903F094FD4FF000004FF0804102F05AFD43F25463BD
S32D000118E8C1F6FF731B681846894903F085FD5EE043F26463C1F6FF731B6818464FF000014FF001024FF0000378
S32D0001191001F04EFA4FF000004FF07E5101F5E00102F03AFD43F26463C1F6FF731B6818466FF063017D4A01F0A1
S32D000119388BFC4FF000004FF07E5101F5E00102F027FD43F26463C1F6FF731B6818464FF05A014FF000024FF09F
S32D00011960010301F025FA4FF000004FF07E5101F5E00102F011FD43F26463C1F6FF731B68184601F0C5FB43F234
S32D000119885463C1F6FF731B681846654903F034FD4FF000004FF0804102F0FAFC43F25463C1F6FF731B68184680
S32D000119B0594903F025FD43F26463C1F6FF731B6818464FF064015A4A01F042FC4FF000004FF07E5101F5E001B0
S32D000119D802F0DEFC43F26463C1F6FF731B6818464FF000014FF000024FF0010301F0DCF94FF000004FF07E5137
S32D00011A0001F5E00102F0C8FC43F26463C1F6FF731B68184601F07CFB4FF000004FF07E5101F5E00102F0B8FCF2
S32D00011A2843F26463C1F6FF731B6818464FF064013E4A01F009FC4FF000004FF07E5101F5E00102F0A5FC43F27B
S32D00011A506463C1F6FF731B6818464FF05A014FF001024FF0000301F0A3F94FF000004FF07E5101F5E00102F0D5
S32D00011A788FFC43F26463C1F6FF731B68184601F043FB4FF000004FF07E5101F5E00102F07FFC43F26463C1F63B
S32D00011AA0FF731B6818464FF06401234A01F0D0FB4FF000004FF07E5101F5E00102F06CFC43F26463C1F6FF7354
S32D00011AC81B6818464FF005014FF000024FF0000301F06AF94FF000004FF07E5101F5E00102F056FC43F264638E
S32D00011AF0C1F6FF731B68184601F066FA43F26463C1F6FF731B6818464FF064014FF000020A4B00F015FF80BDEB
S32D00011B180000F04100007042000010410000204000001643000040400000E04000009441000008420000803E34
S32D00011B4080B500AF43F25063C1F6FF731B681846214903F055FC4FF000004FF07E5101F5E00102F019FC43F292
S32D00011B686463C1F6FF731B6818464FF078014FF000024FF0010301F017F94FF000004FF07E5101F5E00102F02A
S32D00011B9003FC43F26463C1F6FF731B6818464FF05A014FF001024FF0010301F001F94FF000004FF07E5101F5D4
S32D00011BB8E00102F0EDFB43F25063C1F6FF731B681846034903F018FCFFF7C8FD80BD00BF0000704298B500AF99
S32D00011BE000E000BF43F26863C1F6FF731B68184604F030F943F26863C1F6FF731C6843F26063C1F6FF731B68BF
S32D00011C08184600F03DFD03462046194604F0CCFA43F26863C1F6FF731B6818464AF66451C0F2010104F09AF923
S32D00011C3043F26863C1F6FF731C6843F26063C1F6FF731B689B6A184606F0AEFC03462046194604F0CFF943F232
S32D00011C586863C1F6FF731B6818464AF66851C0F2010104F07BF943F26863C1F6FF731C6843F26063C1F6FF73A5
S32D00011C801B689B6A184606F09FFC03462046194604F0B0F943F26863C1F6FF731B6818464AF67051C0F2010154
S32D00011CA804F05CF943F26863C1F6FF731C6843F26063C1F6FF731B689B6A184606F090FC03462046194604F08C
S32D00011CD05BFA43F26863C1F6FF731B6818464AF67C51C0F2010104F03DF943F26863C1F6FF731C6843F26063F6
S32D00011CF8C1F6FF731B68DB6B184602F0FFFC03462046194604F0E0F943F26863C1F6FF731B6818464AF6845186
S32D00011D20C0F2010104F01EF943F26863C1F6FF731C6843F26063C1F6FF731B681B6C184602F0E0FC0346204622
S32D00011D48194604F031FA43F26863C1F6FF731B6818464AF69051C0F2010104F0FFF843F26863C1F6FF731C6877
S32D00011D7043F26063C1F6FF731B685B6C184602F0C1FC03462046194604F0A2F943F26863C1F6FF731B68184625
S32D00011D984AF69851C0F2010104F0E0F843F26863C1F6FF731C6843F26063C1F6FF731B689B6C184602F0A2FC2D
S32D00011DC003462046194604F0F3F943F26863C1F6FF731B6818464AF6A451C0F2010104F0C1F843F26863C1F6AF
S32D00011DE8FF731C6843F26063C1F6FF731B68DB6C184602F083FC03462046194604F0D4F943F26863C1F6FF7324
S32D00011E101B6818464AF6B051C0F2010104F0A2F843F26863C1F6FF731B6818464AF6B851C0F2010104F096F8B6
S32D00011E3843F26863C1F6FF731C6843F26063C1F6FF731B685B6B184603F096F803462046194604F081F943F2D4
S32D00011E606863C1F6FF731B6818464AF6C851C0F2010104F077F843F26863C1F6FF731C6843F26063C1F6FF7340
S32D00011E881B689B6B184603F077F803462046194604F062F943F26863C1F6FF731B6818464AF6D851C0F201015E
S32D00011EB004F058F843F26863C1F6FF731C6843F26063C1F6FF731B685B6D184602F0D0FC03462046194604F088
S32D00011ED88DF843F26863C1F6FF731B6818464AF6E051C0F2010104F039F843F26863C1F6FF731C6843F260635D
S32D00011F00C1F6FF731B681B6D184602F0B1FC03462046194604F06EF80D4802F017FA43F26063C1F6FF731B681D
S32D00011F28184600F05FF943F26063C1F6FF731B6818464FF0020100F097F90346002B3FF44CAE00BF98BD00BFAC
S32D00011F50CDCCCC3D80B500AF43F26463C1F6FF731B6818460C494FF0000201F035FB4FF000004FF0804101F5EA
S32D00011F78A01102F00DFA43F26463C1F6FF731B68184604494FF0010201F022FB80BD00BF0000B4420000B4C285
S32D00011FA080B500AF43F25063C1F6FF731B681846394903F025FA43F26063C1F6FF731B68184600F027FB43F25F
S32D00011FC86463C1F6FF731B68184601F0C1F943F25063C1F6FF731B6818462E4903F00CFA4FF000004FF07E51BF
S32D00011FF001F5C00102F0D0F943F26463C1F6FF731B6818464FF064016FF06302244B00F097FC43F26463C1F63D
S32D00012018FF731B68184601F083FA43F25063C1F6FF731B6818461D4903F0E6F94FF000004FF07E5101F5E0018A
S32D0001204002F0AAF943F26463C1F6FF731B68184601F01AFA43F25063C1F6FF731B681846114903F0CDF90AA121
S32D00012068D1E9000102F094F943F26463C1F6FF731B6818466FF063014FF00002064B00F05BFC80BDAFF300800E
S32D00012090333333333333D33F0000F242000070420000003F00002C4300003442AFF3008080B582B000AF7860C3
S32D000120B839607B68012B0AD13A684FF6FF739A4205D143F26C60C1F6FF7005F0C7FC07F10807BD4680BD00BF86
S32D000120E080B500AF4FF001004FF6FF71FFF7E0FF80BD00BF80B586B000AFF860B9607A603B604FF0030007F0EE
S32D0001210859FC0246FB68DA654FF0030007F052FC0246FB689A65FB684FF001025A61FB684FF0000283F8252074
S32D00012130FB682B4A1A60FB682A4A1A614FF000037B6111E0FB68DA6D7B69D3184FF000021A70FB689A6D7B693B
S32D00012158D3184FF000021A707B6903F101037B617B69022BCCBF00230123DBB2002BE5D1FB687A681A63FB6874
S32D000121803A6A9A62FB683A68DA62FB687A6A5A63FB68BA6A9A63FB68FA6ADA63FB683A6B1A64FB687A6B5A6437
S32D000121A8FB68BA6B9A64FB68FA6BDA64FB683A6C1A65FB687A6C5A65FB68BA681A66FB681B6E1846064900F05E
S32D000121D0F3FAFB68184607F11807BD4680BD00BF0000804000000000CDCCCC3D90B585B000AF78604FF0000377
S32D000121F8FB600DE07B689A6DFB68D3187A68D16DFA688A1812781A70FB6803F10103FB60FB68022BCCBF00230C
S32D000122200123DBB2002BE9D17B68DC6D7B681B6B184602F045FF034623707B68DB6D03F101047B681B6B184609
S32D0001224802F04CFF034623707B68DB6D03F102047B681B6B184602F055FF0346237007F11407BD4690BD00BF1E
S32D0001227080B483B000AF78600B46FB707B68DA6DFB78D3181B78184607F10C07BD4680BC704700BF80B483B0F5
S32D0001229800AF78600B46FB707B68DA6DFB78D3181B78002B0CD07B689A6DFB78D3181B7883F00103DBB2002BA8
S32D000122C002D04FF0010301E04FF00003184607F10C07BD4680BC704780B582B000AF78607B685B6B184602F071
S32D000122E857FE7B689B6B184602F052FE07F10807BD4680BD0000000090B583B000AF78607B685B6B184602F0AA
S32D0001231037FE04467B689B6B184602F031FE0346E3181846FAF7C6F902460B46104619464FF000024FF08043D4
S32D00012338FAF74CFB02460B461046194608A3D3E90023FAF743FB02460B4610461946FAF76DFC0346184607F1F0
S32D000123600C07BD4690BD00BF000000E02E3C164090B587B000AF78607B685B6D184602F077FA03467B617B6914
S32D000123883B614FF0080007F0E1FA04462046344900F0C0F9FC60F868324900F009FA7B685B6D184602F060FA1C
S32D000123B003467B617B681B6E184600F00BFA0346002B13D07B68DB6A184603F043FD7B68DB6A18464AF6E8510B
S32D000123D8C0F2010103F0C2FD7B68DB6A1846796903F0CEFE78693969FAF774FC03464FF00102144618461C49BD
S32D00012400FAF714FF0346002B02D14FF000031C46E3B2002B05D07B68DB6A184603F01AFD1EE07B681B6B1846D4
S32D0001242802F070FE0346002B05D07B68DB6A184603F00CFD10E0F86800F0C8F90346002B06D07B68DB6A184689
S32D0001245003F000FD00BF03E0064801F077FFA2E707F11C07BD4690BD000000000000F0410000C0BE0AD7233C33
S32D0001247880B582B000AF78607B685B6D184602F0F3F902467B685A6007F10807BD4680BD90B583B000AF786035
S32D000124A07B685B6D184602F0E3F902467B689A607B684FF0010283F825207B685B6818465249FAF70BFC03464C
S32D000124C81A467B689B684FF001010C4610461946FAF7C6FE0346002B02D14FF000031C46E3B2002B19D17B682A
S32D000124F05B6818464649FAF7F1FB03461A467B689B684FF001010C4610461946FAF78EFE0346002B02D14FF056
S32D0001251800031C46E3B2002B4BD07B684FF0010283F826207B68DB6A18464FF0020103F063FC7B685B68184650
S32D000125403349FAF7CBFB03461A467B689B684FF001010C4610461946FAF768FE0346002B02D14FF000031C4620
S32D00012568E3B2002B0BD07B68DB6A18464FF0010103F042FC7B684FF0000283F825207B68DB6A18464AF6F451C2
S32D00012590C0F2010103F0D0FD7B68DA6A7B685B681046194603F0F0FD7B68DA6A7B689B681046194603F0E8FDAC
S32D000125B824E07B684FF0000283F826207B68DB6A18464FF0040103F017FC7B68DB6A18464AF60461C0F201015C
S32D000125E003F0AAFD7B68DA6A7B685B681046194603F0CAFD7B68DA6A7B689B681046194603F0C2FD07F10C0777
S32D00012608BD4690BD0000803F9A99993E80B582B000AF78607B681B6D184602F025F902467B68DA6007F1080757
S32D00012630BD4680BDB0B582B000AF78607B681B6D184602F015F902467B681A617B681D697B68DB6818460B496D
S32D00012658FAF740FB03464FF00102144628461946FAF7E0FD0346002B02D14FF000031C46E3B2184607F10807C2
S32D00012680BD46B0BD9A99993E80B586B000AF78607B689B6A184605F087FF03467B617B689B6A184605F090FF0F
S32D000126A803463B617B689B6A184605F099FF0346FB6078691649FAF7ABFD0346002B17D038691349FAF7A4FDE4
S32D000126D00346002B10D0F8680F49FAF79DFD0346002B09D07B68DB6A18464FF0030103F087FB4FF000030AE08D
S32D000126F87B687A699A617B683A69DA617B68FA681A624FF00103184607F11807BD4680BD0000000080B582B011
S32D0001272000AF7860396001F063FE02460B4610461946FAF77FFA02467B681A607B683A685A607B68184607F143
S32D000127480807BD4680BD00BFB0B582B000AF786001F04AFE04460D467B681B681846F9F7B7FF02460B462046F7
S32D000127702946F9F751FE02460B4610461946FAF759FA0346184607F10807BD46B0BD00BF80B582B000AF78602F
S32D0001279801F02AFE02460B4610461946FAF746FA02467B681A6007F10807BD4680BD00BF80B483B000AF7860E1
S32D000127C039607B683A685A6007F10C07BD4680BC704700BF90B585B000AF78607868FFF7B7FF02467B685B68D7
S32D000127E84FF001010C4610461946FAF739FD0346002B02D14FF000031C46FC73FB7B002B02D07868FFF7C0FFF1
S32D00012810FB7B184607F11407BD4690BD90B585B000AFF860B9607A603B60FB68BA689A60FB687A68DA60FB68F2
S32D000128383A681A61FB680B4A1A604FF0080007F085F8044620460849FFF764FFFB685C61FB68054A5A60FB681E
S32D00012860184607F11407BD4690BD00BF000070420000000090B587B000AFF860B9607A60BA687B68D3187B61D5
S32D00012888BA687B68D31A3B617B69642B02DD4FF064037B617B6913F1640F02DA6FF063037B613B69642B02DDD5
S32D000128B04FF064033B613B6913F1640F02DA6FF063033B61FB689C687B69C3F100031846FAF7BAFA03462046AB
S32D000128D8194601F009FAFB68DC683869FAF7B0FA03462046194601F0FFF907F11C07BD4690BD00BF90B585B000
S32D0001290000AFF860B9607A60FB689C68BB68C3F100031846FAF798FA03462046194601F0E7F9FB68DC68786826
S32D00012928FAF78EFA03462046194601F0DDF907F11407BD4690BD00BF80B584B000AFF860B9607A603B60F868B2
S32D00012950B9687A68FFF78EFF386801F0F7FCF8684FF000014FF00002FFF784FF07F11007BD4680BD00000000A5
S32D0001297880B582B000AF78607B685B691846FFF703FF7B685B6918461F49FFF711FF78684FF032014FF000023F
S32D000129A0FFF768FF0AE07B685B691846FFF712FF0346002B0CD1174801F0C8FC7B681B691B6C184601F09EFE77
S32D000129C80346002BEBD100E000BF78684FF000014FF00002FFF74AFF09A1D1E9000101F0D7FC78686FF06301A5
S32D000129F04FF00002084BFFF7A3FF07F10807BD4680BD00BFAFF30080333333333333D33F000040400AD7233C60
S32D00012A189A99193EAFF3008090B58FB000AFF860B9601346FB71FB681B6993F8243083F00103DBB2002B0AD1AA
S32D00012A40FB681B691846FFF71FFE034683F00103DBB2002B02D04FF0010301E04FF00003002B14D0F8684FF0B1
S32D00012A6800014FF00002FFF701FFBB68C3F100031846FAF7E5F90246FB79F86811461A4600F0A6FD83E1FB68D3
S32D00012A905B691846FFF77CFEFB685B691846C049FFF78AFEFB681B691B6A1846FAF7E6FB03467B627B6A3B6235
S32D00012AB87B6AFB61FA69BB68D318BB61BB697B63BB683B634FF0000387F82F304FF0000387F82E30BB68002BD1
S32D00012AE0D4BF00230123FB75BB684FEAD373BB75BB69B32B07DD7B6BA3F1B4037B634FF0010387F82E30BB6972
S32D00012B08002B07DA7B6B03F1B4037B634FF0010387F82F30FB685B691846FFF757FE0346002B07D0F8684FF048
S32D00012B3000014FF00002FFF79DFE2CE1FB681B691846FFF7A1FD034683F00103DBB2002B22D0F8684FF00001B3
