S01400002E2E2F53696D706C65436F64652E73313970
S32D0000C0000000002039FD00009500010095000100950001009500010095000100000000000000000000000000CE
S32D0000C028000000009500010095000100000000009500010095000100950001009500010095000100950001003A
S32D0000C05095000100950001009500010095000100950001009500010095000100950001009500010095000100E6
S32D0000C07895000100950001009500010095000100950001009500010095000100950001009500010095000100BE
S32D0000C0A09500010095000100950001009500010095000100950001009500010095000100950001009500010096
S32D0000C0C8950001009500010095000100950001009500010095000100950001009500010095000100950001006E
S32D0000C0F095000100ED4001009500010095000100950001009500010095000100950001009500010095000100AE
S32D0000C118950001009500010095000100950001009500010095000100950001009500010095000100950001001D
S32D0000C14095000100950001009500010095000100AD1001009500010095000100950001009500010095000100CD
S32D0000C16895000100950001009500010095000100950001009500010095000100950001009500010095000100CD
S32D0000C190950001009500010095000100950001009500010095000100E500010095000100950001009500010055
S32D0000C1B8950001009500010095000100950001009500010095000100950001009500010095000100950001007D
S32D0000C41081F0004102E000BF83F0004330B54FEA41044FEA430594EA050F08BF90EA020F1FBF54EA000C55EAC6
S32D0000C438020C7FEA645C7FEA655C00F0E2804FEA5454D4EB5555B8BF6D420CDD2C4480EA020281EA030382EA0F
S32D0000C460000083EA010180EA020281EA0303362D88BF30BD11F0004F4FEA01314FF4801C4CEA113102D0404263
S32D0000C48861EB410113F0004F4FEA03334CEA133302D0524263EB430394EA050F00F0A780A4F10104D5F1200E8A
S32D0000C4B00DDB02FA0EFC22FA05F2801841F1000103FA0EF2801843FA05F359410EE0A5F120050EF1200E012A2D
S32D0000C4D803FA0EFC28BF4CF0020C43FA05F3C01851EBE37101F0004507D54FF0000EDCF1000C7EEB00006EEB67
S32D0000C5000101B1F5801F1BD3B1F5001F0CD349085FEA30004FEA3C0C04F101044FEA445212F5800F80F09A8000
S32D0000C528BCF1004F08BF5FEA500C50F1000041EB045141EA050130BD5FEA4C0C404141EB010111F4801FA4F114
S32D0000C5500104E9D191F0000F04BF01460020B1FA81F308BF2033A3F10B03B3F120020CDA0C3208DD02F1140C87
S32D0000C578C2F10C0201FA0CF021FA02F10CE002F11402D8BFC2F1200C01FA02F120FA0CFCDCBF41EA0C019040B1
S32D0000C5A0E41AA2BF01EB0451294330BD6FEA04041F3C1CDA0C340EDC04F11404C4F1200220FA04F001FA02F3B6
S32D0000C5C840EA030021FA04F345EA030130BDC4F10C04C4F1200220FA02F001FA04F340EA0300294630BD21FAA8
S32D0000C5F004F0294630BD94F0000F83F4801306BF81F480110134013D4EE77FEA645C18BF7FEA655C29D094EA1C
S32D0000C618050F08BF90EA020F05D054EA000C04BF1946104630BD91EA030F1EBF0021002030BD5FEA545C05D1A3
S32D0000C6404000494128BF41F0004130BD14F580043CBF01F5801130BD01F0004545F0FE4141F470014FF0000031
S32D0000C66830BD7FEA645C1ABF194610467FEA655C1CBF0B46024650EA013406BF52EA033591EA030F41F40021D7
S32D0000C69030BD00BF90F0000F04BF0021704730B54FF4806404F132044FF000054FF0000150E700BF90F0000F66
S32D0000C6B804BF0021704730B54FF4806404F1320410F0004548BF40424FF000013EE700BF42004FEAE2014FEAF9
S32D0000C6E031014FEA02701FBF12F07F4393F07F4F81F06051704792F0000F14BF93F07F4F704730B54FF460741B
S32D0000C70801F0004521F0004120E700BF50EA010208BF704730B54FF000050AE050EA010208BF704730B511F046
S32D0000C730004502D5404261EB41014FF4806404F132045FEA915C3FF4DCAE4FF003025FEADC0C18BF03325FEAA0
S32D0000C758DC0C18BF033202EBDC02C2F1200300FA03FC20FA02F001FA03FE40EA0E0021FA02F11444C1E600BF19
S32D0000C78070B54FF0FF0C4CF4E06C1CEA11541DBF1CEA135594EA0C0F95EA0C0F00F0DEF82C4481EA030621EAF3
S32D0000C7A84C5123EA4C5350EA013518BF52EA033541F4801143F4801338D0A0FB02CE4FF00005E1FB02E506F05F
S32D0000C7D00042E0FB03E54FF00006E1FB03569CF0000F18BF4EF0010EA4F1FF04B6F5007F64F5407404D25FEA0F
S32D0000C7F84E0E6D4146EB060642EAC62141EA55514FEAC52040EA5E504FEACE2EB4F1FD0C88BFBCF5E06F1ED8D2
S32D0000C820BEF1004F08BF5FEA500E50F1000041EB045170BD06F0004646EA010140EA020081EA0301B4EB5C0487
S32D0000C848C2BFD4EB0C0541EA045170BD41F480114FF0000E013C00F3AB8014F1360FDEBF002001F0004170BDF0
S32D0000C870C4F10004203C35DA0C341BDC04F11404C4F1200500FA05F320FA04F001FA05F240EA020001F0004207
S32D0000C89821F0004110EBD37021FA04F642EB06015EEA430E08BF20EAD37070BDC4F10C04C4F1200500FA04F32F
S32D0000C8C020FA05F001FA04F240EA020001F0004110EBD37041F100015EEA430E08BF20EAD37070BDC4F12005C7
S32D0000C8E800FA05F24EEA020E20FA04F301FA05F243EA020321FA04F001F0004121FA04F220EA020000EBD37028
S32D0000C9105EEA430E08BF20EAD37070BD94F0000F0FD101F00046400041EB010111F4801F08BF013CF7D041EA6D
S32D0000C938060195F0000F18BF704703F00046520043EB030313F4801F08BF013DF7D043EA0603704794EA0C0FF1
S32D0000C9600CEA135518BF95EA0C0F0CD050EA410618BF52EA4306D1D181EA030101F000414FF0000070BD50EA38
S32D0000C988410606BF1046194652EA430619D094EA0C0F02D150EA013613D195EA0C0F05D152EA03361CBF10467B
S32D0000C9B019460AD181EA030101F0004141F0FE4141F470014FF0000070BD41F0FE4141F4780170BD70B54FF04D
S32D0000C9D8FF0C4CF4E06C1CEA11541DBF1CEA135594EA0C0F95EA0C0F00F0A7F8A4EB050481EA030E52EA03359B
S32D0000CA004FEA013100F088804FEA03334FF0805545EA131343EA12634FEA022245EA111545EA10654FEA002676
S32D0000CA280EF000419D4208BF964244F1FD0404F5407402D25B084FEA3202B61A65EB03055B084FEA32024FF461
S32D0000CA5080104FF4002CB6EB020E75EB030E22BFB61A754640EA0C005B084FEA3202B6EB020E75EB030E22BF22
S32D0000CA78B61A754640EA5C005B084FEA3202B6EB020E75EB030E22BFB61A754640EA9C005B084FEA3202B6EBEA
S32D0000CAA0020E75EB030E22BFB61A754640EADC0055EA060E18D04FEA051545EA16754FEA06164FEAC30343EAAC
S32D0000CAC852734FEAC2025FEA1C1CC0D111F4801F0BD141EA00014FF000004FF0004CB6E711F4801F04BF0143AE
S32D0000CAF00020B4F1FD0C88BFBCF5E06F3FF6AFAEB5EB030C04BFB6EB020C5FEA500C50F1000041EB045170BDBC
S32D0000CB180EF0004E4EEA113114EB5C04C2BFD4EB0C0541EA045170BD41F480114FF0000E013C90E645EA060EC3
S32D0000CB408DE60CEA135594EA0C0F08BF95EA0C0F3FF43BAF94EA0C0F0AD150EA01347FF434AF95EA0C0F7FF499
S32D0000CB6825AF104619462CE795EA0C0F06D152EA03353FF4FDAE1046194622E750EA410618BF52EA43067FF432
S32D0000CB90C5AE50EA41047FF40DAF52EA43057FF4EBAE12E74FEA410212F5001215D211D56FF47873B3EB6252CB
S32D0000CBB812D94FEAC12343F0004343EA505311F0004F23FA02F018BF404270474FF00000704750EA013005D15B
S32D0000CBE011F0004008BF6FF0004070474FF00000704700BF4A0011D212F5001211D20DD56FF47873B3EB625269
S32D0000CC080ED44FEAC12343F0004343EA505323FA02F070474FF00000704750EA013002D14FF0FF3070474FF05B
S32D0000CC30000070474FEA4102B2F1E04324BFB3F5001CDCF1FE5C0DD901F0004C4FEAC0024CEA5070B2F1004F09
S32D0000CC5840EB830008BF20F00100704711F0804F21D113F13872BCBF01F00040704741F480114FEA5252C2F148
S32D0000CC801802C2F1200C10FA0CF320FA02F018BF40F001004FEAC1234FEAD32303FA0CFC40EA0C0023FA02F3D7
S32D0000CCA84FEA4303CCE77FEA625307D150EA01331EBF4FF0FE4040F44000704701F0004040F0FE4040F4000070
S32D0000CCD0704700BF80F0004002E000BF81F0004142001FBF5FEA410392EA030F7FEA226C7FEA236C6AD04FEA20
S32D0000CCF81262D2EB1363C1BFD218414048404140B8BF5B42192B88BF704710F0004F40F4000020F07F4018BFF4
S32D0000CD20404211F0004F41F4000121F07F4118BF494292EA030F3FD0A2F1010241FA03FC10EB0C00C3F120035F
S32D0000CD4801FA03F100F0004302D5494260EB4000B0F5000F13D3B0F1807F06D340084FEA310102F10102FE2ACA
S32D0000CD7051D2B1F1004F40EBC25008BF20F0010040EA03007047490040EB000010F4000FA2F10102EDD1B0FA03
S32D0000CD9880FCACF1080CB2EB0C0200FA0CF0AABF00EBC25052421843BCBFD0401843704792F0000F81F40001A6
S32D0000CDC006BF80F400000132013BB5E74FEA41037FEA226C18BF7FEA236C21D092EA030F04D092F0000F08BF13
S32D0000CDE80846704790EA010F1CBF0020704712F07F4F04D1400028BF40F00040704712F100723CBF00F5000084
S32D0000CE10704700F0004343F0FE4040F4000070477FEA226216BF08467FEA23630146420206BF5FEA412390EA38
S32D0000CE38010F40F4800070474FF0000304E000BF10F0004348BF40425FEA000C08BF704743F0964301464FF03B
S32D0000CE6000001CE050EA010208BF70474FF000030AE000BF50EA010208BF704711F0004302D5404261EB41011C
S32D0000CE885FEA010C02BF84460146002043F0B64308BFA3F18053A3F50003BCFA8CF2083AA3EBC25310DB01FA40
S32D0000CEB002FC634400FA02FCC2F12002BCF1004F20FA02F243EB020008BF20F00100704702F1200201FA02FC0B
S32D0000CED8C2F1200250EA4C0021FA02F243EB020008BF20EADC7070474FF0FF0C1CEAD0521EBF1CEAD15392EAC9
S32D0000CF000C0F93EA0C0F6FD01A4480EA010C400218BF5FEA41211ED04FF0006343EA501043EA5111A0FB0131FF
S32D0000CF280CF00040B1F5000F3EBF490041EAD3715B0040EA010062F17F02FD2A1DD8B3F1004F40EBC25008BFC8
S32D0000CF5020F00100704790F0000F0CF0004C08BF49024CEA502040EA51207F3AC2BFD2F1FF0340EAC2507047CF
S32D0000CF7840F400004FF00003013A5DDC12F1190FDCBF00F000407047C2F10002410021FA02F1C2F1200200FA21
S32D0000CFA002FC5FEA310040F1000053EA4C0308BF20EADC70704792F0000F00F0004C02BF400010F4000F013A3E
S32D0000CFC8F9D040EA0C0093F0000F01F0004C02BF490011F4000F013BF9D041EA0C018FE70CEAD15392EA0C0FEB
S32D0000CFF018BF93EA0C0F0AD030F0004C18BF31F0004CD8D180EA010000F00040704790F0000F17BF90F0004FEB
S32D0000D018084691F0000F91F0004F14D092EA0C0F01D142020FD193EA0C0F03D14B0218BF084608D180EA0100A9
S32D0000D04000F0004040F0FE4040F40000704740F0FE4040F4400070474FF0FF0C1CEAD0521EBF1CEAD15392EAAB
S32D0000D0680C0F93EA0C0F69D0A2EB030280EA010C49024FEA402037D04FF0805343EA111143EA10130CF00040CD
S32D0000D0908B4238BF5B0042F17D024FF4000C8B4224BF5B1A40EA0C00B3EB510F24BFA3EB510340EA5C00B3EB10
S32D0000D0B8910F24BFA3EB910340EA9C00B3EBD10F24BFA3EBD10340EADC001B0118BF5FEA1C1CE0D1FD2A3FF695
S32D0000D0E050AF8B4240EBC25008BF20F0010070470CF0004C4CEA50207F32C2BFD2F1FF0340EAC250704740F47E
S32D0000D10800004FF00003013A37E792F0000F00F0004C02BF400010F4000F013AF9D040EA0C0093F0000F01F0C0
S32D0000D130004C02BF490011F4000F013BF9D041EA0C0195E70CEAD15392EA0C0F08D142027FF47DAF93EA0C0FA9
S32D0000D1587FF470AF084676E793EA0C0F04D14B023FF44CAF08466EE730F0004C18BF31F0004CCAD130F0004234
S32D0000D1807FF45CAF31F000437FF43CAF5FE700BF4FF0FF3C06E000BF4FF0010C02E000BF4FF0010C4DF804CDCE
S32D0000D1A84FEA40024FEA41037FEA226C18BF7FEA236C11D001B052EA530C18BF90EA010F58BFB2EB030088BF0F
S32D0000D1D0C81738BF6FEAE17018BF40F0010070477FEA226C02D15FEA402C05D17FEA236CE4D15FEA412CE1D089
S32D0000D1F85DF8040B704700BF844608466146FFE70FB5FFF7C9FF002848BF10F1000F0FBD4DF808EDFFF7F4FFDA
S32D0000D2200CBF012000205DF808FB00BF4DF808EDFFF7EAFF34BF012000205DF808FB00BF4DF808EDFFF7E0FF4A
S32D0000D24894BF012000205DF808FB00BF4DF808EDFFF7D2FF94BF012000205DF808FB00BF4DF808EDFFF7C8FF6A
S32D0000D27034BF012000205DF808FB00BF4FEA4002B2F1FE4F0FD34FF09E03B3EB12620DD94FEA002343F000434E
S32D0000D29810F0004F23FA02F018BF404270474FF00000704712F1610F01D1420205D110F0004008BF6FF00040FF
S32D0000D2C070474FF00000704742000ED2B2F1FE4F0BD34FF09E03B3EB126209D44FEA002343F0004323FA02F0F3
S32D0000D2E870474FF00000704712F1610F01D1420202D14FF0FF3070474FF00000704700BF036803B11B18184685
S32D0000D310704700BF03685A004CBF43F0004323F00043C018704700BF2DE9F84F0446914641B301F1FF3BDA46D1
S32D0000D338002707EB0A0101EBD1756D1004EBC5063046FFF7E3FF8046681CAB4504EBC0000DD0FFF7DBFF01381D
S32D0000D360C84504D9BD4209D005F1FF3AE5E7484505D26F1CE1E74FF0FF30F1E700263046BDE8F88F0E46304653
S32D0000D388BDE8F88F30B52B4B83B004468D1E002B49D0284601A9AFF300800346002822D02A4618460199FFF789
S32D0000D3B0BBFF054600281DD0FFF7ACFF6B68A064012B10D0281D002B22DBFFF7A3FF0021E06421650368002B2B
S32D0000D3D80FDBFFF79BFF2061002003B030BD002323610520F9E720610920F6E720610920F3E7C3F3036058B193
S32D0000D40001280CD002280ED0002020610920E8E70122E0642265DDE7094B2361E1E7094A00202261DDE70849FB
S32D0000D42800202161D9E7074B0749C81AC2100192B6E700BF0000000059D9000055D9000051D90000D87D01004F
S32D0000D450D07F0100036810B50446D80706D4990704F1480009D500F00DFD23685A0709D518070ED5D90613D5E3
S32D0000D47810BD00F0FBFC23685A07F5D404F1D00000F004FD23681807F0D404F5D87000F005FD2368D906EBD49D
S32D0000D4A004F50C70BDE8104000F040BD2DE9F0470F1D054691460FCFADF5916D02AC261D0FC60FCF0FC60FCF97
S32D0000D4C80FC697E80F00D5F80C80D5F818A0002786E80F00216C27602846FFF753FF0646B94514BF4FF00A0918
S32D0000D4F04FF00909FEB1A16B49F01009616401208DE8100449462A462B46C04700282BD1002E2AD1204692A9DC
S32D0000D5184FF4107207F040FD082F28D1216C2846FFF730FF06464FF00909002EDFD1206C21464FF410726861A0
S32D0000D54092A807F02DFD2F69294692AA4846B847A09B0746636401208DE8100449462A462B46C0470028D3D057
S32D0000D5680926304622B00DF5806DBDE8F087072FF6D1201D00F06EFC38B504460D46296C2046FFF7FFFE50B9FE
S32D0000D5902A6C23696261012021462A4698470828F1D0072801D009F033FE281D00F056FC11B933B10220704788
S32D0000D5B804298CBF0220012070470F2A01D90220704700EB820118464A68009B1A60704710B50A4684B0002133
S32D0000D5E00B4603AC0094FFF7E3FF039804B010BD11B933B10220704704298CBF0220012070470F2A01D9022067
S32D0000D6087047009900EB8202096818465160704710B584B004AB0C4643F8042D0021009322460B46FFF7E0FF56
S32D0000D63004B010BD2DE9F04FCD6C8BB00C4655F8041B174600F008021E46039200F003080795002B40F0CF8033
S32D0000D65809020691216D8DF821300323B8F1020F8DF8203008BFA56B11F0010340F0D380019304F15803029311
S32D0000D680D5F80090B9F1000F00F0CB80022E00F0AE80B5F80090B5F802A00435A26C0F212AF0010B384693445F
S32D0000D6A8FFF796FF834518D829F0010CE3440AF0010A09F00103584543EA4A092CBF00200120B9F1010F12D0DD
S32D0000D6D032D2B8F1000F02D0002840F01D810435CEE70AF0010A09F0010343EA4A090020B9F1010FECD1B8F1F8
S32D0000D6F8000F40F0B680C8B16B68D5F800909A1C19D0029A013309920DD0281DFFF7F8FD4FEAD972014609AB50
S32D0000D720204608F0DFFD002800F0F280099A002A40F0BA800835A3E7B9F1020F03D009200BB0BDE8F08F2B68F0
S32D0000D74823F000420092B8F1000F71D1002843D00398002840F0A1800098002800F0A080009BDDF80C90DB07C5
S32D0000D77005F1040A40F1B480CDF810800596A846029E12E000998D4200F0D9800996FFF7BBFD5A46014609AB19
S32D0000D798204608F0A3FDA946B0B90AF1040A05F1010950460996FFF7ABFD09AB01460022204608F093FD0AF12B
S32D0000D7C0040A834609F101055046BBF1000FD9D04546059EDDF81080009A4A4564D02B68002B7BDB0099481C69
S32D0000D7E805EB800548E7D5F804A0083552E70B04C1F30740216D06930222B8F1020F05EB800508BFA56B8DF8A8
S32D0000D810210011F001038DF820203FF42DAF00200190384606A900F019FC002887D1019A002A43D1082083E722
S32D0000D8380D213846D4F82090FFF7CAFE8145CAD1A26A9542C7D10098291D00220423A062E262236361632868B9
S32D0000D86000286EDB01220192BCE70D213846D4F82090FFF7B1FE81457FF45CAFA16A8D427FF458AF2846FFF707
S32D0000D88845FD0F2102463846FFF7C2FE384600212246FFF7BDFE07204EE7009900299BD138460D21FFF794FE0E
S32D0000D8B0099B20626362A562062041E70F213846FFF78AFE0E2102463846FFF7A5FE38460F211E4AFFF7A0FEA6
S32D0000D8D8072031E7043581E7029950460991FFF70FFD039A014609AB204608F0F7FC00287FF46EAFCDF810807F
S32D0000D90005960AF1040A4FF00109A846029E4CE7CDF824800835B3E62846FFF7FBFC04350646A563204608F0C6
S32D0000D92853FD00283FF407AF38460F213246FFF76FFE072000E74546B2E7009B591C05EB81009CE73965010012
S32D0000D95002236FE601236DE600236BE62DE9F0470446E8B004290CD8DFE801F0380391930F00150C012B96B249
S32D0000D97800F07881052B00F0C780022068B0BDE8F087002BF9D1102AF7D82368D90600F1738164A8019200F0FF
S32D0000D9A0CFFA019AA36BD00744BF53F8040B6490910744BF53F8041B6591500744BF53F8041B6691110748BFEA
S32D0000D9C853F8042B64A8A36348BF679200F0AAFA0020D3E7002BD0D1A36BD00791B244BF53F8042B62608A0773
S32D0000D9F044BF53F8042BA260480744BF53F8042BE2600A0744BF53F8042B2261C80644BF53F8042B62618A06CD
S32D0000DA1844BF53F8042BA261480644BF53F8042BE2610A0644BF53F8042B2262C80544BF53F8042B62628A05A4
S32D0000DA4044BF53F8042BA262480544BF53F8042BE2620A0544BF53F8042B2263C80444BF53F8042B626311F405
S32D0000DA6800501CBF53F8042BA2634A0444BF53F8042BE2630A0444BF53F8042B2264002840D1A3637AE7012004
S32D0000DA9078E7032B7FF475AF160C95B2AA19102A3FF66FAF2368180700F10B8144A800F01BFAA76B4FEA450ED5
S32D0000DAB83B460DB344A90EF1FF3C01EBC60653F8040B62460CF0010146F8040B92B129B153F8041B013A46F8D3
S32D0000DAE0041B0BD01846314650F8045B41F8045B5D68031D75600E1D023AF3D107EB8E0344A8A36300F0CEF9F9
S32D0000DB0800203BE7002039E777192022BA42FFF434AF012B00F0A9800F2D40F2A9803746F6B1052B7FF429AF4E
S32D0000DB300F2D11D82268D0070ED522F00101052B2160204600F0DA8022F0030240F8482B019300F093F9019B7B
S32D0000DB581FB12268510700F1B880012B00F0BF800F2D75D9002F40F0A080D4F83890002EC8462EDD49460DF1F8
S32D0000DB80080A4FEA46080AEBC50251F8046B08F1FF3000F0010A42F8046BA8F1020CD0B1BAF1000F08D051F89B
S32D0000DBA8040B0CF1FF3CBCF1FF3F42F8040B0ED00E46104656F804AB40F804AB4968ACF1020C5160311D021DEE
S32D0000DBD0BCF1FF3FF0D109EB8808A7B3102D2CBF2E4610260DF5D079414609EBC60CACF5C8724FEA470951F886
S32D0000DBF8046B09F1FF3000F0010A42F8046BA9F1020CD0B1BAF1000F08D051F8040B0CF1FF3CBCF1FF3F42F853
S32D0000DC20040B0ED00E46104656F804AB40F804AB4968ACF1020C5160311D021DBCF1FF3FF0D108EB8908012B85
S32D0000DC482BD00F2DC4F8388008D9FFB9384695E602A8019300F016F9019B83E702A800F00DF9F2E777191022F3
S32D0000DC7050E70F2D3FF685AE102F10D9103F54E723F01003236004F50C70019200F058F9019A82E624A800F048
S32D0000DC98FDF8002072E6002746E708F1040302A8A36300F0E3F8002068E624A80193C5F1100600F0EFF8019B15
S32D0000DCC057E723F0080704F5D870276000F00CF9ECE6204622F0040140F8D01B019300F0DDF8019B3DE702A8E4
S32D0000DCE8019300F0C7F8019B002F3FF43EAFC5F110063AE741F0020140F8481B019300F0C1F8019B24E700BF81
S32D0000DD10406C7047F0B50D460F1DC96B296404460FCFADF5117D01AE0FC60FCF0FC60FCF0FC697E80F0086E85F
S32D0000DD380F004FF0FF33009310992046FFF722FB58B9266921466A46B04708280646F3D06846FFF77BFB062E4D
S32D0000DD6003D009200DF5117DF0BD20462946FFF707FC00BF10B4DC6BC1608261194600221C6410BCFFF792BBB0
S32D0000DD8838B54269C3680A6404460D4623B10122FFF788FB09F038FA0369214602202A469847072803D008288E
S32D0000DDB004D009F02DFA281D00F050F820462946FFF7DEFBC36823B1CA6B0A640022FFF76DBB9FE7704700BF52
S32D0000DDD808B5836801460BB10120984708BD00BFF0B5D46B171D146405460C460FCFADF5277D01AE0FC60FCF3B
S32D0000DE000FC60FCF0FC697E80F0086E80F004FF0FF330093109990A8FFF7B8FA034690AA68460C21BBB9FFF70C
S32D0000DE28F7FB21466846A847064690A908206A466EB9949B98470528064601D00928E5D16846FFF703FB3046FB
S32D0000DE500DF5277DF0BD0926F6E700BF00F1340191E838009C46A6464CF8045D90E8FF0FE54600BD90EC210B26
S32D0000DE78704700BF80EC210B704700BF90EC200B704700BF80EC200B704700BFD0EC200B704700BFC0EC200B9A
S32D0000DEA0704700BFF0EC0201F0EC0211F0EC0221F0EC0231F0EC0241F0EC0251F0EC0261F0EC0271F0EC0281C7
S32D0000DEC8F0EC0291F0EC02A1F0EC02B1F0EC02C1F0EC02D1F0EC02E1F0EC02F1704700BFE0EC0201E0EC0211AF
S32D0000DEF0E0EC0221E0EC0231E0EC0241E0EC0251E0EC0261E0EC0271E0EC0281E0EC0291E0EC02A1E0EC02B1DE
S32D0000DF18E0EC02C1E0EC02D1E0EC02E1E0EC02F1704700BFB0FC0181B0FC0191B0FC01A1B0FC01B1704700BF3B
S32D0000DF40A0FC0181A0FC0191A0FC01A1A0FC01B1704700BFEC4600B52DE900502DE9FF1F4FF000032DE90C0080
S32D0000DF6801A9FFF7D3FEDDF840E012B0704700BFEC4600B52DE900502DE9FF1F4FF000032DE90C0001A9FFF768
S32D0000DF90FBFEDDF840E012B0704700BFEC4600B52DE900502DE9FF1F4FF000032DE90C0001A9FFF707FFDDF8DD
S32D0000DFB840E012B0704700BFEC4600B52DE900502DE9FF1F4FF000032DE90C0001ABFFF7CDFEDDF840E012B0DA
S32D0000DFE0704700BFEC4600B52DE900502DE9FF1F4FF000032DE90C0001AAFFF7F5FEDDF840E012B0704700BFF7
S32D0000E008027A03461AB9427A42B9B02070470068013A01021A72000E196070474168501E587251F8040B032246
S32D0000E030596001021A72000E1960704710B5002184B00C220DEB02040B460094FFF7B0FA039804B010BD00BF96
S32D0000E058F0E700BF2DE9F043064685B00D464FF000094FF47F672846FFF7CAFFB028044600F0B08010F0800186
S32D0000E08020D000F0F003802B74D0902B37D0A02B45D0B02B56D0C02B00F0858000F0F800D0280BD104F0070274
S32D0000E0A8511C41F40022304601210523FFF752FC0028D8D0092005B0BDE8F0834FEA800203A85FFA82F80090F3
S32D0000E0D00D220B463046FFF76BFA039B600608F104084CBFC8EB0303434403AC03930094002130460D220B468D
S32D0000E0F8FFF77AFAB7E700F00F020D2ADAD00F2AD8D0002103AC009430460B4603ACFFF74BFA0094E8E7C243B2
S32D0000E12002F0070C47FA0CF0210700F47F6248BF42F48042002130460B46FFF70FFC0028BCD194E7B1285DD074
S32D0000E148B2286ED0B32800F0958000F0FC02B42A46D000F00702531C43F40022012130460B46FFF7F7FB002815
S32D0000E170A4D17CE72846FFF747FF210240EA0104B4F5004F9AD0230500211A0C30460B462401FFF7E3FB0028F4
S32D0000E19890D114F4004F18BF4FF0010963E7C62873D0C72800F0848000F0F802C02A00F09280C82800F0A68047
S32D0000E1C0C9287FF47BAF2846FFF71EFF00F00F0300F0F0015A1C42EA013268E7B9F1000F00F0838000206AE7FE
S32D0000E1E800F00301481C022140F480220B463046FFF7B0FB00287FF45DAF34E72846FFF7FFFE024600283FF48A
S32D0000E21055AF10F0F0017FF451AF30460B46FFF79DFB00287FF44AAF21E700210D220B4603AC30460094FFF737
S32D0000E238BBF92846FFF7E4FE022402060DD5039B00F07F0000FA04FE03EB0E0128460391FFF7D6FE0734030698
S32D0000E260F1D4039B00F07F0103AA03F5017C01FA04F400920CEB0402039239E72846FFF7C3FE00F00F03591CC8
S32D0000E28800F0F00041EA003268E72846FFF7B8FE00F00F03591C00F0F00041EA0032032130460B46FFF756FBDC
S32D0000E2B000287FF403AFDAE62846FFF7A5FE024600283FF4FBAE10F0F0037FF4F7AE30460421FFF743FB0028DE
S32D0000E2D87FF4F0AEC7E600F00F01481C40F42022DDE703AC49460E224B4630460094FFF75BF9304649460F2233
S32D0000E3004B460094FFF774F94846D8E62846FFF77BFE00F0F00200F00F001032431C43EA0232C4E610B5C26CBE
S32D0000E32884B0032054688DF80C00D37924020832084601A9019402928DF80D30FFF78AFE04B010BD08B5FFF7E2
S32D0000E35083FE806C08BD00BF08B5FFF77DFEC16CC87901EB800303F1080008BD08B508F04FFF00BF08B508F06B
S32D0000E3784BFF00BF2DE9F04F8DB00AAF4FF0030007F09CFE044620464FF0030103F04AF843F22863C1F6FF733F
S32D0000E3A01C604FF0010007F08DFE044620464FF0000102F087FC43F22C63C1F6FF731C604FF0010007F07EFE90
S32D0000E3C8044620464FF0010102F0A4FA43F23863C1F6FF731C604FF0010007F06FFE044620464FF0020102F0A9
S32D0000E3F095FA43F23463C1F6FF731C604FF0010007F060FE044620464FF0030102F086FA43F24463C1F6FF7300
S32D0000E4181C604FF0010007F051FE044620464FF0040102F04BFC43F23063C1F6FF731C604FF01C0007F042FEA8
S32D0000E440044620464FF0080102F08CFE43F25863C1F6FF731C604FF01C0007F033FE044620464FF0090102F037
S32D0000E4687DFE43F25C63C1F6FF731C604FF0010007F024FE044620464FF0100102F04AFA43F24063C1F6FF73E2
S32D0000E4901C604FF0010007F015FE044620464FF0110102F03BFA43F23C63C1F6FF731C604FF0020007F006FEBB
S32D0000E4B8044620464FF0000101F03EFE43F24863C1F6FF731C604FF0020007F0F7FD044620464FF0010101F086
S32D0000E4E02FFE43F24C63C1F6FF731C604FF00C0007F0E8FD044620464FF0000103F060F943F25063C1F6FF73E4
S32D0000E5081C604FF00C0007F0D9FD044620464FF0010103F051F943F25463C1F6FF731C6043F25063C1F6FF7381
S32D0000E5301B6818464FF4FA7103F060F943F25063C1F6FF731B68184640F67F1103F074F943F25463C1F6FF73B5
S32D0000E5581B6818464FF4FA7103F04CF943F25463C1F6FF731B68184640F6C41103F060F943F26863C1F6FF7358
S32D0000E58043F2CC62C1F6FF721A6043F26863C1F6FF731B6818464FF0000104F02FF843F26863C1F6FF731B6857
S32D0000E5A818464FF0010104F083F843F27463C1F6FF7343F26C62C1F6FF721A604FF0080007F07CFD04462046F6
S32D0000E5D0FE4900F0E7FE43F27863C1F6FF731C604FF0480007F06EFD044643F27863C1F6FF73196843F228639F
S32D0000E5F8C1F6FF731A6843F26863C1F6FF731D6843F27463C1F6FF731B687B6043F25863C1F6FF73D3F800B075
S32D0000E62043F25C63C1F6FF73D3F800A043F23463C1F6FF73D3F8009043F23863C1F6FF73D3F8008043F23C63DC
S32D0000E648C1F6FF73D3F800C043F24063C1F6FF73D3F800E043F24463C1F6FF731E6843F23063C1F6FF73186848
S32D0000E67043F22C63C1F6FF731B683B607B680093CDF804B0CDF808A0CDF80C90CDF81080CDF814C0CDF818E009
S32D0000E698079608903B68099320462B4600F0E2FC43F26063C1F6FF731C604FF0100007F005FD044643F248632C
S32D0000E6C0C1F6FF73196843F24C63C1F6FF731A6843F26063C1F6FF731B68204600F0E2FE43F26463C1F6FF73F4
S32D0000E6E81C6043F28063C1F6FF734FF006021A6043F28063C1F6FF731B684FEA8303184607F010FD024643F224
S32D0000E7108863C1F6FF731A6043F28863C1F6FF731A6847F2D033C0F20103136043F28863C1F6FF731A6847F219
S32D0000E738D433C0F20103136043F28863C1F6FF731B6803F1040247F2E033C0F20103136043F28863C1F6FF73FF
S32D0000E7601B6803F1080247F2E833C0F20103136043F28863C1F6FF731B6803F10C0247F2F033C0F2010313603A
S32D0000E78843F28863C1F6FF731B6803F1100247F20043C0F20103136043F27C63C1F6FF734FF000021A6043F2BF
S32D0000E7B08463C1F6FF734FF001021A7043F26063C1F6FF731B68184600F0B8FC43F26063C1F6FF731B681846B7
S32D0000E7D84FF0010100F0F0FC0346002B12D043F28863C1F6FF731A6843F27C63C1F6FF731B684FEA8303D3186B
S32D0000E8001B68184600F0E6F800BFD7E743F26063C1F6FF731B6818464FF0000100F0D0FC0346002B22D043F225
S32D0000E8287C63C1F6FF731B6803F1FF3243F27C63C1F6FF731A6043F27C63C1F6FF731B68002B0FDA43F27C6373
S32D0000E850C1F6FF731A6843F28063C1F6FF731B68D21843F27C63C1F6FF731A6043F26063C1F6FF731B68184688
S32D0000E8784FF0020100F0A0FC0346002B29D043F27C63C1F6FF731B6803F1010243F27C63C1F6FF731A6043F294
S32D0000E8A08063C1F6FF731B6803F1FF3243F27C63C1F6FF731B689A420FDA43F27C63C1F6FF731A6843F280633A
S32D0000E8C8C1F6FF731B68D21A43F27C63C1F6FF731A6043F27863C1F6FF731B68184600F0B9FD0346002B69D066
S32D0000E8F043F26863C1F6FF731B6818464FF0000103F07CFE43F26863C1F6FF731B68184647F20C41C0F20101FF
S32D0000E91803F022FF43F26863C1F6FF731A6843F28863C1F6FF73196843F27C63C1F6FF731B684FEA8303CB18E6
S32D0000E9401B681046194603F0F5FF43F26863C1F6FF731B68184647F21841C0F2010103F0E9FF43F26863C1F6A8
S32D0000E968FF731B68184647F23041C0F2010103F0DDFF43F26863C1F6FF731B68184647F24841C0F2010103F08E
S32D0000E990E7FE43F26863C1F6FF731A6843F28463C1F6FF731B78002B04D047F25443C0F2010303E047F25C43B1
S32D0000E9B8C0F201031046194603F0B8FF024801F0FDFEF7E6000000000AD7233C80B582B000AF786043F28463BF
S32D0000E9E0C1F6FF731B78002B1ED07A6847F20043C0F201039A4217D04FF000004FF07E5101F5E00101F004FF45
S32D0000EA0843F27463C1F6FF731B68184605F068FC43F27463C1F6FF731B68184606F01AF97A6847F2D033C0F282
S32D0000EA3001039A4201D100F03DF87A6847F2D433C0F201039A4201D100F022FA7A6847F2E033C0F201039A428F
S32D0000EA5801D100F069FA7A6847F2E833C0F201039A4201D100F0BCFA7A6847F2F033C0F201039A4201D100F099
S32D0000EA80C7FA7A6847F20043C0F201039A420CD143F28463C1F6FF731B7883F00103DAB243F28463C1F6FF73BA
S32D0000EAA81A7007F10807BD4680BD00BF80B500AF43F26863C1F6FF731B68184647F26841C0F2010103F032FF08
S32D0000EAD043F25463C1F6FF731B681846E24902F0CBFE43F26463C1F6FF731B68184600F079FF4FF000004FF050
S32D0000EAF87E5101F5E00101F087FE43F26463C1F6FF731B68D74A1A6043F26063C1F6FF731B68184600F0BCFBE8
S32D0000EB204FF000004FF07E5101F5E00101F070FE43F26463C1F6FF731B6818464FF06401CB4A01F00FF84FF04E
S32D0000EB4800004FF07E5101F5E00101F05DFE43F26063C1F6FF731B68184600F0A9FB4FF000004FF07E5101F595
S32D0000EB70E00101F04DFE43F26063C1F6FF731B681B7A002B5FD143F26463C1F6FF731B6818464FF000014FF041
S32D0000EB9800024FF0010300F037FE4FF000004FF07E5101F5E00101F02FFE43F26463C1F6FF731B6818464FF05E
S32D0000EBC06401AC4A00F0CEFF4FF000004FF07E5101F5E00101F01CFE43F26463C1F6FF731B6818464FF05A0140
S32D0000EBE84FF001024FF0000300F00EFE4FF000004FF07E5101F5E00101F006FE43F26463C1F6FF731B68184660
S32D0000EC1000F0E8FE43F25463C1F6FF731B681846954902F029FE4FF000004FF0804101F0EFFD43F25463C1F654
S32D0000EC38FF731B6818468A4902F01AFE5EE043F26463C1F6FF731B6818464FF000014FF001024FF0000300F086
S32D0000EC60D7FD4FF000004FF07E5101F5E00101F0CFFD43F26463C1F6FF731B6818466FF063017E4A00F06EFFE3
S32D0000EC884FF000004FF07E5101F5E00101F0BCFD43F26463C1F6FF731B6818464FF05A014FF000024FF001036C
S32D0000ECB000F0AEFD4FF000004FF07E5101F5E00101F0A6FD43F26463C1F6FF731B68184600F088FE43F254637B
S32D0000ECD8C1F6FF731B681846654902F0C9FD4FF000004FF0804101F08FFD43F25463C1F6FF731B6818465A4949
S32D0000ED0002F0BAFD43F26463C1F6FF731B6818464FF064015A4A00F025FF4FF000004FF07E5101F5E00101F0C5
S32D0000ED2873FD43F26463C1F6FF731B6818464FF000014FF000024FF0010300F065FD4FF000004FF07E5101F5EE
S32D0000ED50E00101F05DFD43F26463C1F6FF731B68184600F03FFE4FF000004FF07E5101F5E00101F04DFD43F2A2
S32D0000ED786463C1F6FF731B6818464FF064013F4A00F0ECFE4FF000004FF07E5101F5E00101F03AFD43F264634D
S32D0000EDA0C1F6FF731B6818464FF05A014FF001024FF0000300F02CFD4FF000004FF07E5101F5E00101F024FDCE
S32D0000EDC843F26463C1F6FF731B68184600F006FE4FF000004FF07E5101F5E00101F014FD43F26463C1F6FF73D8
S32D0000EDF01B6818464FF06401234A00F0B3FE4FF000004FF07E5101F5E00101F001FD43F26463C1F6FF731B68A7
S32D0000EE1818464FF00A014FF000024FF0000300F0F3FC4FF000004FF07E5101F5E00101F0EBFC43F26463C1F613
S32D0000EE40FF731B68184600F051FD43F26463C1F6FF731B6818464FF064014FF000020B4B00F0A2FB80BD00BF49
S32D0000EE680000F04100007042000010410000204000001643000040400000E04000009441000008420000803E12
S32D0000EE9080B500AF43F25063C1F6FF731B681846214902F0E9FC4FF000004FF07E5101F5E00101F0ADFC43F24A
S32D0000EEB86463C1F6FF731B6818464FF078014FF000024FF0010300F09FFC4FF000004FF07E5101F5E00101F07F
S32D0000EEE097FC43F26463C1F6FF731B6818464FF05A014FF001024FF0010300F089FC4FF000004FF07E5101F594
S32D0000EF08E00101F081FC43F25063C1F6FF731B681846044902F0ACFCFFF7C8FD80BD00BF0000F0420000344254
S32D0000EF3098B500AF43F26863C1F6FF731B68184603F086FB43F26863C1F6FF731C6843F26063C1F6FF731B68E8
S32D0000EF581B6A184601F00EFE03462046194603F021FD43F26863C1F6FF731C6843F26063C1F6FF731B685B6A76
S32D0000EF80184601F0FBFD03462046194603F00EFD43F26863C1F6FF731C6843F26063C1F6FF731B689B6A18465C
S32D0000EFA801F0E8FD03462046194603F0FBFC43F26863C1F6FF731C6843F26063C1F6FF731B68DB6A184601F088
S32D0000EFD0D5FD03462046194603F0E8FC014801F0F1FBA7E7CDCCCC3D80B500AF43F25463C1F6FF731B6818462C
S32D0000EFF802F014FD4FF000004FF0804101F5101101F002FC80BD00BF80B500AF43F26463C1F6FF731B681846BD
S32D0000F02000F024FE80BD00BF80B582B000AF786039607B68012B0AD13A684FF6FF739A4205D143F26C60C1F680
S32D0000F048FF7005F009F907F10807BD4680BD00BF80B500AF4FF001004FF6FF71FFF7E0FF80BD00BF80B586B019
S32D0000F07000AFF860B9607A603B604FF0030007F055F80246FB681A644FF0030007F04EF80246FB68DA634FF088
S32D0000F09800037B6111E0FB681A6C7B69D3184FF000021A70FB68DA6B7B69D3184FF000021A707B6903F10103D9
S32D0000F0C07B617B69022BCCBF00230123DBB2002BE5D1FB687A685A61FB683A6ADA60FB683A681A61FB687A6AED
S32D0000F0E89A61FB68BA6ADA61FB68FA6A1A62FB683A6B5A62FB687A6B9A62FB68BA6BDA62FB68FA6B1A63FB6886
S32D0000F1103A6C5A63FB687A6C9A63FB68BA685A64FB685B6C1846044900F08AF9FB68184607F11807BD4680BD85
S32D0000F138CDCCCC3D90B585B000AF78604FF00003FB600DE07B68DA6BFB68D3187A68116CFA688A1812781A708F
S32D0000F160FB6803F10103FB60FB68022BCCBF00230123DBB2002BE9D17B681C6C7B685B69184602F0D9F903467A
S32D0000F18823707B681B6C03F101047B685B69184602F0E0F9034623707B681B6C03F102047B685B69184602F05C
S32D0000F1B0E9F90346237007F11407BD4690BD00BF80B483B000AF78600B46FB707B681A6CFB78D3181B78002B22
S32D0000F1D80CD07B68DA6BFB78D3181B7883F00103DBB2002B02D04FF0010301E04FF00003184607F10C07BD4641
S32D0000F20080BC704780B582B000AF78607B689B69184602F0FDF87B68DB69184602F0F8F807F10807BD4680BD25
S32D0000F22890B583B000AF78607B689B69184602F0DFF804467B68DB69184602F0D9F80346E3181846FDF732FA57
S32D0000F25002460B46104619464FF000024FF08043FDF7B8FB02460B461046194608A3D3E90023FDF7AFFB02469A
S32D0000F2780B4610461946FDF7D9FC0346184607F10C07BD4690BD00BF000000E02E3C164080B582B000AF78604A
S32D0000F2A07B689B6B184601F01FFD02467B681A6007F10807BD4680BD90B583B000AF78607B689B6B184601F0C9
S32D0000F2C80FFD02467B685A607B681B6818463249FDF700FD03461A467B685B684FF001010C4610461946FDF76C
S32D0000F2F0BBFF0346002B02D14FF000031C46E3B2002B24D07B684FF001021A727B681B6918464FF0020103F0EC
S32D0000F31871F97B681B69184647F27841C0F2010103F004FB7B681A697B681B681046194603F024FB7B681A6907
S32D0000F3407B685B681046194603F01CFB23E07B684FF000021A727B681B6918464FF0040103F04CF97B681B69DF
S32D0000F368184647F28841C0F2010103F0DFFA7B681A697B681B681046194603F0FFFA7B681A697B685B681046C8
S32D0000F390194603F0F7FA07F10C07BD4690BD00BF0000803F80B582B000AF7860396001F05BFA02460B46104677
S32D0000F3B81946FDF73BFC02467B681A607B683A685A607B68184607F10807BD4680BD00BFB0B582B000AF786054
S32D0000F3E001F042FA04460D467B681B681846FDF773F902460B4620462946FDF70DF802460B4610461946FDF768
S32D0000F40815FC0346184607F10807BD46B0BD00BF80B582B000AF786001F022FA02460B4610461946FDF702FCAD
S32D0000F43002467B681A6007F10807BD4680BD00BF80B483B000AF786039607B683A685A6007F10C07BD4680BCF3
S32D0000F458704700BF90B585B000AF78607868FFF7B7FF02467B685B684FF001010C4610461946FDF7F5FE03461D
S32D0000F480002B02D14FF000031C46FC73FB7B002B02D07868FFF7C0FFFB7B184607F11407BD4690BD80B485B0A5
S32D0000F4A800AFF860B9607A603B60FB68BA685A60FB687A689A60FB683A68DA60FB68044A1A60FB68184607F100
S32D0000F4D01407BD4680BC70470000484290B587B000AFF860B9607A60BA687B68D3187B61BA687B68D31A3B61A3
S32D0000F4F87B69642B02DD4FF064037B617B6913F1640F02DA6FF063037B613B69642B02DD4FF064033B613B6942
S32D0000F52013F1640F02DA6FF063033B61FB685C687B69C3F100031846FDF786FC03462046194600F011FEFB6803
S32D0000F5489C683869FDF77CFC03462046194600F007FE07F11C07BD4690BD00BF90B585B000AFF860B9607A60E3
S32D0000F570FB685C68BB68C3F100031846FDF764FC03462046194600F0EFFDFB689C687868FDF75AFC0346204690
S32D0000F598194600F0E5FD07F11407BD4690BD00BF80B584B000AFF860B9607A603B60F868B9687A68FFF78EFF0E
S32D0000F5C0386801F0FFF8F8684FF000014FF00002FFF784FF07F11007BD4680BD90B58DB000AFF860B9601346F1
S32D0000F5E8FB71FB68DB68DB68184605F0ADFB03461846FDF73FFE03463B623B6AFB61FA69BB68D318BB61BB6935
S32D0000F610FB624FF0000387F82B304FF0000387F82A30BB68002BD4BF00230123FB75BB684FEAD373BB75BB69AA
S32D0000F638B32B07DDFB6AA3F1B403FB624FF0010387F82A30BB69002B07DAFB6A03F1B403FB624FF0010387F85A
S32D0000F6602B30FB68DB68DB68184605F071FB03461846FDF703FE03463B623B6A7B6297F82A30002B06D03B6AE6
S32D0000F688592B03DC7B6A03F1B4037B6297F82B30002B06D03B6A5A2B03DD7B6AA3F1B4037B627A6ABB69D31A8D
S32D0000F6B03B61FB7D002B3AD0FB79002B19D1FB681C683869FDF7C0FB034618464E49FDF70FFC034620461946D8
S32D0000F6D8FDF700FB03461846FDF7CCFD0346F8684FF000011A46FFF739FFFB79012B1AD13869FDF7A5FB034631
S32D0000F70018464149FDF7F4FB03461A46FB681B6810461946FDF7E2FA03461846FDF7AEFD0346F86819464FF06F
S32D0000F7280002FFF71BFFBB7D002B3BD0FB79002B1BD1FB681B6883F000443869FDF780FB034618462E49FDF7E9
S32D0000F750CFFB034620461946FDF7C0FA03461846FDF78CFD0346F8684FF000011A46FFF7F9FEFB79012B19D121
S32D0000F778FB681C683869FDF763FB034618462049FDF7B2FB034620461946FDF7A5FA03461846FDF76FFD0346E7
S32D0000F7A0F86819464FF00002FFF7DCFE3B69052B0ADDFB7D002B1FD0F8684FF000014FF00002FFF7CFFE1BE07F
S32D0000F7C83B6913F1050F0ADABB7D002B10D0F8684FF000014FF00002FFF7C0FE0CE0F8684FF000014FF00002CE
S32D0000F7F0FFF7B8FE00BF03E0044800F0E3FF30E707F13407BD4690BD398EE33E0AD7233C80B586B000AFF8604B
S32D0000F818B960FA71BB71FB68DB68DB68184605F093FA03461846FDF725FD03463B614FF000037B61FB79002BEA
S32D0000F84012D1BA683B699A4204DDBA683B69D31A7B6109E0BA683B699A4205DABB6803F1B4023B69D31A7B6101
S32D0000F868FB79012B12D1BA683B699A4206DDBB68A3F1B4023B69D31A7B6107E0BA683B699A4203DABA683B6964
S32D0000F890D31A7B617B695A2B0ADC7B6913F15A0F06DBBB79F86879691A46FFF797FE19E07B694FEAD372D31859
S32D0000F8B84FEA63031A46BB79F86811461A46FFF789FE7B694FEAD372D3184FEA63031A46BB79F86811461A46C4
S32D0000F8E0FFF77CFE07F11807BD4680BD90B583B000AF786000E000BF7B68DB681B6A184601F03CF90346002BF2
S32D0000F90802D04FF0640401E04FF000047B68DB685B6A184601F02EF90346002B02D04FF0640301E04FF00003C4
S32D0000F930786821461A46FFF715FE294800F042FF7B68DB681B6A184601F018F9034683F00103DBB2002B0ED0F6
S32D0000F9587B68DB685B6A184601F00CF9034683F00103DBB2002B02D04FF0010301E04FF00003002BBBD000BF1D
S32D0000F98078684FF000014FF00002FFF7A7FD4FF000004FF07E5101F5C00100F039FF7B68DB681B6A184601F038
S32D0000F9A8E9F80346002B08D17B68DB685B6A184601F0E0F80346002B02D04FF0010301E04FF00003002B02D048
S32D0000F9D0786800F007F807F10C07BD4690BD00BF0AD7233C90B583B000AF78607B68DB689B6A184601F0C2F8AD
S32D0000F9F80346002B02D06FF0630401E04FF000047B68DB68DB6A184601F0B4F80346002B02D06FF0630301E05F
S32D0000FA204FF00003786821461A46FFF79BFD7B68DB689B6A184601F0A1F8034683F00103DBB2002B0ED07B68F5
S32D0000FA48DB68DB6A184601F095F8034683F00103DBB2002B02D04FF0010301E04FF00003002B48D17B68DB6812
S32D0000FA705B6C1846FFF7F2FC0346002B3BD07B68DB681B69184602F0E3FD7B68DB681B69184647F29841C0F23A
S32D0000FA98010102F061FE7B68DB681C697B68DB689B6A184601F066F8034683F00103DBB22046194602F006FF61
S32D0000FAC07B68DB681B69184647F2A041C0F2010102F046FE7B68DB681C697B68DB68DB6A184601F04BF803461B
S32D0000FAE883F00103DBB22046194602F0EBFE1A4800F064FE76E700BF78684FF000014FF00002FFF7E7FC4FF003
S32D0000FB1000004FF07E5101F5C00100F079FE7B68DB689B6A184601F029F80346002B08D17B68DB68DB6A1846EA
S32D0000FB3801F020F80346002B02D04FF0010301E04FF00003002B02D07868FFF747FF07F10C07BD4690BD00BFB7
S32D0000FB600AD7233C90B589B000AFF860B9607A604FF00103FB61BB68002B06DA4FF0FF33FB61BB68C3F100034B
S32D0000FB88BB60B868FDF75CF9034618463249FDF7A1F8034618463149FDF75AFA0346BB61F868B9684FF000028C
S32D0000FBB0FFF794FCFB68DB689B69184601F028FCFB68DB68DB69184601F022FC7B687B6100E000BFFB68DB6829
S32D0000FBD81846FFF725FB034678681946FDF77AF803467B61F869FDF72BF90446B8697969FDF77AF903461846A4
S32D0000FC001749FDF76DF8034620461946FDF770F903461846FDF732FB0346F86819464FF00002FFF75BFC4FF015
S32D0000FC2801031C4678690E49FDF7FCFA0346002B02D14FF000031C46E3B2002BC5D000BFF8684FF000014FF048
S32D0000FC500002FFF743FC07F12407BD4690BD00BF000070420000C0400000000080B584B000AF78604FF04603F3
S32D0000FC78FB60214BBB607B68DB681846FFF7BEFA20E07B68DB689B69184601F0B1FB0246FB6892FBF3F21346AF
S32D0000FCA04FEA83039B184FEAC303A3F164031846FDF7CAF80346BB60B868FDF7DFFA0346786819466FF0630219
S32D0000FCC8FFF708FC7B68DB689B69184601F090FB0246FB689A42ACBF00230123DBB2002BCFD178684FF000015F
S32D0000FCF04FF00002FFF7F2FB07F11007BD4680BD0000C84280B500AF43F6A072C1F6FF7243F22863C1F6FF7329
S32D0000FD18D31A194643F22863C1F6FF731A460B4610464FF000011A4605F03FF980BD00BF06F0A8F900F0B0F988
S32D0000FD40FFF7E0FF06F07AF906F016F906F0AEF900F00CF84FF0000043F28C61C1F6FF71FEF70CFB0346184696
S32D0000FD6805F0FEF880B500AF4FF4E043C4F204034FF4E042C4F2040202F5805202F13802126842F4785203F5F2
S32D0000FD90805303F138031A6000F02EF900F094F843F29863C1F6FF734FF058021A6043F29863C1F6FF731B68EE
S32D0000FDB84FF47A7202FB03F243F29463C1F6FF731A6043F29463C1F6FF731B681A464FF4E043C4F2040303F5DA
S32D0000FDE0825303F104031B6803F070634FEA136303F10103B2FBF3F31A4643F29C63C1F6FF731A604FF4E04305
S32D0000FE08C4F204034FF4E042C4F2040202F5805202F13C02126842F0225203F5805303F13C031A604FF4E043F6
S32D0000FE30C4F204034FF4E042C4F2040202F5805202F13002126842F0006203F5805303F130031A604FF4504388
S32D0000FE58C4F203034FF480721A614FF0640000F027FB4FF45043C4F203034FF45042C4F20302526922F010025A
S32D0000FE805A614FF45043C4F203034FF000021A604FF45043C4F203034FF010025A6101F075F801F01DF943F214
S32D0000FEA89060C1F6FF7000F087FB43F2CC60C1F6FF7002F087FA41F2883000F065FC80BD80B400AF4FF4804348
S32D0000FED0C4F206034FF000025A704FF48043C4F206034FF098021A704FF48043C4F206039B79DBB203F01003A6
S32D0000FEF8002B0CBF00230123DBB2002BF0D14FF48043C4F206039B79DBB203F00C034FEA9303022B0CBF0023D4
S32D0000FF200123DBB2002BEED14FF48043C4F206034FF018021A714FF48043C4F206034FF000025A714FF4E04338
S32D0000FF48C4F2040303F5825303F104034FF00002C0F213121A604FF48043C4F206034FF054025A7100BF4FF44D
S32D0000FF708043C4F206039B79DBB203F02003002B14BF00230123DBB2002BF0D100BF4FF48043C4F206039B79D4
S32D0000FF98DBB203F04003002B14BF00230123DBB2002BF0D14FF48043C4F206034FF48042C4F206021278D2B224
S32D0000FFC002F03F02D2B21A704FF48043C4F206039B79DBB203F00C034FEA9303032B0CBF00230123DBB2002BA3
S32D0000FFE8EED14FF000031846BD4680BC704700BF80B400AF4FF44043C4F204034FF480725A634FF2C003C4F2C5
S32D000100100F034FF2C002C4F20F02526942F400525A614FF2C003C4F20F034FF2C002C4F20F02126842F400524F
S32D000100381A604FF44043C4F2040340F20312C0F20A021A634FF46143CEF200034FF46142CEF20002D2F8882155
S32D0001006042F08062C3F888214FF46143CEF200034FF46142CEF20002926842F080629A60BD4680BC704700BFEA
S32D0001008880B483B000AF7860FEE700BF80B400AF00BEBD4680BC704780B400AF4FF0E0224CF20003C0F2000306
S32D000100B0C2F8083D4FF40053C4F205034CF22052DA814FF40053C4F205034DF62812DA814FF40053C4F2050343
S32D000100D84FF0D2021A80BD4680BC704780B400AF4FF44043C4F20403D3F8A03003F48053002B0CBF002301234E
S32D00010100DBB2002B19D04FF44043C4F204034FF44042C4F20402D2F8A02022F48052C3F8A0204FF2C003C4F284
S32D000101280F034FF2C002C4F20F02126822F400521A60BD4680BC704780B483B000AF78600B46FB707B68FA787B
S32D000101501A707B684FF000025A707B68184607F10C07BD4680BC704790B585B000AF786039604FF001031C4687
S32D0001017838682F49FDF756F80346002B02D14FF000031C46E3B2002B02D0294B3B6011E04FF001031C4638683C
S32D000101A02649FDF761F80346002B02D14FF000031C46E3B2002B01D0204B3B603868FCF78BFA02460B461046EB
S32D000101C819464FF000024FF0804303F5B203FCF7FDFB02460B461046194613A3D3E90023FCF7CAFA02460B469B
S32D000101F010461946FCF7D6FC0346FB737B685B78FA7B9A420FD07B68FA7B5A707B681A78FB7B43F29060C1F6E0
S32D00010218FF7011461A464FF01E0300F017FA07F11407BD4690BD00BF0000000000C05F400000C8C20000C8421B
S32D0001024090B486B000AFF860B9607A60FA684FF42043C4F206039A4214D14FF4E043C4F204034FF4E042C4F255
S32D00010268040202F5805202F13402126842F4806203F5805303F134031A6083E0FA684FF43043C4F206039A4257
S32D0001029014D14FF4E043C4F204034FF4E042C4F2040202F5805202F13402126842F4006203F5805303F134031C
S32D000102B81A6067E0FA684FF44043C4F206039A4214D14FF4E043C4F204034FF4E042C4F2040202F5805202F1AE
S32D000102E03402126842F4805203F5805303F134031A604BE0FA684FF45043C4F206039A4214D14FF4E043C4F2C8
S32D0001030804034FF4E042C4F2040202F5805202F13402126842F4005203F5805303F134031A602FE0FA684FF486
S32D000103302043C4F20E039A4214D14FF4E043C4F204034FF4E042C4F2040202F5805202F12802126842F48062F7
S32D0001035803F5805303F128031A6013E04FF4E043C4F204034FF4E042C4F2040202F5805202F12802126842F445
S32D00010380006203F5805303F128031A60FB68DB78DBB223F00C03DAB2FB68DA70FB684FF000029A70BB684FF4D6
S32D000103A87A7202FB03F27B684FEA031392FBF3F39CB2FB681B78DBB223F01F03FB75234603F4F8534FEA232303
S32D000103D0DBB203F01F03DAB2FB7D1343DAB2FB681A70E2B2FB685A70BB684FF4FA4202FB03F27B684FEA031302
S32D000103F892FBF3F39AB2234619464FEAC121CB1A4FEA43139BB2D3189CB2FB689B7ADBB223F01F03FB75E3B2FB
S32D0001042003F01F03DAB2FB7D1343DAB2FB689A72FB68DB78DBB243F00C03DAB2FB68DA7007F11807BD4690BC1F
S32D00010448704700BF80B483B000AF786000BF7B681B79DBB203F02003002B14BF00230123DBB2002BF3D17B68A4
S32D00010470DB79DBB2184607F10C07BD4680BC704780B483B000AF78600B46FB7000BF7B681B79DBB2DBB26FEACA
S32D000104980303DBB24FEAD313DBB2002BF3D17B68FA78DA7107F10C07BD4680BC704700BF80B483B000AF7860B9
S32D000104C04FF4E043C4F204034FF4E042C4F2040202F5805202F13802126842F0010203F5805303F138031A60B0
S32D000104E84FF00003C4F204037A689A604FF00003C4F204034FF005025A604FF00003C4F204034FF00002C4F215
S32D000105100402126842F001021A6000BF4FF00003C4F204031B6803F08003002B14BF00230123DBB2002BF1D117
S32D000105384FF00003C4F204034FF00002C4F20402126822F001021A6007F10C07BD4680BC704700BF80B582B068
S32D0001056000AF786039607B68012B0AD13A684FF6FF739A4205D143F29060C1F6FF7000F00FF807F10807BD460B
S32D0001058880BD00BF80B500AF4FF001004FF6FF71FFF7E0FF80BD00BF80B483B000AF78607B684FF000021A7002
S32D000105B07B68184607F10C07BD4680BC704700BF80B582B000AF78607B681B7883F00103DBB2002B36D04FF43F
S32D000105D8E043C4F2040303F5805303F128034FF400621A604FF45043C4F204034FF440721A624FF45043C4F27B
S32D0001060004034FF440725A6243F29463C1F6FF731B684FEAD372D3184FEA63034FF43040C4F20E0019464FF41A
S32D000106286142FFF709FE4FF0640000F0ADF87B684FF001021A704FF0010301E04FF00003184607F10807BD464E
S32D0001065080BD00BF80B582B000AF7860F970BA707B704FF43040C4F20E004FF07F01FFF707FF4FF43040C4F278
S32D000106780E004FF00801FFF7FFFEFB784FF43040C4F20E001946FFF7F7FEBB784FF43040C4F20E001946FFF7D7
S32D000106A0EFFE7B784FF43040C4F20E001946FFF7E7FE4FF43040C4F20E004FF0FF01FFF7DFFE07F10807BD4607
S32D000106C880BD00BF80B487B000AFF860B9607A60FA6844F6D353C1F26203A3FB02134FEA9312BB68D3187B614D
S32D000106F0FA6844F6D353C1F26203A3FB02134FEA93134FF47A7101FB03F3D31AFB60FB684FEAC33244F6D35316
S32D00010718C1F26203A3FB02134FEA93127B68D3183B613B694FEAD3337A69D3187B613B694FEA43434FEA5343E0
S32D000107403B614FF45043C4F203031B681A467B699A4211D34FF45043C4F203031B681A467B699A420BD14FF481
S32D000107685043C4F203035B681A463B699A4202D24FF0010301E04FF00003002BDDD107F11C07BD4680BC70474C
S32D0001079080B584B000AF78604FF45043C4F203031B68FB604FF45043C4F203035B68BB607B681846F968BA68A6
S32D000107B8FFF788FF07F11007BD4680BD80B584B000AF78604FF45043C4F203031B68FB604FF45043C4F2030354
S32D000107E05B68BB6078680849FCF782FB03461846FCF76AFD03461846F968BA68FFF766FF07F11007BD4680BD96
S32D0001080800007A440000000080B584B000AFC7E900014FF45043C4F203031B68FB604FF45043C4F203035B6875
S32D00010830BB60D7E900010AA3D3E90023FBF7A0FF02460B4610461946FCF7D4F903461846F968BA68FFF73AFF39
S32D0001085807F11007BD4680BD0000000000408F4080B584B000AF4FF45043C4F203031B68FB604FF45043C4F2FF
S32D0001088003035B68BB60F868FBF704FF02460B46C7E90023B868FBF7FDFE02460B46104619464FF000024FF0C9
S32D000108A8804303F56003FCF791F802460B46D7E90001FBF7AFFD02460B46C7E90023D7E900231046194607F193
S32D000108D01007BD4680BD00BF80B483B000AF4FF45043C4F203031B684FF47A7202FB03F37B604FF45043C4F22F
S32D000108F803035B684FF47A7202FB03F34FEAD3337A68D3187B607B68184607F10C07BD4680BC704780B582B056
S32D0001092000AF78600B46FB70FB787868194600F013F87B68184607F10807BD4680BD00BF80B483B000AF786083
S32D000109487B68184607F10C07BD4680BC704700BF80B483B000AF78600B46FB707B68FA781A707B681B781A4620
S32D0001097047F2BC63C0F201039B5C042B00F2F98001A252F823F000BF9D090100FB090100590A0100B70A010028
S32D00010998150B01004FF41043C4F204037A681278114647F20072C0F2010252F8212040F2031143F822104FF418
S32D000109C07043C4F20F034FF47042C4F20F02526911467A681278104647F20072C0F2010252F8202002F01F0200
S32D000109E84FF0010000FA02F26FEA02020A405A61BBE04FF42043C4F204037A681278114647F20072C0F201022F
S32D00010A1052F8212040F2031143F822104FF24003C4F20F034FF24002C4F20F02526911467A681278104647F2D6
S32D00010A380072C0F2010252F8202002F01F024FF0010000FA02F26FEA02020A405A618CE04FF43043C4F204035C
S32D00010A607A681278114647F20072C0F2010252F8212040F2031143F822104FF28003C4F20F034FF28002C4F201
S32D00010A880F02526911467A681278104647F20072C0F2010252F8202002F01F024FF0010000FA02F26FEA0202D2
S32D00010AB00A405A615DE04FF44043C4F204037A681278114647F20072C0F2010252F8212040F2031143F82210F1
S32D00010AD84FF2C003C4F20F034FF2C002C4F20F02526911467A681278104647F20072C0F2010252F8202002F0A9
S32D00010B001F024FF0010000FA02F26FEA02020A405A612EE04FF45043C4F204037A681278114647F20072C0F254
S32D00010B28010252F8212040F2031143F822104FF47143C4F20F034FF47142C4F20F02526911467A68127810460D
S32D00010B5047F20072C0F2010252F8202002F01F024FF0010000FA02F26FEA02020A405A6100BF07F10C07BD461C
S32D00010B7880BC704780B485B000AF78604FF00003FB607B681B781A4647F2BC63C0F201039B5C042B00F28680CC
S32D00010BA001A252F823F000BFBD0B0100ED0B01001D0C01004D0C01007D0C01004FF47043C4F20F031B691A46F5
S32D00010BC87B681B78194647F20073C0F2010353F8213003F01F034FF0010101FA03F31340FB605FE04FF2400373
S32D00010BF0C4F20F031B691A467B681B78194647F20073C0F2010353F8213003F01F034FF0010101FA03F31340BD
S32D00010C18FB6047E04FF28003C4F20F031B691A467B681B78194647F20073C0F2010353F8213003F01F034FF094
S32D00010C40010101FA03F31340FB602FE04FF2C003C4F20F031B691A467B681B78194647F20073C0F2010353F8A3
S32D00010C68213003F01F034FF0010101FA03F31340FB6017E04FF47143C4F20F031B691A467B681B78194647F26F
S32D00010C900073C0F2010353F8213003F01F034FF0010101FA03F31340FB6000BFFB68002B0CBF00230123DBB28F
S32D00010CB8184607F11407BD4680BC704780B483B000AF78600B46FB707B68FA781A707B68184607F10C07BD46CE
S32D00010CE080BC70470000000080B586B000AF78607B681B781A4647F28073C0F2010353F822303B617B681B7899
S32D00010D081A4647F2DC63C0F201039B5CFB733B69DBB203F01F03DAB243F2A063C1F6FF731A723B69DBB203F0E6
S32D00010D301F03DAB243F2A063C1F6FF735A724FF46143CEF200034FF46142CEF20002D2F8882042F01002C3F8F6
S32D00010D588820FB7B002B1ED14FF43040C4F2030043F2A061C1F6FF7100F0C2FC4FF43043C4F203031B6803F0D5
S32D00010D808003002B14BF00230123DBB2002BF1D14FF43043C4F203031B697B611DE04FF43040C4F20B0043F28A
S32D00010DA8A061C1F6FF7100F0A3FC4FF43043C4F20B031B6803F08003002B14BF00230123DBB2002BF1D14FF4F0
S32D00010DD03043C4F20B031B697B614FF46143CEF200034FF46142CEF20002D2F8882142F01002C3F888214FF4AD
S32D00010DF86143CEF200034FF46142CEF20002926842F010029A604FF46143CEF200034FF46142CEF20002D2F869
S32D00010E20882142F08062C3F888214FF46143CEF200034FF46142CEF20002926842F080629A607B694FEA0343C5
S32D00010E484FEA13431846FBF721FC02460B46104619460FA3D3E90023FBF78EFC02460B46104619460CA3D3E96B
S32D00010E700023FBF7AFFD02460B4610461946FBF7D9FE0346BB60BB68184607F11807BD4680BD00BFAFF300805E
S32D00010E98A4703D0AD7A30A4000000000E0FFEF4080B586B000AF78607B681B781A4647F28073C0F2010353F809
S32D00010EC022303B617B681B781A4647F2DC63C0F201039B5CFB733B69DBB203F01F03DAB243F2B063C1F6FF7369
S32D00010EE81A723B69DBB203F01F03DAB243F2B063C1F6FF735A72FB7B002B1ED14FF43040C4F2030043F2B061FE
S32D00010F10C1F6FF7100F0F0FB4FF43043C4F203031B6803F08003002B14BF00230123DBB2002BF1D14FF43043D0
S32D00010F38C4F203031B697B611DE04FF43040C4F20B0043F2B061C1F6FF7100F0D1FB4FF43043C4F20B031B68D7
S32D00010F6003F08003002B14BF00230123DBB2002BF1D14FF43043C4F20B031B697B617B69184607F11807BD46F7
S32D00010F8880BD00BF98B500AF43F2A063C1F6FF734FF05C021A7043F2A063C1F6FF734FF010025A7043F2A06306
S32D00010FB0C1F6FF7341F234225A8043F2A063C1F6FF7345F278629A8043F2A063C1F6FF734FF010029A7143F208
S32D00010FD8A063C1F6FF734FF00702DA7143F2A063C1F6FF734FF4C022DA6043F2A063C1F6FF734FF01F021A721E
S32D0001100043F2A063C1F6FF734FF01F025A724FF43040C4F2030043F2A061C1F6FF7100F06BFB4FF43040C4F2AC
S32D000110280B0043F2A061C1F6FF7100F061FB4FF43040C4F20B0000F0B5FA4FF43040C4F2030000F0AFFA4FF48A
S32D000110503040C4F20B0043F2A061C1F6FF7100F04BFB4FF43040C4F2030043F2A061C1F6FF7100F041FB43F283
S32D00011078B062C1F6FF7243F2A063C1F6FF7314460FCB84E80F0043F2B063C1F6FF734FF05C021A7043F2B0631F
S32D000110A0C1F6FF734FF00402DA7198BD80B500AF43F2C463C1F6FF731B6803F1010243F2C463C1F6FF731A6031
S32D000110C800F016F94FF4E043C4F203034FF00102C3F80C2180BD00BF80B500AF4FF4E043C4F203034FF001026A
S32D000110F01A6048F2A060C0F2010000F023F84FF4E043C4F203034FF00302C3F808214FF46143CEF200034FF428
S32D000111186142CEF20002D2F8882142F01002C3F888214FF46143CEF200034FF46142CEF20002926842F0100298
S32D000111409A6080BD80B483B000AF78604FF4E043C4F203037A68C3F8002107F10C07BD4680BC704780B584B011
S32D0001116800AF78600B46FB707A68FB7810461946FFF7A4FD43F2C063C1F6FF731B68002B32D17B684FF000021E
S32D000111901A617B684FF000025A614FF0140004F091FF02467B689A617B689B697A689A607B689B694FF00102ED
S32D000111B85A607B689B69FA781A707B689B694FF00002DA607B689B694FF000021A617B689B694FF000025A7074
S32D000111E07B689A6943F2C063C1F6FF731A6071E043F2C063C1F6FF731B68FB6002E0FB68DB68FB60FB681B7876
S32D00011208FA789A4206D0FB68DB68002B02D04FF0010301E04FF00003002BECD1FB681B78FA789A4224D17B6886
S32D00011230FA689A617B689B699B68BB6002E0BB681B69BB60BB681B69002B0CBF00230123DBB2002BF3D1BB6806
S32D000112587A681A617B68BA685A617B684FF000021A617B689B695A6802F101025A602DE07B684FF000021A61A6
S32D000112807B684FF000025A614FF0140004F01AFF02467B689A617B689B697A689A607B689B694FF001025A6034
S32D000112A87B689B69FA781A707B689B694FF00002DA607B689B694FF000025A707B689B69FA681A617B689A6936
S32D000112D0FB68DA60786800F09BF87B684FF48C429A607B684FF45242DA607B68184607F11007BD4680BD00BFBE
S32D000112F880B584B000AF43F2C063C1F6FF731B68FB6029E0FB685B78FB71FB689B68184600F02EF80346BB7156
S32D00011320BB79002B19D0FB685B68012B15DDFB689B681B69BB6008E0BB685B6803F10102BB685A60BB681B69C4
S32D00011348BB60BB68002B0CBF00230123DBB2002BEED1FB68DB68FB60FB68002B0CBF00230123DBB2002BCDD18D
S32D0001137007F11007BD4680BD80B584B000AF78607868FFF791FD0346FB607B689B695B78FB72FB7A002B12D15D
S32D000113987B68DA68FB689A420DDA7B689B694FF001025A707B685B6803F101027B685A604FF0010317E0FB7AFF
S32D000113C0012B12D17B689A68FB689A420DDD7B689B694FF000025A707B685B6803F101027B685A604FF0010372
S32D000113E801E04FF00003184607F11007BD4680BD80B483B000AF78607B685B68184607F10C07BD4680BC704713
S32D0001141080B483B000AF78607B684FF000025A6007F10C07BD4680BC704700BF80B582B000AF78600B46FB7077
S32D000114387B681846FFF780FA7B6803F101031846FFF77AFA7B6803F102031846FFF774FAFB78032B66D801A211
S32D0001146052F823F075140100A3140100D1140100FF1401007B6818464FF00001FFF76CFA7B6803F101031846AE
S32D000114884FF00101FFF764FA7B6803F1020318464FF00201FFF75CFA44E07B6818464FF00801FFF755FA7B6803
S32D000114B003F1010318464FF00901FFF74DFA7B6803F1020318464FF00A01FFF745FA2DE07B6818464FF01001DA
S32D000114D8FFF73EFA7B6803F1010318464FF01101FFF736FA7B6803F1020318464FF01201FFF72EFA16E07B6884
S32D0001150018464FF01801FFF727FA7B6803F1010318464FF01901FFF71FFA7B6803F1020318464FF01A01FFF7C4
S32D0001152817FA00BF7B68184607F10807BD4680BD80B582B000AF78607B681846FFF71AFB034683F00103DBB2B5
S32D00011550184607F10807BD4680BD00BF80B582B000AF78607B6803F101031846FFF706FB034683F00103DBB29D
S32D00011578184607F10807BD4680BD00BF80B582B000AF78607B6803F102031846FFF7F2FA034683F00103DBB289
S32D000115A0184607F10807BD4680BD00BF80B485B000AF78607B681B6A23F040027B681A627B685B6A23F00B02E4
S32D000115C87B685A627B685B6A43F007027B685A627B685B6A43F080027B685A627B681B6803F08003002B14BFFC
S32D000115F000230123DBB2002BF4D17B685B6A03F04003002B0CBF00230123DBB2002B02D04FF0010369E04FF098
S32D000116180003FB817B68DB6CFB817B689B6C9AB2FB89D318FB817B685B6C9AB2FB89D318FB817B681B6C9AB2C6
S32D00011640FB89D318FB817B68DB6B9AB2FB89D318FB817B689B6B9AB2FB89D318FB81FB894FEA5303FB81FB89FD
S32D000116686FEA43436FEA5343FB81FA897B68DA624FF00003FB817B68DB6EFB817B689B6E9AB2FB89D318FB81DE
S32D000116907B685B6E9AB2FB89D318FB817B681B6E9AB2FB89D318FB817B68DB6D9AB2FB89D318FB817B689B6D58
S32D000116B89AB2FB89D318FB81FB894FEA5303FB81FB896FEA43436FEA5343FB81FA897B681A637B685B6A23F0D1
S32D000116E080027B685A624FF00003184607F11407BD4680BC704700BF80B483B000AF786039603B681B781A4635
S32D000117087B689A603B685B781A467B68DA603B685B881A467B689A613B689B881A467B68DA613B689B791A46C3
S32D000117307B681A623B68DB791A467B685A623B68DA687B681A653B681B7A1A467B681A603B685B7A1A467B683E
S32D000117585A6007F10C07BD4680BC704780B483B000AF78607B68184607F10C07BD4680BC704700BF80B582B051
S32D0001178000AF786039607B68012B0AD13A684FF6FF739A4205D143F2C860C1F6FF70FFF7E1FF07F10807BD46C2
S32D000117A880BD00BF80B500AF4FF001004FF6FF71FFF7E0FF80BD00BF80B483B000AF78600B46FB707B68FA786D
S32D000117D01A707B684FF4FA725A807B6840F6C4129A807B68044A9A607B68184607F10C07BD4680BC704700BFBF
S32D000117F8000080BF80B483B000AF786039603A6840F2F3139A4204DD3A6840F6C4139A4204DD7B684FF4FA7267
S32D000118205A8003E03B689AB27B685A8007F10C07BD4680BC704700BF80B483B000AF786039603A6840F2F3130F
S32D000118489A4204DD3A6840F6C4139A4204DD7B6840F6C4129A8003E03B689AB27B689A8007F10C07BD4680BC26
S32D00011870704700BF00000000F0B585B000AF786039604FF001031C4638684B49FBF7CEFC0346002B02D14FF0BE
S32D0001189800031C46E3B2002B01D0454B3B604FF001031C4638684349FBF7DAFC0346002B02D14FF000031C467C
S32D000118C0E3B2002B01D03D4B3B607B689B6818463968FBF7A1FC0346002B64D17B683A689A607B685E887B68FD
S32D000118E89B881A467B685B88D31A1846FAF7DEFE02460B46104619462BA3D3E90023FBF765F802460B46144633
S32D000119101D463868FAF7E0FE02460B4620462946FAF72EFF02460B4610461946FBF762F903469BB2F318FB8192
S32D00011938FB897B73FB894FEA23233B734FF43040C4F20E004FF07F01FEF796FD4FF43040C4F20E004FF00501E3
S32D00011960FEF78EFD7B681B784FF43040C4F20E001946FEF785FD3B7B4FF43040C4F20E001946FEF77DFD7B7B24
S32D000119884FF43040C4F20E001946FEF775FD4FF43040C4F20E004FF0FF01FEF76DFD07F11407BD46F0BD00BF5C
S32D000119B00000000000806640000000000000344380B582B000AF78604FF43040C4F20E004FF07F01FEF754FD01
S32D000119D84FF43040C4F20E004FF00901FEF74CFD7B681B784FF43040C4F20E001946FEF743FD4FF43040C4F2F8
S32D00011A000E004FF00101FEF73BFD4FF43040C4F20E004FF0FF01FEF733FD07F10807BD4680BD00BF80B586B0EF
S32D00011A2800AF786043F2CC60C1F6FF704FF0000100F0E0FD43F2CC60C1F6FF704FF0010100F036FE07F1140379
S32D00011A5018464FF01801FEF761FF07F1100318464FF01901FEF75AFF07F10C0318464FF01A01FEF753FF43F211
S32D00011A78CC60C1F6FF7047F2A841C0F2010100F055FF43F2CC60C1F6FF7047F2C441C0F2010100F04BFF43F2EB
S32D00011AA0CC60C1F6FF7047F2D441C0F2010100F041FF43F2CC60C1F6FF7047F2E841C0F2010100F037FF62E08E
S32D00011AC87B68B54A9A607868B449FFF7D1FE00BF07F114031846FFF74DF80346002B12D007F10C031846FFF759
S32D00011AF045F80346002B0AD007F110031846FFF73DF80346002B02D04FF0010301E04FF00003002BE0D107F128
S32D00011B1814031846FFF72EF8034683F00103DBB2002B10D07B685B8803F1FF339AB27B685A807B685A8840F2C9
S32D00011B40F3139A4203D87B684FF4FA725A8007F10C031846FFF712F8034683F00103DBB2002B10D07B685B88CA
S32D00011B6803F101039AB27B685A807B685A8840F6C4139A4203D97B6840F6C4125A804FF00500FEF701FE07F1CA
S32D00011B9010031846FEF7F2FF0346002B94D100BF07F110031846FEF7E9FF034683F00103DBB2002BF4D14FF471
S32D00011BB8FA70FEF7E9FD7B685B88FB827B685A8840F2DB539A4204D87B6840F6C4125A8003E07B684FF4FA725B
S32D00011BE05A8043F2CC60C1F6FF704FF0000100F005FD43F2CC60C1F6FF7047F2A841C0F2010100F097FE43F22C
S32D00011C08CC60C1F6FF7047F2F841C0F2010100F08DFE43F2CC60C1F6FF7047F2D441C0F2010100F083FE43F28B
S32D00011C30CC60C1F6FF7047F2E841C0F2010100F079FE62E07B68564A9A6078685549FFF713FE00BF07F11403A4
S32D00011C581846FEF78FFF0346002B12D007F10C031846FEF787FF0346002B0AD007F110031846FEF77FFF0346D3
S32D00011C80002B02D04FF0010301E04FF00003002BE0D107F114031846FEF770FF034683F00103DBB2002B10D0CD
S32D00011CA87B685B8803F1FF339AB27B685A807B685A8840F2F3139A4203D87B684FF4FA725A8007F10C03184693
S32D00011CD0FEF754FF034683F00103DBB2002B10D07B685B8803F101039AB27B685A807B685A8840F6C4139A42D0
S32D00011CF803D97B6840F6C4125A804FF00500FEF743FD07F110031846FEF734FF0346002B94D17B685B88FA8AEB
S32D00011D209A4203D97B68FA8A9A8006E07B685A887B689A807B68FA8A5A8043F2CC60C1F6FF704FF0000100F0BB
S32D00011D4859FC43F2CC60C1F6FF7047F20851C0F2010100F001FD7B685B8843F2CC60C1F6FF70194600F026FD9D
S32D00011D7043F2CC60C1F6FF7047F21051C0F2010100F0EEFC7B689B8843F2CC60C1F6FF70194600F0E3FD07F1E1
S32D00011D981807BD4680BD00BF000080BF0000000080B582B000AF78604FF43043C4F204034FF48072DA604FF4AC
S32D00011DC02043C4F204034FF480729A644FF42043C4F204034FF480721A644FF42043C4F204034FF480725A6435
S32D00011DE84FF42043C4F204034FF48072DA604FF28003C4F20F034FF28002C4F20F02526942F008025A614FF2F1
S32D00011E104003C4F20F034FF24002C4F20F02526942F480225A614FF24003C4F20F034FF24002C4F20F025269AF
S32D00011E3842F480325A614FF24003C4F20F034FF24002C4F20F02526942F400325A614FF24003C4F20F034FF2D7
S32D00011E604002C4F20F02126842F008021A604FF24003C4F20F034FF24002C4F20F02526942F008025A614FF291
S32D00011E888003C4F20F034FF28002C4F20F02126842F008021A604FF42043C4F204034FF480725A624FF420432C
S32D00011EB0C4F204034FF480721A624FF43043C4F204034FF480721A614FF43043C4F204034FF480725A614FF4CC
S32D00011ED83043C4F204034FF480729A614FF43043C4F204034FF48072DA614FF43043C4F204034FF480721A6373
S32D00011F004FF43043C4F204034FF480725A634FF43043C4F204034FF480729A634FF43043C4F204034FF4807200
S32D00011F28DA634FF43043C4F204034FF480721A644FF43043C4F204034FF480725A644FF43043C4F204034FF40B
S32D00011F5080729A644FF43043C4F204034FF48072DA644FF44043C4F204034FF480721A604FF44043C4F20403D7
S32D00011F784FF480729A604FF44043C4F204034FF48072DA604FF44043C4F204034FF480721A614FF24003C4F2AC
S32D00011FA00F034FF24002C4F20F02526942F440725A614FF28002C4F20F024FF28003C4F20F035B6919464FF2DE
S32D00011FC8F003C0F20F030B4353614FF2C003C4F20F034FF2C002C4F20F02526942F01D025A6178684FF0E201D2
S32D00011FF000F008FD78684FF01D0100F047FE78684FF0020100F042FE78684FF0040100F03DFE78684FF0E001BA
S32D0001201800F0F4FC78684FF0010100F033FE4FF06400FEF7B1FB78684FF0E00100F0E6FC78684FF0030100F04E
S32D0001204025FE78684FF0010100F0DCFC4FF00100FEF79EFB78684FF0E60100F0D3FC78684FF0010100F012FEB1
S32D0001206878684FF0A00100F00DFE78684FF0FF0100F008FE78684FF0B00100F0BFFC78684FF01C0100F0FEFDD7
S32D0001209078684FF00F0100F0F9FD78684FF0010100F0F4FD78684FF03F0100F0EFFD78684FF0000100F0EAFDD8
S32D000120B878684FF0EF0100F0E5FD78684FF0000100F0E0FD78684FF0B40100F097FC78684FF0010100F0D6FDF0
S32D000120E078684FF0990100F0D1FD78684FF0000100F0CCFD78684FF0450100F0C7FD78684FF0020100F0C2FD97
S32D0001210878684FF0000100F0BDFD78684FF0000100F0B8FD78684FF0000100F0B3FD78684FF0B60100F06AFC2D
S32D0001213078684FF0010100F0A9FD78684FF0090100F0A4FD78684FF0000100F09FFD78684FF00E0100F09AFDAE
S32D0001215878684FF0020100F095FD78684FF0000100F090FD78684FF0000100F08BFD78684FF0BA0100F042FC77
S32D0001218078684FF00F0100F081FD4FF06400FEF7FFFA78684FF03A0100F034FC78684FF0600100F073FD7868C8
S32D000121A84FF02A0100F02AFC78684FF0000100F069FD78684FF0000100F064FD78684FF0010100F05FFD786854
S32D000121D04FF03F0100F05AFD78684FF02B0100F011FC78684FF0000100F050FD78684FF0000100F04BFD78683D
S32D000121F84FF0000100F046FD78684FF0EF0100F041FD78684FF0360100F0F8FB78684FF0000100F037FD7868AB
S32D000122204FF0F00100F0EEFB78684FF0040100F02DFD78684FF0B80100F0E4FB78684FF00F0100F023FD786882
S32D000122484FF0010100F01EFD4FF24003C4F20F034FF24002C4F20F02126842F008021A604FF06400FEF790FA33
S32D0001227078684FF0360100F0C5FB78684FF0000100F004FD78684FF0F00100F0BBFB78684FF0040100F0FAFC68
S32D0001229843F2CC60C1F6FF704FF0010100F0AAF943F2CC60C1F6FF704FF06F014FF01E0200F0A4F843F2CC603A
S32D000122C0C1F6FF704FF0000100F0F6F943F2CC60C1F6FF7047F21C51C0F201014FF05A024FF0AF0300F010FA43
S32D000122E878684FF0290100F089FB4FF06400FEF74BFA78684FF0BE0100F080FB78684FF00E0100F0BFFC78682B
S32D000123104FF0F00100F0BAFC78684FF0010100F0B5FC78684FF0000100F0B0FC78684FF0000100F0ABFC7868B3
S32D000123384FF00F0100F0A6FC43F2CC60C1F6FF704FF0010100F0B4F943F2CC60C1F6FF704FF0000100F084F9FC
S32D0001236007F10807BD4680BD80B582B000AF78607B684FF00002DA617B684FF001021A627B684FF00E025A602D
S32D000123887B684FF01A029A607B684FF000025A617B684FF000029A617B684FF4A072DA607B684FF0F0021A61EF
S32D000123B07B684FF000021A70786801F08DFA7B68184607F10807BD4680BD00BF80B582B000AF786043F2087313
S32D000123D8C1F6FF731B7883F00103DBB2002B09D043F20873C1F6FF734FF001021A707868FFF7D6FC07F10807BE
S32D00012400BD4680BD80B58AB002AFF860B9607A604FF07E030093F868B9687A684FF0620300F0BAFE4FF00003BE
S32D00012428FB614FF00003BB6155E04FF000037B6145E040F20043C1F6FF73FA699B181B78002B09D14FF0FF03C6
S32D00012450FB744FF0FF03BB744FF0FF037B741BE040F20043C1F6FF73FA699B181B78012B09D14FF0D403FB7481
S32D000124784FF00003BB744FF026037B7408E04FF0B503FB744FF0BA03BB744FF0B0037B74F97CBA7C7B7CF86811
S32D000124A000F08AF80246FB68DA61F86801F014FAF86801F0B1F8FB6903F10103FB617B6903F101037B617B6908
S32D000124C8612BCCBF00230123DBB2002BB1D1BB6903F10103BB61BB697D2BCCBF00230123DBB2002BA1D107F155
S32D000124F02007BD4680BD00BF80B485B000AF78600B46FB70FB78062B2ED801A252F823F0352501002D25010093
S32D000125183D250100452501004D250100552501005D2501006FF07F43FB6019E04FF00003FB6015E04FF47F0389
S32D00012540FB6011E04FF47F43FB600DE04FF0FF03FB6009E04FF41903FB6005E049F69913C0F29903FB6000BF5C
S32D00012568FB68184607F11407BD4680BC704700BF80B584B000AF786039603B6803F47F034FEA1343FB733B6876
S32D0001259003F47F434FEA1323BB733B687B73F97BBA7B7B7B786800F007F80346184607F11007BD4680BD00BF12
S32D000125B880B487B000AF7860F970BA707B70FB784FEAA3037B61BB784FEAA3033B617B784FEAA303FB607B6997
S32D000125E04FEA03323B694FEA83131A43FB681343184607F11C07BD4680BC704780B582B000AF78600B46FB70BC
S32D00012608FB7878681946FFF773FF03467868194600F004F807F10807BD4680BD80B582B000AF78603960786867
S32D000126303968FFF7A1FF02467B681A62786801F04BF9786800F04CFC07F10807BD4680BD80B582B000AF78603B
S32D00012658786800F041FC07F10807BD4680BD00BF80B582B000AF78600B46FB70FB7878681946FFF73DFF034669
S32D000126807868194600F004F807F10807BD4680BD80B582B000AF7860396078683968FFF76BFF02467B681A62AA
S32D000126A8786801F015F907F10807BD4680BD00BF80B582B000AF78600B46FB70FB7878681946FFF715FF03466F
S32D000126D07868194600F004F807F10807BD4680BD80B582B000AF7860396078683968FFF743FF02467B68DA61C3
S32D000126F8786801F0EDF807F10807BD4680BD00BF80B586B000AFF860B9607A603B604FF000037B6110E07B6905
S32D00012720BA68D3181B78F86879683A6800F0DAFD7B6803F10C037B607B6903F101037B617B69BA68D3181B7843
S32D00012748002B0CBF00230123DBB2002BE3D107F11807BD4680BD00BF80B584B000AF786039604FF00003FB607D
S32D00012770786800F0E1FC11E07B6859697B689A69FB683868C3181B78786800F08BFD786800F0E8FCFB6803F13D
S32D000127980103FB60FB683A68D3181B78002B0CBF00230123DBB2002BE2D107F11007BD4680BD00BF80B590B005
S32D000127C000AF7860396007F10C03184647F22851C0F201013A6802F08BFB07F10C0378681946FFF7BDFF07F1F5
S32D000127E84007BD4680BD00BF90B593B000AF786039604FF001031C4638683049FAF726FD0346002B02D14FF07C
S32D0001281000031C46E3B2002B23D03868FAF72EFD03467B64786CFAF70FFB034638681946FAF754FA0346184690
S32D000128382349FAF759FB03461846FAF71BFD03463B6407F10C03184647F23851C0F201017A6C3B6C02F048FB8B
S32D0001286026E03B6883F000433B603868FAF706FD03467B64786CFAF7E7FA034638681946FAF72CFA03461846D7
S32D000128880F49FAF731FB03461846FAF7F3FC03463B6407F10C03184647F22C51C0F201017A6C3B6C02F020FBD4
S32D000128B007F10C0378681946FFF752FF07F14C07BD4690BD0000000000007A4480B582B000AF78600B46FB7069
S32D000128D8FB78002B07D0786847F24051C0F20101FFF73AFF06E0786847F24851C0F20101FFF732FF07F1080755
S32D00012900BD4680BD80B582B000AF78600B46FB70786800F011FC7B6859697B689A69FB78786800F0BFFC786878
S32D0001292800F01CFC07F10807BD4680BD80B582B000AF78603960786800F0FAFB78683968FFF70AFF786800F095
S32D00012950DBFB07F10807BD4680BD00BF80B582B000AF78603960786800F0E6FB78683968FFF724FF786800F0DA
S32D00012978C7FB07F10807BD4680BD00BF80B582B000AF78603960786800F0D2FB78683968FFF72AFF786800F0D4
S32D000129A0B3FB07F10807BD4680BD00BF80B582B000AF78600B46FB70786800F0BDFBFB7878681946FFF782FFF9
S32D000129C8786800F09DFB07F10807BD4680BD00BF80B582B000AF78600B46FB70786800F0A7FBFB7878681946A4
S32D000129F0FFF788FF786800F087FB07F10807BD4680BD00BF80B483B000AF78600B46FB704FF28003C4F20F03AD
S32D00012A184FF28002C4F20F02126822F008021A604FF24003C4F20F034FF24002C4F20F02126822F480221A60B3
S32D00012A404FF24003C4F20F034FF24002C4F20F02126842F480321A604FF24003C4F20F034FF24002C4F20F025F
S32D00012A68126822F440721A604FF28003C4F20F034FF28002C4F20F02126822F4425222F070021A604FF24003C7
S32D00012A90C4F20F034FF24002C4F20F0212681146FA7802F00102D2B2002A02D04FF4007201E04FF000020A4329
S32D00012AB81A604FF24003C4F20F034FF24002C4F20F0212681146FA7802F00202002A02D04FF4807201E04FF055
S32D00012AE000020A431A604FF28003C4F20F034FF28002C4F20F0212681146FA7802F00402002A02D04FF0100260
S32D00012B0801E04FF000020A431A604FF28003C4F20F034FF28002C4F20F0212681146FA7802F00802002A02D064
S32D00012B304FF0200201E04FF000020A431A604FF28003C4F20F034FF28002C4F20F0212681146FA7802F01002CF
