S01400002E2E2F53696D706C65436F64652E73313970
S32D0000C00000000020E5040100410801004108010041080100410801004108010000000000000000000000000096
S32D0000C028000000004108010041080100000000004108010041080100410801004108010041080100410801009A
S32D0000C05041080100410801004108010041080100410801004108010041080100410801004108010041080100DE
S32D0000C07841080100410801004108010041080100410801004108010041080100410801004108010041080100B6
S32D0000C0A0410801004108010041080100410801004108010041080100410801004108010041080100410801008E
S32D0000C0C84108010041080100410801004108010041080100410801004108010041080100410801004108010066
S32D0000C0F041080100F1440100410801004108010041080100410801004108010041080100410801004108010052
S32D0000C1184108010041080100410801004108010041080100410801004108010041080100410801004108010015
S32D0000C140410801004108010041080100410801005D1801004108010041080100410801004108010041080100C1
S32D0000C16841080100410801004108010041080100410801004108010041080100410801004108010041080100C5
S32D0000C190410801004108010041080100410801004108010041080100910801004108010041080100410801004D
S32D0000C1B84108010041080100410801004108010041080100410801004108010041080100410801004108010075
S32D0000C41081F0004102E000BF83F0004330B54FEA41044FEA430594EA050F08BF90EA020F1FBF54EA000C55EAC6
S32D0000C438020C7FEA645C7FEA655C00F0E2804FEA5454D4EB5555B8BF6D420CDD2C4480EA020281EA030382EA0F
S32D0000C460000083EA010180EA020281EA0303362D88BF30BD11F0004F4FEA01314FF4801C4CEA113102D0404263
S32D0000C48861EB410113F0004F4FEA03334CEA133302D0524263EB430394EA050F00F0A780A4F10104D5F1200E8A
S32D0000C4B00DDB02FA0EFC22FA05F2801841F1000103FA0EF2801843FA05F359410EE0A5F120050EF1200E012A2D
S32D0000C4D803FA0EFC28BF4CF0020C43FA05F3C01851EBE37101F0004507D54FF0000EDCF1000C7EEB00006EEB67
S32D0000C5000101B1F5801F1BD3B1F5001F0CD349085FEA30004FEA3C0C04F101044FEA445212F5800F80F09A8000
S32D0000C528BCF1004F08BF5FEA500C50F1000041EB045141EA050130BD5FEA4C0C404141EB010111F4801FA4F114
S32D0000C5500104E9D191F0000F04BF01460020B1FA81F308BF2033A3F10B03B3F120020CDA0C3208DD02F1140C87
S32D0000C578C2F10C0201FA0CF021FA02F10CE002F11402D8BFC2F1200C01FA02F120FA0CFCDCBF41EA0C019040B1
S32D0000C5A0E41AA2BF01EB0451294330BD6FEA04041F3C1CDA0C340EDC04F11404C4F1200220FA04F001FA02F3B6
S32D0000C5C840EA030021FA04F345EA030130BDC4F10C04C4F1200220FA02F001FA04F340EA0300294630BD21FAA8
S32D0000C5F004F0294630BD94F0000F83F4801306BF81F480110134013D4EE77FEA645C18BF7FEA655C29D094EA1C
S32D0000C618050F08BF90EA020F05D054EA000C04BF1946104630BD91EA030F1EBF0021002030BD5FEA545C05D1A3
S32D0000C6404000494128BF41F0004130BD14F580043CBF01F5801130BD01F0004545F0FE4141F470014FF0000031
S32D0000C66830BD7FEA645C1ABF194610467FEA655C1CBF0B46024650EA013406BF52EA033591EA030F41F40021D7
S32D0000C69030BD00BF90F0000F04BF0021704730B54FF4806404F132044FF000054FF0000150E700BF90F0000F66
S32D0000C6B804BF0021704730B54FF4806404F1320410F0004548BF40424FF000013EE700BF42004FEAE2014FEAF9
S32D0000C6E031014FEA02701FBF12F07F4393F07F4F81F06051704792F0000F14BF93F07F4F704730B54FF460741B
S32D0000C70801F0004521F0004120E700BF50EA010208BF704730B54FF000050AE050EA010208BF704730B511F046
S32D0000C730004502D5404261EB41014FF4806404F132045FEA915C3FF4DCAE4FF003025FEADC0C18BF03325FEAA0
S32D0000C758DC0C18BF033202EBDC02C2F1200300FA03FC20FA02F001FA03FE40EA0E0021FA02F11444C1E600BF19
S32D0000C78070B54FF0FF0C4CF4E06C1CEA11541DBF1CEA135594EA0C0F95EA0C0F00F0DEF82C4481EA030621EAF3
S32D0000C7A84C5123EA4C5350EA013518BF52EA033541F4801143F4801338D0A0FB02CE4FF00005E1FB02E506F05F
S32D0000C7D00042E0FB03E54FF00006E1FB03569CF0000F18BF4EF0010EA4F1FF04B6F5007F64F5407404D25FEA0F
S32D0000C7F84E0E6D4146EB060642EAC62141EA55514FEAC52040EA5E504FEACE2EB4F1FD0C88BFBCF5E06F1ED8D2
S32D0000C820BEF1004F08BF5FEA500E50F1000041EB045170BD06F0004646EA010140EA020081EA0301B4EB5C0487
S32D0000C848C2BFD4EB0C0541EA045170BD41F480114FF0000E013C00F3AB8014F1360FDEBF002001F0004170BDF0
S32D0000C870C4F10004203C35DA0C341BDC04F11404C4F1200500FA05F320FA04F001FA05F240EA020001F0004207
S32D0000C89821F0004110EBD37021FA04F642EB06015EEA430E08BF20EAD37070BDC4F10C04C4F1200500FA04F32F
S32D0000C8C020FA05F001FA04F240EA020001F0004110EBD37041F100015EEA430E08BF20EAD37070BDC4F12005C7
S32D0000C8E800FA05F24EEA020E20FA04F301FA05F243EA020321FA04F001F0004121FA04F220EA020000EBD37028
S32D0000C9105EEA430E08BF20EAD37070BD94F0000F0FD101F00046400041EB010111F4801F08BF013CF7D041EA6D
S32D0000C938060195F0000F18BF704703F00046520043EB030313F4801F08BF013DF7D043EA0603704794EA0C0FF1
S32D0000C9600CEA135518BF95EA0C0F0CD050EA410618BF52EA4306D1D181EA030101F000414FF0000070BD50EA38
S32D0000C988410606BF1046194652EA430619D094EA0C0F02D150EA013613D195EA0C0F05D152EA03361CBF10467B
S32D0000C9B019460AD181EA030101F0004141F0FE4141F470014FF0000070BD41F0FE4141F4780170BD70B54FF04D
S32D0000C9D8FF0C4CF4E06C1CEA11541DBF1CEA135594EA0C0F95EA0C0F00F0A7F8A4EB050481EA030E52EA03359B
S32D0000CA004FEA013100F088804FEA03334FF0805545EA131343EA12634FEA022245EA111545EA10654FEA002676
S32D0000CA280EF000419D4208BF964244F1FD0404F5407402D25B084FEA3202B61A65EB03055B084FEA32024FF461
S32D0000CA5080104FF4002CB6EB020E75EB030E22BFB61A754640EA0C005B084FEA3202B6EB020E75EB030E22BF22
S32D0000CA78B61A754640EA5C005B084FEA3202B6EB020E75EB030E22BFB61A754640EA9C005B084FEA3202B6EBEA
S32D0000CAA0020E75EB030E22BFB61A754640EADC0055EA060E18D04FEA051545EA16754FEA06164FEAC30343EAAC
S32D0000CAC852734FEAC2025FEA1C1CC0D111F4801F0BD141EA00014FF000004FF0004CB6E711F4801F04BF0143AE
S32D0000CAF00020B4F1FD0C88BFBCF5E06F3FF6AFAEB5EB030C04BFB6EB020C5FEA500C50F1000041EB045170BDBC
S32D0000CB180EF0004E4EEA113114EB5C04C2BFD4EB0C0541EA045170BD41F480114FF0000E013C90E645EA060EC3
S32D0000CB408DE60CEA135594EA0C0F08BF95EA0C0F3FF43BAF94EA0C0F0AD150EA01347FF434AF95EA0C0F7FF499
S32D0000CB6825AF104619462CE795EA0C0F06D152EA03353FF4FDAE1046194622E750EA410618BF52EA43067FF432
S32D0000CB90C5AE50EA41047FF40DAF52EA43057FF4EBAE12E74FF0FF3C06E000BF4FF0010C02E000BF4FF0010C75
S32D0000CBB84DF804CD4FEA410C7FEA6C5C4FEA430C18BF7FEA6C5C1BD001B050EA410C0CBF52EA430C91EA030FEC
S32D0000CBE002BF90EA020F0020704710F1000F91EA030F58BF994208BF90422CBFD8176FEAE37040F0010070476E
S32D0000CC084FEA410C7FEA6C5C02D150EA013C07D14FEA430C7FEA6C5CD6D152EA033CD3D05DF8040B704700BFCD
S32D0000CC308446104662468C461946634600E000BF01B5FFF7B7FF002848BF10F1000F01BD4DF808EDFFF7F4FF13
S32D0000CC580CBF012000205DF808FB00BF4DF808EDFFF7EAFF34BF012000205DF808FB00BF4DF808EDFFF7E0FF18
S32D0000CC8094BF012000205DF808FB00BF4DF808EDFFF7CEFF94BF012000205DF808FB00BF4DF808EDFFF7C4FF40
S32D0000CCA834BF012000205DF808FB00BF4FEA410212F5001215D211D56FF47873B3EB625212D94FEAC12343F0D6
S32D0000CCD0004343EA505311F0004F23FA02F018BF404270474FF00000704750EA013005D111F0004008BF6FF016
S32D0000CCF8004070474FF00000704700BF4A0011D212F5001211D20DD56FF47873B3EB62520ED44FEAC12343F085
S32D0000CD20004343EA505323FA02F070474FF00000704750EA013002D14FF0FF3070474FF0000070474FEA410241
S32D0000CD48B2F1E04324BFB3F5001CDCF1FE5C0DD901F0004C4FEAC0024CEA5070B2F1004F40EB830008BF20F09E
S32D0000CD700100704711F0804F21D113F13872BCBF01F00040704741F480114FEA5252C2F11802C2F1200C10FAB1
S32D0000CD980CF320FA02F018BF40F001004FEAC1234FEAD32303FA0CFC40EA0C0023FA02F34FEA4303CCE77FEA26
S32D0000CDC0625307D150EA01331EBF4FF0FE4040F44000704701F0004040F0FE4040F40000704700BF80F00040CC
S32D0000CDE802E000BF81F0004142001FBF5FEA410392EA030F7FEA226C7FEA236C6AD04FEA1262D2EB1363C1BF06
S32D0000CE10D218414048404140B8BF5B42192B88BF704710F0004F40F4000020F07F4018BF404211F0004F41F4FA
S32D0000CE38000121F07F4118BF494292EA030F3FD0A2F1010241FA03FC10EB0C00C3F1200301FA03F100F000432B
S32D0000CE6002D5494260EB4000B0F5000F13D3B0F1807F06D340084FEA310102F10102FE2A51D2B1F1004F40EB94
S32D0000CE88C25008BF20F0010040EA03007047490040EB000010F4000FA2F10102EDD1B0FA80FCACF1080CB2EB5F
S32D0000CEB00C0200FA0CF0AABF00EBC25052421843BCBFD0401843704792F0000F81F4000106BF80F400000132EB
S32D0000CED8013BB5E74FEA41037FEA226C18BF7FEA236C21D092EA030F04D092F0000F08BF0846704790EA010FD7
S32D0000CF001CBF0020704712F07F4F04D1400028BF40F00040704712F100723CBF00F50000704700F0004343F0DC
S32D0000CF28FE4040F4000070477FEA226216BF08467FEA23630146420206BF5FEA412390EA010F40F480007047C1
S32D0000CF504FF0000304E000BF10F0004348BF40425FEA000C08BF704743F0964301464FF000001CE050EA010264
S32D0000CF7808BF70474FF000030AE000BF50EA010208BF704711F0004302D5404261EB41015FEA010C02BF84465B
S32D0000CFA00146002043F0B64308BFA3F18053A3F50003BCFA8CF2083AA3EBC25310DB01FA02FC634400FA02FC6B
S32D0000CFC8C2F12002BCF1004F20FA02F243EB020008BF20F00100704702F1200201FA02FCC2F1200250EA4C0034
S32D0000CFF021FA02F243EB020008BF20EADC7070474FF0FF0C1CEAD0521EBF1CEAD15392EA0C0F93EA0C0F6FD019
S32D0000D0181A4480EA010C400218BF5FEA41211ED04FF0006343EA501043EA5111A0FB01310CF00040B1F5000FE7
S32D0000D0403EBF490041EAD3715B0040EA010062F17F02FD2A1DD8B3F1004F40EBC25008BF20F00100704790F058
S32D0000D068000F0CF0004C08BF49024CEA502040EA51207F3AC2BFD2F1FF0340EAC250704740F400004FF0000388
S32D0000D090013A5DDC12F1190FDCBF00F000407047C2F10002410021FA02F1C2F1200200FA02FC5FEA310040F1D5
S32D0000D0B8000053EA4C0308BF20EADC70704792F0000F00F0004C02BF400010F4000F013AF9D040EA0C0093F04C
S32D0000D0E0000F01F0004C02BF490011F4000F013BF9D041EA0C018FE70CEAD15392EA0C0F18BF93EA0C0F0AD00B
S32D0000D10830F0004C18BF31F0004CD8D180EA010000F00040704790F0000F17BF90F0004F084691F0000F91F0BB
S32D0000D130004F14D092EA0C0F01D142020FD193EA0C0F03D14B0218BF084608D180EA010000F0004040F0FE4051
S32D0000D15840F40000704740F0FE4040F4400070474FF0FF0C1CEAD0521EBF1CEAD15392EA0C0F93EA0C0F69D044
S32D0000D180A2EB030280EA010C49024FEA402037D04FF0805343EA111143EA10130CF000408B4238BF5B0042F14E
S32D0000D1A87D024FF4000C8B4224BF5B1A40EA0C00B3EB510F24BFA3EB510340EA5C00B3EB910F24BFA3EB9103A4
S32D0000D1D040EA9C00B3EBD10F24BFA3EBD10340EADC001B0118BF5FEA1C1CE0D1FD2A3FF650AF8B4240EBC25018
S32D0000D1F808BF20F0010070470CF0004C4CEA50207F32C2BFD2F1FF0340EAC250704740F400004FF00003013AF1
S32D0000D22037E792F0000F00F0004C02BF400010F4000F013AF9D040EA0C0093F0000F01F0004C02BF490011F4C9
S32D0000D248000F013BF9D041EA0C0195E70CEAD15392EA0C0F08D142027FF47DAF93EA0C0F7FF470AF084676E7AE
S32D0000D27093EA0C0F04D14B023FF44CAF08466EE730F0004C18BF31F0004CCAD130F000427FF45CAF31F0004376
S32D0000D2987FF43CAF5FE700BF4FF0FF3C06E000BF4FF0010C02E000BF4FF0010C4DF804CD4FEA40024FEA41039F
S32D0000D2C07FEA226C18BF7FEA236C11D001B052EA530C18BF90EA010F58BFB2EB030088BFC81738BF6FEAE1706E
S32D0000D2E818BF40F0010070477FEA226C02D15FEA402C05D17FEA236CE4D15FEA412CE1D05DF8040B704700BF16
S32D0000D310844608466146FFE70FB5FFF7C9FF002848BF10F1000F0FBD4DF808EDFFF7F4FF0CBF012000205DF839
S32D0000D33808FB00BF4DF808EDFFF7EAFF34BF012000205DF808FB00BF4DF808EDFFF7E0FF94BF012000205DF8A9
S32D0000D36008FB00BF4DF808EDFFF7D2FF94BF012000205DF808FB00BF4DF808EDFFF7C8FF34BF012000205DF8B1
S32D0000D38808FB00BF4FEA4002B2F1FE4F0FD34FF09E03B3EB12620DD94FEA002343F0004310F0004F23FA02F060
S32D0000D3B018BF404270474FF00000704712F1610F01D1420205D110F0004008BF6FF0004070474FF00000704797
S32D0000D3D842000ED2B2F1FE4F0BD34FF09E03B3EB126209D44FEA002343F0004323FA02F070474FF000007047DA
S32D0000D40012F1610F01D1420202D14FF0FF3070474FF00000704700BF036803B11B181846704700BF03685A00DD
S32D0000D4284CBF43F0004323F00043C018704700BF2DE9F84F0446914641B301F1FF3BDA46002707EB0A0101EBE3
S32D0000D450D1756D1004EBC5063046FFF7E3FF8046681CAB4504EBC0000DD0FFF7DBFF0138C84504D9BD4209D052
S32D0000D47805F1FF3AE5E7484505D26F1CE1E74FF0FF30F1E700263046BDE8F88F0E463046BDE8F88F30B52B4B75
S32D0000D4A083B004468D1E002B49D0284601A9AFF300800346002822D02A4618460199FFF7BBFF054600281DD0DD
S32D0000D4C8FFF7ACFF6B68A064012B10D0281D002B22DBFFF7A3FF0021E06421650368002B0FDBFFF79BFF206131
S32D0000D4F0002003B030BD002323610520F9E720610920F6E720610920F3E7C3F3036058B101280CD002280ED068
S32D0000D518002020610920E8E70122E0642265DDE7094B2361E1E7094A00202261DDE7084900202161D9E7074B3B
S32D0000D5400749C81AC2100192B6E700BF0000000069DA000065DA000061DA0000B0810100A8830100036810B57F
S32D0000D5680446D80706D4990704F1480009D500F00DFD23685A0709D518070ED5D90613D510BD00F0FBFC23680B
S32D0000D5905A07F5D404F1D00000F004FD23681807F0D404F5D87000F005FD2368D906EBD404F50C70BDE8104059
S32D0000D5B800F040BD2DE9F0470F1D054691460FCFADF5916D02AC261D0FC60FCF0FC60FCF0FC697E80F00D5F8B8
S32D0000D5E00C80D5F818A0002786E80F00216C27602846FFF753FF0646B94514BF4FF00A094FF00909FEB1A16B23
S32D0000D60849F01009616401208DE8100449462A462B46C04700282BD1002E2AD1204692A94FF4107207F0CCFE48
S32D0000D630082F28D1216C2846FFF730FF06464FF00909002EDFD1206C21464FF41072686192A807F0B9FE2F6900
S32D0000D658294692AA4846B847A09B0746636401208DE8100449462A462B46C0470028D3D00926304622B00DF5B8
S32D0000D680806DBDE8F087072FF6D1201D00F06EFC38B504460D46296C2046FFF7FFFE50B92A6C23696261012058
S32D0000D6A821462A4698470828F1D0072801D009F0BFFF281D00F056FC11B933B10220704704298CBF022001202D
S32D0000D6D070470F2A01D90220704700EB820118464A68009B1A60704710B50A4684B000210B4603AC0094FFF74B
S32D0000D6F8E3FF039804B010BD11B933B10220704704298CBF0220012070470F2A01D902207047009900EB820219
S32D0000D720096818465160704710B584B004AB0C4643F8042D0021009322460B46FFF7E0FF04B010BD2DE9F04F26
S32D0000D748CD6C8BB00C4655F8041B174600F008021E46039200F003080795002B40F0CF8009020691216D8DF83B
S32D0000D77021300323B8F1020F8DF8203008BFA56B11F0010340F0D380019304F158030293D5F80090B9F1000F97
S32D0000D79800F0CB80022E00F0AE80B5F80090B5F802A00435A26C0F212AF0010B38469344FFF796FF834518D819
S32D0000D7C029F0010CE3440AF0010A09F00103584543EA4A092CBF00200120B9F1010F12D032D2B8F1000F02D079
S32D0000D7E8002840F01D810435CEE70AF0010A09F0010343EA4A090020B9F1010FECD1B8F1000F40F0B680C8B17F
S32D0000D8106B68D5F800909A1C19D0029A013309920DD0281DFFF7F8FD4FEAD972014609AB204608F06BFF002834
S32D0000D83800F0F280099A002A40F0BA800835A3E7B9F1020F03D009200BB0BDE8F08F2B6823F000420092B8F1A9
S32D0000D860000F71D1002843D00398002840F0A1800098002800F0A080009BDDF80C90DB0705F1040A40F1B480D3
S32D0000D888CDF810800596A846029E12E000998D4200F0D9800996FFF7BBFD5A46014609AB204608F02FFFA946EE
S32D0000D8B0B0B90AF1040A05F1010950460996FFF7ABFD09AB01460022204608F01FFF0AF1040A834609F101059A
S32D0000D8D85046BBF1000FD9D04546059EDDF81080009A4A4564D02B68002B7BDB0099481C05EB800548E7D5F8B6
S32D0000D90004A0083552E70B04C1F30740216D06930222B8F1020F05EB800508BFA56B8DF8210011F001038DF854
S32D0000D92820203FF42DAF00200190384606A900F019FC002887D1019A002A43D1082083E70D213846D4F820908C
S32D0000D950FFF7CAFE8145CAD1A26A9542C7D10098291D00220423A062E26223636163286800286EDB01220192A1
S32D0000D978BCE70D213846D4F82090FFF7B1FE81457FF45CAFA16A8D427FF458AF2846FFF745FD0F2102463846DD
S32D0000D9A0FFF7C2FE384600212246FFF7BDFE07204EE7009900299BD138460D21FFF794FE099B20626362A5623B
S32D0000D9C8062041E70F213846FFF78AFE0E2102463846FFF7A5FE38460F211E4AFFF7A0FE072031E7043581E79F
S32D0000D9F0029950460991FFF70FFD039A014609AB204608F083FE00287FF46EAFCDF8108005960AF1040A4FF0D5
S32D0000DA180109A846029E4CE7CDF824800835B3E62846FFF7FBFC04350646A563204608F0DFFE00283FF407AFA2
S32D0000DA4038460F213246FFF76FFE072000E74546B2E7009B591C05EB81009CE76169010002236FE601236DE63D
S32D0000DA6800236BE62DE9F0470446E8B004290CD8DFE801F0380391930F00150C012B96B200F07881052B00F018
S32D0000DA90C780022068B0BDE8F087002BF9D1102AF7D82368D90600F1738164A8019200F0CFFA019AA36BD007A6
S32D0000DAB844BF53F8040B6490910744BF53F8041B6591500744BF53F8041B6691110748BF53F8042B64A8A3638E
S32D0000DAE048BF679200F0AAFA0020D3E7002BD0D1A36BD00791B244BF53F8042B62608A0744BF53F8042BA26067
S32D0000DB08480744BF53F8042BE2600A0744BF53F8042B2261C80644BF53F8042B62618A0644BF53F8042BA261B2
S32D0000DB30480644BF53F8042BE2610A0644BF53F8042B2262C80544BF53F8042B62628A0544BF53F8042BA2628A
S32D0000DB58480544BF53F8042BE2620A0544BF53F8042B2263C80444BF53F8042B626311F400501CBF53F8042BC8
S32D0000DB80A2634A0444BF53F8042BE2630A0444BF53F8042B2264002840D1A3637AE7012078E7032B7FF475AF6C
S32D0000DBA8160C95B2AA19102A3FF66FAF2368180700F10B8144A800F01BFAA76B4FEA450E3B460DB344A90EF1B3
S32D0000DBD0FF3C01EBC60653F8040B62460CF0010146F8040B92B129B153F8041B013A46F8041B0BD01846314618
S32D0000DBF850F8045B41F8045B5D68031D75600E1D023AF3D107EB8E0344A8A36300F0CEF900203BE7002039E72D
S32D0000DC2077192022BA42FFF434AF012B00F0A9800F2D40F2A9803746F6B1052B7FF429AF0F2D11D82268D00731
S32D0000DC480ED522F00101052B2160204600F0DA8022F0030240F8482B019300F093F9019B1FB12268510700F145
S32D0000DC70B880012B00F0BF800F2D75D9002F40F0A080D4F83890002EC8462EDD49460DF1080A4FEA46080AEBF4
S32D0000DC98C50251F8046B08F1FF3000F0010A42F8046BA8F1020CD0B1BAF1000F08D051F8040B0CF1FF3CBCF11C
S32D0000DCC0FF3F42F8040B0ED00E46104656F804AB40F804AB4968ACF1020C5160311D021DBCF1FF3FF0D109EB29
S32D0000DCE88808A7B3102D2CBF2E4610260DF5D079414609EBC60CACF5C8724FEA470951F8046B09F1FF3000F085
S32D0000DD10010A42F8046BA9F1020CD0B1BAF1000F08D051F8040B0CF1FF3CBCF1FF3F42F8040B0ED00E4610462A
S32D0000DD3856F804AB40F804AB4968ACF1020C5160311D021DBCF1FF3FF0D108EB8908012B2BD00F2DC4F8388058
S32D0000DD6008D9FFB9384695E602A8019300F016F9019B83E702A800F00DF9F2E77719102250E70F2D3FF685AEAA
S32D0000DD88102F10D9103F54E723F01003236004F50C70019200F058F9019A82E624A800F0FDF8002072E6002776
S32D0000DDB046E708F1040302A8A36300F0E3F8002068E624A80193C5F1100600F0EFF8019B57E723F0080704F537
S32D0000DDD8D870276000F00CF9ECE6204622F0040140F8D01B019300F0DDF8019B3DE702A8019300F0C7F8019B45
S32D0000DE00002F3FF43EAFC5F110063AE741F0020140F8481B019300F0C1F8019B24E700BF406C7047F0B50D46EB
S32D0000DE280F1DC96B296404460FCFADF5117D01AE0FC60FCF0FC60FCF0FC697E80F0086E80F004FF0FF3300938E
S32D0000DE5010992046FFF722FB58B9266921466A46B04708280646F3D06846FFF77BFB062E03D009200DF5117DBB
S32D0000DE78F0BD20462946FFF707FC00BF10B4DC6BC1608261194600221C6410BCFFF792BB38B54269C3680A64F2
S32D0000DEA004460D4623B10122FFF788FB09F0C4FB0369214602202A469847072803D0082804D009F0B9FB281D53
S32D0000DEC800F050F820462946FFF7DEFBC36823B1CA6B0A640022FFF76DBB9FE7704700BF08B5836801460BB1C7
S32D0000DEF00120984708BD00BFF0B5D46B171D146405460C460FCFADF5277D01AE0FC60FCF0FC60FCF0FC697E8C6
S32D0000DF180F0086E80F004FF0FF330093109990A8FFF7B8FA034690AA68460C21BBB9FFF7F7FB21466846A84704
S32D0000DF40064690A908206A466EB9949B98470528064601D00928E5D16846FFF703FB30460DF5277DF0BD092656
S32D0000DF68F6E700BF00F1340191E838009C46A6464CF8045D90E8FF0FE54600BD90EC210B704700BF80EC210B81
S32D0000DF90704700BF90EC200B704700BF80EC200B704700BFD0EC200B704700BFC0EC200B704700BFF0EC02013A
S32D0000DFB8F0EC0211F0EC0221F0EC0231F0EC0241F0EC0251F0EC0261F0EC0271F0EC0281F0EC0291F0EC02A115
S32D0000DFE0F0EC02B1F0EC02C1F0EC02D1F0EC02E1F0EC02F1704700BFE0EC0201E0EC0211E0EC0221E0EC023196
S32D0000E008E0EC0241E0EC0251E0EC0261E0EC0271E0EC0281E0EC0291E0EC02A1E0EC02B1E0EC02C1E0EC02D184
S32D0000E030E0EC02E1E0EC02F1704700BFB0FC0181B0FC0191B0FC01A1B0FC01B1704700BFA0FC0181A0FC019104
S32D0000E058A0FC01A1A0FC01B1704700BFEC4600B52DE900502DE9FF1F4FF000032DE90C0001A9FFF7D3FEDDF86D
S32D0000E08040E012B0704700BFEC4600B52DE900502DE9FF1F4FF000032DE90C0001A9FFF7FBFEDDF840E012B0E5
S32D0000E0A8704700BFEC4600B52DE900502DE9FF1F4FF000032DE90C0001A9FFF707FFDDF840E012B0704700BF1C
S32D0000E0D0EC4600B52DE900502DE9FF1F4FF000032DE90C0001ABFFF7CDFEDDF840E012B0704700BFEC4600B5BC
S32D0000E0F82DE900502DE9FF1F4FF000032DE90C0001AAFFF7F5FEDDF840E012B0704700BF027A03461AB9427AE7
S32D0000E12042B9B02070470068013A01021A72000E196070474168501E587251F8040B0322596001021A72000E2B
S32D0000E1481960704710B5002184B00C220DEB02040B460094FFF7B0FA039804B010BD00BFF0E700BF2DE9F043F4
S32D0000E170064685B00D464FF000094FF47F672846FFF7CAFFB028044600F0B08010F0800120D000F0F003802BCE
S32D0000E19874D0902B37D0A02B45D0B02B56D0C02B00F0858000F0F800D0280BD104F00702511C41F4002230469F
S32D0000E1C001210523FFF752FC0028D8D0092005B0BDE8F0834FEA800203A85FFA82F800900D220B463046FFF728
S32D0000E1E86BFA039B600608F104084CBFC8EB0303434403AC03930094002130460D220B46FFF77AFAB7E700F068
S32D0000E2100F020D2ADAD00F2AD8D0002103AC009430460B4603ACFFF74BFA0094E8E7C24302F0070C47FA0CF04E
S32D0000E238210700F47F6248BF42F48042002130460B46FFF70FFC0028BCD194E7B1285DD0B2286ED0B32800F0BA
S32D0000E260958000F0FC02B42A46D000F00702531C43F40022012130460B46FFF7F7FB0028A4D17CE72846FFF7A3
S32D0000E28847FF210240EA0104B4F5004F9AD0230500211A0C30460B462401FFF7E3FB002890D114F4004F18BF88
S32D0000E2B04FF0010963E7C62873D0C72800F0848000F0F802C02A00F09280C82800F0A680C9287FF47BAF2846C1
S32D0000E2D8FFF71EFF00F00F0300F0F0015A1C42EA013268E7B9F1000F00F0838000206AE700F00301481C022166
S32D0000E30040F480220B463046FFF7B0FB00287FF45DAF34E72846FFF7FFFE024600283FF455AF10F0F0017FF483
S32D0000E32851AF30460B46FFF79DFB00287FF44AAF21E700210D220B4603AC30460094FFF7BBF92846FFF7E4FE8C
S32D0000E350022402060DD5039B00F07F0000FA04FE03EB0E0128460391FFF7D6FE07340306F1D4039B00F07F01A6
S32D0000E37803AA03F5017C01FA04F400920CEB0402039239E72846FFF7C3FE00F00F03591C00F0F00041EA003245
S32D0000E3A068E72846FFF7B8FE00F00F03591C00F0F00041EA0032032130460B46FFF756FB00287FF403AFDAE6F3
S32D0000E3C82846FFF7A5FE024600283FF4FBAE10F0F0037FF4F7AE30460421FFF743FB00287FF4F0AEC7E600F024
S32D0000E3F00F01481C40F42022DDE703AC49460E224B4630460094FFF75BF9304649460F224B460094FFF774F940
S32D0000E4184846D8E62846FFF77BFE00F0F00200F00F001032431C43EA0232C4E610B5C26C84B0032054688DF895
S32D0000E4400C00D37924020832084601A9019402928DF80D30FFF78AFE04B010BD08B5FFF783FE806C08BD00BF70
S32D0000E46808B5FFF77DFEC16CC87901EB800303F1080008BD08B509F0DBF800BF08B509F0D7F800BF2DE9F04FD9
S32D0000E4908DB00AAF4FF0030008F028F8044620464FF0030103F09AFB43F22863C1F6FF731C604FF0010008F0F6
S32D0000E4B819F8044620464FF0000102F0D7FF43F22C63C1F6FF731C604FF0010008F00AF8044620464FF00101D9
S32D0000E4E002F0F4FD43F23863C1F6FF731C604FF0010007F0FBFF044620464FF0020102F0E5FD43F23463C1F63C
S32D0000E508FF731C604FF0010007F0ECFF044620464FF0030102F0D6FD43F24463C1F6FF731C604FF0010007F065
S32D0000E530DDFF044620464FF0040102F09BFF43F23063C1F6FF731C604FF01C0007F0CEFF044620464FF00801DD
S32D0000E55803F0DCF943F25863C1F6FF731C604FF01C0007F0BFFF044620464FF0090103F0CDF943F25C63C1F6CB
S32D0000E580FF731C604FF0010007F0B0FF044620464FF0100102F09AFD43F24063C1F6FF731C604FF0010007F05C
S32D0000E5A8A1FF044620464FF0110102F08BFD43F23C63C1F6FF731C604FF0020007F092FF044620464FF00001F8
S32D0000E5D002F08CF943F24863C1F6FF731C604FF0020007F083FF044620464FF0010102F07DF943F24C63C1F673
S32D0000E5F8FF731C604FF00C0007F074FF044620464FF0000103F0B0FC43F25063C1F6FF731C604FF00C0007F0F4
S32D0000E62065FF044620464FF0010103F0A1FC43F25463C1F6FF731C6043F25063C1F6FF731B6818464FF4FA71B6
S32D0000E64803F0B0FC43F25063C1F6FF731B68184640F67F1103F0C4FC43F25463C1F6FF731B6818464FF4FA71F6
S32D0000E67003F09CFC43F25463C1F6FF731B68184640F6C41103F0B0FC43F26863C1F6FF7343F2CC62C1F6FF729D
S32D0000E6981A6043F26863C1F6FF731B6818464FF0000104F0BDF943F26863C1F6FF731B6818464FF0010104F0A7
S32D0000E6C011FA43F27463C1F6FF7343F26C62C1F6FF721A604FF0080007F008FF04462046FF4901F019F943F2D2
S32D0000E6E87863C1F6FF731C604FF04C0007F0FAFE044643F27863C1F6FF73196843F22863C1F6FF731A6843F266
S32D0000E7106863C1F6FF731D6843F27463C1F6FF731B687B6043F25863C1F6FF73D3F800B043F25C63C1F6FF731E
S32D0000E738D3F800A043F23463C1F6FF73D3F8009043F23863C1F6FF73D3F8008043F23C63C1F6FF73D3F800C02C
S32D0000E76043F24063C1F6FF73D3F800E043F24463C1F6FF731E6843F23063C1F6FF73186843F22C63C1F6FF73F6
S32D0000E7881B683B607B680093CDF804B0CDF808A0CDF80C90CDF81080CDF814C0CDF818E0079608903B68099369
S32D0000E7B020462B4600F0A8FE43F26063C1F6FF731C604FF0100007F091FE044643F24863C1F6FF73196843F253
S32D0000E7D84C63C1F6FF731A6843F26063C1F6FF731B68204601F014F943F26463C1F6FF731C6043F28063C1F641
S32D0000E800FF734FF006021A6043F28063C1F6FF731B684FEA8303184607F09CFE024643F28863C1F6FF731A603A
S32D0000E82843F28863C1F6FF731A6847F2F873C0F20103136043F28863C1F6FF731B6803F1040247F60003C0F272
S32D0000E8500103136043F28863C1F6FF731B6803F1080247F60C03C0F20103136043F28863C1F6FF731B6803F124
S32D0000E8780C0247F61003C0F20103136043F28863C1F6FF731B6803F1100247F61803C0F20103136043F2886378
S32D0000E8A0C1F6FF731B6803F1140247F62803C0F20103136043F27C63C1F6FF734FF000021A6043F28463C1F638
S32D0000E8C8FF734FF001021A7043F26063C1F6FF731B68184600F080FE43F26063C1F6FF731B6818464FF0010131
S32D0000E8F000F0B8FE0346002B12D043F28863C1F6FF731A6843F27C63C1F6FF731B684FEA8303D3181B681846E8
S32D0000E91800F0E6F800BFD7E743F26063C1F6FF731B6818464FF0000100F098FE0346002B22D043F27C63C1F68D
S32D0000E940FF731B6803F1FF3243F27C63C1F6FF731A6043F27C63C1F6FF731B68002B0FDA43F27C63C1F6FF73C7
S32D0000E9681A6843F28063C1F6FF731B68D21843F27C63C1F6FF731A6043F26063C1F6FF731B6818464FF0020156
S32D0000E99000F068FE0346002B29D043F27C63C1F6FF731B6803F1010243F27C63C1F6FF731A6043F28063C1F659
S32D0000E9B8FF731B6803F1FF3243F27C63C1F6FF731B689A420FDA43F27C63C1F6FF731A6843F28063C1F6FF7392
S32D0000E9E01B68D21A43F27C63C1F6FF731A6043F27863C1F6FF731B68184600F0E9FF0346002B69D043F2686344
S32D0000EA08C1F6FF731B6818464FF0000104F008F843F26863C1F6FF731B68184647F63401C0F2010104F0AEF8D8
S32D0000EA3043F26863C1F6FF731A6843F28863C1F6FF73196843F27C63C1F6FF731B684FEA8303CB181B68104608
S32D0000EA58194604F081F943F26863C1F6FF731B68184647F64001C0F2010104F075F943F26863C1F6FF731B6879
S32D0000EA80184647F65801C0F2010104F069F943F26863C1F6FF731B68184647F67001C0F2010104F073F843F26A
S32D0000EAA86863C1F6FF731A6843F28463C1F6FF731B78002B04D047F67C03C0F2010303E047F68403C0F2010324
S32D0000EAD01046194604F044F9024802F04BFAF7E6000000000AD7233C80B582B000AF786043F28463C1F6FF7361
S32D0000EAF81B78002B1ED07A6847F62803C0F201039A4217D04FF000004FF07E5101F5E00102F052FA43F2746313
S32D0000EB20C1F6FF731B68184605F0E0FD43F27463C1F6FF731B68184606F092FA7A6847F60C03C0F201039A4293
S32D0000EB4801D100F03DF87A6847F60003C0F201039A4201D100F022FA7A6847F61003C0F201039A4201D100F090
S32D0000EB7069FA7A6847F2F873C0F201039A4201D100F0BCFA7A6847F61803C0F201039A4201D100F047FC7A68D1
S32D0000EB9847F62803C0F201039A420CD143F28463C1F6FF731B7883F00103DAB243F28463C1F6FF731A7007F1D6
S32D0000EBC00807BD4680BD00BF80B500AF43F26863C1F6FF731B68184647F69001C0F2010104F0BEF843F2546313
S32D0000EBE8C1F6FF731B681846E24903F019FA43F26463C1F6FF731B68184601F0E1F94FF000004FF07E5101F5B0
S32D0000EC10E00102F0D5F943F26463C1F6FF731B68D74A1A6043F26063C1F6FF731B68184600F0ECFD4FF00000D8
S32D0000EC384FF07E5101F5E00102F0BEF943F26463C1F6FF731B6818464FF06401CB4A01F077FA4FF000004FF081
S32D0000EC607E5101F5E00102F0ABF943F26063C1F6FF731B68184600F0D9FD4FF000004FF07E5101F5E00102F06C
S32D0000EC889BF943F26063C1F6FF731B681B7B002B5FD143F26463C1F6FF731B6818464FF000014FF000024FF06F
S32D0000ECB0010301F09FF84FF000004FF07E5101F5E00102F07DF943F26463C1F6FF731B6818464FF06401AC4A7E
S32D0000ECD801F036FA4FF000004FF07E5101F5E00102F06AF943F26463C1F6FF731B6818464FF05A014FF0010292
S32D0000ED004FF0000301F076F84FF000004FF07E5101F5E00102F054F943F26463C1F6FF731B68184601F050F9A1
S32D0000ED2843F25463C1F6FF731B681846954903F077F94FF000004FF0804102F03DF943F25463C1F6FF731B6887
S32D0000ED5018468A4903F068F95EE043F26463C1F6FF731B6818464FF000014FF001024FF0000301F03FF84FF0A1
S32D0000ED7800004FF07E5101F5E00102F01DF943F26463C1F6FF731B6818466FF063017E4A01F0D6F94FF00000F0
S32D0000EDA04FF07E5101F5E00102F00AF943F26463C1F6FF731B6818464FF05A014FF000024FF0010301F016F848
S32D0000EDC84FF000004FF07E5101F5E00102F0F4F843F26463C1F6FF731B68184601F0F0F843F25463C1F6FF7327
S32D0000EDF01B681846654903F017F94FF000004FF0804102F0DDF843F25463C1F6FF731B6818465A4903F008F9D0
S32D0000EE1843F26463C1F6FF731B6818464FF064015A4A01F08DF94FF000004FF07E5101F5E00102F0C1F843F203
S32D0000EE406463C1F6FF731B6818464FF000014FF000024FF0010300F0CDFF4FF000004FF07E5101F5E00102F03D
S32D0000EE68ABF843F26463C1F6FF731B68184601F0A7F84FF000004FF07E5101F5E00102F09BF843F26463C1F6E7
S32D0000EE90FF731B6818464FF064013F4A01F054F94FF000004FF07E5101F5E00102F088F843F26463C1F6FF73DB
S32D0000EEB81B6818464FF05A014FF001024FF0000300F094FF4FF000004FF07E5101F5E00102F072F843F264632E
S32D0000EEE0C1F6FF731B68184601F06EF84FF000004FF07E5101F5E00102F062F843F26463C1F6FF731B6818462D
S32D0000EF084FF06401234A01F01BF94FF000004FF07E5101F5E00102F04FF843F26463C1F6FF731B6818464FF023
S32D0000EF3005014FF000024FF0000300F05BFF4FF000004FF07E5101F5E00102F039F843F26463C1F6FF731B68F1
S32D0000EF58184600F0B9FF43F26463C1F6FF731B6818464FF064014FF000020B4B00F0D2FD80BD00BF0000F04158
S32D0000EF8000007042000010410000204000001643000040400000E04000009441000008420000803E80B500AF46
S32D0000EFA843F25063C1F6FF731B681846214903F037F84FF000004FF07E5101F5E00101F0FBFF43F26463C1F6FB
S32D0000EFD0FF731B6818464FF078014FF000024FF0010300F007FF4FF000004FF07E5101F5E00101F0E5FF43F260
S32D0000EFF86463C1F6FF731B6818464FF05A014FF001024FF0010300F0F1FE4FF000004FF07E5101F5E00101F007
S32D0000F020CFFF43F25063C1F6FF731B681846044902F0FAFFFFF7C8FD80BD00BF0000B4420000344298B500AFAB
S32D0000F04843F26863C1F6FF731B68184603F012FD43F26863C1F6FF731C6843F26063C1F6FF731B685B6A18461A
S32D0000F07002F05CF903462046194603F099FE43F26863C1F6FF731C6843F26063C1F6FF731B689B6A184602F0ED
S32D0000F09849F903462046194603F086FE43F26863C1F6FF731C6843F26063C1F6FF731B68DB6A184602F036F96E
S32D0000F0C003462046194603F073FE43F26863C1F6FF731C6843F26063C1F6FF731B681B6B184602F023F9034624
S32D0000F0E82046194603F060FE014801F03FFFA7E7CDCCCC3D90B583B000AF43F25063C1F6FF731B681846BF491B
S32D0000F11002F08AFF43F25463C1F6FF731B681846BB4902F081FF43F26063C1F6FF731B68184600F005FB43F2C3
S32D0000F1386063C1F6FF731C6843F27463C1F6FF731B68184605F0C4FF0346A36043F26863C1F6FF731B68184615
S32D0000F16047F69401C0F2010103F010FD43F26863C1F6FF731A6843F26063C1F6FF731B689B681046194603F001
S32D0000F1882FFD43F26463C1F6FF731B6818464FF05A014FF000024FF0010300F027FE4FF000004FF07E5101F5B1
S32D0000F1B0E00101F005FF43F26463C1F6FF731B68184600F085FE4FF000004FF07E5101F5E00101F0F5FE43F2A5
S32D0000F1D86463C1F6FF731B6818466FF063018B4A00F0AEFF4FF000004FF07E5101F5E00101F0E2FE43F2646312
S32D0000F200C1F6FF731B6818464FF000014FF001024FF0000300F0EEFD4FF000004FF07E5101F5E00101F0CCFE58
S32D0000F22843F26463C1F6FF731B68184600F08CFC4FF001037B604FF001033B6017E043F26463C1F6FF731B689F
S32D0000F250184600F07DFC7B6803F101037B604FF000004FF07E5101F5E00101F0A9FE3B6803F101033B6043F2EC
S32D0000F2786063C1F6FF731B689A683B689A42D4BF00230123DBB2002BD9D14FF000004FF07E5101F5E00101F027
S32D0000F2A08FFE43F26463C1F6FF731B6818466FF06301594A00F048FF4FF000004FF07E5101F5E00101F07CFE81
S32D0000F2C843F26463C1F6FF731B6818464FF05A014FF001024FF0000300F088FD4FF000004FF07E5101F5E0015B
S32D0000F2F001F066FE43F26463C1F6FF731B68184600F0E6FD4FF000004FF07E5101F5E00101F056FE43F264635D
S32D0000F318C1F6FF731B6818464FF078014FF000024FF0010300F062FD4FF000004FF07E5101F5E00101F040FEDF
S32D0000F34043F26463C1F6FF731B6818464FF05A014FF001024FF0000300F04CFD4FF000004FF07E5101F5E0011E
S32D0000F36801F02AFE43F26463C1F6FF731B68184600F0AAFD4FF000004FF07E5101F5E00101F01AFE43F2646398
S32D0000F390C1F6FF731B6818466FF063011F4A00F0D3FE4FF000004FF07E5101F5E00101F007FE43F26463C1F68B
S32D0000F3B8FF731B6818464FF000014FF001024FF0000300F013FD4FF000004FF07E5101F5E00101F0F1FD43F2D8
S32D0000F3E06463C1F6FF731B6818464FF064010C4A00F0AAFE4FF000004FF07E5101F5E00101F0DEFD07F10C07A1
S32D0000F408BD4690BD000034420000F0410000803F00006041000080400000004080B500AF43F26463C1F6FF7376
S32D0000F4301B6818461F4900F00BFF4FF000004FF07E5101F5E00101F0BBFD43F26463C1F6FF731B681846184937
S32D0000F45800F0FAFE4FF000004FF07E5101F5E00101F0AAFD43F26463C1F6FF731B681846104900F0E9FE4FF06D
S32D0000F48000004FF07E5101F5E00101F099FD43F26463C1F6FF731B681846094900F0D8FE4FF000004FF07E5187
S32D0000F4A801F5E00101F088FD80BD00BF0000B4420000B4C200003443000034C380B582B000AF786039607B68A9
S32D0000F4D0012B0AD13A684FF6FF739A4205D143F26C60C1F6FF7005F0BDF807F10807BD4680BD00BF80B500AF41
S32D0000F4F84FF001004FF6FF71FFF7E0FF80BD00BF80B586B000AFF860B9607A603B604FF0030007F01BF802468C
S32D0000F520FB685A644FF0030007F014F80246FB681A64FB684FF001029A604FF000037B6111E0FB685A6C7B6973
S32D0000F548D3184FF000021A70FB681A6C7B69D3184FF000021A707B6903F101037B617B69022BCCBF00230123C1
S32D0000F570DBB2002BE5D1FB687A689A61FB683A6A1A61FB683A685A61FB687A6ADA61FB68BA6A1A62FB68FA6A31
S32D0000F5985A62FB683A6B9A62FB687A6BDA62FB68BA6B1A63FB68FA6B5A63FB683A6C9A63FB687A6CDA63FB6888
S32D0000F5C0BA689A64FB689B6C1846044900F0F2F9FB68184607F11807BD4680BDCDCCCC3D90B585B000AF786052
S32D0000F5E84FF00003FB600DE07B681A6CFB68D3187A68516CFA688A1812781A70FB6803F10103FB60FB68022BB7
S32D0000F610CCBF00230123DBB2002BE9D17B685C6C7B689B69184602F05FFB034623707B685B6C03F101047B68EA
S32D0000F6389B69184602F066FB034623707B685B6C03F102047B689B69184602F06FFB0346237007F11407BD46DC
S32D0000F66090BD00BF80B483B000AF78600B46FB707B685A6CFB78D3181B78002B0CD07B681A6CFB78D3181B78CB
S32D0000F68883F00103DBB2002B02D04FF0010301E04FF00003184607F10C07BD4680BC704780B582B000AF7860A0
S32D0000F6B07B68DB69184602F083FA7B681B6A184602F07EFA07F10807BD4680BD0000000090B583B000AF7860C2
S32D0000F6D87B68DB69184602F063FA04467B681B6A184602F05DFA0346E3181846FCF7DEFF02460B461046194617
S32D0000F7004FF000024FF08043FDF764F902460B461046194608A3D3E90023FDF75BF902460B4610461946FDF7E5
S32D0000F7280DFB0346184607F10C07BD4690BD00BF000000E02E3C164090B585B000AF78607B68DB6B184601F0D1
S32D0000F750A3FE0346FB60FB68BB607B68DB6B184601F09AFE0346FB607B689B6C184600F02FF90346002B13D05D
S32D0000F7787B685B69184603F07DF97B685B69184647F6A001C0F2010103F0FCF97B685B691846F96803F0F4FA2F
S32D0000F7A0F868B968FDF722FB03464FF00102144618461449FDF7C2FD0346002B02D14FF000031C46E3B2002BAB
S32D0000F7C805D07B685B69184603F054F912E07B689B69184602F0AAFA0346002B06D07B685B69184603F046F9AB
S32D0000F7F000BF03E0044801F0BDFBAEE707F11407BD4690BD0000C0BE0AD7233C80B582B000AF78607B68DB6B87
S32D0000F818184601F03DFE02467B681A6007F10807BD4680BD90B583B000AF78607B68DB6B184601F02DFE024662
S32D0000F8407B685A607B681B6818463249FDF7CEFA03461A467B685B684FF001010C4610461946FDF789FD0346A8
S32D0000F868002B02D14FF000031C46E3B2002B24D07B684FF001021A737B685B6918464FF0020103F0CDF87B6888
S32D0000F8905B69184647F6AC01C0F2010103F060FA7B685A697B681B681046194603F06CFA7B685A697B685B68D7
S32D0000F8B81046194603F064FA23E07B684FF000021A737B685B6918464FF0040103F0A8F87B685B69184647F64A
S32D0000F8E0BC01C0F2010103F03BFA7B685A697B681B681046194603F047FA7B685A697B685B681046194603F078
S32D0000F9083FFA07F10C07BD4690BD00BF0000803F80B582B000AF7860396001F079FB02460B4610461946FDF791
S32D0000F93009FA02467B681A607B683A685A607B68184607F10807BD4680BD00BFB0B582B000AF786001F060FB11
S32D0000F95804460D467B681B681846FCF7B9FE02460B4620462946FCF753FD02460B4610461946FDF7E3F903465E
S32D0000F980184607F10807BD46B0BD00BF80B582B000AF786001F040FB02460B4610461946FDF7D0F902467B6875
S32D0000F9A81A6007F10807BD4680BD00BF80B483B000AF786039607B683A685A6007F10C07BD4680BC704700BF2B
S32D0000F9D090B585B000AF78607868FFF7B7FF02467B685B684FF001010C4610461946FDF7C3FC0346002B02D14C
S32D0000F9F84FF000031C46FC73FB7B002B02D07868FFF7C0FFFB7B184607F11407BD4690BD80B485B000AFF8601F
S32D0000FA20B9607A603B60FB68BA685A60FB687A689A60FB683A68DA60FB68044A1A60FB68184607F11407BD466B
S32D0000FA4880BC70470000484290B587B000AFF860B9607A60BA687B68D3187B61BA687B68D31A3B617B69642BD0
S32D0000FA7002DD4FF064037B617B6913F1640F02DA6FF063037B613B69642B02DD4FF064033B613B6913F1640FC0
S32D0000FA9802DA6FF063033B61FB685C687B69C3F100031846FDF754FA03462046194600F02FFFFB689C6838696D
S32D0000FAC0FDF74AFA03462046194600F025FF07F11C07BD4690BD00BF90B585B000AFF860B9607A60FB685C68F9
S32D0000FAE8BB68C3F100031846FDF732FA03462046194600F00DFFFB689C687868FDF728FA03462046194600F033
S32D0000FB1003FF07F11407BD4690BD00BF80B584B000AFF860B9607A603B60F868B9687A68FFF78EFF386801F02E
S32D0000FB381DFAF8684FF000014FF00002FFF784FF07F11007BD4680BD80B582B000AF786078684FF032014FF060
S32D0000FB600002FFF775FF02E0134801F003FA7B68DB689B6A184601F0D9FB0346002BF3D178684FF000014FF0FB
S32D0000FB880002FFF761FF08A1D1E9000101F014FA78686FF063014FF00002064BFFF7BAFF07F10807BD4680BD69
S32D0000FBB0333333333333D33F0AD7233C9A99193E90B58DB000AFF860B9601346FB71FB68DB681B69184605F035
S32D0000FBD8CFFA03461846FDF7D5FB03463B623B6AFB61FA69BB68D318BB61BB69FB624FF0000387F82B304FF07B
S32D0000FC00000387F82A30BB68002BD4BF00230123FB75BB684FEAD373BB75BB69B32B07DDFB6AA3F1B403FB629D
S32D0000FC284FF0010387F82A30BB69002B07DAFB6A03F1B403FB624FF0010387F82B30FB68DB681B69184605F05B
S32D0000FC5093FA03461846FDF799FB03463B623B6A7B6297F82A30002B06D03B6A592B03DC7B6A03F1B4037B6203
S32D0000FC7897F82B30002B06D03B6A5A2B03DD7B6AA3F1B4037B627A6ABB69D31A3B61FB7D002B3AD0FB79002B7F
S32D0000FCA019D1FB681C683869FDF756F9034618464E49FDF7A5F9034620461946FDF796F803461846FDF762FB29
S32D0000FCC80346F8684FF000011A46FFF701FFFB79012B1AD13869FDF73BF9034618464149FDF78AF903461A462A
S32D0000FCF0FB681B6810461946FDF778F803461846FDF744FB0346F86819464FF00002FFF7E3FEBB7D002B3BD07F
S32D0000FD18FB79002B1BD1FB681B6883F000443869FDF716F9034618462E49FDF765F9034620461946FDF756F831
S32D0000FD4003461846FDF722FB0346F8684FF000011A46FFF7C1FEFB79012B19D1FB681C683869FDF7F9F803469F
S32D0000FD6818462049FDF748F9034620461946FDF73BF803461846FDF705FB0346F86819464FF00002FFF7A4FEC0
S32D0000FD903B69052B0ADDFB7D002B1FD0F8684FF000014FF00002FFF797FE1BE03B6913F1050F0ADABB7D002B8E
S32D0000FDB810D0F8684FF000014FF00002FFF788FE0CE0F8684FF000014FF00002FFF780FE00BF03E0044801F0C0
S32D0000FDE0C9F830E707F13407BD4690BD398EE33E0AD7233C80B586B000AFF860B960FA71BB71FB68DB681B6926
S32D0000FE08184605F0B5F903461846FDF7BBFA03463B614FF000037B61FB79002B12D1BA683B699A4204DDBA6851
S32D0000FE303B69D31A7B6109E0BA683B699A4205DABB6803F1B4023B69D31A7B61FB79012B12D1BA683B699A426E
S32D0000FE5806DDBB68A3F1B4023B69D31A7B6107E0BA683B699A4203DABA683B69D31A7B617B695A2B0ADC7B6997
S32D0000FE8013F15A0F06DBBB79F86879691A46FFF797FE19E07B694FEAD372D3184FEA63031A46BB79F868114675
S32D0000FEA81A46FFF789FE7B694FEAD372D3184FEA63031A46BB79F86811461A46FFF77CFE07F11807BD4680BDF1
S32D0000FED090B583B000AF786000E000BF7B68DB685B6A184601F022FA0346002B02D04FF0640401E04FF00004FF
S32D0000FEF87B68DB689B6A184601F014FA0346002B02D04FF0640301E04FF00003786821461A46FFF7DDFD29485D
S32D0000FF2001F028F87B68DB685B6A184601F0FEF9034683F00103DBB2002B0ED07B68DB689B6A184601F0F2F9B6
S32D0000FF48034683F00103DBB2002B02D04FF0010301E04FF00003002BBBD000BF78684FF000014FF00002FFF70F
S32D0000FF706FFD4FF000004FF07E5101F5C00101F01FF87B68DB685B6A184601F0CFF90346002B08D17B68DB6876
S32D0000FF989B6A184601F0C6F90346002B02D04FF0010301E04FF00003002B02D0786800F007F807F10C07BD46A2
S32D0000FFC090BD00BF0AD7233C90B583B000AF78607B68DB68DB6A184601F0A8F90346002B02D06FF0630401E080
S32D0000FFE84FF000047B68DB681B6B184601F09AF90346002B02D06FF0630301E04FF00003786821461A46FFF74F
S32D0001001063FD7B68DB68DB6A184601F087F9034683F00103DBB2002B0ED07B68DB681B6B184601F07BF9034619
S32D0001003883F00103DBB2002B02D04FF0010301E04FF00003002B48D17B68DB689B6C1846FFF7BAFC0346002B43
S32D000100603BD07B68DB685B69184602F007FD7B68DB685B69184647F6CC01C0F2010102F085FD7B68DB685C69C3
S32D000100887B68DB68DB6A184601F04CF9034683F00103DBB22046194602F02AFE7B68DB685B69184647F6D401C4
S32D000100B0C0F2010102F06AFD7B68DB685C697B68DB681B6B184601F031F9034683F00103DBB22046194602F000
S32D000100D80FFE1A4800F04AFF76E700BF78684FF000014FF00002FFF7AFFC4FF000004FF07E5101F5C00100F03F
S32D000101005FFF7B68DB68DB6A184601F00FF90346002B08D17B68DB681B6B184601F006F90346002B02D04FF0E4
S32D00010128010301E04FF00003002B02D07868FFF747FF07F10C07BD4690BD00BF0AD7233C90B589B000AFF86089
S32D00010150B9607A604FF00103FB61BB68002B06DA4FF0FF33FB61BB68C3F10003BB60B868FCF7F2FE0346184654
S32D000101783249FCF737FE034618463149FCF7F0FF0346BB61F868B9684FF00002FFF75CFCFB68DB68DB691846F5
S32D000101A001F00EFDFB68DB681B6A184601F008FD7B687B6100E000BFFB68DB681846FFF787FA03467868194654
S32D000101C8FCF710FE03467B61F869FCF7C1FE0446B8697969FCF710FF034618461749FCF703FE03462046194677
S32D000101F0FCF706FF03461846FDF7C8F80346F86819464FF00002FFF723FC4FF001031C4678690E49FDF792F8D4
S32D000102180346002B02D14FF000031C46E3B2002BC5D000BFF8684FF000014FF00002FFF70BFC07F12407BD46B4
S32D0001024090BD00BF000070420000C04000000000F0B585B000AF78603960914BFB607B68DB681846FFF720FA0C
S32D000102684FF001031C4638688C49FDF763F80346002B02D14FF000031C46E3B2002B00F098803B6883F00043F2
S32D000102903B607B68DB685B69184647F6DC01C0F2010102F073FC7B68DB685C69F8683968FCF7A6FE03462046FB
S32D000102B8194602F065FD4CE07B68DB68DB69184601F06EFC03461846FCF7F0F904460D46F8683968FCF790FE73
S32D000102E003461846FCF7F8F902460B461046194669A3D3E90023FCF743FA02460B4620462946FCF767FB0246F0
S32D000103080B46104619464FF000024FF0804303F58803FCF731FA02460B46104619464FF000024FF0804303F553
S32D00010330B203FCF771F802460B4610461946FCF701FD0346BB60B868FDF720F80346786819464FF00002FFF7FF
S32D00010358BFFB7B68DB68DB69184601F021FC03461846FCF7A3F904460D46F8683968FCF743FE03461846FCF744
S32D00010380ABF902460B461046194643A3D3E90023FCF7F6F902460B464FF001010E4620462946FCF75FFC03461B
S32D000103A8002B02D14FF000031E46F3B2002B83D160E07B68DB685B69184647F6E801C0F2010102F0DFFB7B684D
S32D000103D0DB685C69F8683968FCF712FE03462046194602F0D1FC29E07B68DB681B6A184601F0DAFB03461846A6
S32D000103F8FCF7AEFD0446F8683968FCF7FDFD034620461946FCF7ACFE034618462449FCF7F3FD0346184623494B
S32D00010420FCF7E4FC0346BB60B868FCF7AFFF034678684FF000011A46FFF74EFB7B68DB681B6A184601F0B0FB08
S32D0001044803461846FCF784FD0546F8683968FCF7D3FD03464FF00102144628461946FCF769FF0346002B02D107
S32D000104704FF000031C46E3B2002BB5D178684FF000014FF00002FFF7E3FA07F11407BD46F0BD00BFAFF300809B
S32D00010498CDCCCCCCCCCCEC3F721C473F00000000000020420000C84280B500AF43F6A072C1F6FF7243F22863AA
S32D000104C0C1F6FF73D31A194643F22863C1F6FF731A460B4610464FF000011A4604F07DFF80BD00BF05F0E6FFC2
S32D000104E800F0B0F9FFF7E0FF05F0B8FF05F054FF05F0ECFF00F00CF84FF0000043F28C61C1F6FF71FDF7BEFF76
S32D000105100346184604F03CFF80B500AF4FF4E043C4F204034FF4E042C4F2040202F5805202F13802126842F418
S32D00010538785203F5805303F138031A6000F02EF900F094F843F29863C1F6FF734FF058021A6043F29863C1F670
S32D00010560FF731B684FF47A7202FB03F243F29463C1F6FF731A6043F29463C1F6FF731B681A464FF4E043C4F233
S32D00010588040303F5825303F104031B6803F070634FEA136303F10103B2FBF3F31A4643F29C63C1F6FF731A60BB
S32D000105B04FF4E043C4F204034FF4E042C4F2040202F5805202F13C02126842F0225203F5805303F13C031A6046
S32D000105D84FF4E043C4F204034FF4E042C4F2040202F5805202F13002126842F0006203F5805303F130031A6048
S32D000106004FF45043C4F203034FF480721A614FF0640000F029FB4FF45043C4F203034FF45042C4F203025269F5
S32D0001062822F010025A614FF45043C4F203034FF000021A604FF45043C4F203034FF010025A6101F077F801F088
S32D000106501FF943F29060C1F6FF7000F089FB43F2CC60C1F6FF7002F0C7F841F2883000F067FC80BD80B400AF0E
S32D000106784FF48043C4F206034FF000025A704FF48043C4F206034FF098021A704FF48043C4F206039B79DBB2F5
S32D000106A003F01003002B0CBF00230123DBB2002BF0D14FF48043C4F206039B79DBB203F00C034FEA9303022B0B
S32D000106C80CBF00230123DBB2002BEED14FF48043C4F206034FF018021A714FF48043C4F206034FF000025A7100
S32D000106F04FF4E043C4F2040303F5825303F104034FF00002C0F213121A604FF48043C4F206034FF054025A7139
S32D0001071800BF4FF48043C4F206039B79DBB203F02003002B14BF00230123DBB2002BF0D100BF4FF48043C4F23E
S32D0001074006039B79DBB203F04003002B14BF00230123DBB2002BF0D14FF48043C4F206034FF48042C4F2060264
S32D000107681278D2B202F03F02D2B21A704FF48043C4F206039B79DBB203F00C034FEA9303032B0CBF002301239C
S32D00010790DBB2002BEED14FF000031846BD4680BC704700BF80B400AF4FF44043C4F204034FF480725A634FF2D5
S32D000107B8C003C4F20F034FF2C002C4F20F02526942F400525A614FF2C003C4F20F034FF2C002C4F20F021268AF
S32D000107E042F400521A604FF44043C4F2040340F20312C0F20A021A634FF46143CEF200034FF46142CEF2000291
S32D00010808D2F8882142F08062C3F888214FF46143CEF200034FF46142CEF20002926842F080629A60BD4680BC3D
S32D00010830704700BF80B483B000AF7860FEE700BF80B400AF00BEBD4680BC704780B400AF4FF0E0224CF2000395
S32D00010858C0F20003C2F8083D4FF40053C4F205034CF22052DA814FF40053C4F205034DF62812DA814FF400539C
S32D00010880C4F205034FF0D2021A80BD4680BC704780B400AF4FF44043C4F20403D3F8A03003F48053002B0CBF27
S32D000108A800230123DBB2002B19D04FF44043C4F204034FF44042C4F20402D2F8A02022F48052C3F8A0204FF207
S32D000108D0C003C4F20F034FF2C002C4F20F02126822F400521A60BD4680BC704780B483B000AF78600B46FB70A8
S32D000108F87B68FA781A707B684FF000025A707B68184607F10C07BD4680BC70470000000090B585B000AF7860C1
S32D0001092039604FF001031C4638682F49FCF706FD0346002B02D14FF000031C46E3B2002B02D0294B3B6011E0DF
S32D000109484FF001031C4638682649FCF711FD0346002B02D14FF000031C46E3B2002B01D0204B3B603868FBF7B7
S32D00010970B3FE02460B46104619464FF000024FF0804303F5B203FCF725F802460B461046194613A3D3E9002376
S32D00010998FBF7F2FE02460B4610461946FCF786F90346FB737B685B78FA7B9A420FD07B68FA7B5A707B681A785A
S32D000109C0FB7B43F29060C1F6FF7011461A464FF01E0300F017FA07F11407BD4690BD00BF0000000000C05F40AE
S32D000109E80000C8C20000C84290B486B000AFF860B9607A60FA684FF42043C4F206039A4214D14FF4E043C4F234
S32D00010A1004034FF4E042C4F2040202F5805202F13402126842F4806203F5805303F134031A6083E0FA684FF493
S32D00010A383043C4F206039A4214D14FF4E043C4F204034FF4E042C4F2040202F5805202F13402126842F4006254
S32D00010A6003F5805303F134031A6067E0FA684FF44043C4F206039A4214D14FF4E043C4F204034FF4E042C4F2CA
S32D00010A88040202F5805202F13402126842F4805203F5805303F134031A604BE0FA684FF45043C4F206039A4257
S32D00010AB014D14FF4E043C4F204034FF4E042C4F2040202F5805202F13402126842F4005203F5805303F1340304
S32D00010AD81A602FE0FA684FF42043C4F20E039A4214D14FF4E043C4F204034FF4E042C4F2040202F5805202F1D6
S32D00010B002802126842F4806203F5805303F128031A6013E04FF4E043C4F204034FF4E042C4F2040202F58052A6
S32D00010B2802F12802126842F4006203F5805303F128031A60FB68DB78DBB223F00C03DAB2FB68DA70FB684FF0CB
S32D00010B5000029A70BB684FF47A7202FB03F27B684FEA031392FBF3F39CB2FB681B78DBB223F01F03FB752346A2
S32D00010B7803F4F8534FEA2323DBB203F01F03DAB2FB7D1343DAB2FB681A70E2B2FB685A70BB684FF4FA4202FBB8
S32D00010BA003F27B684FEA031392FBF3F39AB2234619464FEAC121CB1A4FEA43139BB2D3189CB2FB689B7ADBB25E
S32D00010BC823F01F03FB75E3B203F01F03DAB2FB7D1343DAB2FB689A72FB68DB78DBB243F00C03DAB2FB68DA709C
S32D00010BF007F11807BD4690BC704700BF80B483B000AF786000BF7B681B79DBB203F02003002B14BF00230123EE
S32D00010C18DBB2002BF3D17B68DB79DBB2184607F10C07BD4680BC704780B483B000AF78600B46FB7000BF7B68C2
S32D00010C401B79DBB2DBB26FEA0303DBB24FEAD313DBB2002BF3D17B68FA78DA7107F10C07BD4680BC704700BFF0
S32D00010C6880B483B000AF78604FF4E043C4F204034FF4E042C4F2040202F5805202F13802126842F0010203F58E
S32D00010C90805303F138031A604FF00003C4F204037A689A604FF00003C4F204034FF005025A604FF00003C4F2E7
S32D00010CB804034FF00002C4F20402126842F001021A6000BF4FF00003C4F204031B6803F08003002B14BF002308
S32D00010CE00123DBB2002BF1D14FF00003C4F204034FF00002C4F20402126822F001021A6007F10C07BD4680BCF8
S32D00010D08704700BF80B582B000AF786039607B68012B0AD13A684FF6FF739A4205D143F29060C1F6FF7000F08F
S32D00010D300FF807F10807BD4680BD00BF80B500AF4FF001004FF6FF71FFF7E0FF80BD00BF80B483B000AF7860EF
S32D00010D587B684FF000021A707B68184607F10C07BD4680BC704700BF80B582B000AF78607B681B7883F00103E2
S32D00010D80DBB2002B36D04FF4E043C4F2040303F5805303F128034FF400621A604FF45043C4F204034FF44072D2
S32D00010DA81A624FF45043C4F204034FF440725A6243F29463C1F6FF731B684FEAD372D3184FEA63034FF43040C9
S32D00010DD0C4F20E0019464FF46142FFF709FE4FF0640000F0ADF87B684FF001021A704FF0010301E04FF00003A1
S32D00010DF8184607F10807BD4680BD00BF80B582B000AF7860F970BA707B704FF43040C4F20E004FF07F01FFF7D0
S32D00010E2007FF4FF43040C4F20E004FF00801FFF7FFFEFB784FF43040C4F20E001946FFF7F7FEBB784FF43040D1
S32D00010E48C4F20E001946FFF7EFFE7B784FF43040C4F20E001946FFF7E7FE4FF43040C4F20E004FF0FF01FFF725
S32D00010E70DFFE07F10807BD4680BD00BF80B487B000AFF860B9607A60FA6844F6D353C1F26203A3FB02134FEA45
S32D00010E989312BB68D3187B61FA6844F6D353C1F26203A3FB02134FEA93134FF47A7101FB03F3D31AFB60FB6865
S32D00010EC04FEAC33244F6D353C1F26203A3FB02134FEA93127B68D3183B613B694FEAD3337A69D3187B613B6931
S32D00010EE84FEA43434FEA53433B614FF45043C4F203031B681A467B699A4211D34FF45043C4F203031B681A4623
S32D00010F107B699A420BD14FF45043C4F203035B681A463B699A4202D24FF0010301E04FF00003002BDDD107F1D6
S32D00010F381C07BD4680BC704780B584B000AF78604FF45043C4F203031B68FB604FF45043C4F203035B68BB60A1
S32D00010F607B681846F968BA68FFF788FF07F11007BD4680BD80B584B000AF78604FF45043C4F203031B68FB6072
S32D00010F884FF45043C4F203035B68BB6078680849FCF732F803461846FCF71AFA03461846F968BA68FFF766FF49
S32D00010FB007F11007BD4680BD00007A440000000080B584B000AFC7E900014FF45043C4F203031B68FB604FF489
S32D00010FD85043C4F203035B68BB60D7E900010AA3D3E90023FBF7C8FB02460B4610461946FBF784FE0346184652
S32D00011000F968BA68FFF73AFF07F11007BD4680BD0000000000408F4080B584B000AF4FF45043C4F203031B6884
S32D00011028FB604FF45043C4F203035B68BB60F868FBF72CFB02460B46C7E90023B868FBF725FB02460B461046C8
S32D0001105019464FF000024FF0804303F56003FBF7B9FC02460B46D7E90001FBF7D7F902460B46C7E90023D7E985
S32D0001107800231046194607F11007BD4680BD00BF80B483B000AF4FF45043C4F203031B684FF47A7202FB03F316
S32D000110A07B604FF45043C4F203035B684FF47A7202FB03F34FEAD3337A68D3187B607B68184607F10C07BD4699
S32D000110C880BC704780B582B000AF78600B46FB70FB787868194600F013F87B68184607F10807BD4680BD00BF68
S32D000110F080B483B000AF78607B68184607F10C07BD4680BC704700BF80B483B000AF78600B46FB707B68FA78E3
S32D000111181A707B681B781A4647F69423C0F201039B5C042B00F2F98001A252F823F000BF4D110100AB11010032
S32D000111400912010067120100C51201004FF41043C4F204037A681278114647F6D822C0F2010252F8212040F253
S32D00011168031143F822104FF47043C4F20F034FF47042C4F20F02526911467A681278104647F6D822C0F201029D
S32D0001119052F8202002F01F024FF0010000FA02F26FEA02020A405A61BBE04FF42043C4F204037A681278114642
S32D000111B847F6D822C0F2010252F8212040F2031143F822104FF24003C4F20F034FF24002C4F20F025269114636
S32D000111E07A681278104647F6D822C0F2010252F8202002F01F024FF0010000FA02F26FEA02020A405A618CE099
S32D000112084FF43043C4F204037A681278114647F6D822C0F2010252F8212040F2031143F822104FF28003C4F2DD
S32D000112300F034FF28002C4F20F02526911467A681278104647F6D822C0F2010252F8202002F01F024FF0010056
S32D0001125800FA02F26FEA02020A405A615DE04FF44043C4F204037A681278114647F6D822C0F2010252F821201D
S32D0001128040F2031143F822104FF2C003C4F20F034FF2C002C4F20F02526911467A681278104647F6D822C0F239
S32D000112A8010252F8202002F01F024FF0010000FA02F26FEA02020A405A612EE04FF45043C4F204037A681278DA
S32D000112D0114647F6D822C0F2010252F8212040F2031143F822104FF47143C4F20F034FF47142C4F20F02526937
S32D000112F811467A681278104647F6D822C0F2010252F8202002F01F024FF0010000FA02F26FEA02020A405A6195
S32D0001132000BF07F10C07BD4680BC704780B485B000AF78604FF00003FB607B681B781A4647F69423C0F20103D1
S32D000113489B5C042B00F2868001A252F823F000BF6D1301009D130100CD130100FD1301002D1401004FF470433D
S32D00011370C4F20F031B691A467B681B78194647F6D823C0F2010353F8213003F01F034FF0010101FA03F31340A9
S32D00011398FB605FE04FF24003C4F20F031B691A467B681B78194647F6D823C0F2010353F8213003F01F034FF0A9
S32D000113C0010101FA03F31340FB6047E04FF28003C4F20F031B691A467B681B78194647F6D823C0F2010353F8B8
S32D000113E8213003F01F034FF0010101FA03F31340FB602FE04FF2C003C4F20F031B691A467B681B78194647F6BF
S32D00011410D823C0F2010353F8213003F01F034FF0010101FA03F31340FB6017E04FF47143C4F20F031B691A46D1
S32D000114387B681B78194647F6D823C0F2010353F8213003F01F034FF0010101FA03F31340FB6000BFFB68002BE4
S32D000114600CBF00230123DBB2184607F11407BD4680BC704780B483B000AF78600B46FB707B68FA781A707B68EB
S32D00011488184607F10C07BD4680BC70470000000080B586B000AF78607B681B781A4647F65833C0F2010353F845
S32D000114B022303B617B681B781A4647F6B423C0F201039B5CFB733B69DBB203F01F03DAB243F2A063C1F6FF73E7
S32D000114D81A723B69DBB203F01F03DAB243F2A063C1F6FF735A724FF46143CEF200034FF46142CEF20002D2F83E
S32D00011500882042F01002C3F88820FB7B002B1ED14FF43040C4F2030043F2A061C1F6FF7100F0C2FC4FF43043B0
S32D00011528C4F203031B6803F08003002B14BF00230123DBB2002BF1D14FF43043C4F203031B697B611DE04FF40E
S32D000115503040C4F20B0043F2A061C1F6FF7100F0A3FC4FF43043C4F20B031B6803F08003002B14BF0023012397
S32D00011578DBB2002BF1D14FF43043C4F20B031B697B614FF46143CEF200034FF46142CEF20002D2F8882142F0F9
S32D000115A01002C3F888214FF46143CEF200034FF46142CEF20002926842F010029A604FF46143CEF200034FF42F
S32D000115C86142CEF20002D2F8882142F08062C3F888214FF46143CEF200034FF46142CEF20002926842F0806244
S32D000115F09A607B694FEA03434FEA13431846FBF749F802460B46104619460FA3D3E90023FBF7B6F802460B4637
S32D00011618104619460CA3D3E90023FBF7D7F902460B4610461946FBF789FB0346BB60BB68184607F11807BD46DB
S32D0001164080BD00BFAFF30080A4703D0AD7A30A4000000000E0FFEF4080B586B000AF78607B681B781A4647F62B
S32D000116685833C0F2010353F822303B617B681B781A4647F6B423C0F201039B5CFB733B69DBB203F01F03DAB202
S32D0001169043F2B063C1F6FF731A723B69DBB203F01F03DAB243F2B063C1F6FF735A72FB7B002B1ED14FF43040DC
S32D000116B8C4F2030043F2B061C1F6FF7100F0F0FB4FF43043C4F203031B6803F08003002B14BF00230123DBB2C5
S32D000116E0002BF1D14FF43043C4F203031B697B611DE04FF43040C4F20B0043F2B061C1F6FF7100F0D1FB4FF43F
S32D000117083043C4F20B031B6803F08003002B14BF00230123DBB2002BF1D14FF43043C4F20B031B697B617B6905
S32D00011730184607F11807BD4680BD00BF98B500AF43F2A063C1F6FF734FF05C021A7043F2A063C1F6FF734FF0F2
S32D0001175810025A7043F2A063C1F6FF7341F234225A8043F2A063C1F6FF7345F278629A8043F2A063C1F6FF73D5
S32D000117804FF010029A7143F2A063C1F6FF734FF00702DA7143F2A063C1F6FF734FF4C022DA6043F2A063C1F63B
S32D000117A8FF734FF01F021A7243F2A063C1F6FF734FF01F025A724FF43040C4F2030043F2A061C1F6FF7100F06E
S32D000117D06BFB4FF43040C4F20B0043F2A061C1F6FF7100F061FB4FF43040C4F20B0000F0B5FA4FF43040C4F2EB
S32D000117F8030000F0AFFA4FF43040C4F20B0043F2A061C1F6FF7100F04BFB4FF43040C4F2030043F2A061C1F6C6
S32D00011820FF7100F041FB43F2B062C1F6FF7243F2A063C1F6FF7314460FCB84E80F0043F2B063C1F6FF734FF0CE
S32D000118485C021A7043F2B063C1F6FF734FF00402DA7198BD80B500AF43F2C463C1F6FF731B6803F1010243F21B
S32D00011870C463C1F6FF731A6000F016F94FF4E043C4F203034FF00102C3F80C2180BD00BF80B500AF4FF4E043EE
S32D00011898C4F203034FF001021A6048F2A060C0F2010000F023F84FF4E043C4F203034FF00302C3F808214FF424
S32D000118C06143CEF200034FF46142CEF20002D2F8882142F01002C3F888214FF46143CEF200034FF46142CEF27F
S32D000118E80002926842F010029A6080BD80B483B000AF78604FF4E043C4F203037A68C3F8002107F10C07BD467E
S32D0001191080BC704780B584B000AF78600B46FB707A68FB7810461946FFF7A4FD43F2C063C1F6FF731B68002B39
S32D0001193832D17B684FF000021A617B684FF000025A614FF0140004F0CDFD02467B689A617B689B697A689A6005
S32D000119607B689B694FF001025A607B689B69FA781A707B689B694FF00002DA607B689B694FF000021A617B68AA
S32D000119889B694FF000025A707B689A6943F2C063C1F6FF731A6071E043F2C063C1F6FF731B68FB6002E0FB684B
S32D000119B0DB68FB60FB681B78FA789A4206D0FB68DB68002B02D04FF0010301E04FF00003002BECD1FB681B7869
S32D000119D8FA789A4224D17B68FA689A617B689B699B68BB6002E0BB681B69BB60BB681B69002B0CBF00230123D0
S32D00011A00DBB2002BF3D1BB687A681A617B68BA685A617B684FF000021A617B689B695A6802F101025A602DE0F6
S32D00011A287B684FF000021A617B684FF000025A614FF0140004F056FD02467B689A617B689B697A689A607B68AB
S32D00011A509B694FF001025A607B689B69FA781A707B689B694FF00002DA607B689B694FF000025A707B689B6949
S32D00011A78FA681A617B689A69FB68DA60786800F09BF87B684FF48C429A607B684FF45242DA607B68184607F161
S32D00011AA01007BD4680BD00BF80B584B000AF43F2C063C1F6FF731B68FB6029E0FB685B78FB71FB689B6818461B
S32D00011AC800F02EF80346BB71BB79002B19D0FB685B68012B15DDFB689B681B69BB6008E0BB685B6803F101020E
S32D00011AF0BB685A60BB681B69BB60BB68002B0CBF00230123DBB2002BEED1FB68DB68FB60FB68002B0CBF0023D4
S32D00011B180123DBB2002BCDD107F11007BD4680BD80B584B000AF78607868FFF791FD0346FB607B689B695B7823
S32D00011B40FB72FB7A002B12D17B68DA68FB689A420DDA7B689B694FF001025A707B685B6803F101027B685A600E
S32D00011B684FF0010317E0FB7A012B12D17B689A68FB689A420DDD7B689B694FF000025A707B685B6803F10102F3
S32D00011B907B685A604FF0010301E04FF00003184607F11007BD4680BD80B483B000AF78607B685B68184607F18C
S32D00011BB80C07BD4680BC704780B483B000AF78607B684FF000025A6007F10C07BD4680BC704700BF80B582B002
S32D00011BE000AF78600B46FB707B681846FFF780FA7B6803F101031846FFF77AFA7B6803F102031846FFF774FAA1
S32D00011C08FB78032B66D801A252F823F0251C0100531C0100811C0100AF1C01007B6818464FF00001FFF76CFAD5
S32D00011C307B6803F1010318464FF00101FFF764FA7B6803F1020318464FF00201FFF75CFA44E07B6818464FF04B
S32D00011C580801FFF755FA7B6803F1010318464FF00901FFF74DFA7B6803F1020318464FF00A01FFF745FA2DE08A
S32D00011C807B6818464FF01001FFF73EFA7B6803F1010318464FF01101FFF736FA7B6803F1020318464FF012013A
S32D00011CA8FFF72EFA16E07B6818464FF01801FFF727FA7B6803F1010318464FF01901FFF71FFA7B6803F10203CC
S32D00011CD018464FF01A01FFF717FA00BF7B68184607F10807BD4680BD80B582B000AF78607B681846FFF71AFBA5
S32D00011CF8034683F00103DBB2184607F10807BD4680BD00BF80B582B000AF78607B6803F101031846FFF706FBEE
S32D00011D20034683F00103DBB2184607F10807BD4680BD00BF80B582B000AF78607B6803F102031846FFF7F2FAD9
S32D00011D48034683F00103DBB2184607F10807BD4680BD00BF80B485B000AF78607B681B6A23F040027B681A62AF
S32D00011D707B685B6A23F00B027B685A627B685B6A43F007027B685A627B685B6A43F080027B685A627B681B68F8
S32D00011D9803F08003002B14BF00230123DBB2002BF4D17B685B6A03F04003002B0CBF00230123DBB2002B02D03F
S32D00011DC04FF0010369E04FF00003FB817B68DB6CFB817B689B6C9AB2FB89D318FB817B685B6C9AB2FB89D3187E
S32D00011DE8FB817B681B6C9AB2FB89D318FB817B68DB6B9AB2FB89D318FB817B689B6B9AB2FB89D318FB81FB89AB
S32D00011E104FEA5303FB81FB896FEA43436FEA5343FB81FA897B68DA624FF00003FB817B68DB6EFB817B689B6ED6
S32D00011E389AB2FB89D318FB817B685B6E9AB2FB89D318FB817B681B6E9AB2FB89D318FB817B68DB6D9AB2FB89C3
S32D00011E60D318FB817B689B6D9AB2FB89D318FB81FB894FEA5303FB81FB896FEA43436FEA5343FB81FA897B6807
S32D00011E881A637B685B6A23F080027B685A624FF00003184607F11407BD4680BC704700BF80B483B000AF78607C
S32D00011EB039603B681B781A467B689A603B685B781A467B68DA603B685B881A467B689A613B689B881A467B6837
S32D00011ED8DA613B689B791A467B681A623B68DB791A467B685A623B68DA687B681A653B681B7A1A467B681A60F8
S32D00011F003B685B7A1A467B685A6007F10C07BD4680BC704780B483B000AF78607B68184607F10C07BD4680BCC3
S32D00011F28704700BF80B582B000AF786039607B68012B0AD13A684FF6FF739A4205D143F2C860C1F6FF70FFF71F
S32D00011F50E1FF07F10807BD4680BD00BF80B500AF4FF001004FF6FF71FFF7E0FF80BD00BF80B483B000AF7860E4
S32D00011F780B46FB707B68FA781A707B684FF4FA725A807B6840F6C4129A807B68044A9A607B68184607F10C07B3
S32D00011FA0BD4680BC704700BF000080BF80B483B000AF786039603A6840F2F3139A4204DD3A6840F6C4139A4275
S32D00011FC804DD7B684FF4FA725A8003E03B689AB27B685A8007F10C07BD4680BC704700BF80B483B000AF786060
S32D00011FF039603A6840F2F3139A4204DD3A6840F6C4139A4204DD7B6840F6C4129A8003E03B689AB27B689A804E
S32D0001201807F10C07BD4680BC704700BF00000000F0B585B000AF786039604FF001031C4638684B49FBF77EF99D
S32D000120400346002B02D14FF000031C46E3B2002B01D0454B3B604FF001031C4638684349FBF78AF90346002B10
S32D0001206802D14FF000031C46E3B2002B01D03D4B3B607B689B6818463968FBF751F90346002B64D17B683A68CF
S32D000120909A607B685E887B689B881A467B685B88D31A1846FAF706FB02460B46104619462BA3D3E90023FAF709
S32D000120B88DFC02460B4614461D463868FAF708FB02460B4620462946FAF756FB02460B4610461946FAF712FE87
S32D000120E003469BB2F318FB81FB897B73FB894FEA23233B734FF43040C4F20E004FF07F01FEF796FD4FF4304020
S32D00012108C4F20E004FF00501FEF78EFD7B681B784FF43040C4F20E001946FEF785FD3B7B4FF43040C4F20E002F
S32D000121301946FEF77DFD7B7B4FF43040C4F20E001946FEF775FD4FF43040C4F20E004FF0FF01FEF76DFD07F172
S32D000121581407BD46F0BD00BF0000000000806640000000000000344380B582B000AF78604FF43040C4F20E00CC
S32D000121804FF07F01FEF754FD4FF43040C4F20E004FF00901FEF74CFD7B681B784FF43040C4F20E001946FEF7EC
S32D000121A843FD4FF43040C4F20E004FF00101FEF73BFD4FF43040C4F20E004FF0FF01FEF733FD07F10807BD46FE
S32D000121D080BD00BF80B582B000AF78604FF43043C4F204034FF48072DA604FF42043C4F204034FF480729A647E
S32D000121F84FF42043C4F204034FF480721A644FF42043C4F204034FF480725A644FF42043C4F204034FF48072B4
S32D00012220DA604FF28003C4F20F034FF28002C4F20F02526942F008025A614FF24003C4F20F034FF24002C4F208
S32D000122480F02526942F480225A614FF24003C4F20F034FF24002C4F20F02526942F480325A614FF24003C4F2DA
S32D000122700F034FF24002C4F20F02526942F400325A614FF24003C4F20F034FF24002C4F20F02126842F00802B9
S32D000122981A604FF24003C4F20F034FF24002C4F20F02526942F008025A614FF28003C4F20F034FF28002C4F250
S32D000122C00F02126842F008021A604FF42043C4F204034FF480725A624FF42043C4F204034FF480721A624FF403
S32D000122E83043C4F204034FF480721A614FF43043C4F204034FF480725A614FF43043C4F204034FF480729A61E1
S32D000123104FF43043C4F204034FF48072DA614FF43043C4F204034FF480721A634FF43043C4F204034FF48072EE
S32D000123385A634FF43043C4F204034FF480729A634FF43043C4F204034FF48072DA634FF43043C4F204034FF479
S32D0001236080721A644FF43043C4F204034FF480725A644FF43043C4F204034FF480729A644FF43043C4F204035F
S32D000123884FF48072DA644FF44043C4F204034FF480721A604FF44043C4F204034FF480729A604FF44043C4F253
S32D000123B004034FF48072DA604FF44043C4F204034FF480721A614FF24003C4F20F034FF24002C4F20F02526904
S32D000123D842F440725A614FF28002C4F20F024FF28003C4F20F035B6919464FF2F003C0F20F030B4353614FF2BF
S32D00012400C003C4F20F034FF2C002C4F20F02526942F01D025A6178684FF0E20100F0F4FC78684FF01D0100F082
S32D0001242833FE78684FF0020100F02EFE78684FF0040100F029FE78684FF0E00100F0E0FC78684FF0010100F0FE
S32D000124501FFE4FF06400FEF773FD78684FF0E00100F0D2FC78684FF0030100F011FE78684FF0010100F0C8FC83
S32D000124784FF00100FEF760FD78684FF0E60100F0BFFC78684FF0010100F0FEFD78684FF0A00100F0F9FD786860
S32D000124A04FF0FF0100F0F4FD78684FF0B00100F0ABFC78684FF01C0100F0EAFD78684FF00F0100F0E5FD786892
S32D000124C84FF0010100F0E0FD78684FF03F0100F0DBFD78684FF0000100F0D6FD78684FF0EF0100F0D1FD786820
S32D000124F04FF0000100F0CCFD78684FF0B40100F083FC78684FF0010100F0C2FD78684FF0990100F0BDFD78686E
S32D000125184FF0000100F0B8FD78684FF0450100F0B3FD78684FF0020100F0AEFD78684FF0000100F0A9FD786857
S32D000125404FF0000100F0A4FD78684FF0000100F09FFD78684FF0B60100F056FC78684FF0010100F095FD786854
S32D000125684FF0090100F090FD78684FF0000100F08BFD78684FF00E0100F086FD78684FF0020100F081FD7868D5
S32D000125904FF0000100F07CFD78684FF0000100F077FD78684FF0BA0100F02EFC78684FF00F0100F06DFD4FF033
S32D000125B86400FEF7C1FC78684FF03A0100F020FC78684FF0600100F05FFD78684FF02A0100F016FC78684FF041
S32D000125E0000100F055FD78684FF0000100F050FD78684FF0010100F04BFD78684FF03F0100F046FD78684FF022
S32D000126082B0100F0FDFB78684FF0000100F03CFD78684FF0000100F037FD78684FF0000100F032FD78684FF0A4
S32D00012630EF0100F02DFD78684FF0360100F0E4FB78684FF0000100F023FD78684FF0F00100F0DAFB78684FF028
S32D00012658040100F019FD78684FF0B80100F0D0FB78684FF00F0100F00FFD78684FF0010100F00AFD4FF24003EE
S32D00012680C4F20F034FF24002C4F20F02126842F008021A604FF06400FEF752FC78684FF0360100F0B1FB786831
S32D000126A84FF0000100F0F0FC78684FF0F00100F0A7FB78684FF0040100F0E6FC43F2CC60C1F6FF704FF0010187
S32D000126D000F0AAF943F2CC60C1F6FF704FF06F014FF01E0200F0A4F843F2CC60C1F6FF704FF0000100F0F6F981
S32D000126F843F2CC60C1F6FF7047F6F401C0F201014FF05A024FF0AF0300F010FA78684FF0290100F075FB4FF0D8
S32D000127206400FEF70DFC78684FF0BE0100F06CFB78684FF00E0100F0ABFC78684FF0F00100F0A6FC78684FF06D
S32D00012748010100F0A1FC78684FF0000100F09CFC78684FF0000100F097FC78684FF00F0100F092FC43F2CC607A
S32D00012770C1F6FF704FF0010100F0B4F943F2CC60C1F6FF704FF0000100F084F907F10807BD4680BD80B582B054
S32D0001279800AF78607B684FF00002DA617B684FF001021A627B684FF00E025A607B684FF01A029A607B684FF045
S32D000127C000025A617B684FF000029A617B684FF4A072DA607B684FF0F0021A617B684FF000021A70786801F08E
S32D000127E879FA7B68184607F10807BD4680BD00BF80B582B000AF786043F20873C1F6FF731B7883F00103DBB2AA
S32D00012810002B09D043F20873C1F6FF734FF001021A707868FFF7D6FC07F10807BD4680BD80B58AB002AFF86089
S32D00012838B9607A604FF07E030093F868B9687A684FF0620300F0A6FE4FF00003FB614FF00003BB6155E04FF020
S32D0001286000037B6145E040F20043C1F6FF73FA699B181B78002B09D14FF0FF03FB744FF0FF03BB744FF0FF0398
S32D000128887B741BE040F20043C1F6FF73FA699B181B78012B09D14FF0D403FB744FF00003BB744FF026037B749D
S32D000128B008E04FF0B503FB744FF0BA03BB744FF0B0037B74F97CBA7C7B7CF86800F08AF80246FB68DA61F868E5
S32D000128D801F000FAF86801F09DF8FB6903F10103FB617B6903F101037B617B69612BCCBF00230123DBB2002B96
S32D00012900B1D1BB6903F10103BB61BB697D2BCCBF00230123DBB2002BA1D107F12007BD4680BD00BF80B485B09F
S32D0001292800AF78600B46FB70FB78062B2ED801A252F823F06129010059290100692901007129010079290100B4
S32D0001295081290100892901006FF07F43FB6019E04FF00003FB6015E04FF47F03FB6011E04FF47F43FB600DE095
S32D000129784FF0FF03FB6009E04FF41903FB6005E049F69913C0F29903FB6000BFFB68184607F11407BD4680BCA6
S32D000129A0704700BF80B584B000AF786039603B6803F47F034FEA1343FB733B6803F47F434FEA1323BB733B6854
S32D000129C87B73F97BBA7B7B7B786800F007F80346184607F11007BD4680BD00BF80B487B000AF7860F970BA704A
S32D000129F07B70FB784FEAA3037B61BB784FEAA3033B617B784FEAA303FB607B694FEA03323B694FEA83131A43A2
S32D00012A18FB681343184607F11C07BD4680BC704780B582B000AF78600B46FB70FB7878681946FFF773FF03465A
S32D00012A407868194600F004F807F10807BD4680BD80B582B000AF7860396078683968FFF7A1FF02467B681A62B0
S32D00012A68786801F037F9786800F038FC07F10807BD4680BD80B582B000AF7860786800F02DFC07F10807BD4602
S32D00012A9080BD00BF80B582B000AF78600B46FB70FB7878681946FFF73DFF03467868194600F004F807F1080712
S32D00012AB8BD4680BD80B582B000AF7860396078683968FFF76BFF02467B681A62786801F001F907F10807BD46CB
S32D00012AE080BD00BF80B582B000AF78600B46FB70FB7878681946FFF715FF03467868194600F004F807F10807EA
S32D00012B08BD4680BD80B582B000AF7860396078683968FFF743FF02467B68DA61786801F0D9F807F10807BD460C
S32D00012B3080BD00BF80B586B000AFF860B9607A603B604FF000037B6110E07B69BA68D3181B78F86879683A6805
