S01400002E2E2F53696D706C65436F64652E73313970
S32D0000C00000000020F11B01004D1F01004D1F01004D1F01004D1F01004D1F0100000000000000000000000000C4
S32D0000C028000000004D1F01004D1F0100000000004D1F01004D1F01004D1F01004D1F01004D1F01004D1F010082
S32D0000C0504D1F01004D1F01004D1F01004D1F01004D1F01004D1F01004D1F01004D1F01004D1F01004D1F010080
S32D0000C0784D1F01004D1F01004D1F01004D1F01004D1F01004D1F01004D1F01004D1F01004D1F01004D1F010058
S32D0000C0A04D1F01004D1F01004D1F01004D1F01004D1F01004D1F01004D1F01004D1F01004D1F01004D1F010030
S32D0000C0C84D1F01004D1F01004D1F01004D1F01004D1F01004D1F01004D1F01004D1F01004D1F01004D1F010008
S32D0000C0F04D1F0100215C01004D1F01004D1F01004D1F01004D1F01004D1F01004D1F01004D1F01004D1F0100CF
S32D0000C1184D1F01004D1F01004D1F01004D1F01004D1F01004D1F01004D1F01004D1F01004D1F01004D1F0100B7
S32D0000C1404D1F01004D1F01004D1F01004D1F0100652F01004D1F01004D1F01004D1F01004D1F01004D1F010067
S32D0000C1684D1F01004D1F01004D1F01004D1F01004D1F01004D1F01004D1F01004D1F01004D1F01004D1F010067
S32D0000C1904D1F01004D1F01004D1F01004D1F01004D1F01004D1F01009D1F01004D1F01004D1F01004D1F0100EF
S32D0000C1B84D1F01004D1F01004D1F01004D1F01004D1F01004D1F01004D1F01004D1F01004D1F01004D1F010017
S32D0000C41081F0004102E000BF83F0004330B54FEA41044FEA430594EA050F08BF90EA020F1FBF54EA000C55EAC6
S32D0000C438020C7FEA645C7FEA655C00F0E2804FEA5454D4EB5555B8BF6D420CDD2C4480EA020281EA030382EA0F
S32D0000C460000083EA010180EA020281EA0303362D88BF30BD11F0004F4FEA01314FF4801C4CEA113102D0404263
S32D0000C48861EB410113F0004F4FEA03334CEA133302D0524263EB430394EA050F00F0A780A4F10104D5F1200E8A
S32D0000C4B00DDB02FA0EFC22FA05F2801841F1000103FA0EF2801843FA05F359410EE0A5F120050EF1200E012A2D
S32D0000C4D803FA0EFC28BF4CF0020C43FA05F3C01851EBE37101F0004507D54FF0000EDCF1000C7EEB00006EEB67
S32D0000C5000101B1F5801F1BD3B1F5001F0CD349085FEA30004FEA3C0C04F101044FEA445212F5800F80F09A8000
S32D0000C528BCF1004F08BF5FEA500C50F1000041EB045141EA050130BD5FEA4C0C404141EB010111F4801FA4F114
S32D0000C5500104E9D191F0000F04BF01460020B1FA81F308BF2033A3F10B03B3F120020CDA0C3208DD02F1140C87
S32D0000C578C2F10C0201FA0CF021FA02F10CE002F11402D8BFC2F1200C01FA02F120FA0CFCDCBF41EA0C019040B1
S32D0000C5A0E41AA2BF01EB0451294330BD6FEA04041F3C1CDA0C340EDC04F11404C4F1200220FA04F001FA02F3B6
S32D0000C5C840EA030021FA04F345EA030130BDC4F10C04C4F1200220FA02F001FA04F340EA0300294630BD21FAA8
S32D0000C5F004F0294630BD94F0000F83F4801306BF81F480110134013D4EE77FEA645C18BF7FEA655C29D094EA1C
S32D0000C618050F08BF90EA020F05D054EA000C04BF1946104630BD91EA030F1EBF0021002030BD5FEA545C05D1A3
S32D0000C6404000494128BF41F0004130BD14F580043CBF01F5801130BD01F0004545F0FE4141F470014FF0000031
S32D0000C66830BD7FEA645C1ABF194610467FEA655C1CBF0B46024650EA013406BF52EA033591EA030F41F40021D7
S32D0000C69030BD00BF90F0000F04BF0021704730B54FF4806404F132044FF000054FF0000150E700BF90F0000F66
S32D0000C6B804BF0021704730B54FF4806404F1320410F0004548BF40424FF000013EE700BF42004FEAE2014FEAF9
S32D0000C6E031014FEA02701FBF12F07F4393F07F4F81F06051704792F0000F14BF93F07F4F704730B54FF460741B
S32D0000C70801F0004521F0004120E700BF50EA010208BF704730B54FF000050AE050EA010208BF704730B511F046
S32D0000C730004502D5404261EB41014FF4806404F132045FEA915C3FF4DCAE4FF003025FEADC0C18BF03325FEAA0
S32D0000C758DC0C18BF033202EBDC02C2F1200300FA03FC20FA02F001FA03FE40EA0E0021FA02F11444C1E600BF19
S32D0000C78070B54FF0FF0C4CF4E06C1CEA11541DBF1CEA135594EA0C0F95EA0C0F00F0DEF82C4481EA030621EAF3
S32D0000C7A84C5123EA4C5350EA013518BF52EA033541F4801143F4801338D0A0FB02CE4FF00005E1FB02E506F05F
S32D0000C7D00042E0FB03E54FF00006E1FB03569CF0000F18BF4EF0010EA4F1FF04B6F5007F64F5407404D25FEA0F
S32D0000C7F84E0E6D4146EB060642EAC62141EA55514FEAC52040EA5E504FEACE2EB4F1FD0C88BFBCF5E06F1ED8D2
S32D0000C820BEF1004F08BF5FEA500E50F1000041EB045170BD06F0004646EA010140EA020081EA0301B4EB5C0487
S32D0000C848C2BFD4EB0C0541EA045170BD41F480114FF0000E013C00F3AB8014F1360FDEBF002001F0004170BDF0
S32D0000C870C4F10004203C35DA0C341BDC04F11404C4F1200500FA05F320FA04F001FA05F240EA020001F0004207
S32D0000C89821F0004110EBD37021FA04F642EB06015EEA430E08BF20EAD37070BDC4F10C04C4F1200500FA04F32F
S32D0000C8C020FA05F001FA04F240EA020001F0004110EBD37041F100015EEA430E08BF20EAD37070BDC4F12005C7
S32D0000C8E800FA05F24EEA020E20FA04F301FA05F243EA020321FA04F001F0004121FA04F220EA020000EBD37028
S32D0000C9105EEA430E08BF20EAD37070BD94F0000F0FD101F00046400041EB010111F4801F08BF013CF7D041EA6D
S32D0000C938060195F0000F18BF704703F00046520043EB030313F4801F08BF013DF7D043EA0603704794EA0C0FF1
S32D0000C9600CEA135518BF95EA0C0F0CD050EA410618BF52EA4306D1D181EA030101F000414FF0000070BD50EA38
S32D0000C988410606BF1046194652EA430619D094EA0C0F02D150EA013613D195EA0C0F05D152EA03361CBF10467B
S32D0000C9B019460AD181EA030101F0004141F0FE4141F470014FF0000070BD41F0FE4141F4780170BD70B54FF04D
S32D0000C9D8FF0C4CF4E06C1CEA11541DBF1CEA135594EA0C0F95EA0C0F00F0A7F8A4EB050481EA030E52EA03359B
S32D0000CA004FEA013100F088804FEA03334FF0805545EA131343EA12634FEA022245EA111545EA10654FEA002676
S32D0000CA280EF000419D4208BF964244F1FD0404F5407402D25B084FEA3202B61A65EB03055B084FEA32024FF461
S32D0000CA5080104FF4002CB6EB020E75EB030E22BFB61A754640EA0C005B084FEA3202B6EB020E75EB030E22BF22
S32D0000CA78B61A754640EA5C005B084FEA3202B6EB020E75EB030E22BFB61A754640EA9C005B084FEA3202B6EBEA
S32D0000CAA0020E75EB030E22BFB61A754640EADC0055EA060E18D04FEA051545EA16754FEA06164FEAC30343EAAC
S32D0000CAC852734FEAC2025FEA1C1CC0D111F4801F0BD141EA00014FF000004FF0004CB6E711F4801F04BF0143AE
S32D0000CAF00020B4F1FD0C88BFBCF5E06F3FF6AFAEB5EB030C04BFB6EB020C5FEA500C50F1000041EB045170BDBC
S32D0000CB180EF0004E4EEA113114EB5C04C2BFD4EB0C0541EA045170BD41F480114FF0000E013C90E645EA060EC3
S32D0000CB408DE60CEA135594EA0C0F08BF95EA0C0F3FF43BAF94EA0C0F0AD150EA01347FF434AF95EA0C0F7FF499
S32D0000CB6825AF104619462CE795EA0C0F06D152EA03353FF4FDAE1046194622E750EA410618BF52EA43067FF432
S32D0000CB90C5AE50EA41047FF40DAF52EA43057FF4EBAE12E74FF0FF3C06E000BF4FF0010C02E000BF4FF0010C75
S32D0000CBB84DF804CD4FEA410C7FEA6C5C4FEA430C18BF7FEA6C5C1BD001B050EA410C0CBF52EA430C91EA030FEC
S32D0000CBE002BF90EA020F0020704710F1000F91EA030F58BF994208BF90422CBFD8176FEAE37040F0010070476E
S32D0000CC084FEA410C7FEA6C5C02D150EA013C07D14FEA430C7FEA6C5CD6D152EA033CD3D05DF8040B704700BFCD
S32D0000CC308446104662468C461946634600E000BF01B5FFF7B7FF002848BF10F1000F01BD4DF808EDFFF7F4FF13
S32D0000CC580CBF012000205DF808FB00BF4DF808EDFFF7EAFF34BF012000205DF808FB00BF4DF808EDFFF7E0FF18
S32D0000CC8094BF012000205DF808FB00BF4DF808EDFFF7CEFF94BF012000205DF808FB00BF4DF808EDFFF7C4FF40
S32D0000CCA834BF012000205DF808FB00BF4FEA410212F5001215D211D56FF47873B3EB625212D94FEAC12343F0D6
S32D0000CCD0004343EA505311F0004F23FA02F018BF404270474FF00000704750EA013005D111F0004008BF6FF016
S32D0000CCF8004070474FF00000704700BF4A0011D212F5001211D20DD56FF47873B3EB62520ED44FEAC12343F085
S32D0000CD20004343EA505323FA02F070474FF00000704750EA013002D14FF0FF3070474FF0000070474FEA410241
S32D0000CD48B2F1E04324BFB3F5001CDCF1FE5C0DD901F0004C4FEAC0024CEA5070B2F1004F40EB830008BF20F09E
S32D0000CD700100704711F0804F21D113F13872BCBF01F00040704741F480114FEA5252C2F11802C2F1200C10FAB1
S32D0000CD980CF320FA02F018BF40F001004FEAC1234FEAD32303FA0CFC40EA0C0023FA02F34FEA4303CCE77FEA26
S32D0000CDC0625307D150EA01331EBF4FF0FE4040F44000704701F0004040F0FE4040F40000704700BF80F00040CC
S32D0000CDE802E000BF81F0004142001FBF5FEA410392EA030F7FEA226C7FEA236C6AD04FEA1262D2EB1363C1BF06
S32D0000CE10D218414048404140B8BF5B42192B88BF704710F0004F40F4000020F07F4018BF404211F0004F41F4FA
S32D0000CE38000121F07F4118BF494292EA030F3FD0A2F1010241FA03FC10EB0C00C3F1200301FA03F100F000432B
S32D0000CE6002D5494260EB4000B0F5000F13D3B0F1807F06D340084FEA310102F10102FE2A51D2B1F1004F40EB94
S32D0000CE88C25008BF20F0010040EA03007047490040EB000010F4000FA2F10102EDD1B0FA80FCACF1080CB2EB5F
S32D0000CEB00C0200FA0CF0AABF00EBC25052421843BCBFD0401843704792F0000F81F4000106BF80F400000132EB
S32D0000CED8013BB5E74FEA41037FEA226C18BF7FEA236C21D092EA030F04D092F0000F08BF0846704790EA010FD7
S32D0000CF001CBF0020704712F07F4F04D1400028BF40F00040704712F100723CBF00F50000704700F0004343F0DC
S32D0000CF28FE4040F4000070477FEA226216BF08467FEA23630146420206BF5FEA412390EA010F40F480007047C1
S32D0000CF504FF0000304E000BF10F0004348BF40425FEA000C08BF704743F0964301464FF000001CE050EA010264
S32D0000CF7808BF70474FF000030AE000BF50EA010208BF704711F0004302D5404261EB41015FEA010C02BF84465B
S32D0000CFA00146002043F0B64308BFA3F18053A3F50003BCFA8CF2083AA3EBC25310DB01FA02FC634400FA02FC6B
S32D0000CFC8C2F12002BCF1004F20FA02F243EB020008BF20F00100704702F1200201FA02FCC2F1200250EA4C0034
S32D0000CFF021FA02F243EB020008BF20EADC7070474FF0FF0C1CEAD0521EBF1CEAD15392EA0C0F93EA0C0F6FD019
S32D0000D0181A4480EA010C400218BF5FEA41211ED04FF0006343EA501043EA5111A0FB01310CF00040B1F5000FE7
S32D0000D0403EBF490041EAD3715B0040EA010062F17F02FD2A1DD8B3F1004F40EBC25008BF20F00100704790F058
S32D0000D068000F0CF0004C08BF49024CEA502040EA51207F3AC2BFD2F1FF0340EAC250704740F400004FF0000388
S32D0000D090013A5DDC12F1190FDCBF00F000407047C2F10002410021FA02F1C2F1200200FA02FC5FEA310040F1D5
S32D0000D0B8000053EA4C0308BF20EADC70704792F0000F00F0004C02BF400010F4000F013AF9D040EA0C0093F04C
S32D0000D0E0000F01F0004C02BF490011F4000F013BF9D041EA0C018FE70CEAD15392EA0C0F18BF93EA0C0F0AD00B
S32D0000D10830F0004C18BF31F0004CD8D180EA010000F00040704790F0000F17BF90F0004F084691F0000F91F0BB
S32D0000D130004F14D092EA0C0F01D142020FD193EA0C0F03D14B0218BF084608D180EA010000F0004040F0FE4051
S32D0000D15840F40000704740F0FE4040F4400070474FF0FF0C1CEAD0521EBF1CEAD15392EA0C0F93EA0C0F69D044
S32D0000D180A2EB030280EA010C49024FEA402037D04FF0805343EA111143EA10130CF000408B4238BF5B0042F14E
S32D0000D1A87D024FF4000C8B4224BF5B1A40EA0C00B3EB510F24BFA3EB510340EA5C00B3EB910F24BFA3EB9103A4
S32D0000D1D040EA9C00B3EBD10F24BFA3EBD10340EADC001B0118BF5FEA1C1CE0D1FD2A3FF650AF8B4240EBC25018
S32D0000D1F808BF20F0010070470CF0004C4CEA50207F32C2BFD2F1FF0340EAC250704740F400004FF00003013AF1
S32D0000D22037E792F0000F00F0004C02BF400010F4000F013AF9D040EA0C0093F0000F01F0004C02BF490011F4C9
S32D0000D248000F013BF9D041EA0C0195E70CEAD15392EA0C0F08D142027FF47DAF93EA0C0F7FF470AF084676E7AE
S32D0000D27093EA0C0F04D14B023FF44CAF08466EE730F0004C18BF31F0004CCAD130F000427FF45CAF31F0004376
S32D0000D2987FF43CAF5FE700BF4FF0FF3C06E000BF4FF0010C02E000BF4FF0010C4DF804CD4FEA40024FEA41039F
S32D0000D2C07FEA226C18BF7FEA236C11D001B052EA530C18BF90EA010F58BFB2EB030088BFC81738BF6FEAE1706E
S32D0000D2E818BF40F0010070477FEA226C02D15FEA402C05D17FEA236CE4D15FEA412CE1D05DF8040B704700BF16
S32D0000D310844608466146FFE70FB5FFF7C9FF002848BF10F1000F0FBD4DF808EDFFF7F4FF0CBF012000205DF839
S32D0000D33808FB00BF4DF808EDFFF7EAFF34BF012000205DF808FB00BF4DF808EDFFF7E0FF94BF012000205DF8A9
S32D0000D36008FB00BF4DF808EDFFF7D2FF94BF012000205DF808FB00BF4DF808EDFFF7C8FF34BF012000205DF8B1
S32D0000D38808FB00BF4FEA4002B2F1FE4F0FD34FF09E03B3EB12620DD94FEA002343F0004310F0004F23FA02F060
S32D0000D3B018BF404270474FF00000704712F1610F01D1420205D110F0004008BF6FF0004070474FF00000704797
S32D0000D3D842000ED2B2F1FE4F0BD34FF09E03B3EB126209D44FEA002343F0004323FA02F070474FF000007047DA
S32D0000D40012F1610F01D1420202D14FF0FF3070474FF00000704700BF036803B11B181846704700BF03685A00DD
S32D0000D4284CBF43F0004323F00043C018704700BF2DE9F84F0446914641B301F1FF3BDA46002707EB0A0101EBE3
S32D0000D450D1756D1004EBC5063046FFF7E3FF8046681CAB4504EBC0000DD0FFF7DBFF0138C84504D9BD4209D052
S32D0000D47805F1FF3AE5E7484505D26F1CE1E74FF0FF30F1E700263046BDE8F88F0E463046BDE8F88F30B52B4B75
S32D0000D4A083B004468D1E002B49D0284601A9AFF300800346002822D02A4618460199FFF7BBFF054600281DD0DD
S32D0000D4C8FFF7ACFF6B68A064012B10D0281D002B22DBFFF7A3FF0021E06421650368002B0FDBFFF79BFF206131
S32D0000D4F0002003B030BD002323610520F9E720610920F6E720610920F3E7C3F3036058B101280CD002280ED068
S32D0000D518002020610920E8E70122E0642265DDE7094B2361E1E7094A00202261DDE7084900202161D9E7074B3B
S32D0000D5400749C81AC2100192B6E700BF0000000069DA000065DA000061DA0000009A0100F89B0100036810B5AE
S32D0000D5680446D80706D4990704F1480009D500F00DFD23685A0709D518070ED5D90613D510BD00F0FBFC23680B
S32D0000D5905A07F5D404F1D00000F004FD23681807F0D404F5D87000F005FD2368D906EBD404F50C70BDE8104059
S32D0000D5B800F040BD2DE9F0470F1D054691460FCFADF5916D02AC261D0FC60FCF0FC60FCF0FC697E80F00D5F8B8
S32D0000D5E00C80D5F818A0002786E80F00216C27602846FFF753FF0646B94514BF4FF00A094FF00909FEB1A16B23
S32D0000D60849F01009616401208DE8100449462A462B46C04700282BD1002E2AD1204692A94FF4107209F098FA7E
S32D0000D630082F28D1216C2846FFF730FF06464FF00909002EDFD1206C21464FF41072686192A809F085FA2F6936
S32D0000D658294692AA4846B847A09B0746636401208DE8100449462A462B46C0470028D3D00926304622B00DF5B8
S32D0000D680806DBDE8F087072FF6D1201D00F06EFC38B504460D46296C2046FFF7FFFE50B92A6C23696261012058
S32D0000D6A821462A4698470828F1D0072801D00BF08BFB281D00F056FC11B933B10220704704298CBF0220012063
S32D0000D6D070470F2A01D90220704700EB820118464A68009B1A60704710B50A4684B000210B4603AC0094FFF74B
S32D0000D6F8E3FF039804B010BD11B933B10220704704298CBF0220012070470F2A01D902207047009900EB820219
S32D0000D720096818465160704710B584B004AB0C4643F8042D0021009322460B46FFF7E0FF04B010BD2DE9F04F26
S32D0000D748CD6C8BB00C4655F8041B174600F008021E46039200F003080795002B40F0CF8009020691216D8DF83B
S32D0000D77021300323B8F1020F8DF8203008BFA56B11F0010340F0D380019304F158030293D5F80090B9F1000F97
S32D0000D79800F0CB80022E00F0AE80B5F80090B5F802A00435A26C0F212AF0010B38469344FFF796FF834518D819
S32D0000D7C029F0010CE3440AF0010A09F00103584543EA4A092CBF00200120B9F1010F12D032D2B8F1000F02D079
S32D0000D7E8002840F01D810435CEE70AF0010A09F0010343EA4A090020B9F1010FECD1B8F1000F40F0B680C8B17F
S32D0000D8106B68D5F800909A1C19D0029A013309920DD0281DFFF7F8FD4FEAD972014609AB20460AF037FB00286A
S32D0000D83800F0F280099A002A40F0BA800835A3E7B9F1020F03D009200BB0BDE8F08F2B6823F000420092B8F1A9
S32D0000D860000F71D1002843D00398002840F0A1800098002800F0A080009BDDF80C90DB0705F1040A40F1B480D3
S32D0000D888CDF810800596A846029E12E000998D4200F0D9800996FFF7BBFD5A46014609AB20460AF0FBFAA94625
S32D0000D8B0B0B90AF1040A05F1010950460996FFF7ABFD09AB0146002220460AF0EBFA0AF1040A834609F10105D1
S32D0000D8D85046BBF1000FD9D04546059EDDF81080009A4A4564D02B68002B7BDB0099481C05EB800548E7D5F8B6
S32D0000D90004A0083552E70B04C1F30740216D06930222B8F1020F05EB800508BFA56B8DF8210011F001038DF854
S32D0000D92820203FF42DAF00200190384606A900F019FC002887D1019A002A43D1082083E70D213846D4F820908C
S32D0000D950FFF7CAFE8145CAD1A26A9542C7D10098291D00220423A062E26223636163286800286EDB01220192A1
S32D0000D978BCE70D213846D4F82090FFF7B1FE81457FF45CAFA16A8D427FF458AF2846FFF745FD0F2102463846DD
S32D0000D9A0FFF7C2FE384600212246FFF7BDFE07204EE7009900299BD138460D21FFF794FE099B20626362A5623B
S32D0000D9C8062041E70F213846FFF78AFE0E2102463846FFF7A5FE38460F211E4AFFF7A0FE072031E7043581E79F
S32D0000D9F0029950460991FFF70FFD039A014609AB20460AF04FFA00287FF46EAFCDF8108005960AF1040A4FF00B
S32D0000DA180109A846029E4CE7CDF824800835B3E62846FFF7FBFC04350646A56320460AF0ABFA00283FF407AFD8
S32D0000DA4038460F213246FFF76FFE072000E74546B2E7009B591C05EB81009CE7F980010002236FE601236DE68E
S32D0000DA6800236BE62DE9F0470446E8B004290CD8DFE801F0380391930F00150C012B96B200F07881052B00F018
S32D0000DA90C780022068B0BDE8F087002BF9D1102AF7D82368D90600F1738164A8019200F0CFFA019AA36BD007A6
S32D0000DAB844BF53F8040B6490910744BF53F8041B6591500744BF53F8041B6691110748BF53F8042B64A8A3638E
S32D0000DAE048BF679200F0AAFA0020D3E7002BD0D1A36BD00791B244BF53F8042B62608A0744BF53F8042BA26067
S32D0000DB08480744BF53F8042BE2600A0744BF53F8042B2261C80644BF53F8042B62618A0644BF53F8042BA261B2
S32D0000DB30480644BF53F8042BE2610A0644BF53F8042B2262C80544BF53F8042B62628A0544BF53F8042BA2628A
S32D0000DB58480544BF53F8042BE2620A0544BF53F8042B2263C80444BF53F8042B626311F400501CBF53F8042BC8
S32D0000DB80A2634A0444BF53F8042BE2630A0444BF53F8042B2264002840D1A3637AE7012078E7032B7FF475AF6C
S32D0000DBA8160C95B2AA19102A3FF66FAF2368180700F10B8144A800F01BFAA76B4FEA450E3B460DB344A90EF1B3
S32D0000DBD0FF3C01EBC60653F8040B62460CF0010146F8040B92B129B153F8041B013A46F8041B0BD01846314618
S32D0000DBF850F8045B41F8045B5D68031D75600E1D023AF3D107EB8E0344A8A36300F0CEF900203BE7002039E72D
S32D0000DC2077192022BA42FFF434AF012B00F0A9800F2D40F2A9803746F6B1052B7FF429AF0F2D11D82268D00731
S32D0000DC480ED522F00101052B2160204600F0DA8022F0030240F8482B019300F093F9019B1FB12268510700F145
S32D0000DC70B880012B00F0BF800F2D75D9002F40F0A080D4F83890002EC8462EDD49460DF1080A4FEA46080AEBF4
S32D0000DC98C50251F8046B08F1FF3000F0010A42F8046BA8F1020CD0B1BAF1000F08D051F8040B0CF1FF3CBCF11C
S32D0000DCC0FF3F42F8040B0ED00E46104656F804AB40F804AB4968ACF1020C5160311D021DBCF1FF3FF0D109EB29
S32D0000DCE88808A7B3102D2CBF2E4610260DF5D079414609EBC60CACF5C8724FEA470951F8046B09F1FF3000F085
S32D0000DD10010A42F8046BA9F1020CD0B1BAF1000F08D051F8040B0CF1FF3CBCF1FF3F42F8040B0ED00E4610462A
S32D0000DD3856F804AB40F804AB4968ACF1020C5160311D021DBCF1FF3FF0D108EB8908012B2BD00F2DC4F8388058
S32D0000DD6008D9FFB9384695E602A8019300F016F9019B83E702A800F00DF9F2E77719102250E70F2D3FF685AEAA
S32D0000DD88102F10D9103F54E723F01003236004F50C70019200F058F9019A82E624A800F0FDF8002072E6002776
S32D0000DDB046E708F1040302A8A36300F0E3F8002068E624A80193C5F1100600F0EFF8019B57E723F0080704F537
S32D0000DDD8D870276000F00CF9ECE6204622F0040140F8D01B019300F0DDF8019B3DE702A8019300F0C7F8019B45
S32D0000DE00002F3FF43EAFC5F110063AE741F0020140F8481B019300F0C1F8019B24E700BF406C7047F0B50D46EB
S32D0000DE280F1DC96B296404460FCFADF5117D01AE0FC60FCF0FC60FCF0FC697E80F0086E80F004FF0FF3300938E
S32D0000DE5010992046FFF722FB58B9266921466A46B04708280646F3D06846FFF77BFB062E03D009200DF5117DBB
S32D0000DE78F0BD20462946FFF707FC00BF10B4DC6BC1608261194600221C6410BCFFF792BB38B54269C3680A64F2
S32D0000DEA004460D4623B10122FFF788FB0AF090FF0369214602202A469847072803D0082804D00AF085FF281DB1
S32D0000DEC800F050F820462946FFF7DEFBC36823B1CA6B0A640022FFF76DBB9FE7704700BF08B5836801460BB1C7
S32D0000DEF00120984708BD00BFF0B5D46B171D146405460C460FCFADF5277D01AE0FC60FCF0FC60FCF0FC697E8C6
S32D0000DF180F0086E80F004FF0FF330093109990A8FFF7B8FA034690AA68460C21BBB9FFF7F7FB21466846A84704
S32D0000DF40064690A908206A466EB9949B98470528064601D00928E5D16846FFF703FB30460DF5277DF0BD092656
S32D0000DF68F6E700BF00F1340191E838009C46A6464CF8045D90E8FF0FE54600BD90EC210B704700BF80EC210B81
S32D0000DF90704700BF90EC200B704700BF80EC200B704700BFD0EC200B704700BFC0EC200B704700BFF0EC02013A
S32D0000DFB8F0EC0211F0EC0221F0EC0231F0EC0241F0EC0251F0EC0261F0EC0271F0EC0281F0EC0291F0EC02A115
S32D0000DFE0F0EC02B1F0EC02C1F0EC02D1F0EC02E1F0EC02F1704700BFE0EC0201E0EC0211E0EC0221E0EC023196
S32D0000E008E0EC0241E0EC0251E0EC0261E0EC0271E0EC0281E0EC0291E0EC02A1E0EC02B1E0EC02C1E0EC02D184
S32D0000E030E0EC02E1E0EC02F1704700BFB0FC0181B0FC0191B0FC01A1B0FC01B1704700BFA0FC0181A0FC019104
S32D0000E058A0FC01A1A0FC01B1704700BFEC4600B52DE900502DE9FF1F4FF000032DE90C0001A9FFF7D3FEDDF86D
S32D0000E08040E012B0704700BFEC4600B52DE900502DE9FF1F4FF000032DE90C0001A9FFF7FBFEDDF840E012B0E5
S32D0000E0A8704700BFEC4600B52DE900502DE9FF1F4FF000032DE90C0001A9FFF707FFDDF840E012B0704700BF1C
S32D0000E0D0EC4600B52DE900502DE9FF1F4FF000032DE90C0001ABFFF7CDFEDDF840E012B0704700BFEC4600B5BC
S32D0000E0F82DE900502DE9FF1F4FF000032DE90C0001AAFFF7F5FEDDF840E012B0704700BF027A03461AB9427AE7
S32D0000E12042B9B02070470068013A01021A72000E196070474168501E587251F8040B0322596001021A72000E2B
S32D0000E1481960704710B5002184B00C220DEB02040B460094FFF7B0FA039804B010BD00BFF0E700BF2DE9F043F4
S32D0000E170064685B00D464FF000094FF47F672846FFF7CAFFB028044600F0B08010F0800120D000F0F003802BCE
S32D0000E19874D0902B37D0A02B45D0B02B56D0C02B00F0858000F0F800D0280BD104F00702511C41F4002230469F
S32D0000E1C001210523FFF752FC0028D8D0092005B0BDE8F0834FEA800203A85FFA82F800900D220B463046FFF728
S32D0000E1E86BFA039B600608F104084CBFC8EB0303434403AC03930094002130460D220B46FFF77AFAB7E700F068
S32D0000E2100F020D2ADAD00F2AD8D0002103AC009430460B4603ACFFF74BFA0094E8E7C24302F0070C47FA0CF04E
S32D0000E238210700F47F6248BF42F48042002130460B46FFF70FFC0028BCD194E7B1285DD0B2286ED0B32800F0BA
S32D0000E260958000F0FC02B42A46D000F00702531C43F40022012130460B46FFF7F7FB0028A4D17CE72846FFF7A3
S32D0000E28847FF210240EA0104B4F5004F9AD0230500211A0C30460B462401FFF7E3FB002890D114F4004F18BF88
S32D0000E2B04FF0010963E7C62873D0C72800F0848000F0F802C02A00F09280C82800F0A680C9287FF47BAF2846C1
S32D0000E2D8FFF71EFF00F00F0300F0F0015A1C42EA013268E7B9F1000F00F0838000206AE700F00301481C022166
S32D0000E30040F480220B463046FFF7B0FB00287FF45DAF34E72846FFF7FFFE024600283FF455AF10F0F0017FF483
S32D0000E32851AF30460B46FFF79DFB00287FF44AAF21E700210D220B4603AC30460094FFF7BBF92846FFF7E4FE8C
S32D0000E350022402060DD5039B00F07F0000FA04FE03EB0E0128460391FFF7D6FE07340306F1D4039B00F07F01A6
S32D0000E37803AA03F5017C01FA04F400920CEB0402039239E72846FFF7C3FE00F00F03591C00F0F00041EA003245
S32D0000E3A068E72846FFF7B8FE00F00F03591C00F0F00041EA0032032130460B46FFF756FB00287FF403AFDAE6F3
S32D0000E3C82846FFF7A5FE024600283FF4FBAE10F0F0037FF4F7AE30460421FFF743FB00287FF4F0AEC7E600F024
S32D0000E3F00F01481C40F42022DDE703AC49460E224B4630460094FFF75BF9304649460F224B460094FFF774F940
S32D0000E4184846D8E62846FFF77BFE00F0F00200F00F001032431C43EA0232C4E610B5C26C84B0032054688DF895
S32D0000E4400C00D37924020832084601A9019402928DF80D30FFF78AFE04B010BD08B5FFF783FE806C08BD00BF70
S32D0000E46808B5FFF77DFEC16CC87901EB800303F1080008BD08B50AF0A7FC00BF08B50AF0A3FC00BF2DE9F04F37
S32D0000E4908DB00AAF4FF0030009F0F4FB044620464FF0030104F01EFF43F22863C1F6FF731C604FF0010009F09C
S32D0000E4B8E5FB044620464FF0000104F05BFB43F22C63C1F6FF731C604FF0010009F0D6FB044620464FF00101B8
S32D0000E4E004F078F943F23863C1F6FF731C604FF0010009F0C7FB044620464FF0020104F069F943F23463C1F66E
S32D0000E508FF731C604FF0010009F0B8FB044620464FF0030104F05AF943F24463C1F6FF731C604FF0010009F017
S32D0000E530A9FB044620464FF0040104F01FFB43F23063C1F6FF731C604FF01C0009F09AFB044620464FF00801C9
S32D0000E55804F060FD43F25863C1F6FF731C604FF01C0009F08BFB044620464FF0090104F051FD43F25C63C1F6EF
S32D0000E580FF731C604FF0010009F07CFB044620464FF0100104F01EF943F24063C1F6FF731C604FF0010009F00E
S32D0000E5A86DFB044620464FF0110104F00FF943F23C63C1F6FF731C604FF0020009F05EFB044620464FF00001E4
S32D0000E5D003F012FD43F24863C1F6FF731C604FF0020009F04FFB044620464FF0010103F003FD43F24C63C1F693
S32D0000E5F8FF731C604FF00C0009F040FB044620464FF0000105F034F843F25063C1F6FF731C604FF00C0009F0A6
S32D0000E62031FB044620464FF0010105F025F843F25463C1F6FF731C6043F25063C1F6FF731B6818464FF4FA716C
S32D0000E64805F034F843F25063C1F6FF731B68184640F67F1105F048F843F25463C1F6FF731B6818464FF4FA71F2
S32D0000E67005F020F843F25463C1F6FF731B68184640F6C41105F034F843F26863C1F6FF7343F2D062C1F6FF7295
S32D0000E6981A6043F26863C1F6FF731B6818464FF0000105F041FD43F26863C1F6FF731B6818464FF0010105F01D
S32D0000E6C095FD43F27463C1F6FF7343F26C62C1F6FF721A604FF0080009F0D4FA04462046DFF84C1402F016F9CA
S32D0000E6E843F27863C1F6FF731C604FF0080009F0C5FA04462046DFF8301402F007F943F27C63C1F6FF731C60DA
S32D0000E7104FF0640009F0B6FA044643F27863C1F6FF73196843F22863C1F6FF731A6843F26863C1F6FF731D6872
S32D0000E73843F27463C1F6FF731B687B6043F25863C1F6FF73D3F800B043F25C63C1F6FF73D3F800A043F2346338
S32D0000E760C1F6FF73D3F8009043F23863C1F6FF73D3F8008043F23C63C1F6FF73D3F800C043F24063C1F6FF733A
S32D0000E788D3F800E043F24463C1F6FF731E6843F23063C1F6FF73186843F22C63C1F6FF731B683B607B6800933B
S32D0000E7B0CDF804B0CDF808A0CDF80C90CDF81080CDF814C0CDF818E0079608903B68099320462B4601F0F4FD1C
S32D0000E7D843F26063C1F6FF731C604FF0180009F04DFA044643F24863C1F6FF73196843F24C63C1F6FF731A687C
S32D0000E80043F26063C1F6FF731B68204602F002F943F26463C1F6FF731C6043F28463C1F6FF734FF008021A604A
S32D0000E82843F28463C1F6FF731B684FEA8303184609F058FA024643F28C63C1F6FF731A6043F28C63C1F6FF7336
S32D0000E8501B6803F1040248F69073C0F20103136043F28C63C1F6FF731A6848F69873C0F20103136043F28C634E
S32D0000E878C1F6FF731B6803F1080248F6A073C0F20103136043F28C63C1F6FF731B6803F10C0248F6AC73C0F26D
S32D0000E8A00103136043F28C63C1F6FF731B6803F1100248F6B073C0F20103136043F28C63C1F6FF731B6803F1AF
S32D0000E8C8140248F6B873C0F20103136043F28C63C1F6FF731B6803F1180248F6C873C0F20103136043F28C63D6
S32D0000E8F0C1F6FF731B6803F11C0248F6D873C0F20103136043F28063C1F6FF734FF000021A6043F28863C1F6B7
S32D0000E918FF734FF001021A7043F26063C1F6FF731B68184601F0BEFD43F26063C1F6FF731B6818464FF00101A2
S32D0000E94001F008FE0346002B12D043F28C63C1F6FF731A6843F28063C1F6FF731B684FEA8303D3181B6818463E
S32D0000E96800F0E6F800BFD7E743F26063C1F6FF731B6818464FF0000101F0E8FD0346002B22D043F28063C1F6E9
S32D0000E990FF731B6803F1FF3243F28063C1F6FF731A6043F28063C1F6FF731B68002B0FDA43F28063C1F6FF736B
S32D0000E9B81A6843F28463C1F6FF731B68D21843F28063C1F6FF731A6043F26063C1F6FF731B6818464FF00201FE
S32D0000E9E001F0B8FD0346002B29D043F28063C1F6FF731B6803F1010243F28063C1F6FF731A6043F28463C1F6AD
S32D0000EA08FF731B6803F1FF3243F28063C1F6FF731B689A420FDA43F28063C1F6FF731A6843F28463C1F6FF7335
S32D0000EA301B68D21A43F28063C1F6FF731A6043F27863C1F6FF731B68184601F0BFFF0346002B69D043F2686318
S32D0000EA58C1F6FF731B6818464FF0000105F064FB43F26863C1F6FF731B68184648F6E471C0F2010105F00AFCA6
S32D0000EA8043F26863C1F6FF731A6843F28C63C1F6FF73196843F28063C1F6FF731B684FEA8303CB181B681046B0
S32D0000EAA8194605F0DDFC43F26863C1F6FF731B68184648F6F071C0F2010105F0D1FC43F26863C1F6FF731B6848
S32D0000EAD0184649F20801C0F2010105F0C5FC43F26863C1F6FF731B68184649F22001C0F2010105F0CFFB43F2FE
S32D0000EAF86863C1F6FF731A6843F28863C1F6FF731B78002B04D049F22C03C0F2010303E049F23403C0F2010374
S32D0000EB201046194605F0A0FC024803F0A7FDF7E6000000000AD7233C80B582B000AF786043F28863C1F6FF734C
S32D0000EB481B78002B1ED07A6848F6D873C0F201039A4217D04FF000004FF07E5101F5E00103F0AEFD43F2746341
S32D0000EB70C1F6FF731B68184607F050F943F27463C1F6FF731B68184607F002FE7A6848F6AC73C0F201039A424F
S32D0000EB9802D100F03FFF6EE07A6848F6A073C0F201039A4202D101F023F964E07A6848F6B073C0F201039A4242
S32D0000EBC002D101F067F95AE07A6848F69873C0F201039A4202D100F057F850E07A6848F69073C0F201039A4215
S32D0000EBE802D101F063FB46E07A6848F6B873C0F201039A4202D101F005FB3CE07A6848F6C873C0F201039A420D
S32D0000EC1002D100F041FE32E07A6848F6D873C0F201039A420DD143F28863C1F6FF731B7883F00103DAB243F2D3
S32D0000EC388863C1F6FF731A701DE043F26863C1F6FF731B6818464FF0060105F06DFA43F26863C1F6FF731B68BB
S32D0000EC60184649F24001C0F2010105F0FDFB4FF000004FF0804101F5101103F025FD07F10807BD4680BD00BF9A
S32D0000EC88F0B583B000AF43F26063C1F6FF731B68184601F0C9FC43F25063C1F6FF731B6818465F4904F040FD54
S32D0000ECB043F25463C1F6FF731B6818465B4904F037FD43F26063C1F6FF731C6843F27463C1F6FF731B681846B9
S32D0000ECD807F09CFD0346636143F26863C1F6FF731B68184649F25001C0F2010105F0CEFA43F26863C1F6FF7341
S32D0000ED001A6843F26063C1F6FF731B685B691046194605F0EDFA43F26463C1F6FF731B6818464FF05A014FF08B
S32D0000ED2800024FF0010302F00FF94FF000004FF07E5101F5C00103F0C3FC43F26463C1F6FF731B68184602F0D0
S32D0000ED5097F94FF000004FF07E5101F5C00103F0B3FC43F26463C1F6FF731B6818466FF063012F4A02F0C8FA69
S32D0000ED784FF000004FF07E5101F5C00103F0A0FC43F26463C1F6FF731B6818464FF000014FF001024FF0000310
S32D0000EDA002F0D6F84FF000004FF07E5101F5C00103F08AFC43F26463C1F6FF731B6818464FF064011B4A02F007
S32D0000EDC89FFA43F26463C1F6FF731B68184601F0D7FE4FF001037B600BE043F26463C1F6FF731B68184601F0B8
S32D0000EDF0CBFE7B6803F101037B6043F27463C1F6FF731B68184607F017FD024643F26063C1F6FF731B685B69A5
S32D0000EE189A420DDA7B68052B0ADC4FF0010309E0000070420000F0410000003F000040404FF00003002BD0D134
S32D0000EE4043F26463C1F6FF731B6818466FF06301F34A02F059FA4FF000004FF07E5101F5C00103F031FC43F200
S32D0000EE686463C1F6FF731B6818464FF05A014FF001024FF0000302F067F84FF000004FF07E5101F5C00103F045
S32D0000EE901BFC43F26463C1F6FF731B68184602F0EFF843F26063C1F6FF731B68184601F0ADFC43F26463C1F60F
S32D0000EEB8FF731B6818466FF06301D84A02F020FAD3A1D1E9000103F0FBFB43F26463C1F6FF731B6818464FF08B
S32D0000EEE000014FF001024FF0000302F031F8CAA1D1E9000103F0E8FB43F26463C1F6FF731B6818464FF06401BE
S32D0000EF08C74A02F0FDF943F25063C1F6FF731B681846C44904F008FC43F26463C1F6FF731B68184602F070FA89
S32D0000EF304FF000004FF07E5101F5C00103F0C4FB43F25063C1F6FF731B681846B84904F0EFFB43F26463C1F679
S32D0000EF58FF731B6818466FF06301B44A02F0D0F943F25063C1F6FF731B681846B04904F0DBFB4FF000004FF089
S32D0000EF807E5101F5E00103F09FFB43F25063C1F6FF731B681846A54904F0CAFB43F26463C1F6FF731B68184691
S32D0000EFA84FF000014FF03202A24B01F0CDFD43F26463C1F6FF731B68184602F025FA43F25063C1F6FF731B6835
S32D0000EFD01846974904F0ACFB4FF000004FF07E5101F5C00103F070FB43F26463C1F6FF731B6818464FF064012E
S32D0000EFF86FF06302904B01F0A7FD43F26463C1F6FF731B68184602F0B3FA43F25063C1F6FF731B681846864951
S32D0000F02004F086FB4FF000004FF07E5101F5E00103F04AFB43F26463C1F6FF731B68184602F04AFA43F25063CD
S32D0000F048C1F6FF731B6818467C4904F06DFB70A1D1E9000103F034FB43F26463C1F6FF731B6818466FF06301B8
S32D0000F0706C4A02F049F94FF000004FF07E5101F5F00103F021FB43F26463C1F6FF731B6818464FF064014FF05C
S32D0000F0980002694B01F058FD4FF000004FF07E5101F5C00103F00CFB43F26463C1F6FF731B6818466FF0630187
S32D0000F0C0584A02F021F94FF000004FF07E5101F5C00103F0F9FA43F26463C1F6FF731B68184602F071F843F2F4
S32D0000F0E86463C1F6FF731B6818464FF06401544A02F006F946A1D1E9000103F0E1FA43F26463C1F6FF731B68DE
S32D0000F11018464FF000014FF001024FF0000301F017FF3DA1D1E9000103F0CEFA3AA1D1E9000103F0C9FA43F2D3
S32D0000F1386463C1F6FF731B6818464FF05A014FF000024FF0010301F0FFFE31A1D1E9000103F0B6FA43F26463A0
S32D0000F160C1F6FF731B68184602F02EF843F26063C1F6FF731B68184601F0C0FA43F26463C1F6FF731B681846AC
S32D0000F1884FF064012F4A02F0BBF84FF000004FF07E5101F5E00103F093FA43F26063C1F6FF731B68184601F000
S32D0000F1B0B5FA43F26463C1F6FF731B6818464FF000014FF001024FF0000301F0C1FE4FF000004FF07E5101F5C5
S32D0000F1D8C00103F075FA43F26463C1F6FF731B68184601F0EDFF43F26463C1F6FF731B6818464FF06401144AFB
S32D0000F20002F082F84FF000004FF07E5101F5C00103F05AFA1EE000BF333333333333D33F000070410000004037
S32D0000F228000040400000F242000070420000C04000002C439A99993E0000003F00003442000000410000104192
S32D0000F2500000204143F26463C1F6FF731B6818464FF05A014FF000024FF0010301F070FE4FF000004FF07E515F
S32D0000F27801F5C00103F024FA43F26463C1F6FF731B68184601F09CFF43F26063C1F6FF731B6893F82430012B5F
S32D0000F2A01BD143F25463C1F6FF731B681846DFF8A01504F03DFA4FF000004FF07E5101F5E00103F001FA43F260
S32D0000F2C85463C1F6FF731B681846DFF8801504F02BFA43F25063C1F6FF731B681846DFF8701504F021FA43F240
S32D0000F2F06463C1F6FF731B6818464FF06401DFF85C2502F001F84FF000004FF07E5101F5E00103F0D9F943F21A
S32D0000F3186463C1F6FF731B6818466FF06301DFF8382501F0EDFF4FF000004FF07E5101F5E00103F0C5F943F218
S32D0000F3405063C1F6FF731B681846DFF8181504F0EFF94FF000004FF07E5101F5E00103F0B3F943F26463C1F68C
S32D0000F368FF731B6818464FF064014FF00002DFF8F03401F0E9FB43F26463C1F6FF731B68184601F01DFF43F227
S32D0000F3906463C1F6FF731B6818464FF06401DFF8CC2401F0B1FF4FF000004FF07E5101F5C00103F089F943F2C4
S32D0000F3B86463C1F6FF731B6818464FF000014FF000024FF0010301F0BFFD4FF000004FF07E5101F5C00103F0EE
S32D0000F3E073F943F26463C1F6FF731B68184601F047FE43F26463C1F6FF731B68184601F0E3FE43F26063C1F6D0
S32D0000F408FF731B6893F82430002B7CD143F26463C1F6FF731B6818464FF06401DFF8482401F06EFF4FF0000000
S32D0000F4304FF07E5101F5C00103F046F943F26463C1F6FF731B6818464FF05A014FF001024FF0000301F07CFD29
S32D0000F4584FF000004FF07E5101F5C00103F030F943F26463C1F6FF731B68184601F0A8FE43F25463C1F6FF73B4
S32D0000F4801B681846F24904F053F94FF000004FF07E5101F5E00103F017F943F25463C1F6FF731B681846EB49B1
S32D0000F4A804F042F943F26463C1F6FF731B6818464FF06401EB4A01F023FF4FF000004FF07E5101F5C00103F01E
S32D0000F4D0FBF843F26463C1F6FF731B6818464FF000014FF000024FF0010301F031FD4FF000004FF07E5101F5EF
S32D0000F4F8C00103F0E5F843F26463C1F6FF731B68184601F05DFE43F26463C1F6FF731B6818464FF06401D54A3A
S32D0000F52001F0F2FE4FF000004FF07E5101F5C00103F0CAF843F26463C1F6FF731B6818464FF05A014FF0010241
S32D0000F5484FF0000301F000FD4FF000004FF07E5101F5C00103F0B4F843F26463C1F6FF731B68184601F02CFEA1
S32D0000F57043F26463C1F6FF731B6818464FF06401BD4A01F0C1FE43F26063C1F6FF731B68DB6B184603F04EFA89
S32D0000F598034683F00103DBB2002B0ED143F26063C1F6FF731B681B6C184603F03FFA034683F00103DBB2002BC1
S32D0000F5C002D04FF0010301E04FF00003002B00F0B98043F26463C1F6FF731B68184601F04FFD00BF43F2646393
S32D0000F5E8C1F6FF731B6818466FF063016FF06302A04B01F0A9FA92A1D1E9000103F060F843F26463C1F6FF7387
S32D0000F6101B6818464FF064016FF06302974B01F097FA89A1D1E9000103F04EF843F26463C1F6FF731B681846FB
S32D0000F6386FF063016FF063028E4B01F085FA80A1D1E9000103F03CF843F26463C1F6FF731B6818464FF0640127
S32D0000F6606FF06302854B01F073FA77A1D1E9000103F02AF843F26463C1F6FF731B6818464FF05A014FF00102C0
S32D0000F6884FF0000301F060FC6DA1D1E9000103F017F843F26463C1F6FF731B6818466FF06301754A01F02CFE57
S32D0000F6B043F26463C1F6FF731B6818464FF000014FF000024FF0000301F042FC5EA1D1E9000102F0F9FF43F25B
S32D0000F6D86463C1F6FF731B6818464FF06401614A01F00EFE43F26463C1F6FF731B6818464FF00A014FF0000256
S32D0000F7004FF0000301F024FC4FA1D1E9000102F0DBFF43F26463C1F6FF731B68184601F0AFFC43F26463C1F6BC
S32D0000F728FF731B6818464FF064014FF00002514B01F00AFA07F10C07BD46F0BD43F26063C1F6FF731B6818462D
S32D0000F75001F096F80346002B65D043F26063C1F6FF731B68DB6A18464FF0000104F0E0FC43F26463C1F6FF73E7
S32D0000F7781E6843F26063C1F6FF731B689B693F481946FDF72FFB03461846FCF7A1FF02460B46104619464FF06A
S32D0000F7A000024FF0804303F5B203FCF7E9FF02460B46104619464FF000024FF0804303F51013FDF707F90246C7
S32D0000F7C80B4614461D4643F26063C1F6FF731B681B6A18462A49FDF705FB034618462949FDF70AFC034618465D
S32D0000F7F02749FDF7B9FC03461846FCF76DFF02460B4620462946FCF709FE02460B4610461946FDF74FFA034690
S32D0000F81830464FF03C011A4601F030F90BE043F26463C1F6FF731B6818464FF032014FF0000201F023F9154848
S32D0000F84002F01CFF9FE600BF333333333333D33F000016430000F04100002C43000020410000C04000007042F9
S32D0000F8680000803F000000410000504100009441000008420000803E0000E040000080BF0000B4420000C842A5
S32D0000F8900000DC420AD7233CF8B500AF43F26063C1F6FF731B685B6C184603F0C3F8034683F00103DBB2002BA1
S32D0000F8B80ED143F26063C1F6FF731B689B6C184603F0B4F8034683F00103DBB2002B02D04FF0010301E04FF0EE
S32D0000F8E00003002B09D043F26463C1F6FF731B68184601F069FC00BFF8BD43F26063C1F6FF731B68184600F031
S32D0000F908BBFF0346002B6DD043F26063C1F6FF731B68DB6A18464FF0000104F005FC43F26463C1F6FF731E683F
S32D0000F93043F26063C1F6FF731B681A6843F26063C1F6FF731B689B6910461946FDF74EFA034683F0004318468D
S32D0000F958FCF7BEFE02460B46104619464FF000024FF0804303F5B203FCF706FF02460B46104619464FF000020D
S32D0000F9804FF0804303F51013FDF724F802460B4614461D4643F26063C1F6FF731B681B6A18461A49FDF722FADC
S32D0000F9A8034618461849FDF727FB034618461749FDF7D6FB03461846FCF78AFE02460B4620462946FCF726FDA1
S32D0000F9D002460B4610461946FDF76CF9034630466FF03B011A4601F04DF80BE043F26463C1F6FF731B68184681
S32D0000F9F86FF031014FF0000201F040F8044802F039FE47E70000B4420000C8420000F0410AD7233C80B500AFEE
S32D0000FA2043F26863C1F6FF731B68184649F25C01C0F2010104F018FD43F25463C1F6FF731B681846E24903F045
S32D0000FA4873FE43F26463C1F6FF731B68184601F0B7FB4FF000004FF07E5101F5E00102F02FFE43F26463C1F680
S32D0000FA70FF731B68D74A1A6043F26063C1F6FF731B68184600F03AFE4FF000004FF07E5101F5E00102F018FE82
S32D0000FA9843F26463C1F6FF731B6818464FF06401CB4A01F02DFC4FF000004FF07E5101F5E00102F005FE43F219
S32D0000FAC06063C1F6FF731B68184600F027FE4FF000004FF07E5101F5E00102F0F5FD43F26063C1F6FF731B688A
S32D0000FAE893F82430002B5FD143F26463C1F6FF731B6818464FF000014FF000024FF0010301F022FA4FF00000A0
S32D0000FB104FF07E5101F5E00102F0D6FD43F26463C1F6FF731B6818464FF06401AB4A01F0EBFB4FF000004FF029
S32D0000FB387E5101F5E00102F0C3FD43F26463C1F6FF731B6818464FF05A014FF001024FF0000301F0F9F94FF001
S32D0000FB6000004FF07E5101F5E00102F0ADFD43F26463C1F6FF731B68184601F025FB43F25463C1F6FF731B6847
S32D0000FB881846954903F0D0FD4FF000004FF0804102F096FD43F25463C1F6FF731B681846894903F0C1FD5EE0D8
S32D0000FBB043F26463C1F6FF731B6818464FF000014FF001024FF0000301F0C2F94FF000004FF07E5101F5E0018D
S32D0000FBD802F076FD43F26463C1F6FF731B6818466FF063017D4A01F08BFB4FF000004FF07E5101F5E00102F07D
S32D0000FC0063FD43F26463C1F6FF731B6818464FF05A014FF000024FF0010301F099F94FF000004FF07E5101F58C
S32D0000FC28E00102F04DFD43F26463C1F6FF731B68184601F0C5FA43F25463C1F6FF731B681846654903F070FDD7
S32D0000FC504FF000004FF0804102F036FD43F25463C1F6FF731B681846594903F061FD43F26463C1F6FF731B6891
S32D0000FC7818464FF064015A4A01F042FB4FF000004FF07E5101F5E00102F01AFD43F26463C1F6FF731B68184657
S32D0000FCA04FF000014FF000024FF0010301F050F94FF000004FF07E5101F5E00102F004FD43F26463C1F6FF73FC
S32D0000FCC81B68184601F07CFA4FF000004FF07E5101F5E00102F0F4FC43F26463C1F6FF731B6818464FF0640116
S32D0000FCF03E4A01F009FB4FF000004FF07E5101F5E00102F0E1FC43F26463C1F6FF731B6818464FF05A014FF097
S32D0000FD1801024FF0000301F017F94FF000004FF07E5101F5E00102F0CBFC43F26463C1F6FF731B68184601F0A3
S32D0000FD4043FA4FF000004FF07E5101F5E00102F0BBFC43F26463C1F6FF731B6818464FF06401234A01F0D0FAB9
S32D0000FD684FF000004FF07E5101F5E00102F0A8FC43F26463C1F6FF731B6818464FF005014FF000024FF00003E5
S32D0000FD9001F0DEF84FF000004FF07E5101F5E00102F092FC43F26463C1F6FF731B68184601F066F943F2646388
S32D0000FDB8C1F6FF731B6818464FF064014FF000020A4B00F0C1FE80BD0000F04100007042000010410000204059
S32D0000FDE000001643000040400000E04000009441000008420000803E80B500AF43F25063C1F6FF731B68184649
S32D0000FE08214903F091FC4FF000004FF07E5101F5E00102F055FC43F26463C1F6FF731B6818464FF078014FF07E
S32D0000FE3000024FF0010301F08BF84FF000004FF07E5101F5E00102F03FFC43F26463C1F6FF731B6818464FF055
S32D0000FE585A014FF001024FF0010301F075F84FF000004FF07E5101F5E00102F029FC43F25063C1F6FF731B686F
S32D0000FE801846034903F054FCFFF7C8FD80BD00BF0000704298B500AF00E000BF43F26863C1F6FF731B68184659
S32D0000FEA804F06CF943F26863C1F6FF731B68184649F26001C0F2010104F0E8F943F26863C1F6FF731C6843F2C2
S32D0000FED06063C1F6FF731B68DB6B184602F0AAFD03462046194604F08BFA43F26863C1F6FF731B68184649F28C
S32D0000FEF86801C0F2010104F0C9F943F26863C1F6FF731C6843F26063C1F6FF731B681B6C184602F08BFD034610
S32D0000FF202046194604F0DCFA43F26863C1F6FF731B68184649F27401C0F2010104F0AAF943F26863C1F6FF73F6
S32D0000FF481C6843F26063C1F6FF731B685B6C184602F06CFD03462046194604F04DFA43F26863C1F6FF731B68EE
S32D0000FF70184649F27C01C0F2010104F08BF943F26863C1F6FF731C6843F26063C1F6FF731B689B6C184602F079
S32D0000FF984DFD03462046194604F09EFA43F26863C1F6FF731B68184649F28801C0F2010104F06CF943F268637C
S32D0000FFC0C1F6FF731C6843F26063C1F6FF731B68DB6C184602F02EFD03462046194604F07FFA43F26863C1F6CE
S32D0000FFE8FF731B68184649F29401C0F2010104F04DF943F26863C1F6FF731C6843F26063C1F6FF731B6818462B
S32D0001001000F036FC03462046194604F061FA43F26863C1F6FF731B68184649F29C01C0F2010104F02FF943F25B
S32D000100386863C1F6FF731C6843F26063C1F6FF731B689B6A184606F043FC03462046194604F064F943F2686386
S32D00010060C1F6FF731B68184649F2A001C0F2010104F010F943F26863C1F6FF731C6843F26063C1F6FF731B6889
S32D000100889B6A184606F034FC03462046194604F045F943F26863C1F6FF731B68184649F2A801C0F2010104F0EA
S32D000100B0F1F843F26863C1F6FF731C6843F26063C1F6FF731B689B6A184606F025FC03462046194604F0F0F982
S32D000100D843F26863C1F6FF731B68184649F2B401C0F2010104F0D2F843F26863C1F6FF731C6843F26063C1F631
S32D00010100FF731B685B6B184603F0D2F803462046194604F0BDF943F26863C1F6FF731B68184649F2C401C0F286
S32D00010128010104F0B3F843F26863C1F6FF731C6843F26063C1F6FF731B689B6B184603F0B3F8034620461946A6
S32D0001015004F09EF943F26863C1F6FF731B68184649F2D401C0F2010104F094F843F26863C1F6FF731C6843F2C5
S32D000101786063C1F6FF731B685B6D184602F00CFD03462046194604F0C9F843F26863C1F6FF731B68184649F2C0
S32D000101A0DC01C0F2010104F075F843F26863C1F6FF731C6843F26063C1F6FF731B681B6D184602F0EDFC0346E3
S32D000101C82046194604F0AAF80D4802F053FA43F26063C1F6FF731B68184600F063F943F26063C1F6FF731B6827
S32D000101F018464FF0020100F09BF90346002B3FF44CAE00BF98BD00BFCDCCCC3D80B500AF43F26463C1F6FF739D
S32D000102181B6818464FF000014FF001024FF0000300F092FE4FF000004FF07E5101F5E00102F046FA43F2646340
S32D00010240C1F6FF731B6818464FF05A014FF000024FF0000300F07CFE4FF000004FF0804101F5A01102F030FAFC
S32D0001026843F26463C1F6FF731B6818464FF000014FF000024FF0010300F066FE4FF000004FF07E5101F5E00125
S32D0001029002F01AFA43F26463C1F6FF731B6818464FF05A014FF001024FF0010300F050FE80BD00BF80B500AFF6
S32D000102B843F25063C1F6FF731B681846294903F033FA43F26063C1F6FF731B68184600F099FA43F26463C1F65B
S32D000102E0FF731B68184601F093F843F25063C1F6FF731B6818461E4903F01AFA4FF000004FF07E5101F5C001BC
S32D0001030802F0DEF943F26463C1F6FF731B6818464FF064016FF06302144B00F015FC43F26463C1F6FF731B6887
S32D00010330184601F021F943F25063C1F6FF731B6818460D4903F0F4F94FF000004FF07E5101F5E00102F0B8F946
S32D0001035843F26463C1F6FF731B68184601F0B8F880BD00BF0000F242000070420000003F00002C4380B582B0D8
S32D0001038000AF786039607B68012B0AD13A684FF6FF739A4205D143F26C60C1F6FF7005F0F9FC07F10807BD461E
S32D000103A880BD00BF80B500AF4FF001004FF6FF71FFF7E0FF80BD00BF80B586B000AFF860B9607A603B604FF041
S32D000103D0030007F08BFC0246FB68DA654FF0030007F084FC0246FB689A65FB684FF001025A61FB682A4A1A607F
S32D000103F8FB682A4A1A614FF000037B6111E0FB68DA6D7B69D3184FF000021A70FB689A6D7B69D3184FF00002B7
S32D000104201A707B6903F101037B617B69022BCCBF00230123DBB2002BE5D1FB687A681A63FB683A6A9A62FB68F2
S32D000104483A68DA62FB687A6A5A63FB68BA6A9A63FB68FA6ADA63FB683A6B1A64FB687A6B5A64FB68BA6B9A6409
S32D00010470FB68FA6BDA64FB683A6C1A65FB687A6C5A65FB68BA681A66FB681B6E1846064900F08EFAFB681846F0
S32D0001049807F11807BD4680BD0000804000000000CDCCCC3D90B585B000AF78604FF00003FB600DE07B689A6D07
S32D000104C0FB68D3187A68D16DFA688A1812781A70FB6803F10103FB60FB68022BCCBF00230123DBB2002BE9D1FD
S32D000104E87B68DC6D7B681B6B184602F07DFF034623707B68DB6D03F101047B681B6B184602F084FF034623706C
S32D000105107B68DB6D03F102047B681B6B184602F08DFF0346237007F11407BD4690BD00BF80B483B000AF786066
S32D000105380B46FB707B68DA6DFB78D3181B78184607F10C07BD4680BC704700BF80B483B000AF78600B46FB70F5
S32D000105607B68DA6DFB78D3181B78002B0CD07B689A6DFB78D3181B7883F00103DBB2002B02D04FF0010301E04A
S32D000105884FF00003184607F10C07BD4680BC704780B582B000AF78607B685B6B184602F08FFE7B689B6B1846E8
S32D000105B002F08AFE07F10807BD4680BD0000000090B583B000AF78607B685B6B184602F06FFE04467B689B6BC3
S32D000105D8184602F069FE0346E3181846FCF766F802460B46104619464FF000024FF08043FCF7ECF902460B4648
S32D000106001046194608A3D3E90023FCF7E3F902460B4610461946FCF795FB0346184607F10C07BD4690BD00BF2B
S32D00010628000000E02E3C164090B585B000AF78607B685B6D184602F0AFFA0346FB60FB68BB607B685B6D184633
S32D0001065002F0A6FA0346FB607B681B6E184600F0B5F90346002B13D07B68DB6A184603F089FD7B68DB6A184601
S32D0001067849F2E401C0F2010103F008FE7B68DB6A1846F96803F014FFF868B968FCF7AAFB03464FF0010214469B
S32D000106A018461449FCF74AFE0346002B02D14FF000031C46E3B2002B05D07B68DB6A184603F060FD12E07B680A
S32D000106C81B6B184602F0B6FE0346002B06D07B68DB6A184603F052FD00BF03E0044801F0C9FFAEE707F1140718
S32D000106F0BD4690BD0000C0BE0AD7233C80B582B000AF78607B685B6D184602F049FA02467B685A6007F10807B5
S32D00010718BD4680BD90B583B000AF78607B685B6D184602F039FA02467B689A607B685B6818463349FCF756FB5C
S32D0001074003461A467B689B684FF001010C4610461946FCF711FE0346002B02D14FF000031C46E3B2002B25D011
S32D000107687B684FF0010283F824207B68DB6A18464FF0020103F0D8FC7B68DB6A184649F2F001C0F2010103F096
S32D000107906BFE7B68DA6A7B685B681046194603F08BFE7B68DA6A7B689B681046194603F083FE24E07B684FF077
S32D000107B8000283F824207B68DB6A18464FF0040103F0B2FC7B68DB6A184649F20011C0F2010103F045FE7B6847
S32D000107E0DA6A7B685B681046194603F065FE7B68DA6A7B689B681046194603F05DFE07F10C07BD4690BD00BFCB
S32D000108080000803F80B582B000AF78607B681B6D184602F0C1F902467B68DA6007F10807BD4680BDB0B582B05C
S32D0001083000AF78607B681B6D184602F0B1F902467B681A617B681D697B68DB6818460B49FCF7CCFA03464FF085
S32D000108580102144628461946FCF76CFD0346002B02D14FF000031C46E3B2184607F10807BD46B0BD9A99993E8C
S32D0001088080B586B000AF78607B689B6A184606F023F803467B617B689B6A184606F02CF803463B617B689B6AAE
S32D000108A8184606F035F80346FB6078691649FCF737FD0346002B17D038691349FCF730FD0346002B10D0F86869
S32D000108D00F49FCF729FD0346002B09D07B68DB6A18464FF0030103F023FC4FF000030AE07B687A699A617B6890
S32D000108F83A69DA617B68FA681A624FF00103184607F11807BD4680BD0000000080B582B000AF7860396001F0C2
S32D00010920FFFE02460B4610461946FCF70BFA02467B681A607B683A685A607B68184607F10807BD4680BD00BF3A
S32D00010948B0B582B000AF786001F0E6FE04460D467B681B681846FBF7BBFE02460B4620462946FBF755FD024687
S32D000109700B4610461946FCF7E5F90346184607F10807BD46B0BD00BF80B582B000AF786001F0C6FE02460B4668
S32D0001099810461946FCF7D2F902467B681A6007F10807BD4680BD00BF80B483B000AF786039607B683A685A604C
S32D000109C007F10C07BD4680BC704700BF90B585B000AF78607868FFF7B7FF02467B685B684FF001010C461046E4
S32D000109E81946FCF7C5FC0346002B02D14FF000031C46FC73FB7B002B02D07868FFF7C0FFFB7B184607F1140784
S32D00010A10BD4690BD90B585B000AFF860B9607A603B60FB68BA685A60FB687A689A60FB683A68DA60FB68104ADE
S32D00010A381A604FF0080007F021F9044620460D49FFF764FFFB681C614FF0280007F016F9044620460849074ABF
S32D00010A60064B01F075F8FB685C61FB68184607F11407BD4690BD00BF00007042000000000000A04190B587B0A6
S32D00010A8800AFF860B9607A60BA687B68D3187B61BA687B68D31A3B617B69642B02DD4FF064037B617B6913F12F
S32D00010AB0640F02DA6FF063037B613B69642B02DD4FF064033B613B6913F1640F02DA6FF063033B61FB685C6854
S32D00010AD87B69C3F100031846FCF73AFA03462046194601F099FAFB689C683869FCF730FA03462046194601F019
S32D00010B008FFA07F11C07BD4690BD00BF90B585B000AFF860B9607A60FB685C68BB68C3F100031846FCF718FA3B
S32D00010B2803462046194601F077FAFB689C687868FCF70EFA03462046194601F06DFA07F11407BD4690BD00BF64
S32D00010B5080B584B000AFF860B9607A603B60F868B9687A68FFF78EFF386801F087FDF8684FF000014FF000029C
S32D00010B78FFF784FF07F11007BD4680BD0000000080B582B000AF78607B681B691846FFF7F7FE7B681B69184623
S32D00010BA01F49FFF705FF78684FF032014FF00002FFF768FF0AE07B681B691846FFF706FF0346002B0CD117487A
S32D00010BC801F058FD7B68DB681B6C184601F02EFF0346002BEBD100E000BF78684FF000014FF00002FFF74AFF20
S32D00010BF009A1D1E9000101F067FD78686FF063014FF00002084BFFF7A3FF07F10807BD4680BD00BFAFF3008025
S32D00010C18333333333333D33F000040400AD7233C9A99193EAFF3008090B58DB000AFF860B9601346FB71FB6833
S32D00010C40DB681846FFF71CFE034683F00103DBB2002B25D0F8684FF000014FF00002FFF711FFFB68DB68DB6A95
S32D00010C68184649F21011C0F2010103F0F9FBFB68DB68DB6A1846B96803F006FCBB68C3F100031846FCF764F921
S32D00010C900246FB79F86811461A4600F0C5FC4DE1FB681B691846FFF76FFEFB681B691846A449FFF77DFEFB68D5
S32D00010CB8DB681B6A1846FCF765FB0346FB61FB69BB61BA69BB68D3187B617B69FB62BB68BB624FF0000387F820
S32D00010CE027304FF0000387F82630BB68002BD4BF00230123FB74BB684FEAD373BB747B69B32B07DDFB6AA3F170
S32D00010D08B403FB624FF0010387F826307B69002B07DAFB6A03F1B403FB624FF0010387F82730FB681B691846D5
S32D00010D30FFF74CFE0346002B07D0F8684FF000014FF00002FFF79EFEF8E0FB68DB681846FFF796FD034683F075
S32D00010D580103DBB2002B22D0F8684FF000014FF00002FFF78BFEFB68DB68DB6A184649F21811C0F2010103F00A
S32D00010D8073FBFB68DB68DB6A1846B96A03F080FBB86AFCF7E1F80246FB79F86811461A4600F042FCCAE0FB6800
S32D00010DA8DB681B6A1846FCF7EDFA0346FB61FB693B6297F82630002B06D0FB69592B03DC3B6A03F1B4033B62DC
S32D00010DD097F82730002B06D0FB695A2B03DD3B6AA3F1B4033B623A6A7B69D31ABB62FB7C002B3AD0FB79002BDA
S32D00010DF819D1FB681C68B86AFCF7AAF8034618464F49FCF7F9F8034620461946FBF7EAFF03461846FCF7B6FAEE
S32D00010E200346F8684FF000011A46FFF76FFEFB79012B1AD1B86AFCF78FF8034618464249FCF7DEF803461A462C
S32D00010E48FB681B6810461946FBF7CCFF03461846FCF798FA0346F86819464FF00002FFF751FEBB7C002B3BD0FC
S32D00010E70FB79002B1BD1FB681B6883F00044B86AFCF76AF8034618462F49FCF7B9F8034620461946FBF7AAFF48
S32D00010E9803461846FCF776FA0346F8684FF000011A46FFF72FFEFB79012B19D1FB681C68B86AFCF74DF80346A1
S32D00010EC018462149FCF79CF8034620461946FBF78FFF03461846FCF759FA0346F86819464FF00002FFF712FEEA
S32D00010EE8BB6A052B0ADDFB7C002B1FD0F8684FF000014FF00002FFF705FE1BE0BB6A13F1050F0ADABB7C002BB6
S32D00010F1010D0F8684FF000014FF00002FFF7F6FD0CE0F8684FF000014FF00002FFF7EEFD00BF03E0054801F07A
S32D00010F38A1FBF6E607F13407BD4690BD0000A040398EE33E0AD7233C80B586B000AFF860B960FA71BB71FB6802
S32D00010F601B691846FFF710FDFB681B6918464249FFF71EFD0CE03EA1D1E9000101F0A4FBFB681B691846FFF74B
S32D00010F8821FD0346002B0BD1FB68DB681846FFF773FC034683F00103DBB2002BE7D100E000BFFB68DB681B6A69
S32D00010FB01846FCF7EBF903463B614FF000037B61FB79002B12D1BA683B699A4204DDBA683B69D31A7B6109E05D
S32D00010FD8BA683B699A4205DABB6803F1B4023B69D31A7B61FB79012B12D1BA683B699A4206DDBB68A3F1B402BA
S32D000110003B69D31A7B6107E0BA683B699A4203DABA683B69D31A7B617B695A2B0ADC7B6913F15A0F06DBBB79AA
S32D00011028F86879691A46FFF7FFFD19E07B694FEAD372D3184FEA63031A46BB79F86811461A46FFF7F1FD7B69AD
S32D000110504FEAD372D3184FEA63031A46BB79F86811461A46FFF7E4FD07F11807BD4680BD9A9999999999B93F01
S32D000110780000A041AFF3008090B583B000AF78607B681B691846FFF77BFC7B681B6918464949FFF789FC00E063
S32D000110A000BF7B68DB68DB6B184601F0C3FC0346002B02D04FF0640401E04FF000047B68DB681B6C184601F0DB
S32D000110C8B5FC0346002B02D04FF0640301E04FF00003786821461A46FFF714FD374801F0C9FA7B68DB68DB6BEC
S32D000110F0184601F09FFC034683F00103DBB2002B0ED07B68DB681B6C184601F093FC034683F00103DBB2002B8E
S32D0001111802D04FF0010301E04FF00003002B14D17B681B691846FFF74DFC0346002BB3D078684FF000014FF006
S32D000111400002FFF79FFC1CA1D1E9000101F0BCFA2BE000BF78684FF000014FF00002FFF791FC4FF000004FF0A2
S32D000111687E5101F5C00101F0ABFA7B68DB68DB6B184601F05BFC0346002B08D17B68DB681B6C184601F052FC93
S32D000111900346002B02D04FF0010301E04FF00003002B02D07868FFF76BFF07F10C07BD4690BD00BFAFF300800B
S32D000111B8333333333333D33F0000A0400AD7233C90B583B000AF78607B681B691846FFF7D7FB7B681B69184653
S32D000111E04749FFF7E5FB7B68DB685B6C184601F021FC0346002B02D06FF0630401E04FF000047B68DB689B6CC4
S32D00011208184601F013FC0346002B02D06FF0630301E04FF00003786821461A46FFF772FC7B68DB685B6C1846D5
S32D0001123001F000FC034683F00103DBB2002B0ED07B68DB689B6C184601F0F4FB034683F00103DBB2002B02D097
S32D000112584FF0010301E04FF00003002B18D17B681B691846FFF7AEFB0346002B0CD078684FF000014FF00002D8
S32D00011280FFF700FC1CA1D1E9000101F01DFA2FE01C4801F0F3F9A6E700BF78684FF000014FF00002FFF7EEFBF1
S32D000112A84FF000004FF07E5101F5C00101F008FA7B68DB685B6C184601F0B8FB0346002B08D17B68DB689B6CB7
S32D000112D0184601F0AFFB0346002B02D04FF0010301E04FF00003002B02D07868FFF76CFF07F10C07BD4690BDB1
S32D000112F8333333333333D33F0000A0400AD7233C90B589B000AFF860B9607A604FF00103FB61BB68002B06DA1E
S32D000113204FF0FF33FB61BB68C3F10003BB60B868FBF712FE034618463249FBF757FD034618463149FBF710FF30
S32D000113480346BB61F868B9684FF00002FFF796FBFB68DB685B6B184601F0B2FFFB68DB689B6B184601F0ACFFB6
S32D000113707B687B6100E000BFFB68DB681846FFF71FF9034678681946FBF730FD03467B61F869FBF7E1FD044697
S32D00011398B8697969FBF730FE034618461749FBF723FD034620461946FBF726FE03461846FBF7E8FF0346F8689D
S32D000113C019464FF00002FFF75DFB4FF001031C4678690E49FBF7B2FF0346002B02D14FF000031C46E3B2002BE5
S32D000113E8C5D000BFF8684FF000014FF00002FFF745FB07F12407BD4690BD00BF000070420000C0400000000087
S32D0001141080B582B000AF78607B681B691846FFF7B3FA7B681B6918462749FFF7C1FA7B68DB681846FFF7FAF904
S32D000114380346002B07D078684FF041014FF01E02FFF760FB06E078684FF01E014FF03702FFF758FB7B68DB681E
S32D00011460DB6C184601F0E6FA034683F00103DBB2002B0AD078684FF000014FF00002FFF701FB07F10807BD4638
S32D0001148880BD7B681B691846FFF79CFA0346002B12D078686FF063014FF00002094BFFF753FB78684FF00001B5
S32D000114B04FF001024FF00003FFF74AFD00BFB6E7034801F0DBF8B2E70000C0400000803F0AD7233C0000000049
S32D000114D880B582B000AF78607B681B691846FFF74FFA7B681B6918461F49FFF75DFA7B68DB681846FFF796F970
S32D00011500034683F00103DBB2002B07D078684FF041014FF01E02FFF7F9FA06E078684FF01E014FF03702FFF732
S32D00011528F1FA7B681B691846FFF74CFA0346002B0FD078684FF000014FF00002FFF79EFA07A1D1E9000101F012
S32D00011550BBF807F10807BD4680BD064801F08EF8C9E700BFAFF30080333333333333D33F000080400AD7233CD8
S32D0001157880B582B000AF78607B681B691846FFF7FFF97B681B6918462349FFF70DFA7B68DB681846FFF746F9BC
S32D000115A0034683F00103DBB2002B0FD078684FF000014FF04602FFF7A9FA7B681B691846FFF704FA0346002B58
S32D000115C80DD11AE078684FF000014FF00002FFF755FA0FA1D1E9000101F072F811E078684FF000014FF000025E
S32D000115F0FFF748FA08A1D1E9000101F065F800BF03E0084801F03AF8C5E707F10807BD4680BD00BFAFF30080F9
S32D00011618333333333333D33F0000A0400AD7233CF0B589B000AFF860B9601346FB71B44BFB61B44BBB61FB68A3
S32D00011640DB681846FEF7A8FFFB79002B40F02C814FF001031C46B868AD49FBF76FFE0346002B02D14FF000031F
S32D000116681C46E3B2002B00F09B80BB6883F00043BB60FB68DB68DB6A184649F22411C0F2010102F003FEFB686F
S32D00011690DB68DC6AF869B968FBF7B2FC03462046194602F009FF4FE0FB68DB689B6B184601F0FEFD03461846AC
S32D000116B8FAF7FCFF04460D46F869B968FBF79CFC03461846FBF704F802460B461046194689A3D3E90023FBF78E
S32D000116E04FF802460B4620462946FBF773F902460B46104619464FF000024FF0804303F58803FBF73DF8024645
S32D000117080B46104619464FF000024FF0804303F5B203FAF77DFE02460B4610461946FBF70DFB03467B617B69FF
S32D0001173083F000431846FBF729FE0346F8684FF000011A46FFF7E2F9FB68DB689B6B184601F0AEFD03461846F6
S32D00011758FAF7ACFF04460D46F869B968FBF74CFC03461846FAF7B4FF02460B461046194661A3D3E90023FAF700
S32D00011780FFFF02460B464FF001010E4620462946FBF768FA0346002B02D14FF000031E46F3B2002B80D1B8E13E
S32D000117A8FB68DB68DB6A184649F23011C0F2010102F06CFDFB68DB68DC6AF869B968FBF71BFC034620461946B9
S32D000117D002F072FE47E0FB68DB68DB6A184602F0D1FCFB68DB68DB6A184649F23C11C0F2010102F039FEFB6848
S32D000117F8DB68DC6AFB68DB689B6B184601F054FD03462046194602F03FFEFB68DB689B6B184601F049FD034626
S32D000118201846FBF799FB0446F869B968FBF7E8FB034620461946FBF797FC034618463549FBF7DEFB03461846EA
S32D000118483349FBF7CFFA03467B617869FBF79AFD0346F8684FF000011A46FFF753F9FB68DB689B6B184601F025
S32D000118701FFD03461846FBF76FFB0546F869B968FBF7BEFB03464FF00102144628461946FBF754FD0346002B49
S32D0001189802D14FF000031C46E3B2002B97D138E14FF001031C46B8681749FBF743FD0346002B02D14FF0000389
S32D000118C01C46E3B2002B00F0A680BB6883F00043BB60FB68DB68DB6A184649F22411C0F2010102F0D7FCFB6838
S32D000118E8DB68DC6AF869B968FBF786FB03462046194602F0DDFD5AE0CDCCCCCCCCCCEC3F721C473FCDCCCC3D95
S32D0001191000000000000020420000C842FB68DB685B6B184601F0C4FC03461846FAF7C2FE04460D46F869B9684A
S32D00011938FBF762FB03461846FAF7CAFE02460B46104619467CA3D3E90023FAF715FF02460B4620462946FBF720
S32D0001196039F802460B46104619464FF000024FF0804303F58803FAF703FF02460B46104619464FF000024FF052
S32D00011988804303F5B203FAF743FD02460B4610461946FBF7D3F903467B617869FBF7F2FC0346F86819464FF056
S32D000119B00002FFF7ABF8FB68DB685B6B184601F077FC03461846FAF775FE04460D46F869B968FBF715FB0346CA
S32D000119D81846FAF77DFE02460B461046194656A3D3E90023FAF7C8FE02460B464FF001010E4620462946FBF744
S32D00011A0031F90346002B02D14FF000031E46F3B2002B83D181E0FB68DB68DB6A184649F23011C0F2010102F0B0
S32D00011A2835FCFB68DB68DC6AF869B968FBF7E4FA03462046194602F03BFD4AE0FB68DB68DB6A184602F09AFBEE
S32D00011A50FB68DB68DB6A184649F23C11C0F2010102F002FDFB68DB68DC6AFB68DB685B6B184601F01DFC0346E8
S32D00011A782046194602F008FDFB68DB685B6B184601F012FC03461846FBF762FA0446F869B968FBF7B1FA034613
S32D00011AA020461946FBF760FB034618462649FBF7A7FA034618462549FBF798F903467B617B6983F000431846A7
S32D00011AC8FBF760FC0346F86819464FF00002FFF719F8FB68DB685B6B184601F0E5FB03461846FBF735FA0546A3
S32D00011AF0F869B968FBF784FA03464FF00102144628461946FBF71AFC0346002B02D14FF000031C46E3B2002B70
S32D00011B1894D1FB68DB68DB6A18464FF0000102F003FBF8684FF000014FF00002FEF7A6FF07F12407BD46F0BD72
S32D00011B40CDCCCCCCCCCCEC3F000020420000C84290B585B000AFF860B9607A603B60FB68154A1A60FB68144A0A
S32D00011B685A60FB68124A9A60FB68114A5A61FB680F4A1A61FB680E4ADA60FB68BA689A61FB687A68DA61FB68D3
S32D00011B903A681A624FF0080006F074F8044620460549FEF7B7FEFB685C62FB68184607F11407BD4690BD00BFB3
S32D00011BB80000000080B500AF43F6A872C1F6FF7243F22863C1F6FF73D31A194643F22863C1F6FF731A460B46D0
S32D00011BE010464FF000011A4604F0C3FF80BD00BF06F02CF800F0B0F9FFF7E0FF05F0FEFF05F09AFF06F032F806
S32D00011C0800F00CF84FF0000043F29061C1F6FF71FCF738FC0346184604F082FF80B500AF4FF4E043C4F20403E3
S32D00011C304FF4E042C4F2040202F5805202F13802126842F4785203F5805303F138031A6000F02EF900F094F8ED
S32D00011C5843F29C63C1F6FF734FF058021A6043F29C63C1F6FF731B684FF47A7202FB03F243F29863C1F6FF7393
S32D00011C801A6043F29863C1F6FF731B681A464FF4E043C4F2040303F5825303F104031B6803F070634FEA13639C
S32D00011CA803F10103B2FBF3F31A4643F2A063C1F6FF731A604FF4E043C4F204034FF4E042C4F2040202F580523A
S32D00011CD002F13C02126842F0225203F5805303F13C031A604FF4E043C4F204034FF4E042C4F2040202F580520F
S32D00011CF802F13002126842F0006203F5805303F130031A604FF45043C4F203034FF480721A614FF0640000F049
S32D00011D2027FB4FF45043C4F203034FF45042C4F20302526922F010025A614FF45043C4F203034FF000021A6069
S32D00011D484FF45043C4F203034FF010025A6101F075F801F01DF943F29460C1F6FF7000F087FB43F2D060C1F68C
S32D00011D70FF7002F0C5F841F2883000F065FC80BD80B400AF4FF48043C4F206034FF000025A704FF48043C4F23E
S32D00011D9806034FF098021A704FF48043C4F206039B79DBB203F01003002B0CBF00230123DBB2002BF0D14FF44B
S32D00011DC08043C4F206039B79DBB203F00C034FEA9303022B0CBF00230123DBB2002BEED14FF48043C4F2060385
S32D00011DE84FF018021A714FF48043C4F206034FF000025A714FF4E043C4F2040303F5825303F104034FF00002EB
S32D00011E10C0F213121A604FF48043C4F206034FF054025A7100BF4FF48043C4F206039B79DBB203F02003002BC7
S32D00011E3814BF00230123DBB2002BF0D100BF4FF48043C4F206039B79DBB203F04003002B14BF00230123DBB2BB
S32D00011E60002BF0D14FF48043C4F206034FF48042C4F206021278D2B202F03F02D2B21A704FF48043C4F20603CB
S32D00011E889B79DBB203F00C034FEA9303032B0CBF00230123DBB2002BEED14FF000031846BD4680BC704700BFAD
S32D00011EB080B400AF4FF44043C4F204034FF480725A634FF2C003C4F20F034FF2C002C4F20F02526942F40052D2
S32D00011ED85A614FF2C003C4F20F034FF2C002C4F20F02126842F400521A604FF44043C4F2040340F20312C0F292
S32D00011F000A021A634FF46143CEF200034FF46142CEF20002D2F8882142F08062C3F888214FF46143CEF2000342
S32D00011F284FF46142CEF20002926842F080629A60BD4680BC704700BF80B483B000AF7860FEE700BF80B400AFB0
S32D00011F5000BEBD4680BC704780B400AF4FF0E0224CF20003C0F20003C2F8083D4FF40053C4F205034CF2205291
S32D00011F78DA814FF40053C4F205034DF62812DA814FF40053C4F205034FF0D2021A80BD4680BC704780B400AFD9
S32D00011FA04FF44043C4F20403D3F8A03003F48053002B0CBF00230123DBB2002B19D04FF44043C4F204034FF486
S32D00011FC84042C4F20402D2F8A02022F48052C3F8A0204FF2C003C4F20F034FF2C002C4F20F02126822F4005247
S32D00011FF01A60BD4680BC704780B483B000AF78600B46FB707B68FA781A707B684FF000025A707B68184607F1A2
S32D000120180C07BD4680BC704790B585B000AF786039604FF001031C4638682F49FBF782F90346002B02D14FF046
S32D0001204000031C46E3B2002B02D0294B3B6011E04FF001031C4638682649FBF78DF90346002B02D14FF00003C5
S32D000120681C46E3B2002B01D0204B3B603868FAF72FFB02460B46104619464FF000024FF0804303F5B203FAF766
S32D00012090A1FC02460B461046194613A3D3E90023FAF76EFB02460B4610461946FAF702FE0346FB737B685B789B
S32D000120B8FA7B9A420FD07B68FA7B5A707B681A78FB7B43F29460C1F6FF7011461A464FF01E0300F017FA07F15D
S32D000120E01407BD4690BD00BF0000000000C05F400000C8C20000C84290B486B000AFF860B9607A60FA684FF49B
S32D000121082043C4F206039A4214D14FF4E043C4F204034FF4E042C4F2040202F5805202F13402126842F48062FD
S32D0001213003F5805303F134031A6083E0FA684FF43043C4F206039A4214D14FF4E043C4F204034FF4E042C4F2D7
S32D00012158040202F5805202F13402126842F4006203F5805303F134031A6067E0FA684FF44043C4F206039A42D4
S32D0001218014D14FF4E043C4F204034FF4E042C4F2040202F5805202F13402126842F4805203F5805303F134039D
S32D000121A81A604BE0FA684FF45043C4F206039A4214D14FF4E043C4F204034FF4E042C4F2040202F5805202F1AB
S32D000121D03402126842F4005203F5805303F134031A602FE0FA684FF42043C4F20E039A4214D14FF4E043C4F27D
S32D000121F804034FF4E042C4F2040202F5805202F12802126842F4806203F5805303F128031A6013E04FF4E0435B
S32D00012220C4F204034FF4E042C4F2040202F5805202F12802126842F4006203F5805303F128031A60FB68DB789F
S32D00012248DBB223F00C03DAB2FB68DA70FB684FF000029A70BB684FF47A7202FB03F27B684FEA031392FBF3F3E8
S32D000122709CB2FB681B78DBB223F01F03FB75234603F4F8534FEA2323DBB203F01F03DAB2FB7D1343DAB2FB68B4
S32D000122981A70E2B2FB685A70BB684FF4FA4202FB03F27B684FEA031392FBF3F39AB2234619464FEAC121CB1A7F
S32D000122C04FEA43139BB2D3189CB2FB689B7ADBB223F01F03FB75E3B203F01F03DAB2FB7D1343DAB2FB689A7231
S32D000122E8FB68DB78DBB243F00C03DAB2FB68DA7007F11807BD4690BC704700BF80B483B000AF786000BF7B689D
S32D000123101B79DBB203F02003002B14BF00230123DBB2002BF3D17B68DB79DBB2184607F10C07BD4680BC704783
S32D0001233880B483B000AF78600B46FB7000BF7B681B79DBB2DBB26FEA0303DBB24FEAD313DBB2002BF3D17B6812
S32D00012360FA78DA7107F10C07BD4680BC704700BF80B483B000AF78604FF4E043C4F204034FF4E042C4F204029F
S32D0001238802F5805202F13802126842F0010203F5805303F138031A604FF00003C4F204037A689A604FF00003F0
S32D000123B0C4F204034FF005025A604FF00003C4F204034FF00002C4F20402126842F001021A6000BF4FF000031B
S32D000123D8C4F204031B6803F08003002B14BF00230123DBB2002BF1D14FF00003C4F204034FF00002C4F2040265
S32D00012400126822F001021A6007F10C07BD4680BC704700BF80B582B000AF786039607B68012B0AD13A684FF68C
S32D00012428FF739A4205D143F29460C1F6FF7000F00FF807F10807BD4680BD00BF80B500AF4FF001004FF6FF713C
S32D00012450FFF7E0FF80BD00BF80B483B000AF78607B684FF000021A707B68184607F10C07BD4680BC704700BFEF
S32D0001247880B582B000AF78607B681B7883F00103DBB2002B36D04FF4E043C4F2040303F5805303F128034FF44C
S32D000124A000621A604FF45043C4F204034FF440721A624FF45043C4F204034FF440725A6243F29863C1F6FF7390
S32D000124C81B684FEAD372D3184FEA63034FF43040C4F20E0019464FF46142FFF709FE4FF0640000F0ADF87B6886
S32D000124F04FF001021A704FF0010301E04FF00003184607F10807BD4680BD00BF80B582B000AF7860F970BA70A6
S32D000125187B704FF43040C4F20E004FF07F01FFF707FF4FF43040C4F20E004FF00801FFF7FFFEFB784FF430409F
S32D00012540C4F20E001946FFF7F7FEBB784FF43040C4F20E001946FFF7EFFE7B784FF43040C4F20E001946FFF7B3
S32D00012568E7FE4FF43040C4F20E004FF0FF01FFF7DFFE07F10807BD4680BD00BF80B487B000AFF860B9607A606B
S32D00012590FA6844F6D353C1F26203A3FB02134FEA9312BB68D3187B61FA6844F6D353C1F26203A3FB02134FEA01
S32D000125B893134FF47A7101FB03F3D31AFB60FB684FEAC33244F6D353C1F26203A3FB02134FEA93127B68D3187E
S32D000125E03B613B694FEAD3337A69D3187B613B694FEA43434FEA53433B614FF45043C4F203031B681A467B697C
S32D000126089A4211D34FF45043C4F203031B681A467B699A420BD14FF45043C4F203035B681A463B699A4202D2C9
S32D000126304FF0010301E04FF00003002BDDD107F11C07BD4680BC704780B584B000AF78604FF45043C4F20303A9
S32D000126581B68FB604FF45043C4F203035B68BB607B681846F968BA68FFF788FF07F11007BD4680BD80B584B00C
S32D0001268000AF78604FF45043C4F203031B68FB604FF45043C4F203035B68BB6078680849FAF7AEFC0346184651
S32D000126A8FAF796FE03461846F968BA68FFF766FF07F11007BD4680BD00007A440000000080B584B000AFC7E924
S32D000126D000014FF45043C4F203031B68FB604FF45043C4F203035B68BB60D7E900010AA3D3E90023FAF744F880
S32D000126F802460B4610461946FAF700FB03461846F968BA68FFF73AFF07F11007BD4680BD0000000000408F40C2
S32D0001272080B584B000AF4FF45043C4F203031B68FB604FF45043C4F203035B68BB60F868F9F7A8FF02460B4602
S32D00012748C7E90023B868F9F7A1FF02460B46104619464FF000024FF0804303F56003FAF735F902460B46D7E97B
S32D000127700001F9F753FE02460B46C7E90023D7E900231046194607F11007BD4680BD00BF80B483B000AF4FF48D
S32D000127985043C4F203031B684FF47A7202FB03F37B604FF45043C4F203035B684FF47A7202FB03F34FEAD3338D
S32D000127C07A68D3187B607B68184607F10C07BD4680BC704780B582B000AF78600B46FB70FB787868194600F0B4
S32D000127E813F87B68184607F10807BD4680BD00BF80B483B000AF78607B68184607F10C07BD4680BC704700BF81
S32D0001281080B483B000AF78600B46FB707B68FA781A707B681B781A4649F2E423C0F201039B5C042B00F2F980B1
S32D0001283801A252F823F000BF55280100B3280100112901006F290100CD2901004FF41043C4F204037A681278CE
S32D00012860114649F22832C0F2010252F8212040F2031143F822104FF47043C4F20F034FF47042C4F20F02526935
S32D0001288811467A681278104649F22832C0F2010252F8202002F01F024FF0010000FA02F26FEA02020A405A6191
S32D000128B0BBE04FF42043C4F204037A681278114649F22832C0F2010252F8212040F2031143F822104FF240032C
S32D000128D8C4F20F034FF24002C4F20F02526911467A681278104649F22832C0F2010252F8202002F01F024FF0C5
S32D00012900010000FA02F26FEA02020A405A618CE04FF43043C4F204037A681278114649F22832C0F2010252F821
S32D00012928212040F2031143F822104FF28003C4F20F034FF28002C4F20F02526911467A681278104649F228320D
S32D00012950C0F2010252F8202002F01F024FF0010000FA02F26FEA02020A405A615DE04FF44043C4F204037A68D4
S32D000129781278114649F22832C0F2010252F8212040F2031143F822104FF2C003C4F20F034FF2C002C4F20F0231
S32D000129A0526911467A681278104649F22832C0F2010252F8202002F01F024FF0010000FA02F26FEA02020A4078
S32D000129C85A612EE04FF45043C4F204037A681278114649F22832C0F2010252F8212040F2031143F822104FF4F6
S32D000129F07143C4F20F034FF47142C4F20F02526911467A681278104649F22832C0F2010252F8202002F01F02C4
S32D00012A184FF0010000FA02F26FEA02020A405A6100BF07F10C07BD4680BC704780B485B000AF78604FF000030D
S32D00012A40FB607B681B781A4649F2E423C0F201039B5C042B00F2868001A252F823F000BF752A0100A52A0100F1
S32D00012A68D52A0100052B0100352B01004FF47043C4F20F031B691A467B681B78194649F22833C0F2010353F89F
S32D00012A90213003F01F034FF0010101FA03F31340FB605FE04FF24003C4F20F031B691A467B681B78194649F252
S32D00012AB82833C0F2010353F8213003F01F034FF0010101FA03F31340FB6047E04FF28003C4F20F031B691A46B6
S32D00012AE07B681B78194649F22833C0F2010353F8213003F01F034FF0010101FA03F31340FB602FE04FF2C00302
S32D00012B08C4F20F031B691A467B681B78194649F22833C0F2010353F8213003F01F034FF0010101FA03F313409B
S32D00012B30FB6017E04FF47143C4F20F031B691A467B681B78194649F22833C0F2010353F8213003F01F034FF070
