S00D00002E2E2F5054342E73313984
S32D0000C0000000002041F200009DF500009DF500009DF500009DF500009DF50000000000000000000000000000E5
S32D0000C028000000009DF500009DF50000000000009DF500009DF500009DF500009DF500009DF500009DF500005A
S32D0000C0509DF500009DF500009DF500009DF500009DF500009DF500009DF500009DF500009DF500009DF500000E
S32D0000C0789DF500009DF500009DF500009DF500009DF500009DF500009DF500009DF500009DF500009DF50000E6
S32D0000C0A09DF500009DF500009DF500009DF500009DF500009DF500009DF500009DF500009DF500009DF50000BE
S32D0000C0C89DF500009DF500009DF500009DF500009DF500009DF500009DF500009DF500009DF500009DF5000096
S32D0000C0F09DF500006D3001009DF500009DF500009DF500009DF500009DF500009DF500009DF500009DF5000062
S32D0000C1189DF500009DF500009DF500009DF500009DF500009DF500009DF500009DF500009DF500009DF5000045
S32D0000C1409DF500009DF500009DF500009DF50000B50501009DF500009DF500009DF500009DF500009DF50000F4
S32D0000C1689DF500009DF500009DF500009DF500009DF500009DF500009DF500009DF500009DF500009DF50000F5
S32D0000C1909DF500009DF500009DF500009DF500009DF500009DF50000EDF500009DF500009DF500009DF500007D
S32D0000C1B89DF500009DF500009DF500009DF500009DF500009DF500009DF500009DF500009DF500009DF50000A5
S32D0000C41081F0004102E000BF83F0004330B54FEA41044FEA430594EA050F08BF90EA020F1FBF54EA000C55EAC6
S32D0000C438020C7FEA645C7FEA655C00F0E2804FEA5454D4EB5555B8BF6D420CDD2C4480EA020281EA030382EA0F
S32D0000C460000083EA010180EA020281EA0303362D88BF30BD11F0004F4FEA01314FF4801C4CEA113102D0404263
S32D0000C48861EB410113F0004F4FEA03334CEA133302D0524263EB430394EA050F00F0A780A4F10104D5F1200E8A
S32D0000C4B00DDB02FA0EFC22FA05F2801841F1000103FA0EF2801843FA05F359410EE0A5F120050EF1200E012A2D
S32D0000C4D803FA0EFC28BF4CF0020C43FA05F3C01851EBE37101F0004507D54FF0000EDCF1000C7EEB00006EEB67
S32D0000C5000101B1F5801F1BD3B1F5001F0CD349085FEA30004FEA3C0C04F101044FEA445212F5800F80F09A8000
S32D0000C528BCF1004F08BF5FEA500C50F1000041EB045141EA050130BD5FEA4C0C404141EB010111F4801FA4F114
S32D0000C5500104E9D191F0000F04BF01460020B1FA81F308BF2033A3F10B03B3F120020CDA0C3208DD02F1140C87
S32D0000C578C2F10C0201FA0CF021FA02F10CE002F11402D8BFC2F1200C01FA02F120FA0CFCDCBF41EA0C019040B1
S32D0000C5A0E41AA2BF01EB0451294330BD6FEA04041F3C1CDA0C340EDC04F11404C4F1200220FA04F001FA02F3B6
S32D0000C5C840EA030021FA04F345EA030130BDC4F10C04C4F1200220FA02F001FA04F340EA0300294630BD21FAA8
S32D0000C5F004F0294630BD94F0000F83F4801306BF81F480110134013D4EE77FEA645C18BF7FEA655C29D094EA1C
S32D0000C618050F08BF90EA020F05D054EA000C04BF1946104630BD91EA030F1EBF0021002030BD5FEA545C05D1A3
S32D0000C6404000494128BF41F0004130BD14F580043CBF01F5801130BD01F0004545F0FE4141F470014FF0000031
S32D0000C66830BD7FEA645C1ABF194610467FEA655C1CBF0B46024650EA013406BF52EA033591EA030F41F40021D7
S32D0000C69030BD00BF90F0000F04BF0021704730B54FF4806404F132044FF000054FF0000150E700BF90F0000F66
S32D0000C6B804BF0021704730B54FF4806404F1320410F0004548BF40424FF000013EE700BF42004FEAE2014FEAF9
S32D0000C6E031014FEA02701FBF12F07F4393F07F4F81F06051704792F0000F14BF93F07F4F704730B54FF460741B
S32D0000C70801F0004521F0004120E700BF50EA010208BF704730B54FF000050AE050EA010208BF704730B511F046
S32D0000C730004502D5404261EB41014FF4806404F132045FEA915C3FF4DCAE4FF003025FEADC0C18BF03325FEAA0
S32D0000C758DC0C18BF033202EBDC02C2F1200300FA03FC20FA02F001FA03FE40EA0E0021FA02F11444C1E600BF19
S32D0000C78070B54FF0FF0C4CF4E06C1CEA11541DBF1CEA135594EA0C0F95EA0C0F00F0DEF82C4481EA030621EAF3
S32D0000C7A84C5123EA4C5350EA013518BF52EA033541F4801143F4801338D0A0FB02CE4FF00005E1FB02E506F05F
S32D0000C7D00042E0FB03E54FF00006E1FB03569CF0000F18BF4EF0010EA4F1FF04B6F5007F64F5407404D25FEA0F
S32D0000C7F84E0E6D4146EB060642EAC62141EA55514FEAC52040EA5E504FEACE2EB4F1FD0C88BFBCF5E06F1ED8D2
S32D0000C820BEF1004F08BF5FEA500E50F1000041EB045170BD06F0004646EA010140EA020081EA0301B4EB5C0487
S32D0000C848C2BFD4EB0C0541EA045170BD41F480114FF0000E013C00F3AB8014F1360FDEBF002001F0004170BDF0
S32D0000C870C4F10004203C35DA0C341BDC04F11404C4F1200500FA05F320FA04F001FA05F240EA020001F0004207
S32D0000C89821F0004110EBD37021FA04F642EB06015EEA430E08BF20EAD37070BDC4F10C04C4F1200500FA04F32F
S32D0000C8C020FA05F001FA04F240EA020001F0004110EBD37041F100015EEA430E08BF20EAD37070BDC4F12005C7
S32D0000C8E800FA05F24EEA020E20FA04F301FA05F243EA020321FA04F001F0004121FA04F220EA020000EBD37028
S32D0000C9105EEA430E08BF20EAD37070BD94F0000F0FD101F00046400041EB010111F4801F08BF013CF7D041EA6D
S32D0000C938060195F0000F18BF704703F00046520043EB030313F4801F08BF013DF7D043EA0603704794EA0C0FF1
S32D0000C9600CEA135518BF95EA0C0F0CD050EA410618BF52EA4306D1D181EA030101F000414FF0000070BD50EA38
S32D0000C988410606BF1046194652EA430619D094EA0C0F02D150EA013613D195EA0C0F05D152EA03361CBF10467B
S32D0000C9B019460AD181EA030101F0004141F0FE4141F470014FF0000070BD41F0FE4141F4780170BD70B54FF04D
S32D0000C9D8FF0C4CF4E06C1CEA11541DBF1CEA135594EA0C0F95EA0C0F00F0A7F8A4EB050481EA030E52EA03359B
S32D0000CA004FEA013100F088804FEA03334FF0805545EA131343EA12634FEA022245EA111545EA10654FEA002676
S32D0000CA280EF000419D4208BF964244F1FD0404F5407402D25B084FEA3202B61A65EB03055B084FEA32024FF461
S32D0000CA5080104FF4002CB6EB020E75EB030E22BFB61A754640EA0C005B084FEA3202B6EB020E75EB030E22BF22
S32D0000CA78B61A754640EA5C005B084FEA3202B6EB020E75EB030E22BFB61A754640EA9C005B084FEA3202B6EBEA
S32D0000CAA0020E75EB030E22BFB61A754640EADC0055EA060E18D04FEA051545EA16754FEA06164FEAC30343EAAC
S32D0000CAC852734FEAC2025FEA1C1CC0D111F4801F0BD141EA00014FF000004FF0004CB6E711F4801F04BF0143AE
S32D0000CAF00020B4F1FD0C88BFBCF5E06F3FF6AFAEB5EB030C04BFB6EB020C5FEA500C50F1000041EB045170BDBC
S32D0000CB180EF0004E4EEA113114EB5C04C2BFD4EB0C0541EA045170BD41F480114FF0000E013C90E645EA060EC3
S32D0000CB408DE60CEA135594EA0C0F08BF95EA0C0F3FF43BAF94EA0C0F0AD150EA01347FF434AF95EA0C0F7FF499
S32D0000CB6825AF104619462CE795EA0C0F06D152EA03353FF4FDAE1046194622E750EA410618BF52EA43067FF432
S32D0000CB90C5AE50EA41047FF40DAF52EA43057FF4EBAE12E74FF0FF3C06E000BF4FF0010C02E000BF4FF0010C75
S32D0000CBB84DF804CD4FEA410C7FEA6C5C4FEA430C18BF7FEA6C5C1BD001B050EA410C0CBF52EA430C91EA030FEC
S32D0000CBE002BF90EA020F0020704710F1000F91EA030F58BF994208BF90422CBFD8176FEAE37040F0010070476E
S32D0000CC084FEA410C7FEA6C5C02D150EA013C07D14FEA430C7FEA6C5CD6D152EA033CD3D05DF8040B704700BFCD
S32D0000CC308446104662468C461946634600E000BF01B5FFF7B7FF002848BF10F1000F01BD4DF808EDFFF7F4FF13
S32D0000CC580CBF012000205DF808FB00BF4DF808EDFFF7EAFF34BF012000205DF808FB00BF4DF808EDFFF7E0FF18
S32D0000CC8094BF012000205DF808FB00BF4DF808EDFFF7CEFF94BF012000205DF808FB00BF4DF808EDFFF7C4FF40
S32D0000CCA834BF012000205DF808FB00BF4FEA410212F5001215D211D56FF47873B3EB625212D94FEAC12343F0D6
S32D0000CCD0004343EA505311F0004F23FA02F018BF404270474FF00000704750EA013005D111F0004008BF6FF016
S32D0000CCF8004070474FF00000704700BF4A0011D212F5001211D20DD56FF47873B3EB62520ED44FEAC12343F085
S32D0000CD20004343EA505323FA02F070474FF00000704750EA013002D14FF0FF3070474FF0000070474FEA410241
S32D0000CD48B2F1E04324BFB3F5001CDCF1FE5C0DD901F0004C4FEAC0024CEA5070B2F1004F40EB830008BF20F09E
S32D0000CD700100704711F0804F21D113F13872BCBF01F00040704741F480114FEA5252C2F11802C2F1200C10FAB1
S32D0000CD980CF320FA02F018BF40F001004FEAC1234FEAD32303FA0CFC40EA0C0023FA02F34FEA4303CCE77FEA26
S32D0000CDC0625307D150EA01331EBF4FF0FE4040F44000704701F0004040F0FE4040F40000704700BF80F00040CC
S32D0000CDE802E000BF81F0004142001FBF5FEA410392EA030F7FEA226C7FEA236C6AD04FEA1262D2EB1363C1BF06
S32D0000CE10D218414048404140B8BF5B42192B88BF704710F0004F40F4000020F07F4018BF404211F0004F41F4FA
S32D0000CE38000121F07F4118BF494292EA030F3FD0A2F1010241FA03FC10EB0C00C3F1200301FA03F100F000432B
S32D0000CE6002D5494260EB4000B0F5000F13D3B0F1807F06D340084FEA310102F10102FE2A51D2B1F1004F40EB94
S32D0000CE88C25008BF20F0010040EA03007047490040EB000010F4000FA2F10102EDD1B0FA80FCACF1080CB2EB5F
S32D0000CEB00C0200FA0CF0AABF00EBC25052421843BCBFD0401843704792F0000F81F4000106BF80F400000132EB
S32D0000CED8013BB5E74FEA41037FEA226C18BF7FEA236C21D092EA030F04D092F0000F08BF0846704790EA010FD7
S32D0000CF001CBF0020704712F07F4F04D1400028BF40F00040704712F100723CBF00F50000704700F0004343F0DC
S32D0000CF28FE4040F4000070477FEA226216BF08467FEA23630146420206BF5FEA412390EA010F40F480007047C1
S32D0000CF504FF0000304E000BF10F0004348BF40425FEA000C08BF704743F0964301464FF000001CE050EA010264
S32D0000CF7808BF70474FF000030AE000BF50EA010208BF704711F0004302D5404261EB41015FEA010C02BF84465B
S32D0000CFA00146002043F0B64308BFA3F18053A3F50003BCFA8CF2083AA3EBC25310DB01FA02FC634400FA02FC6B
S32D0000CFC8C2F12002BCF1004F20FA02F243EB020008BF20F00100704702F1200201FA02FCC2F1200250EA4C0034
S32D0000CFF021FA02F243EB020008BF20EADC7070474FF0FF0C1CEAD0521EBF1CEAD15392EA0C0F93EA0C0F6FD019
S32D0000D0181A4480EA010C400218BF5FEA41211ED04FF0006343EA501043EA5111A0FB01310CF00040B1F5000FE7
S32D0000D0403EBF490041EAD3715B0040EA010062F17F02FD2A1DD8B3F1004F40EBC25008BF20F00100704790F058
S32D0000D068000F0CF0004C08BF49024CEA502040EA51207F3AC2BFD2F1FF0340EAC250704740F400004FF0000388
S32D0000D090013A5DDC12F1190FDCBF00F000407047C2F10002410021FA02F1C2F1200200FA02FC5FEA310040F1D5
S32D0000D0B8000053EA4C0308BF20EADC70704792F0000F00F0004C02BF400010F4000F013AF9D040EA0C0093F04C
S32D0000D0E0000F01F0004C02BF490011F4000F013BF9D041EA0C018FE70CEAD15392EA0C0F18BF93EA0C0F0AD00B
S32D0000D10830F0004C18BF31F0004CD8D180EA010000F00040704790F0000F17BF90F0004F084691F0000F91F0BB
S32D0000D130004F14D092EA0C0F01D142020FD193EA0C0F03D14B0218BF084608D180EA010000F0004040F0FE4051
S32D0000D15840F40000704740F0FE4040F4400070474FF0FF0C1CEAD0521EBF1CEAD15392EA0C0F93EA0C0F69D044
S32D0000D180A2EB030280EA010C49024FEA402037D04FF0805343EA111143EA10130CF000408B4238BF5B0042F14E
S32D0000D1A87D024FF4000C8B4224BF5B1A40EA0C00B3EB510F24BFA3EB510340EA5C00B3EB910F24BFA3EB9103A4
S32D0000D1D040EA9C00B3EBD10F24BFA3EBD10340EADC001B0118BF5FEA1C1CE0D1FD2A3FF650AF8B4240EBC25018
S32D0000D1F808BF20F0010070470CF0004C4CEA50207F32C2BFD2F1FF0340EAC250704740F400004FF00003013AF1
S32D0000D22037E792F0000F00F0004C02BF400010F4000F013AF9D040EA0C0093F0000F01F0004C02BF490011F4C9
S32D0000D248000F013BF9D041EA0C0195E70CEAD15392EA0C0F08D142027FF47DAF93EA0C0F7FF470AF084676E7AE
S32D0000D27093EA0C0F04D14B023FF44CAF08466EE730F0004C18BF31F0004CCAD130F000427FF45CAF31F0004376
S32D0000D2987FF43CAF5FE700BF4FF0FF3C06E000BF4FF0010C02E000BF4FF0010C4DF804CD4FEA40024FEA41039F
S32D0000D2C07FEA226C18BF7FEA236C11D001B052EA530C18BF90EA010F58BFB2EB030088BFC81738BF6FEAE1706E
S32D0000D2E818BF40F0010070477FEA226C02D15FEA402C05D17FEA236CE4D15FEA412CE1D05DF8040B704700BF16
S32D0000D310844608466146FFE70FB5FFF7C9FF002848BF10F1000F0FBD4DF808EDFFF7F4FF0CBF012000205DF839
S32D0000D33808FB00BF4DF808EDFFF7EAFF34BF012000205DF808FB00BF4DF808EDFFF7E0FF94BF012000205DF8A9
S32D0000D36008FB00BF4DF808EDFFF7D2FF94BF012000205DF808FB00BF4DF808EDFFF7C8FF34BF012000205DF8B1
S32D0000D38808FB00BF4FEA4002B2F1FE4F0FD34FF09E03B3EB12620DD94FEA002343F0004310F0004F23FA02F060
S32D0000D3B018BF404270474FF00000704712F1610F01D1420205D110F0004008BF6FF0004070474FF00000704797
S32D0000D3D842000ED2B2F1FE4F0BD34FF09E03B3EB126209D44FEA002343F0004323FA02F070474FF000007047DA
S32D0000D40012F1610F01D1420202D14FF0FF3070474FF00000704700BF036803B11B181846704700BF03685A00DD
S32D0000D4284CBF43F0004323F00043C018704700BF2DE9F84F0446914641B301F1FF3BDA46002707EB0A0101EBE3
S32D0000D450D1756D1004EBC5063046FFF7E3FF8046681CAB4504EBC0000DD0FFF7DBFF0138C84504D9BD4209D052
S32D0000D47805F1FF3AE5E7484505D26F1CE1E74FF0FF30F1E700263046BDE8F88F0E463046BDE8F88F30B52B4B75
S32D0000D4A083B004468D1E002B49D0284601A9AFF300800346002822D02A4618460199FFF7BBFF054600281DD0DD
S32D0000D4C8FFF7ACFF6B68A064012B10D0281D002B22DBFFF7A3FF0021E06421650368002B0FDBFFF79BFF206131
S32D0000D4F0002003B030BD002323610520F9E720610920F6E720610920F3E7C3F3036058B101280CD002280ED068
S32D0000D518002020610920E8E70122E0642265DDE7094B2361E1E7094A00202261DDE7084900202161D9E7074B3B
S32D0000D5400749C81AC2100192B6E700BF0000000069DA000065DA000061DA0000646C0100546E0100036810B549
S32D0000D5680446D80706D4990704F1480009D500F00DFD23685A0709D518070ED5D90613D510BD00F0FBFC23680B
S32D0000D5905A07F5D404F1D00000F004FD23681807F0D404F5D87000F005FD2368D906EBD404F50C70BDE8104059
S32D0000D5B800F040BD2DE9F0470F1D054691460FCFADF5916D02AC261D0FC60FCF0FC60FCF0FC697E80F00D5F8B8
S32D0000D5E00C80D5F818A0002786E80F00216C27602846FFF753FF0646B94514BF4FF00A094FF00909FEB1A16B23
S32D0000D60849F01009616401208DE8100449462A462B46C04700282BD1002E2AD1204692A94FF4107206F06CFCAB
S32D0000D630082F28D1216C2846FFF730FF06464FF00909002EDFD1206C21464FF41072686192A806F059FC2F6963
S32D0000D658294692AA4846B847A09B0746636401208DE8100449462A462B46C0470028D3D00926304622B00DF5B8
S32D0000D680806DBDE8F087072FF6D1201D00F06EFC38B504460D46296C2046FFF7FFFE50B92A6C23696261012058
S32D0000D6A821462A4698470828F1D0072801D008F055FD281D00F056FC11B933B10220704704298CBF022001209A
S32D0000D6D070470F2A01D90220704700EB820118464A68009B1A60704710B50A4684B000210B4603AC0094FFF74B
S32D0000D6F8E3FF039804B010BD11B933B10220704704298CBF0220012070470F2A01D902207047009900EB820219
S32D0000D720096818465160704710B584B004AB0C4643F8042D0021009322460B46FFF7E0FF04B010BD2DE9F04F26
S32D0000D748CD6C8BB00C4655F8041B174600F008021E46039200F003080795002B40F0CF8009020691216D8DF83B
S32D0000D77021300323B8F1020F8DF8203008BFA56B11F0010340F0D380019304F158030293D5F80090B9F1000F97
S32D0000D79800F0CB80022E00F0AE80B5F80090B5F802A00435A26C0F212AF0010B38469344FFF796FF834518D819
S32D0000D7C029F0010CE3440AF0010A09F00103584543EA4A092CBF00200120B9F1010F12D032D2B8F1000F02D079
S32D0000D7E8002840F01D810435CEE70AF0010A09F0010343EA4A090020B9F1010FECD1B8F1000F40F0B680C8B17F
S32D0000D8106B68D5F800909A1C19D0029A013309920DD0281DFFF7F8FD4FEAD972014609AB204607F001FD0028A1
S32D0000D83800F0F280099A002A40F0BA800835A3E7B9F1020F03D009200BB0BDE8F08F2B6823F000420092B8F1A9
S32D0000D860000F71D1002843D00398002840F0A1800098002800F0A080009BDDF80C90DB0705F1040A40F1B480D3
S32D0000D888CDF810800596A846029E12E000998D4200F0D9800996FFF7BBFD5A46014609AB204607F0C5FCA9465C
S32D0000D8B0B0B90AF1040A05F1010950460996FFF7ABFD09AB01460022204607F0B5FC0AF1040A834609F1010508
S32D0000D8D85046BBF1000FD9D04546059EDDF81080009A4A4564D02B68002B7BDB0099481C05EB800548E7D5F8B6
S32D0000D90004A0083552E70B04C1F30740216D06930222B8F1020F05EB800508BFA56B8DF8210011F001038DF854
S32D0000D92820203FF42DAF00200190384606A900F019FC002887D1019A002A43D1082083E70D213846D4F820908C
S32D0000D950FFF7CAFE8145CAD1A26A9542C7D10098291D00220423A062E26223636163286800286EDB01220192A1
S32D0000D978BCE70D213846D4F82090FFF7B1FE81457FF45CAFA16A8D427FF458AF2846FFF745FD0F2102463846DD
S32D0000D9A0FFF7C2FE384600212246FFF7BDFE07204EE7009900299BD138460D21FFF794FE099B20626362A5623B
S32D0000D9C8062041E70F213846FFF78AFE0E2102463846FFF7A5FE38460F211E4AFFF7A0FE072031E7043581E79F
S32D0000D9F0029950460991FFF70FFD039A014609AB204607F019FC00287FF46EAFCDF8108005960AF1040A4FF042
S32D0000DA180109A846029E4CE7CDF824800835B3E62846FFF7FBFC04350646A563204607F075FC00283FF407AF0F
S32D0000DA4038460F213246FFF76FFE072000E74546B2E7009B591C05EB81009CE78D54010002236FE601236DE626
S32D0000DA6800236BE62DE9F0470446E8B004290CD8DFE801F0380391930F00150C012B96B200F07881052B00F018
S32D0000DA90C780022068B0BDE8F087002BF9D1102AF7D82368D90600F1738164A8019200F0CFFA019AA36BD007A6
S32D0000DAB844BF53F8040B6490910744BF53F8041B6591500744BF53F8041B6691110748BF53F8042B64A8A3638E
S32D0000DAE048BF679200F0AAFA0020D3E7002BD0D1A36BD00791B244BF53F8042B62608A0744BF53F8042BA26067
S32D0000DB08480744BF53F8042BE2600A0744BF53F8042B2261C80644BF53F8042B62618A0644BF53F8042BA261B2
S32D0000DB30480644BF53F8042BE2610A0644BF53F8042B2262C80544BF53F8042B62628A0544BF53F8042BA2628A
S32D0000DB58480544BF53F8042BE2620A0544BF53F8042B2263C80444BF53F8042B626311F400501CBF53F8042BC8
S32D0000DB80A2634A0444BF53F8042BE2630A0444BF53F8042B2264002840D1A3637AE7012078E7032B7FF475AF6C
S32D0000DBA8160C95B2AA19102A3FF66FAF2368180700F10B8144A800F01BFAA76B4FEA450E3B460DB344A90EF1B3
S32D0000DBD0FF3C01EBC60653F8040B62460CF0010146F8040B92B129B153F8041B013A46F8041B0BD01846314618
S32D0000DBF850F8045B41F8045B5D68031D75600E1D023AF3D107EB8E0344A8A36300F0CEF900203BE7002039E72D
S32D0000DC2077192022BA42FFF434AF012B00F0A9800F2D40F2A9803746F6B1052B7FF429AF0F2D11D82268D00731
S32D0000DC480ED522F00101052B2160204600F0DA8022F0030240F8482B019300F093F9019B1FB12268510700F145
S32D0000DC70B880012B00F0BF800F2D75D9002F40F0A080D4F83890002EC8462EDD49460DF1080A4FEA46080AEBF4
S32D0000DC98C50251F8046B08F1FF3000F0010A42F8046BA8F1020CD0B1BAF1000F08D051F8040B0CF1FF3CBCF11C
S32D0000DCC0FF3F42F8040B0ED00E46104656F804AB40F804AB4968ACF1020C5160311D021DBCF1FF3FF0D109EB29
S32D0000DCE88808A7B3102D2CBF2E4610260DF5D079414609EBC60CACF5C8724FEA470951F8046B09F1FF3000F085
S32D0000DD10010A42F8046BA9F1020CD0B1BAF1000F08D051F8040B0CF1FF3CBCF1FF3F42F8040B0ED00E4610462A
S32D0000DD3856F804AB40F804AB4968ACF1020C5160311D021DBCF1FF3FF0D108EB8908012B2BD00F2DC4F8388058
S32D0000DD6008D9FFB9384695E602A8019300F016F9019B83E702A800F00DF9F2E77719102250E70F2D3FF685AEAA
S32D0000DD88102F10D9103F54E723F01003236004F50C70019200F058F9019A82E624A800F0FDF8002072E6002776
S32D0000DDB046E708F1040302A8A36300F0E3F8002068E624A80193C5F1100600F0EFF8019B57E723F0080704F537
S32D0000DDD8D870276000F00CF9ECE6204622F0040140F8D01B019300F0DDF8019B3DE702A8019300F0C7F8019B45
S32D0000DE00002F3FF43EAFC5F110063AE741F0020140F8481B019300F0C1F8019B24E700BF406C7047F0B50D46EB
S32D0000DE280F1DC96B296404460FCFADF5117D01AE0FC60FCF0FC60FCF0FC697E80F0086E80F004FF0FF3300938E
S32D0000DE5010992046FFF722FB58B9266921466A46B04708280646F3D06846FFF77BFB062E03D009200DF5117DBB
S32D0000DE78F0BD20462946FFF707FC00BF10B4DC6BC1608261194600221C6410BCFFF792BB38B54269C3680A64F2
S32D0000DEA004460D4623B10122FFF788FB08F05AF90369214602202A469847072803D0082804D008F04FF9281D2D
S32D0000DEC800F050F820462946FFF7DEFBC36823B1CA6B0A640022FFF76DBB9FE7704700BF08B5836801460BB1C7
S32D0000DEF00120984708BD00BFF0B5D46B171D146405460C460FCFADF5277D01AE0FC60FCF0FC60FCF0FC697E8C6
S32D0000DF180F0086E80F004FF0FF330093109990A8FFF7B8FA034690AA68460C21BBB9FFF7F7FB21466846A84704
S32D0000DF40064690A908206A466EB9949B98470528064601D00928E5D16846FFF703FB30460DF5277DF0BD092656
S32D0000DF68F6E700BF00F1340191E838009C46A6464CF8045D90E8FF0FE54600BD90EC210B704700BF80EC210B81
S32D0000DF90704700BF90EC200B704700BF80EC200B704700BFD0EC200B704700BFC0EC200B704700BFF0EC02013A
S32D0000DFB8F0EC0211F0EC0221F0EC0231F0EC0241F0EC0251F0EC0261F0EC0271F0EC0281F0EC0291F0EC02A115
S32D0000DFE0F0EC02B1F0EC02C1F0EC02D1F0EC02E1F0EC02F1704700BFE0EC0201E0EC0211E0EC0221E0EC023196
S32D0000E008E0EC0241E0EC0251E0EC0261E0EC0271E0EC0281E0EC0291E0EC02A1E0EC02B1E0EC02C1E0EC02D184
S32D0000E030E0EC02E1E0EC02F1704700BFB0FC0181B0FC0191B0FC01A1B0FC01B1704700BFA0FC0181A0FC019104
S32D0000E058A0FC01A1A0FC01B1704700BFEC4600B52DE900502DE9FF1F4FF000032DE90C0001A9FFF7D3FEDDF86D
S32D0000E08040E012B0704700BFEC4600B52DE900502DE9FF1F4FF000032DE90C0001A9FFF7FBFEDDF840E012B0E5
S32D0000E0A8704700BFEC4600B52DE900502DE9FF1F4FF000032DE90C0001A9FFF707FFDDF840E012B0704700BF1C
S32D0000E0D0EC4600B52DE900502DE9FF1F4FF000032DE90C0001ABFFF7CDFEDDF840E012B0704700BFEC4600B5BC
S32D0000E0F82DE900502DE9FF1F4FF000032DE90C0001AAFFF7F5FEDDF840E012B0704700BF027A03461AB9427AE7
S32D0000E12042B9B02070470068013A01021A72000E196070474168501E587251F8040B0322596001021A72000E2B
S32D0000E1481960704710B5002184B00C220DEB02040B460094FFF7B0FA039804B010BD00BFF0E700BF2DE9F043F4
S32D0000E170064685B00D464FF000094FF47F672846FFF7CAFFB028044600F0B08010F0800120D000F0F003802BCE
S32D0000E19874D0902B37D0A02B45D0B02B56D0C02B00F0858000F0F800D0280BD104F00702511C41F4002230469F
S32D0000E1C001210523FFF752FC0028D8D0092005B0BDE8F0834FEA800203A85FFA82F800900D220B463046FFF728
S32D0000E1E86BFA039B600608F104084CBFC8EB0303434403AC03930094002130460D220B46FFF77AFAB7E700F068
S32D0000E2100F020D2ADAD00F2AD8D0002103AC009430460B4603ACFFF74BFA0094E8E7C24302F0070C47FA0CF04E
S32D0000E238210700F47F6248BF42F48042002130460B46FFF70FFC0028BCD194E7B1285DD0B2286ED0B32800F0BA
S32D0000E260958000F0FC02B42A46D000F00702531C43F40022012130460B46FFF7F7FB0028A4D17CE72846FFF7A3
S32D0000E28847FF210240EA0104B4F5004F9AD0230500211A0C30460B462401FFF7E3FB002890D114F4004F18BF88
S32D0000E2B04FF0010963E7C62873D0C72800F0848000F0F802C02A00F09280C82800F0A680C9287FF47BAF2846C1
S32D0000E2D8FFF71EFF00F00F0300F0F0015A1C42EA013268E7B9F1000F00F0838000206AE700F00301481C022166
S32D0000E30040F480220B463046FFF7B0FB00287FF45DAF34E72846FFF7FFFE024600283FF455AF10F0F0017FF483
S32D0000E32851AF30460B46FFF79DFB00287FF44AAF21E700210D220B4603AC30460094FFF7BBF92846FFF7E4FE8C
S32D0000E350022402060DD5039B00F07F0000FA04FE03EB0E0128460391FFF7D6FE07340306F1D4039B00F07F01A6
S32D0000E37803AA03F5017C01FA04F400920CEB0402039239E72846FFF7C3FE00F00F03591C00F0F00041EA003245
S32D0000E3A068E72846FFF7B8FE00F00F03591C00F0F00041EA0032032130460B46FFF756FB00287FF403AFDAE6F3
S32D0000E3C82846FFF7A5FE024600283FF4FBAE10F0F0037FF4F7AE30460421FFF743FB00287FF4F0AEC7E600F024
S32D0000E3F00F01481C40F42022DDE703AC49460E224B4630460094FFF75BF9304649460F224B460094FFF774F940
S32D0000E4184846D8E62846FFF77BFE00F0F00200F00F001032431C43EA0232C4E610B5C26C84B0032054688DF895
S32D0000E4400C00D37924020832084601A9019402928DF80D30FFF78AFE04B010BD08B5FFF783FE806C08BD00BF70
S32D0000E46808B5FFF77DFEC16CC87901EB800303F1080008BD08B507F071FE00BF08B507F06DFE00BFB0B582B063
S32D0000E49002AF4FF0030006F0C9FD044620464FF0030102F063F943F22863C1F6FF731C604FF0010006F0BAFD1C
S32D0000E4B8044620464FF0000101F084FE43F22C63C1F6FF731C604FF0010006F0ABFD044620464FF0040101F0A7
S32D0000E4E075FE43F23063C1F6FF731C604FF0010006F09CFD044620464FF0020101F092FC43F23863C1F6FF73F5
S32D0000E5081C604FF0010006F08DFD044620464FF0010101F083FC43F23463C1F6FF731C604FF0010006F07EFD26
S32D0000E530044620464FF0030101F074FC43F23C63C1F6FF731C604FF0020006F06FFD044620464FF0000101F06C
S32D0000E55877F843F24063C1F6FF731C604FF0020006F060FD044620464FF0010101F068F843F24463C1F6FF73CE
S32D0000E5801C604FF00C0006F051FD044620464FF0000102F0B5FA43F24863C1F6FF731C6043F24863C1F6FF7343
S32D0000E5A81B6818464FF4FA7102F0C4FA43F24863C1F6FF731B68184640F67F1102F0D8FA43F25463C1F6FF737D
S32D0000E5D043F2A062C1F6FF721A604FF0100006F025FD044643F25463C1F6FF73196843F22863C1F6FF731A6892
S32D0000E5F843F22C63C1F6FF731B68204600F00EFB43F24C63C1F6FF731C604FF0240006F009FD044643F240631C
S32D0000E620C1F6FF73196843F24463C1F6FF731A6843F23463C1F6FF731D6843F23863C1F6FF731B68009343F2DD
S32D0000E6485863C1F6FF73019320462B4600F0A0FB43F25063C1F6FF731C6043F25463C1F6FF731B6818464FF008
S32D0000E670000102F0E3FF43F25463C1F6FF731B6818464FF0010103F037F800F001F8E8E7F0B589B000AF43F2D4
S32D0000E6985860C1F6FF7004F0E3FD43F25860C1F6FF7005F097FA43F24C63C1F6FF731B68184600F0CDFA43F22F
S32D0000E6C04C63C1F6FF731B68184600F0F9FA43F24863C1F6FF731B681846794902F06CFA43F25063C1F6FF737B
S32D0000E6E81B6818464FF064014FF00002734B00F0DDFB4FF000004FF07E5101F5E00101F007FB43F24863C1F60A
S32D0000E710FF731B6818466C4902F04EFA43F23063C1F6FF731B68184601F062FD0346FB61664BBB61664B7B6178
S32D0000E738664B3B6101F018FB02460B4610461946FEF7FCFA0346FB607BE043F23063C1F6FF731B68184601F067
S32D0000E76047FD0346BB60F869B969FEF73FFB03464FF0010214461846B968FEF7FDFD0346002B02D14FF0000355
S32D0000E7881C46FC7143F25463C1F6FF731A68FB79002B04D046F22433C0F2010303E046F22833C0F201031046C3
S32D0000E7B0194602F0F5FF43F25463C1F6FF731B681846B96803F01AF843F25463C1F6FF731B68184646F22C314F
S32D0000E7D8C0F2010102F0E0FF43F25463C1F6FF731C68F869B969FEF7FDFA03462046194603F000F8FB79002BEE
S32D0000E8000FD043F25063C1F6FF731C683869FEF7BDFD034620464FF041011A4600F028FB0EE043F25063C1F6F6
S32D0000E828FF731C683869FEF7ADFD0346204619464FF0410200F018FB1DA1D1E9000101F067FA43F23C63C1F6A3
S32D0000E850FF731B68184601F015FC0346002B3BD001F086FA02460B46104619464FF000024FF0804303F50013B9
S32D0000E878FDF7CEFD02460B4614461D46F868FDF727FF02460B464FF001010E4620462946FEF7E4F90346002B9A
S32D0000E8A002D14FF000031E46F3B2002B14D04FF0010313E0AFF300807B14AE47E17A843F00003442000000406D
S32D0000E8C80000F0429A99993E0000803F000000004FF00003002B7FF438AF43F25063C1F6FF731B6818464FF02F
S32D0000E8F000014FF0000200F077FA4FF000004FF07E5101F5E00101F007FA43F24863C1F6FF731B681846A94965
S32D0000E91802F04EF94FF000004FF07E5101F5E00101F0F6F943F24863C1F6FF731B681846A14902F03DF94FF059
S32D0000E94000004FF07E5101F5E00101F0E5F943F24863C1F6FF731B681846984902F02CF943F25063C1F6FF7302
S32D0000E9681B6818464FF055014FF000024FF0000300F0DAFB43F24863C1F6FF731B6818468E4902F015F94FF0C3
S32D0000E99000004FF07E5101F5E00101F0BDF943F25063C1F6FF731B6818464FF046014FF00002854B00F07EFADC
S32D0000E9B84FF000004FF07E5101F5E00101F0A8F943F24863C1F6FF731B681846794902F0EFF843F25063C1F657
S32D0000E9E0FF731B6818466FF063014FF00002774B00F060FA4FF000004FF07E5101F5E00101F08AF943F2506326
S32D0000EA08C1F6FF731B6818464FF064014FF000026D4B00F04BFA43F25063C1F6FF731B6818466FF063014FF010
S32D0000EA300002674B00F03EFA4FF000004FF0804101F5002101F068F943F25063C1F6FF731B6818464FF0000102
S32D0000EA584FF001024FF0000300F066FB43F25063C1F6FF731B6818464FF050014FF001024FF0000300F058FB72
S32D0000EA804FF000004FF07E5101F5E00101F044F943F25063C1F6FF731B6818464FF064014FF000024B4B00F0B9
S32D0000EAA805FA4FF000004FF07E5101F5E00101F02FF943F25063C1F6FF731B6818464FF000014FF000024FF052
S32D0000EAD0010300F02DFB4FF000004FF07E5101F5E00101F019F943F25063C1F6FF731B6818466FF063014FF0E1
S32D0000EAF80002354B00F0DAF94FF000004FF07E5101F5E00101F004F943F25063C1F6FF731B6818464FF05A010D
S32D0000EB204FF000024FF0010300F002FB4FF000004FF07E5101F5E00101F0EEF843F24863C1F6FF731B68184671
S32D0000EB481E4902F035F84FF000004FF07E5101F5E00101F0DDF843F25063C1F6FF731B6818464FF064014FF05A
S32D0000EB700002194B00F09EF94FF000004FF07E5101F5E00101F0C8F843F24863C1F6FF731B68184602F0E6F8FB
S32D0000EB9843F25063C1F6FF731B6818466FF063014FF00002064B00F081F907F12407BD46F0BD00BF0000B44216
S32D0000EBC00000344200002C430000803F9A99993E0000003F000020400000C03FAFF3008080B582B000AF7860CB
S32D0000EBE839607B68012B0AD13A684FF6FF739A4205D143F25860C1F6FF7004F0EDFA07F10807BD4680BD00BF7D
S32D0000EC1080B500AF4FF001004FF6FF71FFF7E0FF80BD00BF80B485B000AFF860B9607A603B60FB68BA685A60EF
S32D0000EC38FB687A681A60FB683A689A60FB68184607F11407BD4680BC704700BF0000000080B582B000AF786079
S32D0000EC607B685B68184646F2A431C0F2010102F097FD7B681B68184601F010FE0346002B11D07B685B6818461F
S32D0000EC8846F2BC31C0F2010102F03AFE7B685B68184602F0F9FC07F10807BD4680BD04A1D1E9000101F034F8AC
S32D0000ECB0DFE700BFAFF300807B14AE47E17A943F90B585B000AF78607B689B68184601F08FFA0346FB60FB6817
S32D0000ECD8BB607B689B68184601F086FA0346FB607B685B68184646F2C031C0F2010102F053FD7B685B68184673
S32D0000ED00F96802F015FEF868B968FEF76FF803464FF00102144618461D49FEF70FFB0346002B02D14FF0000371
S32D0000ED281C46E3B2002B09D07B685B68184646F2CC31C0F2010102F0E3FD1DE07B681B68184601F0BBFD034650
S32D0000ED50002B0AD07B685B68184646F2D431C0F2010102F0D1FD00BF0AE007A1D1E9000100F0D2FF7B685B6868
S32D0000ED78184602F089FCACE707F11407BD4690BD9A9999999999B93F0000C0BEAFF3008080B485B000AFF86003
S32D0000EDA0B9607A603B60FB68BA681A60FB687A685A60FB683A689A60FB68BA69DA60FB68FA699A61FB68064A86
S32D0000EDC8DA61FB68054A1A62FB68184607F11407BD4680BC704700BF398EE33E0000704290B587B000AFF8600E
S32D0000EDF0B9607A60BA687B68D3187B61BA687B68D31A3B617B69642B02DD4FF064037B617B6913F1640F02DA9D
S32D0000EE186FF063037B613B69642B02DD4FF064033B613B6913F1640F02DA6FF063033B61FB681C687B69C3F100
S32D0000EE4000031846FEF788F803462046194600F00FFCFB685C683869FEF77EF803462046194600F005FC07F19B
S32D0000EE681C07BD4690BD00BF90B585B000AFF860B9607A60FB681C68BB68C3F100031846FEF766F803462046B5
S32D0000EE90194600F0EDFBFB685C687868FEF75CF803462046194600F0E3FB07F11407BD4690BD00BF80B584B066
S32D0000EEB800AFF860B9607A603B60F868B9687A68FFF78EFF386800F0FDFEF8684FF000014FF00002FFF784FFCC
S32D0000EEE007F11007BD4680BDB0B58CB000AFF860B9601346FB71FB689B69184604F0DEFE03461846FEF742FAC2
S32D0000EF0803463B623B6AFB61FA69BB68D318BB61BB69FB624FF0000387F82B304FF0000387F82A30BB68002B61
S32D0000EF30D4BF00230123FB75BB684FEAD373BB75BB69B32B07DDFB6AA3F1B403FB624FF0010387F82A30BB6964
S32D0000EF58002B07DAFB6A03F1B403FB624FF0010387F82B30FB689B69184604F0A3FE03461846FEF707FA0346B5
S32D0000EF803B623B6A7B6297F82A30002B06D03B6A592B03DC7B6A03F1B4037B6297F82B30002B06D03B6A5A2BD0
S32D0000EFA803DD7B6AA3F1B4037B627A6ABB69D31A3B61FB7D002B3ED0FB79002B1BD1FB681C6AFB68DD6938694E
S32D0000EFD0FDF7C2FF034628461946FEF711F8034620461946FDF702FF03461846FEF7CEF90346F8684FF00001FB
S32D0000EFF81A46FFF739FFFB79012B1CD1FB68DC693869FDF7A5FF034620461946FDF7F4FF03461A46FB681B6A69
S32D0000F02010461946FDF7E2FE03461846FEF7AEF90346F86819464FF00002FFF719FFBB7D002B3FD0FB79002B8E
S32D0000F0481DD1FB681B6A83F00044FB68DD693869FDF77EFF034628461946FDF7CDFF034620461946FDF7BEFEBE
S32D0000F07003461846FEF78AF90346F8684FF000011A46FFF7F5FEFB79012B1BD1FB681C6AFB68DD693869FDF76E
S32D0000F0985FFF034628461946FDF7AEFF034620461946FDF7A1FE03461846FEF76BF90346F86819464FF000024B
S32D0000F0C0FFF7D6FE3B69052B0ADDFB7D002B1FD0F8684FF000014FF00002FFF7C9FE1DE03B6913F1050F0ADAD0
S32D0000F0E8BB7D002B10D0F8684FF000014FF00002FFF7BAFE0EE0F8684FF000014FF00002FFF7B2FE00BF05E00F
S32D0000F11005A1D1E9000100F0FFFD27E707F13007BD46B0BDAFF300807B14AE47E17A843F80B586B000AFF860A1
S32D0000F138B960FA71BB71FB689B69184604F0BAFD03461846FEF71EF903463B614FF000037B61FB79002B12D151
S32D0000F160BA683B699A4204DDBA683B69D31A7B6109E0BA683B699A4205DABB6803F1B4023B69D31A7B61FB7957
S32D0000F188012B12D1BA683B699A4206DDBB68A3F1B4023B69D31A7B6107E0BA683B699A4203DABA683B69D31AD2
S32D0000F1B07B617B695A2B0ADC7B6913F15A0F06DBBB79F86879691A46FFF78EFE19E07B694FEAD372D3184FEAFD
S32D0000F1D863031A46BB79F86811461A46FFF780FE7B694FEAD372D3184FEA63031A46BB79F86811461A46FFF7F7
S32D0000F20073FE07F11807BD4680BD00BF80B500AF43F67872C1F6FF7243F22863C1F6FF73D31A194643F2286335
S32D0000F228C1F6FF731A460B4610464FF000011A4604F06FFE80BD00BF05F0D8FE00F0B0F9FFF7E0FF05F0AAFEB5
S32D0000F25005F046FE05F0DEFE00F00CF84FF0000043F26061C1F6FF71FFF710F90346184604F02EFE80B500AF8C
S32D0000F2784FF4E043C4F204034FF4E042C4F2040202F5805202F13802126842F4785203F5805303F138031A6040
S32D0000F2A000F02EF900F094F843F26C63C1F6FF734FF058021A6043F26C63C1F6FF731B684FF47A7202FB03F29C
S32D0000F2C843F26863C1F6FF731A6043F26863C1F6FF731B681A464FF4E043C4F2040303F5825303F104031B68FB
S32D0000F2F003F070634FEA136303F10103B2FBF3F31A4643F27063C1F6FF731A604FF4E043C4F204034FF4E0425D
S32D0000F318C4F2040202F5805202F13C02126842F0225203F5805303F13C031A604FF4E043C4F204034FF4E042F1
S32D0000F340C4F2040202F5805202F13002126842F0006203F5805303F130031A604FF45043C4F203034FF48072B4
S32D0000F3681A614FF0640000F027FB4FF45043C4F203034FF45042C4F20302526922F010025A614FF45043C4F2FF
S32D0000F39003034FF000021A604FF45043C4F203034FF010025A6101F075F801F01DF943F26460C1F6FF7000F07C
S32D0000F3B887FB43F2A060C1F6FF7002F023F841F2883000F065FC80BD80B400AF4FF48043C4F206034FF00002DB
S32D0000F3E05A704FF48043C4F206034FF098021A704FF48043C4F206039B79DBB203F01003002B0CBF0023012364
S32D0000F408DBB2002BF0D14FF48043C4F206039B79DBB203F00C034FEA9303022B0CBF00230123DBB2002BEED170
S32D0000F4304FF48043C4F206034FF018021A714FF48043C4F206034FF000025A714FF4E043C4F2040303F5825344
S32D0000F45803F104034FF00002C0F213121A604FF48043C4F206034FF054025A7100BF4FF48043C4F206039B793C
S32D0000F480DBB203F02003002B14BF00230123DBB2002BF0D100BF4FF48043C4F206039B79DBB203F04003002B77
S32D0000F4A814BF00230123DBB2002BF0D14FF48043C4F206034FF48042C4F206021278D2B202F03F02D2B21A70CC
S32D0000F4D04FF48043C4F206039B79DBB203F00C034FEA9303032B0CBF00230123DBB2002BEED14FF00003184680
S32D0000F4F8BD4680BC704700BF80B400AF4FF44043C4F204034FF480725A634FF2C003C4F20F034FF2C002C4F254
S32D0000F5200F02526942F400525A614FF2C003C4F20F034FF2C002C4F20F02126842F400521A604FF44043C4F220
S32D0000F548040340F20312C0F20A021A634FF46143CEF200034FF46142CEF20002D2F8882142F08062C3F88821CF
S32D0000F5704FF46143CEF200034FF46142CEF20002926842F080629A60BD4680BC704700BF80B483B000AF786070
S32D0000F598FEE700BF80B400AF00BEBD4680BC704780B400AF4FF0E0224CF20003C0F20003C2F8083D4FF400535B
S32D0000F5C0C4F205034CF22052DA814FF40053C4F205034DF62812DA814FF40053C4F205034FF0D2021A80BD4624
S32D0000F5E880BC704780B400AF4FF44043C4F20403D3F8A03003F48053002B0CBF00230123DBB2002B19D04FF416
S32D0000F6104043C4F204034FF44042C4F20402D2F8A02022F48052C3F8A0204FF2C003C4F20F034FF2C002C4F299
S32D0000F6380F02126822F400521A60BD4680BC704780B483B000AF78600B46FB707B68FA781A707B684FF0000294
S32D0000F6605A707B68184607F10C07BD4680BC704790B585B000AF786039604FF001031C4638682F49FDF75AFECD
S32D0000F6880346002B02D14FF000031C46E3B2002B02D0294B3B6011E04FF001031C4638682649FDF765FE034683
S32D0000F6B0002B02D14FF000031C46E3B2002B01D0204B3B603868FDF707F802460B46104619464FF000024FF092
S32D0000F6D8804303F5B203FDF779F902460B461046194613A3D3E90023FDF746F802460B4610461946FDF7DAFA03
S32D0000F7000346FB737B685B78FA7B9A420FD07B68FA7B5A707B681A78FB7B43F26460C1F6FF7011461A464FF01C
S32D0000F7281E0300F017FA07F11407BD4690BD00BF0000000000C05F400000C8C20000C84290B486B000AFF860FB
S32D0000F750B9607A60FA684FF42043C4F206039A4214D14FF4E043C4F204034FF4E042C4F2040202F5805202F110
S32D0000F7783402126842F4806203F5805303F134031A6083E0FA684FF43043C4F206039A4214D14FF4E043C4F214
S32D0000F7A004034FF4E042C4F2040202F5805202F13402126842F4006203F5805303F134031A6067E0FA684FF4B3
S32D0000F7C84043C4F206039A4214D14FF4E043C4F204034FF4E042C4F2040202F5805202F13402126842F4805258
S32D0000F7F003F5805303F134031A604BE0FA684FF45043C4F206039A4214D14FF4E043C4F204034FF4E042C4F25A
S32D0000F818040202F5805202F13402126842F4005203F5805303F134031A602FE0FA684FF42043C4F20E039A429E
S32D0000F84014D14FF4E043C4F204034FF4E042C4F2040202F5805202F12802126842F4806203F5805303F128030F
S32D0000F8681A6013E04FF4E043C4F204034FF4E042C4F2040202F5805202F12802126842F4006203F5805303F10A
S32D0000F89028031A60FB68DB78DBB223F00C03DAB2FB68DA70FB684FF000029A70BB684FF47A7202FB03F27B6832
S32D0000F8B84FEA031392FBF3F39CB2FB681B78DBB223F01F03FB75234603F4F8534FEA2323DBB203F01F03DAB292
S32D0000F8E0FB7D1343DAB2FB681A70E2B2FB685A70BB684FF4FA4202FB03F27B684FEA031392FBF3F39AB2234604
S32D0000F90819464FEAC121CB1A4FEA43139BB2D3189CB2FB689B7ADBB223F01F03FB75E3B203F01F03DAB2FB7D05
S32D0000F9301343DAB2FB689A72FB68DB78DBB243F00C03DAB2FB68DA7007F11807BD4690BC704700BF80B483B057
S32D0000F95800AF786000BF7B681B79DBB203F02003002B14BF00230123DBB2002BF3D17B68DB79DBB2184607F146
S32D0000F9800C07BD4680BC704780B483B000AF78600B46FB7000BF7B681B79DBB2DBB26FEA0303DBB24FEAD3134B
S32D0000F9A8DBB2002BF3D17B68FA78DA7107F10C07BD4680BC704700BF80B483B000AF78604FF4E043C4F2040344
S32D0000F9D04FF4E042C4F2040202F5805202F13802126842F0010203F5805303F138031A604FF00003C4F20403D0
S32D0000F9F87A689A604FF00003C4F204034FF005025A604FF00003C4F204034FF00002C4F20402126842F001025B
S32D0000FA201A6000BF4FF00003C4F204031B6803F08003002B14BF00230123DBB2002BF1D14FF00003C4F20403C9
S32D0000FA484FF00002C4F20402126822F001021A6007F10C07BD4680BC704700BF80B582B000AF786039607B6860
S32D0000FA70012B0AD13A684FF6FF739A4205D143F26460C1F6FF7000F00FF807F10807BD4680BD00BF80B500AF56
S32D0000FA984FF001004FF6FF71FFF7E0FF80BD00BF80B483B000AF78607B684FF000021A707B68184607F10C0792
S32D0000FAC0BD4680BC704700BF80B582B000AF78607B681B7883F00103DBB2002B36D04FF4E043C4F2040303F5AF
S32D0000FAE8805303F128034FF400621A604FF45043C4F204034FF440721A624FF45043C4F204034FF440725A6297
S32D0000FB1043F26863C1F6FF731B684FEAD372D3184FEA63034FF43040C4F20E0019464FF46142FFF709FE4FF01B
S32D0000FB38640000F0ADF87B684FF001021A704FF0010301E04FF00003184607F10807BD4680BD00BF80B582B0C6
S32D0000FB6000AF7860F970BA707B704FF43040C4F20E004FF07F01FFF707FF4FF43040C4F20E004FF00801FFF78B
S32D0000FB88FFFEFB784FF43040C4F20E001946FFF7F7FEBB784FF43040C4F20E001946FFF7EFFE7B784FF430408C
S32D0000FBB0C4F20E001946FFF7E7FE4FF43040C4F20E004FF0FF01FFF7DFFE07F10807BD4680BD00BF80B487B02F
S32D0000FBD800AFF860B9607A60FA6844F6D353C1F26203A3FB02134FEA9312BB68D3187B61FA6844F6D353C1F23B
S32D0000FC006203A3FB02134FEA93134FF47A7101FB03F3D31AFB60FB684FEAC33244F6D353C1F26203A3FB0213BB
S32D0000FC284FEA93127B68D3183B613B694FEAD3337A69D3187B613B694FEA43434FEA53433B614FF45043C4F27F
S32D0000FC5003031B681A467B699A4211D34FF45043C4F203031B681A467B699A420BD14FF45043C4F203035B6893
S32D0000FC781A463B699A4202D24FF0010301E04FF00003002BDDD107F11C07BD4680BC704780B584B000AF78606A
S32D0000FCA04FF45043C4F203031B68FB604FF45043C4F203035B68BB607B681846F968BA68FFF788FF07F1100706
S32D0000FCC8BD4680BD80B584B000AF78604FF45043C4F203031B68FB604FF45043C4F203035B68BB6078680849CD
S32D0000FCF0FDF786F903461846FDF76EFB03461846F968BA68FFF766FF07F11007BD4680BD00007A4400000000DD
S32D0000FD1880B584B000AFC7E900014FF45043C4F203031B68FB604FF45043C4F203035B68BB60D7E900010AA3A6
S32D0000FD40D3E90023FCF71CFD02460B4610461946FCF7D8FF03461846F968BA68FFF73AFF07F11007BD4680BDEA
S32D0000FD680000000000408F4080B584B000AF4FF45043C4F203031B68FB604FF45043C4F203035B68BB60F86806
S32D0000FD90FCF780FC02460B46C7E90023B868FCF779FC02460B46104619464FF000024FF0804303F56003FCF703
S32D0000FDB80DFE02460B46D7E90001FCF72BFB02460B46C7E90023D7E900231046194607F11007BD4680BD00BF8D
S32D0000FDE080B483B000AF4FF45043C4F203031B684FF47A7202FB03F37B604FF45043C4F203035B684FF47A7249
S32D0000FE0802FB03F34FEAD3337A68D3187B607B68184607F10C07BD4680BC704780B582B000AF78600B46FB7006
S32D0000FE30FB787868194600F013F87B68184607F10807BD4680BD00BF80B483B000AF78607B68184607F10C0776
S32D0000FE58BD4680BC704700BF80B483B000AF78600B46FB707B68FA781A707B681B781A4646F26853C0F20103BF
S32D0000FE809B5C042B00F2F98001A252F823F000BFA5FE000003FF000061FF0000BFFF00001D0001004FF410438D
S32D0000FEA8C4F204037A681278114646F2AC52C0F2010252F8212040F2031143F822104FF47043C4F20F034FF482
S32D0000FED07042C4F20F02526911467A681278104646F2AC52C0F2010252F8202002F01F024FF0010000FA02F201
S32D0000FEF86FEA02020A405A61BBE04FF42043C4F204037A681278114646F2AC52C0F2010252F8212040F20311FD
S32D0000FF2043F822104FF24003C4F20F034FF24002C4F20F02526911467A681278104646F2AC52C0F2010252F8A7
S32D0000FF48202002F01F024FF0010000FA02F26FEA02020A405A618CE04FF43043C4F204037A681278114646F2CE
S32D0000FF70AC52C0F2010252F8212040F2031143F822104FF28003C4F20F034FF28002C4F20F02526911467A6868
S32D0000FF981278104646F2AC52C0F2010252F8202002F01F024FF0010000FA02F26FEA02020A405A615DE04FF4C3
S32D0000FFC04043C4F204037A681278114646F2AC52C0F2010252F8212040F2031143F822104FF2C003C4F20F031B
S32D0000FFE84FF2C002C4F20F02526911467A681278104646F2AC52C0F2010252F8202002F01F024FF0010000FA8B
S32D0001001002F26FEA02020A405A612EE04FF45043C4F204037A681278114646F2AC52C0F2010252F8212040F25F
S32D00010038031143F822104FF47143C4F20F034FF47142C4F20F02526911467A681278104646F2AC52C0F20102DD
S32D0001006052F8202002F01F024FF0010000FA02F26FEA02020A405A6100BF07F10C07BD4680BC704780B485B01B
S32D0001008800AF78604FF00003FB607B681B781A4646F26853C0F201039B5C042B00F2868001A252F823F000BFC9
S32D000100B0C5000100F50001002501010055010100850101004FF47043C4F20F031B691A467B681B78194646F2B1
S32D000100D8AC53C0F2010353F8213003F01F034FF0010101FA03F31340FB605FE04FF24003C4F20F031B691A4644
S32D000101007B681B78194646F2AC53C0F2010353F8213003F01F034FF0010101FA03F31340FB6047E04FF2800392
S32D00010128C4F20F031B691A467B681B78194646F2AC53C0F2010353F8213003F01F034FF0010101FA03F3134004
S32D00010150FB602FE04FF2C003C4F20F031B691A467B681B78194646F2AC53C0F2010353F8213003F01F034FF0B4
S32D00010178010101FA03F31340FB6017E04FF47143C4F20F031B691A467B681B78194646F2AC53C0F2010353F810
S32D000101A0213003F01F034FF0010101FA03F31340FB6000BFFB68002B0CBF00230123DBB2184607F11407BD468A
S32D000101C880BC704780B483B000AF78600B46FB707B68FA781A707B68184607F10C07BD4680BC7047000000004A
S32D000101F080B586B000AF78607B681B781A4646F22C63C0F2010353F822303B617B681B781A4646F28853C0F2C7
S32D0001021801039B5CFB733B69DBB203F01F03DAB243F27463C1F6FF731A723B69DBB203F01F03DAB243F27463DD
S32D00010240C1F6FF735A724FF46143CEF200034FF46142CEF20002D2F8882042F01002C3F88820FB7B002B1ED19F
S32D000102684FF43040C4F2030043F27461C1F6FF7100F0DEFB4FF43043C4F203031B6803F08003002B14BF002375
S32D000102900123DBB2002BF1D14FF43043C4F203031B697B611DE04FF43040C4F20B0043F27461C1F6FF7100F03D
S32D000102B8BFFB4FF43043C4F20B031B6803F08003002B14BF00230123DBB2002BF1D14FF43043C4F20B031B692D
S32D000102E07B614FF46143CEF200034FF46142CEF20002D2F8882142F01002C3F888214FF46143CEF200034FF4B9
S32D000103086142CEF20002926842F010029A604FF46143CEF200034FF46142CEF20002D2F8882142F08062C3F895
S32D0001033088214FF46143CEF200034FF46142CEF20002926842F080629A607B694FEA03434FEA13431846FCF758
S32D000103589DF902460B46104619460FA3D3E90023FCF70AFA02460B46104619460CA3D3E90023FCF72BFB0246CD
S32D000103800B4610461946FCF7DDFC0346BB60BB68184607F11807BD4680BD00BFAFF30080A4703D0AD7A30A4040
S32D000103A800000000E0FFEF4080B586B000AF78607B681B781A4646F22C63C0F2010353F822303B617B681B7824
S32D000103D01A4646F28853C0F201039B5CFB733B69DBB203F01F03DAB243F28463C1F6FF731A723B69DBB203F0A9
S32D000103F81F03DAB243F28463C1F6FF735A72FB7B002B1ED14FF43040C4F2030043F28461C1F6FF7100F00CFBE3
S32D000104204FF43043C4F203031B6803F08003002B14BF00230123DBB2002BF1D14FF43043C4F203031B697B61B1
S32D000104481DE04FF43040C4F20B0043F28461C1F6FF7100F0EDFA4FF43043C4F20B031B6803F08003002B14BF8B
S32D0001047000230123DBB2002BF1D14FF43043C4F20B031B697B617B69184607F11807BD4680BD00BF98B500AF6E
S32D0001049843F27463C1F6FF734FF05C021A7043F27463C1F6FF734FF010025A7043F27463C1F6FF7341F23422CB
S32D000104C05A8043F27463C1F6FF7345F278629A8043F27463C1F6FF734FF010029A7143F27463C1F6FF734FF0CE
S32D000104E80702DA7143F27463C1F6FF734FF4C022DA6043F27463C1F6FF734FF01F021A7243F27463C1F6FF73A7
S32D000105104FF01F025A724FF43040C4F2030043F27461C1F6FF7100F087FA4FF43040C4F20B0043F27461C1F64D
S32D00010538FF7100F07DFA4FF43040C4F20B0000F0D1F94FF43040C4F2030000F0CBF94FF43040C4F20B0043F2C6
S32D000105607461C1F6FF7100F067FA4FF43040C4F2030043F27461C1F6FF7100F05DFA43F28462C1F6FF7243F2C3
S32D000105887463C1F6FF7314460FCB84E80F0043F28463C1F6FF734FF05C021A7043F28463C1F6FF734FF004029F
S32D000105B0DA7198BD80B500AF43F29863C1F6FF731B6803F1010243F29863C1F6FF731A6000F04CF84FF4E04358
S32D000105D8C4F203034FF00102C3F80C2180BD00BF80B500AF4FF4E043C4F203034FF001021A6048F2A060C0F264
S32D00010600010000F023F84FF4E043C4F203034FF00302C3F808214FF46143CEF200034FF46142CEF20002D2F859
S32D00010628882142F01002C3F888214FF46143CEF200034FF46142CEF20002926842F010029A6080BD80B483B024
S32D0001065000AF78604FF4E043C4F203037A68C3F8002107F10C07BD4680BC704780B584B000AF43F29463C1F618
S32D00010678FF731B68FB6029E0FB685B78FB71FB689B68184600F02EF80346BB71BB79002B19D0FB685B68012B6F
S32D000106A015DDFB689B681B69BB6008E0BB685B6803F10102BB685A60BB681B69BB60BB68002B0CBF0023012370
S32D000106C8DBB2002BEED1FB68DB68FB60FB68002B0CBF00230123DBB2002BCDD107F11007BD4680BD80B584B0DD
S32D000106F000AF78607868FFF75BFE0346FB607B689B695B78FB72FB7A002B12D17B68DA68FB689A420DDA7B68A9
S32D000107189B694FF001025A707B685B6803F101027B685A604FF0010317E0FB7A012B12D17B689A68FB689A4286
S32D000107400DDD7B689B694FF000025A707B685B6803F101027B685A604FF0010301E04FF00003184607F11007A1
S32D00010768BD4680BD80B582B000AF78600B46FB707B681846FFF764FB7B6803F101031846FFF75EFB7B6803F183
S32D0001079002031846FFF758FBFB78032B66D801A252F823F0B5070100E3070100110801003F0801007B68184664
S32D000107B84FF00001FFF750FB7B6803F1010318464FF00101FFF748FB7B6803F1020318464FF00201FFF740FB31
S32D000107E044E07B6818464FF00801FFF739FB7B6803F1010318464FF00901FFF731FB7B6803F1020318464FF0F6
S32D000108080A01FFF729FB2DE07B6818464FF01001FFF722FB7B6803F1010318464FF01101FFF71AFB7B6803F17F
S32D00010830020318464FF01201FFF712FB16E07B6818464FF01801FFF70BFB7B6803F1010318464FF01901FFF7CE
S32D0001085803FB7B6803F1020318464FF01A01FFF7FBFA00BF7B68184607F10807BD4680BD80B582B000AF7860BF
S32D000108807B681846FFF7FEFB034683F00103DBB2184607F10807BD4680BD00BF80B582B000AF78607B6803F1A3
S32D000108A801031846FFF7EAFB034683F00103DBB2184607F10807BD4680BD00BF80B582B000AF78607B6803F16E
S32D000108D002031846FFF7D6FB034683F00103DBB2184607F10807BD4680BD00BF80B485B000AF78607B681B6AC6
S32D000108F823F040027B681A627B685B6A23F00B027B685A627B685B6A43F007027B685A627B685B6A43F08002D6
S32D000109207B685A627B681B6803F08003002B14BF00230123DBB2002BF4D17B685B6A03F04003002B0CBF002374
S32D000109480123DBB2002B02D04FF0010369E04FF00003FB817B68DB6CFB817B689B6C9AB2FB89D318FB817B68DE
S32D000109705B6C9AB2FB89D318FB817B681B6C9AB2FB89D318FB817B68DB6B9AB2FB89D318FB817B689B6B9AB224
S32D00010998FB89D318FB81FB894FEA5303FB81FB896FEA43436FEA5343FB81FA897B68DA624FF00003FB817B68A5
S32D000109C0DB6EFB817B689B6E9AB2FB89D318FB817B685B6E9AB2FB89D318FB817B681B6E9AB2FB89D318FB819A
S32D000109E87B68DB6D9AB2FB89D318FB817B689B6D9AB2FB89D318FB81FB894FEA5303FB81FB896FEA43436FEA11
S32D00010A105343FB81FA897B681A637B685B6A23F080027B685A624FF00003184607F11407BD4680BC704700BF7E
S32D00010A3880B483B000AF786039603B681B781A467B689A603B685B781A467B68DA603B685B881A467B689A61DE
S32D00010A603B689B881A467B68DA613B689B791A467B681A623B68DB791A467B685A623B68DA687B681A653B68CD
S32D00010A881B7A1A467B681A603B685B7A1A467B685A6007F10C07BD4680BC704780B483B000AF78607B68184648
S32D00010AB007F10C07BD4680BC704700BF80B582B000AF786039607B68012B0AD13A684FF6FF739A4205D143F2A6
S32D00010AD89C60C1F6FF70FFF7E1FF07F10807BD4680BD00BF80B500AF4FF001004FF6FF71FFF7E0FF80BD00BF47
S32D00010B0080B483B000AF78600B46FB707B68FA781A707B684FF4FA725A807B6840F6C4129A807B68044A9A609D
S32D00010B287B68184607F10C07BD4680BC704700BF000080BF80B483B000AF786039603A6840F2F3139A4204DD40
S32D00010B503A6840F6C4139A4204DD7B684FF4FA725A8003E03B689AB27B685A8007F10C07BD4680BC704700BF4F
S32D00010B7880B483B000AF786039603A6840F2F3139A4204DD3A6840F6C4139A4204DD7B6840F6C4129A8003E0D8
S32D00010BA03B689AB27B689A8007F10C07BD4680BC704700BF00000000F0B585B000AF786039604FF001031C46DB
S32D00010BC838684B49FCF7B6FB0346002B02D14FF000031C46E3B2002B01D0454B3B604FF001031C4638684349AE
S32D00010BF0FCF7C2FB0346002B02D14FF000031C46E3B2002B01D03D4B3B607B689B6818463968FCF789FB0346E2
S32D00010C18002B64D17B683A689A607B685E887B689B881A467B685B88D31A1846FBF73EFD02460B461046194613
S32D00010C402BA3D3E90023FBF7C5FE02460B4614461D463868FBF740FD02460B4620462946FBF78EFD02460B467A
S32D00010C6810461946FCF74AF803469BB2F318FB81FB897B73FB894FEA23233B734FF43040C4F20E004FF07F01FD
S32D00010C90FEF77AFE4FF43040C4F20E004FF00501FEF772FE7B681B784FF43040C4F20E001946FEF769FE3B7B49
S32D00010CB84FF43040C4F20E001946FEF761FE7B7B4FF43040C4F20E001946FEF759FE4FF43040C4F20E004FF015
S32D00010CE0FF01FEF751FE07F11407BD46F0BD00BF0000000000806640000000000000344380B582B000AF786094
S32D00010D084FF43040C4F20E004FF07F01FEF738FE4FF43040C4F20E004FF00901FEF730FE7B681B784FF430404F
S32D00010D30C4F20E001946FEF727FE4FF43040C4F20E004FF00101FEF71FFE4FF43040C4F20E004FF0FF01FEF7E2
S32D00010D5817FE07F10807BD4680BD00BF90B583B000AF78607B689B684FF00102144618461949FCF7F3FA0346E7
S32D00010D80002B02D14FF000031C46E3B2002B23D07B68144A9A604FF43040C4F20E004FF07F01FEF7F1FD4FF458
S32D00010DA83040C4F20E004FF00601FEF7E9FD7B681B784FF43040C4F20E001946FEF7E0FD4FF43040C4F20E0032
S32D00010DD04FF0FF01FEF7D8FD07F10C07BD4690BD00000000000080BF80B582B000AF78604FF43043C4F20403F0
S32D00010DF84FF48072DA604FF42043C4F204034FF480729A644FF42043C4F204034FF480721A644FF42043C4F255
S32D00010E2004034FF480725A644FF42043C4F204034FF48072DA604FF28003C4F20F034FF28002C4F20F02526906
S32D00010E4842F008025A614FF24003C4F20F034FF24002C4F20F02526942F480225A614FF24003C4F20F034FF213
S32D00010E704002C4F20F02526942F480325A614FF24003C4F20F034FF24002C4F20F02526942F400325A614FF237
S32D00010E984003C4F20F034FF24002C4F20F02126842F008021A604FF24003C4F20F034FF24002C4F20F02526955
S32D00010EC042F008025A614FF28003C4F20F034FF28002C4F20F02126842F008021A604FF42043C4F204034FF420
S32D00010EE880725A624FF42043C4F204034FF480721A624FF43043C4F204034FF480721A614FF43043C4F2040383
S32D00010F104FF480725A614FF43043C4F204034FF480729A614FF43043C4F204034FF48072DA614FF43043C4F2D0
S32D00010F3804034FF480721A634FF43043C4F204034FF480725A634FF43043C4F204034FF480729A634FF4304311
S32D00010F60C4F204034FF48072DA634FF43043C4F204034FF480721A644FF43043C4F204034FF480725A644FF464
S32D00010F883043C4F204034FF480729A644FF43043C4F204034FF48072DA644FF44043C4F204034FF480721A60BF
S32D00010FB04FF44043C4F204034FF480729A604FF44043C4F204034FF48072DA604FF44043C4F204034FF48072B6
S32D00010FD81A614FF24003C4F20F034FF24002C4F20F02526942F440725A614FF28002C4F20F024FF28003C4F277
S32D000110000F035B6919464FF2F003C0F20F030B4353614FF2C003C4F20F034FF2C002C4F20F02526942F01D02F0
S32D000110285A6178684FF0E20100F0A8FC78684FF01D0100F0E7FD78684FF0020100F0E2FD78684FF0040100F032
S32D00011050DDFD78684FF0E00100F094FC78684FF0010100F0D3FD4FF06400FEF715FE78684FF0E00100F086FC19
S32D0001107878684FF0030100F0C5FD78684FF0010100F07CFC4FF00100FEF702FE78684FF0E60100F073FC786871
S32D000110A04FF0010100F0B2FD78684FF0A00100F0ADFD78684FF0FF0100F0A8FD78684FF0B00100F05FFC786838
S32D000110C84FF01C0100F09EFD78684FF00F0100F099FD78684FF0010100F094FD78684FF03F0100F08FFD786800
S32D000110F04FF0000100F08AFD78684FF0EF0100F085FD78684FF0000100F080FD78684FF0B40100F037FC786835
S32D000111184FF0010100F076FD78684FF0990100F071FD78684FF0000100F06CFD78684FF0450100F067FD7868DB
S32D000111404FF0020100F062FD78684FF0000100F05DFD78684FF0000100F058FD78684FF0000100F053FD7868E0
S32D000111684FF0B60100F00AFC78684FF0010100F049FD78684FF0090100F044FD78684FF0000100F03FFD78688F
S32D000111904FF00E0100F03AFD78684FF0020100F035FD78684FF0000100F030FD78684FF0000100F02BFD786822
S32D000111B84FF0BA0100F0E2FB78684FF00F0100F021FD4FF06400FEF763FD78684FF03A0100F0D4FB78684FF0D4
S32D000111E0600100F013FD78684FF02A0100F0CAFB78684FF0000100F009FD78684FF0000100F004FD78684FF03A
S32D00011208010100F0FFFC78684FF03F0100F0FAFC78684FF02B0100F0B1FB78684FF0000100F0F0FC78684FF083
S32D00011230000100F0EBFC78684FF0000100F0E6FC78684FF0EF0100F0E1FC78684FF0360100F098FB78684FF0F1
S32D00011258000100F0D7FC78684FF0F00100F08EFB78684FF0040100F0CDFC78684FF0B80100F084FB78684FF0D7
S32D000112800F0100F0C3FC78684FF0010100F0BEFC4FF24003C4F20F034FF24002C4F20F02126842F008021A60EF
S32D000112A84FF06400FEF7F4FC78684FF0360100F065FB78684FF0000100F0A4FC78684FF0F00100F05BFB786803
S32D000112D04FF0040100F09AFC43F2A060C1F6FF704FF0010100F0AAF943F2A060C1F6FF704FF06F014FF01E028D
S32D000112F800F0A4F843F2A060C1F6FF704FF0000100F0F6F943F2A060C1F6FF7046F2E431C0F201014FF05A02CA
S32D000113204FF0AF0300F010FA78684FF0290100F029FB4FF06400FEF7AFFC78684FF0BE0100F020FB78684FF00B
S32D000113480E0100F05FFC78684FF0F00100F05AFC78684FF0010100F055FC78684FF0000100F050FC78684FF0E9
S32D00011370000100F04BFC78684FF00F0100F046FC43F2A060C1F6FF704FF0010100F0B4F943F2A060C1F6FF7021
S32D000113984FF0000100F084F907F10807BD4680BD80B582B000AF78607B684FF00002DA617B684FF001021A6244
S32D000113C07B684FF00E025A607B684FF01A029A607B684FF000025A617B684FF000029A617B684FF4A072DA606A
S32D000113E87B684FF0F0021A617B684FF000021A70786801F02DFA7B68184607F10807BD4680BD00BF80B582B0F3
S32D0001141000AF786043F2DC63C1F6FF731B7883F00103DBB2002B09D043F2DC63C1F6FF734FF001021A707868A5
S32D00011438FFF7D6FC07F10807BD4680BD80B58AB002AFF860B9607A604FF07E030093F868B9687A684FF06203B1
S32D0001146000F05AFE4FF00003FB614FF00003BB6155E04FF000037B6145E040F20043C1F6FF73FA699B181B785A
S32D00011488002B09D14FF0FF03FB744FF0FF03BB744FF0FF037B741BE040F20043C1F6FF73FA699B181B78012B72
S32D000114B009D14FF0D403FB744FF00003BB744FF026037B7408E04FF0B503FB744FF0BA03BB744FF0B0037B748C
S32D000114D8F97CBA7C7B7CF86800F08AF80246FB68DA61F86801F0B4F9F86801F051F8FB6903F10103FB617B6957
S32D0001150003F101037B617B69612BCCBF00230123DBB2002BB1D1BB6903F10103BB61BB697D2BCCBF0023012396
S32D00011528DBB2002BA1D107F12007BD4680BD00BF80B485B000AF78600B46FB70FB78062B2ED801A252F823F0F6
S32D00011550751501006D1501007D150100851501008D150100951501009D1501006FF07F43FB6019E04FF0000378
S32D00011578FB6015E04FF47F03FB6011E04FF47F43FB600DE04FF0FF03FB6009E04FF41903FB6005E049F6991387
S32D000115A0C0F29903FB6000BFFB68184607F11407BD4680BC704700BF80B584B000AF786039603B6803F47F0386
S32D000115C84FEA1343FB733B6803F47F434FEA1323BB733B687B73F97BBA7B7B7B786800F007F80346184607F160
S32D000115F01007BD4680BD00BF80B487B000AF7860F970BA707B70FB784FEAA3037B61BB784FEAA3033B617B7877
S32D000116184FEAA303FB607B694FEA03323B694FEA83131A43FB681343184607F11C07BD4680BC704780B582B0B8
S32D0001164000AF78600B46FB70FB7878681946FFF773FF03467868194600F004F807F10807BD4680BD80B582B0FC
S32D0001166800AF7860396078683968FFF7A1FF02467B681A62786801F0EBF8786800F0ECFB07F10807BD4680BDC3
S32D0001169080B582B000AF7860786800F0E1FB07F10807BD4680BD00BF80B582B000AF78600B46FB70FB7878688E
S32D000116B81946FFF73DFF03467868194600F004F807F10807BD4680BD80B582B000AF7860396078683968FFF7B9
S32D000116E06BFF02467B681A62786801F0B5F807F10807BD4680BD00BF80B582B000AF78600B46FB70FB78786849
S32D000117081946FFF715FF03467868194600F004F807F10807BD4680BD80B582B000AF7860396078683968FFF790
S32D0001173043FF02467B68DA61786801F08DF807F10807BD4680BD00BF80B586B000AFF860B9607A603B604FF047
S32D0001175800037B6110E07B69BA68D3181B78F86879683A6800F07AFD7B6803F10C037B607B6903F101037B614C
S32D000117807B69BA68D3181B78002B0CBF00230123DBB2002BE3D107F11807BD4680BD00BF80B584B000AF786007
S32D000117A839604FF00003FB60786800F081FC11E07B6859697B689A69FB683868C3181B78786800F02BFD7868CA
S32D000117D000F088FCFB6803F10103FB60FB683A68D3181B78002B0CBF00230123DBB2002BE2D107F11007BD4683
S32D000117F880BD00BF90B593B000AF786039604FF001031C4638683049FBF7A8FD0346002B02D14FF000031C46DE
S32D00011820E3B2002B23D03868FBF7B0FD03467B64786CFBF791FB034638681946FBF7D6FA034618462349FBF70E
S32D00011848DBFB03461846FBF79DFD03463B6407F10C03184646F20041C0F201017A6C3B6C02F0F6FA26E03B68D6
S32D0001187083F000433B603868FBF788FD03467B64786CFBF769FB034638681946FBF7AEFA034618460F49FBF7AC
S32D00011898B3FB03461846FBF775FD03463B6407F10C03184646F2F431C0F201017A6C3B6C02F0CEFA07F10C03BC
S32D000118C078681946FFF76CFF07F14C07BD4690BD0000000000007A4480B582B000AF78600B46FB70786800F086
S32D000118E8E7FB7B6859697B689A69FB78786800F095FC786800F0F2FB07F10807BD4680BD80B582B000AF78609E
S32D000119103960786800F0D0FB78683968FFF740FF786800F0B1FB07F10807BD4680BD00BF80B582B000AF78604E
S32D000119383960786800F0BCFB78683968FFF75AFF786800F09DFB07F10807BD4680BD00BF80B582B000AF786034
S32D000119600B46FB70786800F0A7FBFB7878681946FFF7B2FF786800F087FB07F10807BD4680BD00BF80B483B012
S32D0001198800AF78600B46FB704FF28003C4F20F034FF28002C4F20F02126822F008021A604FF24003C4F20F037B
S32D000119B04FF24002C4F20F02126822F480221A604FF24003C4F20F034FF24002C4F20F02126842F480321A60A0
S32D000119D84FF24003C4F20F034FF24002C4F20F02126822F440721A604FF28003C4F20F034FF28002C4F20F0278
S32D00011A00126822F4425222F070021A604FF24003C4F20F034FF24002C4F20F0212681146FA7802F00102D2B243
S32D00011A28002A02D04FF4007201E04FF000020A431A604FF24003C4F20F034FF24002C4F20F0212681146FA781C
S32D00011A5002F00202002A02D04FF4807201E04FF000020A431A604FF28003C4F20F034FF28002C4F20F021268C7
S32D00011A781146FA7802F00402002A02D04FF0100201E04FF000020A431A604FF28003C4F20F034FF28002C4F243
S32D00011AA00F0212681146FA7802F00802002A02D04FF0200201E04FF000020A431A604FF28003C4F20F034FF2B4
S32D00011AC88002C4F20F0212681146FA7802F01002002A02D04FF0400201E04FF000020A431A604FF28003C4F27F
S32D00011AF00F034FF28002C4F20F0212681146FA7802F02002002A02D04FF0800201E04FF000020A431A604FF2ED
S32D00011B188003C4F20F034FF28002C4F20F0212681146FA7802F04002002A02D04FF4805201E04FF000020A43D2
S32D00011B401A604FF28003C4F20F034FF28002C4F20F0212681146FA7852B2002A02DA4FF4005201E04FF00002E2
S32D00011B680A431A604FF24003C4F20F034FF24002C4F20F02126822F400321A604FF24003C4F20F034FF24002E6
S32D00011B90C4F20F02126842F400321A604FF28003C4F20F034FF28002C4F20F02126842F008021A604FF2400339
S32D00011BB8C4F20F034FF24002C4F20F02126842F440721A604FF28003C4F20F034FF28002C4F20F02126842F44A
S32D00011BE0425242F070021A604FF24003C4F20F034FF24002C4F20F02126842F480221A6007F10C07BD4680BC78
S32D00011C08704700BF80B483B000AF78600B46FB704FF28003C4F20F034FF28002C4F20F02126822F008021A6067
S32D00011C304FF24003C4F20F034FF24002C4F20F02126842F480321A604FF24003C4F20F034FF24002C4F20F027D
S32D00011C58126842F480221A604FF24003C4F20F034FF24002C4F20F02126822F440721A604FF28003C4F20F03B3
S32D00011C804FF28002C4F20F02126822F4425222F070021A604FF24003C4F20F034FF24002C4F20F021268114622
S32D00011CA8FA7802F00102D2B2002A02D04FF4007201E04FF000020A431A604FF24003C4F20F034FF24002C4F203
S32D00011CD00F0212681146FA7802F00202002A02D04FF4807201E04FF000020A431A604FF28003C4F20F034FF2B4
S32D00011CF88002C4F20F0212681146FA7802F00402002A02D04FF0100201E04FF000020A431A604FF28003C4F289
S32D00011D200F034FF28002C4F20F0212681146FA7802F00802002A02D04FF0200201E04FF000020A431A604FF232
S32D00011D488003C4F20F034FF28002C4F20F0212681146FA7802F01002002A02D04FF0400201E04FF000020A4364
S32D00011D701A604FF28003C4F20F034FF28002C4F20F0212681146FA7802F02002002A02D04FF0800201E04FF080
S32D00011D9800020A431A604FF28003C4F20F034FF28002C4F20F0212681146FA7802F04002002A02D04FF48052B5
S32D00011DC001E04FF000020A431A604FF28003C4F20F034FF28002C4F20F0212681146FA7852B2002A02DA4FF465
S32D00011DE8005201E04FF000020A431A604FF24003C4F20F034FF24002C4F20F02126822F400321A604FF240033B
S32D00011E10C4F20F034FF24002C4F20F02126842F400321A604FF28003C4F20F034FF28002C4F20F02126842F073
S32D00011E3808021A604FF24003C4F20F034FF24002C4F20F02126822F480221A6007F10C07BD4680BC704700BFF5
S32D00011E6080B586B000AF78607B684FF000025A617B684FF000029A617B681B6AFB60FB68FB72FB684FEA1323FE
S32D00011E88BB72FB684FEA1343DBB203F003037B7278684FF02A01FFF771FD78684FF00001FFF7B0FE78684FF008
S32D00011EB00001FFF7ABFE78684FF00101FFF7A6FE78684FF03F01FFF7A1FE78684FF02B01FFF758FD78684FF0FF
S32D00011ED80001FFF797FE78684FF00001FFF792FE78684FF00001FFF78DFE78684FF0EF01FFF788FE78684FF05E
S32D00011F002C01FFF73FFD4FF24003C4F20F034FF24002C4F20F02126822F440721A604FF28002C4F20F024FF236
S32D00011F288003C4F20F031B68194640F60F73CFF6F0730B4013604FF2C003C4F20F034FF2C002C4F20F021268AF
S32D00011F5022F01D021A604FF24003C4F20F034FF24002C4F20F02126811467A68126B0A431A604FF28003C4F2B0
S32D00011F780F034FF28002C4F20F02126811467A68526B0A431A604FF2C003C4F20F034FF2C002C4F20F02126857
S32D00011FA011467A68926B0A431A604FF28003C4F20F034FF28002C4F20F02126822F008021A604FF24003C4F2B5
S32D00011FC80F034FF24002C4F20F02126842F480221A604FF000037B612DE04FF000033B611BE04FF24003C4F284
S32D00011FF00F034FF24002C4F20F02126822F400321A604FF24003C4F20F034FF24002C4F20F02126842F40032B2
S32D000120181A603B6903F101033B613A6940F23F139A428CBF00230123DBB2002BD9D17B6903F101037B617B6954
S32D00012040EF2B8CBF00230123DBB2002BC9D14FF28003C4F20F034FF28002C4F20F02126842F008021A604FF2EC
S32D000120684003C4F20F034FF24002C4F20F02126822F480221A6007F11807BD4680BD00BF80B483B000AF786044
S32D000120907B689B69002B09DD7B685B6903F101027B685A617B684FF000029A6107F10C07BD4680BC704700BF0E
S32D000120B880B582B000AF78607B685A697B685B689A4206DB7B684FF000025A617868FFF7C3FE07F10807BD4682
S32D000120E080BD00BF80B582B000AF78607B689B6903F101027B689A617B689A697B689B689A4205D17868FFF7D7
S32D00012108BFFF7868FFF7D4FF07F10807BD4680BD80B588B000AFF860B9607A603B60FB681B78022B03D0FB689F
S32D000121301B78032B13D17B68FB61BA6AFB69D31803F1FF33BB61FB68DA68BB68D31A3B613B683A69D31A03F16F
S32D0001215801037B610FE0BB68FB613A68FB69D31803F1FF33BB617B687B61BA6A7B69D31803F1FF333B61F86803
S32D000121804FF02A01FFF7FEFBFB6903F470634FEA1323DBB2F8681946FFF738FDFB69DBB2F8681946FFF732FDEE
S32D000121A8BB6903F470634FEA1323DBB2F8681946FFF728FDBB69DBB2F8681946FFF722FDF8684FF02B01FFF7FE
S32D000121D0D9FB7B6903F470634FEA1323DBB2F8681946FFF713FD7B69DBB2F8681946FFF70DFD3B6903F47063FF
S32D000121F84FEA1323DBB2F8681946FFF703FD3B69DBB2F8681946FFF7FDFCF8684FF02C01FFF7B4FB07F1200798
S32D00012220BD4680BD80B584B000AFF860B9607A60FB707A6813464FEA43039B184FEA830303F10201BA681346E3
S32D000122484FEA03139B1803F10302FB78F86800F005F807F11007BD4680BD00BF80B58EB002AFF860B9607A602F
S32D00012270FB70FB780A2B06D1F868FFF71DFFF868FFF702FF25E1FB787D2B02D8FB781F2B02D84FF02003FB702D
S32D00012298FB78A3F12003FB704FF011030093F868B9687A684FF00C03FFF732FFFA7813464FEA83039A1843F253
S32D000122C03C43C1F6FF739B5C3B75FA7813464FEA83039B1803F1010243F23C43C1F6FF739B5C7B75FA781346DD
S32D000122E84FEA83039B1803F1020243F23C43C1F6FF739B5CBB75FA7813464FEA83039B1803F1030243F23C436F
S32D00012310C1F6FF739B5CFB75FA7813464FEA83039B1803F1040243F23C43C1F6FF739B5C3B764FF00003BB62F3
S32D00012338A8E0F86800F0DCF9F86800F0CBF84FF0000387F82F304FF000037B6231E007F114027B6AD3181B78F5
S32D0001236003F00103FB76FB7E002B11D097F82F3083F00103DBB2002B03D0F86800F00CF902E0F86800F0AAF848
S32D00012388F86800F0A7F80DE097F82F30002B03D0F86800F0ADF902E0F86800F09BF8F86800F098F8FB7E87F8CB
S32D000123B02F307B6A03F101037B627B6A042BCCBF00230123DBB2002BC5D197F82F30002B03D0F86800F090F9EC
S32D000123D802E0F86800F07EF8F86800F07BF84FF0000387F82F304FF000033B623EE007F114023B6AD3181B781D
S32D0001240003F00103BB76BB7E002B11D097F82F3083F00103DBB2002B03D0F86800F0BCF802E0F86800F05AF8C8
S32D00012428F86800F057F80DE097F82F30002B03D0F86800F05DF902E0F86800F04BF8F86800F048F8BB7E87F8AA
S32D000124502F3007F114023B6AD3181B784FEA6303DAB207F114013B6ACB181A703B6A03F101033B623B6A042B75
S32D00012478CCBF00230123DBB2002BB8D1BB6A03F10103BB62BB6A062BCCBF00230123DBB2002B7FF44EAFF86838
S32D000124A000F02AF94FF0000387F82F304FF00103FB6106E0F86800F011F8FB6903F10103FB61FB69232BCCBF07
S32D000124C800230123DBB2002BF0D107F13007BD4680BD00BF80B483B000AF78604FF24003C4F20F034FF240023A
S32D000124F0C4F20F02126842F480321A604FF28003C4F20F034FF28002C4F20F02126822F008021A604FF2400370
S32D00012518C4F20F034FF24002C4F20F02126842F480221A604FF24003C4F20F034FF24002C4F20F02126822F490
S32D0001254000321A604FF24003C4F20F034FF24002C4F20F02126842F400321A604FF28003C4F20F034FF280027F
S32D00012568C4F20F02126842F008021A604FF24003C4F20F034FF24002C4F20F02126822F480221A6007F10C0700
S32D00012590BD4680BC704700BF80B483B000AF78604FF24003C4F20F034FF24002C4F20F02126842F480321A6007
S32D000125B84FF28003C4F20F034FF28002C4F20F02126822F008021A604FF24003C4F20F034FF24002C4F20F0238
S32D000125E0126842F480221A604FF24003C4F20F034FF24002C4F20F02126822F440721A604FF28002C4F20F0224
S32D000126084FF28003C4F20F031B68194640F60F73CFF6F0730B4013604FF2C003C4F20F034FF2C002C4F20F0201
S32D00012630126822F01D021A604FF24003C4F20F034FF24002C4F20F02126811467A68526A0A431A604FF28003C6
S32D00012658C4F20F034FF28002C4F20F02126811467A68926A0A431A604FF2C003C4F20F034FF2C002C4F20F02F5
S32D00012680126811467A68D26A0A431A604FF24003C4F20F034FF24002C4F20F02126822F400321A604FF240031F
S32D000126A8C4F20F034FF24002C4F20F02126842F400321A604FF28003C4F20F034FF28002C4F20F02126842F0D3
S32D000126D008021A604FF24003C4F20F034FF24002C4F20F02126822F480221A6007F10C07BD4680BC704700BF55
S32D000126F880B483B000AF78604FF24003C4F20F034FF24002C4F20F02126842F480321A604FF28003C4F20F03C7
S32D000127204FF28002C4F20F02126822F008021A604FF24003C4F20F034FF24002C4F20F02126842F480221A608E
S32D000127484FF24003C4F20F034FF24002C4F20F02126822F440721A604FF28002C4F20F024FF28003C4F20F03FA
S32D000127701B68194640F60F73CFF6F0730B4013604FF2C003C4F20F034FF2C002C4F20F02126822F01D021A60FF
S32D000127984FF24003C4F20F034FF24002C4F20F02126811467A68126B0A431A604FF28003C4F20F034FF2800236
S32D000127C0C4F20F02126811467A68526B0A431A604FF2C003C4F20F034FF2C002C4F20F02126811467A68926BA6
S32D000127E80A431A604FF24003C4F20F034FF24002C4F20F02126822F400321A604FF24003C4F20F034FF240025A
S32D00012810C4F20F02126842F400321A604FF28003C4F20F034FF28002C4F20F02126842F008021A604FF24003AC
S32D00012838C4F20F034FF24002C4F20F02126822F480221A6007F10C07BD4680BC704700BF80B485B000AF786003
S32D000128607B681B6AFB60FB68FB72FB684FEA1323BB72FB684FEA1343DBB203F003037B727B684FF000025A6272
S32D000128887B684FF000029A627B684FF00002DA627B684FF000021A637B684FF000025A637B684FF000029A63FE
S32D000128B07B681A6BFB7A03F00103DBB2002B02D04FF4007301E04FF000031A437B681A637B681A6BFB7A03F035
S32D000128D80203002B02D04FF4807301E04FF000031A437B681A637B685A6BFB7A03F00403002B02D04FF0100353
S32D0001290001E04FF000031A437B685A637B685A6BFB7A03F00803002B02D04FF0200301E04FF000031A437B68AB
S32D000129285A637B685A6BFB7A03F01003002B02D04FF0400301E04FF000031A437B685A637B685A6BFB7A03F0F1
S32D000129502003002B02D04FF0800301E04FF000031A437B685A637B685A6BFB7A03F04003002B02D04FF48053F0
S32D0001297801E04FF000031A437B685A637B685A6BFB7A5BB2002B02DA4FF4005301E04FF000031A437B685A6329
S32D000129A07B685A6BBB7A03F00103DBB2002B02D04FF4804301E04FF000031A437B685A637B685A6BBB7A03F0B4
S32D000129C80203002B02D04FF4004301E04FF000031A437B685A637B685A6BBB7A03F00403002B02D04FF480336E
S32D000129F001E04FF000031A437B685A637B685A6BBB7A03F00803002B02D04FF4003301E04FF000031A437B68E7
S32D00012A185A637B685A6BBB7A03F01003002B02D04FF4802301E04FF000031A437B685A637B685A6BBB7A03F01C
S32D00012A402003002B02D04FF4002301E04FF000031A437B685A637B689A6BBB7A03F04003002B02D04FF001032E
S32D00012A6801E04FF000031A437B689A637B689A6BBB7A5BB2002B02DA4FF0040301E04FF000031A437B689A6308
S32D00012A907B689A6B7B7A03F00103DBB2002B02D04FF0080301E04FF000031A437B689A637B689A6B7B7A03F03F
S32D00012AB80203002B02D04FF0100301E04FF000031A437B689A637B68DB69FB60FB68FB72FB684FEA1323BB72EA
S32D00012AE0FB684FEA1343DBB203F003037B727B685A6AFB7A03F00103DBB2002B02D04FF4007301E04FF00003EC
S32D00012B081A437B685A627B685A6AFB7A03F00203002B02D04FF4807301E04FF000031A437B685A627B689A6A55
S32D00012B30FB7A03F00403002B02D04FF0100301E04FF000031A437B689A627B689A6AFB7A03F00803002B02D002
