S01600002E2E2F436F6D6D616E6473546573742E73313981
S32D0000C0000000002059150100B5180100B5180100B5180100B5180100B51801000000000000000000000000007D
S32D0000C02800000000B5180100B518010000000000B5180100B5180100B5180100B5180100B5180100B51801007A
S32D0000C050B5180100B5180100B5180100B5180100B5180100B5180100B5180100B5180100B5180100B5180100B6
S32D0000C078B5180100B5180100B5180100B5180100B5180100B5180100B5180100B5180100B5180100B51801008E
S32D0000C0A0B5180100B5180100B5180100B5180100B5180100B5180100B5180100B5180100B5180100B518010066
S32D0000C0C8B5180100B5180100B5180100B5180100B5180100B5180100B5180100B5180100B5180100B51801003E
S32D0000C0F0B518010061560100B5180100B5180100B5180100B5180100B5180100B5180100B5180100B51801002C
S32D0000C118B5180100B5180100B5180100B5180100B5180100B5180100B5180100B5180100B5180100B5180100ED
S32D0000C140B5180100B5180100B5180100B5180100CD280100B5180100B5180100B5180100B5180100B51801009D
S32D0000C168B5180100B5180100B5180100B5180100B5180100B5180100B5180100B5180100B5180100B51801009D
S32D0000C190B5180100B5180100B5180100B5180100B5180100B518010005190100B5180100B5180100B518010024
S32D0000C1B8B5180100B5180100B5180100B5180100B5180100B5180100B5180100B5180100B5180100B51801004D
S32D0000C41081F0004102E000BF83F0004330B54FEA41044FEA430594EA050F08BF90EA020F1FBF54EA000C55EAC6
S32D0000C438020C7FEA645C7FEA655C00F0E2804FEA5454D4EB5555B8BF6D420CDD2C4480EA020281EA030382EA0F
S32D0000C460000083EA010180EA020281EA0303362D88BF30BD11F0004F4FEA01314FF4801C4CEA113102D0404263
S32D0000C48861EB410113F0004F4FEA03334CEA133302D0524263EB430394EA050F00F0A780A4F10104D5F1200E8A
S32D0000C4B00DDB02FA0EFC22FA05F2801841F1000103FA0EF2801843FA05F359410EE0A5F120050EF1200E012A2D
S32D0000C4D803FA0EFC28BF4CF0020C43FA05F3C01851EBE37101F0004507D54FF0000EDCF1000C7EEB00006EEB67
S32D0000C5000101B1F5801F1BD3B1F5001F0CD349085FEA30004FEA3C0C04F101044FEA445212F5800F80F09A8000
S32D0000C528BCF1004F08BF5FEA500C50F1000041EB045141EA050130BD5FEA4C0C404141EB010111F4801FA4F114
S32D0000C5500104E9D191F0000F04BF01460020B1FA81F308BF2033A3F10B03B3F120020CDA0C3208DD02F1140C87
S32D0000C578C2F10C0201FA0CF021FA02F10CE002F11402D8BFC2F1200C01FA02F120FA0CFCDCBF41EA0C019040B1
S32D0000C5A0E41AA2BF01EB0451294330BD6FEA04041F3C1CDA0C340EDC04F11404C4F1200220FA04F001FA02F3B6
S32D0000C5C840EA030021FA04F345EA030130BDC4F10C04C4F1200220FA02F001FA04F340EA0300294630BD21FAA8
S32D0000C5F004F0294630BD94F0000F83F4801306BF81F480110134013D4EE77FEA645C18BF7FEA655C29D094EA1C
S32D0000C618050F08BF90EA020F05D054EA000C04BF1946104630BD91EA030F1EBF0021002030BD5FEA545C05D1A3
S32D0000C6404000494128BF41F0004130BD14F580043CBF01F5801130BD01F0004545F0FE4141F470014FF0000031
S32D0000C66830BD7FEA645C1ABF194610467FEA655C1CBF0B46024650EA013406BF52EA033591EA030F41F40021D7
S32D0000C69030BD00BF90F0000F04BF0021704730B54FF4806404F132044FF000054FF0000150E700BF90F0000F66
S32D0000C6B804BF0021704730B54FF4806404F1320410F0004548BF40424FF000013EE700BF42004FEAE2014FEAF9
S32D0000C6E031014FEA02701FBF12F07F4393F07F4F81F06051704792F0000F14BF93F07F4F704730B54FF460741B
S32D0000C70801F0004521F0004120E700BF50EA010208BF704730B54FF000050AE050EA010208BF704730B511F046
S32D0000C730004502D5404261EB41014FF4806404F132045FEA915C3FF4DCAE4FF003025FEADC0C18BF03325FEAA0
S32D0000C758DC0C18BF033202EBDC02C2F1200300FA03FC20FA02F001FA03FE40EA0E0021FA02F11444C1E600BF19
S32D0000C78070B54FF0FF0C4CF4E06C1CEA11541DBF1CEA135594EA0C0F95EA0C0F00F0DEF82C4481EA030621EAF3
S32D0000C7A84C5123EA4C5350EA013518BF52EA033541F4801143F4801338D0A0FB02CE4FF00005E1FB02E506F05F
S32D0000C7D00042E0FB03E54FF00006E1FB03569CF0000F18BF4EF0010EA4F1FF04B6F5007F64F5407404D25FEA0F
S32D0000C7F84E0E6D4146EB060642EAC62141EA55514FEAC52040EA5E504FEACE2EB4F1FD0C88BFBCF5E06F1ED8D2
S32D0000C820BEF1004F08BF5FEA500E50F1000041EB045170BD06F0004646EA010140EA020081EA0301B4EB5C0487
S32D0000C848C2BFD4EB0C0541EA045170BD41F480114FF0000E013C00F3AB8014F1360FDEBF002001F0004170BDF0
S32D0000C870C4F10004203C35DA0C341BDC04F11404C4F1200500FA05F320FA04F001FA05F240EA020001F0004207
S32D0000C89821F0004110EBD37021FA04F642EB06015EEA430E08BF20EAD37070BDC4F10C04C4F1200500FA04F32F
S32D0000C8C020FA05F001FA04F240EA020001F0004110EBD37041F100015EEA430E08BF20EAD37070BDC4F12005C7
S32D0000C8E800FA05F24EEA020E20FA04F301FA05F243EA020321FA04F001F0004121FA04F220EA020000EBD37028
S32D0000C9105EEA430E08BF20EAD37070BD94F0000F0FD101F00046400041EB010111F4801F08BF013CF7D041EA6D
S32D0000C938060195F0000F18BF704703F00046520043EB030313F4801F08BF013DF7D043EA0603704794EA0C0FF1
S32D0000C9600CEA135518BF95EA0C0F0CD050EA410618BF52EA4306D1D181EA030101F000414FF0000070BD50EA38
S32D0000C988410606BF1046194652EA430619D094EA0C0F02D150EA013613D195EA0C0F05D152EA03361CBF10467B
S32D0000C9B019460AD181EA030101F0004141F0FE4141F470014FF0000070BD41F0FE4141F4780170BD70B54FF04D
S32D0000C9D8FF0C4CF4E06C1CEA11541DBF1CEA135594EA0C0F95EA0C0F00F0A7F8A4EB050481EA030E52EA03359B
S32D0000CA004FEA013100F088804FEA03334FF0805545EA131343EA12634FEA022245EA111545EA10654FEA002676
S32D0000CA280EF000419D4208BF964244F1FD0404F5407402D25B084FEA3202B61A65EB03055B084FEA32024FF461
S32D0000CA5080104FF4002CB6EB020E75EB030E22BFB61A754640EA0C005B084FEA3202B6EB020E75EB030E22BF22
S32D0000CA78B61A754640EA5C005B084FEA3202B6EB020E75EB030E22BFB61A754640EA9C005B084FEA3202B6EBEA
S32D0000CAA0020E75EB030E22BFB61A754640EADC0055EA060E18D04FEA051545EA16754FEA06164FEAC30343EAAC
S32D0000CAC852734FEAC2025FEA1C1CC0D111F4801F0BD141EA00014FF000004FF0004CB6E711F4801F04BF0143AE
S32D0000CAF00020B4F1FD0C88BFBCF5E06F3FF6AFAEB5EB030C04BFB6EB020C5FEA500C50F1000041EB045170BDBC
S32D0000CB180EF0004E4EEA113114EB5C04C2BFD4EB0C0541EA045170BD41F480114FF0000E013C90E645EA060EC3
S32D0000CB408DE60CEA135594EA0C0F08BF95EA0C0F3FF43BAF94EA0C0F0AD150EA01347FF434AF95EA0C0F7FF499
S32D0000CB6825AF104619462CE795EA0C0F06D152EA03353FF4FDAE1046194622E750EA410618BF52EA43067FF432
S32D0000CB90C5AE50EA41047FF40DAF52EA43057FF4EBAE12E74FEA410212F5001215D211D56FF47873B3EB6252CB
S32D0000CBB812D94FEAC12343F0004343EA505311F0004F23FA02F018BF404270474FF00000704750EA013005D15B
S32D0000CBE011F0004008BF6FF0004070474FF00000704700BF4A0011D212F5001211D20DD56FF47873B3EB625269
S32D0000CC080ED44FEAC12343F0004343EA505323FA02F070474FF00000704750EA013002D14FF0FF3070474FF05B
S32D0000CC30000070474FEA4102B2F1E04324BFB3F5001CDCF1FE5C0DD901F0004C4FEAC0024CEA5070B2F1004F09
S32D0000CC5840EB830008BF20F00100704711F0804F21D113F13872BCBF01F00040704741F480114FEA5252C2F148
S32D0000CC801802C2F1200C10FA0CF320FA02F018BF40F001004FEAC1234FEAD32303FA0CFC40EA0C0023FA02F3D7
S32D0000CCA84FEA4303CCE77FEA625307D150EA01331EBF4FF0FE4040F44000704701F0004040F0FE4040F4000070
S32D0000CCD0704700BF80F0004002E000BF81F0004142001FBF5FEA410392EA030F7FEA226C7FEA236C6AD04FEA20
S32D0000CCF81262D2EB1363C1BFD218414048404140B8BF5B42192B88BF704710F0004F40F4000020F07F4018BFF4
S32D0000CD20404211F0004F41F4000121F07F4118BF494292EA030F3FD0A2F1010241FA03FC10EB0C00C3F120035F
S32D0000CD4801FA03F100F0004302D5494260EB4000B0F5000F13D3B0F1807F06D340084FEA310102F10102FE2ACA
S32D0000CD7051D2B1F1004F40EBC25008BF20F0010040EA03007047490040EB000010F4000FA2F10102EDD1B0FA03
S32D0000CD9880FCACF1080CB2EB0C0200FA0CF0AABF00EBC25052421843BCBFD0401843704792F0000F81F40001A6
S32D0000CDC006BF80F400000132013BB5E74FEA41037FEA226C18BF7FEA236C21D092EA030F04D092F0000F08BF13
S32D0000CDE80846704790EA010F1CBF0020704712F07F4F04D1400028BF40F00040704712F100723CBF00F5000084
S32D0000CE10704700F0004343F0FE4040F4000070477FEA226216BF08467FEA23630146420206BF5FEA412390EA38
S32D0000CE38010F40F4800070474FF0000304E000BF10F0004348BF40425FEA000C08BF704743F0964301464FF03B
S32D0000CE6000001CE050EA010208BF70474FF000030AE000BF50EA010208BF704711F0004302D5404261EB41011C
S32D0000CE885FEA010C02BF84460146002043F0B64308BFA3F18053A3F50003BCFA8CF2083AA3EBC25310DB01FA40
S32D0000CEB002FC634400FA02FCC2F12002BCF1004F20FA02F243EB020008BF20F00100704702F1200201FA02FC0B
S32D0000CED8C2F1200250EA4C0021FA02F243EB020008BF20EADC7070474FF0FF0C1CEAD0521EBF1CEAD15392EAC9
S32D0000CF000C0F93EA0C0F6FD01A4480EA010C400218BF5FEA41211ED04FF0006343EA501043EA5111A0FB0131FF
S32D0000CF280CF00040B1F5000F3EBF490041EAD3715B0040EA010062F17F02FD2A1DD8B3F1004F40EBC25008BFC8
S32D0000CF5020F00100704790F0000F0CF0004C08BF49024CEA502040EA51207F3AC2BFD2F1FF0340EAC2507047CF
S32D0000CF7840F400004FF00003013A5DDC12F1190FDCBF00F000407047C2F10002410021FA02F1C2F1200200FA21
S32D0000CFA002FC5FEA310040F1000053EA4C0308BF20EADC70704792F0000F00F0004C02BF400010F4000F013A3E
S32D0000CFC8F9D040EA0C0093F0000F01F0004C02BF490011F4000F013BF9D041EA0C018FE70CEAD15392EA0C0FEB
S32D0000CFF018BF93EA0C0F0AD030F0004C18BF31F0004CD8D180EA010000F00040704790F0000F17BF90F0004FEB
S32D0000D018084691F0000F91F0004F14D092EA0C0F01D142020FD193EA0C0F03D14B0218BF084608D180EA0100A9
S32D0000D04000F0004040F0FE4040F40000704740F0FE4040F4400070474FF0FF0C1CEAD0521EBF1CEAD15392EAAB
S32D0000D0680C0F93EA0C0F69D0A2EB030280EA010C49024FEA402037D04FF0805343EA111143EA10130CF00040CD
S32D0000D0908B4238BF5B0042F17D024FF4000C8B4224BF5B1A40EA0C00B3EB510F24BFA3EB510340EA5C00B3EB10
S32D0000D0B8910F24BFA3EB910340EA9C00B3EBD10F24BFA3EBD10340EADC001B0118BF5FEA1C1CE0D1FD2A3FF695
S32D0000D0E050AF8B4240EBC25008BF20F0010070470CF0004C4CEA50207F32C2BFD2F1FF0340EAC250704740F47E
S32D0000D10800004FF00003013A37E792F0000F00F0004C02BF400010F4000F013AF9D040EA0C0093F0000F01F0C0
S32D0000D130004C02BF490011F4000F013BF9D041EA0C0195E70CEAD15392EA0C0F08D142027FF47DAF93EA0C0FA9
S32D0000D1587FF470AF084676E793EA0C0F04D14B023FF44CAF08466EE730F0004C18BF31F0004CCAD130F0004234
S32D0000D1807FF45CAF31F000437FF43CAF5FE700BF4FF0FF3C06E000BF4FF0010C02E000BF4FF0010C4DF804CDCE
S32D0000D1A84FEA40024FEA41037FEA226C18BF7FEA236C11D001B052EA530C18BF90EA010F58BFB2EB030088BF0F
S32D0000D1D0C81738BF6FEAE17018BF40F0010070477FEA226C02D15FEA402C05D17FEA236CE4D15FEA412CE1D089
S32D0000D1F85DF8040B704700BF844608466146FFE70FB5FFF7C9FF002848BF10F1000F0FBD4DF808EDFFF7F4FFDA
S32D0000D2200CBF012000205DF808FB00BF4DF808EDFFF7EAFF34BF012000205DF808FB00BF4DF808EDFFF7E0FF4A
S32D0000D24894BF012000205DF808FB00BF4DF808EDFFF7D2FF94BF012000205DF808FB00BF4DF808EDFFF7C8FF6A
S32D0000D27034BF012000205DF808FB00BF4FEA4002B2F1FE4F0FD34FF09E03B3EB12620DD94FEA002343F000434E
S32D0000D29810F0004F23FA02F018BF404270474FF00000704712F1610F01D1420205D110F0004008BF6FF00040FF
S32D0000D2C070474FF00000704742000ED2B2F1FE4F0BD34FF09E03B3EB126209D44FEA002343F0004323FA02F0F3
S32D0000D2E870474FF00000704712F1610F01D1420202D14FF0FF3070474FF00000704700BF036803B11B18184685
S32D0000D310704700BF03685A004CBF43F0004323F00043C018704700BF2DE9F84F0446914641B301F1FF3BDA46D1
S32D0000D338002707EB0A0101EBD1756D1004EBC5063046FFF7E3FF8046681CAB4504EBC0000DD0FFF7DBFF01381D
S32D0000D360C84504D9BD4209D005F1FF3AE5E7484505D26F1CE1E74FF0FF30F1E700263046BDE8F88F0E46304653
S32D0000D388BDE8F88F30B52B4B83B004468D1E002B49D0284601A9AFF300800346002822D02A4618460199FFF789
S32D0000D3B0BBFF054600281DD0FFF7ACFF6B68A064012B10D0281D002B22DBFFF7A3FF0021E06421650368002B2B
S32D0000D3D80FDBFFF79BFF2061002003B030BD002323610520F9E720610920F6E720610920F3E7C3F3036058B193
S32D0000D40001280CD002280ED0002020610920E8E70122E0642265DDE7094B2361E1E7094A00202261DDE70849FB
S32D0000D42800202161D9E7074B0749C81AC2100192B6E700BF0000000059D9000055D9000051D90000D09801003C
S32D0000D450D09A0100036810B50446D80706D4990704F1480009D500F00DFD23685A0709D518070ED5D90613D5C8
S32D0000D47810BD00F0FBFC23685A07F5D404F1D00000F004FD23681807F0D404F5D87000F005FD2368D906EBD49D
S32D0000D4A004F50C70BDE8104000F040BD2DE9F0470F1D054691460FCFADF5916D02AC261D0FC60FCF0FC60FCF97
S32D0000D4C80FC697E80F00D5F80C80D5F818A0002786E80F00216C27602846FFF753FF0646B94514BF4FF00A0918
S32D0000D4F04FF00909FEB1A16B49F01009616401208DE8100449462A462B46C04700282BD1002E2AD1204692A9DC
S32D0000D5184FF4107208F0EEFF082F28D1216C2846FFF730FF06464FF00909002EDFD1206C21464FF410726861EF
S32D0000D54092A808F0DBFF2F69294692AA4846B847A09B0746636401208DE8100449462A462B46C0470028D3D0A6
S32D0000D5680926304622B00DF5806DBDE8F087072FF6D1201D00F06EFC38B504460D46296C2046FFF7FFFE50B9FE
S32D0000D5902A6C23696261012021462A4698470828F1D0072801D00BF0E5F8281D00F056FC11B933B102207047DA
S32D0000D5B804298CBF0220012070470F2A01D90220704700EB820118464A68009B1A60704710B50A4684B0002133
S32D0000D5E00B4603AC0094FFF7E3FF039804B010BD11B933B10220704704298CBF0220012070470F2A01D9022067
S32D0000D6087047009900EB8202096818465160704710B584B004AB0C4643F8042D0021009322460B46FFF7E0FF56
S32D0000D63004B010BD2DE9F04FCD6C8BB00C4655F8041B174600F008021E46039200F003080795002B40F0CF8033
S32D0000D65809020691216D8DF821300323B8F1020F8DF8203008BFA56B11F0010340F0D380019304F15803029311
S32D0000D680D5F80090B9F1000F00F0CB80022E00F0AE80B5F80090B5F802A00435A26C0F212AF0010B384693445F
S32D0000D6A8FFF796FF834518D829F0010CE3440AF0010A09F00103584543EA4A092CBF00200120B9F1010F12D0DD
S32D0000D6D032D2B8F1000F02D0002840F01D810435CEE70AF0010A09F0010343EA4A090020B9F1010FECD1B8F1F8
S32D0000D6F8000F40F0B680C8B16B68D5F800909A1C19D0029A013309920DD0281DFFF7F8FD4FEAD972014609AB50
S32D0000D72020460AF08DF8002800F0F280099A002A40F0BA800835A3E7B9F1020F03D009200BB0BDE8F08F2B6845
S32D0000D74823F000420092B8F1000F71D1002843D00398002840F0A1800098002800F0A080009BDDF80C90DB07C5
S32D0000D77005F1040A40F1B480CDF810800596A846029E12E000998D4200F0D9800996FFF7BBFD5A46014609AB19
S32D0000D79820460AF051F8A946B0B90AF1040A05F1010950460996FFF7ABFD09AB0146002220460AF041F80AF1D5
S32D0000D7C0040A834609F101055046BBF1000FD9D04546059EDDF81080009A4A4564D02B68002B7BDB0099481C69
S32D0000D7E805EB800548E7D5F804A0083552E70B04C1F30740216D06930222B8F1020F05EB800508BFA56B8DF8A8
S32D0000D810210011F001038DF820203FF42DAF00200190384606A900F019FC002887D1019A002A43D1082083E722
S32D0000D8380D213846D4F82090FFF7CAFE8145CAD1A26A9542C7D10098291D00220423A062E262236361632868B9
S32D0000D86000286EDB01220192BCE70D213846D4F82090FFF7B1FE81457FF45CAFA16A8D427FF458AF2846FFF707
S32D0000D88845FD0F2102463846FFF7C2FE384600212246FFF7BDFE07204EE7009900299BD138460D21FFF794FE0E
S32D0000D8B0099B20626362A562062041E70F213846FFF78AFE0E2102463846FFF7A5FE38460F211E4AFFF7A0FEA6
S32D0000D8D8072031E7043581E7029950460991FFF70FFD039A014609AB204609F0A5FF00287FF46EAFCDF81080CD
S32D0000D90005960AF1040A4FF00109A846029E4CE7CDF824800835B3E62846FFF7FBFC04350646A56320460AF0C4
S32D0000D92801F800283FF407AF38460F213246FFF76FFE072000E74546B2E7009B591C05EB81009CE7957A0100F8
S32D0000D95002236FE601236DE600236BE62DE9F0470446E8B004290CD8DFE801F0380391930F00150C012B96B249
S32D0000D97800F07881052B00F0C780022068B0BDE8F087002BF9D1102AF7D82368D90600F1738164A8019200F0FF
S32D0000D9A0CFFA019AA36BD00744BF53F8040B6490910744BF53F8041B6591500744BF53F8041B6691110748BFEA
S32D0000D9C853F8042B64A8A36348BF679200F0AAFA0020D3E7002BD0D1A36BD00791B244BF53F8042B62608A0773
S32D0000D9F044BF53F8042BA260480744BF53F8042BE2600A0744BF53F8042B2261C80644BF53F8042B62618A06CD
S32D0000DA1844BF53F8042BA261480644BF53F8042BE2610A0644BF53F8042B2262C80544BF53F8042B62628A05A4
S32D0000DA4044BF53F8042BA262480544BF53F8042BE2620A0544BF53F8042B2263C80444BF53F8042B626311F405
S32D0000DA6800501CBF53F8042BA2634A0444BF53F8042BE2630A0444BF53F8042B2264002840D1A3637AE7012004
S32D0000DA9078E7032B7FF475AF160C95B2AA19102A3FF66FAF2368180700F10B8144A800F01BFAA76B4FEA450ED5
S32D0000DAB83B460DB344A90EF1FF3C01EBC60653F8040B62460CF0010146F8040B92B129B153F8041B013A46F8D3
S32D0000DAE0041B0BD01846314650F8045B41F8045B5D68031D75600E1D023AF3D107EB8E0344A8A36300F0CEF9F9
S32D0000DB0800203BE7002039E777192022BA42FFF434AF012B00F0A9800F2D40F2A9803746F6B1052B7FF429AF4E
S32D0000DB300F2D11D82268D0070ED522F00101052B2160204600F0DA8022F0030240F8482B019300F093F9019B7B
S32D0000DB581FB12268510700F1B880012B00F0BF800F2D75D9002F40F0A080D4F83890002EC8462EDD49460DF1F8
S32D0000DB80080A4FEA46080AEBC50251F8046B08F1FF3000F0010A42F8046BA8F1020CD0B1BAF1000F08D051F89B
S32D0000DBA8040B0CF1FF3CBCF1FF3F42F8040B0ED00E46104656F804AB40F804AB4968ACF1020C5160311D021DEE
S32D0000DBD0BCF1FF3FF0D109EB8808A7B3102D2CBF2E4610260DF5D079414609EBC60CACF5C8724FEA470951F886
S32D0000DBF8046B09F1FF3000F0010A42F8046BA9F1020CD0B1BAF1000F08D051F8040B0CF1FF3CBCF1FF3F42F853
S32D0000DC20040B0ED00E46104656F804AB40F804AB4968ACF1020C5160311D021DBCF1FF3FF0D108EB8908012B85
S32D0000DC482BD00F2DC4F8388008D9FFB9384695E602A8019300F016F9019B83E702A800F00DF9F2E777191022F3
S32D0000DC7050E70F2D3FF685AE102F10D9103F54E723F01003236004F50C70019200F058F9019A82E624A800F048
S32D0000DC98FDF8002072E6002746E708F1040302A8A36300F0E3F8002068E624A80193C5F1100600F0EFF8019B15
S32D0000DCC057E723F0080704F5D870276000F00CF9ECE6204622F0040140F8D01B019300F0DDF8019B3DE702A8E4
S32D0000DCE8019300F0C7F8019B002F3FF43EAFC5F110063AE741F0020140F8481B019300F0C1F8019B24E700BF81
S32D0000DD10406C7047F0B50D460F1DC96B296404460FCFADF5117D01AE0FC60FCF0FC60FCF0FC697E80F0086E85F
S32D0000DD380F004FF0FF33009310992046FFF722FB58B9266921466A46B04708280646F3D06846FFF77BFB062E4D
S32D0000DD6003D009200DF5117DF0BD20462946FFF707FC00BF10B4DC6BC1608261194600221C6410BCFFF792BBB0
S32D0000DD8838B54269C3680A6404460D4623B10122FFF788FB0AF0EAFC0369214602202A469847072803D00828D9
S32D0000DDB004D00AF0DFFC281D00F050F820462946FFF7DEFBC36823B1CA6B0A640022FFF76DBB9FE7704700BF9D
S32D0000DDD808B5836801460BB10120984708BD00BFF0B5D46B171D146405460C460FCFADF5277D01AE0FC60FCF3B
S32D0000DE000FC60FCF0FC697E80F0086E80F004FF0FF330093109990A8FFF7B8FA034690AA68460C21BBB9FFF70C
S32D0000DE28F7FB21466846A847064690A908206A466EB9949B98470528064601D00928E5D16846FFF703FB3046FB
S32D0000DE500DF5277DF0BD0926F6E700BF00F1340191E838009C46A6464CF8045D90E8FF0FE54600BD90EC210B26
S32D0000DE78704700BF80EC210B704700BF90EC200B704700BF80EC200B704700BFD0EC200B704700BFC0EC200B9A
S32D0000DEA0704700BFF0EC0201F0EC0211F0EC0221F0EC0231F0EC0241F0EC0251F0EC0261F0EC0271F0EC0281C7
S32D0000DEC8F0EC0291F0EC02A1F0EC02B1F0EC02C1F0EC02D1F0EC02E1F0EC02F1704700BFE0EC0201E0EC0211AF
S32D0000DEF0E0EC0221E0EC0231E0EC0241E0EC0251E0EC0261E0EC0271E0EC0281E0EC0291E0EC02A1E0EC02B1DE
S32D0000DF18E0EC02C1E0EC02D1E0EC02E1E0EC02F1704700BFB0FC0181B0FC0191B0FC01A1B0FC01B1704700BF3B
S32D0000DF40A0FC0181A0FC0191A0FC01A1A0FC01B1704700BFEC4600B52DE900502DE9FF1F4FF000032DE90C0080
S32D0000DF6801A9FFF7D3FEDDF840E012B0704700BFEC4600B52DE900502DE9FF1F4FF000032DE90C0001A9FFF768
S32D0000DF90FBFEDDF840E012B0704700BFEC4600B52DE900502DE9FF1F4FF000032DE90C0001A9FFF707FFDDF8DD
S32D0000DFB840E012B0704700BFEC4600B52DE900502DE9FF1F4FF000032DE90C0001ABFFF7CDFEDDF840E012B0DA
S32D0000DFE0704700BFEC4600B52DE900502DE9FF1F4FF000032DE90C0001AAFFF7F5FEDDF840E012B0704700BFF7
S32D0000E008027A03461AB9427A42B9B02070470068013A01021A72000E196070474168501E587251F8040B032246
S32D0000E030596001021A72000E1960704710B5002184B00C220DEB02040B460094FFF7B0FA039804B010BD00BF96
S32D0000E058F0E700BF2DE9F043064685B00D464FF000094FF47F672846FFF7CAFFB028044600F0B08010F0800186
S32D0000E08020D000F0F003802B74D0902B37D0A02B45D0B02B56D0C02B00F0858000F0F800D0280BD104F0070274
S32D0000E0A8511C41F40022304601210523FFF752FC0028D8D0092005B0BDE8F0834FEA800203A85FFA82F80090F3
S32D0000E0D00D220B463046FFF76BFA039B600608F104084CBFC8EB0303434403AC03930094002130460D220B468D
S32D0000E0F8FFF77AFAB7E700F00F020D2ADAD00F2AD8D0002103AC009430460B4603ACFFF74BFA0094E8E7C243B2
S32D0000E12002F0070C47FA0CF0210700F47F6248BF42F48042002130460B46FFF70FFC0028BCD194E7B1285DD074
S32D0000E148B2286ED0B32800F0958000F0FC02B42A46D000F00702531C43F40022012130460B46FFF7F7FB002815
S32D0000E170A4D17CE72846FFF747FF210240EA0104B4F5004F9AD0230500211A0C30460B462401FFF7E3FB0028F4
S32D0000E19890D114F4004F18BF4FF0010963E7C62873D0C72800F0848000F0F802C02A00F09280C82800F0A68047
S32D0000E1C0C9287FF47BAF2846FFF71EFF00F00F0300F0F0015A1C42EA013268E7B9F1000F00F0838000206AE7FE
S32D0000E1E800F00301481C022140F480220B463046FFF7B0FB00287FF45DAF34E72846FFF7FFFE024600283FF48A
S32D0000E21055AF10F0F0017FF451AF30460B46FFF79DFB00287FF44AAF21E700210D220B4603AC30460094FFF737
S32D0000E238BBF92846FFF7E4FE022402060DD5039B00F07F0000FA04FE03EB0E0128460391FFF7D6FE0734030698
S32D0000E260F1D4039B00F07F0103AA03F5017C01FA04F400920CEB0402039239E72846FFF7C3FE00F00F03591CC8
S32D0000E28800F0F00041EA003268E72846FFF7B8FE00F00F03591C00F0F00041EA0032032130460B46FFF756FBDC
S32D0000E2B000287FF403AFDAE62846FFF7A5FE024600283FF4FBAE10F0F0037FF4F7AE30460421FFF743FB0028DE
S32D0000E2D87FF4F0AEC7E600F00F01481C40F42022DDE703AC49460E224B4630460094FFF75BF9304649460F2233
S32D0000E3004B460094FFF774F94846D8E62846FFF77BFE00F0F00200F00F001032431C43EA0232C4E610B5C26CBE
S32D0000E32884B0032054688DF80C00D37924020832084601A9019402928DF80D30FFF78AFE04B010BD08B5FFF7E2
S32D0000E35083FE806C08BD00BF08B5FFF77DFEC16CC87901EB800303F1080008BD08B50AF001FA00BF08B50AF0BA
S32D0000E378FDF900BF80B586B000AFF860B9607A603B60FB68274ADA62FB68BA685A604FF0030009F075F9024682
S32D0000E3A0FB689A624FF0030009F06EF90246FB685A624FF000037B6111E0FB689A6A7B69D3184FF000021A70D7
S32D0000E3C8FB685A6A7B69D3184FF000021A707B6903F101037B617B69022BCCBF00230123DBB2002BE5D1FB68FA
S32D0000E3F07A681A60FB683A689A60FB683A6ADA60FB687A6A1A61FB68BA6A5A61FB68FA6A9A61FB683A6BDA615A
S32D0000E418FB687A6B1A62FB68184607F11807BD4680BD00BF77E1B14080B584B000AFF860B9607A603B60FB6891
S32D0000E440184601F005FBFB680B4A1A60FA6848F63413C0F201035360FB68BA681A61FB687A685A61FB683A68D8
S32D0000E4689A61FB68184607F11007BD4680BD00BF108F010080B584B000AFF860B960FA71BB71FB68184601F04A
S32D0000E490DFFAFB680B4A1A60FA6848F64413C0F201035360FB68BA681A61FB68FA791A75FB68BA795A75FB68C6
S32D0000E4B8184607F11007BD4680BD00BFA08F010080B584B000AFF860B9607A60FB68184601F0BAFAFB68184A0C
S32D0000E4E01A60FA6848F65813C0F201035360FB68BA681A61FB687A685A61FB68114ADA61FB681B691846FEF7ED
S32D0000E5089FFC0246FB68DB6910461946FEF7E2FB034618460A49FEF79BFD03461A46FB681A62FB685A69FB683C
S32D0000E5309A61FB68184607F11007BD4680BD00BFF08F0100000020420000C04080B584B000AFF860B9607A60AE
S32D0000E558FB68184601F078FAFB680A4A1A60FA6848F66C13C0F201035360FB68BA681A61FB687A685A61FB6855
S32D0000E580184607F11007BD4680BD00BF3890010080B582B000AF78607B68184601F058FA7B680A4A1A607A6833
S32D0000E5A848F67C13C0F2010353607B68064A9A617B684FF000021A777B68184607F10807BD4680BD8090010093
S32D0000E5D09A99993E80B582B000AF786039607B68184601F035FA7B68084A1A607A6848F69413C0F2010353604C
S32D0000E5F87B683A681A617B68184607F10807BD4680BD00BFD090010080B582B000AF78607B68184601F018FA1B
S32D0000E6207B68074A1A607A6848F6B013C0F2010353607B68184607F10807BD4680BD00BF2891010080B582B06A
S32D0000E64800AF78607B68184601F0FEF97B68074A1A607A6848F6CC13C0F2010353607B68184607F10807BD4693
S32D0000E67080BD00BF789101002DE9F04186B006AF43F22863C1F6FF7343F2D862C1F6FF721A6043F22863C1F6D3
S32D0000E698FF731B6818464FF0000105F03BFA43F22863C1F6FF731B6818464FF0010105F08FFA4FF0030008F0D4
S32D0000E6C0AFFF044620464FF0030104F0BFFA43F23C63C1F6FF731C604FF0080008F0A0FF04462046DFF82018C8
S32D0000E6E801F0BCFA43F24463C1F6FF731C604FF01C0008F0C5FF024643F23463C1F6FF731A604FF0020008F0D5
S32D0000E71087FF044620464FF0000103F021F943F24C63C1F6FF731C604FF0020008F078FF044620464FF001012E
S32D0000E73803F012F943F25063C1F6FF731C604FF0100008F069FF044643F24C63C1F6FF731A6843F25063C1F601
S32D0000E760FF731B68204611461A4601F009FB43F24863C1F6FF731C6043F23863C1F6FF734FF000021A6043F216
S32D0000E7885463C1F6FF734FF001021A7043F25563C1F6FF734FF000021A7043F26063C1F6FF7343F25862C1F60F
S32D0000E7B0FF721A604FF01C0008F032FF044620464FF0080104F0DEF843F26463C1F6FF731C604FF01C0008F016
S32D0000E7D823FF044620464FF0090104F0CFF843F26863C1F6FF731C604FF0010008F014FF044620464FF003015A
S32D0000E80003F09CFC43F27063C1F6FF731C604FF0010008F005FF044620464FF0010103F08DFC43F27863C1F642
S32D0000E828FF731C604FF0010008F0F6FE044620464FF0020103F07EFC43F27463C1F6FF731C604FF0010008F060
S32D0000E850E7FE044620464FF0040103F043FE43F27C63C1F6FF731C604FF0010008F0D8FE044620464FF00001D6
S32D0000E87803F034FE43F28063C1F6FF731C604FF0300008F0C9FE044643F23C63C1F6FF73196843F26063C1F6EB
S32D0000E8A0FF731A6843F26463C1F6FF731D6843F26863C1F6FF73D3F8008043F27463C1F6FF73D3F800C043F243
S32D0000E8C87863C1F6FF73D3F800E043F27063C1F6FF731E6843F27C63C1F6FF73186843F28063C1F6FF731B683B
S32D0000E8F0CDF80080CDF804C0CDF808E003960490059320462B46FFF739FD43F24063C1F6FF731C604FF00C00EF
S32D0000E91808F082FE044620464FF0000104F05CFB43F26C63C1F6FF731C6043F26C63C1F6FF731B6818464FF424
S32D0000E940FA7104F06BFB43F26C63C1F6FF731B68184640F67F1104F07FFB00F0DBFA43F23463C1F6FF731A6866
S32D0000E96843F23863C1F6FF731B684FEA8303D3181A6843F23063C1F6FF731A6043F23063C1F6FF731B6818469C
S32D0000E99001F0A8F843F22863C1F6FF73186843F24863C1F6FF73196843F24063C1F6FF731A6843F26C63C1F697
S32D0000E9B8FF731B6801F06EF800E000BF43F24063C1F6FF731B68184601F098F843F24063C1F6FF731B68184601
S32D0000E9E04FF0010101F0E2F80346002B18D043F23063C1F6FF731A6843F28863C1F6FF731A6000BF43F23063E4
S32D0000EA08C1F6FF731B685A6948F63423C0F201039A4240F0168100E143F24063C1F6FF731B6818464FF0000180
S32D0000EA3001F0BCF80346002B31D043F23863C1F6FF731B6803F1FF3243F23863C1F6FF731A6043F23863C1F603
S32D0000EA58FF731B68002B0BDA43F23863C1F6FF731B6803F1070243F23863C1F6FF731A6043F23463C1F6FF73AA
S32D0000EA801A6843F23863C1F6FF731B684FEA8303D3181A6843F23063C1F6FF731A6043F24063C1F6FF731B684F
S32D0000EAA818464FF0020101F07DF80346002B31D043F23863C1F6FF731B6803F1010243F23863C1F6FF731A60DF
S32D0000EAD043F23863C1F6FF731B68062B0BDD43F23863C1F6FF731B68A3F1070243F23863C1F6FF731A6043F2C2
S32D0000EAF83463C1F6FF731A6843F23863C1F6FF731B684FEA8303D3181A6843F23063C1F6FF731A6043F24463BF
S32D0000EB20C1F6FF731B68184601F0B6F803464FF0010214461846F549FEF796FB0346002B02D14FF000031C462C
S32D0000EB48E3B2002B3FF439AF43F22863C1F6FF731B68184605F008F843F22863C1F6FF731B68184648F6D81114
S32D0000EB70C0F2010105F084F843F22863C1F6FF731A6843F23063C1F6FF731B685B691046194605F073F943F264
S32D0000EB982863C1F6FF731B68184648F6E411C0F2010105F067F943F22863C1F6FF731B68184648F6FC11C0F2B7
S32D0000EBC0010105F05BF943F22863C1F6FF731B68184648F61421C0F2010105F051F843F22863C1F6FF731A6842
S32D0000EBE843F25463C1F6FF731B78002B04D048F62023C0F2010303E048F62823C0F201031046194605F036F926
S32D0000EC1043F24463C1F6FF731B68184601F070F8CFE643F25463C1F6FF731B7883F00103DAB243F25463C1F694
S32D0000EC38FF731A7043F25563C1F6FF734FF000021A7043F25463C1F6FF731B78002B2DD043F23063C1F6FF7310
S32D0000EC601B685A6948F63423C0F201039A4221D043F25563C1F6FF731B7883F00103DBB2002B17D04FF000002A
S32D0000EC884FF07E5101F5E00103F0CEF943F26063C1F6FF731B68184606F0DCFD43F26063C1F6FF731B681846EC
S32D0000ECB007F08EFA43F23063C1F6FF731B68DB68002B0DDC43F22863C1F6FF731B68184648F64021C0F20101CF
S32D0000ECD805F0D0F800BF3CE643F23063C1F6FF731B681B7E002B2ED043F23063C1F6FF731B68184600F0C6FCB6
S32D0000ED00024643F22C63C1F6FF731A6043F22C63C1F6FF731B681B7A83F00103DBB2002B15D043F22C63C1F6A2
S32D0000ED28FF731B681B681A6843F22C63C1F6FF731B681846904743F22C63C1F6FF731B684FF001021A7243F2AB
S32D0000ED504063C1F6FF731B68184600F0D3FE43F22C63C1F6FF731B681B6803F104031A6843F22C63C1F6FF73CA
S32D0000ED781B681846904743F24463C1F6FF731B68184600F085FF03464FF00102144618465C49FEF765FA0346D6
S32D0000EDA0002B02D14FF000031C46E3B2002B3AD043F22863C1F6FF731B68184604F0D8FE43F22863C1F6FF735C
S32D0000EDC81B68184648F65021C0F2010104F054FF43F22863C1F6FF731A6843F22C63C1F6FF731B685B6810469E
S32D0000EDF0194605F043F843F22C63C1F6FF731B681B6803F118031A6843F22C63C1F6FF731B681846904743F208
S32D0000EE184463C1F6FF731B68184600F06DFF43F22C63C1F6FF731B681B6803F108031A6843F22C63C1F6FF735E
S32D0000EE401B68184690470346002B23D043F22C63C1F6FF731B681B6803F110031A6843F22C63C1F6FF731B6899
S32D0000EE681846904743F23063C1F6FF731B681B7E83F00103DBB2002B3ED043F23063C1F6FF731B68184600F03B
S32D0000EE900FFC35E043F22C63C1F6FF731B681B6803F10C031A6843F22C63C1F6FF731B68184690470346002BA3
S32D0000EEB822D043F23063C1F6FF731B681B7E83F00103DBB2002B07D043F23063C1F6FF731B68184600F0E8FB82
S32D0000EEE043F22C63C1F6FF731B681B6803F114031A6843F22C63C1F6FF731B6818469047034803F06FF8D5E67F
S32D0000EF0800000000CDCCCC3D0AD7233C90B58BB000AF4FF000037B6215E04FF01C0008F07BFB0446204600F04D
S32D0000EF3017FC43F23463C1F6FF731A687B6A4FEA8303D3181C607B6A03F101037B627B6A062BCCBF002301237C
S32D0000EF58DBB2002BE1D143F23463C1F6FF731B681B68FB6143F23463C1F6FF731B685B68BB6143F23463C1F6F0
S32D0000EF80FF731B689B687B6143F23463C1F6FF731B68DB683B6143F23463C1F6FF731B681B69FB6043F2346315
S32D0000EFA8C1F6FF731B685B69BB6043F23463C1F6FF731B689B697B60B86948F65821C0F2010100F0FBFB786906
S32D0000EFD048F66821C0F2010100F0F4FB386948F67421C0F2010100F0EDFBF86948F67C21C0F2010100F0E6FBF8
S32D0000EFF8F86848F68421C0F2010100F0DFFBB86848F69C21C0F2010100F0D8FB786848F63421C0F2010100F081
S32D0000F020D1FB4FF0100008F0FBFA04462046FFF709FBB869214600F0D3FB4FF0180008F0EFFA04462046FFF7EC
S32D0000F048E3FA7869214600F0C7FB4FF0180008F0E3FA04462046FFF7D7FAF869214600F0BBFB4FF0240008F057
S32D0000F070D7FA044620464FF06401DFF8EC25FFF723FAB868214600F0ABFB4FF0180008F0C7FA04462046FFF77F
S32D0000F098BBFA3869214600F09FFB4FF0180008F0BBFA044620464FF02D01DFF8B825FFF749FA3869214600F0FD
S32D0000F0C08FFB4FF01C0008F0ABFA044620464FF064014FF00002DFF89835FFF7A9F93869214600F07DFB4FF020
S32D0000F0E8180008F099FA044620464FF07801DFF87C25FFF727FA3869214600F06DFB4FF0200008F089FA0446DC
S32D0000F1102046FFF73DFA3869214600F061FB4FF01C0008F07DFA044620464FF000014FF00002DFF84035FFF7AD
S32D0000F1387BF93869214600F04FFB4FF0180008F06BFA044620464FF02D01DFF81825FFF7F9F93869214600F02E
S32D0000F1603FFB4FF01C0008F05BFA044620466FF063014FF00002DFF80035FFF759F93869214600F02DFB4FF038
S32D0000F188180008F049FA044620464FF02D01DFF8DC24FFF7D7F93869214600F01DFB4FF0180008F039FA044670
S32D0000F1B020464FF0AA01DFF8BC24FFF7C7F93869214600F00DFB4FF0180008F029FA044620464FF02D01DFF80E
S32D0000F1D89C24FFF7B7F93869214600F0FDFA4FF01C0008F019FA044620464FF000014FF03202DFF88034FFF76A
S32D0000F20017F93869214600F0EBFA4FF0180008F007FA044620464FF07801DFF85824FFF795F93869214600F06C
S32D0000F228DBFA4FF0200008F0F7F904462046FFF7ABF93869214600F0CFFA4FF0180008F0EBF9044620464FF06F
S32D0000F2502D01DFF82024FFF779F93869214600F0BFFA4FF0180008F0DBF9044620464FF050014FF000024FF04B
S32D0000F2780003FFF7FFF83869214600F0ADFA4FF01C0008F0C9F9044620464FF000014FF00002F64BFFF7C8F89C
S32D0000F2A03869214600F09CFA4FF0180008F0B8F9044620464FF0AA01ED4AFFF747F93869214600F08DFA4FF0ED
S32D0000F2C81C0008F0A9F9044620464FF046014FF00002E64BFFF7A8F83869214600F07CFA4FF0180008F098F9D6
S32D0000F2F0044620464FF02D01DE4AFFF727F93869214600F06DFA4FF01C0008F089F9044620466FF063014FF0AF
S32D0000F3180002D84BFFF788F83869214600F05CFA4FF01C0008F078F9044620464FF000014FF00002CD4BFFF7DB
S32D0000F34077F83869214600F04BFA4FF01C0008F067F9044620464FF064014FF00002C64BFFF766F8386921463E
S32D0000F36800F03AFA4FF01C0008F056F9044620466FF063014FF00002BD4BFFF755F83869214600F029FA4FF058
S32D0000F3901C0008F045F9044620464FF064014FF00002B44BFFF744F83869214600F018FA4FF01C0008F034F9AD
S32D0000F3B8044620466FF063014FF00002AC4BFFF733F83869214600F007FA4FF01C0008F023F9044620464FF004
S32D0000F3E000014FF00002A64BFFF722F83869214600F0F6F94FF0180008F012F9044620464FF02D014FF001021C
S32D0000F4084FF00003FFF736F83869214600F0E4F94FF01C0008F000F9044620464FF000014FF00002944BFEF74A
S32D0000F430FFFF3869214600F0D3F94FF01C0008F0EFF8044620466FF063014FF000028D4BFEF7EEFF386921463C
S32D0000F45800F0C2F94FF01C0008F0DEF8044620464FF000014FF00002804BFEF7DDFF3869214600F0B1F94FF004
S32D0000F480180008F0CDF8044620464FF000014FF001024FF00003FEF7F1FF3869214600F09FF94FF0180008F051
S32D0000F4A8BBF8044620464FF053014FF001024FF00003FEF7DFFF3869214600F08DF94FF01C0008F0A9F804462D
S32D0000F4D020464FF000014FF00002664BFEF7A8FF3869214600F07CF94FF0140008F098F8044620466449FFF73F
S32D0000F4F86DF83869214600F06FF94FF01C0008F08BF8044620464FF000014FF00002574BFEF78AFF38692146F2
S32D0000F52000F05EF94FF0180008F07AF8044620464FF000014FF000024FF00103FEF79EFF3869214600F04CF972
S32D0000F5484FF01C0008F068F8044620464FF000014FF00002454BFEF767FF3869214600F03BF94FF0180008F04B
S32D0000F57057F8044620464FF055014FF000024FF00103FEF77BFF3869214600F029F94FF0180008F045F80446F6
S32D0000F59820464FF0AA01354AFEF7D4FF3869214600F01AF94FF01C0008F036F8044620464FF064014FF000028D
S32D0000F5C02C4BFEF735FF3869214600F009F94FF0180008F025F8044620464FF0FF31254AFEF7B4FF38692146D9
S32D0000F5E800F0FAF84FF01C0008F016F8044620466FF063014FF000021C4BFEF715FF3869214600F0E9F84FF076
S32D0000F610200008F005F804462046FEF7B9FFF868214600F0DDF84FF000033B6210E043F23463C1F6FF731A6888
S32D0000F6383B6A4FEA8303D3181B68184600F0E6F83B6A03F101033B623B6A062BCCBF00230123DBB2002BE6D155
S32D0000F66007F12C07BD4690BD0000204100000000000000400000803F0000003F9A99993E000040409A99193E4E
S32D0000F6880000A04080B483B000AF78607B684FF000021A767B681B681B68184607F10C07BD4680BC704700BFCB
S32D0000F6B080B485B000AF78604FF00003FB6013E07B689A68FB684FEA8303D3187A681168FA6802F101024FEACE
S32D0000F6D882028A1812681A60FB6803F10103FB607B68DB6803F1FF32FB689A42D4BF00230123DBB2002BDFD168
S32D0000F7007B68DB6803F1FF327B68DA604FF00003BB6011E07B681A68BB684FEA8303D3187A689168BA684FEABD
S32D0000F72882028A1812681A60BB6803F10103BB607B68DA68BB689A42D4BF00230123DBB2002BE3D17B684FF0D7
S32D0000F75001021A7607F11407BD4680BC704700BF80B582B000AF78604FF4C87007F08CFF02467B681A604FF45D
S32D0000F778C87007F085FF02467B685A604FF4C87007F07EFF02467B689A607B684FF00002DA607B684FF0000235
S32D0000F7A01A617A6848F6AC23C0F2010353617B684FF000021A767B68184607F10807BD4680BD00BF80B483B005
S32D0000F7C800AF786039607B683A685A6107F10C07BD4680BC704700BF80B483B000AF786039607B685A687B68E4
S32D0000F7F01B694FEA8303D3183A681A607B681B6903F101027B681A6107F10C07BD4680BC704700BF80B487B0BA
S32D0000F81800AF78604FF000037B6111E07B689A687B694FEA8303D3187A6811687A694FEA82028A1812681A6028
S32D0000F8407B6903F101037B617B68DA687B699A42D4BF00230123DBB2002BE3D14FF000033B6111E07B681A6883
S32D0000F8683B694FEA8303D3187A6851683A694FEA82028A1812681A603B6903F101033B617B681A693B699A4275
S32D0000F890D4BF00230123DBB2002BE3D17B681B69FB6014E07B681A68FB684FEA8303D3187A6891687A681269A4
S32D0000F8B8F868821A4FEA82028A1812681A60FB6803F10103FB607B68DA687B681B69D218FB689A42D4BF0023B2
S32D0000F8E00123DBB2002BDDD17B68DA687B681B69D2187B68DA607B684FF000021A617B684FF001021A7607F191
S32D0000F9081C07BD4680BC704780B582B000AF786039607B68012B0AD13A684FF6FF739A4205D143F25860C1F698
S32D0000F930FF7005F04FFF07F10807BD4680BD00BF80B500AF4FF001004FF6FF71FFF7E0FF80BD00BF80B582B0E0
S32D0000F95800AF78607B68DB68184600F0CDF97B68DB681846034900F0DBF907F10807BD4680BD00BF00000040E6
S32D0000F98080B483B000AF786007F10C07BD4680BC704700BF80B582B000AF78607B68DB68184600F0CFF9034638
S32D0000F9A8184607F10807BD4680BD00BF80B483B000AF786007F10C07BD4680BC704700BF80B483B000AF786031
S32D0000F9D04FF00003184607F10C07BD4680BC704780B483B000AF786007F10C07BD4680BC704700BF90B583B042
S32D0000F9F800AF786043F28463C1F6FF731A687B681B691046194604F035FA43F28463C1F6FF731B68184648F6F0
S32D0000FA20BC21C0F2010104F02BF943F28463C1F6FF731C687B68DB68184600F04DF903462046194604F042FA4E
S32D0000FA4807F10C07BD4690BD90B583B000AF78607B680E4A1A604FF0080007F0DDFD044620460B4900F0FAF883
S32D0000FA707B68DC607A6848F6C023C0F2010353607B684FF000021A727B68184607F10C07BD4690BDE88E01001A
S32D0000FA980000000080B485B000AFF860B9607A603B6043F28463C1F6FF73FA681A6043F28C63C1F6FF73BA68B2
S32D0000FAC01A6043F29063C1F6FF737A681A6043F29463C1F6FF733A681A6007F11407BD4680BC704780B483B010
S32D0000FAE800AF786043F28863C1F6FF737A681A6007F10C07BD4680BC704700BF90B585B000AF78604FF00003C1
S32D0000FB10FB600DE07B685A6AFB68D3187A68916AFA688A1812781A70FB6803F10103FB60FB68022BCCBF0023A1
S32D0000FB380123DBB2002BE9D17B689C6A7B685B68184603F005F9034623707B689B6A03F101047B685B6818466A
S32D0000FB6003F00CF9034623707B689B6A03F102047B685B68184603F015F90346237007F11407BD4690BD00BFBE
S32D0000FB8880B483B000AF78600B46FB707B689A6AFB78D3181B78184607F10C07BD4680BC704700BF80B483B048
S32D0000FBB000AF78600B46FB707B689A6AFB78D3181B78002B0CD07B685A6AFB78D3181B7883F00103DBB2002B3E
S32D0000FBD802D04FF0010301E04FF00003184607F10C07BD4680BC7047B0B582B000AF78607B689B68184603F013
S32D0000FC000BF804467B68DB68184603F005F80346E3181846FCF74EFD02460B46104619464FF000024FF08043A4
S32D0000FC28FCF7D4FE02460B4614461D467B68DB6A1846FCF74DFD02460B4620462946FCF7C5FE02460B461046BD
S32D0000FC501946FCF7EFFF0346184607F10807BD46B0BD00BF80B582B000AF7860396002F00BFA02460B461046FC
S32D0000FC781946FCF7DBFF02467B681A607B683A685A607B68184607F10807BD4680BD00BFB0B582B000AF7860E9
S32D0000FCA002F0F2F904460D467B681B681846FCF713FD02460B4620462946FCF7ADFB02460B4610461946FCF7AB
S32D0000FCC8B5FF0346184607F10807BD46B0BD00BF90B583B000AF78607B685C687868FFF7D7FF0346204619461D
S32D0000FCF0FCF7F4FF0346184607F10C07BD4690BD80B582B000AF786002F0BEF902460B4610461946FCF78EFF99
S32D0000FD1802467B681A6007F10807BD4680BD00BF80B483B000AF786039607B683A685A6007F10C07BD4680BC02
S32D0000FD40704700BF90B583B000AF78607868FFF7A3FF02467B685B684FF001010C4610461946FDF781FA0346BA
S32D0000FD68002B02D14FF000031C46E3B2184607F10C07BD4690BD00BF80B485B000AFF860B9607A60FB68BA68D6
S32D0000FD909A60FB687A68DA60FB68064A1A60FB68054A5A60FB68184607F11407BD4680BC704700BF398EE33EC2
S32D0000FDB80000704290B587B000AFF860B9607A60BA687B68D3187B61BA687B68D31A3B617B69642B02DD4FF00A
S32D0000FDE064037B617B6913F1640F02DA6FF063037B613B69642B02DD4FF064033B613B6913F1640F02DA6FF030
S32D0000FE0863033B61FB689C687B69C3F100031846FDF716F803462046194601F0B1FDFB68DC683869FDF70CF87B
S32D0000FE3003462046194601F0A7FD07F11C07BD4690BD00BF90B585B000AFF860B9607A60FB689C68BB68C3F125
S32D0000FE5800031846FCF7F4FF03462046194601F08FFDFB68DC687868FCF7EAFF03462046194601F085FD07F1CE
S32D0000FE801407BD4690BD00BF80B582B000AF786043F28C63C1F6FF7319687B681A697B685B69084611461A465C
S32D0000FEA8FFF788FF7B68DA687B689B6910461946FFF736FF7B68DB681846FFF71DFF07F10807BD4680BD00BF27
S32D0000FED080B483B000AF786007F10C07BD4680BC704700BF80B582B000AF78607B68DB681846FFF727FF03467F
S32D0000FEF8184607F10807BD4680BD00BF80B582B000AF786043F28C63C1F6FF731B6818464FF000014FF00002DB
S32D0000FF20FFF74CFF07F10807BD4680BD80B483B000AF78604FF00003184607F10C07BD4680BC704780B483B035
S32D0000FF4800AF786007F10C07BD4680BC704700BF90B583B000AF786043F28463C1F6FF731B68184648F6D021F0
S32D0000FF70C0F2010103F084FE43F28463C1F6FF731A687B681B691046194603F08BFF43F28463C1F6FF731B6812
S32D0000FF98184648F6DC21C0F2010103F06DFE43F28463C1F6FF731A687B685B691046194603F074FF43F28463EB
S32D0000FFC0C1F6FF731B68184648F6E421C0F2010103F056FE43F28463C1F6FF731C687B68DB681846FFF778FE12
S32D0000FFE803462046194603F06DFF07F10C07BD4690BD00BF80B582B000AF786039607B681846FFF721FD7B68A5
S32D00010010084A1A607A6848F6EC23C0F2010353607B683A681A617B68184607F10807BD4680BD00BF908E0100F7
S32D0001003880B582B000AF78607B68DB6818463249FFF76EFE7B68DB681846FFF755FE43F29063C1F6FF731B68A9
S32D000100601B68184606F024F903461846FDF706F902467B689A617B689A697B681A627B681A6A7B681B69D218C0
S32D000100887B689A627B689A6A7B685A627B684FF0000283F831207B684FF0000283F830207B681B69002BD4BFE0
S32D000100B000230123DAB27B6883F832207B681B694FEAD373DAB27B6883F833207B689B6AB32B0ADD7B685B6A26
S32D000100D8A3F1B4027B685A627B684FF0010283F830207B689B6A002B0ADA7B685B6A03F1B4027B685A627B6855
S32D000101004FF0010283F8312007F10807BD4680BD00008040F0B583B000AF786043F29063C1F6FF731B681B6805
S32D00010128184606F0C1F803461846FDF7A3F802467B689A617B689A697B68DA617B6893F83030002B09D07B6886
S32D000101509B69592B05DC7B68DB6903F1B4027B68DA617B6893F83130002B09D07B689B695A2B05DD7B68DB69E0
S32D00010178A3F1B4027B68DA617B68DA697B689B6AD21A7B68DA627B6893F83230002B5ED07B681B7D002B2AD10D
S32D000101A043F28C63C1F6FF731C6843F28C63C1F6FF731B685D6843F28C63C1F6FF731B681E687B68DB6A1846EE
S32D000101C8FCF73EFE034630461946FCF78DFE034628461946FCF77EFD03461846FDF74AF8034620464FF00001ED
S32D000101F01A46FFF727FE7B681B7D012B2BD143F28C63C1F6FF731C6843F28C63C1F6FF731B681D687B68DB6A74
S32D000102181846FCF715FE034628461946FCF764FE03461A4643F28C63C1F6FF731B685B6810461946FCF74EFDB9
S32D0001024003461846FDF71AF80346204619464FF00002FFF7F7FD7B6893F83330002B5FD07B681B7D002B2CD1DB
S32D0001026843F28C63C1F6FF731C6843F28C63C1F6FF731B685B6883F0004543F28C63C1F6FF731B681E687B6812
S32D00010290DB6A1846FCF7D8FD034630461946FCF727FE034628461946FCF718FD03461846FCF7E4FF0346204654
S32D000102B84FF000011A46FFF7C1FD7B681B7D012B2AD143F28C63C1F6FF731C6843F28C63C1F6FF731B685D68BB
S32D000102E043F28C63C1F6FF731B681E687B68DB6A1846FCF7A9FD034630461946FCF7F8FD034628461946FCF76B
S32D00010308EBFC03461846FCF7B5FF0346204619464FF00002FFF792FD07F10C07BD46F0BD80B483B000AF786014
S32D000103307B68DB6A052B0FDD7B6893F83330002B02D04FF0000320E07B6893F83230002B1AD04FF0010318E02A
S32D000103587B68DB6A13F1050F0FDA7B6893F83230002B02D04FF000030BE07B6893F83330002B05D04FF001033F
S32D0001038003E04FF0010300E0FFE7184607F10C07BD4680BC704700BF80B582B000AF786043F28C63C1F6FF7309
S32D000103A81B6818464FF000014FF00002FFF702FD07F10807BD4680BD80B582B000AF78607B68DB681846FFF720
S32D000103D0B9FC0346184607F10807BD4680BD00BFB0B582B000AF786043F28C63C1F6FF731B6818464FF0000110
S32D000103F84FF00002FFF7DEFC43F28863C1F6FF731D684FF0140007F007F90446204648F6FC21C0F20101FFF7F8
S32D00010420EDFD28462146FFF7DBF943F28863C1F6FF731D684FF0140007F0F2F80446204648F60431C0F201014B
S32D00010448FFF7D8FD28462146FFF7C6F943F28863C1F6FF731B681846FFF7D8F907F10807BD46B0BD80B483B061
S32D0001047000AF786007F10C07BD4680BC704700BF80B584B000AFF860B9601346FB71FB681846FFF7DDFAFB68D7
S32D00010498094A1A60FA6848F60C33C0F201035360FB68BA681A61FB68FA791A75FB68184607F11007BD4680BDAB
S32D000104C0588F0100B0B584B000AF786043F29063C1F6FF731B681B68184605F0E9FE03461846FCF7CBFE0346C8
S32D000104E8BB604FF00003FB607B681B7D002B16D17B681A69BB689A4205DD7B681A69BB68D31AFB600BE07B68BA
S32D000105101A69BB689A4206DA7B681B6903F1B402BB68D31AFB607B681B7D012B16D17B681A69BB689A4207DD07
S32D000105387B681B69A3F1B402BB68D31AFB6009E07B681A69BB689A4204DA7B681A69BB68D31AFB60FB685A2B93
S32D0001056019DCFB6813F15A0F15DB43F28863C1F6FF731D684FF0340007F052F804467B685B7D2046F9681A4609
S32D00010588FFF77AFF28462146FFF726F937E043F28863C1F6FF731D684FF0340007F03CF80446FB684FEAD3723D
S32D000105B0D3184FEA63031A467B685B7D204611461A46FFF75DFF28462146FFF709F943F28863C1F6FF731D686D
S32D000105D84FF0340007F020F80446FB684FEAD372D3184FEA63031A467B685B7D204611461A46FFF741FF2846E1
S32D000106002146FFF7EDF843F28863C1F6FF731B681846FFF7FFF807F11007BD46B0BD00BF80B483B000AF786046
S32D0001062807F10C07BD4680BC704700BF80B582B000AF786043F28C63C1F6FF731B6818464FF000014FF0000246
S32D00010650FFF7B4FB07F10807BD4680BD80B483B000AF78604FF00103184607F10C07BD4680BC704780B483B098
S32D0001067800AF78604FF00003184607F10C07BD4680BC704780B483B000AF786007F10C07BD4680BC704700BF7D
S32D000106A080B483B000AF786007F10C07BD4680BC704700BF00000000F0B583B000AF786043F28C63C1F6FF73D1
S32D000106C81A687B681B69104619464FF00002FFF771FB43F29063C1F6FF731B689B68184602F0A2FA43F29063D7
S32D000106F0C1F6FF731B68DB68184602F099FA7B68DB681846FFF7FCFA7B68DE687B685B691846FBF7E1FF024651
S32D000107180B461046194620A3D3E90023FCF756F902460B4614461D467B681B691846FCF787FB03461846FBF79F
S32D00010740CBFF02460B46104619464FF000024FF0804303F5B203FCF73DF902460B4620462946FCF737F9024680
S32D000107680B46104619464FF000024FF0804303F58023FCF701F802460B4610461946FCF755FA034630461946E4
S32D00010790FFF7CAFA07F10C07BD46F0BDAFF3008085EB51B81E452140B0B582B000AF786043F28C63C1F6FF73FB
S32D000107B81C687B68DD697B681A6A7B689B6910461946FCF791FB034628461946FCF784FA03461846FCF74EFD77
S32D000107E00346204619464FF00002FFF7E7FA07F10807BD46B0BD00BF90B583B000AF78607B685C6943F29063BF
S32D00010808C1F6FF731B681846FFF7EEF9034620461946FCF75FFA03461A467B689A617B689B694FF00102144676
S32D0001083018460749FCF7FAFC0346002B02D14FF000031C46E3B2184607F10C07BD4690BD0000000080B582B062
S32D0001085800AF786043F28C63C1F6FF731B6818464FF000014FF00002FFF7A4FA7B681B6803F118031B687868CF
S32D0001088098474FF000004FF0804101F5101101F0CFFB07F10807BD4680BD00BF80B582B000AF78607B68DB683F
S32D000108A81846FFF74BFA0346184607F10807BD4680BD00BFB0B582B000AF786043F28C63C1F6FF731B6818468F
S32D000108D04FF000014FF00002FFF770FA43F28863C1F6FF731D684FF0140006F099FE0446204648F63031C0F269
S32D000108F80101FFF77FFB28462146FEF76DFF43F28863C1F6FF731B681846FEF77FFF07F10807BD46B0BD00BF56
S32D0001092090B583B000AF786043F28463C1F6FF731B68184648F65031C0F2010103F0A0F943F28463C1F6FF733F
S32D000109481A687B681B691046194603F0A7FA43F28463C1F6FF731B68184648F65C31C0F2010103F089F943F2FF
S32D000109708463C1F6FF731C6843F29063C1F6FF731B689B68184602F047F903462046194603F088FA43F28463BE
S32D00010998C1F6FF731B68184648F66831C0F2010103F06AF943F28463C1F6FF731C6843F29063C1F6FF731B68A8
S32D000109C0DB68184602F028F903462046194603F069FA43F28463C1F6FF731B68184648F67831C0F2010103F03C
S32D000109E84BF943F28463C1F6FF731C6843F29063C1F6FF731B681846FFF7F6F803462046194603F05FFA43F22E
S32D00010A108463C1F6FF731B68184648F68C31C0F2010103F02DF943F28463C1F6FF731C6843F29063C1F6FF73E4
S32D00010A381B68DA6A7B685B6910461946FCF754FA03462046194603F03DFA43F28463C1F6FF731B68184648F68F
S32D00010A609C31C0F2010103F00BF943F28463C1F6FF731C687B68DB681846FFF72DF903462046194603F022FA69
S32D00010A8807F10C07BD4690BD90B583B000AF78607B681B69B3F1FF3F08D143F29463C1F6FF731B68184602F09B
S32D00010AB0C9FB0EE043F29463C1F6FF731C687B681B691846FCF7C0F903462046194602F0E3FA7B68DA687B6836
S32D00010AD85B6910461946FFF723F97B68DB681846FFF70AF907F10C07BD4690BD80B483B000AF786007F10C0793
S32D00010B00BD4680BC704700BF80B582B000AF78607B68DB681846FFF715F90346184607F10807BD4680BD00BFEE
S32D00010B2880B483B000AF786007F10C07BD4680BC704700BF80B483B000AF78604FF00003184607F10C07BD4654
S32D00010B5080BC704780B483B000AF786007F10C07BD4680BC704700BF90B583B000AF786043F28463C1F6FF7391
S32D00010B781B68184648F6A831C0F2010103F07CF843F28463C1F6FF731A687B681B691046194603F083F943F2B4
S32D00010BA08463C1F6FF731B68184648F6B431C0F2010103F065F843F28463C1F6FF731C687B68DB681846FFF7CB
S32D00010BC887F803462046194603F07CF907F10C07BD4690BD80B582B000AF786043F28C63C1F6FF731B68184692
S32D00010BF04FF064014FF00002FFF7E0F87B68DB6818460C49FFF790F87B68DB681846FFF777F843F29063C1F604
S32D00010C18FF731B68DB69184601F072FC02467B681A6107F10807BD4680BD00BF0000C040B0B584B000AF7860EB
S32D00010C4043F29063C1F6FF731B68DB69184601F05BFC02467B685A617B685D697B681A697B689B691046194636
S32D00010C68FCF738F803464FF00102144628461946FCF7D8FA0346002B02D14FF000031C46FC73FB7B002B0CD0EC
S32D00010C9043F28C63C1F6FF731B6818464FF041014FF01E02FFF7CEF80BE043F28C63C1F6FF731B6818464FF013
S32D00010CB81E014FF03702FFF7C1F807F11007BD46B0BD00BF80B582B000AF786043F29063C1F6FF731B689B69C3
S32D00010CE0184601F05BFB034683F00103DBB2184607F10807BD4680BD80B582B000AF786043F28C63C1F6FF7313
S32D00010D081B6818464FF000014FF00002FFF752F807F10807BD4680BD80B582B000AF78607B68DB681846FFF76B
S32D00010D3009F80346184607F10807BD4680BD00BFB0B582B000AF786043F28863C1F6FF731D684FF0180006F0AD
S32D00010D5863FC044620464FF0FF312E4AFDF7F2FB28462146FEF738FD43F28863C1F6FF731D684FF01C0006F077
S32D00010D804FFC044620466FF063014FF00002244BFDF74EFB28462146FEF722FD43F28863C1F6FF731D684FF0A3
S32D00010DA81C0006F039FC044620464FF000014FF064021A4BFDF738FB28462146FEF70CFD43F28863C1F6FF7398
S32D00010DD01D684FF0180006F023FC044620464FF078010E4AFDF7B2FB28462146FEF7F8FC43F28863C1F6FF739B
S32D00010DF81D684FF0200006F00FFC04462046FDF7C3FB28462146FEF7E7FC07F10807BD46B0BD00BF0000803FE3
S32D00010E200000403F0000803E90B583B000AF786043F28463C1F6FF731B68184648F6F431C0F2010102F01CFF1D
S32D00010E4843F28463C1F6FF731A687B681B7F1046194603F061F843F28463C1F6FF731B68184648F60441C0F2DB
S32D00010E70010102F005FF43F28463C1F6FF731C687B68DB681846FEF727FF03462046194603F01CF807F10C07D3
S32D00010E98BD4690BD80B582B000AF786043F28C63C1F6FF731B6818464FF000014FF00002FEF780FF7B68DA68A5
S32D00010EC07B681B6910461946FEF72EFF7B68DB681846FEF715FF07F10807BD4680BD00BFB0B582B000AF786014
S32D00010EE843F28C63C1F6FF731D6843F29063C1F6FF731B681B69184601F04CFA0346002B02D04FF0640401E04E
S32D00010F104FF0000443F29063C1F6FF731B685B69184601F03BFA0346002B02D04FF0640301E04FF000032846D6
S32D00010F3821461A46FEF782FF07F10807BD46B0BD80B582B000AF786043F29063C1F6FF731B681B69184601F041
S32D00010F601DFA034683F00103DBB2002B11D043F29063C1F6FF731B685B69184601F00EFA034683F00103DBB2B6
S32D00010F88002B02D04FF0010301E04FF00003184607F10807BD4680BD80B582B000AF786043F28C63C1F6FF73F7
S32D00010FB01B6818464FF000014FF00002FEF7FEFE07F10807BD4680BD80B582B000AF78607B68DB681846FEF711
S32D00010FD8B5FE0346184607F10807BD4680BD00BFB0B582B000AF786043F28C63C1F6FF731B6818464FF00001FE
S32D000110004FF00002FEF7DAFE43F28863C1F6FF731D684FF0140006F003FB0446204648F61C41C0F20101FEF7AA
S32D00011028E9FF28462146FEF7D7FB43F28863C1F6FF731B681846FEF7E9FB07F10807BD46B0BD00BF90B583B064
S32D0001105000AF786043F28463C1F6FF731B68184648F63441C0F2010102F00AFE43F28463C1F6FF731C6843F265
S32D000110789063C1F6FF731B681B69184601F08AF9034683F00103DBB22046194602F044FF43F28463C1F6FF73C8
S32D000110A01B68184648F64C41C0F2010102F0E8FD43F28463C1F6FF731C6843F29063C1F6FF731B685B6918462B
S32D000110C801F068F9034683F00103DBB22046194602F022FF43F28463C1F6FF731B68184648F66441C0F20101C5
S32D000110F002F0C6FD43F28463C1F6FF731C687B68DB681846FEF7E8FD03462046194602F0DDFE07F10C07BD460C
S32D0001111890BD00BF80B582B000AF786043F29063C1F6FF731B681B6A184601F0E9F902467B681A617B681A6918
S32D000111407B685A6107F10807BD4680BD80B582B000AF786043F29063C1F6FF731B681B6A184601F0D1F90246F3
S32D000111687B681A6107F10807BD4680BD90B583B000AF78607B681A697B685B6910461946FBF7A8FD03464FF0D3
S32D000111900102144618460749FCF748F80346002B02D14FF000031C46E3B2184607F10C07BD4690BD0000C0BE3B
S32D000111B880B582B000AF786043F28C63C1F6FF731B6818464FF000014FF00002FEF7F2FD07F10807BD4680BD40
S32D000111E080B582B000AF786043F29063C1F6FF731B6818464FF00201FEF7C6FC0346184607F10807BD4680BDD9
S32D0001120880B483B000AF786007F10C07BD4680BC704700BF90B583B000AF786043F28463C1F6FF731B681846E4
S32D0001123048F66C41C0F2010102F022FD43F28463C1F6FF731A687B681B691046194602F03DFE43F28463C1F6FC
S32D00011258FF731B68184648F68041C0F2010102F00BFD43F28463C1F6FF731C687B685B691846FBF72DFA024638
S32D000112800B46104619464FF000024FF07E5303F5B003FBF7C1F802460B46204602F02AFE07F10C07BD4690BD1E
S32D000112A880B483B000AF786007F10C07BD4680BC704700BF80B483B000AF786007F10C07BD4680BC704700BFBB
S32D000112D080B582B000AF786043F29063C1F6FF731B6818464FF00201FEF74EFC0346184607F10807BD4680BD60
S32D000112F880B483B000AF786007F10C07BD4680BC704700BF80B483B000AF78604FF00003184607F10C07BD467D
S32D0001132080BC704780B483B000AF786007F10C07BD4680BC704700BF90B583B000AF786043F28463C1F6FF73B9
S32D000113481B68184648F69041C0F2010102F092FD43F28463C1F6FF731B68184648F6A441C0F2010102F088FCDE
S32D0001137043F28463C1F6FF731C6843F29063C1F6FF731B681B6A184601F0BEF803462046194602F09BFD43F25A
S32D000113988463C1F6FF731B68184648F6AC41C0F2010102F069FC43F28463C1F6FF731C6843F29063C1F6FF73E5
S32D000113C01B68DB69184601F09FF803462046194602F07CFD43F28463C1F6FF731B68184648F6B441C0F20101CB
S32D000113E802F04AFC43F28463C1F6FF731C6843F29063C1F6FF731B681B69184600F0CAFF034683F00103DBB219
S32D000114102046194602F084FD43F28463C1F6FF731B68184648F6C441C0F2010102F028FC43F28463C1F6FF73FD
S32D000114381C6843F29063C1F6FF731B685B69184600F0A8FF034683F00103DBB22046194602F062FD43F28463F5
S32D00011460C1F6FF731B68184648F6D441C0F2010102F006FC43F28463C1F6FF731C6843F29063C1F6FF731B68BB
S32D000114889B69184600F086FF034683F00103DBB22046194602F040FD43F28463C1F6FF731B68184648F6E44194
S32D000114B0C0F2010102F0E4FB43F28463C1F6FF731C6843F29063C1F6FF731B689B68184601F0A2FB034620464D
S32D000114D8194602F0E3FC43F28463C1F6FF731B68184648F6F441C0F2010102F0C5FB43F28463C1F6FF731C68ED
S32D0001150043F29063C1F6FF731B68DB68184601F083FB03462046194602F0C4FC07F10C07BD4690BD80B500AFD9
S32D0001152843F6B072C1F6FF7243F22863C1F6FF73D31A194643F22863C1F6FF731A460B4610464FF000011A464C
S32D0001155004F0DDFF80BD00BF06F046F800F0B0F9FFF7E0FF06F018F805F0B4FF06F04CF800F00CF84FF00000E3
S32D0001157843F29861C1F6FF71FDF77AF80346184604F09CFF80B500AF4FF4E043C4F204034FF4E042C4F204022B
S32D000115A002F5805202F13802126842F4785203F5805303F138031A6000F02EF900F094F843F2A463C1F6FF7340
S32D000115C84FF058021A6043F2A463C1F6FF731B684FF47A7202FB03F243F2A063C1F6FF731A6043F2A063C1F60E
S32D000115F0FF731B681A464FF4E043C4F2040303F5825303F104031B6803F070634FEA136303F10103B2FBF3F309
S32D000116181A4643F2A863C1F6FF731A604FF4E043C4F204034FF4E042C4F2040202F5805202F13C02126842F076
S32D00011640225203F5805303F13C031A604FF4E043C4F204034FF4E042C4F2040202F5805202F13002126842F0B1
S32D00011668006203F5805303F130031A604FF45043C4F203034FF480721A614FF0640000F027FB4FF45043C4F202
S32D0001169003034FF45042C4F20302526922F010025A614FF45043C4F203034FF000021A604FF45043C4F203031C
S32D000116B84FF010025A6101F075F801F01DF943F29C60C1F6FF7000F087FB43F2D860C1F6FF7002F007F941F211
S32D000116E0883000F065FC80BD80B400AF4FF48043C4F206034FF000025A704FF48043C4F206034FF098021A70BA
S32D000117084FF48043C4F206039B79DBB203F01003002B0CBF00230123DBB2002BF0D14FF48043C4F206039B79B7
S32D00011730DBB203F00C034FEA9303022B0CBF00230123DBB2002BEED14FF48043C4F206034FF018021A714FF48A
S32D000117588043C4F206034FF000025A714FF4E043C4F2040303F5825303F104034FF00002C0F213121A604FF414
S32D000117808043C4F206034FF054025A7100BF4FF48043C4F206039B79DBB203F02003002B14BF00230123DBB24B
S32D000117A8002BF0D100BF4FF48043C4F206039B79DBB203F04003002B14BF00230123DBB2002BF0D14FF4804307
S32D000117D0C4F206034FF48042C4F206021278D2B202F03F02D2B21A704FF48043C4F206039B79DBB203F00C03B1
S32D000117F84FEA9303032B0CBF00230123DBB2002BEED14FF000031846BD4680BC704700BF80B400AF4FF440433E
S32D00011820C4F204034FF480725A634FF2C003C4F20F034FF2C002C4F20F02526942F400525A614FF2C003C4F29C
S32D000118480F034FF2C002C4F20F02126842F400521A604FF44043C4F2040340F20312C0F20A021A634FF461432D
S32D00011870CEF200034FF46142CEF20002D2F8882142F08062C3F888214FF46143CEF200034FF46142CEF20002A1
S32D00011898926842F080629A60BD4680BC704700BF80B483B000AF7860FEE700BF80B400AF00BEBD4680BC70473B
S32D000118C080B400AF4FF0E0224CF20003C0F20003C2F8083D4FF40053C4F205034CF22052DA814FF40053C4F235
S32D000118E805034DF62812DA814FF40053C4F205034FF0D2021A80BD4680BC704780B400AF4FF44043C4F2040394
S32D00011910D3F8A03003F48053002B0CBF00230123DBB2002B19D04FF44043C4F204034FF44042C4F20402D2F897
S32D00011938A02022F48052C3F8A0204FF2C003C4F20F034FF2C002C4F20F02126822F400521A60BD4680BC704775
S32D0001196080B483B000AF78600B46FB707B68FA781A707B684FF000025A707B68184607F10C07BD4680BC70479F
S32D0001198890B585B000AF786039604FF001031C4638682F49FBF746FC0346002B02D14FF000031C46E3B2002BFA
S32D000119B002D0294B3B6011E04FF001031C4638682649FBF751FC0346002B02D14FF000031C46E3B2002B01D0C7
S32D000119D8204B3B603868FAF77BFE02460B46104619464FF000024FF0804303F5B203FAF7EDFF02460B461046C6
S32D00011A00194613A3D3E90023FAF7BAFE02460B4610461946FBF7C6F80346FB737B685B78FA7B9A420FD07B689C
S32D00011A28FA7B5A707B681A78FB7B43F29C60C1F6FF7011461A464FF01E0300F017FA07F11407BD4690BD00BFD4
S32D00011A500000000000C05F400000C8C20000C84290B486B000AFF860B9607A60FA684FF42043C4F206039A425D
S32D00011A7814D14FF4E043C4F204034FF4E042C4F2040202F5805202F13402126842F4806203F5805303F134039C
S32D00011AA01A6083E0FA684FF43043C4F206039A4214D14FF4E043C4F204034FF4E042C4F2040202F5805202F1A2
S32D00011AC83402126842F4006203F5805303F134031A6067E0FA684FF44043C4F206039A4214D14FF4E043C4F22C
S32D00011AF004034FF4E042C4F2040202F5805202F13402126842F4805203F5805303F134031A604BE0FA684FF4EB
S32D00011B185043C4F206039A4214D14FF4E043C4F204034FF4E042C4F2040202F5805202F13402126842F4005253
S32D00011B4003F5805303F134031A602FE0FA684FF42043C4F20E039A4214D14FF4E043C4F204034FF4E042C4F229
S32D00011B68040202F5805202F12802126842F4806203F5805303F128031A6013E04FF4E043C4F204034FF4E042F1
S32D00011B90C4F2040202F5805202F12802126842F4006203F5805303F128031A60FB68DB78DBB223F00C03DAB21D
S32D00011BB8FB68DA70FB684FF000029A70BB684FF47A7202FB03F27B684FEA031392FBF3F39CB2FB681B78DBB2E9
S32D00011BE023F01F03FB75234603F4F8534FEA2323DBB203F01F03DAB2FB7D1343DAB2FB681A70E2B2FB685A70D1
S32D00011C08BB684FF4FA4202FB03F27B684FEA031392FBF3F39AB2234619464FEAC121CB1A4FEA43139BB2D31899
S32D00011C309CB2FB689B7ADBB223F01F03FB75E3B203F01F03DAB2FB7D1343DAB2FB689A72FB68DB78DBB243F018
S32D00011C580C03DAB2FB68DA7007F11807BD4690BC704700BF80B483B000AF786000BF7B681B79DBB203F0200372
S32D00011C80002B14BF00230123DBB2002BF3D17B68DB79DBB2184607F10C07BD4680BC704780B483B000AF786063
S32D00011CA80B46FB7000BF7B681B79DBB2DBB26FEA0303DBB24FEAD313DBB2002BF3D17B68FA78DA7107F10C07CF
S32D00011CD0BD4680BC704700BF80B483B000AF78604FF4E043C4F204034FF4E042C4F2040202F5805202F1380208
S32D00011CF8126842F0010203F5805303F138031A604FF00003C4F204037A689A604FF00003C4F204034FF005027A
S32D00011D205A604FF00003C4F204034FF00002C4F20402126842F001021A6000BF4FF00003C4F204031B6803F081
S32D00011D488003002B14BF00230123DBB2002BF1D14FF00003C4F204034FF00002C4F20402126822F001021A6025
S32D00011D7007F10C07BD4680BC704700BF80B582B000AF786039607B68012B0AD13A684FF6FF739A4205D143F2D3
S32D00011D989C60C1F6FF7000F00FF807F10807BD4680BD00BF80B500AF4FF001004FF6FF71FFF7E0FF80BD00BF53
S32D00011DC080B483B000AF78607B684FF000021A707B68184607F10C07BD4680BC704700BF80B582B000AF786069
S32D00011DE87B681B7883F00103DBB2002B36D04FF4E043C4F2040303F5805303F128034FF400621A604FF450431F
S32D00011E10C4F204034FF440721A624FF45043C4F204034FF440725A6243F2A063C1F6FF731B684FEAD372D318E4
S32D00011E384FEA63034FF43040C4F20E0019464FF46142FFF709FE4FF0640000F0ADF87B684FF001021A704FF0FD
S32D00011E60010301E04FF00003184607F10807BD4680BD00BF80B582B000AF7860F970BA707B704FF43040C4F2F3
S32D00011E880E004FF07F01FFF707FF4FF43040C4F20E004FF00801FFF7FFFEFB784FF43040C4F20E001946FFF771
S32D00011EB0F7FEBB784FF43040C4F20E001946FFF7EFFE7B784FF43040C4F20E001946FFF7E7FE4FF43040C4F215
S32D00011ED80E004FF0FF01FFF7DFFE07F10807BD4680BD00BF80B487B000AFF860B9607A60FA6844F6D353C1F2DB
S32D00011F006203A3FB02134FEA9312BB68D3187B61FA6844F6D353C1F26203A3FB02134FEA93134FF47A7101FB3C
S32D00011F2803F3D31AFB60FB684FEAC33244F6D353C1F26203A3FB02134FEA93127B68D3183B613B694FEAD33365
S32D00011F507A69D3187B613B694FEA43434FEA53433B614FF45043C4F203031B681A467B699A4211D34FF45043FB
S32D00011F78C4F203031B681A467B699A420BD14FF45043C4F203035B681A463B699A4202D24FF0010301E04FF093
S32D00011FA00003002BDDD107F11C07BD4680BC704780B584B000AF78604FF45043C4F203031B68FB604FF45043EF
S32D00011FC8C4F203035B68BB607B681846F968BA68FFF788FF07F11007BD4680BD80B584B000AF78604FF45043FA
S32D00011FF0C4F203031B68FB604FF45043C4F203035B68BB6078680849FAF772FF03461846FBF75AF90346184692
S32D00012018F968BA68FFF766FF07F11007BD4680BD00007A440000000080B584B000AFC7E900014FF45043C4F259
S32D0001204003031B68FB604FF45043C4F203035B68BB60D7E900010AA3D3E90023FAF790FB02460B461046194606
S32D00012068FAF7C4FD03461846F968BA68FFF73AFF07F11007BD4680BD0000000000408F4080B584B000AF4FF485
S32D000120905043C4F203031B68FB604FF45043C4F203035B68BB60F868FAF7F4FA02460B46C7E90023B868FAF7C8
S32D000120B8EDFA02460B46104619464FF000024FF0804303F56003FAF781FC02460B46D7E90001FAF79FF902468D
S32D000120E00B46C7E90023D7E900231046194607F11007BD4680BD00BF80B483B000AF4FF45043C4F203031B68DC
S32D000121084FF47A7202FB03F37B604FF45043C4F203035B684FF47A7202FB03F34FEAD3337A68D3187B607B686A
S32D00012130184607F10C07BD4680BC704780B582B000AF78600B46FB70FB787868194600F013F87B68184607F191
S32D000121580807BD4680BD00BF80B483B000AF78607B68184607F10C07BD4680BC704700BF80B483B000AF78606D
S32D000121800B46FB707B68FA781A707B681B781A4649F2B413C0F201039B5C042B00F2F98001A252F823F000BFB7
S32D000121A8BD2101001B22010079220100D7220100352301004FF41043C4F204037A681278114649F2F812C0F2EF
S32D000121D0010252F8212040F2031143F822104FF47043C4F20F034FF47042C4F20F02526911467A681278104651
S32D000121F849F2F812C0F2010252F8202002F01F024FF0010000FA02F26FEA02020A405A61BBE04FF42043C4F29A
S32D0001222004037A681278114649F2F812C0F2010252F8212040F2031143F822104FF24003C4F20F034FF24002BE
S32D00012248C4F20F02526911467A681278104649F2F812C0F2010252F8202002F01F024FF0010000FA02F26FEAAE
S32D0001227002020A405A618CE04FF43043C4F204037A681278114649F2F812C0F2010252F8212040F2031143F88E
S32D0001229822104FF28003C4F20F034FF28002C4F20F02526911467A681278104649F2F812C0F2010252F8202077
S32D000122C002F01F024FF0010000FA02F26FEA02020A405A615DE04FF44043C4F204037A681278114649F2F81284
S32D000122E8C0F2010252F8212040F2031143F822104FF2C003C4F20F034FF2C002C4F20F02526911467A681278C0
S32D00012310104649F2F812C0F2010252F8202002F01F024FF0010000FA02F26FEA02020A405A612EE04FF450433D
S32D00012338C4F204037A681278114649F2F812C0F2010252F8212040F2031143F822104FF47143C4F20F034FF4BC
S32D000123607142C4F20F02526911467A681278104649F2F812C0F2010252F8202002F01F024FF0010000FA02F23B
S32D000123886FEA02020A405A6100BF07F10C07BD4680BC704780B485B000AF78604FF00003FB607B681B781A46A1
S32D000123B049F2B413C0F201039B5C042B00F2868001A252F823F000BFDD2301000D2401003D2401006D24010042
S32D000123D89D2401004FF47043C4F20F031B691A467B681B78194649F2F813C0F2010353F8213003F01F034FF0B1
S32D00012400010101FA03F31340FB605FE04FF24003C4F20F031B691A467B681B78194649F2F813C0F2010353F881
S32D00012428213003F01F034FF0010101FA03F31340FB6047E04FF28003C4F20F031B691A467B681B78194649F298
S32D00012450F813C0F2010353F8213003F01F034FF0010101FA03F31340FB602FE04FF2C003C4F20F031B691A464C
S32D000124787B681B78194649F2F813C0F2010353F8213003F01F034FF0010101FA03F31340FB6017E04FF47143E5
S32D000124A0C4F20F031B691A467B681B78194649F2F813C0F2010353F8213003F01F034FF0010101FA03F313405A
S32D000124C8FB6000BFFB68002B0CBF00230123DBB2184607F11407BD4680BC704780B483B000AF78600B46FB708D
S32D000124F07B68FA781A707B68184607F10C07BD4680BC70470000000080B586B000AF78607B681B781A4649F299
S32D000125187823C0F2010353F822303B617B681B781A4649F2D413C0F201039B5CFB733B69DBB203F01F03DAB225
S32D0001254043F2AC63C1F6FF731A723B69DBB203F01F03DAB243F2AC63C1F6FF735A724FF46143CEF200034FF47B
S32D000125686142CEF20002D2F8882042F01002C3F88820FB7B002B1ED14FF43040C4F2030043F2AC61C1F6FF7161
S32D0001259000F0C2FC4FF43043C4F203031B6803F08003002B14BF00230123DBB2002BF1D14FF43043C4F20303D2
S32D000125B81B697B611DE04FF43040C4F20B0043F2AC61C1F6FF7100F0A3FC4FF43043C4F20B031B6803F08003B8
S32D000125E0002B14BF00230123DBB2002BF1D14FF43043C4F20B031B697B614FF46143CEF200034FF46142CEF2E3
S32D000126080002D2F8882142F01002C3F888214FF46143CEF200034FF46142CEF20002926842F010029A604FF4B9
S32D000126306143CEF200034FF46142CEF20002D2F8882142F08062C3F888214FF46143CEF200034FF46142CEF231
S32D000126580002926842F080629A607B694FEA03434FEA13431846FAF711F802460B46104619460FA3D3E9002320
S32D00012680FAF77EF802460B46104619460CA3D3E90023FAF79FF902460B4610461946FAF7C9FA0346BB60BB68D6
S32D000126A8184607F11807BD4680BD00BFAFF30080A4703D0AD7A30A4000000000E0FFEF4080B586B000AF78604E
S32D000126D07B681B781A4649F27823C0F2010353F822303B617B681B781A4649F2D413C0F201039B5CFB733B6989
S32D000126F8DBB203F01F03DAB243F2BC63C1F6FF731A723B69DBB203F01F03DAB243F2BC63C1F6FF735A72FB7BEB
S32D00012720002B1ED14FF43040C4F2030043F2BC61C1F6FF7100F0F0FB4FF43043C4F203031B6803F08003002B1A
S32D0001274814BF00230123DBB2002BF1D14FF43043C4F203031B697B611DE04FF43040C4F20B0043F2BC61C1F682
S32D00012770FF7100F0D1FB4FF43043C4F20B031B6803F08003002B14BF00230123DBB2002BF1D14FF43043C4F270
S32D000127980B031B697B617B69184607F11807BD4680BD00BF98B500AF43F2AC63C1F6FF734FF05C021A7043F287
S32D000127C0AC63C1F6FF734FF010025A7043F2AC63C1F6FF7341F234225A8043F2AC63C1F6FF7345F278629A802F
S32D000127E843F2AC63C1F6FF734FF010029A7143F2AC63C1F6FF734FF00702DA7143F2AC63C1F6FF734FF4C02267
S32D00012810DA6043F2AC63C1F6FF734FF01F021A7243F2AC63C1F6FF734FF01F025A724FF43040C4F2030043F2CC
S32D00012838AC61C1F6FF7100F06BFB4FF43040C4F20B0043F2AC61C1F6FF7100F061FB4FF43040C4F20B0000F05A
S32D00012860B5FA4FF43040C4F2030000F0AFFA4FF43040C4F20B0043F2AC61C1F6FF7100F04BFB4FF43040C4F219
S32D00012888030043F2AC61C1F6FF7100F041FB43F2BC62C1F6FF7243F2AC63C1F6FF7314460FCB84E80F0043F2BD
S32D000128B0BC63C1F6FF734FF05C021A7043F2BC63C1F6FF734FF00402DA7198BD80B500AF43F2D063C1F6FF73B3
S32D000128D81B6803F1010243F2D063C1F6FF731A6000F016F94FF4E043C4F203034FF00102C3F80C2180BD00BF05
S32D0001290080B500AF4FF4E043C4F203034FF001021A6048F2A060C0F2010000F023F84FF4E043C4F203034FF08D
S32D000129280302C3F808214FF46143CEF200034FF46142CEF20002D2F8882142F01002C3F888214FF46143CEF283
S32D0001295000034FF46142CEF20002926842F010029A6080BD80B483B000AF78604FF4E043C4F203037A68C3F88B
S32D00012978002107F10C07BD4680BC704780B584B000AF78600B46FB707A68FB7810461946FFF7A4FD43F2CC635D
S32D000129A0C1F6FF731B68002B32D17B684FF000021A617B684FF000025A614FF0140004F02FFE02467B689A6116
S32D000129C87B689B697A689A607B689B694FF001025A607B689B69FA781A707B689B694FF00002DA607B689B690E
S32D000129F04FF000021A617B689B694FF000025A707B689A6943F2CC63C1F6FF731A6071E043F2CC63C1F6FF733F
S32D00012A181B68FB6002E0FB68DB68FB60FB681B78FA789A4206D0FB68DB68002B02D04FF0010301E04FF00003AB
S32D00012A40002BECD1FB681B78FA789A4224D17B68FA689A617B689B699B68BB6002E0BB681B69BB60BB681B69B6
S32D00012A68002B0CBF00230123DBB2002BF3D1BB687A681A617B68BA685A617B684FF000021A617B689B695A68FE
S32D00012A9002F101025A602DE07B684FF000021A617B684FF000025A614FF0140004F0B8FD02467B689A617B68D7
S32D00012AB89B697A689A607B689B694FF001025A607B689B69FA781A707B689B694FF00002DA607B689B694FF0C1
S32D00012AE000025A707B689B69FA681A617B689A69FB68DA60786800F09BF87B684FF48C429A607B684FF45242A9
S32D00012B08DA607B68184607F11007BD4680BD00BF80B584B000AF43F2CC63C1F6FF731B68FB6029E0FB685B7853
S32D00012B30FB71FB689B68184600F02EF80346BB71BB79002B19D0FB685B68012B15DDFB689B681B69BB6008E042
