S01600002E2E2F436F6D6D616E6473546573742E73313981
S32D0000C0000000002075030100D1060100D1060100D1060100D1060100D106010000000000000000000000000041
S32D0000C02800000000D1060100D106010000000000D1060100D1060100D1060100D1060100D1060100D10601002A
S32D0000C050D1060100D1060100D1060100D1060100D1060100D1060100D1060100D1060100D1060100D106010052
S32D0000C078D1060100D1060100D1060100D1060100D1060100D1060100D1060100D1060100D1060100D10601002A
S32D0000C0A0D1060100D1060100D1060100D1060100D1060100D1060100D1060100D1060100D1060100D106010002
S32D0000C0C8D1060100D1060100D1060100D1060100D1060100D1060100D1060100D1060100D1060100D1060100DA
S32D0000C0F0D106010009410100D1060100D1060100D1060100D1060100D1060100D1060100D1060100D10601003F
S32D0000C118D1060100D1060100D1060100D1060100D1060100D1060100D1060100D1060100D1060100D106010089
S32D0000C140D1060100D1060100D1060100D1060100A9140100D1060100D1060100D1060100D1060100D10601007B
S32D0000C168D1060100D1060100D1060100D1060100D1060100D1060100D1060100D1060100D1060100D106010039
S32D0000C190D1060100D1060100D1060100D1060100D1060100D106010021070100D1060100D1060100D1060100C0
S32D0000C1B8D1060100D1060100D1060100D1060100D1060100D1060100D1060100D1060100D1060100D1060100E9
S32D0000C41081F0004102E000BF83F0004330B54FEA41044FEA430594EA050F08BF90EA020F1FBF54EA000C55EAC6
S32D0000C438020C7FEA645C7FEA655C00F0E2804FEA5454D4EB5555B8BF6D420CDD2C4480EA020281EA030382EA0F
S32D0000C460000083EA010180EA020281EA0303362D88BF30BD11F0004F4FEA01314FF4801C4CEA113102D0404263
S32D0000C48861EB410113F0004F4FEA03334CEA133302D0524263EB430394EA050F00F0A780A4F10104D5F1200E8A
S32D0000C4B00DDB02FA0EFC22FA05F2801841F1000103FA0EF2801843FA05F359410EE0A5F120050EF1200E012A2D
S32D0000C4D803FA0EFC28BF4CF0020C43FA05F3C01851EBE37101F0004507D54FF0000EDCF1000C7EEB00006EEB67
S32D0000C5000101B1F5801F1BD3B1F5001F0CD349085FEA30004FEA3C0C04F101044FEA445212F5800F80F09A8000
S32D0000C528BCF1004F08BF5FEA500C50F1000041EB045141EA050130BD5FEA4C0C404141EB010111F4801FA4F114
S32D0000C5500104E9D191F0000F04BF01460020B1FA81F308BF2033A3F10B03B3F120020CDA0C3208DD02F1140C87
S32D0000C578C2F10C0201FA0CF021FA02F10CE002F11402D8BFC2F1200C01FA02F120FA0CFCDCBF41EA0C019040B1
S32D0000C5A0E41AA2BF01EB0451294330BD6FEA04041F3C1CDA0C340EDC04F11404C4F1200220FA04F001FA02F3B6
S32D0000C5C840EA030021FA04F345EA030130BDC4F10C04C4F1200220FA02F001FA04F340EA0300294630BD21FAA8
S32D0000C5F004F0294630BD94F0000F83F4801306BF81F480110134013D4EE77FEA645C18BF7FEA655C29D094EA1C
S32D0000C618050F08BF90EA020F05D054EA000C04BF1946104630BD91EA030F1EBF0021002030BD5FEA545C05D1A3
S32D0000C6404000494128BF41F0004130BD14F580043CBF01F5801130BD01F0004545F0FE4141F470014FF0000031
S32D0000C66830BD7FEA645C1ABF194610467FEA655C1CBF0B46024650EA013406BF52EA033591EA030F41F40021D7
S32D0000C69030BD00BF90F0000F04BF0021704730B54FF4806404F132044FF000054FF0000150E700BF90F0000F66
S32D0000C6B804BF0021704730B54FF4806404F1320410F0004548BF40424FF000013EE700BF42004FEAE2014FEAF9
S32D0000C6E031014FEA02701FBF12F07F4393F07F4F81F06051704792F0000F14BF93F07F4F704730B54FF460741B
S32D0000C70801F0004521F0004120E700BF50EA010208BF704730B54FF000050AE050EA010208BF704730B511F046
S32D0000C730004502D5404261EB41014FF4806404F132045FEA915C3FF4DCAE4FF003025FEADC0C18BF03325FEAA0
S32D0000C758DC0C18BF033202EBDC02C2F1200300FA03FC20FA02F001FA03FE40EA0E0021FA02F11444C1E600BF19
S32D0000C78070B54FF0FF0C4CF4E06C1CEA11541DBF1CEA135594EA0C0F95EA0C0F00F0DEF82C4481EA030621EAF3
S32D0000C7A84C5123EA4C5350EA013518BF52EA033541F4801143F4801338D0A0FB02CE4FF00005E1FB02E506F05F
S32D0000C7D00042E0FB03E54FF00006E1FB03569CF0000F18BF4EF0010EA4F1FF04B6F5007F64F5407404D25FEA0F
S32D0000C7F84E0E6D4146EB060642EAC62141EA55514FEAC52040EA5E504FEACE2EB4F1FD0C88BFBCF5E06F1ED8D2
S32D0000C820BEF1004F08BF5FEA500E50F1000041EB045170BD06F0004646EA010140EA020081EA0301B4EB5C0487
S32D0000C848C2BFD4EB0C0541EA045170BD41F480114FF0000E013C00F3AB8014F1360FDEBF002001F0004170BDF0
S32D0000C870C4F10004203C35DA0C341BDC04F11404C4F1200500FA05F320FA04F001FA05F240EA020001F0004207
S32D0000C89821F0004110EBD37021FA04F642EB06015EEA430E08BF20EAD37070BDC4F10C04C4F1200500FA04F32F
S32D0000C8C020FA05F001FA04F240EA020001F0004110EBD37041F100015EEA430E08BF20EAD37070BDC4F12005C7
S32D0000C8E800FA05F24EEA020E20FA04F301FA05F243EA020321FA04F001F0004121FA04F220EA020000EBD37028
S32D0000C9105EEA430E08BF20EAD37070BD94F0000F0FD101F00046400041EB010111F4801F08BF013CF7D041EA6D
S32D0000C938060195F0000F18BF704703F00046520043EB030313F4801F08BF013DF7D043EA0603704794EA0C0FF1
S32D0000C9600CEA135518BF95EA0C0F0CD050EA410618BF52EA4306D1D181EA030101F000414FF0000070BD50EA38
S32D0000C988410606BF1046194652EA430619D094EA0C0F02D150EA013613D195EA0C0F05D152EA03361CBF10467B
S32D0000C9B019460AD181EA030101F0004141F0FE4141F470014FF0000070BD41F0FE4141F4780170BD70B54FF04D
S32D0000C9D8FF0C4CF4E06C1CEA11541DBF1CEA135594EA0C0F95EA0C0F00F0A7F8A4EB050481EA030E52EA03359B
S32D0000CA004FEA013100F088804FEA03334FF0805545EA131343EA12634FEA022245EA111545EA10654FEA002676
S32D0000CA280EF000419D4208BF964244F1FD0404F5407402D25B084FEA3202B61A65EB03055B084FEA32024FF461
S32D0000CA5080104FF4002CB6EB020E75EB030E22BFB61A754640EA0C005B084FEA3202B6EB020E75EB030E22BF22
S32D0000CA78B61A754640EA5C005B084FEA3202B6EB020E75EB030E22BFB61A754640EA9C005B084FEA3202B6EBEA
S32D0000CAA0020E75EB030E22BFB61A754640EADC0055EA060E18D04FEA051545EA16754FEA06164FEAC30343EAAC
S32D0000CAC852734FEAC2025FEA1C1CC0D111F4801F0BD141EA00014FF000004FF0004CB6E711F4801F04BF0143AE
S32D0000CAF00020B4F1FD0C88BFBCF5E06F3FF6AFAEB5EB030C04BFB6EB020C5FEA500C50F1000041EB045170BDBC
S32D0000CB180EF0004E4EEA113114EB5C04C2BFD4EB0C0541EA045170BD41F480114FF0000E013C90E645EA060EC3
S32D0000CB408DE60CEA135594EA0C0F08BF95EA0C0F3FF43BAF94EA0C0F0AD150EA01347FF434AF95EA0C0F7FF499
S32D0000CB6825AF104619462CE795EA0C0F06D152EA03353FF4FDAE1046194622E750EA410618BF52EA43067FF432
S32D0000CB90C5AE50EA41047FF40DAF52EA43057FF4EBAE12E74FEA410212F5001215D211D56FF47873B3EB6252CB
S32D0000CBB812D94FEAC12343F0004343EA505311F0004F23FA02F018BF404270474FF00000704750EA013005D15B
S32D0000CBE011F0004008BF6FF0004070474FF00000704700BF4A0011D212F5001211D20DD56FF47873B3EB625269
S32D0000CC080ED44FEAC12343F0004343EA505323FA02F070474FF00000704750EA013002D14FF0FF3070474FF05B
S32D0000CC30000070474FEA4102B2F1E04324BFB3F5001CDCF1FE5C0DD901F0004C4FEAC0024CEA5070B2F1004F09
S32D0000CC5840EB830008BF20F00100704711F0804F21D113F13872BCBF01F00040704741F480114FEA5252C2F148
S32D0000CC801802C2F1200C10FA0CF320FA02F018BF40F001004FEAC1234FEAD32303FA0CFC40EA0C0023FA02F3D7
S32D0000CCA84FEA4303CCE77FEA625307D150EA01331EBF4FF0FE4040F44000704701F0004040F0FE4040F4000070
S32D0000CCD0704700BF80F0004002E000BF81F0004142001FBF5FEA410392EA030F7FEA226C7FEA236C6AD04FEA20
S32D0000CCF81262D2EB1363C1BFD218414048404140B8BF5B42192B88BF704710F0004F40F4000020F07F4018BFF4
S32D0000CD20404211F0004F41F4000121F07F4118BF494292EA030F3FD0A2F1010241FA03FC10EB0C00C3F120035F
S32D0000CD4801FA03F100F0004302D5494260EB4000B0F5000F13D3B0F1807F06D340084FEA310102F10102FE2ACA
S32D0000CD7051D2B1F1004F40EBC25008BF20F0010040EA03007047490040EB000010F4000FA2F10102EDD1B0FA03
S32D0000CD9880FCACF1080CB2EB0C0200FA0CF0AABF00EBC25052421843BCBFD0401843704792F0000F81F40001A6
S32D0000CDC006BF80F400000132013BB5E74FEA41037FEA226C18BF7FEA236C21D092EA030F04D092F0000F08BF13
S32D0000CDE80846704790EA010F1CBF0020704712F07F4F04D1400028BF40F00040704712F100723CBF00F5000084
S32D0000CE10704700F0004343F0FE4040F4000070477FEA226216BF08467FEA23630146420206BF5FEA412390EA38
S32D0000CE38010F40F4800070474FF0000304E000BF10F0004348BF40425FEA000C08BF704743F0964301464FF03B
S32D0000CE6000001CE050EA010208BF70474FF000030AE000BF50EA010208BF704711F0004302D5404261EB41011C
S32D0000CE885FEA010C02BF84460146002043F0B64308BFA3F18053A3F50003BCFA8CF2083AA3EBC25310DB01FA40
S32D0000CEB002FC634400FA02FCC2F12002BCF1004F20FA02F243EB020008BF20F00100704702F1200201FA02FC0B
S32D0000CED8C2F1200250EA4C0021FA02F243EB020008BF20EADC7070474FF0FF0C1CEAD0521EBF1CEAD15392EAC9
S32D0000CF000C0F93EA0C0F6FD01A4480EA010C400218BF5FEA41211ED04FF0006343EA501043EA5111A0FB0131FF
S32D0000CF280CF00040B1F5000F3EBF490041EAD3715B0040EA010062F17F02FD2A1DD8B3F1004F40EBC25008BFC8
S32D0000CF5020F00100704790F0000F0CF0004C08BF49024CEA502040EA51207F3AC2BFD2F1FF0340EAC2507047CF
S32D0000CF7840F400004FF00003013A5DDC12F1190FDCBF00F000407047C2F10002410021FA02F1C2F1200200FA21
S32D0000CFA002FC5FEA310040F1000053EA4C0308BF20EADC70704792F0000F00F0004C02BF400010F4000F013A3E
S32D0000CFC8F9D040EA0C0093F0000F01F0004C02BF490011F4000F013BF9D041EA0C018FE70CEAD15392EA0C0FEB
S32D0000CFF018BF93EA0C0F0AD030F0004C18BF31F0004CD8D180EA010000F00040704790F0000F17BF90F0004FEB
S32D0000D018084691F0000F91F0004F14D092EA0C0F01D142020FD193EA0C0F03D14B0218BF084608D180EA0100A9
S32D0000D04000F0004040F0FE4040F40000704740F0FE4040F4400070474FF0FF0C1CEAD0521EBF1CEAD15392EAAB
S32D0000D0680C0F93EA0C0F69D0A2EB030280EA010C49024FEA402037D04FF0805343EA111143EA10130CF00040CD
S32D0000D0908B4238BF5B0042F17D024FF4000C8B4224BF5B1A40EA0C00B3EB510F24BFA3EB510340EA5C00B3EB10
S32D0000D0B8910F24BFA3EB910340EA9C00B3EBD10F24BFA3EBD10340EADC001B0118BF5FEA1C1CE0D1FD2A3FF695
S32D0000D0E050AF8B4240EBC25008BF20F0010070470CF0004C4CEA50207F32C2BFD2F1FF0340EAC250704740F47E
S32D0000D10800004FF00003013A37E792F0000F00F0004C02BF400010F4000F013AF9D040EA0C0093F0000F01F0C0
S32D0000D130004C02BF490011F4000F013BF9D041EA0C0195E70CEAD15392EA0C0F08D142027FF47DAF93EA0C0FA9
S32D0000D1587FF470AF084676E793EA0C0F04D14B023FF44CAF08466EE730F0004C18BF31F0004CCAD130F0004234
S32D0000D1807FF45CAF31F000437FF43CAF5FE700BF4FF0FF3C06E000BF4FF0010C02E000BF4FF0010C4DF804CDCE
S32D0000D1A84FEA40024FEA41037FEA226C18BF7FEA236C11D001B052EA530C18BF90EA010F58BFB2EB030088BF0F
S32D0000D1D0C81738BF6FEAE17018BF40F0010070477FEA226C02D15FEA402C05D17FEA236CE4D15FEA412CE1D089
S32D0000D1F85DF8040B704700BF844608466146FFE70FB5FFF7C9FF002848BF10F1000F0FBD4DF808EDFFF7F4FFDA
S32D0000D2200CBF012000205DF808FB00BF4DF808EDFFF7EAFF34BF012000205DF808FB00BF4DF808EDFFF7E0FF4A
S32D0000D24894BF012000205DF808FB00BF4DF808EDFFF7D2FF94BF012000205DF808FB00BF4DF808EDFFF7C8FF6A
S32D0000D27034BF012000205DF808FB00BF4FEA4002B2F1FE4F0FD34FF09E03B3EB12620DD94FEA002343F000434E
S32D0000D29810F0004F23FA02F018BF404270474FF00000704712F1610F01D1420205D110F0004008BF6FF00040FF
S32D0000D2C070474FF00000704742000ED2B2F1FE4F0BD34FF09E03B3EB126209D44FEA002343F0004323FA02F0F3
S32D0000D2E870474FF00000704712F1610F01D1420202D14FF0FF3070474FF00000704700BF036803B11B18184685
S32D0000D310704700BF03685A004CBF43F0004323F00043C018704700BF2DE9F84F0446914641B301F1FF3BDA46D1
S32D0000D338002707EB0A0101EBD1756D1004EBC5063046FFF7E3FF8046681CAB4504EBC0000DD0FFF7DBFF01381D
S32D0000D360C84504D9BD4209D005F1FF3AE5E7484505D26F1CE1E74FF0FF30F1E700263046BDE8F88F0E46304653
S32D0000D388BDE8F88F30B52B4B83B004468D1E002B49D0284601A9AFF300800346002822D02A4618460199FFF789
S32D0000D3B0BBFF054600281DD0FFF7ACFF6B68A064012B10D0281D002B22DBFFF7A3FF0021E06421650368002B2B
S32D0000D3D80FDBFFF79BFF2061002003B030BD002323610520F9E720610920F6E720610920F3E7C3F3036058B193
S32D0000D40001280CD002280ED0002020610920E8E70122E0642265DDE7094B2361E1E7094A00202261DDE70849FB
S32D0000D42800202161D9E7074B0749C81AC2100192B6E700BF0000000059D9000055D9000051D9000058800100CC
S32D0000D45058820100036810B50446D80706D4990704F1480009D500F00DFD23685A0709D518070ED5D90613D558
S32D0000D47810BD00F0FBFC23685A07F5D404F1D00000F004FD23681807F0D404F5D87000F005FD2368D906EBD49D
S32D0000D4A004F50C70BDE8104000F040BD2DE9F0470F1D054691460FCFADF5916D02AC261D0FC60FCF0FC60FCF97
S32D0000D4C80FC697E80F00D5F80C80D5F818A0002786E80F00216C27602846FFF753FF0646B94514BF4FF00A0918
S32D0000D4F04FF00909FEB1A16B49F01009616401208DE8100449462A462B46C04700282BD1002E2AD1204692A9DC
S32D0000D5184FF4107207F042FD082F28D1216C2846FFF730FF06464FF00909002EDFD1206C21464FF4107268619E
S32D0000D54092A807F02FFD2F69294692AA4846B847A09B0746636401208DE8100449462A462B46C0470028D3D055
S32D0000D5680926304622B00DF5806DBDE8F087072FF6D1201D00F06EFC38B504460D46296C2046FFF7FFFE50B9FE
S32D0000D5902A6C23696261012021462A4698470828F1D0072801D009F039FE281D00F056FC11B933B10220704782
S32D0000D5B804298CBF0220012070470F2A01D90220704700EB820118464A68009B1A60704710B50A4684B0002133
S32D0000D5E00B4603AC0094FFF7E3FF039804B010BD11B933B10220704704298CBF0220012070470F2A01D9022067
S32D0000D6087047009900EB8202096818465160704710B584B004AB0C4643F8042D0021009322460B46FFF7E0FF56
S32D0000D63004B010BD2DE9F04FCD6C8BB00C4655F8041B174600F008021E46039200F003080795002B40F0CF8033
S32D0000D65809020691216D8DF821300323B8F1020F8DF8203008BFA56B11F0010340F0D380019304F15803029311
S32D0000D680D5F80090B9F1000F00F0CB80022E00F0AE80B5F80090B5F802A00435A26C0F212AF0010B384693445F
S32D0000D6A8FFF796FF834518D829F0010CE3440AF0010A09F00103584543EA4A092CBF00200120B9F1010F12D0DD
S32D0000D6D032D2B8F1000F02D0002840F01D810435CEE70AF0010A09F0010343EA4A090020B9F1010FECD1B8F1F8
S32D0000D6F8000F40F0B680C8B16B68D5F800909A1C19D0029A013309920DD0281DFFF7F8FD4FEAD972014609AB50
S32D0000D720204608F0E1FD002800F0F280099A002A40F0BA800835A3E7B9F1020F03D009200BB0BDE8F08F2B68EE
S32D0000D74823F000420092B8F1000F71D1002843D00398002840F0A1800098002800F0A080009BDDF80C90DB07C5
S32D0000D77005F1040A40F1B480CDF810800596A846029E12E000998D4200F0D9800996FFF7BBFD5A46014609AB19
S32D0000D798204608F0A5FDA946B0B90AF1040A05F1010950460996FFF7ABFD09AB01460022204608F095FD0AF127
S32D0000D7C0040A834609F101055046BBF1000FD9D04546059EDDF81080009A4A4564D02B68002B7BDB0099481C69
S32D0000D7E805EB800548E7D5F804A0083552E70B04C1F30740216D06930222B8F1020F05EB800508BFA56B8DF8A8
S32D0000D810210011F001038DF820203FF42DAF00200190384606A900F019FC002887D1019A002A43D1082083E722
S32D0000D8380D213846D4F82090FFF7CAFE8145CAD1A26A9542C7D10098291D00220423A062E262236361632868B9
S32D0000D86000286EDB01220192BCE70D213846D4F82090FFF7B1FE81457FF45CAFA16A8D427FF458AF2846FFF707
S32D0000D88845FD0F2102463846FFF7C2FE384600212246FFF7BDFE07204EE7009900299BD138460D21FFF794FE0E
S32D0000D8B0099B20626362A562062041E70F213846FFF78AFE0E2102463846FFF7A5FE38460F211E4AFFF7A0FEA6
S32D0000D8D8072031E7043581E7029950460991FFF70FFD039A014609AB204608F0F9FC00287FF46EAFCDF810807D
S32D0000D90005960AF1040A4FF00109A846029E4CE7CDF824800835B3E62846FFF7FBFC04350646A563204608F0C6
S32D0000D92855FD00283FF407AF38460F213246FFF76FFE072000E74546B2E7009B591C05EB81009CE73D6501000C
S32D0000D95002236FE601236DE600236BE62DE9F0470446E8B004290CD8DFE801F0380391930F00150C012B96B249
S32D0000D97800F07881052B00F0C780022068B0BDE8F087002BF9D1102AF7D82368D90600F1738164A8019200F0FF
S32D0000D9A0CFFA019AA36BD00744BF53F8040B6490910744BF53F8041B6591500744BF53F8041B6691110748BFEA
S32D0000D9C853F8042B64A8A36348BF679200F0AAFA0020D3E7002BD0D1A36BD00791B244BF53F8042B62608A0773
S32D0000D9F044BF53F8042BA260480744BF53F8042BE2600A0744BF53F8042B2261C80644BF53F8042B62618A06CD
S32D0000DA1844BF53F8042BA261480644BF53F8042BE2610A0644BF53F8042B2262C80544BF53F8042B62628A05A4
S32D0000DA4044BF53F8042BA262480544BF53F8042BE2620A0544BF53F8042B2263C80444BF53F8042B626311F405
S32D0000DA6800501CBF53F8042BA2634A0444BF53F8042BE2630A0444BF53F8042B2264002840D1A3637AE7012004
S32D0000DA9078E7032B7FF475AF160C95B2AA19102A3FF66FAF2368180700F10B8144A800F01BFAA76B4FEA450ED5
S32D0000DAB83B460DB344A90EF1FF3C01EBC60653F8040B62460CF0010146F8040B92B129B153F8041B013A46F8D3
S32D0000DAE0041B0BD01846314650F8045B41F8045B5D68031D75600E1D023AF3D107EB8E0344A8A36300F0CEF9F9
S32D0000DB0800203BE7002039E777192022BA42FFF434AF012B00F0A9800F2D40F2A9803746F6B1052B7FF429AF4E
S32D0000DB300F2D11D82268D0070ED522F00101052B2160204600F0DA8022F0030240F8482B019300F093F9019B7B
S32D0000DB581FB12268510700F1B880012B00F0BF800F2D75D9002F40F0A080D4F83890002EC8462EDD49460DF1F8
S32D0000DB80080A4FEA46080AEBC50251F8046B08F1FF3000F0010A42F8046BA8F1020CD0B1BAF1000F08D051F89B
S32D0000DBA8040B0CF1FF3CBCF1FF3F42F8040B0ED00E46104656F804AB40F804AB4968ACF1020C5160311D021DEE
S32D0000DBD0BCF1FF3FF0D109EB8808A7B3102D2CBF2E4610260DF5D079414609EBC60CACF5C8724FEA470951F886
S32D0000DBF8046B09F1FF3000F0010A42F8046BA9F1020CD0B1BAF1000F08D051F8040B0CF1FF3CBCF1FF3F42F853
S32D0000DC20040B0ED00E46104656F804AB40F804AB4968ACF1020C5160311D021DBCF1FF3FF0D108EB8908012B85
S32D0000DC482BD00F2DC4F8388008D9FFB9384695E602A8019300F016F9019B83E702A800F00DF9F2E777191022F3
S32D0000DC7050E70F2D3FF685AE102F10D9103F54E723F01003236004F50C70019200F058F9019A82E624A800F048
S32D0000DC98FDF8002072E6002746E708F1040302A8A36300F0E3F8002068E624A80193C5F1100600F0EFF8019B15
S32D0000DCC057E723F0080704F5D870276000F00CF9ECE6204622F0040140F8D01B019300F0DDF8019B3DE702A8E4
S32D0000DCE8019300F0C7F8019B002F3FF43EAFC5F110063AE741F0020140F8481B019300F0C1F8019B24E700BF81
S32D0000DD10406C7047F0B50D460F1DC96B296404460FCFADF5117D01AE0FC60FCF0FC60FCF0FC697E80F0086E85F
S32D0000DD380F004FF0FF33009310992046FFF722FB58B9266921466A46B04708280646F3D06846FFF77BFB062E4D
S32D0000DD6003D009200DF5117DF0BD20462946FFF707FC00BF10B4DC6BC1608261194600221C6410BCFFF792BBB0
S32D0000DD8838B54269C3680A6404460D4623B10122FFF788FB09F03EFA0369214602202A469847072803D0082888
S32D0000DDB004D009F033FA281D00F050F820462946FFF7DEFBC36823B1CA6B0A640022FFF76DBB9FE7704700BF4C
S32D0000DDD808B5836801460BB10120984708BD00BFF0B5D46B171D146405460C460FCFADF5277D01AE0FC60FCF3B
S32D0000DE000FC60FCF0FC697E80F0086E80F004FF0FF330093109990A8FFF7B8FA034690AA68460C21BBB9FFF70C
S32D0000DE28F7FB21466846A847064690A908206A466EB9949B98470528064601D00928E5D16846FFF703FB3046FB
S32D0000DE500DF5277DF0BD0926F6E700BF00F1340191E838009C46A6464CF8045D90E8FF0FE54600BD90EC210B26
S32D0000DE78704700BF80EC210B704700BF90EC200B704700BF80EC200B704700BFD0EC200B704700BFC0EC200B9A
S32D0000DEA0704700BFF0EC0201F0EC0211F0EC0221F0EC0231F0EC0241F0EC0251F0EC0261F0EC0271F0EC0281C7
S32D0000DEC8F0EC0291F0EC02A1F0EC02B1F0EC02C1F0EC02D1F0EC02E1F0EC02F1704700BFE0EC0201E0EC0211AF
S32D0000DEF0E0EC0221E0EC0231E0EC0241E0EC0251E0EC0261E0EC0271E0EC0281E0EC0291E0EC02A1E0EC02B1DE
S32D0000DF18E0EC02C1E0EC02D1E0EC02E1E0EC02F1704700BFB0FC0181B0FC0191B0FC01A1B0FC01B1704700BF3B
S32D0000DF40A0FC0181A0FC0191A0FC01A1A0FC01B1704700BFEC4600B52DE900502DE9FF1F4FF000032DE90C0080
S32D0000DF6801A9FFF7D3FEDDF840E012B0704700BFEC4600B52DE900502DE9FF1F4FF000032DE90C0001A9FFF768
S32D0000DF90FBFEDDF840E012B0704700BFEC4600B52DE900502DE9FF1F4FF000032DE90C0001A9FFF707FFDDF8DD
S32D0000DFB840E012B0704700BFEC4600B52DE900502DE9FF1F4FF000032DE90C0001ABFFF7CDFEDDF840E012B0DA
S32D0000DFE0704700BFEC4600B52DE900502DE9FF1F4FF000032DE90C0001AAFFF7F5FEDDF840E012B0704700BFF7
S32D0000E008027A03461AB9427A42B9B02070470068013A01021A72000E196070474168501E587251F8040B032246
S32D0000E030596001021A72000E1960704710B5002184B00C220DEB02040B460094FFF7B0FA039804B010BD00BF96
S32D0000E058F0E700BF2DE9F043064685B00D464FF000094FF47F672846FFF7CAFFB028044600F0B08010F0800186
S32D0000E08020D000F0F003802B74D0902B37D0A02B45D0B02B56D0C02B00F0858000F0F800D0280BD104F0070274
S32D0000E0A8511C41F40022304601210523FFF752FC0028D8D0092005B0BDE8F0834FEA800203A85FFA82F80090F3
S32D0000E0D00D220B463046FFF76BFA039B600608F104084CBFC8EB0303434403AC03930094002130460D220B468D
S32D0000E0F8FFF77AFAB7E700F00F020D2ADAD00F2AD8D0002103AC009430460B4603ACFFF74BFA0094E8E7C243B2
S32D0000E12002F0070C47FA0CF0210700F47F6248BF42F48042002130460B46FFF70FFC0028BCD194E7B1285DD074
S32D0000E148B2286ED0B32800F0958000F0FC02B42A46D000F00702531C43F40022012130460B46FFF7F7FB002815
S32D0000E170A4D17CE72846FFF747FF210240EA0104B4F5004F9AD0230500211A0C30460B462401FFF7E3FB0028F4
S32D0000E19890D114F4004F18BF4FF0010963E7C62873D0C72800F0848000F0F802C02A00F09280C82800F0A68047
S32D0000E1C0C9287FF47BAF2846FFF71EFF00F00F0300F0F0015A1C42EA013268E7B9F1000F00F0838000206AE7FE
S32D0000E1E800F00301481C022140F480220B463046FFF7B0FB00287FF45DAF34E72846FFF7FFFE024600283FF48A
S32D0000E21055AF10F0F0017FF451AF30460B46FFF79DFB00287FF44AAF21E700210D220B4603AC30460094FFF737
S32D0000E238BBF92846FFF7E4FE022402060DD5039B00F07F0000FA04FE03EB0E0128460391FFF7D6FE0734030698
S32D0000E260F1D4039B00F07F0103AA03F5017C01FA04F400920CEB0402039239E72846FFF7C3FE00F00F03591CC8
S32D0000E28800F0F00041EA003268E72846FFF7B8FE00F00F03591C00F0F00041EA0032032130460B46FFF756FBDC
S32D0000E2B000287FF403AFDAE62846FFF7A5FE024600283FF4FBAE10F0F0037FF4F7AE30460421FFF743FB0028DE
S32D0000E2D87FF4F0AEC7E600F00F01481C40F42022DDE703AC49460E224B4630460094FFF75BF9304649460F2233
S32D0000E3004B460094FFF774F94846D8E62846FFF77BFE00F0F00200F00F001032431C43EA0232C4E610B5C26CBE
S32D0000E32884B0032054688DF80C00D37924020832084601A9019402928DF80D30FFF78AFE04B010BD08B5FFF7E2
S32D0000E35083FE806C08BD00BF08B5FFF77DFEC16CC87901EB800303F1080008BD08B508F055FF00BF08B508F065
S32D0000E37851FF00BF80B586B000AFF860B9607A603B60FB681F4A9A61FB68BA685A604FF0030007F0C9FE02461A
S32D0000E3A0FB685A614FF0030007F0C2FE0246FB681A614FF000037B6111E0FB685A697B69D3184FF000021A7043
S32D0000E3C8FB681A697B69D3184FF000021A707B6903F101037B617B69022BCCBF00230123DBB2002BE5D1FB683B
S32D0000E3F07A681A60FB683A689A60FB683A6ADA60FB68184607F11807BD4680BD77E1314080B582B000AF786094
S32D0000E41839607B68184600F0A3FF7B68084A1A607A6847F2DC33C0F2010353607B683A681A617B68184607F1EF
S32D0000E4400807BD4680BD00BF5877010080B584B000AFF860B9607A603B60FB68184600F083FFFB680B4A1A606D
S32D0000E468FA6847F2EC33C0F201035360FB68BA681A61FB687A685A61FB683A689A61FB68184607F11007BD4690
S32D0000E49080BD00BFD877010080B584B000AFF860B960FA71BB71FB68184600F05DFFFB680B4A1A60FA6847F218
S32D0000E4B8FC33C0F201035360FB68BA681A61FB68FA791A75FB68BA795A75FB68184607F11007BD4680BD00BF05
S32D0000E4E06878010080B584B000AFF860B9607A60FB68184600F038FFFB680A4A1A60FA6847F21043C0F201030D
S32D0000E5085360FB68BA681A61FB687A685A61FB68184607F11007BD4680BD00BFB878010080B584B000AFF860C2
S32D0000E530B9607A60FB68184600F016FFFB680A4A1A60FA6847F22443C0F201035360FB68BA681A61FB687A6823
S32D0000E5585A61FB68184607F11007BD4680BD00BF00790100B0B582B002AF43F22863C1F6FF7343F2C462C1F64E
S32D0000E580FF721A6043F22863C1F6FF731B6818464FF0000104F072F843F22863C1F6FF731B6818464FF001010F
S32D0000E5A804F0C6F84FF0030007F08AFD044620464FF0030103F034F943F23C63C1F6FF731C604FF0080007F009
S32D0000E5D07BFD04462046DFF80C1700F0BDFF43F24463C1F6FF731C604FF0100007F0A0FD024643F23463C1F620
S32D0000E5F8FF731A604FF0020007F062FD044620464FF0000102F0B6F843F24C63C1F6FF731C604FF0020007F021
S32D0000E62053FD044620464FF0010102F0A7F843F25063C1F6FF731C604FF0100007F044FD044643F24C63C1F601
S32D0000E648FF731A6843F25063C1F6FF731B68204611461A4601F00AF843F24863C1F6FF731C6043F23863C1F600
S32D0000E670FF734FF000021A6043F25463C1F6FF734FF001021A7043F25563C1F6FF734FF000021A7043F2606395
S32D0000E698C1F6FF7343F25862C1F6FF721A604FF01C0007F00DFD044620464FF0080102F053FF43F26463C1F64F
S32D0000E6C0FF731C604FF01C0007F0FEFC044620464FF0090102F044FF43F26863C1F6FF731C604FF01C0007F0CD
S32D0000E6E8EFFC044643F23C63C1F6FF73196843F26063C1F6FF731A6843F26463C1F6FF731D6843F26863C1F64D
S32D0000E710FF731B68009320462B46FFF72FFE43F24063C1F6FF731C604FF00C0007F0CCFC044620464FF00001E2
S32D0000E73803F040FA43F26C63C1F6FF731C6000F0D3FA43F23463C1F6FF731A6843F23863C1F6FF731B684FEAF4
S32D0000E7608303D3181A6843F23063C1F6FF731A6043F23063C1F6FF731B68184600F03EFE43F22863C1F6FF7346
S32D0000E788186843F24863C1F6FF73196843F24063C1F6FF731A6843F26C63C1F6FF731B6800F004FE00E000BF95
S32D0000E7B043F24063C1F6FF731B68184600F02EFE43F24063C1F6FF731B6818464FF0010100F066FE0346002B52
S32D0000E7D818D043F23063C1F6FF731A6843F27463C1F6FF731A6000BF43F23063C1F6FF731B685A6947F2904307
S32D0000E800C0F201039A4240F0168100E143F24063C1F6FF731B6818464FF0000100F040FE0346002B31D043F2B6
S32D0000E8283863C1F6FF731B6803F1FF3243F23863C1F6FF731A6043F23863C1F6FF731B68002B0BDA43F2386387
S32D0000E850C1F6FF731B6803F1040243F23863C1F6FF731A6043F23463C1F6FF731A6843F23863C1F6FF731B688E
S32D0000E8784FEA8303D3181A6843F23063C1F6FF731A6043F24063C1F6FF731B6818464FF0020100F001FE03467F
S32D0000E8A0002B31D043F23863C1F6FF731B6803F1010243F23863C1F6FF731A6043F23863C1F6FF731B68032B8E
S32D0000E8C80BDD43F23863C1F6FF731B68A3F1040243F23863C1F6FF731A6043F23463C1F6FF731A6843F238636A
S32D0000E8F0C1F6FF731B684FEA8303D3181A6843F23063C1F6FF731A6043F24463C1F6FF731B68184600F03AFEA9
S32D0000E91803464FF0010214461846F149FEF7A0FC0346002B02D14FF000031C46E3B2002B3FF439AF43F228633D
S32D0000E940C1F6FF731B68184603F0C2FE43F22863C1F6FF731B68184647F23441C0F2010103F03EFF43F22863D0
S32D0000E968C1F6FF731A6843F23063C1F6FF731B685B691046194603F0FDFF43F22863C1F6FF731B68184647F2F7
S32D0000E9904041C0F2010103F0F1FF43F22863C1F6FF731B68184647F25841C0F2010103F0E5FF43F22863C1F6A3
S32D0000E9B8FF731B68184647F27041C0F2010103F00BFF43F22863C1F6FF731A6843F25463C1F6FF731B78002B05
S32D0000E9E004D047F27C43C0F2010303E047F28443C0F201031046194603F0C0FF43F24463C1F6FF731B681846A1
S32D0000EA0800F0F4FDCFE643F25463C1F6FF731B7883F00103DAB243F25463C1F6FF731A7043F25563C1F6FF73EA
S32D0000EA304FF000021A7043F25463C1F6FF731B78002B25D043F23063C1F6FF731B685A6947F29043C0F201032C
S32D0000EA589A4219D043F25563C1F6FF731B7883F00103DBB2002B0FD043F26063C1F6FF731B68184605F042FCDF
S32D0000EA8043F26063C1F6FF731B68184606F0F4F843F23063C1F6FF731B68DB68002B0DDC43F22863C1F6FF73D0
S32D0000EAA81B68184647F29C41C0F2010103F062FF00BF44E643F23063C1F6FF731B681B7E002B2ED043F230635A
S32D0000EAD0C1F6FF731B68184600F064FA024643F22C63C1F6FF731A6043F22C63C1F6FF731B681B7A83F0010395
S32D0000EAF8DBB2002B15D043F22C63C1F6FF731B681B681A6843F22C63C1F6FF731B681846904743F22C63C1F6BE
S32D0000EB20FF731B684FF001021A7243F24063C1F6FF731B68184600F071FC43F22C63C1F6FF731B681B6803F1DE
S32D0000EB4804031A6843F22C63C1F6FF731B681846904743F24463C1F6FF731B68184600F011FD03464FF0010202
S32D0000EB70144618465C49FEF777FB0346002B02D14FF000031C46E3B2002B3AD043F22863C1F6FF731B68184634
S32D0000EB9803F09AFD43F22863C1F6FF731B68184647F2AC41C0F2010103F016FE43F22863C1F6FF731A6843F27A
S32D0000EBC02C63C1F6FF731B685B681046194603F0D5FE43F22C63C1F6FF731B681B6803F118031A6843F22C6366
S32D0000EBE8C1F6FF731B681846904743F24463C1F6FF731B68184600F0F9FC43F22C63C1F6FF731B681B6803F16C
S32D0000EC1008031A6843F22C63C1F6FF731B68184690470346002B23D043F22C63C1F6FF731B681B6803F1100343
S32D0000EC381A6843F22C63C1F6FF731B681846904743F23063C1F6FF731B681B7E83F00103DBB2002B3ED043F208
S32D0000EC603063C1F6FF731B68184600F0ADF935E043F22C63C1F6FF731B681B6803F10C031A6843F22C63C1F64B
S32D0000EC88FF731B68184690470346002B22D043F23063C1F6FF731B681B7E83F00103DBB2002B07D043F23063F3
S32D0000ECB0C1F6FF731B68184600F086F943F22C63C1F6FF731B681B6803F114031A6843F22C63C1F6FF731B68CD
S32D0000ECD818469047034802F091F8D5E600000000CDCCCC3D0AD7233C90B587B000AF4FF000037B6115E04FF0F9
S32D0000ED001C0007F0E1F90446204600F0B5F943F23463C1F6FF731A687B694FEA8303D3181C607B6903F101034D
S32D0000ED287B617B69032BCCBF00230123DBB2002BE1D143F23463C1F6FF731B681B68FB6043F23463C1F6FF7348
S32D0000ED501B685B68BB6043F23463C1F6FF731B689B687B6043F23463C1F6FF731B68DB683B60F86847F2B441FA
S32D0000ED78C0F2010100F0AEF9B86847F2BC41C0F2010100F0A7F9786847F2C841C0F2010100F0A0F9386847F250
S32D0000EDA09041C0F2010100F099F94FF0180007F08BF9044620464FF06401734AFFF792FBF868214600F098F990
S32D0000EDC8F86800F0AFF94FF0180007F079F9044620464FF05A014FF000024FF00003FFF757FBB868214600F0D9
S32D0000EDF083F94FF0140007F067F90446204647F2D041C0F20101FFF703FBB868214600F073F94FF0140007F000
S32D0000EE1857F90446204647F2D841C0F20101FFF7F3FAB868214600F063F9B86800F07AF94FF0180007F044F902
S32D0000EE40044620464FF06401504AFFF74BFB7868214600F051F94FF0180007F035F9044620464FF05A014FF0F4
S32D0000EE6800024FF00003FFF713FB7868214600F03FF94FF0180007F023F9044620464FF0AA01414AFFF74CFBF9
S32D0000EE907868214600F030F94FF01C0007F014F9044620464FF046014FF00002394BFFF7CDFA7868214600F0A6
S32D0000EEB81FF94FF0180007F003F9044620464FF05A01334AFFF72CFB7868214600F010F94FF01C0007F0F4F868
S32D0000EEE0044620466FF045014FF000022B4BFFF7ADFA7868214600F0FFF84FF01C0007F0E3F8044620464FF011
S32D0000EF0846014FF00002244BFFF79CFA7868214600F0EEF84FF01C0007F0D2F8044620466FF045014FF0000289
S32D0000EF301A4BFFF78BFA7868214600F0DDF8786800F0F4F84FF000033B6110E043F23463C1F6FF731A683B6922
S32D0000EF584FEA8303D3181B68184600F0E3F83B6903F101033B613B69032BCCBF00230123DBB2002BE6D107F1F2
S32D0000EF801C07BD4690BD00BF0000204100001042000000400000803F000000009A99993E0000003F80B483B0CF
S32D0000EFA800AF78607B684FF000021A767B681B681B68184607F10C07BD4680BC704700BF80B485B000AF786009
S32D0000EFD04FF00003FB6013E07B689A68FB684FEA8303D3187A681168FA6802F101024FEA82028A1812681A608B
S32D0000EFF8FB6803F10103FB607B68DB6803F1FF32FB689A42D4BF00230123DBB2002BDFD17B68DB6803F1FF321E
S32D0000F0207B68DA604FF00003BB6011E07B681A68BB684FEA8303D3187A689168BA684FEA82028A1812681A60D5
S32D0000F048BB6803F10103BB607B68DA68BB689A42D4BF00230123DBB2002BE3D17B684FF001021A7607F1140732
S32D0000F070BD4680BC704700BF80B582B000AF78604FF4C87007F054F802467B681A604FF4C87007F04DF802466D
S32D0000F0987B685A604FF4C87007F046F802467B689A607B684FF00002DA607B684FF000021A617A6847F2E0439D
S32D0000F0C0C0F2010353617B684FF000021A767B68184607F10807BD4680BD00BF80B483B000AF786039607B6853
S32D0000F0E83A685A6107F10C07BD4680BC704700BF80B483B000AF786039607B685A687B681B694FEA8303D318A0
S32D0000F1103A681A607B681B6903F101027B681A6107F10C07BD4680BC704700BF80B487B000AF78604FF0000305
S32D0000F1387B6111E07B689A687B694FEA8303D3187A6811687A694FEA82028A1812681A607B6903F101037B6120
S32D0000F1607B68DA687B699A42D4BF00230123DBB2002BE3D14FF000033B6111E07B681A683B694FEA8303D318D4
S32D0000F1887A6851683A694FEA82028A1812681A603B6903F101033B617B681A693B699A42D4BF00230123DBB243
S32D0000F1B0002BE3D17B681B69FB6014E07B681A68FB684FEA8303D3187A6891687A681269F868821A4FEA820239
S32D0000F1D88A1812681A60FB6803F10103FB607B68DA687B681B69D218FB689A42D4BF00230123DBB2002BDDD1C8
S32D0000F2007B68DA687B681B69D2187B68DA607B684FF000021A617B684FF001021A7607F11C07BD4680BC7047E8
S32D0000F22880B582B000AF786039607B68012B0AD13A684FF6FF739A4205D143F25860C1F6FF7005F017F807F12D
S32D0000F2500807BD4680BD00BF80B500AF4FF001004FF6FF71FFF7E0FF80BD00BF80B582B000AF78607B68DB68C4
S32D0000F278184600F0BBF97B68DB681846034900F0C9F907F10807BD4680BD00BF0000004080B483B000AF7860B0
S32D0000F2A007F10C07BD4680BC704700BF80B582B000AF78607B68DB68184600F0BDF90346184607F10807BD46B7
S32D0000F2C880BD00BF80B483B000AF786007F10C07BD4680BC704700BF80B483B000AF78604FF00003184607F1E8
S32D0000F2F00C07BD4680BC704780B483B000AF786007F10C07BD4680BC704700BF90B583B000AF786043F2706332
S32D0000F318C1F6FF731A687B681B691046194603F029FB43F27063C1F6FF731B68184647F2F041C0F2010103F0C6
S32D0000F3404FFA43F27063C1F6FF731C687B68DB68184600F03BF903462046194603F036FB07F10C07BD4690BD6C
S32D0000F36890B583B000AF78607B680E4A1A604FF0080006F0A5FE044620460B4900F0E8F87B68DC607A6847F2D5
S32D0000F390F443C0F2010353607B684FF000021A727B68184607F10C07BD4690BDB07701000000000080B485B0D2
S32D0000F3B800AFF860B9607A603B6043F27063C1F6FF73FA681A6043F27863C1F6FF73BA681A6043F27C63C1F6E5
S32D0000F3E0FF737A681A6043F28063C1F6FF733A681A6007F11407BD4680BC704780B483B000AF786043F27463D1
S32D0000F408C1F6FF737A681A6007F10C07BD4680BC704700BF90B585B000AF78604FF00003FB600DE07B681A69A0
S32D0000F430FB68D3187A685169FA688A1812781A70FB6803F10103FB60FB68022BCCBF00230123DBB2002BE9D122
S32D0000F4587B685C697B685B68184602F067FA034623707B685B6903F101047B685B68184602F06EFA03462370D1
S32D0000F4807B685B6903F102047B685B68184602F077FA0346237007F11407BD4690BD00BF80B483B000AF78606A
S32D0000F4A80B46FB707B685A69FB78D3181B78002B0CD07B681A69FB78D3181B7883F00103DBB2002B02D04FF045
S32D0000F4D0010301E04FF00003184607F10C07BD4680BC7047B0B582B000AF78607B689B68184602F07FF9044672
S32D0000F4F87B68DB68184602F079F90346E3181846FDF7D4F802460B46104619464FF000024FF08043FDF75AFAC3
S32D0000F52002460B4614461D467B689B691846FDF7D3F802460B4620462946FDF74BFA02460B4610461946FDF77A
S32D0000F54875FB0346184607F10807BD46B0BD00BF80B582B000AF7860396001F073FC02460B4610461946FDF71F
S32D0000F57061FB02467B681A607B683A685A607B68184607F10807BD4680BD00BFB0B582B000AF786001F05AFC81
S32D0000F59804460D467B681B681846FDF799F802460B4620462946FCF733FF02460B4610461946FDF73BFB03460B
S32D0000F5C0184607F10807BD46B0BD00BF90B583B000AF78607B685C687868FFF7D7FF034620461946FDF77AFBC0
S32D0000F5E80346184607F10C07BD4690BD80B582B000AF786001F026FC02460B4610461946FDF714FB02467B6876
S32D0000F6101A6007F10807BD4680BD00BF80B483B000AF786039607B683A685A6007F10C07BD4680BC704700BFC6
S32D0000F63890B583B000AF78607868FFF7A3FF02467B685B684FF001010C4610461946FDF707FE0346002B02D1B7
S32D0000F6604FF000031C46E3B2184607F10C07BD4690BD00BF80B485B000AFF860B9607A60FB68BA689A60FB6886
S32D0000F6887A68DA60FB68064A1A60FB68054A5A60FB68184607F11407BD4680BC704700BF398EE33E000070427C
S32D0000F6B090B587B000AFF860B9607A60BA687B68D3187B61BA687B68D31A3B617B69642B02DD4FF064037B6188
S32D0000F6D87B6913F1640F02DA6FF063037B613B69642B02DD4FF064033B613B6913F1640F02DA6FF063033B6180
S32D0000F700FB689C687B69C3F100031846FDF79CFB03462046194601F047F8FB68DC683869FDF792FB034620463A
S32D0000F728194601F03DF807F11C07BD4690BD00BF90B585B000AFF860B9607A60FB689C68B868FDF77DFB034654
S32D0000F7502046194601F028F8FB68DC687868FDF773FB03462046194601F01EF807F11407BD4690BD80B582B0ED
S32D0000F77800AF786043F27863C1F6FF7319687B681A697B685B69084611461A46FFF78CFF7B68DA687B689B6983
S32D0000F7A010461946FFF73AFF7B68DB681846FFF721FF07F10807BD4680BD00BF80B483B000AF786007F10C07BE
S32D0000F7C8BD4680BC704700BF80B582B000AF78607B68DB681846FFF72BFF0346184607F10807BD4680BD00BF1F
S32D0000F7F080B582B000AF786043F27863C1F6FF731B6818464FF000014FF00002FFF750FF07F10807BD4680BDD6
S32D0000F81880B483B000AF78604FF00003184607F10C07BD4680BC704780B483B000AF786007F10C07BD4680BCFB
S32D0000F840704700BF90B583B000AF786043F27063C1F6FF731B68184647F20451C0F2010102F0BEFF43F270631A
S32D0000F868C1F6FF731A687B681B691046194603F095F843F27063C1F6FF731B68184647F21051C0F2010102F0D9
S32D0000F890A7FF43F27063C1F6FF731A687B685B691046194603F07EF843F27063C1F6FF731B68184647F2185178
S32D0000F8B8C0F2010102F090FF43F27063C1F6FF731C687B68DB681846FFF77CFE03462046194603F077F807F1DC
S32D0000F8E00C07BD4690BD00BF80B582B000AF78607B68DB6818463249FFF790FE7B68DB681846FFF777FE43F243
S32D0000F9087C63C1F6FF731B681B68184605F020FA03461846FDF7AEFC02467B689A617B689A697B681A627B68C3
S32D0000F9301A6A7B681B69D2187B689A627B689A6A7B685A627B684FF0000283F831207B684FF0000283F8302090
S32D0000F9587B681B69002BD4BF00230123DAB27B6883F832207B681B694FEAD373DAB27B6883F833207B689B6ACE
S32D0000F980B32B0ADD7B685B6AA3F1B4027B685A627B684FF0010283F830207B689B6A002B0ADA7B685B6A03F180
S32D0000F9A8B4027B685A627B684FF0010283F8312007F10807BD4680BD00008040F0B583B000AF786043F27C6371
S32D0000F9D0C1F6FF731B681B68184605F0BDF903461846FDF74BFC02467B689A617B689A697B68DA617B6893F857
S32D0000F9F83030002B09D07B689B69592B05DC7B68DB6903F1B4027B68DA617B6893F83130002B09D07B689B6988
S32D0000FA205A2B05DD7B68DB69A3F1B4027B68DA617B68DA697B689B6AD21A7B68DA627B6893F83230002B5ED080
S32D0000FA487B681B7D002B2AD143F27863C1F6FF731C6843F27863C1F6FF731B685D6843F27863C1F6FF731B68F5
S32D0000FA701E687B68DB6A1846FDF7E6F9034630461946FDF735FA034628461946FDF726F903461846FDF7F2FB97
S32D0000FA98034620464FF000011A46FFF749FE7B681B7D012B2BD143F27863C1F6FF731C6843F27863C1F6FF731B
S32D0000FAC01B681D687B68DB6A1846FDF7BDF9034628461946FDF70CFA03461A4643F27863C1F6FF731B685B68A8
S32D0000FAE810461946FDF7F6F803461846FDF7C2FB0346204619464FF00002FFF719FE7B6893F83330002B5FD07A
S32D0000FB107B681B7D002B2CD143F27863C1F6FF731C6843F27863C1F6FF731B685B6883F0004543F27863C1F669
S32D0000FB38FF731B681E687B68DB6A1846FDF780F9034630461946FDF7CFF9034628461946FDF7C0F803461846EE
S32D0000FB60FDF78CFB034620464FF000011A46FFF7E3FD7B681B7D012B2AD143F27863C1F6FF731C6843F2786368
S32D0000FB88C1F6FF731B685D6843F27863C1F6FF731B681E687B68DB6A1846FDF751F9034630461946FDF7A0F92D
S32D0000FBB0034628461946FDF793F803461846FDF75DFB0346204619464FF00002FFF7B4FD07F10C07BD46F0BDEE
S32D0000FBD880B483B000AF78607B68DB6A052B0FDD7B6893F83330002B02D04FF0000320E07B6893F83230002BC2
S32D0000FC001AD04FF0010318E07B68DB6A13F1050F0FDA7B6893F83230002B02D04FF000030BE07B6893F83330BD
S32D0000FC28002B05D04FF0010303E04FF0010300E0FFE7184607F10C07BD4680BC704700BF80B582B000AF786073
S32D0000FC5043F27863C1F6FF731B6818464FF000014FF00002FFF724FD07F10807BD4680BD80B582B000AF78609F
S32D0000FC787B68DB681846FFF7DBFC0346184607F10807BD4680BD00BFB0B582B000AF786043F27863C1F6FF7309
S32D0000FCA01B6818464FF000014FF00002FFF700FD43F27463C1F6FF731D684FF0140006F003FA0446204647F2F8
S32D0000FCC83051C0F20101FEF79FFB28462146FFF70FFA43F27463C1F6FF731D684FF0140006F0EEF904462046DC
S32D0000FCF047F23851C0F20101FEF78AFB28462146FFF7FAF943F27463C1F6FF731B681846FFF70CFA07F108071F
S32D0000FD18BD46B0BD80B483B000AF786007F10C07BD4680BC704700BF80B584B000AFF860B9601346FB71FB68EE
S32D0000FD401846FFF711FBFB68094A1A60FA6847F24053C0F201035360FB68BA681A61FB68FA791A75FB68184648
S32D0000FD6807F11007BD4680BD20780100B0B584B000AF786043F27C63C1F6FF731B681B68184604F0E5FF0346A3
S32D0000FD901846FDF773FA0346BB604FF00003FB607B681B7D002B16D17B681A69BB689A4205DD7B681A69BB6828
S32D0000FDB8D31AFB600BE07B681A69BB689A4206DA7B681B6903F1B402BB68D31AFB607B681B7D012B16D17B68B8
S32D0000FDE01A69BB689A4207DD7B681B69A3F1B402BB68D31AFB6009E07B681A69BB689A4204DA7B681A69BB68BE
S32D0000FE08D31AFB60FB685A2B19DCFB6813F15A0F15DB43F27463C1F6FF731D684FF0340006F04EF904467B6850
S32D0000FE305B7D2046F9681A46FFF77AFF28462146FFF75AF937E043F27463C1F6FF731D684FF0340006F038F9AD
S32D0000FE580446FB684FEAD372D3184FEA63031A467B685B7D204611461A46FFF75DFF28462146FFF73DF943F207
S32D0000FE807463C1F6FF731D684FF0340006F01CF90446FB684FEAD372D3184FEA63031A467B685B7D20461146C4
S32D0000FEA81A46FFF741FF28462146FFF721F943F27463C1F6FF731B681846FFF733F907F11007BD46B0BD00BF3B
S32D0000FED080B483B000AF786007F10C07BD4680BC704700BF80B582B000AF786043F27863C1F6FF731B6818464E
S32D0000FEF84FF000014FF00002FFF7D6FB07F10807BD4680BD80B483B000AF78604FF00103184607F10C07BD46B0
S32D0000FF2080BC704780B483B000AF78604FF00003184607F10C07BD4680BC704780B483B000AF786007F10C0738
S32D0000FF48BD4680BC704700BF80B483B000AF786007F10C07BD4680BC704700BF0000000090B583B000AF786029
S32D0000FF7043F27863C1F6FF731A687B681B69104619464FF00002FFF793FB43F27C63C1F6FF731B689B681846A6
S32D0000FF9801F038FC43F27C63C1F6FF731B68DB68184601F02FFC7B68DB681846FFF71EFB7B68DC687B685B6938
S32D0000FFC01846FCF789FB02460B461046194610A3D3E90023FCF7FEFC02460B46104619464FF000024FF07E53D2
S32D0000FFE803F5F003FCF7C8FB02460B4610461946FCF71CFE034620461946FFF70BFB07F10C07BD4690BD00BFCB
S32D0001001085EB51B81E45214080B483B000AF786007F10C07BD4680BC704700BF90B583B000AF786043F27C63C3
S32D00010038C1F6FF731B681846FFF750FA02467B685B694FF001010C4610461946FDF708F90346002B02D14FF09D
S32D0001006000031C46E3B2184607F10C07BD4690BD80B582B000AF786043F27863C1F6FF731B6818464FF0000176
S32D000100884FF00002FFF710FB07F10807BD4680BD80B582B000AF78607B68DB681846FFF7C7FA0346184607F1F8
S32D000100B00807BD4680BD00BFB0B582B000AF786043F27463C1F6FF731D684FF0140005F0FBFF0446204647F210
S32D000100D86451C0F20101FEF797F928462146FFF707F843F27463C1F6FF731B681846FFF719F807F10807BD461A
S32D00010100B0BD00BF90B583B000AF786043F27063C1F6FF731B68184647F28451C0F2010102F05EFB43F270637E
S32D00010128C1F6FF731A687B681B691046194602F035FC43F27063C1F6FF731B68184647F29051C0F2010102F0EC
S32D0001015047FB43F27063C1F6FF731C6843F27C63C1F6FF731B689B68184601F043FB03462046194602F016FC27
S32D0001017843F27063C1F6FF731B68184647F29C51C0F2010102F028FB43F27063C1F6FF731C6843F27C63C1F6D7
S32D000101A0FF731B68DB68184601F024FB03462046194602F0F7FB43F27063C1F6FF731B68184647F2AC51C0F29E
S32D000101C8010102F009FB43F27063C1F6FF731C687B68DB681846FFF7F5F903462046194602F0F0FB07F10C07FD
S32D000101F0BD4690BD90B583B000AF78607B681B69B3F1FF3F08D143F28063C1F6FF731B68184601F0C7FD0EE0AA
S32D0001021843F28063C1F6FF731C687B681B691846FCF70EFE03462046194601F0E1FC7B68DA687B685B69104630
S32D000102401946FFF7EBF97B68DB681846FFF7D2F907F10C07BD4690BD80B483B000AF786007F10C07BD4680BC7E
S32D00010268704700BF80B582B000AF78607B68DB681846FFF7DDF90346184607F10807BD4680BD00BF80B483B09F
S32D0001029000AF786007F10C07BD4680BC704700BF80B483B000AF78604FF00003184607F10C07BD4680BC704769
S32D000102B880B483B000AF786007F10C07BD4680BC704700BF90B583B000AF786043F27063C1F6FF731B68184658
S32D000102E047F2B851C0F2010102F07AFA43F27063C1F6FF731A687B681B691046194602F051FB43F27063C1F6C7
S32D00010308FF731B68184647F2C451C0F2010102F063FA43F27063C1F6FF731C687B68DB681846FFF74FF9034662
S32D000103302046194602F04AFB07F10C07BD4690BD80B500AF43F69872C1F6FF7243F22863C1F6FF73D31A1946C3
S32D0001035843F22863C1F6FF731A460B4610464FF000011A4604F023FE80BD00BF05F08CFE00F0B0F9FFF7E0FFE8
S32D0001038005F05EFE05F0FAFD05F092FE00F00CF84FF0000043F28461C1F6FF71FEF7E6F80346184604F0E2FDCB
S32D000103A880B500AF4FF4E043C4F204034FF4E042C4F2040202F5805202F13802126842F4785203F5805303F1CF
S32D000103D038031A6000F02EF900F094F843F29063C1F6FF734FF058021A6043F29063C1F6FF731B684FF47A724F
S32D000103F802FB03F243F28C63C1F6FF731A6043F28C63C1F6FF731B681A464FF4E043C4F2040303F5825303F109
S32D0001042004031B6803F070634FEA136303F10103B2FBF3F31A4643F29463C1F6FF731A604FF4E043C4F20403D1
S32D000104484FF4E042C4F2040202F5805202F13C02126842F0225203F5805303F13C031A604FF4E043C4F20403AF
S32D000104704FF4E042C4F2040202F5805202F13002126842F0006203F5805303F130031A604FF45043C4F2030342
S32D000104984FF480721A614FF0640000F029FB4FF45043C4F203034FF45042C4F20302526922F010025A614FF4CF
S32D000104C05043C4F203034FF000021A604FF45043C4F203034FF010025A6100F055FF00F0FDFF43F28860C1F661
S32D000104E8FF7000F089FB43F2C460C1F6FF7001F0A9FF41F2883000F067FC80BD80B400AF4FF48043C4F20603C7
S32D000105104FF000025A704FF48043C4F206034FF098021A704FF48043C4F206039B79DBB203F01003002B0CBF27
S32D0001053800230123DBB2002BF0D14FF48043C4F206039B79DBB203F00C034FEA9303022B0CBF00230123DBB2D1
S32D00010560002BEED14FF48043C4F206034FF018021A714FF48043C4F206034FF000025A714FF4E043C4F20403E5
S32D0001058803F5825303F104034FF00002C0F213121A604FF48043C4F206034FF054025A7100BF4FF48043C4F24A
S32D000105B006039B79DBB203F02003002B14BF00230123DBB2002BF0D100BF4FF48043C4F206039B79DBB203F086
S32D000105D84003002B14BF00230123DBB2002BF0D14FF48043C4F206034FF48042C4F206021278D2B202F03F022A
S32D00010600D2B21A704FF48043C4F206039B79DBB203F00C034FEA9303032B0CBF00230123DBB2002BEED14FF090
S32D0001062800031846BD4680BC704700BF80B400AF4FF44043C4F204034FF480725A634FF2C003C4F20F034FF228
S32D00010650C002C4F20F02526942F400525A614FF2C003C4F20F034FF2C002C4F20F02126842F400521A604FF49F
S32D000106784043C4F2040340F20312C0F20A021A634FF46143CEF200034FF46142CEF20002D2F8882142F08062B8
S32D000106A0C3F888214FF46143CEF200034FF46142CEF20002926842F080629A60BD4680BC704700BF80B483B051
S32D000106C800AF7860FEE700BF80B400AF00BEBD4680BC704780B400AF4FF0E0224CF20003C0F20003C2F8083D28
S32D000106F04FF40053C4F205034CF22052DA814FF40053C4F205034DF62812DA814FF40053C4F205034FF0D202E9
S32D000107181A80BD4680BC704780B400AF4FF44043C4F20403D3F8A03003F48053002B0CBF00230123DBB2002B62
S32D0001074019D04FF44043C4F204034FF44042C4F20402D2F8A02022F48052C3F8A0204FF2C003C4F20F034FF2A3
S32D00010768C002C4F20F02126822F400521A60BD4680BC704780B483B000AF78600B46FB707B68FA781A707B681B
S32D000107904FF000025A707B68184607F10C07BD4680BC70470000000090B585B000AF786039604FF001031C46AE
S32D000107B838682F49FCF736FD0346002B02D14FF000031C46E3B2002B02D0294B3B6011E04FF001031C46386812
S32D000107E02649FCF741FD0346002B02D14FF000031C46E3B2002B01D0204B3B603868FBF76BFF02460B461046DD
S32D0001080819464FF000024FF0804303F5B203FCF7DDF802460B461046194613A3D3E90023FBF7AAFF02460B4693
S32D0001083010461946FCF7B6F90346FB737B685B78FA7B9A420FD07B68FA7B5A707B681A78FB7B43F28860C1F6C4
S32D00010858FF7011461A464FF01E0300F017FA07F11407BD4690BD00BF0000000000C05F400000C8C20000C842D5
S32D0001088090B486B000AFF860B9607A60FA684FF42043C4F206039A4214D14FF4E043C4F204034FF4E042C4F20F
S32D000108A8040202F5805202F13402126842F4806203F5805303F134031A6083E0FA684FF43043C4F206039A4211
S32D000108D014D14FF4E043C4F204034FF4E042C4F2040202F5805202F13402126842F4006203F5805303F13403D6
S32D000108F81A6067E0FA684FF44043C4F206039A4214D14FF4E043C4F204034FF4E042C4F2040202F5805202F168
S32D000109203402126842F4805203F5805303F134031A604BE0FA684FF45043C4F206039A4214D14FF4E043C4F281
S32D0001094804034FF4E042C4F2040202F5805202F13402126842F4005203F5805303F134031A602FE0FA684FF440
S32D000109702043C4F20E039A4214D14FF4E043C4F204034FF4E042C4F2040202F5805202F12802126842F48062B1
S32D0001099803F5805303F128031A6013E04FF4E043C4F204034FF4E042C4F2040202F5805202F12802126842F4FF
S32D000109C0006203F5805303F128031A60FB68DB78DBB223F00C03DAB2FB68DA70FB684FF000029A70BB684FF490
S32D000109E87A7202FB03F27B684FEA031392FBF3F39CB2FB681B78DBB223F01F03FB75234603F4F8534FEA2323BD
S32D00010A10DBB203F01F03DAB2FB7D1343DAB2FB681A70E2B2FB685A70BB684FF4FA4202FB03F27B684FEA0313BB
S32D00010A3892FBF3F39AB2234619464FEAC121CB1A4FEA43139BB2D3189CB2FB689B7ADBB223F01F03FB75E3B2B4
S32D00010A6003F01F03DAB2FB7D1343DAB2FB689A72FB68DB78DBB243F00C03DAB2FB68DA7007F11807BD4690BCD9
S32D00010A88704700BF80B483B000AF786000BF7B681B79DBB203F02003002B14BF00230123DBB2002BF3D17B685E
S32D00010AB0DB79DBB2184607F10C07BD4680BC704780B483B000AF78600B46FB7000BF7B681B79DBB2DBB26FEA84
S32D00010AD80303DBB24FEAD313DBB2002BF3D17B68FA78DA7107F10C07BD4680BC704700BF80B483B000AF786073
S32D00010B004FF4E043C4F204034FF4E042C4F2040202F5805202F13802126842F0010203F5805303F138031A6069
S32D00010B284FF00003C4F204037A689A604FF00003C4F204034FF005025A604FF00003C4F204034FF00002C4F2CE
S32D00010B500402126842F001021A6000BF4FF00003C4F204031B6803F08003002B14BF00230123DBB2002BF1D1D1
S32D00010B784FF00003C4F204034FF00002C4F20402126822F001021A6007F10C07BD4680BC704700BF80B582B022
S32D00010BA000AF786039607B68012B0AD13A684FF6FF739A4205D143F28860C1F6FF7000F00FF807F10807BD46CD
S32D00010BC880BD00BF80B500AF4FF001004FF6FF71FFF7E0FF80BD00BF80B483B000AF78607B684FF000021A70BC
S32D00010BF07B68184607F10C07BD4680BC704700BF80B582B000AF78607B681B7883F00103DBB2002B36D04FF4F9
S32D00010C18E043C4F2040303F5805303F128034FF400621A604FF45043C4F204034FF440721A624FF45043C4F234
S32D00010C4004034FF440725A6243F28C63C1F6FF731B684FEAD372D3184FEA63034FF43040C4F20E0019464FF4DC
S32D00010C686142FFF709FE4FF0640000F0ADF87B684FF001021A704FF0010301E04FF00003184607F10807BD4608
S32D00010C9080BD00BF80B582B000AF7860F970BA707B704FF43040C4F20E004FF07F01FFF707FF4FF43040C4F232
S32D00010CB80E004FF00801FFF7FFFEFB784FF43040C4F20E001946FFF7F7FEBB784FF43040C4F20E001946FFF791
S32D00010CE0EFFE7B784FF43040C4F20E001946FFF7E7FE4FF43040C4F20E004FF0FF01FFF7DFFE07F10807BD46C1
S32D00010D0880BD00BF80B487B000AFF860B9607A60FA6844F6D353C1F26203A3FB02134FEA9312BB68D3187B6106
S32D00010D30FA6844F6D353C1F26203A3FB02134FEA93134FF47A7101FB03F3D31AFB60FB684FEAC33244F6D353CF
S32D00010D58C1F26203A3FB02134FEA93127B68D3183B613B694FEAD3337A69D3187B613B694FEA43434FEA53439A
S32D00010D803B614FF45043C4F203031B681A467B699A4211D34FF45043C4F203031B681A467B699A420BD14FF43B
S32D00010DA85043C4F203035B681A463B699A4202D24FF0010301E04FF00003002BDDD107F11C07BD4680BC704706
S32D00010DD080B584B000AF78604FF45043C4F203031B68FB604FF45043C4F203035B68BB607B681846F968BA6860
S32D00010DF8FFF788FF07F11007BD4680BD80B584B000AF78604FF45043C4F203031B68FB604FF45043C4F203030E
S32D00010E205B68BB6078680849FCF762F803461846FCF74AFA03461846F968BA68FFF766FF07F11007BD4680BD95
S32D00010E4800007A4480B584B000AF4FF45043C4F203031B68FB604FF45043C4F203035B68BB60F868FBF712FC65
S32D00010E7002460B46C7E90023B868FBF70BFC02460B46104619464FF000024FF0804303F56003FBF79FFD02460C
S32D00010E980B46D7E90001FBF7BDFA02460B46C7E90023D7E900231046194607F11007BD4680BD00BF80B483B0F7
S32D00010EC000AF4FF45043C4F203031B684FF47A7202FB03F37B604FF45043C4F203035B684FF47A7202FB03F3CB
S32D00010EE84FEAD3337A68D3187B607B68184607F10C07BD4680BC704780B483B000AF78607B68184607F10C0778
S32D00010F10BD4680BC704700BF80B483B000AF78600B46FB707B68FA781A707B681B781A4647F63C13C0F201035C
S32D00010F389B5C042B00F2F98001A252F823F000BF5D0F0100BB0F01001910010077100100D51001004FF41043D4
S32D00010F60C4F204037A681278114647F68012C0F2010252F8212040F2031143F822104FF47043C4F20F034FF41F
S32D00010F887042C4F20F02526911467A681278104647F68012C0F2010252F8202002F01F024FF0010000FA02F29E
S32D00010FB06FEA02020A405A61BBE04FF42043C4F204037A681278114647F68012C0F2010252F8212040F203119A
S32D00010FD843F822104FF24003C4F20F034FF24002C4F20F02526911467A681278104647F68012C0F2010252F845
S32D00011000202002F01F024FF0010000FA02F26FEA02020A405A618CE04FF43043C4F204037A681278114647F6FF
S32D000110288012C0F2010252F8212040F2031143F822104FF28003C4F20F034FF28002C4F20F02526911467A680A
S32D000110501278104647F68012C0F2010252F8202002F01F024FF0010000FA02F26FEA02020A405A615DE04FF460
S32D000110784043C4F204037A681278114647F68012C0F2010252F8212040F2031143F822104FF2C003C4F20F03B8
S32D000110A04FF2C002C4F20F02526911467A681278104647F68012C0F2010252F8202002F01F024FF0010000FA28
S32D000110C802F26FEA02020A405A612EE04FF45043C4F204037A681278114647F68012C0F2010252F8212040F2FE
S32D000110F0031143F822104FF47143C4F20F034FF47142C4F20F02526911467A681278104647F68012C0F201027C
S32D0001111852F8202002F01F024FF0010000FA02F26FEA02020A405A6100BF07F10C07BD4680BC704780B485B052
S32D0001114000AF78604FF00003FB607B681B781A4647F63C13C0F201039B5C042B00F2868001A252F823F000BF67
S32D000111687D110100AD110100DD1101000D1201003D1201004FF47043C4F20F031B691A467B681B78194647F6F7
S32D000111908013C0F2010353F8213003F01F034FF0010101FA03F31340FB605FE04FF24003C4F20F031B691A46E7
S32D000111B87B681B78194647F68013C0F2010353F8213003F01F034FF0010101FA03F31340FB6047E04FF2800331
S32D000111E0C4F20F031B691A467B681B78194647F68013C0F2010353F8213003F01F034FF0010101FA03F31340A3
S32D00011208FB602FE04FF2C003C4F20F031B691A467B681B78194647F68013C0F2010353F8213003F01F034FF052
S32D00011230010101FA03F31340FB6017E04FF47143C4F20F031B691A467B681B78194647F68013C0F2010353F8AE
S32D00011258213003F01F034FF0010101FA03F31340FB6000BFFB68002B0CBF00230123DBB2184607F11407BD46C1
S32D0001128080BC704780B483B000AF78600B46FB707B68FA781A707B68184607F10C07BD4680BC704780B586B016
S32D000112A800AF78607B681B781A4647F60023C0F2010353F822303B617B681B781A4647F65C13C0F201039B5C3C
S32D000112D0FB733B69DBB203F01F03DAB243F2A863C1F6FF731A723B69DBB203F01F03DAB243F2A863C1F6FF737F
S32D000112F85A72FB7B002B1ED14FF43040C4F2030043F2A861C1F6FF7100F0F0FB4FF43043C4F203031B6803F0D7
S32D000113208003002B14BF00230123DBB2002BF1D14FF43043C4F203031B697B611DE04FF43040C4F20B0043F2E4
S32D00011348A861C1F6FF7100F0D1FB4FF43043C4F20B031B6803F08003002B14BF00230123DBB2002BF1D14FF415
S32D000113703043C4F20B031B697B617B69184607F11807BD4680BD00BF98B500AF43F29863C1F6FF734FF05C026D
S32D000113981A7043F29863C1F6FF734FF010025A7043F29863C1F6FF7341F234225A8043F29863C1F6FF7345F2DC
S32D000113C078629A8043F29863C1F6FF734FF010029A7143F29863C1F6FF734FF00702DA7143F29863C1F6FF7310
S32D000113E84FF4C022DA6043F29863C1F6FF734FF01F021A7243F29863C1F6FF734FF01F025A724FF43040C4F244
S32D00011410030043F29861C1F6FF7100F06BFB4FF43040C4F20B0043F29861C1F6FF7100F061FB4FF43040C4F281
S32D000114380B0000F0B5FA4FF43040C4F2030000F0AFFA4FF43040C4F20B0043F29861C1F6FF7100F04BFB4FF494
S32D000114603040C4F2030043F29861C1F6FF7100F041FB43F2A862C1F6FF7243F29863C1F6FF7314460FCB84E853
S32D000114880F0043F2A863C1F6FF734FF05C021A7043F2A863C1F6FF734FF00402DA7198BD80B500AF43F2BC6310
S32D000114B0C1F6FF731B6803F1010243F2BC63C1F6FF731A6000F016F94FF4E043C4F203034FF00102C3F80C2128
S32D000114D880BD00BF80B500AF4FF4E043C4F203034FF001021A6048F2A060C0F2010000F023F84FF4E043C4F213
S32D0001150003034FF00302C3F808214FF46143CEF200034FF46142CEF20002D2F8882142F01002C3F888214FF4DE
S32D000115286143CEF200034FF46142CEF20002926842F010029A6080BD80B483B000AF78604FF4E043C4F2030300
S32D000115507A68C3F8002107F10C07BD4680BC704780B584B000AF78600B46FB707A68FB7810461946FFF786FE7D
S32D0001157843F2B863C1F6FF731B68002B32D17B684FF000021A617B684FF000025A614FF0140004F095FD02467B
S32D000115A07B689A617B689B697A689A607B689B694FF001025A607B689B69FA781A707B689B694FF00002DA6053
S32D000115C87B689B694FF000021A617B689B694FF000025A707B689A6943F2B863C1F6FF731A6071E043F2B863E5
S32D000115F0C1F6FF731B68FB6002E0FB68DB68FB60FB681B78FA789A4206D0FB68DB68002B02D04FF0010301E001
S32D000116184FF00003002BECD1FB681B78FA789A4224D17B68FA689A617B689B699B68BB6002E0BB681B69BB6057
S32D00011640BB681B69002B0CBF00230123DBB2002BF3D1BB687A681A617B68BA685A617B684FF000021A617B6859
S32D000116689B695A6802F101025A602DE07B684FF000021A617B684FF000025A614FF0140004F01EFD02467B68C5
S32D000116909A617B689B697A689A607B689B694FF001025A607B689B69FA781A707B689B694FF00002DA607B6862
S32D000116B89B694FF000025A707B689B69FA681A617B689A69FB68DA60786800F09BF87B684FF48C429A607B6879
S32D000116E04FF45242DA607B68184607F11007BD4680BD00BF80B584B000AF43F2B863C1F6FF731B68FB6029E003
S32D00011708FB685B78FB71FB689B68184600F02EF80346BB71BB79002B19D0FB685B68012B15DDFB689B681B694B
S32D00011730BB6008E0BB685B6803F10102BB685A60BB681B69BB60BB68002B0CBF00230123DBB2002BEED1FB68D1
S32D00011758DB68FB60FB68002B0CBF00230123DBB2002BCDD107F11007BD4680BD80B584B000AF78607868FFF7B9
S32D0001178091FD0346FB607B689B695B78FB72FB7A002B12D17B68DA68FB689A420DDA7B689B694FF001025A7020
S32D000117A87B685B6803F101027B685A604FF0010317E0FB7A012B12D17B689A68FB689A420DDD7B689B694FF0E6
S32D000117D000025A707B685B6803F101027B685A604FF0010301E04FF00003184607F11007BD4680BD80B483B06A
S32D000117F800AF78607B685B68184607F10C07BD4680BC704780B483B000AF78607B684FF000025A6007F10C075F
S32D00011820BD4680BC704700BF80B582B000AF78600B46FB707B681846FFF762FB7B6803F101031846FFF75CFB20
S32D000118487B6803F102031846FFF756FBFB78032B66D801A252F823F0711801009F180100CD180100FB180100D5
S32D000118707B6818464FF00001FFF74EFB7B6803F1010318464FF00101FFF746FB7B6803F1020318464FF002015C
S32D00011898FFF73EFB44E07B6818464FF00801FFF737FB7B6803F1010318464FF00901FFF72FFB7B6803F102039F
S32D000118C018464FF00A01FFF727FB2DE07B6818464FF01001FFF720FB7B6803F1010318464FF01101FFF718FBF7
S32D000118E87B6803F1020318464FF01201FFF710FB16E07B6818464FF01801FFF709FB7B6803F1010318464FF043
S32D000119101901FFF701FB7B6803F1020318464FF01A01FFF7F9FA00BF7B68184607F10807BD4680BD80B582B071
S32D0001193800AF78607B681846FFF7FCFB034683F00103DBB2184607F10807BD4680BD00BF80B582B000AF78602C
S32D000119607B6803F101031846FFF7E8FB034683F00103DBB2184607F10807BD4680BD00BF80B582B000AF7860A7
S32D000119887B6803F102031846FFF7D4FB034683F00103DBB2184607F10807BD4680BD00BF80B485B000AF786090
S32D000119B07B681B6A23F040027B681A627B685B6A23F00B027B685A627B685B6A43F007027B685A627B685B6A5A
S32D000119D843F080027B685A627B681B6803F08003002B14BF00230123DBB2002BF4D17B685B6A03F04003002BE5
S32D00011A000CBF00230123DBB2002B02D04FF0010369E04FF00003FB817B68DB6CFB817B689B6C9AB2FB89D31886
S32D00011A28FB817B685B6C9AB2FB89D318FB817B681B6C9AB2FB89D318FB817B68DB6B9AB2FB89D318FB817B684E
S32D00011A509B6B9AB2FB89D318FB81FB894FEA5303FB81FB896FEA43436FEA5343FB81FA897B68DA624FF00003E9
S32D00011A78FB817B68DB6EFB817B689B6E9AB2FB89D318FB817B685B6E9AB2FB89D318FB817B681B6E9AB2FB89D9
S32D00011AA0D318FB817B68DB6D9AB2FB89D318FB817B689B6D9AB2FB89D318FB81FB894FEA5303FB81FB896FEAC0
S32D00011AC843436FEA5343FB81FA897B681A637B685B6A23F080027B685A624FF00003184607F11407BD4680BC4D
S32D00011AF0704700BF80B483B000AF786039603B681B781A467B689A603B685B781A467B68DA603B685B881A467E
S32D00011B187B689A613B689B881A467B68DA613B689B791A467B681A623B68DB791A467B685A623B68DA687B6848
S32D00011B401A653B681B7A1A467B681A603B685B7A1A467B685A6007F10C07BD4680BC704780B483B000AF78609E
S32D00011B687B68184607F10C07BD4680BC704700BF80B582B000AF786039607B68012B0AD13A684FF6FF739A42A7
S32D00011B9005D143F2C060C1F6FF70FFF7E1FF07F10807BD4680BD00BF80B500AF4FF001004FF6FF71FFF7E0FF4B
S32D00011BB880BD00BF80B483B000AF78600B46FB707B68FA781A707B684FF4FA725A807B6840F6C4129A807B6821
S32D00011BE0044A9A607B68184607F10C07BD4680BC704700BF000080BFF0B585B000AF786039604FF001031C46AF
S32D00011C0838684B49FBF70EFB0346002B02D14FF000031C46E3B2002B01D0454B3B604FF001031C463868434906
S32D00011C30FBF71AFB0346002B02D14FF000031C46E3B2002B01D03D4B3B607B689B6818463968FBF7E1FA0346E4
S32D00011C58002B64D17B683A689A607B685E887B689B881A467B685B88D31A1846FAF71EFD02460B4610461946E4
S32D00011C802BA3D3E90023FAF7A5FE02460B4614461D463868FAF720FD02460B4620462946FAF76EFD02460B468D
S32D00011CA810461946FAF7A2FF03469BB2F318FB81FB897B73FB894FEA23233B734FF43040C4F20E004FF07F0150
S32D00011CD0FEF7F6FE4FF43040C4F20E004FF00501FEF7EEFE7B681B784FF43040C4F20E001946FEF7E5FE3B7B85
S32D00011CF84FF43040C4F20E001946FEF7DDFE7B7B4FF43040C4F20E001946FEF7D5FE4FF43040C4F20E004FF0CD
S32D00011D20FF01FEF7CDFE07F11407BD46F0BD00BF0000000000806640000000000000344380B582B000AF7860C7
S32D00011D484FF43040C4F20E004FF07F01FEF7B4FE4FF43040C4F20E004FF00901FEF7ACFE7B681B784FF4304007
S32D00011D70C4F20E001946FEF7A3FE4FF43040C4F20E004FF00101FEF79BFE4FF43040C4F20E004FF0FF01FEF79A
S32D00011D9893FE07F10807BD4680BD00BF90B583B000AF78607B689B684FF00102144618461949FBF74BFA0346C4
S32D00011DC0002B02D14FF000031C46E3B2002B23D07B68144A9A604FF43040C4F20E004FF07F01FEF76DFE4FF48B
S32D00011DE83040C4F20E004FF00601FEF765FE7B681B784FF43040C4F20E001946FEF75CFE4FF43040C4F20E00E8
S32D00011E104FF0FF01FEF754FE07F10C07BD4690BD00000000000080BF80B582B000AF78604FF43043C4F2040322
S32D00011E384FF48072DA604FF42043C4F204034FF480729A644FF42043C4F204034FF480721A644FF42043C4F204
S32D00011E6004034FF480725A644FF42043C4F204034FF48072DA604FF28003C4F20F034FF28002C4F20F025269B6
S32D00011E8842F008025A614FF24003C4F20F034FF24002C4F20F02526942F480225A614FF24003C4F20F034FF2C3
S32D00011EB04002C4F20F02526942F480325A614FF24003C4F20F034FF24002C4F20F02526942F400325A614FF2E7
S32D00011ED84003C4F20F034FF24002C4F20F02126842F008021A604FF24003C4F20F034FF24002C4F20F02526905
S32D00011F0042F008025A614FF28003C4F20F034FF28002C4F20F02126842F008021A604FF42043C4F204034FF4CF
S32D00011F2880725A624FF42043C4F204034FF480721A624FF43043C4F204034FF480721A614FF43043C4F2040332
S32D00011F504FF480725A614FF43043C4F204034FF480729A614FF43043C4F204034FF48072DA614FF43043C4F280
S32D00011F7804034FF480721A634FF43043C4F204034FF480725A634FF43043C4F204034FF480729A634FF43043C1
S32D00011FA0C4F204034FF48072DA634FF43043C4F204034FF480721A644FF43043C4F204034FF480725A644FF414
S32D00011FC83043C4F204034FF480729A644FF43043C4F204034FF48072DA644FF44043C4F204034FF480721A606F
S32D00011FF04FF44043C4F204034FF480729A604FF44043C4F204034FF48072DA604FF44043C4F204034FF4807266
S32D000120181A614FF24003C4F20F034FF24002C4F20F02526942F440725A614FF28002C4F20F024FF28003C4F226
S32D000120400F035B6919464FF2F003C0F20F030B4353614FF2C003C4F20F034FF2C002C4F20F02526942F01D02A0
S32D000120685A6178684FF0E20100F0D6FC78684FF01D0100F015FE78684FF0020100F010FE78684FF0040100F056
S32D000120900BFE78684FF0E00100F0C2FC78684FF0010100F001FE4FF06400FEF791FE78684FF0E00100F0B4FC93
S32D000120B878684FF0030100F0F3FD78684FF0010100F0AAFC4FF00100FEF77EFE78684FF0E60100F0A1FC78681B
S32D000120E04FF0010100F0E0FD78684FF0A00100F0DBFD78684FF0FF0100F0D6FD78684FF0B00100F08DFC786830
S32D000121084FF01C0100F0CCFD78684FF00F0100F0C7FD78684FF0010100F0C2FD78684FF03F0100F0BDFD7868F7
S32D000121304FF0000100F0B8FD78684FF0EF0100F0B3FD78684FF0000100F0AEFD78684FF0B40100F065FC78682C
S32D000121584FF0010100F0A4FD78684FF0990100F09FFD78684FF0000100F09AFD78684FF0450100F095FD7868D3
S32D000121804FF0020100F090FD78684FF0000100F08BFD78684FF0000100F086FD78684FF0000100F081FD7868D8
S32D000121A84FF0B60100F038FC78684FF0010100F077FD78684FF0090100F072FD78684FF0000100F06DFD786887
S32D000121D04FF00E0100F068FD78684FF0020100F063FD78684FF0000100F05EFD78684FF0000100F059FD78681A
S32D000121F84FF0BA0100F010FC78684FF00F0100F04FFD4FF06400FEF7DFFD78684FF03A0100F002FC78684FF07C
S32D00012220600100F041FD78684FF02A0100F0F8FB78684FF0000100F037FD78684FF0000100F032FD78684FF031
S32D00012248010100F02DFD78684FF03F0100F028FD78684FF02B0100F0DFFB78684FF0000100F01EFD78684FF078
S32D00012270000100F019FD78684FF0000100F014FD78684FF0EF0100F00FFD78684FF0360100F0C6FB78684FF0E6
S32D00012298000100F005FD78684FF0F00100F0BCFB78684FF0040100F0FBFC78684FF0B80100F0B2FB78684FF0CE
S32D000122C00F0100F0F1FC78684FF0010100F0ECFC4FF24003C4F20F034FF24002C4F20F02126842F008021A6043
S32D000122E84FF06400FEF770FD78684FF0360100F093FB78684FF0000100F0D2FC78684FF0F00100F089FB7868AC
S32D000123104FF0040100F0C8FC43F2C460C1F6FF704FF0010100F0AAF943F2C460C1F6FF704FF06F014FF01E02C6
S32D0001233800F0A4F843F2C460C1F6FF704FF0000100F0F6F943F2C460C1F6FF7047F2CC51C0F201014FF05A0228
S32D000123604FF0AF0300F010FA78684FF0290100F057FB4FF06400FEF72BFD78684FF0BE0100F04EFB78684FF0E2
S32D000123880E0100F08DFC78684FF0F00100F088FC78684FF0010100F083FC78684FF0000100F07EFC78684FF0E1
S32D000123B0000100F079FC78684FF00F0100F074FC43F2C460C1F6FF704FF0010100F0B4F943F2C460C1F6FF702D
S32D000123D84FF0000100F084F907F10807BD4680BD80B582B000AF78607B684FF00002DA617B684FF001021A62F4
S32D000124007B684FF00E025A607B684FF01A029A607B684FF000025A617B684FF000029A617B684FF4A072DA6019
S32D000124287B684FF0F0021A617B684FF000021A70786801F05BFA7B68184607F10807BD4680BD00BF80B582B074
S32D0001245000AF786043F20073C1F6FF731B7883F00103DBB2002B09D043F20073C1F6FF734FF001021A707868ED
S32D00012478FFF7D6FC07F10807BD4680BD80B58AB002AFF860B9607A604FF07E030093F868B9687A684FF0620361
S32D000124A000F088FE4FF00003FB614FF00003BB6155E04FF000037B6145E040F20043C1F6FF73FA699B181B78DC
S32D000124C8002B09D14FF0FF03FB744FF0FF03BB744FF0FF037B741BE040F20043C1F6FF73FA699B181B78012B22
S32D000124F009D14FF0D403FB744FF00003BB744FF026037B7408E04FF0B503FB744FF0BA03BB744FF0B0037B743C
S32D00012518F97CBA7C7B7CF86800F08AF80246FB68DA61F86801F0E2F9F86801F07FF8FB6903F10103FB617B69AA
S32D0001254003F101037B617B69612BCCBF00230123DBB2002BB1D1BB6903F10103BB61BB697D2BCCBF0023012346
S32D00012568DBB2002BA1D107F12007BD4680BD00BF80B485B000AF78600B46FB70FB78062B2ED801A252F823F0A6
S32D00012590B5250100AD250100BD250100C5250100CD250100D5250100DD2501006FF07F43FB6019E04FF00003F8
S32D000125B8FB6015E04FF47F03FB6011E04FF47F43FB600DE04FF0FF03FB6009E04FF41903FB6005E049F6991337
S32D000125E0C0F29903FB6000BFFB68184607F11407BD4680BC704700BF80B584B000AF786039603B6803F47F0336
S32D000126084FEA1343FB733B6803F47F434FEA1323BB733B687B73F97BBA7B7B7B786800F007F80346184607F10F
S32D000126301007BD4680BD00BF80B487B000AF7860F970BA707B70FB784FEAA3037B61BB784FEAA3033B617B7826
S32D000126584FEAA303FB607B694FEA03323B694FEA83131A43FB681343184607F11C07BD4680BC704780B582B068
S32D0001268000AF78600B46FB70FB7878681946FFF773FF03467868194600F004F807F10807BD4680BD80B582B0AC
S32D000126A800AF7860396078683968FFF7A1FF02467B681A62786801F019F9786800F01AFC07F10807BD4680BD15
S32D000126D080B582B000AF7860786800F00FFC07F10807BD4680BD00BF80B582B000AF78600B46FB70FB7878680F
S32D000126F81946FFF73DFF03467868194600F004F807F10807BD4680BD80B582B000AF7860396078683968FFF769
S32D000127206BFF02467B681A62786801F0E3F807F10807BD4680BD00BF80B582B000AF78600B46FB70FB787868CA
S32D000127481946FFF715FF03467868194600F004F807F10807BD4680BD80B582B000AF7860396078683968FFF740
S32D0001277043FF02467B68DA61786801F0BBF807F10807BD4680BD00BF80B586B000AFF860B9607A603B604FF0C9
S32D0001279800037B6110E07B69BA68D3181B78F86879683A6800F0A8FD7B6803F10C037B607B6903F101037B61CE
S32D000127C07B69BA68D3181B78002B0CBF00230123DBB2002BE3D107F11807BD4680BD00BF80B584B000AF7860B7
S32D000127E839604FF00003FB60786800F0AFFC11E07B6859697B689A69FB683868C3181B78786800F059FD78681E
S32D0001281000F0B6FCFB6803F10103FB60FB683A68D3181B78002B0CBF00230123DBB2002BE2D107F11007BD4604
S32D0001283880BD00BF80B590B000AF7860396007F10C03184647F2D851C0F201013A6802F04DFB07F10C037868A2
S32D000128601946FFF7BDFF07F14007BD4680BD00BF90B593B000AF786039604FF001031C4638683049FAF7E6FCC1
S32D000128880346002B02D14FF000031C46E3B2002B23D03868FAF7EEFC03467B64786CFAF7CFFA034638681946FA
S32D000128B0FAF714FA034618462349FAF719FB03461846FAF7DBFC03463B6407F10C03184647F2E851C0F2010100
S32D000128D87A6C3B6C02F00AFB26E03B6883F000433B603868FAF7C6FC03467B64786CFAF7A7FA0346386819461A
S32D00012900FAF7ECF9034618460F49FAF7F1FA03461846FAF7B3FC03463B6407F10C03184647F2DC51C0F2010149
S32D000129287A6C3B6C02F0E2FA07F10C0378681946FFF752FF07F14C07BD4690BD0000000000007A4480B582B0D8
S32D0001295000AF78600B46FB70786800F0FBFB7B6859697B689A69FB78786800F0A9FC786800F006FC07F1080703
S32D00012978BD4680BD80B582B000AF78603960786800F0E4FB78683968FFF726FF786800F0C5FB07F10807BD4684
S32D000129A080BD00BF80B582B000AF78603960786800F0D0FB78683968FFF740FF786800F0B1FB07F10807BD46AE
S32D000129C880BD00BF80B582B000AF78603960786800F0BCFB78683968FFF746FF786800F09DFB07F10807BD46A8
S32D000129F080BD00BF80B582B000AF78600B46FB70786800F0A7FBFB7878681946FFF79EFF786800F087FB07F111
S32D00012A180807BD4680BD00BF80B483B000AF78600B46FB704FF28003C4F20F034FF28002C4F20F02126822F035
S32D00012A4008021A604FF24003C4F20F034FF24002C4F20F02126822F480221A604FF24003C4F20F034FF24002D2
S32D00012A68C4F20F02126842F480321A604FF24003C4F20F034FF24002C4F20F02126822F440721A604FF2800386
S32D00012A90C4F20F034FF28002C4F20F02126822F4425222F070021A604FF24003C4F20F034FF24002C4F20F020D
S32D00012AB812681146FA7802F00102D2B2002A02D04FF4007201E04FF000020A431A604FF24003C4F20F034FF20C
S32D00012AE04002C4F20F0212681146FA7802F00202002A02D04FF4807201E04FF000020A431A604FF28003C4F2F1
S32D00012B080F034FF28002C4F20F0212681146FA7802F00402002A02D04FF0100201E04FF000020A431A604FF250
S32D00012B308003C4F20F034FF28002C4F20F0212681146FA7802F00802002A02D04FF0200201E04FF000020A4396
